:1000000000800020BD0100009D56000055560000F4
:100010005556000055560000555600005556000034
:100020005556000055560000555600009D560000DC
:100030009D5600005556000091530000D553000016
:100040009D5600009D5600009D5600009D560000E4
:100050009D5600009D5600009D5600009D560000D4
:100060009D5600009D5600009D5600009D560000C4
:100070009D5600009D5600009D5600009D560000B4
:100080009D5600009D5600009D5600009D560000A4
:100090009D5600009D5600009D5600009D56000094
:1000A0003D4B00009D5600009D5600009D560000EF
:1000B0009D5600009D5600009D5600009D56000074
:1000C0009D5600009D5600009D5600009D56000064
:1000D0009D5600009D5600009D5600009D56000054
:1000E0009D5600009D5600009D5600009D56000044
:1000F0009D5600009D5600009D5600009D56000034
:100100009D5600009D5600009D5600009D56000023
:100110009D5600009D5600009D5600009D56000013
:100120009D5600009D5600009D5600009D56000003
:100130009D5600009D5600009D5600009D560000F3
:100140009D5600009D5600009D5600009D560000E3
:100150009D5600009D5600009D5600009D560000D3
:100160009D560000E55D00009D5600009D56000074
:100170009D5600009D5600009D5600009D560000B3
:100180009D5600009D5600009D5600009D560000A3
:100190009D5600009D5600009D5600009D56000093
:1001A0009D5600009D5600009D5600009D56000083
:1001B0009D5600009D5600001D510000564B4CF20C
:1001C000205210B51A804DF628121A8000BF00BFC9
:1001D00005F068FA514B4FF010621A60504A9A606D
:1001E000504ADA60504A136813F4807304D14F49BF
:1001F0000B604FF4A85313604D4B1A78110703D5C9
:100200001A7842F008021A704A4B4B492A221A7097
:100210004A4A4B4B8B4204D252F8040F43F8040B6A
:10022000F8E7484B484900228B4202D243F8042B9E
:10023000FAE74649464A002352F8230041F82300D2
:1002400001336F2BF8D1434B434A802103F8011B44
:100250009342FBD1414B3D4A1A60414B8A221A70AE
:10026000A3F5805324225A70A0221A709A7992071B
:10027000FCD59A79D406FCD43A4A937903F00C035E
:10028000082B384BF9D105221A7143225A719A79F9
:100290009006FCD5334A9179324B4906FBD5324A58
:1002A0004FF0817111600521516020221A709A79F6
:1002B00002F00C020C2AFAD12C4B2D4A1A602D4B5D
:1002C0002D4A1A6000225A60072243F8042C2B4A58
:1002D000C3F80C2D62B605F003FB144B1B68DA075C
:1002E00005D5274805F0EAFA264B274A1A60274B1E
:1002F0001B785B0609D5234C234B22689A4204D114
:100300001F4805F0DBFA0023236007F0ADF805F085
:10031000CFF905F0FDF8FEE70E20054030800440DF
:10032000823F04000100002B10D0034014D0034092
:1003300002D0074000E0074024060020D4840000DB
:1003400020FBFF1F24060020700F002000F6FF1F77
:100350000000000000E400E05FE400E008ED00E0E1
:1003600000500640004006404480044004800440A1
:10037000C010050014E000E03F190100000020203B
:10038000C8DB02601CE00340A5C3945A00F007409C
:10039000FFFFFFFFFFFFFFFFFFFFFFFFFFFFFFFF6D
:1003A000FFFFFFFFFFFFFFFFFFFFFFFFFFFFFFFF5D
:1003B000FFFFFFFFFFFFFFFFFFFFFFFFFFFFFFFF4D
:1003C000FFFFFFFFFFFFFFFFFFFFFFFFFFFFFFFF3D
:1003D000FFFFFFFFFFFFFFFFFFFFFFFFFFFFFFFF2D
:1003E000FFFFFFFFFFFFFFFFFFFFFFFFFFFFFFFF1D
:1003F000FFFFFFFFFFFFFFFFFFFFFFFFFFFFFFFF0D
:10040000FFFFFFFFFFFFFFFFFFFFFFFFDEF9FFFF23
:1004100010B5054C237833B9044B13B10448AFF33E
:1004200000800123237010BD24060020000000007E
:10043000D0840000084B10B51BB108490848AFF341
:1004400000800848036803B910BD074B002BFBD0A0
:10045000BDE81040184700BF00000000280600203B
:10046000D0840000240600200000000010B5044BDA
:10047000044640F8183B02F0E5F9204610BD00BFE5
:10048000D481000010B5044604F0CEFD204610BD16
:1004900010B50E210446124806F01AFB204607F05C
:1004A000EFFB0146204606F013FB0E4804F0B0FFB8
:1004B00021460D4801F092F9052005F069FB0A4834
:1004C00001F052FC04460028F9D10146112005F044
:1004D000FFFA21460220BDE8104005F0F9BA00BF3E
:1004E0002881000028FDFF1FA407002010B56E2101
:1004F0002348244C04F090FC0121112005F00CFB52
:100500000121022005F008FB0121022005F0E0FA9C
:10051000204600F099F920465522202100F06EF97E
:10052000E0B94021174800F0B1FB0721164802F05E
:100530003DF80E21144802F081F80A21134802F018
:100540009FF9A0B91C21124806F0C2FA114804F024
:100550005FFF4FF4FA7005F01BFBF3E7E28842F00F
:10056000040292B22046242100F048F9D9E70A4853
:10057000FFF78EFF41F28830BDE8104005F008BB60
:100580000082FF1F4006002000FCFF1FF80A002029
:100590003881000028FDFF1F5881000008B50421A4
:1005A000034806F095FA034804F032FFFEE700BF67
:1005B0006481000028FDFF1F2DE9F047794D7A4C3A
:1005C0002A687A4E26600023637223612372E360F7
:1005D0000AB9DEE01A465369002BFBD154614FF093
:1005E0000008734B7348C4F81480A4F80480A4F87E
:1005F000068084F80A80704F236002F015F96A487B
:10060000C4F86C80C4F8708001F0D2F86B4A6C4971
:10061000654806F099FC022007F11802434641465E
:100620003E6087F80880C7F80C8078723A61BE4651
:1006300001E0DEF8102042F823107A7A5E48013398
:100640009A42F6DC2A68574B0AB9A4E01A46536965
:10065000002BFBD157614FF000085A4B5648C7F8A2
:100660001480A7F80480A7F8068087F80A80DFF8CE
:100670005C913B6000F0F6FE2A6889F80980C9F8B1
:100680000060C9F8108089F80880C9F80C80454BD3
:100690000AB982E01A465369002BFBD1C2F81490C4
:1006A000DFF82C81484B4948C9F800304FF0000A68
:1006B000C9F814A0A9F804A0A9F806A089F80AA00E
:1006C00000F0BEFC012008F11802C8F80060534693
:1006D000514688F808A0C8F80CA088F80900C8F8A6
:1006E0001020464600E0326942F8231098F80920AD
:1006F000374801339A42F6DC2A682A4B0AB94FE0A0
:100700001A465369002BFBD1C2F81480314E324D8A
:1007100034600024314BC8F814403046A8F8044037
:10072000A8F8064088F80A40C8F8003088F8F44075
:10073000C8F8F04088F8F540347288F8F6407760E1
:100740007472F460347404F03BFC1C4A2449304653
:1007500006F0FAFB28462C72C5F80090C5F8048014
:100760006C72EC602C7404F02BFC1D49134A284673
:1007700006F0EAFB1B4B1C4A1A601C480A221A723C
:1007800002F052F80D4A1A491848BDE8F04706F041
:10079000DBBB2C6023E718605DE7C3F800907FE7C0
:1007A0001860B3E7CC0D0020A407002024810000CE
:1007B000D4810000BC070020240A0020FCFBFF1F9E
:1007C0006D040000C8810000BC8100006C060020A0
:1007D000840600207C07002090070020E0810000B4
:1007E0008504000040060020A08100004C06002087
:1007F00045280000002070470020704738B52429A4
:1008000008BFC2800C46017A0E48154604F01CFA57
:10081000C4F307210B4804F0C5F8E1B2094804F01D
:10082000C1F8C5F30721074804F0BCF8E9B2054850
:1008300004F0B8F8034804F0DDFAB0FA80F040099B
:1008400038BD00BFB40D0020F8B50126054606717D
:100850000F4804F04DF9052005F09AF9297A0C4863
:1008600004F0F2F900210A4804F09CF8302108480D
:1008700004F098F84021064804F094F860210448F8
:1008800004F090F8024804F0B5FA18B10020F8BD61
:10089000B40D00200446297AB14804F0D5F9214668
:1008A000AF4804F07FF82621AD4804F07BF82146DC
:1008B000AB4804F077F86C21A94804F073F8A84815
:1008C00004F098FA297AA64804F0BEF92146A44813
:1008D00004F068F82821A24804F064F83146A048E2
:1008E00004F060F8F2219E4804F05CF89C4804F0A3
:1008F00081FA297A9A4804F0A7F92146984804F029
:1009000051F82C21964804F04DF80F21944804F03A
:1009100049F82221924804F045F8914804F06AFA17
:10092000297A8F4804F090F921468D4804F03AF86E
:100930003C218B4804F036F84421894804F032F811
:100940004621874804F02EF8854804F053FA40F217
:100950003713EB80297A824804F076F921468048E3
:1009600004F020F824217E4804F01CF831467C482D
:1009700004F018F837217A4804F014F8784804F0A5
:1009800039FA297A764804F05FF92146744804F070
:1009900009F83021724804F005F84021704804F04D
:1009A00001F8FF216E4803F0FDFF6D4804F022FAC4
:1009B000297A6B4804F048F92146694803F0F2FFB0
:1009C0000221674803F0EEFF2146654803F0EAFF85
:1009D0007321634803F0E6FF614804F00BFA4FF41B
:1009E000C87005F0D5F8297A5D4804F02DF9214644
:1009F0005B4803F0D7FF2E21594803F0D3FF1D2198
:100A0000574803F0CFFF1D21554803F0CBFF544852
:100A100004F0F0F9297A524804F016F921465048BA
:100A200003F0C0FF04214E4803F0BCFF21464C48B0
:100A300003F0B8FF04214A4803F0B4FF484804F02B
:100A4000D9F9297A464804F0FFF82146444803F0D2
:100A5000A9FF0621424803F0A5FF2146404803F0C4
:100A6000A1FF30213E4803F09DFF3D4804F0C2F94C
:100A7000297A3B4804F0E8F82146394803F092FF10
:100A80000A21374803F08EFF2146354803F08AFFDC
:100A90001021334803F086FF314804F0ABF9297A7E
:100AA0002F4804F0D1F821462D4803F07BFF0E219A
:100AB0002B4803F077FF2146294803F073FF2146B6
:100AC000274803F06FFF264804F094F9297A244858
:100AD00004F0BAF82146224803F064FF10212048B0
:100AE00003F060FF3C211E4803F05CFF3C211C48E2
:100AF00003F058FF1A4804F07DF9297A184804F0E9
:100B0000A3F82146164803F04DFF2221144803F0B4
:100B100049FF7F21124803F045FF7F21104803F071
:100B200041FF36270E4804F065F9297AEF800C481A
:100B300004F08AF821460A4803F034FF24210848CB
:100B400003F030FF2146064803F02CFF39460448E5
:100B500003F028FF024804F04DF96E723046F8BDEC
:100B6000B40D00200B462DE9F041454905461846D5
:100B700006F0FEFA434906F0F3F906F049FC044694
:100B800000284CD080281FD92B79002426462BBB67
:100B9000297A3D4804F058F800213B4803F002FF51
:100BA0002221394803F0FEFE3146374803F0FAFEB1
:100BB0002146354803F0F6FE334804F01BF9B0FA3D
:100BC00080F04009BDE8F081C0F180042B7944EA4F
:100BD0000424C4F30726E4B2002BD9D0EF88297A85
:100BE000294827F010074FF00008EF8085F80480AF
:100BF00004F02AF84146244803F0D4FE2421224878
:100C000003F0D0FE390A204803F0CCFE07F0EF01D4
:100C10001D4803F0C7FE1C4804F0ECF8B8E70123B8
:100C20002B71297A184804F00FF82146164803F072
:100C3000B9FE2221144803F0B5FE7F21124803F0CB
:100C4000B1FE7F21104803F0ADFE0F4804F0D2F84A
:100C5000EE88297A0C4846F01006B6B2EE8003F012
:100C6000F3FF2146084803F09DFE2421064803F0C7
:100C700099FE310A044803F095FEF1B299E700BFEE
:100C800000000143EE7CFF3EB40D00202DE9F04151
:100C900005460C4600294CD080291FD92B79002409
:100CA00026462BBB297A3B4803F0CEFF002139486A
:100CB00003F078FE2221374803F074FE31463548B0
:100CC00003F070FE2146334803F06CFE314804F017
:100CD00091F8B0FA80F04009BDE8F081C1F18004DC
:100CE0002B7944EA0424C4F30726E4B2002BD9D0BC
:100CF000EF88297A274827F010074FF00008EF8087
:100D000085F8048003F0A0FF4146224803F04AFE24
:100D10002421204803F046FE390A1E4803F042FE13
:100D200007F0EF011B4803F03DFE1A4804F062F89B
:100D3000B8E701230371017A164803F085FF2146C5
:100D4000144803F02FFE2221124803F02BFE7F21CE
:100D5000104803F027FE7F210E4803F023FE0D48C4
:100D600004F048F8EE88297A0A4846F01006B6B230
:100D7000EE8003F069FF2146064803F013FE2421AC
:100D8000044803F00FFE310A024803F00BFEF1B2F3
:100D900099E700BFB40D002070B505460C4619B1A7
:100DA00001293BD0002070BD017A424803F04CFF7E
:100DB0002146404803F0F6FD20213E4803F0F2FDB5
:100DC00021463C4803F0EEFD55213A4803F0EAFD88
:100DD000384804F00FF806460028E3D1EC88297A59
:100DE000344844F00404A4B2EC8003F02DFF3146F3
:100DF000304803F0D7FD24212E4803F0D3FD210A0B
:100E00002C4803F0CFFDE1B22A4803F0CBFD29487E
:100E100003F0F0FFB0FA80F0400970BD017A254878
:100E200003F012FF0021234803F0BCFD2A212148D2
:100E300003F0B8FD21461F4803F0B4FD73211D489F
:100E400003F0B0FD1B4803F0D5FF04460028A9D1EC
:100E5000297A184803F0F8FE2146164803F0A2FD4F
:100E60002021144803F09EFD2146124803F09AFD0C
:100E70008821104803F096FD0E4803F0BBFF04469E
:100E800000288FD1EE88297A0A4826F00406EE80E1
:100E900003F0DAFE2146074803F084FD24210548CB
:100EA00003F080FD310A034803F07CFD06F0FB01EE
:100EB000AAE700BFB40D002010B5044604F00EFAF6
:100EC000204610BD024A0349034806F03DB800BF62
:100ED000FCFBFF1FB90E0000440A002038B5074D87
:100EE000074C08482A46214606F02EF82A46214695
:100EF0000548BDE8384006F027B800BFFCFBFF1FDF
:100F0000B90E00004C0A0020540A00201B4A1C4B5A
:100F100011681C48096970B499421279027009D2AB
:100F2000194A127832B3194A4FF08041116003F523
:100F3000807402E01C46A3F58073154A15491268B7
:100F40000D68AAB1A5B1144E3088402810D84100D0
:100F50000A444030294402320231308033F9040B14
:100F600022F8020F9C4233F9020C21F8020FF5D847
:100F700070BC704703F58074DFE700BF640A00208F
:100F8000C0F2FF1F1F8000405E0A002008E200E060
:100F90006C0A0020600A00205C0A0020F8B50646B2
:100FA00003F06AFF0446E8B103F066FF0546002837
:100FB0003AD072B61F4B1A887F2A19D8002C31D02C
:100FC0001D490A6842B162B6204603F0A9FF2846CF
:100FD000BDE8F84003F0A4BF18480C601A80056013
:100FE00062B6F8BD054672B6124B1A887F2AE5D95B
:100FF000114A12491768146000220C681A800D60AB
:1010000062B63946304603F0B5FF384603F088FF34
:1010100030462146012203F0ADFF2046BDE8F840EE
:1010200003F07EBF62B6F8BD204603F079FF2C4680
:10103000BFE700BF5C0A00206C0A0020600A0020A5
:10104000F8B5284C284E294F294D2046012104F09F
:10105000A7F800F0E9FA274B274A28484FF48061A7
:101060001960236800211A60998022791E6102F1BB
:10107000804240F20116DE809F6102F504324FF497
:1010800080760627DE82DE839F8302268E27D96044
:101090009E609E82117017702B68194E43F01243A8
:1010A00043F001032B600368164D43F010430360C7
:1010B00004F01CF82279144B144C187053119B0047
:1010C00003F16043174602F1100003F5614302F09B
:1010D0001F020121377001FA02F245F820401A6020
:1010E000F8BD00BF640A0020C0F1FF1F00FEFFFF33
:1010F00080F0024014B00440A2F0024000F0024030
:101100001B80004000F6FF1F5E0A00200D0F00004C
:10111000024A0349034805F017BF00BFFCFBFF1F4D
:10112000B90E0000640A0020024A0349034805F092
:101130000BBF00BFFCFBFF1FB90E0000700A0020B0
:10114000024A0349034805F0FFBE00BFFCFBFF1F36
:10115000B90E0000780A0020024A0349034805F04E
:10116000F3BE00BFFCFBFF1FB90E0000800A002089
:10117000024A0349034805F0E7BE00BFFCFBFF1F1E
:10118000B90E0000880A0020024A0349034805F00E
:10119000DBBE00BFFCFBFF1FB90E0000900A002061
:1011A0002DE9F04F00F5807EB1E8A00AB2E84015C5
:1011B000C5EA0643C6EA2544C7EA0845C8EA274601
:1011C000C9EA0A47CAEA2948CBEA0C49CCEA2B4AC1
:1011D000A0E8F8078645E7D1BDE8F04F70474FF02B
:1011E00000022DE9F00F00F5807C00BFB1E8A00AF5
:1011F000C5EA0203C2EA2544C7EA0205C2EA274655
:10120000C9EA0207C2EA2948CBEA0209C2EA2B4A24
:10121000A0E8F8078445E9D1BDE8F00F70474FF02A
:1012200000022DE9F00F00F5807C00BFB1E8A00AB4
:10123000C2EA0543C2EA0504C2EA0745C2EA070654
:10124000C2EA0947C2EA0908C2EA0B49C2EA0B0A24
:10125000A0E8F8078445E9D1BDE8F00F70472DE913
:10126000F00F089C00F5007B51F8045B53F8046B09
:10127000C5EA0647C6EA254952F8045B54F8046BF0
:10128000C5EA0648C6EA254AA0E880078345EBD1AF
:10129000BDE8F00F704700BF024A0349034805F05C
:1012A00053BE00BFFCFBFF1FB90E0000980A0020D0
:1012B000024A0349034805F047BE00BFFCFBFF1F7D
:1012C000B90E0000A00A00202DE9F84F344B354834
:1012D0001A68354912681B790B70824229D2334B48
:1012E0001B784BBBDFF8D4A0DFF8D490DFF8D480B4
:1012F000DFF8D4B0DAF80060D9F80070B8F8004030
:10130000BBF80050002E3CD0A7B33A1D311D02EBB4
:10131000450201EB4401FFF743FF403540347F2C89
:101320001CD8A8F800407F2D0BD8ABF80050BDE8C2
:10133000F88FA0F58070D5E71D4B4FF080421A6002
:10134000D0E700243846ABF8004003F0E9FD194B24
:101350001A68C9F800201C60BDE8F88F00243046E8
:10136000A8F8004003F0DCFD134B1A68CAF800200F
:101370001C60D8E7311D01EB4401FFF730FF40341A
:10138000CDE737B1391D01EB4501FFF748FF403587
:10139000C5E74FF48072394606F088FBBFE700BF0F
:1013A000AC0A0020C0F4FF1F1F800040C40A0020C8
:1013B00008E200E0C00A0020C80A0020BC0A0020A1
:1013C000B40A0020A80A0020B80A002070B5002145
:1013D000044603F0E9FD80B172B61C4A1368002B85
:1013E00029D01B490D6805B31A4E1560002208600C
:1013F000328062B6184603F093FD2046012103F0C7
:10140000D3FD88B172B6144A1368CBB113490C6886
:1014100074B1134D1460002208602A8062B6184629
:10142000BDE8704003F07CBD70BD086062B6E4E7C3
:10143000086062B670BD074910600B8062B6DCE7D9
:10144000074910600B8062B670BD00BFBC0A002067
:10145000C80A0020A80A0020B40A0020C00A002000
:10146000B80A0020F8B501214E484F4D4F4C03F00B
:1014700097FE4F4B4F49504800222A6022601A685D
:1014800042F400421A600A6842F002020A601A68D6
:1014900042F002021A600368002B3CDB474B1B68DA
:1014A000002B38DB464A4FF0864313601368002B4D
:1014B000FCDB444C4448DFF860E14449444B454A76
:1014C000454F464E464D47F2320CC4F800C000244A
:1014D00004600120CEF80000DFF840E1C1F800E030
:1014E0004FF4803119603F4B1360DFF834E13E4A1E
:1014F0003A603460286000F18E40CEF800003B4C2A
:10150000B9673B483B4946F8503C4FF4C0632A61F9
:10151000236003600B60234C374B384A3849DFF8AF
:1015200004E1384F2448384E4FF4C0651D602368ED
:1015300002251A609D802279D96002F180429D6067
:1015400002F504324FF480710625C3F810E0D98209
:1015500040F2011ED9839D8300218F2599829961D4
:10156000A3F806E01170157023793B704FF080737B
:101570000360066003F0BAFD2279244B244C1870F6
:1015800053119B0003F1604302F1100003F5614326
:1015900002F01F0201211F4D44F8205001FA02F20F
:1015A0001A60F8BDAC0A0020BC0A0020B40A002072
:1015B0003C8004404080044000F0024080F0024043
:1015C00000F1024004F1024060F0024008F00240E5
:1015D0000CF0024010F0024014F00240E0F0024033
:1015E00084F002401B1F0100001F1F1F08B00440B1
:1015F0000CB0044018B0044004B00440C0F3FF1F16
:1016000000FEFFFF1B80004001000090C40A002084
:1016100000F6FF1FC912000004F00240010000079D
:1016200088F0024022F00240284B29491A682948D4
:1016300042F400421A600A6842F002020A601A6824
:1016400042F002021A600368002B3EDB224B1B684B
:10165000002B3ADB214A4FF0864313601368002BBE
:10166000FCDBF0B51E4C1F48DFF8A8E01E491F4BFD
:101670001F4A204F204E214D47F2320CC4F800C0C3
:10168000002404600120CEF80000DFF88CE0C1F8EF
:1016900000E04FF480311960194B1360DFF87CE0F3
:1016A000184A3A603460286000F18E40CEF800009D
:1016B000154CB9671548164946F8503C4FF4C063BD
:1016C0002A61236003600B60F0BD70473C800440DA
:1016D0004080044000F0024080F0024000F10240EF
:1016E00004F1024060F0024008F002400CF00240B9
:1016F00010F0024014F00240E0F0024084F002409A
:101700001B1F0100001F1F1F08B004400CB0044045
:1017100018B0044004F002400100000788F00240C5
:10172000024A0349034805F00FBC00BFFCFBFF1F42
:10173000B90E0000AC0A0020024A0349034805F034
:1017400003BC00BFFCFBFF1FB90E0000CC0A002049
:10175000024A0349034805F0F7BB00BFFCFBFF1F2B
:10176000B90E0000D40A0020024A0349034805F0DC
:10177000EBBB00BFFCFBFF1FB90E0000DC0A002022
:10178000024A0349034805F0DFBB00BFFCFBFF1F13
:10179000B90E0000E40A0020024A0349034805F09C
:1017A000D3BB00BFFCFBFF1FB90E0000EC0A0020FA
:1017B00038B50446C06E0D23002584F87B3284F8CA
:1017C0007C32256610B103F0ABFBE566206F18B1E3
:1017D00003F0A6FB0023236738BD00BF2DE9F041CD
:1017E000044688B0884672B690F87B320D2B7AD0CA
:1017F00000230D22C06E256FE366236784F87B22E9
:1018000062B608B103F08CFB15B1284603F088FBE3
:1018100004F11806364D304601F01CF82B88002BD9
:1018200051D15E21334800F0A9FE5E213148304F8E
:1018300000F08EFE2B8801332B8072B601234246C6
:1018400068462D4901F0C4F808AA9DF8041052F822
:1018500013ED029821779DF80C109568206284F8AA
:1018600024105068117B079AC4F82900C4F825E0B9
:101870006846C4F82D5084F83110626300F0E2FF2E
:1018800062B6304600F0F4FF054648B93B8803BB1A
:101890005E21184800F072FE284608B0BDE8F081CD
:1018A00000230D2014210822A4F87832A4F87632FF
:1018B00084F87A3284F87C02216684F87B222846F8
:1018C00008B0BDE8F081013B9BB22B80002BA8D073
:1018D000ABE7013B9BB23B80002BF0D15E2105487A
:1018E00000F04CFED8E762B6014D00F118069CE707
:1018F000F40A002000FCFF1FF80A00202DE9F04F39
:10190000B0F8766200F1760783B03E44E1B1DFF8CB
:101910004C94DFF84CA4DFF84CB404460D4694F820
:101920007B320D2B36D8DFE813F00F000F00CC0010
:1019300097000F000F000F000F000F0113003E0073
:101940006A0081000F002266002003B0BDE8F08F1E
:10195000226E94F87A32AA4204F1380028BF2A464F
:1019600018443146904603F0DBFD94F87A12B4F83F
:101970007622236E41444244C8EB030384F87A1272
:10198000A4F876222366002BDED1A26B91B2012946
:1019900000F020810D23002084F87C3284F87B3213
:1019A00003B0BDE8F08F226E94F87A32AA4204F1B7
:1019B000380028BF2A4618443146904603F0B0FD4F
:1019C00094F87A12B4F87622236E41444244C8EB6C
:1019D000030384F87A12A4F876222366002BB3D18D
:1019E000A16BE26B226649454644C8EB050500F051
:1019F00031810B2384F87B32002D90D1A4E7236E34
:101A0000B4F876229D42C0F095811A4408201E4405
:101A1000ED1A00210A23A4F87622206684F87A12AF
:101A200084F87B32002D7FF47AAF8DE7226EB4F814
:101A3000761295422B4628BF13461944D21AA4F8B1
:101A4000761280D10822ED1A1E44226684F87B2289
:101A5000002D7FF464AF77E7236E94F87D129D42EA
:101A600028BF1D465A1B2266002900F0A580E16EA2
:101A7000B4F87430A06B01EB430C4FF0000EACF8DF
:101A8000040084F87DE2206F96F801C016F802EB9E
:101A900000EB430001339BB24EEA0C2E7F2BA4F8DF
:101AA0007430A5F10205A0F804E000F21781002DC2
:101AB00040F08280002A00F0868084F87D5228461B
:101AC00043E7236EE16E9D4228BF1D46C5EB030C24
:101AD0000236C4F860C003E00236002D00F0D38067
:101AE000B4F8742016F8020C16F801EC531C9BB2E3
:101AF00001EB420240EA0E207F2BA4F87430A5F1DE
:101B000002059080E8D90022204603F033FA012232
:101B1000E16E204603F02EFAE06E03F001FA236E28
:101B2000206F1D44F61B0023A4F876622566E36649
:101B300010B103F0F5F9256E15B90D2384F87B3249
:101B4000012003B0BDE8F08F226E94F87A32AA42E9
:101B500004F1380028BF2A4618443146904603F065
:101B6000DFFC94F87A12B4F87622236E41444244A2
:101B7000C8EB030384F87A12A4F876222366002BBC
:101B80007FF4E2AEA26B52457FF404AF226C5A455B
:101B90007FF400AF626C6B498A4268D00C23A26C60
:101BA00084F87A3284F87B32C8EB05054644226615
:101BB000002D7FF4B4AEC7E6023D307896F801E020
:101BC00066D1002A6FD10D23002084F87B3203B048
:101BD000BDE8F08FE06B4AF6444E704500F09D8002
:101BE00045F2226398426DD042F6113398427FF459
:101BF000D1AE06230193DFF85CC1534B53480093E9
:101C00004FF0070E05210423120C012A00F08F80EB
:101C1000022A7FF4BFAE6046DDF800C00B46B4F880
:101C20004620082A04D0102A7FF4B4AE60467346DA
:101C30000821002284F87C32C8EB05050A23A0663F
:101C40004644216684F87A2284F87B32002D7FF4A2
:101C500066AE79E694F87C1284F87D32CB0784F87E
:101C60007B1227D46266002D7FF459AE6CE6A26C1D
:101C7000A2F1100118293FF68DAE092184F87A32BD
:101C800084F87B1290E7BCF1000F7FF45DAE9AE719
:101C9000E16EB4F8743001EB430C40EA0E200236DA
:101CA000ACF80400EFE63388A3630223284684F8E7
:101CB0007D324AE603F0E0F8206700283FF444AEA6
:101CC000226ECFE7224B009306230193DFF878C002
:101CD00020484FF0070E0521042395E700222046F7
:101CE00003F048F94FF00008E06E03F019F9012203
:101CF000216FC4F86C80204603F03CF9206F03F09C
:101D00000FF9206EC4F87080F61B2844A4F87662A0
:101D1000206600283FF411AF12E7022001900E4820
:101D200000904FF0030EDFF828C007486CE7DDF89D
:101D300004E074E75B1B15442366A4F87652002088
:101D400003E600BF666D74208D7BCD0534EE35173C
:101D5000C6BDE6021AF79A0BE35E73016461746113
:101D6000524946465741564590F87B0207288CBF9A
:101D700000200120704700BF90F87B320D2B00F04F
:101D8000E1802DE9F04F83B0044603F075F8E0667A
:101D9000002800F0D48094F87B32072B48D9002328
:101DA0002367B4F87832B4F876120022591A9142B7
:101DB000A4F8742005DD2046FFF7A0FD002840F0C0
:101DC000BE8094F87B320D2B04F1180B65D0584679
:101DD00000F080FC002860D004F17608DFF8ECA366
:101DE000D946C3464FF400725946484600F02CFDD0
:101DF00080B2A4F87802002800F0788294F87B7210
:101E0000002205463B46A4F876225E460D2B3ED8BE
:101E1000DFE813F0A900A90004014B01A900A90003
:101E2000A900A900C6001B008901B601B200A900E3
:101E3000D907B4D503F020F820670028B1D1E06EAF
:101E400003B0BDE8F04F03F06BB8226E94F87A321D
:101E5000AA4204F1380028BF2A4618443146904669
:101E600003F05EFB94F87A12B4F87622236E4144B4
:101E70004244C8EB030384F87A12A4F8762223665E
:101E8000002B6ED1A26B91B2012900F0A5810D2328
:101E9000CB4684F87C3284F87B32584600F0DAFC7A
:101EA000C64A1388002B40F082815E21C44800F0AE
:101EB00065FB0D2384F87C3284F87B32E56E1DB31C
:101EC000B4F87430DBB17F2B08D85A0005EB43001F
:101ED000C2F580720430002105F0E8FD2946002299
:101EE000204603F047F894F87B32072B06D8DB072F
:101EF00004D40122E16E204603F03CF8E56E28464A
:101F000003F00EF80023E366256FC5B1B4F8743012
:101F100083B17F2B08D85A0005EB4300C2F58072CD
:101F20000430002105F0C2FD29460122204603F0BD
:101F300021F8256F284602F0F3FF0023236703B042
:101F4000BDE8F08F7047023D327896F801E040F02E
:101F50008081002B00F0DA803388A363022384F8A9
:101F60007D3294F87B320D2B00F0C081072FA5D96C
:101F7000072B7FF637AFA1E7236EB4F87612AB429A
:101F80001A4628BF2A4611449B1AA4F8761240F03C
:101F9000C8810823AD1A1644236684F87B32E5D045
:101FA000226E94F87A32AA4204F1380028BF2A46F9
:101FB00018443146904603F0B3FA94F87A12B4F814
:101FC0007622236E41444244C8EB030084F87A121F
:101FD000A4F8762220660028C3D1A36B53457FF472
:101FE00056AF236C774A93427FF451AF02F15B42C4
:101FF000636C02F5F11202F60F42934200F0418148
:102000000C23A26C84F87A3284F87B32C8EB050585
:1020100046442266002D7FF4F9AEA4E7206EE16EFF
:10202000854228BF0546401B0236206603E0023683
:10203000002D00F0CD80B4F8742016F802EC16F8EC
:1020400001CC531C9BB201EB42024EEA0C2E7F2BBB
:10205000A4F87430A5F10205A2F804E0E7D9002243
:10206000204602F087FF0122E16E204602F082FF47
:10207000E06E02F055FF236E206FD8461D44C8EB7A
:1020800006060023CB46A4F876622566E36610B107
:1020900002F046FF256E002D39D094F87B320D2BCF
:1020A0003FF4FBAE03B0BDE8F08F236E94F87D22C1
:1020B0009D4228BF1D465B1B2366002A3FF443AFA9
:1020C000E16EB4F87400A26B01EB400C4FF0000E0F
:1020D000ACF8042084F87DE2226F96F801C016F86F
:1020E00002EB02EB4002013080B24EEA0C2E7F2858
:1020F000A4F87400A5F10205A2F804E000F2CD8076
:10210000002D7FF420AF002B40F0E380CB460D2361
:1021100084F87B32584600F09DFB284A1388002B38
:102120003FF4C3AE43E0226E94F87A32AA4204F13F
:10213000380028BF2A4618443146904603F0F0F98B
:1021400094F87A12B4F87632226E41444344C8EBD4
:10215000020284F87A12A4F876322266002A7FF40A
:1021600000AFA36B1848E16B216683424644C8EB7D
:10217000050579D00B2384F87B32002D3FF4F6AEB1
:10218000236EB4F87622AB4200F2CD801A440820C8
:102190001E44ED1A00210A23A4F87622206684F852
:1021A0007A1284F87B32002DBDD10A23DEE6013B92
:1021B0009BB21380002B3FF478AE7AE6F40A00203D
:1021C00000FCFF1F57415645646174615249464601
:1021D00000287FF4C6AE99E7E06B4AF6444E70459E
:1021E0007AD045F22263984200F08C8042F6113397
:1021F00098427FF44CAE06230193DFF848C14D4B63
:102200004D4800934FF0070E05210423120C012ABC
:1022100000F08480022A7FF43AAE6046DDF800C008
:102220000B46B4F84620082A04D0102A7FF42FAEBB
:10223000604673460821002284F87C320A23A06697
:102240004644C8EB0505216684F87A2284F87B327F
:10225000A9E7E16EB4F8740001EB400C42EA0E22EB
:102260000236ACF8042037E794F87C3284F87D22FB
:10227000DA0784F87B323BD46166002D7FF4C6AD6B
:1022800071E6A26CA2F11003182B3FF600AE0923F1
:1022900084F87A0284F87B32B8E60022204602F005
:1022A00069FE0027E06E02F03BFE0122216FE76627
:1022B000204602F05FFE206F02F032FE236E276799
:1022C000D846C8EB06061D44CB46A4F876622566C0
:1022D000E1E684F87D5244E6022001901748009020
:1022E0004FF0030EDFF858C012488FE7CB46D4E515
:1022F00002F0C2FD206700283FF433AE216E94F84F
:102300007B32B9E70E4B009306230193DFF824C01C
:102310000C484FF0070E0521042377E7DDF804E0B1
:102320007FE72366CAE55B1B15442366A4F8765253
:10233000C4E500BF8D7BCD0534EE3517E35E730138
:10234000C6BDE6021AF79A0B10B50021044602F04A
:102350002BFE98B194F8F6308BB194F8F43094F8E1
:10236000F5200133342BC8BF0023934207D09A1DB8
:1023700004EB8202DBB2506084F8F43010BDBDE89B
:10238000104002F0CDBD00BF10B4047F4160022CAC
:10239000C26002D010BC02F0BBBF836810BC1847FB
:1023A000F0B4464B464A186BDC6A01791170454916
:1023B00022790A709A6A00790870002A46D0596812
:1023C000C9688A423ED82168CC8B240402F1FF30D0
:1023D00065D4C0F30E00C883C88B80B2C882196B65
:1023E0000968C88B000452D4C2F30E00C883C88B9E
:1023F000002480B212F1FF32C88218BF01229C6211
:10240000D96A2E4809680D6800F12404A54236D027
:102410000068C46814F0804F0C680D6815BF2488EC
:1024200024780235013544F000440D604463196B93
:10243000254B09791970214912B1CA6A12791A70AB
:10244000F0BC7047521A9A620122D9E7586B19689A
:1024500005681E4C0A63CC62CC682D681C4E24F0C3
:1024600080440327B542CC6083F825701FD1037FD9
:102470004260022BC2601ED0F0BC02F049BF01686E
:1024800090F82400CC6840F000404863CFE7CC8B44
:10249000C2F3080004F47E442043C883A7E7CC8B32
:1024A000C0F3080004F47E442043C88394E72B461D
:1024B0001146F0BC18478368F0BC184700FCFF1FAA
:1024C0001F8000401C8000401B80004000000FFF68
:1024D0008923000090E80C00F0B41C685968256856
:1024E000164F174E29432160164D17491760D660C5
:1024F00015611160417A154A5C180A3194F824403C
:1025000053F8215002EBC40149680D60017A5C1850
:1025100003EB8101247ECD6902EBC40149680D60A3
:10252000817A581803EB810390F83000596B02EB65
:10253000C002F0BC53681960704700BF01401F0023
:10254000011000380110007800001F80D4820000C4
:102550005E2911D830B44A09C57A012303FA02F47E
:102560002C4300EB8202C472D06801F01F0103FA11
:1025700001F10143D16030BC704700BF5E2913D820
:1025800030B44D0900EB850401F01F01E36801221E
:1025900002FA01F123EA0101E16021B9C37AAA40FC
:1025A00023EA0202C27230BC704700BF204A43686F
:1025B0009A42F0B40FD0427A1A4492F82420914201
:1025C00007D093F824408C4215D093F825408C42D4
:1025D0002AD0F0BC70470B2907D00729EBD1154C46
:1025E000227842F001022270E5E7124C227822F0B4
:1025F00001022270DFE7002421461E685D6836680C
:102600002E420FD00C4D05EBC202002756685A1817
:10261000376092F8242005EBC2050A316A6853F846
:10262000213013604472D4E701242146E5E700BF5E
:10263000E4810000130E0020D4820000204A436889
:102640009A42F0B40FD0827A1A4492F83020914224
:1026500007D093F830408C4215D093F831408C422B
:102660002BD0F0BC70470D2907D00E29EBD1154CAB
:10267000227842F004022270E5E7124C227822F020
:1026800004022270DFE7002421461E685D68366878
:102690002E4210D00C4D05EBC202002756685A1886
:1026A000376092F830200C3105EBC20503EB810353
:1026B0006A685B6813608472D3E701242146E4E70B
:1026C000E4810000130E0020D48200000020704737
:1026D000704700BFC06938B18369C06847F6FF72B0
:1026E000181A904228BF1046704700BFC36910B542
:1026F00004463BB100201871E06901F0B7FAE369C4
:102700001B791BB101232371002010BD10BD00BF38
:10271000C06978B100B583B001220DF1070101F065
:102720002FF801280CBF9DF807004FF0FF3003B0D1
:102730005DF804FB4FF0FF30704700BFC369C3B1C1
:1027400010B582B00446012218460DF1070101F0D0
:1027500017F8012803D04FF0FF3002B010BDE06938
:102760009DF80740C168013901F016FA204602B011
:1027700010BD1846704700BFC06908B101F03EBAED
:10278000704700BF10B503680F4A5B6882B0934280
:102790008DF8071012D1C369044653B100221A7193
:1027A000C06901220DF1070101F060FAE3691B79AC
:1027B00013B101232371002002B010BD01220DF1DD
:1027C0000701984702B010BDED2600002DE9F04149
:1027D00005464FF47A731348AB60002328602B71D1
:1027E0002B7324200C46904604F066FEE861B0B1DD
:1027F000064604F1200E20686168A268E368374647
:102800000FC7103474453E46F5D120683860414604
:102810000C2205F10D0005F0A1FA00236B76284685
:10282000BDE8F081648200004FF47A72044982604E
:102830000022016002710273C2614273704700BFDF
:1028400064820000704700BFC06908B100F098BF03
:10285000704700BFC36953B110B50446184600F075
:10286000A3FEE06904F030FE0023E36110BD704771
:10287000C06918B18079003018BF0120704700BFCF
:1028800038B590F8323004460D46BBB92A460121CE
:10289000204600F0EBF908B9002038BD251D284678
:1028A0000122214601F08AFF60B1294604F12C0083
:1028B00000F03EFF003018BF012038BD2C3000F082
:1028C00073FEE3E702462146284601F077FF002821
:1028D000EBD1002038BD00BF2DE9F04F99B04FF08B
:1028E0000008DFF8E8A08DF81C808146043106A8B6
:1028F000934601938DF81E808DF840808DF84280BC
:10290000CDF818A0CDF83CA000F012FF06AE5D4651
:102910000FAF2F21284605F02DF9441BE4B22946BC
:1029200008B32B782F2B02A81BD00C2C28BF0C240B
:10293000224605F013FA18AB2344384603F8588CA6
:1029400000F032FE012302AA3146384601F01AF99E
:1029500088B3304600F028FE334625443E461F46E5
:10296000D7E70135D5E7019831797279B379B46841
:10297000377DCBEB05050560F068356989F80410F3
:1029800089F80520B16989F80630F269336AC9F817
:102990000C004846C9F800A0C9F80840C9F8105012
:1029A00089F81470C9F81810C9F81C20C9F820302B
:1029B00019B0BDE8F08F89F8040089F80600484690
:1029C000C9F800A019B0BDE8F08F00BF8C820000EC
:1029D000F0B59DB005461F4601A86B461446FFF7AB
:1029E0007BFF009AA35C1444002B42D09DF80A2080
:1029F0002F4E0A9600238DF82C308DF82E30002AA9
:102A000031D00AA83B46224601A901F0BBF850B3D9
:102A100001A800F0C9FD17F0060F43D19DF82C70F6
:102A20000C9B9DF82DE0139622469DF82E408DF8C4
:102A300050708DF8524015930D990E989DF83C708A
:102A4000109E119C129B8DF851E01691179013A9BE
:102A500028468DF8607019961A941B93FFF7B6FEFE
:102A600028461DB0F0BD2846FFF7DEFE28461DB003
:102A7000F0BD9DF808700E4E9DF809409DF80A3093
:102A8000039A8DF8507013968DF851408DF852309E
:102A90001592049905989DF81870079E089C099B4B
:102AA000044AD2E70AA8109901F076F8B6E700BF09
:102AB0008C82000080820000064B074ADA62022105
:102AC000002259609A7083F8242083F8302083F81C
:102AD00032207047F80A00208C820000F0B53A4E90
:102AE0003A4C336883B005460193019FA4464FF0EA
:102AF000004EFF20236843F480632360C4F82CE079
:102B00006063E36A002BFCDADCF83830DBB2FF2BC1
:102B100006D033680093009BDB1BB3F5967FE9D3A7
:102B20002A4B18684FF0004640F4806041F04004A2
:102B30001860DE6218465C63C36A002BFCDA234C23
:102B400018204FF00047266822FA00F346F480660A
:102B5000DBB22660E7626363E36A002BFCDA0838C5
:102B600010F1080FEFD100292CD008290CBF8721C4
:102B7000FF21164B1A684FF0004042F480621A6041
:102B8000D8621A465963D36A002BFCDA0F4A002731
:102B900016464FF00044FF21136843F4806313602E
:102BA000D4625163D36A002BFCDAB36BD8B21B0634
:102BB000687001D403B0F0BD0137B7F5807FEBD169
:102BC00003B0F0BD9521D4E7140E002000C00240F0
:102BD0001E4B1A781AB10078002102F079BF70B448
:102BE0001B4A1C49D47A096801251D70ECB172B6E4
:102BF000D37ADE071C4606D5174DD4682E683440BC
:102C000094612C601C469D0706D5144D13692E68EF
:102C1000D47A3340D3612B60630705D5104C5369D8
:102C200025682B401362236062B61368DA688A4213
:102C300007D00C4C1C600C4AD96041F080441C61E8
:102C40001A600078002170BC02F042BF500B0020D7
:102C500000FCFF1F4C0B002080E100E084E100E05D
:102C600088E100E001403F0000003F802DE9F04F87
:102C70000023904E02708BB0837033680593054635
:102C8000059B039110460121019302F021FF287852
:102C9000DFF85482012102F03FFF2878012102F081
:102CA00017FF854A8549136843F480531360844BAA
:102CB00040461960FFF70EFC814B98F80B101A681C
:102CC000F9B172B698F80B30D807194600F14F8168
:102CD0009B0709D57B48D8F81030046898F80B108A
:102CE0002340C8F81C3003604F0707D57649D8F851
:102CF000143008680340C8F820300B6062B698F8BA
:102D00000B10D8F80030D868904207D06F4C1C6088
:102D10006F48DA6042F080441C6118600A236D4AF3
:102D20004FF00044FF201F46136843F48063136094
:102D3000D4625063D36A002BFCDA7B1E13F0FF07CA
:102D4000F2D10297A9B1CC0705D5634BD8F818206A
:102D500098F80B101A60880705D5604BD8F81C202E
:102D600098F80B101A60490703D55D4BD8F820205E
:102D70001A602846FFF72CFF564B4FF0004E4FF0DD
:102D8000FF0C18469B46714667464FF0000A3268B2
:102D90000992099C1A6842F480621A60D9625F63E2
:102DA000DA6A002AFCDA826BD2B2FF2A06D03268D5
:102DB0000892089A121BB2F5967FEBD31A6840244A
:102DC00042F480621A60C3F82CE05C63DA6A002A7D
:102DD000FCDA04241A6842F480621A60D962C3F8EB
:102DE00034A0DA6A002AFCDA013C14F0FF04F1D1C5
:102DF000DBF80020952442F48062CBF80020CBF869
:102E00002CE0CBF83440DA6A002AFCDA4FF00009F3
:102E10001A6842F480621A60D962C3F834C0DA6A70
:102E2000002AFCDA826BD4B212066C702FD4012C0B
:102E300034D032680692069A019C121BB2F5FA6FE2
:102E4000A5D90121287802F043FE26490B78D3B199
:102E500098F80B30244800241A460C709BB1DC070C
:102E600003D51D4A816911601A46990705D51B4B88
:102E7000D8F81C1098F80B201960530703D5184B8D
:102E8000D8F820201A6002980BB0BDE8F08F09F145
:102E90000109B9F5807FBBD1012CCAD14FF4D5729D
:102EA00008212846FFF71AFE43076AD5AC70019F38
:102EB000002422E0140E00203C800440054001382C
:102EC0004C0B002084E100E088E100E001403F007D
:102ED00000003F8000C0024000E100E004E100E0AB
:102EE00008E100E0500B002000FCFF1F336807934F
:102EF000079BDB1BB3F5FA6FA3D8002237212846C6
:102F0000FFF7ECFD224629212846FFF7E7FD687010
:102F10000028EBD1AB78022B53D00121287802F0A6
:102F2000D7FD52490B78D3B198F80B3050480024A4
:102F30001A460C709BB1DF0703D54E4A81691160B8
:102F40001A469E0705D54C4BD8F81C1098F80B2054
:102F50001960550703D5494BD8F820201A60039B08
:102F6000052B7ED8DFE803F07474706C60794448F8
:102F7000D8F80C1004682140C8F8181001601946F0
:102F8000A6E6404A042196464FF00044FF2013680D
:102F900043F480631360D4625063D36A002BFCDA7D
:102FA000DEF838300139DBB211F0FF016B70EED181
:102FB000AA2B7FF446AF0223AB704FF08044019FF1
:102FC0009BE702463A212846FFF788FD00287FF458
:102FD00038AF2C4B1A684FF0004042F48062FF215A
:102FE0001A60D8621A465963D16A264B0029FBDA67
:102FF0009B6B03F0C003C02B04BF0323AB70214BBA
:1030000003221E464FF00044FF20196841F48061FE
:103010001960DC625863D96A0029FCDA013A12F0BF
:10302000FF02B16BF1D178E7174A184B13601048D3
:10303000FFF750FA0123029302980BB0BDE8F08F1E
:10304000114A134B1360F2E70F4A124B1360EEE77D
:103050000D4A4FF038431360E9E70B4A0E4B1360FB
:10306000E5E7094A0D4B1360E1E700BF500B002074
:1030700000FCFF1F00E100E004E100E008E100E0E7
:1030800080E100E000C002404C0B0020011001383C
:1030900000000238000002B8010002380540013883
:1030A0002DE9F0417D4D8378032B2B780F4682B0BC
:1030B0000446164618BF4F02002B4BD00021207843
:1030C00002F006FD3A4611212046FFF707FD10BB2E
:1030D0007348744A03680093DDF8008094464FF00B
:1030E000004EFF27136843F480631360C2F82CE09E
:1030F0005763D36A6B49002BFBDADCF83830DBB25C
:10310000FF2B63705BD103680193019BC8EB030342
:10311000B3F5967FE6D90121207802F0D9FC2B780F
:103120005E499BB1604BDA7A002410460C706AB19C
:10313000D40703D55D49986908601046910700F1EE
:103140009D80420702D55A4A1B6A1360002002B0D4
:10315000BDE8F081544B574AD97A12680120287093
:1031600001B372B6D97A11F0010F08460BD0DFF81F
:103170005CC1D868DCF800E00EEA000EC3F818E085
:103180000846CCF800E0890709D5DFF844E1186962
:10319000DEF800100140D961CEF80010D87A41075E
:1031A00071D462B61B68D968914287D042481860D2
:1031B0004249DA6042F08040186119607EE7FE2BD8
:1031C000A9D13F4B3F4A0A6008464B630A464B630E
:1031D0009E464B6306F5FE77B11CD36A13F0F00FE1
:1031E000FBD0C0F834E0836B01F8013C1B1201F8FE
:1031F000023C0231B942F0D106F5FD7106F50076C8
:10320000B1420DD2274A1746D36A13F0F00FFBD014
:10321000BB6B181201F8020BB14201F8013CF3D369
:10322000204B2849264A196019465A63CB6A1D4A21
:1032300013F0F00FFAD02078936B012102F048FCD4
:103240002B781648B3B1184BDA7A00241146047073
:1032500082B1D70703D515499869086011469607CA
:1032600003D5194AD9691160D97A4D0702D5104A98
:103270001B6A1360012002B0BDE8F081124AD969CF
:103280001160D87A5DE7DFF84CE05869DEF800108D
:1032900001401962CEF8001083E700BF500B0020F8
:1032A000140E002000C0024000FCFF1F00E100E0FF
:1032B00008E100E04C0B002001403F0000003F808F
:1032C000FFFF009000041F8004E100E080E100E0C7
:1032D00084E100E088E100E0F0B4314E33684FF063
:1032E000004743F4806333603D46F76234467163C0
:1032F0003346511C02F20127E26A002AFCDA1A68FE
:1033000011F8016C42F480621A60DD625E63E26A69
:10331000002AFCDA1A6811F8026B42F48062B942A2
:103320001A60DD625E63E7D11D49CA6A1C4B002A40
:10333000FBDA1A684FF0004542F48062FF241A60FD
:103340001946DD625C63CB6A154A002BFBDA136811
:103350004FF0004543F48063FF2413601146D562AB
:103360005463CB6A0E4A002BFBDA13684FF000451A
:1033700043F48063FF2413601146D5625463CB6A23
:10338000074A002BFBDA936BDBB203F01F0243709A
:10339000A2F10500B0FA80F04009F0BC704700BF10
:1033A00000C002402DE9F041054682B000296FD0EF
:1033B00083786C4E032B33780C46174618BF4C02AB
:1033C00043B30021287802F083FB224618212846C7
:1033D000FFF784FB00285DD00121287802F078FBFC
:1033E0003378604993B1604BDA7A002410460C7050
:1033F00062B1D40703D55D4998690860104691070A
:1034000072D4420702D55A4A1B6A1360002002B0E8
:10341000BDE8F081544B574AD97A126801203070C8
:1034200049B372B6D97A11F0010F08460BD0DFF814
:103430005CC1D868DCF800E00EEA000EC3F818E0C2
:103440000846CCF800E0890709D5DFF844E118699F
:10345000DEF800100140D961CEF80010D87A41079B
:1034600008D5DFF830E15869DEF800100140196234
:10347000CEF8001062B61B68D9689142A1D03E48D0
:1034800018603E49DA6042F080401861196098E7A0
:10349000344EA1E73A46FE212846FFF71DFF0028DB
:1034A0009AD03749374A0B680193DDF80480944677
:1034B0004FF0004EFF20136843F480631360C2F89E
:1034C0002CE05063D36A2F4C002BFBDADCF8387009
:1034D000FFB2FF2F0DD00B680093009BC8EB0303D6
:1034E000B3F5167FE7D377E7274AD9691160D87A11
:1034F00087E700220D212846FFF7F0FA00287FF425
:103500006BAF23684FF0004243F480632360214691
:10351000E2626763CB6A1B4A002BFBDA936B13F002
:10352000FF047FF459AF2878012102F0D1FA3378F3
:103530000C4AABB10C4B1470DA7A114682B1D70742
:1035400003D50A49986908601146960703D50E4AC3
:10355000D9691160D97A4D0702D5054A1B6A1360F3
:10356000012054E7500B002000FCFF1F00E100E0A9
:1035700008E100E04C0B002001403F0000003F80CC
:10358000140E002000C0024004E100E080E100E0F1
:1035900084E100E088E100E0014B024A1A607047D4
:1035A0004C0B00200000023838B583790BB900209D
:1035B00038BD90F90530002B044607DB00F090FE83
:1035C0000028F4D00023A371012038BD0121006937
:1035D00000F0B0FE0028EAD0257D0E4B13EB451518
:1035E000E5D0A3790C4A012B9CBFA369EB61E36989
:1035F00012686B831B0CAB8232B105F1160105F129
:10360000180090472B8B6B82637903F07F03637103
:10361000D4E700BF600B0020540B0020F0B5414FF1
:1036200007EB411383B0DD7A15F0110F02D012F0D1
:10363000420F2ED115463C4A0175126802615A8B21
:10364000998A42EA0141C161DA7A12F0180204460D
:103650000DD1D869A06105F00F03012663716B06D7
:10366000A260E260A67117D4012003B0F0BD102A59
:103670000FD100F11802006A00F0D8FE48B105F041
:103680000F020023042162716A06A171A360E36046
:10369000EAD5002003B0F0BDAB07FAD50028E3D08F
:1036A000206A019200F0ACFF0028F2D06379A17982
:1036B000019AE26163F07F03A26163710029E8D09F
:1036C0003146206900F036FE0028E2D0237D17EB5A
:1036D0004317DED0A379154A012B9CBFA369FB6178
:1036E000E36912687B831B0CBB8232B107F11601C0
:1036F00007F1180090473B8B7B82637903F07F03CF
:10370000637100F0EDFD0028C3D0A379002BC0D079
:10371000022B03D00023A360E360A5E70023E3604E
:103720000120B7E7600B002038FCFF1F540B00207E
:1037300038B583793BB991F82020102A0D4604460C
:1037400003D0202A10D0002038BD022282714A8C7A
:10375000C3615301836100230120607123752562D9
:10376000A360E360236138BD03238371496AC161AB
:1037700000F11802284600F059FE0028EBD1E2E7DC
:103780002DE9F04F0E46817983B0002900F0AB801F
:1037900043790546D80740F1A680EB68AC69E41A86
:1037A000944228BF144627460194002C00F0BB80A9
:1037B0000A46DFF884B167E0B4F5007F00F0858049
:1037C000002100F0B7FD002800F08D80584B08EB79
:1037D00003021019824250D008F104089844331DA6
:1037E0009A4238BF464546EA020E2CBF0123002309
:1037F000511C1EF0030F03F00103C1EB000C18BFB6
:1038000000230CF1010A8E46002B00F08180BAF1F2
:10381000090F7DD9ACF103039B0801334FEA8309FB
:10382000A2F10408B4464FF0000E00900EF1010E14
:1038300058F8040F4CF8040B7345F7D8D14500989D
:1038400006EB090C02EB090E13D012F8232006F840
:1038500023200EF1010398420BD09EF801308CF822
:1038600001300EF10203984203D09EF802308CF82A
:103870000230C1F1010108440644E8683F1B04EB33
:103880000003EB604FD0AA79022AC3F308083AD0AC
:10389000296A0C79013C04EA5324E4B2B8F1000F20
:1038A0002FD174BB23BBEA69AA60087C4B69023A3A
:1038B00002FA00F01C442044C8F500746B79BC4245
:1038C000A8BF3C465B067FF577AFDBF80030984237
:1038D0003FF476AF174B014632461868FFF7E0FB1E
:1038E00008B12644C9E74FF0FF3003B0BDE8F08FC0
:1038F000084605F10802A96800F018FE0028F2D079
:10390000296AAA68D1E72A6A526A02EB5320D3E7F0
:10391000731E01E00EF1010E1EF8012C03F8012FB9
:103920007045F7D1A5E7019803B0BDE8F08F00BF5F
:10393000600B00205C0B002038FCFF1F2DE9F04FCE
:1039400087B00DF10C094FF02034C9F80440013A5A
:1039500003940027C9F807404FF0070E12F8016FD3
:1039600076B32E2E25D0834D01E0A6421DD015F84A
:10397000014B002CF9D1BE4517D3A6F121045D2CD3
:1039800013D8A6F16105192D07F1010498BF203E57
:103990004F44E4B298BFF6B23E702746DEE7019B83
:1039A00003F01203122B00F09580002007B0BDE851
:1039B000F08FBEF10A0FF8D008274FF00A0ECDE7BE
:1039C0009DF80C20202AF0D00A6A6B4DDFF8B0A1D8
:1039D000026201938B46804634468E60CE60374645
:1039E000DBF81820A2423AD99BF80620012AC4F33A
:1039F0004316DAD901220DF10B015846FFF7C0FE3C
:103A00000128D2D1DBF80C4072011F345119CBF8D8
:103A10000C40CAD0505D88B1E52858D00B224846EA
:103A200004F012F80028DBD1019A02F03003302BA9
:103A3000BBD031464046FFF7F1FDB7E7002FAED1CE
:103A4000DAF8001088F81460C8F81010525D002AE7
:103A5000A5D0DBF81820A2424FF00107C4D8019B83
:103A600003F01202122AA0D1002F33D19BF80620B6
:103A7000022A9AD00BF108020121DBF8200000F0A5
:103A8000F9FA002891D0DBF81C20002A6FD19BF8AE
:103A90000510DBF80820CBF81C2061F07F018BF8C3
:103AA0000510DBF820100E7C4D690C79023AB2400B
:103AB000013D002C46D0154402E014F0FF043ED036
:103AC000601900F07DFC013C0028F6D16DE7002F65
:103AD000BFD1B5E70121D8F8100000F02BFC002879
:103AE0003FF463AF98F81440234B13EB44143FF4B6
:103AF0005CAF20220021204603F0D8FF99E80700A0
:103B0000234603C31D4923F8022B0D68120C1A70BB
:103B100035B304F10E0104F11000A847238AE289AD
:103B200063822383E28200F0DBFB00283FF43DAF99
:103B3000019A98F814104046FFF770FD36E7DBF85D
:103B40002020167CDBF818000B4C4FF4007101FAB2
:103B500006F202440021CBF8182088F81410C8E7B8
:103B600042F621034FF400622382E281D8E7DBF8BA
:103B7000082096E79C820000600B0020540B002078
:103B800038FCFF1F10B4847914B1002010BC7047BA
:103B900010BCFFF7D3BE00BFF8B5837913B18269BB
:103BA0008A4201D20020F8BD022B0F4605461AD0EA
:103BB00007B32B6AE9681C7C4A1E04F109037C1ECA
:103BC000DA40DC40A24211D9EB69AB6005F108068E
:103BD00006E0A968286A00F0A9FC013C0028E1D0B1
:103BE0003246002CF5D1EF600120F8BD0029EBD062
:103BF000A41AEBE7AF60EF600120F8BD38B5837918
:103C00003BB190F90530002B05DBBDE8384000F0F2
:103C100067BB002038BD04460121006900F08AFB23
:103C20000028F6D0257D0F4B13EB4515F1D0A37975
:103C30000D4A012B9CBFA369EB61E36912686B839A
:103C40001B0CAB8232B105F1160105F1180090474B
:103C50002B8B6B82637903F07F036371BDE838407F
:103C600000F03EBB600B0020540B00202DE9F04F0C
:103C7000837985B0012B0546019205D001232B7174
:103C8000002005B0BDE8F08F42799007F6D55307C4
:103C90000E4626D5EB68AF69BB4200F01981002FB4
:103CA00000F037812A6A147C591E09347A1EE140DB
:103CB00022FA04F4A14200F23081002B00F02D81A1
:103CC000641A05F1080806E0A968286A00F02EFCCD
:103CD000013C0028D2D04246002CF5D1EF603B4693
:103CE00000E0EB68019A002A00F08F80DFF890B2C4
:103CF000019F286A0279013A02EA532212F0FF0971
:103D0000C3F3080840F08A80B8F1000F40F08680C5
:103D1000A968002940F0B780EB69002B00F0C6804D
:103D2000AB60C8F50074017C4269A4B2023B8B40D1
:103D30004A44BC4203EB020972D9BCB2B8F1000F8D
:103D400003D1EA68AB699A427FD24846012100F06C
:103D5000F1FA002892D008EB0B03181983424ED0D9
:103D600008F10408321DD844934238BF464543EA5F
:103D7000060E2CBF01220022591C1EF0030F02F078
:103D80000102C1EB000E18BF00220EF1010A9C4691
:103D9000002A68D0BAF1090F65D9AEF10302920882
:103DA00001324FEA8209A6F104084FF0000E009498
:103DB0000EF1010E58F8044F4CF8044B9645F7D31A
:103DC000D145009C06EB090C03EB090E13D016F845
:103DD000228003F822800EF1010398420BD09CF858
:103DE00001308EF801300EF10203984203D09CF8A6
:103DF00002308EF80230C1F1010108440644EB683C
:103E00003F1B2344EB607FF474AFAA699A4264D2EB
:103E10006A79AB6142F080026A7167E0AB6880E763
:103E2000B4F5007F8AD1514B1B68994526D0504B81
:103E3000494618683246FFF7B5FA00283FF41EAF2E
:103E400006F500764FF40074D9E700F049FA00282F
:103E50003FF414AF474A454BC3F80090137843F042
:103E60000103137077E7013B721E00F1FF3C12F86B
:103E700001EF03F801EF9C45F9D1BCE73B4A4FF055
:103E8000FF331360D3E703AA00F050FB00283FF490
:103E9000F8AE286A384C90F82010039B4FF6F87261
:103EA000102918BF22469342FFF43AAF05F10802E9
:103EB000012100F0DFF800283FF4E0AEEB6933BBEE
:103EC0006A79AB68EB6162F07F026A71286A28E761
:103ED000019900297FF40AAF08E0284B6A791B6832
:103EE00023B1019B13B142F080026A7111070AD518
:103EF000AB79002B3FF4C2AE120611D400F0F0F9FA
:103F000000283FF4BBAE019805B0BDE8F08FAB6868
:103F1000DCE7AF60EF603B46E4E6EB69AB60D0E620
:103F20000121286900F006FA00283FF4A7AE2C7D95
:103F3000134B13EB44143FF4A1AEAB790F4A012BA2
:103F40009CBFAB69E361EB69126863831B0CA382BE
:103F500032B104F1160104F118009047238B6382FB
:103F60006B7903F07F036B71C8E700BF38FCFF1F5C
:103F70005C0B0020600D0020F8FFFF0F540B0020A9
:103F8000600B002000B583B002AB012203F8011DD5
:103F90001946FFF76BFE03B05DF804FB2DE9F84FFF
:103FA0000D4690F82010DFF8C480C369D8F800608F
:103FB00010290446914617D003EBD513B3421DD107
:103FC000274F284B05F07F0543F82590227E3B784C
:103FD000012A43F001033B7081BFA368224AF6180F
:103FE00016600120BDE8F88F03EB1523B34205D11D
:103FF0001B4F1C4BEDB223F81590E7E7184FDFF885
:1040000070A031461E463B7883B9DAF80000154AA5
:104010003146FFF745F830B194F82030C8F8006019
:10402000102BCED1E5E70020BDE8F88F0D4ADAF875
:104030000000FFF7B7F90028F5D0DFF82CB0DBF867
:10404000001011B900233B70DFE7064ADAF80000E0
:10405000FFF7A8F90028E6D00023CBF80030F1E7FD
:10406000600D0020600B0020580B002038FCFF1F63
:104070005C0B00202DE9F04F136887B0002B71D046
:1040800003F1010800230593C468631C99468CB3AF
:104090004446A1453CBF0224A0469C4201910546EE
:1040A0000492DFF828B24FF0000623D895F82030AC
:1040B000DFF828A2EF69DAF80010102B26D007EB02
:1040C000D4178F422BD104F07F03804F5BF823304D
:1040D00023F0704393B10134A046EB680136B3423C
:1040E00008D9A14538BF022403F1010338BFA04617
:1040F0009C42DBD9002007B0BDE8F08F631C01991A
:10410000C8EB0302914242D01C46E6E707EB1427B6
:104110008F4204D1E3B26D4F3BF81330DAE76C4BBA
:1041200002931B7873B96B4B1868684A3946FEF7DF
:10413000B7FF0028DED095F82030CAF80070102BA9
:10414000C1D1E7E7634B614A18680393FFF72AF987
:104150000028CFD0604B1968039B61B902990022F7
:104160000A70E1E7A1F10103B3FA83F35B09D0F828
:104170000080059388E7574B544A1868FFF712F9F7
:104180000028B7D0544B00221A60039BE6E7012CAD
:10419000B0D9EB6801339C42ACD86FF07042214635
:1041A0002846FFF7FBFE0028A4D0A04560D2013CC2
:1041B000012C9FD9EB680133A3429BD3DFF810B1E8
:1041C000B9469BF800001DE006EBD4168E422BD1B9
:1041D00004F07F0349F823702B7E40F00100012B8F
:1041E0008BF8000003D9AB683B4A19441160A04525
:1041F0003ED0013C012C3FF47DAFEB6801339C4283
:104200003FF678AF95F82030EE69DAF80010102B01
:1042100004F10107D8D106EB1426B14204D1E3B270
:10422000314629F81370D7E788B92A4B1868274A0E
:104230003146FEF735FF00283FF45CAF95F820309B
:10424000CAF80060102B3CD19BF80000E7E7214B37
:104250001E4A18680193FFF7A5F800283FF44AAFFB
:104260001D4B1968019BF9B900228BF80020DDE78E
:10427000049B196871B101297FF63CAFEB680133EB
:1042800099423FF637AF42462846FFF787FE00289F
:104290003FF430AF049BC3F80080059B13B108F1D5
:1042A00001032B60012026E70A4B084A1868FFF734
:1042B00079F800283FF41EAF074B00221A60019BDB
:1042C000D2E731469BF8000082E700BF600B002078
:1042D000600D00205C0B0020580B002038FCFF1FF5
:1042E00070B50F4C23780BB9012070BD0D4B0E4DEE
:1042F000196828680D4AFFF755F870B10C4E3168FF
:1043000019B900232370012070BD2868074AFFF700
:1043100049F810B100233360F3E7002070BD00BFFF
:10432000600D002038FCFF1F5C0B0020600B00209C
:10433000580B00202DE9F8431C4E336883420F468A
:1043400013D01B4CDFF870802278054692B9D8F85C
:104350000000184A2946FEF7A3FE40B135602178D7
:10436000394321700120BDE8F883114CF7E70020A4
:10437000BDE8F8830F4AD8F800001946FFF712F895
:104380000028F4D0DFF83490D9F8001011B90023D8
:104390002370DCE7074AD8F80000FFF703F800288D
:1043A000E5D00023C9F80030F1E700BF38FCFF1F5B
:1043B000600D0020600B00205C0B0020580B0020DB
:1043C0002DE9F041144C154D2378064653B94FF4AE
:1043D00000720021124803F069FB012020702E605A
:1043E000BDE8F0810F4F296838680D4AFEF7DAFF03
:1043F00070B1DFF83480D8F800100029E7D03868B1
:10440000074AFEF7CFFF18B10023C8F80030DEE7F7
:104410000020BDE8F08100BF600D002038FCFF1FC8
:10442000600B00205C0B0020580B00202DE9F04FA2
:1044300083B0DFF8E490009205460C4600271AE0AE
:1044400095F82030DFF8DC80EE69D8F80010102BEA
:1044500019D006EBD4168E4219D104F07F04297CC2
:1044600059F824402B4A4FF4007324F070448B40D9
:10447000A2421F442CD9EB680133A342E0D20020B2
:1044800003B0BDE8F08F06EB14268E4214D0DFF89F
:1044900098A09AF800300BBBDFF880B0DBF8000082
:1044A0001D4A3146FEF7FCFD0028E8D095F8203083
:1044B000C8F80060102BD0D1E4B22A7C39F814403F
:1044C0004FF4007393404FF6F872A2421F44D2D8C3
:1044D000009B01201F6003B0BDE8F08F0F4B0E4A18
:1044E00018689B46FEF75EFF0028C8D00C4B196881
:1044F00019B900238AF80030D0E7074ADBF800003A
:104500000193FEF74FFF0028B9D0019B00221A60EB
:10451000EFE700BFF8FFFF0F600B00205C0B0020EF
:10452000580B002038FCFF1F600D00202DE9F84FCC
:10453000C36801338B4220D390F82030DFF8B0807D
:10454000C469102B0E4617460546D8F8001017D040
:1045500004EBD6148C4217D106F07F01234B53F89D
:10456000213023F070433B600120BDE8F88F1F4AE3
:10457000D9F80000FEF716FF20BB0020BDE8F88F39
:1045800004EB1624A14215D0DFF868A0DFF868908C
:104590009AF80030002BEAD1D9F80000134A2146DE
:1045A000FEF77EFD0028E8D095F82030C8F80040DE
:1045B000102BD1D1F1B20D4B33F811303B600120FB
:1045C000BDE8F88FDFF834B0DBF8001019B900232C
:1045D0008AF80030E0E7054AD9F80000FEF7E2FE6D
:1045E0000028CAD00023CBF80030F0E7600B002091
:1045F00038FCFF1F600D00205C0B0020580B0020D2
:104600002DE9F04F022383B005460C46036042E0DB
:1046100095F82020DFF89C91EE69D9F80010102A57
:1046200064D006EBD4168E4264D104F07F03DFF829
:104630007CA15AF8237027F07047012C2FD9EB6822
:1046400001339C422BD8102AEE69D9F800102AD0E9
:1046500006EBD4168E4232D1DFF85C8104F07F0481
:1046600000234AF8243098F800302A7E43F00103F2
:10467000012A88F8003003D9AA684A4B114419600E
:1046800095F82010484A4FF6F873102918BF1346C2
:10469000BB423C4668D9EB6801339C42B8D9002044
:1046A00003B0BDE8F08F06EB1426B14207D1DFF866
:1046B0000881E4B2002331462AF81430D3E7DFF84A
:1046C000F88098F800308BBBDFF8E4B0DBF800002E
:1046D000364A3146FEF7E4FC0028E0D095F8203059
:1046E000C9F80060102BE4D03146B7E706EB14267A
:1046F0008E4214D0DFF8C08098F800302BBBDFF872
:10470000B0B0DBF80000294A3146FEF7C9FC0028AA
:10471000C5D095F82020C9F80060102A85D1E3B2F1
:10472000DFF888A010223AF8137086E7204B1F4A62
:1047300018689B46FEF736FE0028B0D0194B196862
:10474000B1B9002388F80030C0E7194B174A186840
:104750009B46FEF727FE0028A1D0124F3968B1B959
:10476000002388F80030CCE7012003B0BDE8F08FCB
:104770000E4ADBF800000193FEF714FE00288ED0ED
:10478000019B00221A60002388F800309EE7074A48
:10479000DBF80000FEF706FE002880D000233B6017
:1047A000DEE700BF580B0020F8FFFF0F600B002072
:1047B0005C0B002038FCFF1F600D00202DE9F04746
:1047C000734D064629601446002A39D0042A02D9BE
:1047D0000020BDE8F0876F4F0B46396871B1DFF8F4
:1047E000BC8198F800201846002A73D16A4A00213B
:1047F000FEF756FC0028EBD000233B60664B03EB32
:10480000041292F8AE1111F07F01E1D11B3403EBD9
:104810000413D3F80A20632ADAD9D3F80640002C0F
:10482000D6D0DFF8788198F80030002B41D1286885
:10483000594A2146FEF734FC0028C9D03C6004E008
:10484000544F39680029ECD10C46534BB3F80B2078
:10485000B2F5007FBCD1187C0028B9D0DA89002AD3
:10486000B6D0597B0029B3D00022012930763171AE
:10487000327457D001220229327453D00222042903
:1048800032744FD00322082932744BD004221029ED
:10489000327447D005222029327442D006224029A2
:1048A00032743FD00722802932743BD009233374FD
:1048B0008EE7394A2868DFF8D8A0FEF773FD002894
:1048C00086D0DFF8DC90D9F8001099B9002388F879
:1048D0000030ACE7304AFEF765FD00283FF478AFC2
:1048E000DFF8BC90D9F8001081B9002388F80030B7
:1048F00028687BE7DAF80000274AFEF753FD002816
:104900003FF466AF0023C9F80030DFE7224A286889
:10491000FEF748FD00283FF45BAF0023C9F80030E4
:10492000E3E70522D88A1C4900B9486ADF89B060EC
:104930002744F761B3F811101D7C7184490100FB15
:10494000057001F2FF1100EB612171617062B3F833
:104950001300114D00B9286A641A044424FA02F2C3
:1049600040F6F4718A42F2600CD94FF6F4718A4233
:1049700085BFDB6A73621023202386F82030012074
:10498000BDE8F0870C2386F820300120BDE8F087D1
:104990005C0B002038FCFF1F600B0020600D002026
:1049A000580B00200A4B1B7813B90A4B1B786BB1CC
:1049B000094A1378202B07D810B4581C074C1070E4
:1049C000E154012010BC704701230371002070479F
:1049D000C60D0020890D0020C70D0020680D0020A5
:1049E000704700BF024A034B10781B78C01A70470B
:1049F000C50D0020C40D0020064A07491378097828
:104A0000994204D90548591CC05C117070474FF099
:104A1000FF307047C40D0020C50D00208C0D002014
:104A2000054B064A1B7812789A4286BF044AD05C2E
:104A30004FF0FF30704700BFC40D0020C50D0020AF
:104A40008C0D002070B50D4B1B78144613B90C4B20
:104A50001B788BB10B4E3578C5F12103A34202D2EE
:104A600001221C460271084822462844254400F0D1
:104A700057FD3570204670BD184670BDC60D00202C
:104A8000890D0020C70D0020680D0020124BDB7837
:104A900003F020034BB1114A13780133DBB2012B31
:104AA000137012D9122000F0C5BE10B5122003F009
:104AB000FF0400F0BFFE0A4B1B685BB109490A4ABC
:104AC0000C701078BDE810401847084B1B78002B7D
:104AD000E8D0704710BD00BF00600640B00D002058
:104AE000640D0020C40D0020C50D0020890D00209C
:104AF0000D4A0E4BF0B500200D4C10702268DFF807
:104B000038E00C4F42F0400222604FF41971282621
:104B10000325202480229870CEF8001039605E7042
:104B20009D715C719A70F0BD890D00200060064097
:104B30003480044008A004400CA0044010B5384C58
:104B4000E378DBB2D80623D510225906E2701ED5D1
:104B500003F0040303F0FF02002B33D0314B324942
:104B60001A68324C00230B702370002A3BD0904708
:104B70002378002B37D02E4B1B78294A2D49D0247F
:104B800094701371264B012002220870DA7010BD58
:104B90005A06DDD4A27802F0100202F0FF0042B300
:104BA00013F001031BD1234920480A780078904272
:104BB00081BF1F4B501C9B5C08702371184BD02287
:104BC0009A7008E01C48164B174902700120C02259
:104BD00008709A701B79124B0222DA7010BDC02344
:104BE000A3702379F7E71249002301220B7022708A
:104BF000C3E7124B124918700322122000F09AFDED
:104C00000D4923790A781F2ADBB2E4D806480078D8
:104C10000028E0D00B4C501CA3540870DBE700BF09
:104C200000600640AC0D0020610D0020C70D002083
:104C3000680D0020C80D0020C50D0020B00D00201B
:104C40008D4A00008C0D00200548064A10B401234F
:104C5000054C037049001370217010BC704700BFF1
:104C6000C60D0020C70D0020680D00202DE9F0437F
:104C7000594C1223E370A37803F0200383B0002B78
:104C800055D0B423DFF86881A370D8F80030524DB6
:104C90001C460020EA78D2B29A421CBF144601207A
:104CA00096061346F6D5002840F08C804B4B1B78B7
:104CB000002B33D003F1FF3E5FFA8EFE0026D8F8BA
:104CC0000040474F444D0EF1010E30464FF0020CAC
:104CD00017F8013F2B715FFA86F902E013F0200FFD
:104CE00009D0EB78DBB293421CBF1C46012013F0C5
:104CF000020F1A46F2D085F803C0EA78D2B2934286
:104D00001CBF14460120D30633D4930631D5D307F4
:104D100044D401367645DBD100284AD10020002951
:104D20002ED1304B00221A7003B0BDE8F0832E4D17
:104D3000DFF8BC8003F0FF022B680093009ED8F8D8
:104D4000000005E02B680193019B9B1B0F2B1BD8D8
:104D5000E378DBB2834218BF012213F0200F18461C
:104D6000F0D192BB21481C4B0024B02204709A70F1
:104D70008BE708BB184B80229A7004200029D0D002
:104D8000154B80229A70CCE7CAB9134B00218022C0
:104D9000042099709A7003B0BDE8F083C0B90E4B3F
:104DA000B9F1000F4FF080020CBF022003209A706F
:104DB000B7E7C8F80040B1E7C8F80040DAE7C8F83C
:104DC0000000E2E7C8F8004070E7C8F80030C9E723
:104DD000C8F80040E3E700BF00600640C70D0020B0
:104DE000670D0020C60D0020140E0020890D002044
:104DF0003CFCFF1F0121FFF739BF00BF044B054AF0
:104E00001A604FF47A71002299601A711A73704710
:104E1000B40D0020B4820000C029F0B428BFC02126
:104E200072B6124B124E134A18600023138033607F
:104E30007360B360F36033617361012799B15D09F9
:104E400003F01F0456F8252007FA04F40133224327
:104E50008B4246F82520F2D10023438001338B4258
:104E600000F58270F9D162B6F0BC7047D40D002015
:104E7000DC0D0020F60D0020F0B472B6234F244E56
:104E80003C8806F1180306EB8400984212D256F8CB
:104E9000241099B9021D06F11B05631CAD1A03EB22
:104EA000950503E052F8041B41B90133AB421C469F
:104EB0001046F7D162B60020F0BC7047B1FA81F31A
:104EC0004FF00042DA4021EA0201016001B90134E9
:104ED00010493C800A88013294B20C8062B6801B73
:104EE0008010C3EB401000EB801083000A480B4990
:104EF000006803F5FB531C330125C5540D88AA42F5
:104F0000184488BF0C80F0BC704700BFF60D00202D
:104F1000DC0D0020F80D0020D40D0020D00D002065
:104F2000428872B60378012B03D9013B037062B645
:104F30007047531170B40C4C0C4D54F823102E884C
:104F4000D2434FF0004002F01F0220FA02F2114358
:104F5000074A44F82310B34238BF2B801388013B23
:104F6000138062B670BC7047DC0D0020F60D002087
:104F7000F80D0020C368B3B130B401E0DB688BB139
:104F8000187A9042FAD158685C7A006950F8245037
:104F9000002DF3D140F82410087801300870DB6848
:104FA000002BEDD130BC7047437A8B4206D90369A0
:104FB000002253F8210043F8212070470020704759
:104FC000037C23BB4368427A5B7A9A421FD830B491
:104FD00072B60468E3682BB3DA6832B119688C42A0
:104FE00016D01346DA68002AF8D1D8600023C360CF
:104FF000A37A0133A37202684168012313728A7A8B
:105000001A448A7242681372037462B630BC7047E5
:105010005D6841688D42E4D1198903899942F4D0D1
:105020001346DFE7E060E1E7037CF0B4002B39D002
:105030004368427A5B7A9A4234D872B60268D3687F
:10504000002B2ED0984202D146E0984202D0DB6875
:10505000002BFAD14368417A1B6953F821307BB1A8
:10506000598872B61A78012A1ED9013A1A7062B6A6
:1050700072B64368427A1B69002143F82210026825
:10508000937A013B937203689A7A02B91A72426862
:10509000937A013B937243689A7A02B91A72002399
:1050A000037462B6F0BC70474B110D4D0D4E55F8B0
:1050B00023203788C94301F01F014FF0004424FA30
:1050C00001F10A4345F82320074ABB4238BF338029
:1050D0001388013B1380CAE7C368D360BAE700BFF7
:1050E000DC0D0020F60D0020F80D0020084B1A788A
:1050F00062B930B407480849D02505704FF08044A4
:1051000001220C6010461A7030BC704700207047B6
:10511000D80D00205EE400E008E100E01A491B4AD7
:105120001B48F8B50B681B4D046843F080730B6097
:10513000136843F0010313602E6814B915E0646925
:105140009CB1237A002BFAD023682F681B68204675
:1051500098472B68E188DB1B1B099AB28B42A2801F
:1051600088BFE2806469002CEBD10A4B0A4A1B68B5
:1051700010880A4C9B1B1B0999B28342218001D9DC
:105180001180F8BDF8BD00BFFCED00E0001000E0AC
:10519000CC0D0020041000E0F40D0020FA0D0020DA
:1051A000F0B572B699B904688CB102790F2A0ED89D
:1051B00043490B8843FA02F5EF070AD502F1007262
:1051C00002F59062B4EB421F03D162B6F0BD3C49D8
:1051D0000B8813F0010226D09E0756D55D0756D5E1
:1051E0001C0756D5DA0656D59F0656D55E0656D507
:1051F0001D0656D5DC0556D59A0556D55F0556D5FC
:105200001E0556D5DD0456D59C0456D55A0409D53D
:10521000DA0B08BF0F2206D062B60022102302600C
:105220000371F0BD0E220124944023430B8062B62B
:10523000244E254DDFF89CE0244FDFF89CC0D1B20E
:105240000171346844F00204346002F100732A688A
:105250001F4CA6F5802642F0020203F59063283E1B
:105260002A605B018222CEF80020397000228CF87F
:1052700000103170217003601A605A609A60DA6021
:105280001A615A619A61DA61F0BD0122CBE702220C
:10529000C9E70322C7E70422C5E70522C3E70622C0
:1052A000C1E70722BFE70822BDE70922BBE70A22C0
:1052B000B9E70B22B7E70C22B5E70D22B3E700BF31
:1052C000FC0D0020408004403C8004401A800040D7
:1052D0001F800040008000401E80004003790F2B9B
:1052E00011D8094A10B4137072B6084904790A88B3
:1052F0000123A34022EA03030B8062B6102200239D
:1053000010BC0271036070471A800040FC0D002041
:1053100010B4EFF3108272B6437F33B9017F0129D5
:1053200007D003290FD00123437702B962B610BC1E
:105330007047124C2168A1B1114943610B68836128
:1053400008605861EFE70F4C216881B10E49436155
:105350000B688361086058610C4B4FF080511960F5
:10536000E1E7074B4161816120601860DBE7064B94
:105370004161816120601860EEE700BF0C0E0020E3
:10538000080E0020000E0020040E002004ED00E0B6
:1053900070B5EFF3108272B60C4C206880B10C4EE1
:1053A00000254369236073B19D6102B962B64577F8
:1053B00083689847EFF3108272B620680028F0D116
:1053C00002B962B670BD3360EFE700BF000E002087
:1053D000040E0020024A136801331360704700BFB7
:1053E000140E0020F8B50E4671B17AB10746144686
:1053F00000253B6816F8011B1B6838469847013C9E
:105400000544F6D12846F8BD0846F8BD1046F8BD5B
:1054100000B5064A036812885B6883B001A9ADF83D
:1054200004200222984703B05DF804FBD0820000FC
:1054300030B42948294A2A4B2A4D6024E1210470BE
:1054400011701B78284C082B30D00A2B274828498C
:1054500037D00C2B0CBF15223D2212232A6023606B
:1054600002600B60234B24491B78244ABBB1012303
:105470000B601360224B23491B78234A012B26D94A
:10548000042B0FD9082B1ED9102B94BF86238723FA
:105490000B6013601D4B01221A7030BC70470B600B
:1054A0001360E7E784230B601360F3E700F58E20B9
:1054B0000F490830012213232A60236002600B6029
:1054C000D0E71922F7E785230B601360E2E780231A
:1054D0000B601360DEE700BF00400740014007405B
:1054E00040FCFF1F08B003400CB0034008B00B4065
:1054F0000CB00B40120E002020B0034020B00B4037
:1055000041FCFF1F24B0034024B00B40110E0020CB
:1055100008B5FAF7EBFFFBF741F801F02DFCFAE7CD
:10552000844641EA000313F003036DD1403A41D3AE
:1055300051F8043B40F8043B51F8043B40F8043B6D
:1055400051F8043B40F8043B51F8043B40F8043B5D
:1055500051F8043B40F8043B51F8043B40F8043B4D
:1055600051F8043B40F8043B51F8043B40F8043B3D
:1055700051F8043B40F8043B51F8043B40F8043B2D
:1055800051F8043B40F8043B51F8043B40F8043B1D
:1055900051F8043B40F8043B51F8043B40F8043B0D
:1055A00051F8043B40F8043B51F8043B40F8043BFD
:1055B000403ABDD2303211D351F8043B40F8043B9D
:1055C00051F8043B40F8043B51F8043B40F8043BDD
:1055D00051F8043B40F8043B103AEDD20C3205D3AD
:1055E00051F8043B40F8043B043AF9D2043208D0A5
:1055F000D2071CBF11F8013B00F8013B01D30B8817
:1056000003806046704700BF082A13D38B078DD0F4
:1056100010F003038AD0C3F10403D21ADB071CBFC6
:1056200011F8013B00F8013B80D331F8023B20F830
:10563000023B7BE7043AD9D3013A11F8013B00F869
:10564000013BF9D20B7803704B7843708B788370F1
:105650006046704708B5104C08E0236859050DD422
:1056600023681A050FD42368DB0411D42368580378
:10567000F3D500F0B7FB23685905F1D500F00EF81B
:1056800023681A05EFD500F009F82368DB04EDD58F
:1056900000F004F8EAE700BF3480044008B5FFF7E3
:1056A000D9FF00BF014B10221A807047002005402F
:1056B000704700BF094908B50B6830B16A46184405
:1056C000A2F58052904202D20860184608BD01F04F
:1056D000C5FE0C2303604FF0FF3008BD44FCFF1FE4
:1056E000FEE700BFF0B44D1E2E46002400E001345A
:1056F000B0FBF2F302FB1300092800F130078ABF68
:105700003730F8B2C0B206F8010F1846002BEED1C0
:105710000A1953704CB1107815F8016F28700133D5
:10572000E01A834202F80169F5DB0846F0BC7047D5
:10573000704700BF2128F0B445D8042A43D8DFE8D9
:1057400002F0474A4D0344004FF410252D4C04EB62
:10575000C0035B681A6812F4E06248D02A4A2B4CF6
:105760002B48C2F89C4103F140442A4EC2F8A401E0
:10577000A4F59220284FC2F8A0617C28274EC2F8D9
:10578000A871C2F8AC612CD9A4F594227C2A2AD93C
:10579000A4F596227C2A28D9A4F598227C2A2ED911
:1057A000A4F59A247C2C0ED81D4E72B61A6822F4E9
:1057B000702242F08070C3F3840428431A6046F8D4
:1057C0002410186062B6F0BC70474FF43025BDE776
:1057D0004FF40025BAE74FF44025B7E74FF42025F2
:1057E000B4E7104EE1E7104EDFE7104EDDE754F866
:1057F00030404FF4807084F880221860AEE70C4E81
:10580000D3E700BFD482000000F6FF1FD1FBFF1FCB
:1058100079FBFF1FA5FBFF1F4DFBFF1F21FBFF1F98
:1058200020FDFF1F48FCFF1F80FCFF1FD0FCFF1F57
:1058300000FDFF1F1A4B03EBC00010B4426802F1D9
:105840004043A3F592217C2923D9A3F594217C29F7
:105850000DD9A3F596217C291FD9A3F598217C2980
:1058600019D9A3F59A237C2B11D80E4C00E00E4CCD
:1058700072B613680D4823F08773C2F3840123F4D2
:10588000803343F08073136044F8210062B610BC8B
:105890007047074CECE7074CEAE7074CE8E700BF26
:1058A000D482000020FDFF1F80FCFF1F3157000045
:1058B00048FCFF1F00FDFF1FD0FCFF1F30B4054B4D
:1058C000054D064C002210211A602A6020601960E4
:1058D00030BC704714D0034004D0034000D00340D4
:1058E0002DE9F8436C4B6D496D4E6E4D6E4CDFF8F3
:1058F000D8C1DFF8D8E16D4A6D4F4FF40000186051
:105900004FF0807018604FF0007018604FF08060AA
:1059100018604FF00060186000200860282348F6E7
:10592000FF71CCF80010CEF80030336013602B60AC
:1059300023603B60B3629362092245F8242CC4F8CB
:10594000D80F05F57F65C7F8D41F07F5FF2707F5C2
:10595000FA67C6F8F83F2B6006F5FF26C4F8D42F87
:1059600005F5FD2504F5FF24386006F2F47651486C
:10597000316005F5FF6504F5FD642B60236002606E
:10598000FFF756FD72B64C4D4C4B4D4A1B682C68C8
:10599000126862B6510102D5322B88BF0134C3F5BB
:1059A0008C33484FDFF81491DFF8148103F23F1372
:1059B0004FF47A72A7FB031302FB04F404EB1314F5
:1059C000192672B6D9F800102A68D8F800E062B635
:1059D000C1F58C3303F23F13A7FB03031EF0806F66
:1059E000C4EB13134FF47A7002D0322988BF01320E
:1059F00000FB0233B3F57A7F04D3013E05D004F5F2
:105A00007A74DEE701F0B8F9DBE700F045FF72B623
:105A10002A4B2B4A1B682C68126862B6520102D5C9
:105A2000322B88BF0134C3F58C33264FDFF88C90BE
:105A3000DFF88C8003F23F134FF47A72A7FB031355
:105A400002FB04F404EB131440F2131672B6D9F8F7
:105A500000102A68D8F800E062B6C1F58C3303F272
:105A60003F13A7FB03031EF0806FC4EB13134FF427
:105A70007A7002D0322988BF013200FB0233B3F5BD
:105A80007A7F04D3013E05D004F57A74DEE701F095
:105A900073F9DBE7BDE8F88308E100E00480034028
:105AA00014800340248003402C8003401C8003406A
:105AB0003480034000800B40140E002018E000E00A
:105AC00004ED00E0398EE338088003400C80034089
:105AD00021280BD810B40F4B53F8302092F8804295
