:1000000000800020BD010000D58C00008D8C000018
:100010008D8C00008D8C00008D8C00008D8C00007C
:100020008D8C00008D8C00008D8C0000D58C000024
:10003000D58C00008D8C000091850000D5850000D6
:10004000D58C0000D58C0000D58C0000D58C00002C
:10005000D58C0000D58C0000D58C0000D58C00001C
:10006000D58C0000D58C0000D58C0000D58C00000C
:10007000D58C0000D58C0000D58C0000D58C0000FC
:10008000D58C0000D58C0000D58C0000D58C0000EC
:10009000D58C0000D58C0000D58C0000D58C0000DC
:1000A00055310000D58C0000D58C0000D58C0000A7
:1000B000D58C0000D58C0000D58C0000D58C0000BC
:1000C000D58C0000D58C0000D58C0000D58C0000AC
:1000D000D58C0000D58C0000D58C0000D58C00009C
:1000E000D58C0000D58C0000D58C0000D58C00008C
:1000F000D58C000021990000D58C0000D58C000023
:10010000D58C0000D58C0000D58C0000D58C00006B
:10011000D58C0000D58C0000D58C0000D58C00005B
:10012000D58C0000D58C0000D58C0000D58C00004B
:10013000D58C0000D58C0000D58C0000D58C00003B
:10014000D58C0000D58C0000D58C0000D58C00002B
:10015000D58C0000D58C0000D58C0000D58C00001B
:10016000D58C0000E59B0000D58C0000D58C0000EC
:10017000D58C0000D58C0000D58C0000D58C0000FB
:10018000D58C0000D58C0000D58C0000D58C0000EB
:10019000D58C0000D58C0000D58C0000D58C0000DB
:1001A000D58C0000D58C0000D58C0000D58C0000CB
:1001B000D58C0000D58C00001D830000564B4CF2FE
:1001C000205210B51A804DF628121A8000BF00BFC9
:1001D00000F05EFB514B4FF010621A60504A9A607B
:1001E000504ADA60504A136813F4807304D14F49BF
:1001F0000B604FF4A85313604D4B1A78110703D5C9
:100200001A7842F008021A704A4B4B492A221A7097
:100210004A4A4B4B8B4204D252F8040F43F8040B6A
:10022000F8E7484B484900228B4202D243F8042B9E
:10023000FAE74649464A002352F8230041F82300D2
:1002400001336F2BF8D1434B434A802103F8011B44
:100250009342FBD1414B3D4A1A60414B8A221A70AE
:10026000A3F5805324225A70A0221A709A7992071B
:10027000FCD59A79D406FCD43A4A937903F00C035E
:10028000082B384BF9D105221A7143225A719A79F9
:100290009006FCD5334A9179324B4906FBD5324A58
:1002A0004FF0817111600521516020221A709A79F6
:1002B00002F00C020C2AFAD12C4B2D4A1A602D4B5D
:1002C0002D4A1A6000225A60072243F8042C2B4A58
:1002D000C3F80C2D62B608F045FE144B1B68DA0714
:1002E00005D5274808F02CFE264B274A1A60274BD5
:1002F0001B785B0609D5234C234B22689A4204D114
:100300001F4808F01DFE002323600BF097FF08F044
:10031000E5FC08F019FCFEE70E20054030800440A3
:10032000823F04000100002B10D0034014D0034092
:1003300002D0074000E00740F0070020D84201004B
:1003400020F9FF1FF00700207453002000F4FF1F66
:100350000000000000E400E05FE400E008ED00E0E1
:1003600000500640004006404480044004800440A1
:10037000C010050014E000E03F190100000020203B
:100380008A2E03601CE00340A5C3945A00F0074086
:10039000FFFFFFFFFFFFFFFFFFFFFFFFFFFFFFFF6D
:1003A000FFFFFFFFFFFFFFFFFFFFFFFFFFFFFFFF5D
:1003B000FFFFFFFFFFFFFFFFFFFFFFFFFFFFFFFF4D
:1003C000FFFFFFFFFFFFFFFFFFFFFFFFFFFFFFFF3D
:1003D000FFFFFFFFFFFFFFFFFFFFFFFFFFFFFFFF2D
:1003E000FFFFFFFFFFFFFFFFFFFFFFFFFFFFFFFF1D
:1003F000FFFFFFFFFFFFFFFFFFFFFFFFFFFFFFFF0D
:10040000FFFFFFFFFFFFFFFFFFFFFFFFDEF9FFFF23
:1004100010B5054C237833B9044B13B10448AFF33E
:1004200000800123237010BDF007002000000000B1
:10043000D4420100084B10B51BB108490848AFF37E
:1004400000800848036803B910BD074B002BFBD0A0
:10045000BDE81040184700BF00000000F40700206E
:10046000D4420100F0070020000000000020704787
:10047000704700BF027C02F0080202F0FF0332B1B5
:10048000C36A406A181A48BF6FF0004070471846A8
:10049000704700BFF8B55548554D564C297803783C
:1004A0002278DFF868E1544F544E120442EA0323E5
:1004B000FF222A700270802022708EF800003870AF
:1004C000B2794F480B4312F00C0FC36002D1B379DD
:1004D000DC063DD4494A9379C3F38103032B40D012
:1004E000464B9A79C2F38102022A42D0434A937959
:1004F000C3F38103022B53D0404A9379C3F38103A2
:10050000022B61D03D4A9379C3F38103012B51D073
:100510003A4A9379C3F38103012B5CD0374B9A7924
:1005200012F00C0F03D19A79D20600D49B79354D85
:10053000354B2A7853F82240D4B1236820469B6873
:1005400098472B7804EB83046468002CF5D1F8BD40
:10055000B3799806EBD5294A9379C3F38103032B2A
:10056000BED19379D906BBD493799B06DFD4B7E784
:10057000F8BD9A79D706B9D49A799606B6D559783E
:1005800001F0020101F0FF020029AFD120211A7011
:100590001A461970937903F00C030C2BFAD1C6E7B5
:1005A0009379DD06A8D493799C06A5D4537898074F
:1005B000BDD5A1E79379DF06AAD593799E06A7D486
:1005C00053789D07B3D4A3E79379D9069AD4537887
:1005D0009B07ACD496E79379DC069FD59379980670
:1005E0009CD453789907A2D598E700BF06C007406E
:1005F00005C0074007C0074009C00740004006404B
:100600004C53002018510020D850002008C007404B
:1006100090F92410104B03604B1C06D0F0B40F4E21
:1006200056F82130984201D0F0BC70470C4F57F873
:10063000213033B18D0000245A1953685460002BC7
:10064000FAD1084C23780022013B237047F821207F
:1006500046F82120E8E700BFDC330100F850002015
:10066000D85000201951002038B590F924506B1C47
:100670001BD00E4B0E4953F825400E4BEDB24FF0F8
:10068000FF320D701A6084B1AD0002E02C44646842
:100690005CB194F82530002BF8D0236820462C4418
:1006A0001B6898476468002CF3D138BDD8500020EF
:1006B00018510020B8F3FF1F704700BF90F92410B5
:1006C000104B03604B1C06D0F0B40F4E56F821308F
:1006D000984201D0F0BC70470C4F57F8213033B12D
:1006E0008D0000245A1953685460002BFAD1084C2D
:1006F00023780022013B237047F8212046F821206F
:10070000E8E700BFDC330100F8500020D85000209B
:100710001951002090F92410104B03604B1C06D097
:10072000F0B40F4E56F82130984201D0F0BC70471B
:100730000C4F57F8213033B18D0000245A195368FB
:100740005460002BFAD1084C23780022013B23701F
:1007500047F8212046F82120E8E700BFDC330100FC
:10076000F8500020D85000201951002010B5002169
:10077000044607F019FDB0B1B4F8B4319BB2C3B16F
:10078000B4F8B031B4F8B2219BB20133632BC8BFC7
:10079000002392B2934207D09A1D04EB82029BB2CF
:1007A0005060A4F8B03110BDD4F8B8310133C4F8AA
:1007B000B831BDE8104007F0B3BC00BF103003F003
:1007C0008FBC00BF00B583B002AB012203F8011D4E
:1007D0001030194603F084FC03B05DF804FB00BF41
:1007E000103003F059BB00BF00B583B001220DF1FA
:1007F0000701103003F08AFA01280CBF9DF80700AA
:100800004FF0FF3003B05DF804FB00BF103003F081
:1008100019BC00BF2DE9F0410E46804608F08AFB66
:10082000174D286005F052FD0746286805F02AFD9F
:100830000446286805F014FD6401C0B204F4FF54B6
:10084000BFB20443A7F2BC7744EA4724A8F80040AB
:10085000286805F029FD0746286805F0DDFC0446F8
:10086000286805F0EBFCFF02640107F4FF2704F49D
:10087000FF54C0F346003C4304433480BDE8F0819C
:10088000BC4C002010B5044607F0CEFC204610BD3D
:10089000464A474B102010801B781B0734D5F0B513
:1008A000444E454D454C31782B782278DFF82CE1C9
:1008B000434F824042EA03230B43FF2280213270E0
:1008C0002A7022708EF800103970D9073D4A14D56D
:1008D0001A2393603C4F3D4E3D4D3E4C3E491079AE
:1008E00000233B7053709370D370D36033701371D7
:1008F0002B70237013700870F0BD1F0705D4DE063F
:1009000006D504239360E5E7704721239360E1E770
:100910009D0604D45C0604D516239360DAE7906044
:10092000D8E7180602D509239360D3E7D90502D585
:100930000A239360CEE79F0502D50D239360C9E794
:100940005E0502D50B239360C4E71D0502D51E2367
:100950009360BFE7DC0402D502239360BAE79804F2
:1009600002D507239360B5E7590402D506239360A7
:10097000B0E71F0402D515239360ABE7DE0302D571
:1009800024239360A6E79D0302D522239360A1E769
:10099000DC0202D5252393609CE71803F5D45903A4
:1009A000F3D49B0244BF2323936093E700200540C8
:1009B00002D0074005C0074006C0074007C00740F7
:1009C00009C007404C53002000C0074001C0074049
:1009D00002C0074003C0074004C0074008C00740EA
:1009E000002976D02DE9F04F0C469100631883B0B2
:1009F0005D68002D57D06B185E68002E50D07318BC
:100A00005F68002F49D07B18D3F80480B8F1000F3D
:100A10003CD008EB0103D3F80490B9F1000F32D0B9
:100A200009EB0103D3F804A0BAF1000F27D00AEBB9
:100A30000103D3F804B0BBF1000F18D00BEB010396
:100A40005B6863B1194401934968FFF7C9FF019BD3
:100A500093F825201AB11A681846536898479BF8EE
:100A6000253023B1DBF8003058465B6898479AF888
:100A7000253023B1DAF8003050465B68984799F882
:100A80002530002B35D198F8253063BB97F82530F9
:100A90001BB13B6838465B68984796F82530CBB960
:100AA00095F8253063B994F8253013B903B0BDE843
:100AB000F08F23685B68204603B0BDE8F04F18470D
:100AC0002B6828465B68984794F82530002BEDD0BA
:100AD000EFE77047336830465B68984795F82530F4
:100AE000002BE0D0ECE7D8F8003040465B68984730
:100AF000CCE7D9F8003048465B689847C3E700BFA9
:100B000090F92420531C26D01B4B2DE9F04153F8BB
:100B10002240D2B2ECB19300E1184D68B5B1E918AA
:100B20004E6866B1F1184F6837B13B445968FFF71A
:100B300057FF97F82530A3B996F8253063B995F893
:100B400025301BB12B6828465B68984794F8253000
:100B500063B9BDE8F0817047336830465B689847F9
:100B6000EDE73B6838465B689847E5E72368204631
:100B70005B68BDE8F0411847D85000202DE9F843E4
:100B8000564CB4F8B021B4F8B23192B29BB29A424A
:100B900038BF6432D31A3F2B6CDD514B1B78002BCE
:100BA00040F088804F4DD4F8AC91DFF8308105F5E6
:100BB0008047002637E04FF48072002107F0CCFF19
:100BC000484607F0ADFAC4F8AC61B4F8B231B4F8F5
:100BD000B0219BB292B293424ED00133632B86BFB9
:100BE0004FF0000E73461FFA83FE063304EB8303B7
:100BF0004FF48072D3F80490C4F8AC9109F1040169
:100C00002846A4F8B2E107F0A7FFB9F1000F04D01D
:100C1000484607F085FAC8F8AC6105F50075BD4295
:100C20004FF0000934D0A5F58070B9F1000FC2D1A2
:100C3000B4F8B231B4F8B0219BB292B2934246D02C
:100C40000133632B86BFCE4673461FFA83FE0633FD
:100C500004EB83034FF48072D3F80490C4F8AC9192
:100C600009F10401A4F8B2E107F076FFB9F1000F31
:100C7000ABD0A5E7BDE8F88328464FF48072002189
:100C800005F5007507F068FFBD424FF00009CAD1B5
:100C90004946112008F05EFA4FF480421249134889
:100CA00003F01EFA01300AD0114A13682033136092
:100CB000BDE8F8830121112008F04CFA72E7012108
:100CC000142007F0DBFE0B4B0B4A1A60ECE7494699
:100CD0004FF4807207F040FF77E700BFF04C002030
:100CE00030FAFF1F48090020480800202008002093
:100CF000EC4C00200CED00E00400FA052DE9F04179
:100D00001D4C1E4F1E481F4D1F4E0D2109F0E0FDCA
:100D1000204607F055FDB7F800801C48102109F067
:100D2000D7FD4146204607F0F3FC204607F048FD7A
:100D3000174B184A1B685B0203F124010024716001
:100D400028462146B362A2F8B44103F0D9F83146EF
:100D50002C22284603F0C4F90F4B28461B883B8001
:100D600002F07CFD642008F063FA21460220BDE811
:100D7000F04108F0EFB900BF88FDFF1F2C510020A3
:100D80002C34010020080020E44F00203C340100F6
:100D9000EC4C0020F04C0020545100202DE9F04F85
:100DA0009BB008F0C7F8874F874D386005F06AFAA6
:100DB0002B68984200F026820A218448DFF8488296
:100DC000DFF8489209F084FD814807F0F9FC3868A3
:100DD00005F058FA2860386805F078FA0DAC02463C
:100DE0002B687C497C480CF08DF8002520460123B7
:100DF000794A7A49C8F800908DF834508DF835500A
:100E000002F048FE744D2A7800232F2A8DF83430E2
:100E10008DF8353000F0CA8101236F4A6F492046B2
:100E200002F0D4FE78B19DF8343013F0700F0AD080
:100E3000A646BEE80F00694E0FC6BEE80F000FC6FB
:100E4000DEF8003033603868654E05F03FFA0B90ED
:100E5000386805F017FA8246386805F001FA0990FB
:100E6000386805F021FA8346386805F0D5F90A900C
:100E7000386805F0E3F95B49074608680AF06EF93F
:100E8000CDE90601584B099A0092586819680A9BE7
:100E90000B9A03970293059053460491CDF804B042
:100EA000524953480CF02EF84C48C8F8009002F014
:100EB000D5FC504901F23C4002F008FF00274FF4F6
:100EC0007A7E462311A84C4A44498DF844708DF827
:100ED00045708DF838708DF84070CDF83CE00D9677
:100EE00002F074FE9DF84430002B40F06C810E211E
:100EF000424809F0EDFC0121142007F0BFFD404BF2
:100F0000404A1A602A78344900232F2A8DF8343059
:100F10008DF8353000F03D8101232F4A2F492046BE
:100F200002F054FE78B19DF8343013F0700F0AD0FF
:100F3000A646BEE80F00294F0FC7BEE80F000FC737
:100F4000DEF800303B6000274FF47A7EC223284A47
:100F500022498DF8447011A88DF845708DF83870CD
:100F60008DF84070CDF83CE00D9602F02FFE0DF1AB
:100F7000440EBEE80F00DFF898809DF8387088F8BE
:100F8000047008F110070FC7BEE80F000FC70F9AD3
:100F90009DF84030DEF80010C8F8082088F80C30C2
:100FA000134839600CF00CF801461148DFF86490E2
:100FB000DFF84CB0DFF84CA009F08AFC044807F0D9
:100FC000FFFB79E0BC4C0020B44F002050340100FE
:100FD00088FDFF1F5C340100B04E0020844C0020CF
:100FE000B83301002C4F0020244F0020683401004A
:100FF000484F002048480020943401009C340100F0
:101000000CED00E00400FA05D450002015080000A3
:1010100010080020AC4E002002F0D8FD78B19DF8F9
:1010200034307B4F13F0700FA64608D0BEE80F0097
:101030000FC7BEE80F000FC7DEF800303B60002787
:101040004FF47A7EC223734A71498DF8447011A817
:101050008DF845708DF838708DF84070CDF83CE013
:101060000D9602F0B3FD0DF1440EBEE80F006A4F7D
:101070009DF838C088F804C00FC7BEE80F000FC73E
:101080009DF840300F9ADEF8001088F80C30C8F850
:101090000820604839600BF093FF01465D4809F075
:1010A00017FC5E4807F08CFB0A2008F0C1F8D9F85D
:1010B0000030B3F57A7F65DC98F8107058495548D0
:1010C0000FBBD9F8003001331A46C9F800300BF0D5
:1010D00019FF95F800E0534A4D498DF83470BEF180
:1010E0002F0F4FF0010320468DF8357094D15778BB
:1010F000002F91D1084602F0B1FB4B4901F23C4070
:1011000002F0E4FD9BE7494849490768494C4A4ACF
:101110004A4B4B4D03C9206092E80300A06093E85E
:10112000030010260123A382E382E0602661384693
:101130000AF0AAFE3946A06138460AF0B1FB0AF06F
:10114000A3FE404AE0612B68668492E803005B02DC
:1011500003F124062C226062214602272E48A36256
:101160002784666002F0BCFF0921374809F0B0FB14
:1011700029682A4807F0CCFA284807F021FB1BB061
:10118000BDE8F08F0121142007F078FCCBF800A017
:1011900092E74B78002B7FF4BFAE1D4802F05EFB58
:1011A000214901F23C4002F091FDCCE66B78002B26
:1011B0007FF432AE164802F051FB1B4901F23C406D
:1011C00002F084FD3FE613480BF0FAFE1149024697
:1011D00011A802F085FF1AA92C2301F8353D012240
:1011E00011A802F07DFF19480BF0EAFE17490246EC
:1011F00011A802F075FF204607F0E2FA11A802F0EC
:101200002DFB7FE6DFF84880DFF848900DACF9E56C
:10121000844C0020484F00202008002088FDFF1F3C
:10122000AC340100B04E002048480020B04F0020F0
:10123000B8340100E44F0020C0340100C83401007C
:10124000AC4F0020D0340100D834010004FAFF1F55
:10125000D45000201508000038B50E211E481F4D3F
:1012600009F036FB1E4807F0ABFAFFF797FD1D4B60
:10127000D5F8AC0100241C6018B106F051FFC5F888
:10128000AC41B5F8B241B5F8B031A4B29BB2A342BB
:101290000ED00134642C28BF0024A31D05EB83036A
:1012A000586806F03DFFB5F8B0319BB2A342F0D1CB
:1012B00001231946A4B20220A5F8B241A5F8B43121
:1012C00007F048FF0B21084809F002FB0448BDE87D
:1012D000384007F075BA00BFE4340100F04C00203C
:1012E00088FDFF1FEC4C0020F434010010B582B0E3
:1012F00004460BF065FE00B2012825DDB4F900308C
:1013000044F24E4293423DD021DD44F25372934267
:1013100027D045F64822934216D101AAE01C2F4956
:101320000BF016FE019B4AF64442934252D02FDC4A
:10133000B3F57A5F4AD0B3F5FA4F3BD0B3F5FA5F15
:1013400002D1274B00221A60012002B010BD44F2E6
:101350004C429342F8D1234B002201201A7002B074
:1013600010BDE01C01AA1D490BF0F2FD019B0F2BE3
:101370001CD91D4B042119600E2007F07FFB0120B2
:1013800002B010BD194B012201201A6002B010BD3D
:10139000174A934216D0174A93420FD04BF6803229
:1013A0009342D1D10E4B04221A60CDE70E4AD9B236
:1013B0001360E1E70A4B02221A60C5E7084B0622D8
:1013C0001A60C1E7064B05221A60BDE7044B0122F3
:1013D0001A60B9E7024B03221A60B5E71435010021
:1013E0002CFAFF1F30FAFF1F00FAFF1F44080020ED
:1013F0000077010000EE02002DE9F043A3B00025C4
:101400004FF47A76764F77480A968DF830508DF8FB
:1014100031508DF824508DF82C50089702F01EFAA8
:10142000714901F23C4002F051FC01236F4A6D49C1
:10143000179619A88DF864508DF865508DF858509E
:101440008DF86050159702F0C1FB0DF1640EBEE8F7
:101450000F000CAE0FC6BEE80F000FC69DF830801F
:10146000DEF800109DF85800179A9DF86030316042
:101470008DF824000A928DF82C30B8F1000F46D078
:101480002E468DF800604FF000094FF0FF08012252
:1014900015A90CA802F03AFC09F1010322AA0128BF
:1014A0004A441BB224D01D2B02F8888C05DC9946D7
:1014B000EDE71D2B01DC0A2AF9D1013B9BB222AAE0
:1014C0001A4402F8886C9DF800202F2A04D0012BC2
:1014D00002D96846FFF70AFF9DF830301B0711D488
:1014E0000CA802F0BBF92DBB012023B0BDE8F083AE
:1014F0009DF854200D2A08BF4B4662D11D2BDCDC21
:101500009946C4E7139A119B9A42BAD1E8E714218D
:10151000374809F0DDF9374807F052F90D2236490E
:10152000364807F0DFF8354807F04AF9404623B05F
:10153000BDE8F0830B21324809F0CAF900230A22E2
:1015400021462C4807F04CF92A4807F039F925487C
:1015500002F084F92449002501F23C4002F0B6FB78
:101560004FF47A768DF864508DF865508DF85850A8
:101570008DF8605063231D4A1A49179619A819ADB2
:10158000159702F023FB0FCD0CAE0FC60FCD0FC683
:101590002968179A9DF860309DF8585031600CA862
:1015A00021460A928DF82C308DF8245002F0A8FCC8
:1015B000022214490CA802F093FD0CA802F04EF987
:1015C00092E722AB03EB0901542A09F1010301F868
:1015D000882C1BB27FF46DAF119C0546013C8DE752
:1015E000B8330100844C0020484800201835010021
:1015F0003435010088FDFF1F4C350100C04C002030
:10160000243501003035010010B5094C204606F0A4
:10161000DDFA2046012105F0FFFC2046012105F0FE
:10162000F5FC002220461146BDE8104005F0EABC5A
:10163000C04C002038B504460D463148012105F064
:10164000E5FC2AB200212E4805F0DCFC204604F01F
:101650003DFE01462A4807F05BF82D21284805F099
:1016600097FC204604F00EFE0146254807F050F88E
:101670002D21234805F08CFC204604F0F1FD0146A5
:101680001F4807F045F802221E491D4807F02AF8B6
:10169000204604F009FE092803DC3021184805F033
:1016A00077FC204604F000FE0146154807F030F8AC
:1016B000204604F0B1FD012205461349104807F009
:1016C00011F8092D03DC30210D4805F061FC294695
:1016D0000B4807F01DF8204604F0B0FD0122044637
:1016E0000949074806F0FEFF092C03DC30210448B5
:1016F00005F04EFC21460248BDE8384007F008B826
:10170000C04C002090350100D03501002DE9F04F8C
:10171000102983B00C4606467FD0202976D04FF0A2
:10172000000A5FFA8AFA4AF0E06300210093012080
:101730004AF08E4301930AF07DF901463A480AF0D7
:101740006BFA074620460AF05BF901460AF0A8F852
:10175000044630460AF054F9014620460AF0A8F93A
:10176000014638460AF058FA4FF001084FF07E550E
:101770000746C1464FF0010A4FF0000B50460AF0F1
:1017800043F939460AF094F904460AF057FB0AF087
:101790003BF9014620460AF081F8294606460AF040
:1017A00025FB4FF0874148B120460AF01FFB28B1C6
:1017B00020460AF089FB35468046D1461AF1010AD7
:1017C0004BF1000BBBF1000F08BFBAF1400FD5D1B0
:1017D0001649174C0D681748174E09F1FF3208F1EA
:1017E000FF33120302F47F22C3F30B03134325F0EC
:1017F00010420A602360009B0360019B33600B680A
:1018000043F010430B6003B0BDE8F08F0B4B019326
:1018100003F140430A4F009394E70A4B019303F10D
:101820004043094F00938DE74054094C80F002403B
:1018300004F1024008F0024088F002400100004735
:101840004054894B030000474054094B2DE9F04FA9
:101850000546DFF87C82974E974F98F800E02E609F
:10186000FF2085F82400DFF86C92387859F820C002
:101870000023BEF1060F8DB00C4685F8253085F8A3
:1018800026309CBF88F800309E46BCF1000F00F067
:10189000A8808C455BD06346810001E09C4256D015
:1018A0000B445B68002BF9D1634603EB010ADAF8BD
:1018B0000430002BF9D105EB010BCAF80440BEF14E
:1018C000060F4FF0FF044FFA80FACBF804308DF882
:1018D0002C4002968DF82D308DF82E3085F824A0FE
:1018E000644605D8002388F80030002C00F0A98059
:1018F000A24226D0234601E0934222D00B445B68EB
:10190000002BF9D104EB010CDCF80440002CF9D1D8
:10191000CCF804200CAB19440024431CBAF1FF3F5F
:1019200041F8244C3B708DF82CA0029605D06349F9
:1019300051F82A3002AA934272D028460DB0BDE871
:10194000F08F0130387028460DB0BDE8F08F0023CD
:10195000FF21BEF1060F02968DF82C108DF82D3068
:101960008DF82E3001D888F800309445E9D06346D0
:10197000810001E09A42E4D00B445B68002BF9D16E
:101980008C44DCF804402CB1A4468C44DCF80440C0
:10199000002CF9D10CAB19444FFA80FE431CBEF168
:1019A000FF3FCCF804203B7041F8244C02968DF8A0
:1019B0002CE0C2D0414951F82E3002AA9342BCD14A
:1019C00059F82E304FEA8E0623B19A1953685460A5
:1019D000002BFAD10023387049F82E3041F82E3010
:1019E000ABE7B0B38100DFF8D4A049F8204005EBA5
:1019F000010C00234AF82050BEF1060FCCF8043049
:101A00004FFA80FA4FF0FF0C02968DF82D308DF8CA
:101A10002E3085F824A08DF82CC07FF663AF64E7E4
:101A200059F82A304FEA8A0623B19A19536854604C
:101A3000002BFAD10023387049F82A3041F82A30B7
:101A40007BE7F0B11D4B49F8202002AA43F8202083
:101A500060E71B491B480B68019243F080630B60F1
:101A60000368194923F080430360152007F096F9B5
:101A7000164B98F800E0019A4FF40011196038787D
:101A8000B0E70F4C0F482368019243F08063236056
:101A900003680D4923F080430360152007F07EF9A9
:101AA0000A4B019A4FF40011196038784FFA80FA06
:101AB0008100C7E7DC33010019510020F8500020F5
:101AC00004700440007004409504000000E100E050
:101AD000BCF3FF1FD85000202DE9F041614F624D4B
:101AE000624C634E06F02CFF4FF0FF31384606F093
:101AF00059F8604B2A683B6001210023002078627E
:101B000087F8281087F829102660637223612372F2
:101B1000E3600AB9A2E01A465369002BFBD1546175
:101B20000027554B51486761A780E780A772236063
:101B300001F0FEF8514A4FF0010E02F118013B4648
:101B400038461772D760166082F809E011611746AF
:101B500000E0396941F82300517A484E0133994237
:101B6000F7DC2968404B09B97AE019464B69002B2C
:101B7000FBD14A61424D434B2C60002428465461FE
:101B80009480D4809472A2F8B0411360A2F8B2415C
:101B90006A60C2F8AC41A2F8B441C2F8B8412C72F4
:101BA0006C72EC602C7406F00BFB3749374A384FE7
:101BB000384E284609F068F9374A384B5069384A98
:101BC0001A6009F021FF374D38604FF0FF08364B9F
:101BD0002E4A364985F825402846012785F8248075
:101BE0002B606C63AC6385F83C4085F8267009F087
:101BF0004BF92F4B254A2F4986F82480304686F82A
:101C00002540336086F8274086F8284086F82670FD
:101C100009F03AF92A4631462748284DFFF716FEC3
:101C20001A4A2749244809F02FF9264A264B274902
:101C3000147464204FF47A76547414711473DC7144
:101C400083F83C4483F83D4483F86A4483F8600495
:101C500096601560C3F86C14BDE8F0812C605FE7F6
:101C60001E6087E7C04C002028510020304F002024
:101C7000AC330100F033010030360100F04C00209D
:101C8000044F00202834010085080000FCF9FF1FE4
:101C9000B04F0020B84F002010FAFF1F184F00204F
:101CA00014360100C44E0020D8360100BD060000E5
:101CB000EC36010015070000844F0020B833010006
:101CC00011060000100800204848002000000238DB
:101CD0000238032838B504DC002880F2F48100249F
:101CE00000E00C240A21CA48CA4D01F08FFB0021F4
:101CF000C74801F063F93021C54801F05FF9402180
:101D0000C34801F05BF96021C14801F057F9C048B0
:101D100001F08EFB0A21BE4801F078FB0021BC488F
:101D200001F04CF92621BA4801F048F90021B848E1
:101D300001F044F96C21B64801F040F9B44801F0D3
:101D400077FB0A21B24801F061FB0021B04801F0A5
:101D500035F92821AE4801F031F90121AC4801F0F4
:101D60002DF9F021AA4801F029F9A94801F060FBFA
:101D70000A21A74801F04AFB0021A54801F01EF9FD
:101D80002A21A34801F01AF90021A14801F016F90F
:101D900000219F4801F012F99D4801F049FB0A21FA
:101DA0009B4801F033FB0021994801F007F92C21F1
:101DB000974801F003F90F21954801F0FFF822211F
:101DC000934801F0FBF8924801F032FB0A21904859
:101DD00001F01CFB00218E4801F0F0F83C218C48FA
:101DE00001F0ECF844218A4801F0E8F846218848DF
:101DF00001F0E4F8864801F01BFB0A21844801F059
:101E000005FB0021824801F0D9F82421804801F027
:101E1000D5F801217E4801F0D1F837217C4801F046
:101E2000CDF87B4801F004FB0A21794801F0EEFA75
:101E30000021774801F0C2F83021754801F0BEF862
:101E40000021734801F0BAF8A221714801F0B6F8F8
:101E50006F4801F0EDFA0A216D4801F0D7FA002130
:101E60006B4801F0ABF80221694801F0A7F80021A6
:101E7000674801F0A3F84321654801F09FF86448E2
:101E800001F0D6FA4FF4C87007F0D2F90A21604881
:101E900001F0BCFA00215E4801F090F82E215C4868
:101EA00001F08CF819215A4801F088F81921584896
:101EB00001F084F8564801F0BBFA0A21544801F0B9
:101EC000A5FA0021524801F079F80421504801F0A8
:101ED00075F800214E4801F071F821464C4801F098
:101EE0006DF84B4801F0A4FA0A21494801F08EFA36
:101EF0000021474801F062F80621454801F05EF8EC
:101F00000121434801F05AF83021414801F056F8C8
:101F10003F4801F08DFA0A213D4801F077FA00218F
:101F20003B4801F04BF80A21394801F047F80021FD
:101F3000374801F043F80021354801F03FF83448B4
:101F400001F076FA0A21324801F060FA00213048A7
:101F500001F034F80E212E4801F030F800212C4811
:101F600001F02CF808212A4801F028F8284801F04F
:101F70005FFA0A21264801F049FA0021244801F0BD
:101F80001DF81021224801F019F8FF21204801F026
:101F900015F83C211E4801F011F81D4801F048FADF
:101FA0000A211B4801F032FA0021194801F006F815
:101FB0002221174801F002F87F21154800F0FEFFAA
:101FC0007F21134800F0FAFF114801F031FA0A218D
:101FD0000F4801F01BFA01210D4800F0EFFF24210A
:101FE0000B4800F0EBFF0021094800F0E7FF00215B
:101FF000074800F0E3FF064801F01AFA0A210448F6
:1020000001F004FA0021024800F0D8FF04E000BF0C
:10201000B850002000FAFF1F24212C4800F0CEFF0A
:1020200000212A4800F0CAFF1421284800F0C6FF0A
:10203000264801F0FDF90A21244801F0E7F90021C2
:10204000224800F0BBFF2A21204800F0B7FF002102
:102050001E4800F0B3FF00211C4800F0AFFF1B48F2
:1020600001F0E6F909211A4808F032FC00230A229F
:102070002968184806F0B4FB164806F0A1FB0A21AF
:1020800012482C6801F0C2F90021104800F096FFB8
:1020900020210E4800F092FFC4F307210B4800F006
:1020A0008DFFE1B2094800F089FF084801F0C0F94E
:1020B000B0FA80F14909074806F02AFB054806F006
:1020C0007FFB012038BD8000C4B20BE6B850002071
:1020D000C835010088FDFF1F2DE9F0410121A8B09E
:1020E000112007F069F80021112007F033F80021D2
:1020F000082007F061F80121062007F05DF80121B2
:10210000022007F059F80021022007F023F8B94B0C
:10211000B94C1968B948BA4EBA4DBB4F06F072FABD
:102120002168BA4800230A2206F05AFBB74806F095
:1021300047FB2168B54800230A2206F051FBB3484B
:1021400006F03EFB00232168B0480A2206F048FB57
:10215000AE4806F035FB002006F03AFC04460120AC
:10216000346006F035FC062C84BF052333600D284F
:1021700088BF04234FF00008386088BF3B606420AC
:10218000C5F8008007F054F8102229689F48A04C39
:10219000434606F025FB9D4806F012FB4FF43053F2
:1021A0002B60642007F044F84FF434532B609948B7
:1021B00000F0AAFF0721984801F030FA04F58C6579
:1021C0000E21954801F072FA284604F26C414FF056
:1021D00038430A2203F04AF968BB1C218F48904D0E
:1021E00008F076FB894806F0EBFA01248C4805F0EC
:1021F000FFFE8B4885F8294005F0E8FC012188485E
:1022000004F00AFF0121864804F000FF0022114675
:10221000834804F0F7FE12228249814806F062FAF0
:102220007F4806F0CDFA7E4805F058FE4FF47A70EC
:1022300006F0FEFFDAE704F23C40256001F00EFBF9
:102240000121204603F016F80146002800F04E81D7
:102250006F4C04F23C452846214601F037FD00282A
:10226000BBD094F83C3413F0700FB6D06E4B1D60A9
:10227000FFF7C2F83178002006F000FC3978012021
:1022800006F0FCFB694B1B78002B40F063810820B3
:1022900006F084FF002800F03C81654F08200024F0
:1022A00006F07CFF78BB28AB1D1907F0B7FA0028B1
:1022B00021DD07F0C3FA214605F8640C534806F007
:1022C00027FA3A2008F0D8FB15F8640C08F0D4FB84
:1022D0004E4806F075FA15F8643C0D2B04F1010424
:1022E00000F0C480642CDED1002428AB1D1907F057
:1022F00095FA0028DDDC4A4805F0F0FD082006F0DC
:102300004DFF0028CFD04B4A4B4B11681960043267
:102310006E21126849485A6005F07EFE3468484DC7
:1023200057F82460304609F06FFB102128603046D2
:10233000FFF7ECF9374800F0E7FE2046FFF7C8FC4E
:102340004048414C01F08AFA314901F23C4001F029
:10235000BDFC00234FF47A718DF818308DF81930D8
:102360008DF80C308DF814300491462306A8374AB6
:102370003449029401F02AFC9DF81830002B40F0FB
:10238000BC80AE212648324C05F028FC06F0D2FD78
:10239000304A314B1060186809F036FB296809F0A3
:1023A00087FB4FF06E5109F083FB4FF0745109F039
:1023B0007FFB08F0D3FE08F0DFFC0022274B08F07B
:1023C00021FF09F0CFF9264B206000220521254886
:1023D0001A6008F07DFA21680C4806F099F90B485C
:1023E00006F0EEF9204B4FF0FF321A6028B0BDE83E
:1023F000F08100BF38FAFF1F00D0034088FCFF1FA8
:102400002CFAFF1F10D0034000FAFF1F88FDFF1FAA
:1024100048480020B850002040FAFF1F94350100C2
:10242000C04C0020B4350100D050002030FAFF1F0E
:1024300010FAFF1F58800440244F00200082FF1F25
:10244000B04F0020844C0020B833010094340100C8
:10245000AC4F0020BC4C002034FAFF1F000040406D
:102460000C080020F4350100B44F00200FA80AF03A
:10247000A7FD01460FA808F02BFA394806F0A0F98D
:102480000FA80AF09DFD0FA90246364806F02AF96A
:10249000344805F023FD9DF83D30442B7FF424AFF4
:1024A0009DF83E30542B7FF41FAF01AB02AA2E499A
:1024B0000FA80AF04DFD0A212C4808F009FA02A8DD
:1024C0000AF07EFD014602A808F002FA01992448AC
:1024D00006F01EF9224806F073F9019806F030FD67
:1024E00019210198FFF7A6F80024FEE6204602F025
:1024F000C1FE00287FF4ACAE6FE611221C4906A88D
:1025000001F0EEFD02A806F05BF906A801F0A6F9BD
:1025100037E7144C174F204605F06AFD012384F875
:102520002930FFF771F807222046134906F0DAF840
:102530003368204657F8231006F0EAF802220F49C4
:10254000204606F0CFF8204606F03AF9204605F07E
:10255000C5FCA3E60121112006F0FCFD97E600BFB3
:1025600088FDFF1FC04C0020E0350100E835010068
:102570000035010010FAFF1FD4350100DC350100E1
:1025800070B5324D2C681CB1012C1AD030BF70BD13
:1025900006F0D0FC2E4B2F4E18602146112006F07D
:1025A000D9FD34685CB30D212B4808F091F92B4814
:1025B00006F006F901232B60FEF74EFE2C68012C75
:1025C000E4D1FEF7DBFA264B1B78002B38D1254AE5
:1025D000254B12681B689A422CDA082006F0DEFDB3
:1025E0000028D3D1012006F023FE082006F0D6FDF6
:1025F0000028CBD1FEF782FB02232B60C6E70A211D
:102600001A4800F003FF2146184800F0D7FC0E21BD
:10261000164800F0D3FC2146144800F0CFFC0A21F4
:10262000124800F0CBFC114800F002FF4FF0FF33DE
:102630003360B8E70E4801F011F9FEF7AFFBCCE7C5
:102640002146112006F086FDC1E700BF0C080020DE
:10265000BC4C002044080020FC35010088FDFF1F11
:1026600030FAFF1FEC4C0020AC4F0020B850002087
:10267000200800200020704700207047F8B5C34CA8
:10268000012605460671204600F03EFD052006F0B5
:10269000CFFD297A204600F0E3FD2046002100F01E
:1026A0008DFC2046302100F089FC2046402100F0BE
:1026B00085FC6021204600F081FC204600F0B8FE39
:1026C000297A204600F0CCFD2046002100F076FC5F
:1026D0002046262100F072FC2046002100F06EFC0E
:1026E0006C21204600F06AFC204600F0A1FE297A09
:1026F000204600F0B5FD2046002100F05FFC20469A
:10270000282100F05BFC3146204600F057FCF22106
:10271000204600F053FC204600F08AFE297A20462D
:1027200000F09EFD2046002100F048FC20462C21B0
:1027300000F044FC20460F2100F040FC22212046FE
:1027400000F03CFC204600F073FE297A204600F0A1
:1027500087FD2046002100F031FC20463C2100F09E
:102760002DFC2046442100F029FC4621204600F0A3
:1027700025FC204600F05CFE40F23713EB80297AFE
:10278000204600F06DFD2046002100F017FC204699
:10279000242100F013FC3146204600F00FFC3721C5
:1027A000204600F00BFC204600F042FE297A20462D
:1027B00000F056FD2046002100F000FC20463021AC
:1027C00000F0FCFB2046402100F0F8FBFF212046F2
:1027D00000F0F4FB204600F02BFE297A204600F0A2
:1027E0003FFD2046002100F0E9FB2046022100F0D9
:1027F000E5FB2046002100F0E1FB7321204600F0BC
:10280000DDFB204600F014FE4FF4C87006F010FD0A
:10281000297A204600F024FD2046002100F0CEFB5E
:1028200020462E2100F0CAFB20461D2100F0C6FBE9
:102830001D21204600F0C2FB204600F0F9FD297A58
:10284000204600F00DFD2046002100F0B7FB204699
:10285000042100F0B3FB2046002100F0AFFB04216F
:10286000204600F0ABFB204600F0E2FD297A20462E
:1028700000F0F6FC2046002100F0A0FB20460621D7
:1028800000F09CFB3146204600F098FB30212046AA
:1028900000F094FB204600F0CBFD297A204600F0A2
:1028A000DFFC2046002100F089FB20460A2100F0D1
:1028B00085FB2046002100F081FB1021204600F01E
:1028C0007DFB204600F0B4FD297A204600F0C8FCCC
:1028D0002046002100F072FB20460E2100F06EFB26
:1028E0002046002100F06AFB0021204600F066FB34
:1028F000204600F09DFD297A204600F0B1FC2046DC
:10290000002100F05BFB2046102100F057FB204621
:102910003C2100F053FB3C21204600F04FFB2046B9
:1029200000F086FD297A204600F09AFC204600211E
:1029300000F044FB2046222100F040FB20467F218E
:1029400000F03CFB7F21204600F038FB3627204674
:1029500000F06EFD297AEF80204600F081FC2046D1
:10296000002100F02BFB2046242100F027FB20460D
:10297000002100F023FB3946204600F01FFB2046D3
:1029800000F056FD6E723046F8BD00BFB850002012
:102990000B462DE9F04145490546184609F088F8EF
:1029A000434908F07DFF09F06FFA044600284CD037
:1029B00080281FD92B79002426462BBB297A3D4835
:1029C00000F04EFC00213B4800F0F8FA2221394883
:1029D00000F0F4FA3146374800F0F0FA2146354865
:1029E00000F0ECFA334800F023FDB0FA80F0400923
:1029F000BDE8F081C0F180042B7944EA0424C4F3DB
:102A00000726E4B2002BD9D0EF88297A294827F08D
:102A100010074FF00008EF8085F8048000F020FCDC
:102A20004146244800F0CAFA2421224800F0C6FAA0
:102A3000390A204800F0C2FA07F0EF011D4800F003
:102A4000BDFA1C4800F0F4FCB8E701232B71297A89
:102A5000184800F005FC2146164800F0AFFA222184
:102A6000144800F0ABFA7F21124800F0A7FA7F214A
:102A7000104800F0A3FA0F4800F0DAFCEE88297A3B
:102A80000C4846F01006B6B2EE8000F0E9FB214695
:102A9000084800F093FA2421064800F08FFA310A22
:102AA000044800F08BFAF1B299E700BF000001433F
:102AB000EE7CFF3EB850002070B505460C4619B1BB
:102AC00001293BD0002070BD017A424800F0C8FBCC
:102AD0002146404800F072FA20213E4800F06EFA8C
:102AE00021463C4800F06AFA55213A4800F066FA5F
:102AF000384800F09DFC06460028E3D1EC88297A8E
:102B0000344844F00404A4B2EC8000F0A9FB314640
:102B1000304800F053FA24212E4800F04FFA210AE1
:102B20002C4800F04BFAE1B22A4800F047FA294855
:102B300000F07EFCB0FA80F0400970BD017A2548B3
:102B400000F08EFB0021234800F038FA2A212148AA
:102B500000F034FA21461F4800F030FA73211D4876
:102B600000F02CFA1B4800F063FC04460028A9D1B1
:102B7000297A184800F074FB2146164800F01EFA26
:102B80002021144800F01AFA2146124800F016FAE3
:102B90008821104800F012FA0E4800F049FC044663
:102BA00000288FD1EE88297A0A4826F00406EE80A4
:102BB00000F056FB2146074800F000FA24210548A2
:102BC00000F0FCF9310A034800F0F8F906F0FB01C7
:102BD000AAE700BFB850002010B5044605F07EFCFF
:102BE000204610BD024A0349034808F04DB900BF12
:102BF000FCF9FF1FD92B0000105000201B4A1C4B72
:102C000011681C48096970B499421279027009D29E
:102C1000194A127832B3194A4FF08041116003F516
:102C2000807402E01C46A3F58073154A15491268AA
:102C30000D68AAB1A5B1144E3088402810D84100C3
:102C40000A444030294402320231308033F9040B07
:102C500022F8020F9C4233F9020C21F8020FF5D83A
:102C600070BC704703F58074DFE700BF2050002080
:102C7000B8F2FF1F1F8000401A50002008E200E059
:102C8000285000201C50002018500020F8B506469F
:102C900005F0F2F90446E8B105F0EEF90546002822
:102CA0003AD072B61F4B1A887F2A19D8002C31D01F
:102CB0001D490A6842B162B6204605F031FA28463D
:102CC000BDE8F84005F02CBA18480C601A80056081
:102CD00062B6F8BD054672B6124B1A887F2AE5D94E
:102CE000114A12491768146000220C681A800D609E
:102CF00062B63946304605F03DFA384605F010FA1E
:102D000030462146012205F035FA2046BDE8F8405C
:102D100005F006BA62B6F8BD204605F001FA2C4669
:102D2000BFE700BF18500020285000201C50002092
:102D3000F8B5284C284E2046012105F031FB00F063
:102D400083F8264B264A27484FF480611960236890
:102D500000211A6099802279186102F1804202F5FF
:102D6000043240F20110D8809E614FF48075022039
:102D700006278E26DD82D960DD8398609F83988246
:102D80001170167005F0B2FA1749184B2279184FD6
:102D900008701A7039682279164C174D174E41F099
:102DA000124141F00101531139609B00206803F189
:102DB000604302F1100703F5614302F01F02012195
:102DC00040F0104001FA02F2206045F827601A60D6
:102DD000F8BD00BF2050002000FEFFFF14B00440EB
:102DE000A0F00240B8F1FF1F1A5000201B800040E5
:102DF00080F0024000F0024000F4FF1FFD2B0000B5
:102E0000024A0349034808F03FB800BFFCF9FF1F1E
:102E1000D92B000020500020024A0349034808F043
:102E200033B800BFFCF9FF1FD92B00002C50002045
:102E3000024A0349034808F027B800BFFCF9FF1F06
:102E4000D92B000034500020284B29491A68294802
:102E500042F400421A600A6842F002020A601A68EC
:102E600042F002021A600368002B3DDB224B1B6814
:102E7000002B39DB214A4FF0864313601368002B87
:102E8000FCDBF0B51E4C1F48DFF8ACE01E491F4BC1
:102E90001F4A204F204E214D47F2320CC4F800C08B
:102EA000002404600120CEF80000DFF890E0C1F8B3
:102EB00000E04FF480311960194B1360DFF880E0B7
:102EC000184A3A60346028601748CEF80000174C62
:102ED000B9671748174946F8503C4FF4C0632A6158
:102EE000236003600B60F0BD704700BF3C8004406E
:102EF0004080044000F0024080F0024000F10240B7
:102F000004F1024060F0024008F002400CF0024080
:102F100010F0024014F00240E0F0024084F0024061
:102F20001B0F0100000F0F0F0300004708B0044003
:102F30000CB0044018B0044004F002400300000745
:102F400088F00240024A0349034807F09DBF00BFD2
:102F5000FCF9FF1FD92B00003C500020024A034916
:102F6000034807F091BF00BFFCF9FF1FD92B0000F9
:102F700044500020024A0349034807F085BF00BFC0
:102F8000FCF9FF1FD92B00004C500020024A0349D6
:102F9000034807F079BF00BFFCF9FF1FD92B0000E1
:102FA00054500020024A0349034807F06DBF00BF98
:102FB000FCF9FF1FD92B00005C5000200A4B1B7846
:102FC00013B90A4B1B786BB1094A1378202B07D829
:102FD00010B4581C074C1070E154012010BC70470D
:102FE0000123037100207047CA5000208D5000203B
:102FF000CB5000206C500020704700BF024A034BAA
:1030000010781B78C01A7047C9500020C8500020A3
:10301000064A074913780978994204D90548591C8A
:10302000C05C117070474FF0FF307047C8500020EF
:10303000C950002090500020054B064A1B7812789A
:103040009A4286BF044AD05C4FF0FF30704700BF01
:10305000C8500020C95000209050002070B50D4B82
:103060001B78144613B90C4B1B788BB10B4E35787B
:10307000C5F12103A34202D201221C460271084875
:1030800022462844254405F067FD3570204670BD72
:10309000184670BDCA5000208D500020CB50002033
:1030A0006C500020124BDB7803F020034BB1114A27
:1030B00013780133DBB2012B137012D9122005F003
:1030C000F5BE10B5122003F0FF0405F0EFFE0A4B29
:1030D0001B685BB109490A4A0C701078BDE81040C2
:1030E0001847084B1B78002BE8D0704710BD00BF75
:1030F00000600640B450002068500020C8500020F6
:10310000C95000208D5000200D4A0E4BF0B5002014
:103110000D4C10702268DFF838E00C4F42F040028E
:1031200022604FF4197128260325202480229870EC
:10313000CEF8001039605E709D715C719A70F0BDC0
:103140008D500020006006403480044008A00440F8
:103150000CA0044010B5384CE378DBB2D80623D578
:1031600010225906E2701ED503F0040303F0FF029B
:10317000002B33D0314B32491A68324C00230B708C
:103180002370002A3BD090472378002B37D02E4B5A
:103190001B78294A2D49D02494701371264B0120A5
:1031A00002220870DA7010BD5A06DDD4A27802F04F
:1031B000100202F0FF0042B313F001031BD12349B8
:1031C00020480A780078904281BF1F4B501C9B5CBE
:1031D00008702371184BD0229A7008E01C48164BD7
:1031E000174902700120C02208709A701B79124B97
:1031F0000222DA7010BDC023A3702379F7E71249C9
:10320000002301220B702270C3E7124B1249187081
:103210000322122005F0CAFD0D4923790A781F2ADE
:10322000DBB2E4D8064800780028E0D00B4C501CF4
:10323000A3540870DBE700BF00600640B0500020D8
:1032400064500020CB5000206C500020CC50002057
:10325000C9500020B4500020A5300000905000203C
:103260000548064A10B40123054C03704900137049
:10327000217010BC704700BFCA500020CB50002006
:103280006C5000202DE9F043594C1223E370A378D1
:1032900003F0200383B0002B55D0B423DFF86881FE
:1032A000A370D8F80030524D1C460020EA78D2B204
:1032B0009A421CBF1446012096061346F6D50028F4
:1032C00040F08C804B4B1B78002B33D003F1FF3E3A
:1032D0005FFA8EFE0026D8F80040474F444D0EF1AD
:1032E000010E30464FF0020C17F8013F2B715FFAC8
:1032F00086F902E013F0200F09D0EB78DBB293429D
:103300001CBF1C46012013F0020F1A46F2D085F8AC
:1033100003C0EA78D2B293421CBF14460120D30600
:1033200033D4930631D5D30744D401367645DBD167
:1033300000284AD1002000292ED1304B00221A70DB
:1033400003B0BDE8F0832E4DDFF8BC8003F0FF0230
:103350002B680093009ED8F8000005E02B680193CD
:10336000019B9B1B0F2B1BD8E378DBB2834218BF5A
:10337000012213F0200F1846F0D192BB21481C4BBC
:103380000024B02204709A708BE708BB184B80228F
:103390009A7004200029D0D0154B80229A70CCE777
:1033A000CAB9134B00218022042099709A7003B08F
:1033B000BDE8F083C0B90E4BB9F1000F4FF08002A9
:1033C0000CBF022003209A70B7E7C8F80040B1E7AD
:1033D000C8F80040DAE7C8F80000E2E7C8F80040A3
:1033E00070E7C8F80030C9E7C8F80040E3E700BF5D
:1033F00000600640CB5000206B500020CA500020D7
:10340000705100208D5000203CFAFF1F0548064AED
:1034100010B40123054C037049001370217010BCD7
:10342000704700BFCA500020CB5000206C500020D5
:103430000121FFF727BF00BF044B054A1A604FF474
:103440007A71002299601A711A737047B85000207F
:103450003C36010010B4047F4160022CC26002D0EF
:1034600010BC05F055B8836810BC1847F0B4464B43
:10347000464A186BDC6A01791170454922790A7055
:103480009A6A00790870002A46D05968C9688A4249
:103490003ED82168CC8B240402F1FF3065D4C0F300
:1034A0000E00C883C88B80B2C882196B0968C88BAC
:1034B000000452D4C2F30E00C883C88B002480B22B
:1034C00012F1FF32C88218BF01229C62D96A2E48CD
:1034D00009680D6800F12404A54236D00068C4686C
:1034E00014F0804F0C680D6815BF248824780235CD
:1034F000013544F000440D604463196B254B097994
:103500001970214912B1CA6A12791A70F0BC704759
:10351000521A9A620122D9E7586B196805681E4C45
:103520000A63CC62CC682D681C4E24F080440327CB
:10353000B542CC6083F825701FD1037F4260022B17
:10354000C2601ED0F0BC04F0E3BF016890F8240014
:10355000CC6840F000404863CFE7CC8BC2F3080052
:1035600004F47E442043C883A7E7CC8BC0F3080053
:1035700004F47E442043C88394E72B461146F0BCF4
:1035800018478368F0BC184740FAFF1F1F800040AF
:103590001C8000401B80004000000FFF55340000DD
:1035A00090E80C00F0B41C6859682568164F174E57
:1035B00029432160164D17491760D66015611160C7
:1035C000417A154A5C180A3194F8244053F8215086
:1035D00002EBC40149680D60017A5C1803EB8101BC
:1035E000247ECD6902EBC40149680D60817A5818C8
:1035F00003EB810390F83000596B02EBC002F0BC82
:1036000053681960704700BF01401F000110003867
:103610000110007800001F80E83C0100204A436848
:103620009A42F0B40FD0427A1A4492F82420914280
:1036300007D093F824408C4215D093F825408C4253
:103640002AD0F0BC70470B2907D00729EBD1154CC5
:10365000227842F001022270E5E7124C227822F033
:1036600001022270DFE7002421461E685D6836688B
:103670002E420FD00C4D05EBC202002756685A1897
:10368000376092F8242005EBC2050A316A6853F8C6
:10369000213013604472D4E701242146E5E700BFDE
:1036A000583601006F510020E83C0100204A436871
:1036B0009A42F0B40FD0827A1A4492F830209142A4
:1036C00007D093F830408C4215D093F831408C42AB
:1036D0002BD0F0BC70470D2907D00E29EBD1154C2B
:1036E000227842F004022270E5E7124C227822F0A0
:1036F00004022270DFE7002421461E685D683668F8
:103700002E4210D00C4D05EBC202002756685A1805
:10371000376092F830200C3105EBC20503EB8103D2
:103720006A685B6813608472D3E701242146E4E78A
:10373000583601006F510020E83C010038B590F97F
:103740000230002B044612DBA56805F1240001F0CD
:10375000FDF928B9637843F001036370002038BD98
:1037600005F50C7001F0F2F90028F3D038BD80683F
:10377000A1692430012201F0A3F90028EAD0A3882E
:1037800003F00F035B01C518E4D0C35CE52BE1D067
:1037900023780B4A1B0744BFE369EB61236A126875
:1037A0006B831B0CAB8232B105F1160105F11800D9
:1037B00090472B8B6B82A37803F07F03A370C3E742
:1037C000D45000202DE9F041037803F020032BB9F9
:1037D00003F0FF044269204B9A4203D90026304689
:1037E000BDE8F08183780169054663F07F03806856
:1037F000AB7005F1100201F01DFB06460028EDD06C
:103800002969A86801F0CAF90746A8683946243032
:10381000052201F055F980460028DFD04FF40072F0
:10382000214609F01BF9AB681A79012A0FD9012446
:1038300003E0AB681A79A24209D9E1191868424637
:1038400002F00CF80134E4B20028F2D1C6E76B694B
:1038500003EB42226A61C2E7FFFD1F0038B503781F
:1038600004461BB900232370012038BD90F90230B3
:10387000002B14DBA56805F1240001F067F938B9C5
:10388000637843F00103637000232370002038BD88
:1038900005F50C7001F05AF90028F1D0E2E78068D4
:1038A000A1692430012201F00BF90028E8D0A38897
:1038B00003F00F035B01C518E2D0C35CE52BDFD03A
:1038C00023780B4A1B0744BFE369EB61236A126844
:1038D0006B831B0CAB8232B105F1160105F11800A8
:1038E00090472B8B6B82A37803F07F03A370C1E713
:1038F000D45000202DE9F0470D7815F0700F88B0F6
:1039000003D1002008B0BDE8F087C32304460D466C
:1039100000F07EFE0028F4D05D4B62690126102184
:103920009A42A6702170ECD881236218A370216995
:10393000A06801F07FFA0028E3D02169A06801F0B7
:103940002DF90746A06839462430052201F0B8F861
:1039500080460028D5D04FF40072002109F07EF88F
:1039600008E0F1190068424601F078FF0136F6B22E
:103970000028C6D0A0680279B242F2D863692178E3
:103980002669266203EB42236361002974D1243047
:103990000122A16901F094F80028B2D0A68806F0AF
:1039A0000F0610EB4616ACD01023F372B2683068E5
:1039B0007168F368B6F81490B6F81AA06F460FC78E
:1039C00030697169B269F36908AE0FC74FF02E080C
:1039D0004FF02033216AA06806F8208DCDF805301D
:1039E000CDF80130ADF8093001F0D8F8A3680146F0
:1039F000012203F1240001F063F88646002880D0FC
:103A00003746ADF81490ADF81AA00FCFCEF80000ED
:103A1000CEF80410CEF80820CEF80C300FCFCEF838
:103A20001000CEF81410CEF81820CEF81C302B6AF7
:103A30008DF801801A0C3546ADF81A30ADF8142017
:103A40000FCD0EF12006CEF820007160B260F36059
:103A50000FCD30617161B261F361A46804F124009B
:103A600001F074F800283FF44CAF04F50C7008B076
:103A7000BDE8F04701F06AB813B100232361636128
:103A80002046FFF75BFE00283FF43BAFA0687EE7CF
:103A9000FFFD1F002DE9F041064692B034780192F7
:103AA00000208DF824008DF8250024B90D460978F2
:103AB00011F0700F03D1002012B0BDE8F081144660
:103AC00012782F2A2DD00DF1040803AF002B53D00C
:103AD00042463946204600F0F5FB3A462946012386
:103AE0000028E8D0019C24783046002C61D000F0FA
:103AF0008FFD3A46294620B93046FFF7FBFE0028E5
:103B0000D9D035460FCD09AC0FC40FCD0FC43378D3
:103B10002A682260002B48D100233370019C09AD34
:103B2000D6E70134019422782F2AFAD0AD680093A9
:103B3000242209A8002108F091FF0B95EA79009B47
:103B4000102A3ED0202AB6D140228DF8242001220E
:103B500009AD8DF826200DF1040803AF63B1B7E776
:103B60000FCD0FC40FCD0FC433782A682260C3B9BC
:103B70000023019C337009AD42463946204600F0CF
:103B8000A1FB3A4629460123002894D0019C2478C1
:103B9000304674B100F03CFD354609AC00288AD0AF
:103BA000DEE73046FFF7CAFDE2E73046FFF7C6FD25
:103BB000B2E73A4629463046FFF79CFE12B0BDE810
:103BC000F08120228DF82420C1E700BF2DE9F041CB
:103BD000064692B03478019200208DF824008DF8CA
:103BE00025002CB91F460B7813F0700F0D4603D13A
:103BF000002012B0BDE8F08113782F2B144624D199
:103C00000134019494F80080B8F12F0FF8D0B8F186
:103C1000000F45D0AD6809A82422002108F01EFF3E
:103C20000B95EB79102B37D0202BE1D140238DF869
:103C30002430012309AD8DF8263006E03046FFF729
:103C40007DFD0023019C337009AD01AA03A9204624
:103C500000F038FB03AA294601230028C8D0019CA4
:103C6000247830467CB100F0D3FC354609AC0028FE
:103C7000BED00FCD0FC40FCD0FC433782A68226099
:103C8000002BDED0DAE73B4603AA2946304600F097
:103C9000BFFC12B0BDE8F08120238DF82430C8E7C6
:103CA000AC6824224146304608F0D8FEB460E3797F
:103CB000102B06D0202B07D1402333700120B07089
:103CC00097E720233370F9E7404692E770B5047810
:103CD0000CB1002070BD05460E462422214608F096
:103CE000BDFEAE60F379102B09D0202B05D1012445
:103CF00040232B70AC70204670BD204670BD01245F
:103D000020232B70AC70204670BD00BF2DE9F04F12
:103D10000F46017883B0054611B18378DC0708D4DB
:103D20006B784FF0FF3043F002036B7003B0BDE8D7
:103D3000F08F0B07914600F18580880608D5AA68A8
:103D40006B691289C3EB42139BB2994528BF994610
:103D5000B9F1000F00F094806B698A064E464FF06F
:103D6000000805F1100AC3F3080B3DD5AA68116AD3
:103D700001EB5321BBF1000F50D1B6F5007F4DD3BD
:103D8000D36A99424AD0B6F5806F64D3287880060A
:103D9000C6F3472B06D41079C8EB0000C0B28345A8
:103DA00028BF834699424FEA4B240BD85B44994283
:103DB00008D202F12400019100F0C8FE0028AFD023
:103DC000AA68019910685B463A4601F023FC002876
:103DD000A6D06B69361B234427446B6150D02978E9
:103DE0008A06C3F3080BC1D4A86890F8058008EAD6
:103DF0005328BBF1000F2CD1B8F1000F29D1002BB3
:103E000033D14C064CBF016A296A296100F0C6FE15
:103E1000AA6808EB0001BBF1000FAED002F124004C
:103E2000002200F04DFE00283FF47AAFCBF500747D
:103E3000B44228BF344600EB0B012246384604F05A
:103E40008BFEC6E7EB696A699B1A994528BF9946BC
:103E50007EE72969DAE710683A4601F0C5FC0028D8
:103E60003FF45EAF4FF40074B3E75246296900F0A7
:103E70009BFE0028FFF654AF08D0A8682969C5E763
:103E80000026C6EB090003B0BDE8F08F2B7813F0D5
:103E9000700FF6D144E700BF70B582B001220DF17A
:103EA0000701044646690569FFF730FF012805BF91
:103EB0009DF8070066614FF0FF30256102B070BDCC
:103EC00030B54369C3F3431583B0044605B189B9DE
:103ED00001220DF107012046FFF718FF40B201282B
:103EE0000BD163691F336361A068303000EB45106C
:103EF00003B030BD20334361F6E7002003B030BD8E
:103F00002DE9F04103780769044693B142698A427A
:103F10000E4636D021B9216166610120BDE8F081ED
:103F200018070AD499060BD5A3681B89B6EB431F63
:103F3000F2D927610020BDE8F081E1698E42F8D80E
:103F4000D4F808E09EF80650511E05F10900751ED0
:103F5000C140C540A94200D8B2B95B064CBFDEF8EB
:103F60002030236A236104F110084246002DD3D08B
:103F70002169A06800F018FE002805F1FF35F4DC87
:103F8000D7E70120BDE8F0816D1AECE72DE9F0419B
:103F9000884615460021242204461E469DF81870C6
:103FA00008F05CFDD8F80800D8F82030E36005F090
:103FB0000F02520100F130011144A060A580CB7ABC
:103FC0001B0713D4831893F83B5005F01705257091
:103FD000CB7AE77013F0180F04BF45F00805257081
:103FE00016F0320F06D015F0110F03D0002020700C
:103FF000BDE8F08106F00F05A5700244C36AA36115
:10400000B2F84410B2F84A30F70643EA014107D447
:104010002162D36CE361B30607D40120BDE8F081CF
:1040200051B965F07F05A570F5E7E1692046FFF716
:1040300067FF0028F1D1D9E700F0CCFF0028D5D0E8
:10404000A578EEE738B50378B3B190F90230002BCC
:10405000044613DBA56805F1240000F077FD28B9BC
:10406000637843F001036370002038BD05F50C70E0
:1040700000F06CFD0028F3D0012038BD8068A169F4
:104080002430012200F01CFD0028E9D0A38803F0B1
:104090000F035B01C518E3D0C35CE52BE0D02378A8
:1040A0000E4A1B0744BFE369EB61236A12686B8306
:1040B0001B0CAB8232B105F1160105F118009047D7
:1040C0002B8B6B82A378A56803F07F03A37005F1A7
:1040D000240000F03BFD0028C2D0C7E7D4500020E8
:1040E0002DE9F84F03781E0704466ED583789D07A7
:1040F0006BD55B070F46904600F1CB806369DA43CE
:10410000904562D8B8F1000F00F0B48046464FF0F9
:10411000000932E0002940F08180216A002900F086
:104120008880216100F03AFD0146B6F5007F54D346
:10413000B6F5806F65D3A2681379D06A5B1BDBB2DA
:10414000C6F34725AB4228BF2B4681424FEA4325A1
:1041500008D81844814205D282F824904FF0FF30ED
:10416000D062A26810683A4601F006FC68B3636941
:10417000761B2B442F4463617CD0A068216945796C
:1041800015EA5325C3F3080A34D1BAF1000FC1D0A0
:1041900000F004FD0146CAF50075B54228BF35465A
:1041A0000122A068243000F08BFC70B150442A46F4
:1041B0003946AA4404F0D0FCBAF5007FD7D1A068F4
:1041C000243000F0C3FC0028D1D1637843F0010310
:1041D00063704FF0FF30BDE8F88F6369E269B6F5B0
:1041E000007F354628BF4FF40075934234BF01224B
:1041F0000522D6E700F0D2FC2918BAF1000F94D0BE
:10420000C9E7A368DA6A914221D018683A4601F0FA
:1042100025FB0028D9D04FF40075A8E704F1100B56
:104220005A4600F0C1FC0028CFDB17D0A0682169F6
:1042300078E7A37863F07F03A37004F1100200F025
:10424000F9FD0028C1D021692162A0686AE783F8DE
:1042500024904FF0FF32DA62A368D6E7A378216991
:10426000A06863F07F035A46A37000F0E3FD0028C6
:10427000DCD1AAE7E2699A4212D2A278E36142F065
:104280008003A3701A0701D523788BB94046BDE897
:10429000F88FE169FFF734FE00287FF42FAF94E731
:1042A000074B1B6853B1A37843F08003A370E9E781
:1042B0002046FFF743FA0028E8D186E7A378E1E734
:1042C000D45000202DE9F04F0378202B03D110F8B3
:1042D000013F202BFBD088600378002B00F0038186
:1042E0002F2B2FD05C2B22D0A3F12204E4B21D2C63
:1042F00020D9DFF810E2461C00247C2BA3F1200516
:10430000374614D05E2D12D816F8013BA3F12205D2
:10431000EDB20134002B00F0CF802F2B13D05C2B9B
:104320002EFA05F703D01D2DE7D8FF07E5D50020AD
:10433000BDE8F08F734D25FA04F4E407D9D50020C9
:10434000BDE8F08F0024061933461F4613F8015BC1
:10435000202DFAD02F2DF8D017604CB1324612F82C
:10436000013D2E2B02D0202B40F0A980013CF6D13C
:104370004FF0FF35234601F10D024FF020374B601F
:10438000C1F80D70461E5760C2F80770002200E0A9
:10439000013216F8013F2E2BFAD0202BF8D0B2FABA
:1043A00082FC6E1C4FEA5C1C0CD0475D2E2F00EB8C
:1043B000050604D106E016F8017D2E2F02D015F176
:1043C000FF35F8D2A2424FF0000980F291804E46AC
:1043D000CA4607274FF0080825E02E2B47D0222B8E
:1043E0000BD07C2B09D0A3F12A0EBEF1050F48D9C2
:1043F000A3F13A0EBEF1050F58D8954239D0B74215
:1044000029D34FF0000C5F2306F1010E01EB060BE0
:104410005FFA8EF6062E8BF80D3000D80E7301323F
:10442000A24207DA835C202BD7D10132A2424FF09F
:10443000000CF7DB4B7B202B3FF479AFBCF1000F76
:1044400047D01AEA090F18BF4FF0020981F800900F
:104450000120BDE8F08F0A2F37D0954235DB2A4680
:104460000A2708264FF010084FF0000CD7E79542B6
:10447000DBD10A2F29D02A460A2708264FF0100838
:10448000CDE72D2BB9D1A3F1210EBEF15D0FB4D82C
:104490009542EED0B742DED3A3F1610EBEF1190F03
:1044A00028D8203BDBB248EA0909ADE7A3F15B0E4F
:1044B000BEF1020FA1D9E6E7176006194EE7FF2CFF
:1044C0003FF735AF651E234655E74B7B202B3FF466
:1044D0002EAF0B7B0B4401207E24312208705C73CD
:1044E0009A73BDE8F08F10601C464FF0FF3542E72D
:1044F000CA469FE7A3F1410EBEF1190F98BF48EAE3
:104500000A0A81E7010100352DE9F8430D7B0E46CB
:10451000044602274FF07E087068B1683B189BB2D2
:1045200040B1084411F8012B03EB43135340884278
:104530009BB2F7D1032D03F00F0228BF0325291DDD
:10454000092A8CBF02F1370002F13000C9B2EA1C1F
:104550003144D2B2954248734FEA23134CD203F050
:104560000F0109298CBF01F1370001F13000B118AA
:10457000AA1CD2B2954248734FEA23133DD203F0EE
:104580000F0109298CBF01F1370001F13000B1188A
:104590006A1CD2B2954248734FEA23132DD2DBB284
:1045A000092B8CBF373330333244DBB22946537387
:1045B00073182046002183F80D80FFF7A1FC06F157
:1045C0000D0901212046FFF77BFC0B220346014623
:1045D000A8B193F800E04846BEF1000F15D0DB7A91
:1045E0001B07EED408F0A4F90028EAD10137BFB2C6
:1045F000642F91D1BDE8F88303252946D8E7607878
:10460000B0FA80F04009BDE8F8830120BDE8F883E6
:104610002DE9F04F0C7814F0700F8BB001D00478B6
:104620001CB100200BB0BDE8F08F1478D2F804B0B4
:10463000A4073DD14FF001090E4692460990002192
:1046400030460F460893FFF75BFC0AF10D0307970E
:1046500003973C46B8460697059375690121304695
:10466000C5F34F15FFF72CFC002800F09E8003785F
:10467000E52B36D0002B34D04C4538BF00242E2BF0
:104680002CD0C27A0F2A3AD0120727D4B8F1000FE3
:1046900040F0A8810B22059908F04AF90028DCD1E6
:1046A0009AF80030DB0740F1EB8101230693D4E751
:1046B0009C4D0BF10C04A5FB04494FEA990909F143
:1046C00001095FFA89F9B7E7039A013AD2B2934236
:1046D000039203D1437B079A9A421BD04FF0000804
:1046E000BBE7002C08BF2F464C453CBF0134E4B269
:1046F000002B5ED0E52BC2D14FF00008ADE7B8F13A
:10470000000FE1D15906A8D503F01F08437BCDF86F
:104710000C800793039B013B03EB430503EB8505EB
:10472000AB45DBD9C5EB0B0C0023049018E0DAF89D
:104730000800D2B2A2F1410E415CBEF1190F98BF40
:104740002032A1F1410E98BFD2B2BEF1190F9CBF29
:104750002031C9B29142C1D101330D2B3FF47DAF5D
:10476000DAB2042A03EB05010DD90A2A17D90498F5
:104770005A1C00EB4202928863450BD0FF2AD6D91F
:104780004FF0000869E7049A02EB43026345B2F870
:104790000120F3D1002A18BF4FF000085DE704980C
:1047A0005A1E00EB4202D288E6E77378002B7FF4B2
:1047B00038AF089B03F04203422B7FF432AF002C4A
:1047C00018BF3D464C4503D31AE0DCB2A14517D9CA
:1047D00000213046FFF774FB631C0028F5D1737885
:1047E00023B11EE7B3681B79012B09D8A14507D96E
:1047F0003046FEF7E7FF1034E4B20028F2D110E7AC
:10480000069B33B151463046FFF77EFE00283FF449
:1048100008AF69013046FFF773FB00283FF401AF92
:1048200009F1FF3818F0FF0800F0A78048F04003B6
:10483000DBB203934446002500213046FFF740FBDE
:1048400000283FF4EEAEB168039B91F82420A04508
:1048500042F0010218BF23460F2781F8242003707D
:104860000573C7729AF80D709AF80E107A0842EA2A
:10487000C7120A44D2B29AF80F70510841EAC21224
:1048800057FA82F2D2B29AF81070510841EAC21275
:1048900057FA82F2D2B29AF81170510841EAC21264
:1048A00057FA82F2D2B29AF81270510841EAC21253
:1048B00057FA82F2D2B29AF81370510841EAC21242
:1048C00057FA82F2D2B29AF81470510841EAC21231
:1048D00057FA82F2D2B29AF81570510841EAC21220
:1048E00057FA82F2D2B29AF81670510841EAC2120F
:1048F00057FA82F2D2B29AF817708576510841EAD7
:10490000C21257FA82F203F01F03013B4273DAF836
:104910000810C57603EB430203EB820201EB0209A8
:10492000002312E04FECC44E042B19F8031000EBE7
:10493000430EDFB215D90A2F00F2AE80AEF8041094
:1049400001330D2B02F1010212D09345ECD814BFB4
:104950004FF0FF310021042B89B200EB430EDFB290
:10496000E9D801330D2BAEF8011002F10102ECD1B0
:10497000013C14F0FF047FF45FAF002130467569FD
:10498000FFF79EFAC5F34F15044600283FF449AEE1
:104990002022002108F062F85346484953F80D2FB1
:1049A0005868606022601A899B7AA37222819AF803
:1049B00000200B6802F018022273002B71D004F162
:1049C0000E0104F110009847238AE189B2686382DE
:1049D0002383E18292F8243043F0010382F82430EB
:1049E000089B51E0039B012B7FF41BAE01784378B9
:1049F000447ACA0142EA51021344DBB2DA018178F7
:104A000042EA530351FA83F3DBB2DA01C17842EA96
:104A1000530351FA83F3DBB25A08017942EAC31314
:104A200051FA83F3DBB25A08417942EAC31351FACF
:104A300083F3DBB25A08817942EAC31351FA83F354
:104A4000DBB25A08C17942EAC31351FA83F3DBB2ED
:104A50005A08017A42EAC31351FA83F3DBB25A08C7
:104A600042EAC31354FA83F3DBB25A08817A42EA6A
:104A7000C31351FA83F3079ADBB29A427FF4D1ADA4
:104A8000089B1F063FF5CDADCDF800802A46314684
:104A90000998FFF77BFAC5E5013300EB4307B980BE
:104AA0004FE721212822A37308232174E373627442
:104AB0004FF4006142F6210388E700BFD450002084
:104AC000F8B50F468168B942054614460ED0037802
:104AD000D80714D4630705F10C0620D5002304F091
:104AE00003041C432C70AF603046F8BD064604F04A
:104AF000030416F90C3B1C432C703046F8BD6B6860
:104B000005F10C061868324600F0A8FE78B12B7843
:104B10009A070ED423F001032B706307DED46B6871
:104B200032461868394600F05FFE0028D6D10020D2
:104B3000F8BD6B68A9681A6918681144324600F01C
:104B40008DFE0028F3D02B78E4E700BFF8B503789A
:104B5000D90702D401252846F8BD04464368816878
:104B6000186804F10C06324600F078FE054690B154
:104B700023789A0704D423F0010323702846F8BD54
:104B80006368A768196918683246394400F066FE00
:104B900008B12378EFE700252846F8BD83794069FE
:104BA00002399940084470472DE9F041C379202B20
:104BB00004460D46174643D0102B27D18369D0F801
:104BC0003812C5F307261E448E4290F8303221D0A9
:104BD000D80722D404F50F78D4F834324246186846
:104BE000314600F001FE88B1C4F838620223EDB20C
:104BF00004EB450584F83032B5F83C32E269934263
:104C00009ABF01203B600020BDE8F0814FF0FF30EB
:104C1000BDE8F08143F00203E9E7D4F8343204F54B
:104C20000F781868424600F019FE0028EED094F87C
:104C300030329A073ED423F0010384F83032CBE7B8
:104C40008669D0F8381290F8303206EBD5168E42CD
:104C50001AD0D8071BD404F50F78D4F83432424662
:104C60001868314600F0C0FD0028CFD0C4F8386283
:104C7000022305F07F0504EB850584F83032D5F872
:104C80003C3223F07043B9E743F00203F1E7D4F874
:104C9000343204F50F781868424600F0DFFD002832
:104CA000B4D094F830329A0713D423F0010384F877
:104CB0003032D2E7D4F83432D4F83822196918687F
:104CC0001144424600F0CAFD00289FD094F83032CB
:104CD000B1E7D4F83432D4F838221969186811448D
:104CE000424600F0BBFD002890D094F83032DCE75B
:104CF0002DE9F041C379202B04460D46174628D0F4
:104D0000102B02D00020BDE8F0818369D0F8381262
:104D1000C5F307261E448E4290F830323DD0D807A6
:104D200041D404F50F78D4F834324246186831463D
:104D300000F05AFD0028E5D0C4F838620323EDB234
:104D400004EB450584F83032A5F83C720120BDE83B
:104D5000F0818669D0F8381290F8303206EBD5161B
:104D6000B1421DD0D80731D404F50F78D4F83432CD
:104D700042461868314600F037FD0028C2D0C4F81A
:104D80003862032305F07F0504EB850584F8303293
:104D9000C5F83C720120BDE8F08143F00303CEE783
:104DA00043F00303EEE7D4F8343204F50F781868C3
:104DB000424600F053FD0028A4D094F830329A0700
:104DC00017D423F0010384F83032ACE7D4F834323E
:104DD00004F50F781868424600F040FD002891D095
:104DE00094F830329A0714D423F0010384F8303257
:104DF000BCE7D4F83432D4F8382219691868114461
:104E0000424600F02BFD00283FF47CAF94F830328E
:104E1000D7E7D4F83432D4F8382219691868114425
:104E2000424600F01BFD00283FF46CAF94F830328E
:104E3000DAE700BF2DE9F047044690460F46002907
:104E400040F08380C668E36935461FE094F830324D
:104E5000D8073DD404F50F7AD4F834325246186896
:104E6000494600F0C1FC78B3E369C4F838920221E6
:104E7000EAB204EB420284F83012B2F83C229A42C1
:104E800002D8002A00F09480B5421DD0E2790135A5
:104E90009D4288BF0225202A2DD0102A14D1A26954
:104EA000D4F83812C5F3072991448945CED194F836
:104EB000301241F00201DBE7394620462A46FFF76F
:104EC00017FF002840F0818000263046BDE8F087BB
:104ED000D4F8343204F50F7A1868524600F0BEFC5C
:104EE0000028F1D094F830329A0743D423F001031C
:104EF00084F83032B0E7A269D4F8381202EBD51941
:104F000049451DD094F83032D80720D404F50F7AE3
:104F1000D4F8343252461868494600F065FC00283F
:104F2000D2D0E369C4F83892022105F07F0204EB85
:104F3000820284F83012D2F83C2222F070429EE7BE
:104F400094F8301241F00201EFE70E467BE7D4F807
:104F5000343204F50F7A1868524600F07FFC0028BE
:104F6000B2D094F830329A0713D423F0010384F8B6
:104F70003032CDE7D4F83432D4F8382219691868C1
:104F80001144524600F06AFC00289DD094F830325B
:104F9000ACE7D4F83432D4F83822196918681144CF
:104FA000524600F05BFC00288ED094F83032DCE7EB
:104FB0006FF0704229462046FFF79AFE0646002809
:104FC00082D0002F7FF478AFE560C8F800503046FB
:104FD000BDE8F0872DE9F04704460D460027E37948
:104FE000202B74D0102B2AD1A269D4F83812C5F323
:104FF000072616448E4225D094F83032D80752D472
:1050000004F50F79D4F834324A461868314600F076
:10501000EBFBA0B1E379C4F838620221EAB204EBF9
:10502000420284F83012B2F83C22E169914226BF74
:10503000904601260026202B6ED0102B07D0002092
:10504000BDE8F08794F8301241F00201E6E7A36969
:10505000D4F83812C5F30729994489457FD094F8CC
:105060003032D80700F18A8004F50F7AD4F8343250
:1050700052461868494600F0B7FB0028DFD0C4F854
:1050800038920322EBB204EB430384F83022A3F8F6
:105090003C72E3689D4200D2E5604546002E9ED1F9
:1050A0000120BDE8F087D4F8343204F50F79186890
:1050B0004A4600F0D3FB0028C1D094F830329A075A
:1050C00000F1988023F0010384F830329AE7A66952
:1050D000D4F8381206EBD516B14245D094F83032E8
:1050E000D8075FD404F50F79D4F834324A461868EB
:1050F000314600F079FB0028A1D0E379C4F838628A
:10510000022105F07F0204EB820284F83012D2F80B
:105110003C2222F0704288E7A369D4F8381203EBEE
:10512000D519894525D094F83032D8074ED404F5E6
:105130000F7AD4F8343252461868494600F054FBCE
:1051400000283FF47CAFC4F83892032205F07F03B7
:1051500004EB830384F83022C3F83C7299E794F897
:10516000302242F003028DE794F8301241F0020140
:10517000C7E794F8302242F00302E7E7D4F834326C
:1051800004F50F7A1868524600F068FB00283FF4D7
:1051900056AF94F830329A073CD423F0010384F8D8
:1051A000303263E7D4F8343204F50F7918684A4690
:1051B00000F054FB00283FF442AF94F830329A07D5
:1051C00038D423F0010384F830328DE7D4F8343238
:1051D00004F50F7A1868524600F040FB00283FF4AF
:1051E0002EAF94F830329A0734D423F0010384F8B8
:1051F00030329EE7D4F83432D4F83822196918686E
:1052000011444A4600F02AFB00283FF418AF94F8F6
:10521000303257E7D4F83432D4F838221969186894
:105220001144524600F01AFB00283FF408AF94F8EE
:105230003032B2E7D4F83432D4F838221969186819
:1052400011444A4600F00AFB00283FF4F8AE94F8F7
:105250003032B6E7D4F83432D4F8382219691868F5
:105260001144524600F0FAFA00283FF4E8AE94F8F0
:105270003032BAE7F8B5012200254FF0FF3304467B
:105280008062C0F83402C260C57180F8245080F892
:105290003052C362C0F838320E4600294ED004297D
:1052A00001D90020F8BD00F130073A4629460068D0
:1052B00000F09AFA0028F4D004EB061384F8245086
:1052C000E56293F8DE315B06EBD104EB0616D6F807
:1052D000E661002EE5D0A36A18683A46314600F030
:1052E00083FA0028DDD0B4F83B20E6620023B2F553
:1052F000007F84F82430D4D194F840100229D0D112
:10530000E58F002DCDD094F83D20A371571E012AC2
:105310002271677149D0022A49D0042A13D0082A81
:1053200047D0102A47D0202A47D0402A47D0802A89
:1053300008D008213AB10823A371B2E700F1300781
:105340000346C9E70721A171B4F8467007B9676D34
:10535000B4F841E0276135444FEA4E1205EB4707A8
:1053600002F2FF12B4F84330A56107EB6222276214
:10537000A4F808E0626103B9236DB61A334423FA36
:1053800001F140F6F4734A1C9942E26109D94FF6E3
:10539000F473994285BFE36D236210232023E371E8
:1053A000F8BD0C23E3710020F8BD1946CCE70121BC
:1053B000C9E70321C7E70421C5E70521C3E70621A3
:1053C000C1E700BFF0B5057A85B004460F460192EB
:1053D0004DB9406800F080FB63682946187903F0F6
:1053E000B9FE01232372204E33680393039DADB2AF
:1053F00007E033680293029B9BB25B1BB3F5167FF9
:1054000004DC606800F0D6FBFF28F2D147F04001D1
:10541000606800F049FC01AE02AD15F8011D60683E
:1054200000F042FCB542F8D1A7B18721606800F0D6
:105430003BFC0C2F13D00025606800F0BBFB03067B
:10544000607201D405B0F0BD0135B5F5807FF3D1B0
:1054500005B0F0BD9521606800F026FCEBE76068C0
:1054600000F0A8FBE7E700BF705100202DE9F041F4
:105470000024664E0470054684B03768416000978A
:1054800008462C72AC7211469846009F00F062FBF1
:1054900068682C7A5E4B0360002C56D0007901219D
:1054A00003F058FE0A24FF21686800F0FDFB611E2E
:1054B00011F0FF04F7D16B682146187903F04AFE1A
:1054C000BCB207E033680193019B9BB21B1BB3F591
:1054D000FA6F25DC002211462846FFF773FF0128EA
:1054E000F0D14FF4D57208212846FFF76BFF05284D
:1054F00036D00424686800F05DFB631E13F0FF04DF
:105500006872F7D1AA285ED033680293029ABBB2C0
:1055100092B2D31AB3F5FA6FE3DD25232B7001E0C5
:1055200020232B70287A68B16B680121187903F069
:1055300011FEFF21686800F0B7FB686800F01CFBF3
:105540000020287204B0BDE8F08100F0C5FA6B6855
:105550002146187903F0FEFD012368682B729DE750
:105560000123AB72002407E033680393039B9BB2D3
:105570009B1AB3F5FA6F2BDC002237212846FFF780
:1055800021FF224629212846FFF71CFFBAB2002836
:10559000EAD1AB7A022B1ED02B7A6BB16B6801215A
:1055A000187903F0D7FDFF21686800F07DFB68687B
:1055B00000F0E2FA00232B726B680120C3F8008030
:1055C00004B0BDE8F0810223AB724FF08044D3E712
:1055D00043232B70A6E702463A212846FFF7F2FE46
:1055E00010B137232B709DE7686800F0E3FA00F0F4
:1055F000C000C02804BF0323AB7203246868013CC9
:1056000000F0D8FA14F0FF04F8D1C5E7705100207B
:10561000065001382DE9F0430446807A032818BF6C
:10562000490283B0904620460A4612219946FFF768
:10563000C9FE40B1237A312222701BBB00252846C7
:1056400003B0BDE8F083B9F1000F44D03A4E0746ED
:1056500033680193019DADB207E033680093009B6E
:105660009BB25B1BB3F5967F1BDC606800F0A2FA6F
:10567000FF286072F1D0FE2816D050232370237AC1
:10568000002BDBD063680121187903F063FDFF2153
:10569000606800F009FB606800F06EFA0023237276
:1056A000CCE754232370EAE74FF400724146606868
:1056B00000F096FA607210B160232370DFE7606833
:1056C000013700F077FABFB2606800F073FA4F4517
:1056D00008F50078BCD300220C212046FFF772FEAB
:1056E000064698B1237A28222270002BA6D0636840
:1056F0000121187903F02EFDFF21606800F0D4FA33
:105700000025606800F038FA257298E7257A25B9F7
:105710000125284603B0BDE8F083636801211879AC
:1057200003F018FDFF21606800F0BEFA606800F029
:1057300023FA267283E700BF705100202DE9F04163
:10574000284D82B02B680093009C80460E46174679
:10575000A4B207E02B680193019B9BB21B1BB3F51E
:10576000967F24DCD8F8040000F024FAFF2888F89B
:105770000900EFD0FE281ED0502388F8003098F89A
:10578000080088B1D8F804300121187903F0E2FC50
:10579000FF21D8F8040000F087FAD8F8040000F0E0
:1057A000EBF9002088F8080002B0BDE8F08154232E
:1057B00088F80030E3E73A463146D8F8040000F0B4
:1057C0000FFA88F8090018B1602388F80030D6E78E
:1057D000D8F8040000F0EEF9D8F8040000F0EAF977
:1057E0000120E1E77051002070B5837A032B18BFC8
:1057F000490216460A4611210446FFF7E3FD054615
:1058000090B130232370207A68B163680121187940
:1058100003F0A0FCFF21606800F046FA606800F029
:10582000ABF90020207270BD31464FF40072204663
:10583000FFF784FF0028E6D0267A002EF3D06368B5
:105840000121187903F086FCFF21606800F02CFA32
:10585000606800F091F92572304670BDF0B5837A2A
:10586000032B18BF490283B016460A461821044686
:10587000FFF7A8FD0546A8B132232370237A002B39
:105880003BD063680121187903F064FCFF21606854
:1058900000F00AFA606800F06FF9002528462572CA
:1058A00003B0F0BDFE21606800F0FEF94FF4007215
:1058B0003146606800F008FAFF21606800F0F4F9F2
:1058C000FF21606800F0F0F9606800F073F900F003
:1058D0001F03052B607214D0237A5622227063B105
:1058E00063680121187903F035FCFF21606800F03E
:1058F000DBF9606800F040F925720025284603B006
:10590000F0BD1C4F3B680193019DADB207E03B68C1
:105910000093009B9BB25B1BB3F5167F0EDC6068A7
:1059200000F048F9FF280646F1D100220D2120465B
:10593000FFF748FD28B1292323709FE759232370DF
:105940009CE7606800F036F907460028F3D1257A15
:105950000DB90125D2E763680121187903F0FAFB3C
:105960003146606800F0A0F9606800F005F9277220
:10597000C4E700BF705100202DE9F0470446807A4B
:10598000032818BF490284B0904620460A461921D0
:105990009946FFF717FDE0B1237A332222704BB905
:1059A0000025284604B0BDE8F087237A59222270EA
:1059B000002BF5D063680121187903F0CBFBFF21A0
:1059C000606800F071F9606800F0D6F80023237277
:1059D000E6E7404E0746B9F1000F3DD0336801932A
:1059E000019DADB207E033680093009B9BB25B1B47
:1059F000B3F5167FD9DC606800F0DCF8FF2882463A
:105A0000F1D1FC21606800F04FF94FF4007241467B
:105A1000606800F059F95146606800F045F9514658
:105A2000606800F041F9606800F0C4F800F01F03FE
:105A3000052B60720BD0237A56222270002BAFD038
:105A400063680121187903F085FB5146B8E70137F7
:105A5000B94508F50078C1D133680393039DADB211
:105A600007E033680293029B9BB25B1BB3F5167F82
:105A70000DDC606800F09EF8FF280746F1D1FD219B
:105A8000606800F011F9257AADB9012589E7237A1C
:105A900055222270002B83D063680121187903F00E
:105AA00059FBFF21606800F0FFF80025606800F0F6
:105AB00063F8257275E763680121187903F04AFBE2
:105AC0003946606800F0F0F8606800F055F800238F
:105AD000237266E77051002030B4184B0268D97AFF
