:100000000C9468000C94571A0C94301A0C949000BD
:100010000C9490000C9490000C9447090C94900060
:100020000C9490000C9473100C9490000C9490001D
:100030000C9490000C9490000C9490000C94900000
:100040000C941E230C9490000C940A1B0C94E41A3C
:100050000C9490000C9490000C9490000C949000E0
:100060000C943C1B0C9490006364696E6F70737504
:1000700078585B0000000000240027002A000000E0
:100080000000250028002B000000000023002600AF
:10009000290004040404040404040202020202020B
:1000A000030303030303010204081020408001023C
:1000B00004081020010204081020000000080002BB
:1000C0000100000304070000000000000000072EEC
:1000D00011241FBECFEFD8E0DEBFCDBF12E0A0E0FD
:1000E000B1E0E0E4F1E702C005900D92A839B10754
:1000F000D9F726E0A8E9B2E001C01D92A93FB207F6
:10010000E1F710E0C8E6D0E004C02197FE010E94AC
:100110005F32C736D107C9F70E9468230C949E3816
:100120000C940000E09113014091140120911501FD
:1001300030E02C5E3F4F322F2227330FF0E24F9FEB
:10014000A00111244E2B242B352BFC01318320835D
:100150002091C5024091C6028091120190E0982F33
:100160008827990F990F990FF0E24F9FA001112452
:10017000842B952B30E035952795822B932BFB0113
:10018000918380830895FC01848583FF0DC084A141
:1001900095A1A6A1B7A1448D558D668D778D841B41
:1001A000950BA60BB70B03C080E090E0DC01811536
:1001B00020E89207A105B10520F08FEF9FE7A0E0AE
:1001C000B0E00895089580E090E00895609198026D
:1001D00081E06827609398028091B402882319F027
:1001E00081E10E94622280919B0290919C02019683
:1001F00090939C0280939B0208950C960C94F11DA1
:10020000CF93DF931F92CDB7DEB7698341E050E013
:10021000BE016F5F7F4F0C960E94F11D0F90DF9122
:10022000CF910895CF93DF93FC012381222361F0C6
:10023000EC010180F281E02D61E082810E94622266
:100240008FEF0E9404111B82DF91CF910895EF92EE
:10025000FF921F93CF93DF9300D000D0CDB7DEB7CE
:100260007C01162F29833A834B835C83FC018381B5
:10027000811103C0C7010E94F0100E94FD1C812F54
:1002800080640E9404118C810E9404118B810E9461
:1002900004118A810E94041189810E940411112392
:1002A00011F087E801C085E90E9404111C3011F4A7
:1002B0000E94091110E00E940911F701848387FF51
:1002C00004C01F3F11F01F5FF6CF0F900F900F90EB
:1002D0000F90DF91CF911F91FF90EF9008952FB76E
:1002E000F8948091EE069091EF06A091F006B091FF
:1002F000F1062FBF0895EF92FF920F931F93CF93B4
:10030000DF93EC0189018D81833039F089E0440F5E
:10031000551F661F771F8A95D1F79A01AB0161E1DE
:10032000CE010E942701882319F080E3888338C01A
:100330000E946F017C010E9409118C838F3F49F458
:100340000E946F018E199F098D329140A0F384E5C0
:1003500003C08E3F31F080E58883CE010E941201F8
:100360001FC08FEF8EBDF801D801A150BE4F9FEF87
:100370000DB407FEFDCF8EB59EBD8193AE17BF07AE
:10038000B9F70DB407FEFDCF8EB58C931C820E9489
:1003900009110E940911CE010E94120181E004C0DE
:1003A000CE010E94120180E0DF91CF911F910F9149
:1003B000FF90EF900895EF92FF921F93CF93DF93FA
:1003C000FC01208120FF32C0EC017C01F7E0EF0E40
:1003D000F11C4B815C816D817E81E981FA819701FD
:1003E000808191810E941011182F811102C010E0AC
:1003F0001EC0888181FD04C088818E7F888317C0DC
:10040000E981FA814B815C816D817E81848595854E
:10041000A685B785480F591F6A1F7B1F97018081EA
:1004200091810E9410118111E7CFE1CF11E0812F5E
:10043000DF91CF911F91FF90EF900895CF92DF92BF
:10044000EF92FF921F93CF93DF93EC016A017B0140
:10045000122F8B819C81AD81BE8184179507A607E1
:10046000B707F1F0CE010E94DB01811103C080E0EB
:1004700090E01CC012FF06C01882CB82DC82ED82A5
:10048000FE820EC0E981FA819E01295F3F4FB701CC
:10049000A601808191810E947B018111EDCFE7CF80
:1004A00013708881182B1883CE010796DF91CF91A6
:1004B0001F91FF90EF90DF90CF9008958F929F92C1
:1004C000AF92BF92CF92DF92EF92FF920F931F9362
:1004D0006A017B0148015901FC012581203251F557
:1004E000448955896689778997018601E7E03695C1
:1004F000279517950795EA95D1F7400F511F621F71
:10050000731F23E080960E941E02009711F480E082
:100510002DC0E894C7F8DD24EE24FF24CC0CDD1CAC
:10052000CC0CDD1CFC01EC0DFD1D80829182A282B1
:10053000B3821BC0203159F7FC0144895589668973
:1005400077894D0D511D611D711D23E080960E941C
:100550001E020097E1F2DD24EE24FF24CC0CDD1C0A
:10056000FC01EC0DFD1D9182808281E01F910F91B5
:10057000FF90EF90DF90CF90BF90AF909F908F90C3
:100580000895CF92DF92EF92FF920F931F93CF9334
:10059000DF93EC016A017B0189018D81803251F585
:1005A0008C899D89AE89BF89E7E0769567955795D7
:1005B0004795EA95D1F7480F591F6A1F7B1F22E024
:1005C000CE0180960E941E02009711F48FEF40C06A
:1005D000E894C7F8DD24EE24FF24CC0CDD1CCC0C01
:1005E000DD1CFC01EC0DFD1D80819181A281B38198
:1005F000BF701DC0803151F74C895D896E897F893C
:100600004D0D511D611D711D22E0CE0180960E948D
:100610001E020097D9F2DD24EE24FF24CC0CDD1C51
:10062000FC01EC0DFD1D80819181A0E0B0E0488DC2
:10063000598D6A8D7B8D481759076A077B0738F0FB
:10064000F80180839183A283B38381E001C080E0BD
:10065000DF91CF911F910F91FF90EF90DF90CF909E
:1006600008956115710579F0FB0101900020E9F70B
:100670003197AF01461B570BDC01ED91FC910280D5
:10068000F381E02D099480E090E008950F931F938B
:10069000CF93DF93FC012081211102C081E058C07B
:1006A000EC01828187FF4BC044895589668977892F
:1006B0008681978121E080960E941E02009729F48E
:1006C00089818160898380E043C00C811D810F7026
:1006D000112725E0000F111F2A95E1F7080F191FB8
:1006E0000115110569F3F8018081853E49F3888180
:1006F00083FF08C0888D998DAA8DBB8D848F958FBF
:10070000A68FB78F8C8D9D8DAE8DBF8DF801938F89
:10071000828FB58BA48BE0919A03F0919B03309765
:1007200059F0B8016A5E7F4FC80148960995F801F3
:10073000808D918D938B828B8A818F778A838E8136
:100740009F8180960E94DB01882309F4B9CFA6CF50
:10075000DF91CF911F910F9108950C960C94460351
:100760004F925F926F927F928F929F92AF92BF92C1
:10077000CF92DF92EF92FF920F931F93CF93DF936D
:10078000EC014A015B014C845D846E847F84A88106
:10079000AA2309F491C0488959896A897B89481537
:1007A00059056A057B0509F48DC081149104A104E3
:1007B000B10429F41C861D861E861F8678C0A3FFFF
:1007C0000BC0088D198D2A8D3B8D081519052A053A
:1007D0003B0508F471C014C0A5FF12C0EE81FF8173
:1007E0008681978125E0880F991F2A95E1F7A0E07F
:1007F000B0E088159905AA05BB0508F45DC057C08F
:10080000EE81FF81848190E009968A019B0101506D
:10081000110921093109082E04C03695279517952D
:1008200007950A94D2F775016401B1E0CB1AD1089B
:10083000E108F10804C0F694E794D794C7948A9528
:10084000D2F7C016D106E206F30620F0452B462B60
:10085000472B99F4A6FF05C0848D958DA68DB78D85
:1008600004C08C8D9D8DAE8DBF8D8C879D87AE878E
:10087000BF878E01045F1F4F15C0C01AD10AE20A5C
:10088000F30AF7CF4C855D856E857F8598018E8153
:100890009F810E94C10291E0C91AD108E108F108C4
:1008A000181654F4C114D104E104F10459F7888AEC
:1008B000998AAA8ABB8A06C04C865D866E867F8628
:1008C00080E001C081E0DF91CF911F910F91FF90F7
:1008D000EF90DF90CF90BF90AF909F908F907F90E0
:1008E0006F905F904F900895FF920F931F93CF9357
:1008F000DF931F92CDB7DEB78C01FC01808991890F
:10090000A289B3899C01AD0175E05695479537954D
:1009100027957A95D1F7F22FFF70FF2E11F0611114
:1009200014C0BE016F5F7F4FC8010E94131D81304C
:1009300019F080E090E01AC0F80180899189A289BD
:10094000B3894F96A11DB11D04C08096A11DB11D94
:10095000F801808B918BA28BB38BF80186819781F4
:100960008796F0E2FF9E800D911D11240F90DF917C
:10097000CF911F910F91FF900895FC01808181110B
:1009800014C080E2DF01982F1D929A95E9F77783D2
:100990006683DB0115969C91903119F0903229F411
:1009A00080E4808381E08283089580E00895CF937E
:1009B000DF93EC010E9446031882DF91CF910895E6
:1009C0003F924F925F926F927F928F929F92AF92DF
:1009D000BF92CF92DF92EF92FF920F931F93CF932C
:1009E000DF93CDB7DEB728970FB6F894DEBF0FBE02
:1009F000CDBF4C01DC0112968C9112978068129643
:100A00008C9312971C964D905D906D907C901F97E3
:100A10001696AD90BC90179741145104610471046F
:100A200061F4D50118968D919D910D90BC91A02DEA
:100A30008D839E83AF83B88704C04D825E826F82B0
:100A40007886CD80DE80EF80F884BFEFCB1ADB0A9A
:100A5000EB0AFB0AF501808D918DA28DB38D8C156B
:100A60009D05AE05BF0528F482E0C82ED12CE12CEF
:100A7000F12C9E012F5F3F4FB701A601C5010E94D7
:100A8000C10287FD20C0882341F089819A81AB8112
:100A9000BC81892B8A2B8B2B51F08D819E81AF815C
:100AA000B885C816D906EA06FB0679F60CC00FEF22
:100AB0001FEF2FEF3FE0B701A601C5010E945E02C4
:100AC000382E811102C0312C1BC041145104610425
:100AD000710451F097018601B301A201C5010E9482
:100AE0005E02811108C0EFCFD5011896CD92DD923C
:100AF000ED92FC921B97F401C486D586E686F786B4
:100B0000832D28960FB6F894DEBF0FBECDBFDF91C0
:100B1000CF911F910F91FF90EF90DF90CF90BF90FA
:100B2000AF909F908F907F906F905F904F903F908D
:100B300008958F929F92AF92BF92CF92DF92EF92E1
:100B4000FF92CF936091C7027091C8028091C90251
:100B50009091CA022091AC023091AD024091AE0258
:100B60005091AF020E947431181684F48091C7022C
:100B70009091C802A091C902B091CA028093AC02C0
:100B80009093AD02A093AE02B093AF028091AB02FE
:100B900081119CC06091C7027091C8028091C90206
:100BA0009091CA02C090CC02D090CD02E090CE02CB
:100BB000F090CF028090A6029090A702A090A80289
:100BC000B090A902C1E020910C0130910D0140913B
:100BD0000E0150910F010E94743118160CF0C0E004
:100BE00081E09091AA02911180E08C2321F1C7014C
:100BF000B601681979098A099B092CE330E040E0C5
:100C000050E00E9423328091100190911101A0E0E8
:100C1000B0E082179307A407B50768F4C1E0C0935A
:100C2000AA0261E086E00E94622261E089E00E94FF
:100C30006222C093A5022091C7023091C802409160
:100C4000C9025091CA026091AC027091AD028091CC
:100C5000AE029091AF020E94AF2F20910801309117
:100C6000090140910A0150910B010E94743118163C
:100C70006CF591E08091AA02813009F090E081E06A
:100C80002091020130910301121613060CF080E04E
:100C90008923E1F0C1E0C093AB0261E085E00E94EE
:100CA0006222C093A4028091CC029091CD02A091C7
:100CB000CE02B091CF028093A6029093A702A09398
:100CC000A802B093A90282E08093AA028091AA02AE
:100CD000823031F56091C7027091C8028091C902DB
:100CE0009091CA02209104013091050140910601C2
:100CF000509107010E941C3087FF12C08091C702EB
:100D00009091C802A091C902B091CA028093AC022E
:100D10009093AD02A093AE02B093AF021092AA02DC
:100D20008091A6029091A702A091A802B091A90279
:100D30004091CC025091CD026091CE027091CF02D1
:100D40002091AB022130B9F40A96A11DB11D841780
:100D50009507A607B70778F484E10E94CD22883C66
:100D600091054CF460E085E00E9462221092A4029A
:100D700082E08093AB028091AB02823089F5809152
:100D8000CC029091CD02A091CE02B091CF02C09042
:100D9000A602D090A702E090A802F090A902BC01A0
:100DA000CD016C197D098E099F092CE330E040E0EC
:100DB00050E00E94233280910101281788F060E002
:100DC00089E00E9462228EE00E943922892B41F440
:100DD00060E086E00E9462221092A5021092AB02AF
:100DE000CF91FF90EF90DF90CF90BF90AF909F900A
:100DF0008F9008953F924F925F926F927F928F9261
:100E00009F92AF92BF92CF92DF92EF92FF920F9399
:100E10001F93CF93DF93CDB7DEB760970FB6F894EB
:100E2000DEBF0FBECDBF162F342EC22EDE2C9CE0AF
:100E3000E9E3F1E09E012F5F3F4F7901D901019075
:100E40000D929A95E1F7282F30E0225E3F4FA901DD
:100E5000330F660B770B2A013B0192E07594679480
:100E6000579447949A95D1F7837011F4133020F476
:100E7000812C912C540107C080E8882E81E5982EA2
:100E8000AA24A394B12C9A01AB012419350946096F
:100E9000570960E873E381EE91E00E94EB316D87C2
:100EA0007E878F87988BA301920160E075E882EEC0
:100EB00091E00E94EB314D845E846F847888460E09
:100EC000571E681E791E480C591C6A1C7B1C570152
:100ED000E12FF0E03197C5018E199F098E179F070A
:100EE00084F4D5018D915D01A82FB0E020E831E5B3
:100EF00041E050E00E945432460E571E681E791E93
:100F0000EACF202F30E0ACE3B0E00E9445324B0145
:100F10005C018D0C911CA11CB11C2C2D30E0A0E1BA
:100F2000BEE00E944532860E971EA81EB91EA32D54
:100F3000B0E020E831E541E050E00E945432DC01AD
:100F4000CB01880D991DAA1DBB1DBC01CD01640DEF
:100F5000751D861D971D60960FB6F894DEBF0FBEF7
:100F6000CDBFDF91CF911F910F91FF90EF90DF9058
:100F7000CF90BF90AF909F908F907F906F905F9039
:100F80004F903F900895CF92DF92EF92FF920F9390
:100F90001F93CF93DF93CDB7DEB727970FB6F894A3
:100FA000DEBF0FBECDBF81E08093B80288E680939C
:100FB000B7021092B6021092B50280E090E00E9453
:100FC000992060E089E394E00E946A1C40E067E0B9
:100FD00088E60E9423181092F3068093F206CE0151
:100FE00001967C018C016801CE18DF089091F20611
:100FF0008091F306981741F089E394E00E94B619B6
:10100000F80181938F01EFCF89E394E00E94C51C22
:10101000F7E0CF16D10409F06CC08981982F96951E
:10102000969596959E71292F220F220F920F8F7001
:10103000890F8093C5028A81982F969596959695EB
:101040009E71292F220F220F920F8F70890F80938C
:10105000C6028B81982F9695969596959670292F16
:10106000220F220F920F8F70890F809312018D81B2
:10107000982F9695969596959E71292F220F220F5F
:10108000920F8F70890F809313018E81982F969500
:10109000969596959E71292F220F220F920F8F7091
:1010A000890F809314018F81982F96959695969528
:1010B0009E71292F220F220F920F8F70890F80931C
:1010C0001501E090C5020091C602209112014091E5
:1010D000130160911401809115010E94FA0660933A
:1010E000CC027093CD028093CE029093CF0281E028
:1010F00001C080E027960FB6F894DEBF0FBECDBFCB
:10110000DF91CF911F910F91FF90EF90DF90CF90E3
:101110000895CF92DF92EF92FF920F931F93CF9398
:10112000DF9300D000D01F92CDB7DEB765E070E04E
:1011300080E490E00E94FF218E010F5F1F4F90918D
:10114000F2068091F306981741F089E394E00E943B
:10115000B619F80181938F01F2CF6A817B817627DE
:101160006727762780E090E00E94C23020E030E0E0
:1011700040E856E40E94AF2F20E030E048E453E41A
:101180000E94793120E030E040E058E30E9479315C
:1011900020E030E0A9010E94B02F20E030E04AE7D3
:1011A00054E40E9479316B017C012091B9023091A5
:1011B000BA024091BB025091BC020E94AF2F26E0C0
:1011C00031EC4EED52E40E9421306093C7027093DF
:1011D000C8028093C9029093CA026C817D817627F0
:1011E0006727762784E0769567958A95E1F76851B9
:1011F000710980E090E00E94C2302DEC3CEC4CE4A0
:101200005DE30E94793120E030E048E452E40E943E
:10121000AF2F6093A0027093A1028093A2029093DB
:10122000A302C092BD02D092BE02E092BF02F09231
:10123000C0020F900F900F900F900F90DF91CF9101
:101240001F910F91FF90EF90DF90CF90089581E074
:101250008093B80280E48093B7021092B602109295
:10126000B5028CEA90E00E94992089E394E00C9406
:10127000C51C84B7877F84BFE0E6F0E08081886189
:10128000808386E0808380818064808308951F92BC
:101290000F920FB60F9211240F900FBE0F901F9058
:1012A000189585E10E94CD22BC01990F880B990BFE
:1012B0000E94C43027E230EA49E85BE30E947931BA
:1012C0006093C1027093C2028093C3029093C402E0
:1012D00008958F929F92AF92BF92CF92DF92EF923A
:1012E000FF920F931F93CF93DF93CDB7DEB76A972B
:1012F0000FB6F894DEBF0FBECDBF80919E029091D5
:101300009F02019690939F0280939E0289EC96E043
:10131000892B09F4B8C060E087EC96E00E94C81CF5
:101320006C0107E110E020E030E0AE014F5F5F4F5D
:101330006DE287EC96E00E94E21CC82AD92A8981D6
:101340009A819827892798279093CA068093C9067F
:101350008B819C819827892798279093CC0680932E
:10136000CB068D819E819827892798279093CE065A
:101370008093CD068F819885982789279827909309
:10138000D0068093CF0689859A8598278927982744
:101390009093D2068093D1068B859C8598278927C8
:1013A00098279093D4068093D3068D859E859827A1
:1013B000892798279093DC068093DB068F8580939E
:1013C000DE06888999899093D6068093D5068A8906
:1013D0009B899093D8068093D7068C899D8990939A
:1013E000DA068093D9068F898093DF0662E087EC66
:1013F00096E00E94C81CC82AD92A01E010E020E02B
:1014000030E0AE01465E5F4F64E187EC96E00E94FB
:10141000E21CC82AD92A9A8D9695292F237090917B
:10142000DD069C7F922B9093DD0662E087EC96E0D0
:101430000E94C81CC82AD92A01E010E020E030E050
:10144000AE01475E5F4F61E087EC96E00E94E21CD0
:10145000C82AD92A998D990F292F2C709091DD06D1
:10146000937F922B9093DD0601E010E020E030E0C6
:10147000AE01485E5F4F65E187EC96E00E94E21C9A
:101480008C299D2902C083E090E00FB6F894DEBF5E
:101490000FBECDBF9093E1068093E0068091C90610
:1014A0009091CA060E947715AB01BC0189E494E0D3
:1014B0000E949E206DEA71E089E494E00E94E21AA5
:1014C0008091CB069091CC060E947715AB01BC01B0
:1014D00089E494E00E949E206DEA71E089E494E042
:1014E0000E94E21A8091CD069091CE060E94771557
:1014F000AB01BC0189E494E00E949E206DEA71E09A
:1015000089E494E00E94E21A6091D5067091D606B3
:10151000072E000C880B990B0E94C4302AE939E988
:1015200049E15EE30E947931AB01BC0189E494E0BA
:101530000E949E206DEA71E089E494E00E94E21A24
:101540006091D7067091D806072E000C880B990B76
:101550000E94C4302AE939E949E15EE30E94793109
:10156000AB01BC0189E494E00E949E206DEA71E029
:1015700089E494E00E94E21A6091D9067091DA063B
:10158000072E000C880B990B0E94C4302AE939E918
:1015900049E15EE30E947931AB01BC0189E494E04A
:1015A0000E949E206DEA71E089E494E00E94E21AB4
:1015B0008091CF069091D0060E947221AB01BC01B0
:1015C00089E494E00E949E206DEA71E089E494E051
:1015D0000E94E21A8091D1069091D2060E94722157
:1015E000AB01BC0189E494E00E949E206DEA71E0A9
:1015F00089E494E00E94E21A8091D3069091D40687
:101600000E947221AB01BC0189E494E00E949E20FB
:10161000E0909E02F0909F02B7010F2C000C880B07
:10162000990B0E94C4304B015C016091470470919A
:101630004804072E000C880B990B0E94C43020E050
:1016400030E040E05FE30E9479319B01AC01C501CD
:10165000B4010E94743187FD0CC080919D028823E3
:1016600041F010929D028091CB02811102C00E9434
:1016700027098091470490914804E816F9060CF474
:1016800008C18091CB02811102C00E94890881E0CB
:1016900080939D028091330190913401892B21F038
:1016A00061E084E00E9462220E94C3070E94510907
:1016B0006CE289E494E00E94DB1A609115014AE033
:1016C00050E089E494E00E94CB1A6DE289E494E052
:1016D0000E94DB1A809114018A3028F460E389E4C7
:1016E00094E00E94DB1A609114014AE050E089E422
:1016F00094E00E94CB1A6DE289E494E00E94DB1A28
:10170000809113018A3028F460E389E494E00E9418
:10171000DB1A609113014AE050E089E494E00E94F2
:10172000CB1A64E589E494E00E94DB1A80911201EF
:101730008A3028F460E389E494E00E94DB1A609127
:1017400012014AE050E089E494E00E94CB1A6AE377
:1017500089E494E00E94DB1A8091C6028A3028F462
:1017600060E389E494E00E94DB1A6091C6024AE0DB
:1017700050E089E494E00E94CB1A6AE389E494E0A3
:101780000E94DB1A8091C5028A3028F460E389E464
:1017900094E00E94DB1A6091C5024AE050E089E4BF
:1017A00094E00E94CB1A6DEA71E089E494E00E9413
:1017B000E21A4091BD025091BE026091BF02709149
:1017C000C00289E494E00E949E206CE289E494E0E7
:1017D0000E94DB1A4091C7025091C8026091C90271
:1017E0007091CA0289E494E00E949E206CE289E430
:1017F00094E00E94DB1A4091A0025091A1026091F6
:10180000A2027091A30289E494E00E949E206CE2FF
:1018100089E494E00E94DB1A4091C1025091C20217
:101820006091C3027091C40289E494E00E949E20FA
:101830006CE289E494E00E94DB1A8091A50290E0BA
:101840000E94B4156CE289E494E00E94DB1A809156
:10185000A40290E00E94B41580910001882359F001
:101860006CE289E494E00E94DB1A80919B029091E3
:101870009C020E94B4150E94990510929F0210923A
:101880009E0210929C0210929B0260E084E00E94F3
:10189000622289E494E00E94C71A6A960FB6F8940F
:1018A000DEBF0FBECDBFDF91CF911F910F91FF9093
:1018B000EF90DF90CF90BF90AF909F908F90089562
:1018C000EF92FF920F931F93CF93DF93CDB7DEB7C5
:1018D000C856D1090FB6F894DEBF0FBECDBF5091E8
:1018E000C5024091C60230911201209113019091DE
:1018F0001401809115011F925F931F924F931F92C5
:101900003F931F922F931F929F931F928F938FEA63
:1019100091E09F938F938E010F5F1F4F1F930F9343
:101920000E948032CE01CD960E945A1F8DE3E82E90
:10193000F12CEC0EFD1E8CE0E80EF11C46E4B80123
:10194000C7010E940C16BE01635C7F4F89E494E0DE
:101950000E94E8150FB6F894DEBF0FBECDBF809190
:101960005504811124C061E081E10E9462228091CE
:10197000990290919A02019690939A02809399020B
:10198000CE01CD960E945A1F42ECB801C7010E94B9
:101990000C16BE01635C7F4F89E494E00E94E81559
:1019A00064E670E080E090E00E94E422D8CF60E03E
:1019B00081E10E9462226DEC71E089E494E00E9472
:1019C000E21A80910001882331F063E272E089E439
:1019D00094E00E94E21A89E494E00E94C71A82E926
:1019E00090E090939B0380939A03C859DF4F0FB602
:1019F000F894DEBF0FBECDBFDF91CF911F910F9145
:101A0000FF90EF900895CF93DF931F92CDB7DEB78D
:101A1000BE016F5F7F4F0E94131D019719F48981EA
:101A200090E002C08FEF9FEF0F90DF91CF9108956C
:101A30000C960C94030D8F929F92AF92BF92CF920F
:101A4000DF92EF92FF92CF93DF93EC018C8C9D8C11
:101A5000AE8CBF8CC88CD98CEA8CFB8C0C960E9407
:101A6000030D97FD08C08C8E9D8EAE8EBF8EC88EE6
:101A7000D98EEA8EFB8EDF91CF91FF90EF90DF90B1
:101A8000CF90BF90AF909F908F9008959F92AF920C
:101A9000BF92CF92DF92EF92FF920F931F93CF935B
:101AA000DF930115110509F44BC0F801C58DD68DE2
:101AB000209709F445C069017A015B01682F178DF1
:101AC00081E08093B8021093B7021092B602109290
:101AD000B502E881F9810190F081E02DCE010995F0
:101AE00060E0CE010E946A1C6C2D613208F060E259
:101AF00041E0812F0E9423181092F3068093F20692
:101B000090E0A0E0B0E0C816D906EA06FB06D9F4DA
:101B1000912C892D90E0A0E0B0E08C159D05AE05DC
:101B2000BF05A0F48501090D111DE881F98102842A
:101B3000F385E02DCE010995F80180839394E9CFD8
:101B400083E090E005C086E090E002C080E090E095
:101B5000DF91CF911F910F91FF90EF90DF90CF9089
:101B6000BF90AF909F9008958F929F92AF92BF9237
:101B7000EF92FF920F931F93CF93DF9301151105FF
:101B800049F1F801C58DD68D209721F149015A01FF
:101B90007B01682F878D91E09093B8028093B70204
:101BA0001092B6021092B502E881F9810190F0819D
:101BB000E02DCE010995E881F9810280F381E02DC5
:101BC000A401B701CE010995CE010E94C51C80E099
:101BD00090E002C083E090E0DF91CF911F910F91E0
:101BE000FF90EF90BF90AF909F908F9008958F924D
:101BF0009F92AF92BF92CF92DF92EF92FF920F939C
:101C00001F93CF93DF9300D000D0CDB7DEB76C0128
:101C1000822FF60120A3768F658F41A3411102C068
:101C200098E602C099E6F601978F8F3F19F061E0C0
:101C30000E949122F60180A18F3F19F061A10E94BC
:101C4000622284EB9DE0F60193A382A386E49DE0EB
:101C500095A384A3D7A2C6A2C6018296938382834A
:101C60007601F2E0EF0EF11C198260E0C7010E94DC
:101C7000C81C01E010E020E030E0AE014F5F5F4F94
:101C800060E0C7010E94E21C009729F429812A3EE6
:101C900011F084E090E0F601948F838F009709F0B3
:101CA0000EC260E0C7010E94C81C01E010E020E005
:101CB00030E0AE014F5F5F4F66E0C7010E94E21C5B
:101CC000009751F4898180688983AE014F5F5F4F2F
:101CD00066E0C7010E940A22F601948F838F009765
:101CE00009F0EDC162E370E080E090E00E94E42240
:101CF00060E0C7010E94C81C01E010E020E030E075
:101D0000AE014F5F5F4F66E0C7010E94E21C009783
:101D100051F489818F7B8983AE014F5F5F4F66E00D
:101D2000C7010E940A22F601948F838F009709F061
:101D3000C6C160E0C7010E94C81C01E010E020E0BD
:101D400030E0AE014F5F5F4F66E0C7010E94E21CCA
:101D5000009751F489818F7D8983AE014F5F5F4F7A
:101D600066E0C7010E940A22F601948F838F0097D4
:101D700009F0A5C160E0C7010E94C81C0097C1F42A
:101D800001E010E020E030E0AE014F5F5F4F65E022
:101D9000C7010E94E21C009759F489818F7D8F7ED4
:101DA0008983AE014F5F5F4F65E0C7010E940A2241
:101DB000F601948F838F009709F081C162E0C7011B
:101DC0000E94C81C5C0101E010E020E030E0AE01A0
:101DD0004F5F5F4F64E1C7010E94E21CA82AB92A45
:101DE0008981897F8983AE014F5F5F4F64E1C701BD
:101DF0000E940A22A82AB92A62E0C7010E94C81CD0
:101E0000A82AB92A01E010E020E030E0AE014F5FDF
:101E10005F4F61E0C7010E94E21CA82AB92A8981AC
:101E2000897F8983AE014F5F5F4F61E0C7010E94E8
:101E30000A228A299B29F601948F838F009709F043
:101E40003EC162E0C7010E94C81C5C0101E010E0D5
:101E500020E030E0AE014F5F5F4F64E1C7010E94B8
:101E6000E21CA82AB92A898188638983AE014F5F61
:101E70005F4F64E1C7010E940A22A82AB92A62E0E2
:101E8000C7010E94C81CA82AB92A01E010E020E07E
:101E900030E0AE014F5F5F4F61E0C7010E94E21C7E
:101EA000A82AB92A898188638983AE014F5F5F4F71
:101EB00061E0C7010E940A228A299B29F601948FBA
:101EC000838F009709F0FBC061E070E0C7010E94BA
:101ED000752EF601948F838F009709F0F0C062E0B1
:101EE00070E0C7010E94752EF601948F838F0097D2
:101EF00009F0E5C060E0C7010E94C81C009719F412
:101F0000C7010E94872FF601838F948F60E0C7017D
:101F10000E94C81C009709F043C0C7010E94872F88
:101F20000097F1F563E0C7010E94C81C0097C1F556
:101F300001E010E020E030E0AE014E5F5F4F61E075
:101F4000C7010E94E21C009759F58A81807F876053
:101F500080618A83AE014E5F5F4F61E0C7010E94DE
:101F60000A220097E9F460E0C7010E94C81C0097AC
:101F7000B9F401E010E020E030E0AE014F5F5F4FC8
:101F800063E0C7010E94E21C009751F489818062DE
:101F90008983AE014F5F5F4F63E0C7010E940A2251
:101FA000F601948F838FB12C84E0882E912C21E050
:101FB000AE014F5F5F4F60E0C7010E94D62EF60171
:101FC000948F838F198121E0AE014F5F5F4F61E0F5
:101FD000C7010E94D62E8981F601148E138E183403
:101FE00011F4893051F1F601948E838E60E0C701BF
:101FF0000E94C81C0097B9F401E010E020E030E036
:10200000AE014F5F5F4F63E0C7010E94E21C009783
:1020100051F4898182608983AE014F5F5F4F63E035
:10202000C7010E940A22F601838F948FB394F5E0D2
:10203000BF12BDCF84E090E03AC088E08C8320E0FE
:10204000AE014C5F5F4F61E3C7010E94D62EF601DF
:10205000948F838F009771F563E0C7010E94C81CBD
:10206000009729F58B8180788C6080688B83AE0126
:102070004D5F5F4F63E0C7010E940A220097B9F4E9
:1020800080E18A83AE014E5F5F4F64E0C7010E942A
:102090000A22009761F48981807489688F7B898323
:1020A000AE014F5F5F4F65E0C7010E940A22F60153
:1020B000948F838F009719F4F601838D948DF60128
:1020C000948F838F0F900F900F900F90DF91CF918F
:1020D0001F910F91FF90EF90DF90CF90BF90AF9046
:1020E0009F908F9008951F920F920FB60F92112418
:1020F0002F933F934F935F936F937F938F939F9310
:10210000AF93BF93EF93FF937894809135039091B1
:1021100036038093B2008091E4029091E502A09191
:10212000E602B091E7020196A11DB11D8093E40281
:102130009093E502A093E602B093E7024091E40297
:102140005091E5026091E6027091E70280913103BF
:1021500090913203A0913303B0913403481759078B
:102160006A077B07B0F08091E302811112C081E021
:102170008093E3021092E4021092E5021092E602CC
:102180001092E702E0912F03F0913003099510922D
:10219000E302FF91EF91BF91AF919F918F917F915A
:1021A0006F915F914F913F912F910F900FBE0F90C4
:1021B0001F9018951092E4021092E5021092E60228
:1021C0001092E7021092E30280913503909136035A
:1021D0008093B200E0E7F0E0808181608083089521
:1021E000CF93DF93EC01E981FA81908181819CBDDD
:1021F0008DBDE981FA8160E082810E94622281E0E6
:102200008B83DF91CF9108958EBD0DB407FEFDCF76
:1022100008958FEF8EBD0DB407FEFDCF8EB50895E6
:102220000F931F93CF93DF93EC0189018D8183304E
:1022300039F089E0440F551F661F771F8A95D1F743
:102240009A01AB0168E1CE010E942701882311F0B9
:1022500082E32DC08EEF0E940411F80180818EBDB3
:10226000818132961E5F0DB407FEFDCF8EBDE01753
:10227000F10711F08191F7CF0DB407FEFDCF8FEF7D
:102280000E9404118FEF0E9404110E9409118C8397
:102290008F71853031F086E58883CE010E9412016E
:1022A00007C00E94FD1C182F811107C089E5888393
:1022B000CE010E94120110E012C020E030E0A9011E
:1022C0006DE0CE010E942701811104C00E94091116
:1022D000882311F089E2EBCFCE010E941201812FF9
:1022E000DF91CF911F910F9108952F923F924F92BE
:1022F0005F926F927F928F929F92AF92BF92CF9296
:10230000DF92EF92FF920F931F93CF93DF93CDB79E
:10231000DEB72D970FB6F894DEBF0FBECDBFFC0120
:102320008B017A01DB018C91807709F4BCC3808139
:102330008111B9C3DA0111960D90BC91A02DBF8314
:10234000AE83DA018C91837009F498C38E819F81EA
:102350000C966DE070E00E94FB31BB24B394B60E86
:102360002D8347011F0140E050E0BA01C8010E94DF
:10237000B0031A8619861886A12CC12CD12C1B8675
:10238000F7013696FD87EC87D80150964D905D9009
:102390006D907C90539735E076946794579447946A
:1023A0003A95D1F7720161E0C8010E947404009768
:1023B00031F4F8018181882309F4A2C074C3DC01DF
:1023C0002C91253E11F021110AC0C11002C05A867D
:1023D0004986CB1408F4C394211105C091C0CB14D5
:1023E00008F44FC303C0253E09F43FC02E32E9F183
:1023F000FC0133853F3009F057C0D11008C026FFDB
:10240000C3CF2F71A22EF585F887D22E07C0AA94CC
:102410002A112BC02585B8852B1327C04A2D50E0E3
:1024200041505109EDE0E49F9001E59F300D1124EA
:102430004E815F8124173507C0F4FC01F12C54E074
:102440005F1518F08181928108C06AE06F1518F05D
:102450008481958102C086819781AE81BF81A21758
:10246000B30729F4892B09F48FCFD12C8DCF8F3F5F
:10247000910509F0D0F74FEB480F4A3108F4805E20
:10248000A9014F5F5F4FD40113966D917C91149712
:10249000260F371FD9019C912FEB290F2A3108F401
:1024A000905E9813E2CFEFC233FDDFCFDD20A1F0C5
:1024B000B1E0AB12F8C2FC019C01255F3F4F90E0F8
:1024C00090FB979597F98191980FE217F307C1F761
:1024D000E885E913E8C210C04BE050E06C857D85CB
:1024E0000E946A32892B09F04FCFD4018C9180FF72
:1024F00003C0F1E0FB8748CFBD81B7FFF6C1D3C26F
:102500008D818274823409F0CEC2C11002C0FA8675
:10251000E986CB1408F096C060E0C8010E947404FC
:10252000892B31F4F8018181882309F476C0BBC27C
:10253000C394EFCF50968D919D910D90BC91A02D9D
:1025400081159E4FAF41B10508F0ADC2C8010E9490
:10255000E004882309F4A7C2D8011696ED91FC91F6
:1025600017971C964D905D906D907C901F97B2E0F0
:102570004B1A510861087108048004C0440C551CB2
:10258000661C771C0A94D2F780899189A289B38945
:10259000480E591E6A1E7B1E25E0B301A201CF0121
:1025A00080960E941E027C01009709F47CC2FC0107
:1025B00020E032E0119221503040E1F7DD24D39445
:1025C000D80116960D90BC91A02DBD87AC871296B0
:1025D0008C911297D81630F190E0A0E0B0E029E09D
:1025E000880F991FAA1FBB1F2A95D1F7F8014089B0
:1025F000518962897389840F951FA61FB71F808B2D
:10260000918BA28BB38BAC85BD8512968C91823059
:10261000C8F4B0E1CB0ECB14A8F4D8018C9185FF9F
:1026200089CF41C29701B301A2014D0D511D611D1A
:10263000711D8D919C910E941011882309F433C261
:10264000D394BECFEB85EE2309F46AC0D40115966E
:10265000AC9082E0E82EF12C9EE7792E6401B6E082
:10266000CB0ED11CF401818192819701280F391F73
:102670000380F481E02D8E0F9F1F8E179F0779F046
:10268000A901B5E0440F551FBA95E1F7240F351F96
:102690004191042E000C550B24273527EECFF3E093
:1026A000FA1510F4A3E0AA2E94E09A0D822F8F70F1
:1026B000E92FF0E08A3010F4805D01C0895CE80DFC
:1026C000F91D8683F4E036952795FA95E1F7915048
:1026D000A91660F3F401EA0DF11D768240E050E0A6
:1026E000BA01C8010E94B00361E0C8010E947404ED
:1026F000009731F4D80111968C918111D4C110C08A
:10270000FC012081222361F0238523FDEDCF4BE0E6
:1027100050E0BC01C6010E946A32892B29F7BBC177
:1027200029853A85A90160E070E0E5E0440F551F76
:10273000661F771FEA95D1F7C8010E94B00388236E
:1027400009F4B1C1DD24DA94DB0CCD2C3D2D3064CD
:10275000B32E3FE0A32E740141E1E40EF11C4DE0E5
:10276000742ECC2009F466C060E0C8010E94740495
:10277000FC01892B09F497C1D80116962D913C9143
:102780001797D90190968C919097816090968C9331
:10279000DC1002C06B2D01C06C2D6083A3861486F3
:1027A000D401169680E080FB879587F99D91890F6B
:1027B000AE15BF05C1F78587138E128ED40113960F
:1027C0004D915C9114976F7170E061507109769E24
:1027D0009001779E300D112460E08E819F81281733
:1027E000390740F4DA01A20FB31F8C91082E000CB8
:1027F000990B0CC081E090E0AE81BF81A217B307B6
:1028000011F480E090E0919581959109653018F47C
:102810009283818307C06B3018F49583848302C050
:10282000978386836F5F2F5F3F4F32966D30A9F697
:10283000CA9497CFF80180899189A289B38925E04C
:10284000B695A795979587952A95D1F77C0160E075
:10285000C8010E9474045C01892B09F424C180E240
:10286000D5011D928A95E9F7F40136968BE0D501E2
:1028700001900D928A95E1F7F40180818871D5016C
:102880001C968C93E0919A03F0919B03309739F05A
:10289000B501625F7F4FC5014096099509C081E28D
:1028A00098E2F501918B808B80E098E0978786878E
:1028B000D50150968D919C91519753969C938E93F0
:1028C000529759969C938E9358971E968D919C91F2
:1028D0001F9757969C938E935697D8011696ED9115
:1028E000FC91179780A1816080A380E2F101119291
:1028F0008A95E9F7D8011696AD90BC901797F1012B
:10290000B782A682F582E4825C968D919D910D90AE
:10291000BC91A02D80879187A287B387F701EF70C4
:10292000FF27D501979695E0EE0FFF1F9A95E1F7E7
:102930009D012E0F3F1FD9011B968C9183FF03C071
:10294000F1011082B0C0C5018E0F9F1FDC01D2962D
:102950008C918771D1018C93D9011B969C919871B0
:1029600019F48860D1018C93D1011396DC921397EE
:102970008D81827319F08C91817111F78D818F7027
:10298000D10112968C93D50193964D915D916D91E5
:102990007C919697D10154964D935D936D937C9362
:1029A0005797EA0DFB1DC3ACD4ACE12CF12CB6015A
:1029B000552744279F012F5B3F4FD901CD90DC90D5
:1029C000E12CF12CC42AD52AE62AF72ABD81B4FFCE
:1029D00033C0C114D104E104F10409F466C09E01BE
:1029E0002F5F3F4FB701A601C5010E94C102982E7B
:1029F00087FDA6CF00E010E09801B701A601C50150
:102A00000E945E02882309F49BCFF5014085518521
:102A100062857385C416D506E606F70620F4C086DF
:102A2000D186E286F386C980DA80EB80FC80911043
:102A3000D6CF81113AC084CFD1015C96CD92DD9280
:102A4000ED92FC925F97ED5BFF4F80819181A281B7
:102A5000B381F101808F918FA28FB38FFD81F5FF3C
:102A60002CC0D10158964D915D916D917C915B97F1
:102A7000C1010E94B003811120C062CFBB24B39476
:102A80006FCCC12CB3CCF3943296BDE0FB1609F4A5
:102A90007BCC9A01D4CCEFEFEE1AFE0AF4E6EF16E7
:102AA000F10409F0DFCD80E009C0D10112968C91CC
:102AB0001297806812968C93D1CF81E02D960FB635
:102AC000F894DEBF0FBECDBFDF91CF911F910F9164
:102AD000FF90EF90DF90CF90BF90AF909F908F903E
:102AE0007F906F905F904F903F902F900895BC0122
:102AF0008091DD0683708130D9F078F0823019F151
:102B0000833071F5072E000C880B990B0E94C4309E
:102B10002FE632E143E050E420C0072E000C880B82
:102B2000990B0E94C4302FE632E143E851E415C00E
:102B3000072E000C880B990B0E94C4302FE632E15F
:102B400043E051E40AC0072E000C880B990B0E9449
:102B5000C4302FE632E143E850E40E94213008956A
:102B600060E070E0CB010895CF92DF92EF92FF9288
:102B7000CF93DF936C01990FEE08FF08F7FE1BC09F
:102B80006DE289E494E00E94DB1AEC0144275527AA
:102B9000BA014C195D096E097F092AE089E494E0C5
:102BA0000E947E1A8C0F9D1FDF91CF91FF90EF90B6
:102BB000DF90CF9008952AE0B701A60189E494E060
:102BC000DF91CF91FF90EF90DF90CF900C947E1A21
:102BD000CF93DF93EB0120E2FB013C96DC011C96D6
:102BE00001900D922A95E1F72A813B81FC01338304
:102BF00022834C815D816E817F814483558366830E
:102C00007783488559856A857B85408751876287A8
:102C10007387DF91CF9108952F923F924F925F92E9
:102C20006F927F928F929F92AF92BF92CF92DF92DC
:102C3000EF92FF920F931F93CF93DF93CDB7DEB741
:102C4000E5970FB6F894DEBF0FBECDBF7C018B01B8
:102C5000842E19821A82DC018C91811158C18091D5
:102C60009C06807709F453C1FB0180818F32C9F43F
:102C70008F0181918F32E1F36091A2067091A306DA
:102C8000811104C0C7010E94BD0478C1CE01019624
:102C90000E94BD04882309F43AC1BE016F5F7F4FD3
:102CA00002C06CE976E0FE01F296FBABEAABF801FC
:102CB0009F012F5F3F4F8081803211F4F901F8CFDF
:102CC000FDA3ECA39F01A9014E1B5F0B8901D90154
:102CD0008D919D01882341F18F3221F4CF01840F22
:102CE000951F1BC08C3509F412C1982F977F923223
:102CF00009F40DC18A3309F40AC1982F9F7B9C33D4
:102D000009F405C192EC980F923008F400C180528A
:102D10008F35C8F2FCC02F3239F48C01DC012D91C3
:102D2000CD012032C1F7F9CFDA01AE0FBF1FAD01DF
:102D30004E1B5F0BEA17FB0759F08E918E32B9F3E9
:102D40008032A9F34F3F510511F00CF0E0C002C0F2
:102D500040E050E05BA34AA3DE0197965D0180E26C
:102D6000382E3D928AA99BA9A817B907C1F79F01E0
:102D7000C9018E1B9F0BD901DD909D01BEE2DB16C0
:102D8000B9F3B0E23B2ED31499F321E02DAB0097B9
:102D900009F01DAA9A01215031096F01C40ED51EF8
:102DA0002F3FAFEF3A0749F45EA0612CB7E07B2ECE
:102DB000312C912CA8E04A2E54C0D6019E906D0172
:102DC000BEE29B1689F321503109EACF6F01C80E8C
:102DD000D91ED601BC91BCABB03209F472C0BE3270
:102DE00009F044C08217930709F06BC0A6EDDA2EF4
:102DF000BCA9DB0EA5E0AD1508F03FC0B6ECDB2E9C
:102E0000BCA9DB0EA5E0AD15D8F5A5EADA2EDB0EE0
:102E1000B2E0BD15A8F5BFEDDB2EACA9DA0EBDE51D
:102E2000BD1570F18217930709F4A1C07314D0F196
:102E3000DCA8AFE9CA2ECD0CA9E1AC1560F1BD2D1F
:102E4000B052BCAB642822242394230C6501C30C2C
:102E5000D11C3CA8D6013C92A6E0A215A0F5322CCC
:102E60000196841795070CF4B1CF30C0ACA9A232FB
:102E700039F0AC3709F0BACF03C0BD3209F4BECF88
:102E80008217930709F469C0731460F0AFE5DA2E76
:102E90001DAABFE5BCABAFEBDA0EB9E1BD1598F2E8
:102EA0009428D1CFAAE07A1609F465C0281739070B
:102EB0000CF461C0C901BAE07B2EA8E03A2EB0E163
:102EC0004B2E1DAACDCF522C322CCACF5EA28FA181
:102ED0008032E9F0BDA9BB2341F0862D892111F490
:102EE000862D01C082E089A314C081E089A38EA150
:102EF00090E0D501A80FB91F2EE72C93E8E2F0E08F
:102F0000EC0FFD1FE80FF91F21E3208302C080E0D2
:102F100035C0D8018C918823C1F021E0AE014F5D0E
:102F20005F4FC7010E947511882389F380E2F70182
:102F3000DE01119601900D928A95E1F7C7010E947A
:102F4000D704BE016F5F7F4FB2CE282DAE014F5D1B
:102F50005F4FC7010E94751111C0BAE07B1659F08E
:102F6000AAE07A2EB8E03B2EA0E14A2E79CFBAE053
:102F70003B2E7310F5CF5EA21DAAA9CFE5960FB622
:102F8000F894DEBF0FBECDBFDF91CF911F910F919F
:102F9000FF90EF90DF90CF90BF90AF909F908F9079
:102FA0007F906F905F904F903F902F900895AB016E
:102FB000BC01809170008E7F809370008091B00082
:102FC0008C7F8093B0008091B100877F8093B100A7
:102FD0008091B6008F7D8093B600809170008D7FC8
:102FE000809370008091B10084608093B1008091E3
:102FF000B1008C7F8093B10083E890E0909336031A
:1030000080933503411551056105710569F481E02F
:1030100090E0A0E0B0E08093310390933203A0935E
:103020003303B093340308C0409331035093320309
:10303000609333037093340389E699E090933003EF
:1030400080932F03089590912E039111FCCF91E06E
:1030500090932E0340932D032FEF20932C03109277
:103060002B03260F20932A03909329039091290381
:10307000880F892B8093290380912803813061F484
:1030800010922803809129038093BB008091BC009B
:1030900083FDF8CF85EC01C085EE8093BC00809164
:1030A0002E038130E1F380912B03861710F4609199
:1030B0002B03A8E0B3E0E8EEF2E080E0861721F011
:1030C0009D9191938F5FFACF08950895CF92DF92EB
:1030D000EF92FF920F931F93CF93DF936C017A01CE
:1030E0008B01C0E0D0E0CE15DF0581F0D8016D91F5
:1030F0008D01D601ED91FC910190F081E02DC6018A
:103100000995892B11F02196EECF7E01C701DF9141
:10311000CF911F910F91FF90EF90DF90CF90089586
:10312000FC01538D448D252F30E0842F90E0821BCD
:10313000930B541710F0CF96089501970895FC0152
:10314000918D828D981761F0828DDF01A80FB11DDE
:103150005D968C91928D9F5F9F73928F90E0089502
:103160008FEF9FEF0895FC01918D828D981731F0BC
:10317000828DE80FF11D858D90E008958FEF9FEF10
:103180000895FC01918D228D892F90E0805C9F4FE6
:10319000821B91098F73992708958CE993E00E940F
:1031A000C11821E0892B09F420E0822F0895FC0149
:1031B000848DDF01A80FB11DA35ABF4F2C91848DC0
:1031C00090E001968F739927848FA689B7892C93F5
:1031D000A089B1898C91837080648C93938D848D48
:1031E000981306C00288F389E02D80818F7D80834B
:1031F0000895EF92FF920F931F93CF93DF93EC010B
:1032000081E0888F9B8D8C8D981305C0E889F989A2
:10321000808185FD26C0F62E0B8D10E00F5F1F4FBD
:103220000F731127E02E8C8DE8120CC00FB607FC2F
:10323000FACFE889F989808185FFF5CFCE010E9418
:10324000D718F1CF8B8DFE01E80FF11DE35AFF4F28
:10325000F0829FB7F8940B8FEA89FB8980818062A6
:103260000AC09FB7F894EE89FF896083E889F989DD
:1032700080818370806480839FBF81E090E0DF91D4
:10328000CF911F910F91FF90EF900895CF93DF930F
:10329000EC01888D8823C9F0EA89FB89808185FD4E
:1032A00005C0A889B9898C9186FD0FC00FB607FCAF
:1032B000F5CF808185FFF2CFA889B9898C9185FFF0
:1032C000EDCFCE010E94D718E7CFDF91CF910895BF
:1032D00080E090E0892B29F00E94CD1881110C9498
:1032E0000000089585ED8093BC008091BC0084FDB2
:1032F000FCCF10922E03089540917703262F30E0E3
:10330000240F311D21323105DCF420912E032430AD
:10331000C9F4FC0180E090E0861758F430917703FF
:103320002191DC01A95ABC4FA30FB11D2C9301962A
:10333000F3CF80917703680F6093770380E008955F
:1033400081E0089582E00895089508950895E09138
:10335000F3068091F206E81730F4F0E0E851FD4FF3
:10336000808190E008958FEF9FEF08959091F3068C
:103370008091F206981750F4E92FF0E0E851FD4FE4
:10338000208130E09F5F9093F30602C02FEF3FEF64
:10339000C90108958091F20690E02091F306821B06
:1033A00091090895CF92DF92EF92FF920F931F93AE
:1033B000CF93DF937C01CB018A012091B8022223B5
:1033C00089F0EB016B01C40ED51ECC15DD0569F04B
:1033D0006991D701ED91FC910190F081E02DC70139
:1033E0000995F3CF642F0E947C19C801DF91CF911A
:1033F0001F910F91FF90EF90DF90CF900895CF93A2
:10340000DF931F92CDB7DEB769832091B8022223E4
:10341000D1F02091B502203240F021E030E0FC01F3
:103420003383228380E090E015C08091B602E82FBC
:10343000F0E0E95CFC4F998190838F5F8093B60246
:103440008093B50205C061E0CE0101960E947C190F
:1034500081E090E00F90DF91CF9108950E94653256
:103460001F920F920FB60F9211242F933F934F93F9
:103470005F936F937F938F939F93AF93BF93EF93DC
:10348000FF93E0912401F09125010995FF91EF91BF
:10349000BF91AF919F918F917F916F915F914F916C
:1034A0003F912F910F900FBE0F901F9018951F9274
:1034B0000F920FB60F9211242F933F934F935F9368
:1034C0006F937F938F939F93AF93BF93EF93FF93EC
:1034D000E0912201F09123010995FF91EF91BF91B5
:1034E000AF919F918F917F916F915F914F913F919C
:1034F0002F910F900FBE0F901F9018958F929F9253
:10350000AF92BF92EF92FF920F931F93CF93DF93EF
:10351000CDB7DEB7A1970FB6F894DEBF0FBECDBF13
:103520007C01FA01CB0119A2223008F42AE08E01B5
:103530000F5D1F4F822E912CA12CB12CBF01A50134
:1035400094010E942332F901CA01015011096A3025
:1035500014F4605D01C0695CD8016C93232B242BAB
:10356000252B61F7B801C7010E943103A1960FB660
:10357000F894DEBF0FBECDBFDF91CF911F910F91A9
:10358000FF90EF90BF90AF909F908F90089568E864
:1035900072E00C9431039A01452B39F4DC01ED9172
:1035A000FC910190F081E02D0994462F50E060E0FD
:1035B00070E00C947E1ADC01ED91FC910190F08199
:1035C000E02D09940C9431031F920F920FB60F92C5
:1035D00011242F933F934F935F936F937F938F9318
:1035E0009F93AF93BF93EF93FF938CE993E00E9477
:1035F000D718FF91EF91BF91AF919F918F917F91DC
:103600006F915F914F913F912F910F900FBE0F904F
:103610001F9018951F920F920FB60F9211242F939F
:103620008F939F93EF93FF93E091AC03F091AD03E1
:103630008081E091B203F091B30382FD12C09081CA
:103640008091B5038F5F8F732091B603821751F07D
:10365000E091B503F0E0E456FC4F958F8093B503FD
:1036600001C08081FF91EF919F918F912F910F90D9
:103670000FBE0F901F9018951F920F920FB60F92CA
:1036800011242F933F934F935F936F937F938F9367
:103690009F93AF93BF93EF93FF938091B900887F7F
:1036A000803609F49CC068F5883209F45BC090F458
:1036B000803109F454C038F4882309F4F6C0883006
:1036C00009F44DC0F6C0883109F44CC0803209F4C9
:1036D0005DC0EFC0803409F468C048F4803309F459
:1036E00055C0883309F0E5C080932C03D8C08035DD
:1036F00009F44FC0883509F45DC0883409F0D9C099
:10370000D6C0883909F4C7C0A8F4883709F467C05F
:1037100038F4883609F463C0803709F460C0C9C042
:10372000883809F4B8C0803909F45FC0803809F0DE
:10373000C0C05BC0803B09F486C038F4803A09F40D
:1037400066C0883A09F47FC0B4C0803C09F4A7C0C1
:10375000883C09F4A4C0883B09F48AC0AAC08091BF
:10376000290310C090912B0380912A03981770F5BC
:10377000E0912B0381E08E0F80932B03F0E0E85F54
:10378000FC4F80818093BB0085EC86C080932C0326
:103790008EC0E0912B0381E08E0F80932B038091EC
:1037A000BB00F0E0E85FFC4F808390912B03809199
:1037B0002A036EC0E0912B0381E08E0F80932B03D0
:1037C0008091BB00F0E0E85FFC4F808380912D0387
:1037D00081116DC081E08093280384EA61C083E099
:1037E00080932E0310929903CFCF8091990380325A
:1037F00008F051C0E091990381E08E0F8093990306
:103800008091BB00F0E0E758FC4F8083BDCF85EC92
:103810008093BC0010922E0380919903803230F483
:10382000E0919903F0E0E758FC4F10826091990312
:1038300070E0E091B002F091B10289E793E0099560
:103840001092990336C084E080932E03109278037F
:1038500010927703E091B202F091B3020995809142
:103860007703811105C081E080937703109257039D
:10387000E091780381E08E0F80937803F0E0E95ABD
:10388000FC4F80818093BB009091780380917703F7
:10389000981708F479CF85E88093BC000AC085ECBE
:1038A0008093BC0010922E0304C010922C030E943F
:1038B0007219FF91EF91BF91AF919F918F917F917D
:1038C0006F915F914F913F912F910F900FBE0F908D
:1038D0001F9018953091B502313208F04AC080919E
:1038E0002E038111FCCF9091B70222E020932E038A
:1038F00060932D032FEF20932C0310922B03309312
:103900002A03E7E3F3E0A8E0B3E020E0321721F078
:1039100041914D932F5FFACF1092290320912903F3
:10392000990F922B9093290390912803913061F481
:1039300010922803909129039093BB009091BC00B2
:1039400093FDF8CF95EC01C095EE9093BC0090915B
:103950002E039230E1F390912C039F3F79F08091F8
:103960002C03803241F080912C03803331F084E0CD
:1039700005C081E003C082E001C083E01092B6027E
:103980001092B5021092B802089561E00C946A1C7E
:10399000CF93DF931F92CDB7DEB7643068F420E198
:1039A000629FB001112460736983AE014F5F5F4F66
:1039B0006FE70E940A2202C083E090E00F90DF913F
:1039C000CF9108950F931F93FC01962FBA01A08108
:1039D000B1811296ED91FC911397309749F0A901AE
:1039E0009801892F14960D911C911597099502C085
:1039F00082E090E01F910F910895CF93DF930E9492
:103A00006F01EC010E9409118F3F49F00E946F0184
:103A10008C1B9D0B89359240A8F380E001C081E0AA
:103A2000DF91CF910895DF92EF92FF920F931F9352
:103A3000CF93DF93EC018B0128812223E9F08A8167
:103A400080FF1AC01FC0D380D422E114F10409F012
:103A500078C0D11076C0892B8A2B8B2B09F456C0E5
:103A60004C855D856E857F859E01245F3F4FCF012C
:103A70000E94C10287FF5AC08981826089838FEFCB
:103A80009FEFA7C023FF14C0888D998DAA8DBB8D91
:103A9000488959896A897B89841B950BA60BB70BCA
:103AA00082309105A105B105A0F4009791F468C09A
:103AB00025FF0FC0EE81FF818681978145E0880F49
:103AC000991F4A95E1F7488959898417950709F4A0
:103AD0005AC088899989AA89BB897C0131E0F3227F
:103AE000EE81FF81AC01BD0139E076956795579570
:103AF00047953A95D1F725FFA6CF848D958DA68D54
:103B0000B78D480F591F6A1F7B1F46C026FF05C08F
:103B1000848D958DA68DB78D04C08C8D9D8DAE8DB9
:103B2000BF8D8C879D87AE87BF870BC0811109C071
:103B30008881807709F4A0CF21E030E081E090E037
:103B400026C0EE81FF814C855D856E857F85425064
:103B5000510961097109048004C0440F551F661F93
:103B6000771F0A94D2F780899189A289B389480F77
:103B7000591F6A1F7B1F4D0D511D611D711D0CC00A
:103B800020E030E004C020E030E080E090E0A901D7
:103B9000481B590BCA011DC08E819F8120E0809671
:103BA0000E941E02009709F467CFFC01EE0DFF1D75
:103BB0008081F801808388899989AA89BB890196C7
:103BC000A11DB11D888B998BAA8BBB8B21E030E0A6
:103BD000DCCFDF91CF911F910F91FF90EF90DF909D
:103BE00008952F923F924F925F926F927F928F92A1
:103BF0009F92AF92BF92CF92DF92EF92FF920F937C
:103C00001F93CF93DF93EC015B014A01888183FF0F
:103C10000EC08A8181FF0BC082FF0FC0488D598D75
:103C20006A8D7B8DCE010E94B003811106C089810F
:103C3000816089838FEF9FEF2AC1A40160E070E06B
:103C400088899989AA89BB8980959095A095B09516
:103C500084179507A607B70750F364011E018CE08F
:103C6000280E311C088919892A893B89C114D1047D
:103C700009F4D0C08E819F81B901A80129E0769511
:103C80006795579547952A95D1F7DC011396FC90D7
:103C9000F4221170F11034C00115110589F54C851D
:103CA0005D856E857F85411551056105710569F05A
:103CB00091010E94C10287FDBACF8111CDC0CE0112
:103CC0000E94E0048111C8C0B2CF8C8D9D8DAE8D55
:103CD000BF8D0097A105B10579F4CE010E94E004E3
:103CE000882309F4A4CF8C859D85AE85BF858C8FF4
:103CF0009D8FAE8FBF8F04C08C879D87AE87BF8797
:103D0000EE81FF814C855D856E857F85425051092E
:103D100061097109048004C0440F551F661F771F95
:103D20000A94D2F780899189A289B389480F591FD3
:103D30006A1F7B1F4F0D511D611D711D011511055E
:103D400021F4C114B2E0DB06B0F580E092E0801B04
:103D5000910B76018C159D0508F47C010115110568
:103D600079F4488859886A887B88888D998DAA8DCE
:103D7000BB8D481659066A067B0610F025E001C087
:103D800021E0CF0180960E941E02009709F44FCFD8
:103D9000A701B501800F911F0E9477320E0D1F1DE4
:103DA0000115124031F58E819F8180960E94DB01C2
:103DB00081111FC03CCF83A194A1A5A1B6A18417F6
:103DC0009507A607B70741F410A28FEF9FEFDC011C
:103DD00083A394A3A5A3B6A3EE81FF81950180815F
:103DE00091810E941011882309F421CFE12C82E0F7
:103DF000F82E88899989AA89BB898E0D9F1DA11DDE
:103E0000B11D888B998BAA8BBB8BAE0CBF1CCE18B7
:103E1000DF0828CF488D598D6A8D7B8D8A814017A8
:103E200051076207730728F4088F198F2A8F3B8F79
:103E300006C020919A0330919B03232B11F08068D8
:103E40008A838A8183FD02C0C40121C0CE010E9401
:103E500046038111F9CFEBCEEE81FF814C855D8564
:103E60006E857F854250510961097109048004C043
:103E7000440F551F661F771F0A94D2F780899189D6
:103E8000A289B389480F591F6A1F7B1F5ACFDF9140
:103E9000CF911F910F91FF90EF90DF90CF90BF9047
:103EA000AF909F908F907F906F905F904F903F90DA
:103EB0002F900895FC01148615861382128288EED5
:103EC00093E0A0E0B0E084839583A683B78385E781
:103ED00091E0918380830895CF92DF92EF92FF92D9
:103EE0000F931F93CF93C82F10927A0481E090E034
:103EF000A0E0B0E080937D0490937E04A0937F04C3
:103F0000B093800485E794E090939704809396049F
:103F1000109295048FEF9FEFDC01809398049093AB
:103F20009904A0939A04B0939B04CC2331F1C5303B
:103F300008F0DEC020E040E050E0BA0185E994E0FE
:103F40000E941E02009709F4D3C000E1C09F800DBB
:103F5000911D11244097FC01E254FE4F20812F77E0
:103F600009F0C6C03896C080D180E280F380C114C9
:103F7000D104E104F10421F4BBC0C12CD12C7601A1
:103F800020E0B701A60185E994E00E941E02FC0131
:103F9000892B09F4ADC0838594858115924009F081
:103FA000A7C08089823009F0A3C0268537852115F6
:103FB000310509F49DC09585909377048FEF890FA3
:103FC00080937804C0E081E0981751F041E04C0FF5
:103FD000493019F4C09379048BC0880FC42FF4CFF3
:103FE000C0937904468957894115510519F060E05D
:103FF00070E004C044A155A166A177A1409381045B
:10400000509382046093830470938404D701C601A3
:10401000820F931FA11DB11D8C019D018093890406
:1040200090938A04A0938B04B0938C048189928925
:1040300090937C0480937B04440F551F661F771F69
:10404000400F511F621F731F4093910450939204BD
:104050006093930470939404B5E0880F991FBA9508
:10406000E1F781509E4F892F99278695480F591F58
:10407000611D711D409385045093860460938704ED
:1040800070938804238934892115310521F0C901F1
:10409000A0E0B0E004C080A191A1A2A1B3A19701CA
:1040A0008601041B150B260B370BB901A801480F1D
:1040B000591F6A1F7B1F04C07695679557954795D2
:1040C000CA95D2F7DB01CA010196A11DB11D8093EB
:1040D0008D0490938E04A0938F04B0939004453F79
:1040E0001FE051076105710528F48CE080937A0484
:1040F00080E017C0453F5F4F6105710510F480E116
:104100000DC084A595A5A6A5B7A58093910490930D
:104110009204A0939304B093940480E280937A0471
:1041200081E0CF911F910F91FF90EF90DF90CF90A2
:104130000895682F89E394E00C94FF194F925F92E1
:104140006F927F928F929F92AF92BF92CF92DF92A7
:10415000EF92FF921F93CF93DF93EC016A017B01F3
:104160009A01AB01C701B6010E94E631882319F01C
:104170006BE872E027C046015701E894B7F82FEFCB
:104180003FEF4FE75FE7C501B4010E94E6318111BF
:104190000DC02FEF3FEF4FE75FE7C501B4010E946D
:1041A0001C3018161CF46FE872E00CC02FEF3FEFC4
:1041B0004FE75FE4C701B6010E9474311816A4F4FA
:1041C00063E972E0CE01DF91CF911F91FF90EF90F4
:1041D000DF90CF90BF90AF909F908F907F906F9027
:1041E0005F904F900C9431032FEF3FEF4FE75FEC60
:1041F000C701B6010E941C3087FDE2CF20E030E00D
:10420000A901C701B6010E941C3087FF0AC06DE2F8
:10421000CE010E94DB1A5C01F7FAF094F7F8F094F3
:1042200002C0A12CB12C2AE037ED43EA5BE3C701C1
:10423000B6010E94B02F2B013C010E9493306B010C
:104240007C010E94C2309B01AC01C301B2010E94FB
:10425000AF2F2B013C012AE0B701A601CE010E943D
:104260007E1A7C01EA0CFB1C6EE2CE010E94DB1A76
:10427000E80EF91E13E0115021F120E030E040E299
:1042800051E4C301B2010E9479312B013C010E942B
:1042900093304B01A12CB12C2AE0B501A401CE0131
:1042A0000E947E1AE80EF91EC501B4010E94C230B8
:1042B0009B01AC01C301B2010E94AF2F2B013C0155
:1042C000DACFC701DF91CF911F91FF90EF90DF9080
:1042D000CF90BF90AF909F908F907F906F905F90A6
:1042E0004F900895BC018091DD0686958695837078
:1042F0008130D9F078F0823019F1833071F5072ED2
:10430000000C880B990B0E94C43023E333E343E88D
:1043100051E420C0072E000C880B990B0E94C4307A
:1043200020E030E043E053E415C0072E000C880B7A
:10433000990B0E94C43020E030E043E852E40AC008
:10434000072E000C880B990B0E94C43023E333E343
:1043500043E052E40E942130089560E070E0CB0118
:104360000895833081F028F4813099F08230A1F0F3
:1043700008958730A9F08830B9F08430D1F4809165
:1043800080008F7D03C0809180008F7780938000B4
:10439000089584B58F7702C084B58F7D84BD08955C
:1043A0008091B0008F7703C08091B0008F7D8093A3
:1043B000B00008953FB7F8948091F5069091F60605
:1043C000A091F706B091F80626B5A89B05C02F3F2F
:1043D00019F00196A11DB11D3FBFBA2FA92F982F2B
:1043E0008827820F911DA11DB11DBC01CD0143E0A5
:1043F000660F771F881F991F4A95D1F7089561327C
:1044000008F060E241E00E9423181092F3068093C6
:10441000F20608950F931F93FC01962FA081B1819E
:10442000ED91FC911197309761F0BA01892F1496A4
:104430000D911C91159721E030E040E050E0099586
:1044400002C082E090E01F910F910895CF93DF9317
:10445000AB01BC012AE08CE993E00E947E1AEC01DA
:104460008CE993E00E94C71A8C0F9D1FDF91CF91BA
:104470000895CF93DF93282F30E0F901E654FF4FE2
:104480008491F901EA55FF4FD491F901EE56FF4F9F
:10449000C491CC2391F081110E94B121EC2FF0E066
:1044A000EE0FFF1FE857FF4FA591B491EC91ED235C
:1044B00081E090E021F480E002C080E090E0DF91B4
:1044C000CF9108951F93CF93DF93282F30E0F90108
:1044D000E654FF4F8491F901EA55FF4FD491F90159
:1044E000EE56FF4FC491CC23C1F0162F81110E94CC
:1044F000B121EC2FF0E0EE0FFF1FE258FF4FA59126
:10450000B4919FB7F894111104C08C91D095D82321
:1045100002C0EC91DE2BDC939FBFDF91CF911F9106
:104520000895CF93DF9390E0FC01EA55FF4F24916B
:10453000FC01EE56FF4F8491882361F190E0880FD3
:10454000991FFC01EC58FF4FC591D491FC01E25832
:10455000FF4FA591B491611109C09FB7F89488816C
:10456000209582238883EC912E230BC0623061F466
:104570009FB7F8948881322F309583238883EC91FC
:104580002E2B2C939FBF06C08FB7F894E8812E2B5B
:1045900028838FBFDF91CF9108958E3008F08E5021
:1045A0008770806480937C0080917A00806480931F
:1045B0007A0080917A0086FDFCCF8091780020916E
:1045C000790090E0922B08958F929F92AF92BF92C4
:1045D000CF92DF92EF92FF926B017C010E94DA2171
:1045E0004B015C01C114D104E104F104F1F00E941B
:1045F000DA21DC01CB0188199909AA09BB09883E97
:104600009340A105B10570F321E0C21AD108E10879
:10461000F10888EE880E83E0981EA11CB11CC1141D
:10462000D104E104F10419F7DDCFFF90EF90DF90A2
:10463000CF90BF90AF909F908F9008951F920F9250
:104640000FB60F9211242F933F938F939F93AF93A5
:10465000BF938091EE069091EF06A091F006B09185
:10466000F1063091F40626E0230F2D3720F4029650
:10467000A11DB11D05C029E8230F0396A11DB11D81
:104680002093F4068093EE069093EF06A093F00635
:10469000B093F1068091F5069091F606A091F70689
:1046A000B091F8060196A11DB11D8093F506909377
:1046B000F606A093F706B093F806BF91AF919F91CD
:1046C0008F913F912F910F900FBE0F901F901895D3
:1046D000CF93DF93CDB7DEB7C459D1090FB6F894A5
:1046E000DEBF0FBECDBF789484B5826084BD84B533
:1046F000816084BD85B5826085BD85B5816085BDDD
:1047000080916E00816080936E0010928100809194
:10471000810082608093810080918100816080931C
:104720008100809180008160809380008091B10041
:1047300084608093B1008091B00081608093B0006C
:1047400080917A00846080937A0080917A00826000
:1047500080937A0080917A008E7F80937A00809196
:104760007A00806880937A001092C100E091AC03D7
:10477000F091AD0312E01083E091A803F091A9033A
:104780001082E091AA03F091AB0388E0808310923D
:10479000B403E091B003F091B10386E08083E0912F
:1047A000AE03F091AF03808180618083E091AE031E
:1047B000F091AF03808188608083E091AE03F09137
:1047C000AF03808180688083E091AE03F091AF03F6
:1047D00080818F7D808361E084E00E94912261E08E
:1047E00081E10E94912261E088E00E94912262E0D2
:1047F00080E10E94912260E083E00E94912260E0CB
:1048000085E10E94912262E087E00E94912261E0AE
:104810008FE00E94912261E089E00E94912260E095
:104820008EE00E94912260E084E10E94912261E08A
:1048300086E00E94912261E085E00E94912260E082
:104840008FE00E94622260E089E00E94622261E0C3
:1048500086E00E94622261E085E00E94622260E0C0
:1048600081E10E94622261E084E00E94622261E0B4
:1048700088E00E9462221092F3061092F2061092D3
:10488000B6021092B50210922E0381E080932D03A0
:104890001092280361E082E10E94622261E083E1DC
:1048A0000E9462228091B9008E7F8093B90080912E
:1048B000B9008D7F8093B90080E28093B80085E4D1
:1048C0008093BC0084EA99E19093B3028093B20292
:1048D00085EA99E19093B1028093B0021093B800F9
:1048E00032ECC32E36E0D32E0AE010E245E7242E48
:1048F00044E0342E50E4752E63E0662E73E4572EA8
:10490000E5E24E2E1092BF061092BC061092C10630
:10491000D092BE06C092BD060E946F017C01A0909D
:10492000BD06B090BE06D50112960C9361E08AE0F8
:104930000E94912261E0F50182810E946222BFB64D
:10494000F8948091D002811127C0ECE9F0E08491C5
:10495000E0EBF0E09491E82FF0E0EE0FFF1FEC5851
:10496000FF4FA591B4918C91982321F461E08AE0E6
:104970000E94622261E08AE00E9491228CB58061EF
:104980008CBD8CB580648CBD61E08DE00E9491226D
:1049900061E08BE00E9491228091D0028F5F809332
:1049A000D002BFBEE091BD06F091BE0622E5208395
:1049B00081E081838091BF06811104C08CEB96E079
:1049C0000E94F010E091BD06F091BE0661E0828188
:1049D0000E9462228AE0B82E8FEF0E940411BA94DE
:1049E000B110FACFE091BD06F091BE0660E0828181
:1049F0000E94622220E030E0A90160E08CEB96E0AA
:104A00000E942701813051F00E946F018E199F0989
:104A1000813D974078F31093BC068CC02AEA31E0C0
:104A200040E050E068E08CEB96E00E942701853082
:104A300011F481E00CC0B4E0BB2E0E9409118093F8
:104A4000C006BA94B110F9CF8A3A59F482E0809343
:104A5000C1068091C106823071F0812C912C5401E5
:104A60000FC00E946F018E199F09813D9740B0F2DF
:104A70004092BC065FC0812C912CA12CA0E4BA2EE0
:104A800020E030E0A90167E38CEB96E00E9427016B
:104A9000A501940169E28CEB96E00E94270188232E
:104AA00051F00E946F018E199F09813D974040F39C
:104AB0005092BC063FC08091C1068230D9F420E0FC
:104AC00030E0A9016AE38CEB96E00E94270188237D
:104AD00021F087E38093BC062DC00E940911807CE1
:104AE000803C11F46092C1060E9409110E940911D4
:104AF0000E9409118CEB96E00E941201E091BD0624
:104B0000F091BE0670E5708381E081838CEB96E0C6
:104B100090937604809375048CE996E00E94D70404
:104B200081E00E946C1F882351F080919C068111C6
:104B300029C00BC08CEB96E00E94120123C080E0DC
:104B40000E946C1F8111F1CF1DC0ECE9F6E0DF017E
:104B5000212F1D922A95E9F73092A3062092A206F2
:104B600080917A04803129F0803261F470929C0641
:104B700002C010939C0681E080939E0680919C0663
:104B8000807779F461E081E10E94622260E084E054
:104B90000E94622268EE73E080E090E00E94E422CE
:104BA000B1CECE018D960E945A1FAE014F5F5F4F6E
:104BB0006A01CA010E945A1F41E069E272E0CE0117
:104BC0000D960E940C16B601CE018D960E94E81536
:104BD00089AD882309F4C1C3C757DF4F19821882F2
:104BE000C958D0401E0159E5250E311C510163E022
:104BF000A60EB11C4E0177E7870E911CCE01875897
:104C00009F4FCF57DF4F99838883C158D040DE0133
:104C1000A158BF4FCD57DF4FB983A883C358D040A9
:104C2000FE01E358FF4FCB57DF4FF983E883C558A8
:104C3000D040AE0145585F4FC957DF4F5983488375
:104C4000C758D040D1011C9200E010E0CE01C996B7
:104C50000E94030D98018D3009F4D4C72F5F3F4F98
:104C6000F101E00FF11F8083843509F52D968CAD9D
:104C70009DADAEADBFAD2D97AC01BD014150510909
:104C800061097109C557DF4F488359836A837B8364
:104C9000CB58D0402E31310580F461E070E0C75729
:104CA000DF4F79836883C958D0408901CFCF2E3137
:104CB000310558F48A30C9F708C081E090E0C75741
:104CC000DF4F99838883C958D04021503109F101C1
:104CD000E20FF31F1082D1018C918F3209F405C3CA
:104CE0002230310508F401C3F10101900020E9F7F9
:104CF0003197E219F30932970CF4F7C2F101808180
:104D000091818834FCE49F0709F4ECC20CF074C074
:104D1000823544E4940709F444C20CF045C084345D
:104D200064E4960709F410C2ECF48035914409F06C
:104D3000DCC2DF92CF9282E492E09F938F93BF9286
:104D4000AF920E94A23269817A818B819C810E94FC
:104D5000C430609308017093090180930A01909315
:104D60000B01B5C28C34B4E49B0709F442C28D3404
:104D7000944409F0BAC2DF92CF9282E492E09F930A
:104D80008F93BF92AF920E94A23269817A818B8108
:104D90009C810E94C4306093260170932701809308
:104DA00028019093290193C28834F5E49F0709F400
:104DB00095C244F48335944409F097C281E080930E
:104DC000CB0293C2803559E4950709F417C28235A6
:104DD000994409F08AC2DF92CF9282E492E09F93D5
:104DE0008F93BF92AF920E94A23289819A81909351
:104DF000D3028093D2026BC2843470E5970709F422
:104E000040C294F58235BDE49B0709F453C2ACF46B
:104E100080359D4409F069C2DF92CF9282E492E02E
:104E20009F938F93BF92AF920E94A23289819A8101
:104E300090930301809302014AC284352DE49207C6
:104E400009F493C08334904509F04FC2DF92CF92AA
:104E500082E492E09F938F93BF92AF920E94A2321E
:104E6000898180932E0133C2803553E5950709F47B
:104E7000AFC1D4F4803572E5970709F4E9C18934EC
:104E8000934509F032C2DF92CF9282E492E09F9381
:104E90008F93BF92AF920E94A23289819A819093A0
:104EA00038018093370113C28035B4E59B0709F4BC
:104EB000B6C18335944509F018C2DF92CF929F9214
:104EC0008F92CE57DF4FF881C258D040FF93CF5713
:104ED000DF4F2881C158D0402F93CC57DF4F4881F6
:104EE000C458D0404F93CD57DF4F5881C358D0405E
:104EF0005F93CA57DF4F6881C658D0406F93CB5736
:104F0000DF4F7881C558D0407F93C857DF4F8881E5
:104F1000C858D0408F93C957DF4F9881C758D040A9
:104F20009F9383E392E09F938F93BF92AF920E94EF
:104F3000A232E980D4010C91EA962FADEA97C158CC
:104F4000DF4F4881CF57D040EE966FADEE97EC968D
:104F50008FADEC970E94FA066093D8027093D90245
:104F60008093DA029093DB02E9C0DF92CF929F92A6
:104F70008F92CE57DF4FF881C258D040FF93CF5762
:104F8000DF4F2881C158D0402F93CC57DF4F488145
:104F9000C458D0404F93CD57DF4F5881C358D040AD
:104FA0005F93CA57DF4F6881C658D0406F93CB5785
:104FB000DF4F7881C558D0407F93C857DF4F888135
:104FC000C858D0408F93C957DF4F9881C758D040F9
:104FD0009F9383E392E09F938F93BF92AF920E943F
:104FE000A232ED96AEADBFADED97C157DF4FB9839D
:104FF000A883CF58D040EF96EEADFFADEF97CF56D8
:10500000DF4FF983E883C159D040C158DF4F488052
:105010005980CF57D040E980FA80D4010D90BC91DF
:10502000A02DCD56DF4FB983A883C359D040EB964E
:105030006EAC7FACEB9781E08093B80288E68093FA
:10504000B7021092B6021092B50280E090E00E9482
:1050500099200AE010E0C701B8010E940F3224E055
:10506000660F771F2A95E1F78F709927862B972B6C
:105070000E949920CD56DF4F88819981C359D04035
:10508000B8010E940F3234E0660F771F3A95E1F7BE
:105090008F709927862B972B0E949920C301B80106
:1050A0000E940F326370772744E0660F771F4A959E
:1050B000E1F78F709927862B972B0E94992081E02A
:1050C00090E00E949920C201B8010E940F3254E082
:1050D000660F771F5A95E1F78F709927862B972BCC
:1050E0000E949920CF56DF4F88819981C159D040C5
:1050F000B8010E940F32E4E0660F771FEA95E1F7EE
:105100008F709927862B972B0E949920C157DF4FCC
:1051100088819981CF58D040B8010E940F32F4E0C5
:10512000660F771FFA95E1F78F709927862B972BDB
:105130000E94992089E394E00E94C51C0FB6F89460
:10514000DEBF0FBECDBFD1C0DF92CF9282E492E02E
:105150009F938F93BF92AF920E94A23229813A818E
:105160004B815C8160E871E581E090E00E94EB3169
:105170002B013C010E94C3078091CC029091CD028B
:10518000A091CE02B091CF02480E591E6A1E7B1E1E
:105190004092D8025092D9026092DA027092DB02F9
:1051A00096C0DF92CF9282E492E09F938F93BF925A
:1051B000AF920E94A23289819A81AB81BC81809397
:1051C0002F0190933001A0933101B09332017FC041
:1051D000DF92CF9282E492E09F938F93BF92AF923F
:1051E0000E94A23289819A81909336018093350181
:1051F0006EC0109234011092330177C0DF92CF92CB
:1052000082E492E09F938F93BF92AF920E94A2326A
:1052100089819A81909311018093100158C0DF9287
:10522000CF9282E492E09F938F93BF92AF920E94BD
:10523000A23269817A818B819C810E94C430609303
:105240000C0170930D0180930E0190930F013FC0EC
:10525000DF92CF9282E492E09F938F93BF92AF92BE
:105260000E94A23269817A818B819C810E94C43024
:1052700060930401709305018093060190930701E8
:1052800026C0DF92CF9282E492E09F938F93BF92E9
:10529000AF920E94A23269817A818B819C810E94A7
:1052A000C43060932A0170932B0180932C0190935A
:1052B0002D010DC0DF92CF9282E492E09F938F93F5
:1052C000BF92AF920E94A2328981809301010F9018
:1052D0000F900F900F900F900F9007C081E0809378
:1052E000000103C081E08093B402CE018D960E943C
:1052F000C300892B09F0A6CCCE01C9960E94D70421
:10530000C757DF4F48815981C958D040452B29F1F3
:10531000C6010E945A1F43E669E272E0CE010D9673
:105320000E940C16B601CE018D960E94E815C55755
:10533000DF4F488159816A817B81CB58D040CE01B3
:10534000C9960E94B00365E472E0CE018D960E947A
:10535000E21ACE01C9960E94D704209137013091FC
:1053600038016091350170913601C9010E940F32F8
:10537000709348046093470488EE93E0B9010E945B
:105380000F32709346046093450460ED77E080E04F
:1053900090E00E94E4220E9451094091C102509184
:1053A000C2026091C3027091C4028CE993E00E9432
:1053B0009E2068E472E08CE993E00E9431038CE95E
:1053C00093E00E94C71A0E94C3076AE472E08CE966
:1053D00093E00E94E21A6091CC027091CD0280911C
:1053E000CE029091CF020E9426226BE472E08CE9FB
:1053F00093E00E94E21A609112014AE050E08CE9C9
:1054000093E00E94CB1A66E872E08CE993E00E9478
:10541000E21A6091C6024AE050E08CE993E00E94F3
:10542000CB1A66E872E08CE993E00E94E21A609180
:10543000C5024AE050E08CE993E00E94CB1A8CE967
:1054400093E00E94C71A8CE993E00E94461968E82D
:1054500073E180E090E00E94E42281E08093B80252
:1054600080E48093B7021092B6021092B50280E0F9
:1054700090E00E94992089E394E00E94C51C62E0BC
:1054800070E080E090E00E94E42262E070E080E45E
:1054900090E00E94FF2162E070E080E090E00E94D6
:1054A000E42200E010E09091F2068091F306981754
:1054B00039F089E394E00E94B6190F5F1F4FF3CFD4
:1054C000012B89F461E089E00E94622268EB7BE0B5
:1054D00080E090E00E94E42260E089E00E94622285
:1054E0000AE010E048C00E94270964E170E080E013
:1054F00090E00E94E4220E948908812C912C5401A2
:1055000001E010E00E94270964E170E080E090E093
:105510000E94E4220E94890864E670E080E090E046
:105520000E94E4222091BD023091BE024091BF0250
:105530005091C002C501B4010E94B02F4B015C0123
:10554000B801012E000C880B990B0E94C4309B01FE
:10555000AC01C501B4010E9421306093B90270937F
:10556000BA028093BB029093BC020F5F1F4F0A30B8
:10557000110541F6A7CF64EF71E080E090E00E9452
:10558000E42201501109B9F760E086E00E9462222E
:1055900060E085E00E9462220E94C307811107C07B
:1055A00064E670E080E090E00E94E422F5CF809114
:1055B000CC029091CD02A091CE02B091CF02809307
:1055C000DC029093DD02A093DE02B093DF020E9422
:1055D000C307C6010E945A1F46E46EE472E0CE0182
:1055E0000D960E940C1666E572E0C6010E94E21A52
:1055F00066E171E0C6010E943103C6010E94C71A2C
:1056000064E672E0C6010E94E21A0EE010E091E248
:10561000F92EF801F0925700649140E150E0C60184
:105620000E94CB1A0F5F1F4F0831110591F7C60179
:105630000E94C71A609115014AE050E0C6010E941D
:10564000CB1A64E772E0C6010E94E21A609114016D
:105650004AE050E0C6010E94CB1A64E772E0C6013E
:105660000E94E21A609113014AE050E0C6010E94D4
:10567000CB1A66E772E0C6010E94E21A609112013D
:105680004AE050E0C6010E94CB1A66E872E0C6010B
:105690000E94E21A6091C6024AE050E0C6010E94F0
:1056A000CB1A66E872E0C6010E94E21A6091C50258
:1056B0004AE050E0C6010E94CB1AC6010E94C71AF8
:1056C000CE010D960E94D70460E088E00E9462221D
:1056D0008091D8029091D902A091DA02B091DB02B8
:1056E000892B8A2B8B2B99F48091CC029091CD023F
:1056F000A091CE02B091CF020596A11DB11D80935D
:10570000D8029093D902A093DA02B093DB026EE73D
:1057100072E08CE993E00E94E21A6091CC027091F1
:10572000CD028091CE029091CF020E94262268E79E
:1057300072E08CE993E00E94E21A6091D8027091C5
:10574000D9028091DA029091DB020E94262264E85D
:1057500072E08CE993E00E94E21A6091DC027091A1
:10576000DD028091DE029091DF020E9426226AE033
:1057700070E080E090E00E94E4220E94390980916C
:105780002E01893040F49FB7F89420E820936100FF
:10579000809361009FBF01E010E086EEE82E80E07C
:1057A000F82E8091E0029091E102892B09F04BC123
:1057B00061E088E00E9462220E94C30760E088E006
:1057C0000E9462228091CC029091CD02A091CE02E3
:1057D000B091CF024091DC025091DD026091DE0277
:1057E0007091DF02841B950BA60BB70B81319E4095
:1057F000A105B10520F0109234011092330180917F
:10580000330190913401892B71F061E084E00E94B2
:10581000622261E081E10E94622263E070E080E048
:1058200090E00E94E42260E084E00E94622260E056
:1058300081E10E94622283B7817F846083BF83B746
:10584000816083BF83B7816083BF889583B78E7F74
:1058500083BF83B78E7F83BF809164008071809304
:1058600064004091CC025091CD026091CE027091C3
:10587000CF028091D8029091D902A091DA02B09122
:10588000DB02481759076A077B0708F48ACF209183
:105890002F01309130014091310150913201ACE340
:1058A000B0E00E9454328090D8029090D902A0902B
:1058B000DA02B090DB02860E971EA81EB91E8092F7
:1058C000D4029092D502A092D602B092D7028090D4
:1058D000D8029090D902A090DA02B090DB024090FA
:1058E000D2025090D302052C000C66087708DC0128
:1058F000CB01840D951DA61DB71D880D991DAA1DF0
:10590000BB1D8093D8029093D902A093DA02B09382
:10591000DB020E94600C61E088E00E94622265E088
:1059200070E080E090E00E94E4222FEF41E069E324
:1059300074E085EC96E00E94F70D1093E10200936D
:10594000E002609145047091460400902E0102C06F
:10595000759567950A94E2F7072E000C880B990B52
:105960000E94D7170E94DA10F0922501E0922401DC
:10597000809169008C6080936900E99A12CF8091D0
:10598000CC029091CD02A091CE02B091CF02409175
:10599000DC025091DD026091DE027091DF02841B17
:1059A000950BA60BB70B81319E40A105B10520F0E8
:1059B00010923401109233014091CC025091CD02EB
:1059C0006091CE027091CF028091D4029091D50265
:1059D000A091D602B091D702481759076A077B07F2
:1059E000D0F580E10E943922892B09F480C0809192
:1059F000CC029091CD02A091CE02B091CF028090C6
:105A0000DC029090DD02A090DE02B090DF02BC01CB
:105A1000CD01681979098A099B090E94C23020E0EA
:105A200030EC48EA57E40E9421304B015C012091A0
:105A30002A0130912B0140912C0150912D010E949F
:105A4000743187FF8DC08091E0029091E10201974F
:105A500009F495CFD4C0809170008E7F8093700040
:105A600085E594E00E94D7048091D2029091D30200
:105A7000892BB1F58090D4029090D502A090D602E7
:105A8000B090D70220912F01309130014091310127
:105A900050913201ACE3B0E00E945432860E971E62
:105AA000A81EB91E8092D4029092D502A092D6026E
:105AB000B092D7020E94600C609145047091460438
:105AC00000902E0102C0759567950A94E2F7072EA3
:105AD000000C880B990B0E94D7170E94DA1081CF17
