:100000000C9468000C94CF220C94A8220C949000BD
:100010000C9490000C9490000C947C240C94900010
:100020000C9490000C9415240C9490000C94900067
:100030000C9490000C9490000C9490000C94900000
:100040000C945E220C9490000C942C220C940622AA
:100050000C9490000C9490000C9490000C949000E0
:100060000C94F6220C9490006364696E6F70737543
:1000700078585B0000000000250028002B000000DD
:1000800000002300260029000000000800020100F3
:100090000003040700000000000000000000000052
:1000A000240027002A0001020408102040800102D9
:1000B00004081020010204081020040404040404AD
:1000C0000404020202020202030303030303AD2538
:1000D00011241FBECFEFD8E0DEBFCDBF12E0A0E0FD
:1000E000B1E0E2ECF3E702C005900D92A238B1074F
:1000F000D9F726E0A2E8B2E001C01D92A93EB207FE
:10010000E1F710E0C8E6D0E004C02197FE010E94AC
:10011000D733C736D107C9F70E9425260C94DF399B
:100120000C940000BC018091D90686958695837059
:100130008130B1F040F08230F1F0833039F160E08D
:1001400070E0CB010895072E000C880B990B0E94DC
:100150003C3220E030E043E053E40E9499310895BE
:10016000072E000C880B990B0E943C3220E030E0F7
:1001700043E852E4F2CF072E000C880B990B0E9443
:100180003C3223E333E343E052E4E7CF072E000C95
:10019000880B990B0E943C3223E333E343E851E49C
:1001A000DCCFBC018091D90683708130B1F040F082
:1001B0008230F1F0833039F160E070E0CB010895D6
:1001C000072E000C880B990B0E943C322FE632E17F
:1001D00043E851E40E9499310895072E000C880BE2
:1001E000990B0E943C322FE632E143E051E4F2CF1A
:1001F000072E000C880B990B0E943C322FE632E14F
:1002000043E850E4E7CF072E000C880B990B0E94BF
:100210003C322FE632E143E050E4DCCFAB01BC01DD
:10022000809170008E7F809370008091B0008C7FF1
:100230008093B0008091B100877F8093B10080915E
:10024000B6008F7D8093B600809170008D7F809383
:1002500070008091B10084608093B1008091B10002
:100260008C7F8093B10083E890E090939703809314
:100270009603411551056105710599F481E090E0FF
:10028000A0E0B0E08093920390939303A093940333
:10029000B093950389E49EE190939103809390033A
:1002A0000895409392035093930360939403709343
:1002B0009503F0CF0F931F93FC01862FA081B1818E
:1002C000ED91FC911197309761F0BA0114960D9160
:1002D0001C9121E030E040E050E009951F910F9122
:1002E000089582E090E0FACF8091F7029091F602B3
:1002F000891B990B089508950895DC01ED91FC91F7
:100300000190F081E02D0994AF92BF92CF92DF92DD
:10031000EF92FF920F931F93CF93DF936C017B01BA
:100320008B01040F151FEB015E01AE18BF08C0174B
:10033000D10759F06991D601ED91FC910190F081BE
:10034000E02DC6010995892B79F7C501DF91CF9181
:100350001F910F91FF90EF90DF90CF90BF90AF90E3
:100360000895FC01538D448D252F30E0842F90E0BB
:10037000821B930B541710F0CF96089501970895A0
:10038000FC01918D828D981761F0A28DAE0FBF2F69
:10039000B11D5D968C91928D9F5F9F73928F90E0BF
:1003A00008958FEF9FEF0895FC01918D828D98172E
:1003B00031F0828DE80FF11D858D90E008958FEF6B
:1003C0009FEF0895FC01918D228D892F90E0805C34
:1003D0009F4F821B91098F739927089588E993E0B5
:1003E0000E94E20121E0892B09F420E0822F089588
:1003F00080E090E0892B29F00E94EE0181110C949D
:1004000000000895FC01A48DA80FB92FB11DA35AB7
:10041000BF4F2C91848D90E001968F739927848F24
:10042000A689B7892C93A089B1898C918370806447
:100430008C93938D848D981306C00288F389E02DE8
:1004400080818F7D80830895EF92FF920F931F9399
:10045000CF93DF93EC0181E0888F9B8D8C8D981377
:100460001AC0E889F989808185FF15C09FB7F89483
:10047000EE89FF896083E889F989808183708064CF
:1004800080839FBF81E090E0DF91CF911F910F911A
:10049000FF90EF900895F62E0B8D10E00F5F1F4F29
:1004A0000F731127E02E8C8D8E110CC00FB607FC38
:1004B000FACFE889F989808185FFF5CFCE010E94C6
:1004C0000202F1CFEB8DEC0FFD2FF11DE35AFF4F30
:1004D000F0829FB7F8940B8FEA89FB898081806254
:1004E000CFCFCF93DF93EC01888D8823B9F0AA8911
:1004F000BB89E889F9898C9185FD03C0808186FDDF
:100500000DC00FB607FCF7CF8C9185FFF2CF80812D
:1005100085FFEDCFCE010E940202E9CFDF91CF919E
:100520000895833081F028F4813099F08230A9F069
:1005300008958730A9F08830C9F08430B1F48091F3
:1005400080008F7D03C0809180008F778093800032
:10055000089584B58F7784BD089584B58F7DFBCFD2
:100560008091B0008F778093B00008958091B000A3
:100570008F7DF9CFCF93DF93282F30E0F901E85733
:10058000FF4F8491F901EA55FF4FD491F901E654E8
:10059000FF4FC491CC23A1F081110E949102EC2F56
:1005A000F0E0EE0FFF1FE258FF4FA591B491EC91E0
:1005B000ED2381E090E009F480E0DF91CF91089590
:1005C00080E090E0FACF1F93CF93DF93282F30E0A5
:1005D000F901E857FF4F8491F901EA55FF4FD49193
:1005E000F901E654FF4FC491CC23A9F0162F8111D5
:1005F0000E949102EC2FF0E0EE0FFF1FEC58FF4F2E
:10060000A591B4918FB7F894EC91111108C0D095D1
:10061000DE23DC938FBFDF91CF911F910895DE2BF6
:10062000F8CF6091820281E0682760938202809116
:10063000F502882319F081E10E94E302809185028E
:100640009091860201969093860280938502089588
:10065000CF93DF9390E0FC01EA55FF4F249186543D
:100660009F4FFC0184918823C9F090E0880F991F67
:10067000FC01E456FF4FA591B491FC01EC58FF4FEB
:10068000C591D49161110DC09FB7F8948C912095BC
:1006900082238C938881282328839FBFDF91CF9169
:1006A0000895623051F49FB7F8943C91822F809561
:1006B00083238C93E8812E2BEFCF8FB7F894EC91A6
:1006C0002E2B2C938FBFEACF8E50806480937C00BA
:1006D00080917A00806480937A0080917A0086FD10
:1006E000FCCF809178009091790008953FB7F894FD
:1006F0008091EC029091ED02A091EE02B091EF0298
:1007000026B5A89B05C02F3F19F00196A11DB11D6C
:100710003FBFBA2FA92F982F8827BC01CD01620FA8
:10072000711D811D911D43E0660F771F881F991F62
:100730004A95D1F708958F929F92AF92BF92CF9230
:10074000DF92EF92FF924B015C010E9476036B01F6
:100750007C010E9476036C197D098E099F09683E11
:10076000734081059105A8F321E0821A9108A10840
:10077000B10888EEC80E83E0D81EE11CF11C81147C
:100780009104A104B10429F7FF90EF90DF90CF907E
:10079000BF90AF909F908F90089508952091C402CC
:1007A000260F3327331F21323105ECF420916603E5
:1007B000FC0190E080E0243069F082E00895A0918F
:1007C000C4022191AC014C555D4FA40FB52FB11D52
:1007D0002C930196861798F38091C402680F60935A
:1007E000C40280E0089581E008951092660381E0DC
:1007F000809365031092400361E082E10E94E3026E
:1008000061E083E10E94E302E9EBF0E080818E7F0A
:10081000808380818D7F808380E28093B80085E42F
:100820008093BC000895CF93DF9391E09093A3024F
:100830008823B9F0C091B800D091BA008091BC0073
:100840008A7B8093BC0060E082E10E94E30260E06A
:1008500083E10E94E3020E94F503D093BA00C093A3
:10086000B800DF91CF9108958F929F92AF92BF927F
:10087000CF92DF92EF92FF920F931F93CF93DF936C
:10088000D0918F03D13208F0D7C0182FC0918E03BA
:100890000E9476036B017C018091660381116BC01D
:1008A00082E080936603109365038FEF8093640367
:1008B00010926303D0936203AEE6B3E0E2E4F3E0A8
:1008C00080E0D81391C01092410380914103CC0F76
:1008D000C82BC093410380914003813009F088C048
:1008E000109240030E9476036B017C0180914103CA
:1008F0008093BB008091680390916903A0916A0383
:10090000B0916B03892B8A2B8B2BA1F00E9476036D
:10091000009168031091690320916A0330916B0381
:100920006C197D098E099F090617170728073907D3
:1009300008F442C08091BC0083FDD8CF85EC809341
:10094000BC000E9476036B017C01809166038230BB
:1009500009F450C0809164038F3F09F46FC0809107
:100960006403803209F46CC080916403803309F41D
:1009700069C084E026C08091680390916903A091CA
:100980006A03B0916B03892B8A2B8B2B09F484CFDC
:100990000E9476038090680390906903A0906A0398
:1009A000B0906B036C197D098E099F098616970616
:1009B000A806B90608F070CF809167030E9413045F
:1009C00085E010926D0310928F0310926C03DF91FB
:1009D000CF911F910F91FF90EF90DF90CF90BF903C
:1009E000AF909F908F9008959D9191938F5F69CF65
:1009F00085EEA5CF8091680390916903A0916A0369
:100A0000B0916B03892B8A2B8B2B09F49ECF0E940C
:100A10007603009168031091690320916A03309175
:100A20006B036C197D098E099F09061717072807A4
:100A3000390708F08ACFC0CF81E0C3CF80E0C1CFB3
:100A400082E0BFCF83E0BDCF8F929F92AF92BF92E3
:100A5000CF92DF92EF92FF920F931F93CF93DF938A
:100A6000D82FC62F142F613208F09CC00E94760345
:100A70006B017C018091660381116FC081E08093DE
:100A80006603109365039FEF9093640310926303D2
:100A90009C0F909362038093410380914103DD0F8B
:100AA000D82BD093410380914003813009F07CC062
:100AB000109240030E9476036B017C0180914103F8
:100AC0008093BB008091680390916903A0916A03B1
:100AD000B0916B03892B8A2B8B2BA1F00E9476039C
:100AE000009168031091690320916A0330916B03B0
:100AF0006C197D098E099F09061717072807390702
:100B000008F44CC08091BC0083FDD8CF85EC809365
:100B1000BC000E9476036B017C01809166038130EA
:100B200009F444C0809163038C1710F4C0916303EF
:100B3000E2E4F3E0A0E2B3E080E08C1359C08C2F34
:100B4000DF91CF911F910F91FF90EF90DF90CF90A9
:100B5000BF90AF909F908F9008958091680390917F
:100B60006903A0916A03B0916B03892B8A2B8B2BAD
:100B700009F480CF0E947603809068039090690307
:100B8000A0906A03B0906B036C197D098E099F09D0
:100B900086169706A806B90608F06CCF8091670301
:100BA0000E941304C0E0CBCF85EEB1CF80916803E3
:100BB00090916903A0916A03B0916B03892B8A2BF2
:100BC0008B2B09F4AACF0E94760300916803109141
:100BD000690320916A0330916B036C197D098E09BA
:100BE0009F09061717072807390708F096CFD6CFB1
:100BF00091919D938F5FA1CF0895E091F60280912E
:100C0000F702E81730F4F0E0E05EFC4F808190E0FE
:100C100008958FEF9FEF08959091F6028091F7026B
:100C20002FEF3FEF981748F4E92FF0E0E05EFC4F1C
:100C3000208130E09F5F9093F602C9010895CF9222
:100C4000DF92EF92FF920F931F93CF93DF937C017C
:100C5000CB018A0120916C03222389F0EB016B0107
:100C6000C40ED51ECC15DD0569F06991D701ED9153
:100C7000FC910190F081E02DC7010995F3CF642F1D
:100C80000E94CE03C801DF91CF911F910F91FF9079
:100C9000EF90DF90CF900895CF93DF931F92CDB761
:100CA000DEB7698320916C032223F9F020918F0332
:100CB000203258F021E030E0FC013383228390E0C1
:100CC00080E00F90DF91CF91089580916D03E82F20
:100CD000F0E0E259FC4F998190838F5F80936D0320
:100CE00080938F0381E090E0ECCF61E0CE0101962C
:100CF0000E94CE03F7CF682F85E394E00C944C0656
:100D000081E00C943404CF93DF931F92CDB7DEB70C
:100D1000643078F420E1629FB00111246983AE0150
:100D20004F5F5F4F6FE70E945A010F90DF91CF91A5
:100D3000089583E090E0F9CF0F931F93FC01862F75
:100D4000BA01A081B1811296ED91FC911397309771
:100D500049F0A901980114960D911C9109951F91D4
:100D60000F91089582E090E0FACF8F929F92AF9218
:100D7000BF92EF92FF920F931F93CF93DF930115D2
:100D8000110591F1F801C58DD68D209769F14901C2
:100D90007B01682F878D91E090936C0380938E0385
:100DA00010926D0310928F03E881F9810190F08118
:100DB000E02DCE010995E881F9810280F381E02DD3
:100DC000A401B701CE010995CE010E94800690E0F2
:100DD00080E0DF91CF911F910F91FF90EF90BF9036
:100DE000AF909F908F90089583E090E0F2CF8F9224
:100DF0009F92AF92BF92CF92DF92EF92FF920F93AA
:100E00001F93CF93DF9300D000D0CDB7DEB75C0146
:100E1000822FF50120A3768F658F41A398E64111BB
:100E200099E6978F8F3F19F061E00E942803F50142
:100E300080A18F3F19F061A10E94E30285EB96E04B
:100E4000F50193A382A38DEA96E195A384A3B7A2AB
:100E5000A6A2C5018296938382836501F2E0CF0E3C
:100E6000D11C198260E0C6010E94830601E010E0F7
:100E700020E030E0AE014F5F5F4F60E0C6010E94AE
:100E80009C06009709F005C289818A3E19F084E02A
:100E900090E0FFC1F501148E138E60E0C6010E9440
:100EA000830601E010E020E030E0AE014F5F5F4FCD
:100EB00066E0C6010E949C06009751F48981806813
:100EC0008983AE014F5F5F4F66E0C6010E945A0101
:100ED000F501948F838F009709F0DBC162E370E026
:100EE00080E090E00E949B0360E0C6010E948306C0
:100EF00001E010E020E030E0AE014F5F5F4F66E0C0
:100F0000C6010E949C06009751F489818F7B8983DA
:100F1000AE014F5F5F4F66E0C6010E945A01F501C6
:100F2000948F838F009709F0B4C160E0C6010E94DE
:100F3000830601E010E020E030E0AE014F5F5F4F3C
:100F400066E0C6010E949C06009751F489818F7D5E
:100F50008983AE014F5F5F4F66E0C6010E945A0170
:100F6000F501948F838F009709F093C160E0C6016B
:100F70000E9483060097C1F401E010E020E030E019
:100F8000AE014F5F5F4F65E0C6010E949C0600976F
:100F900059F489818F7D8F7E8983AE014F5F5F4FCA
:100FA00065E0C6010E945A01F501948F838F009776
:100FB00009F06FC162E0C6010E9483067C0101E076
:100FC00010E020E030E0AE014F5F5F4F64E1C6010A
:100FD0000E949C06E82AF92A8981897F8983AE01CB
:100FE0004F5F5F4F64E1C6010E945A01E82AF92A67
:100FF00062E0C6010E948306E82AF92A01E010E0B7
:1010000020E030E0AE014F5F5F4F61E0C6010E941B
:101010009C06E82AF92A8981897F8983AE014F5F7E
:101020005F4F61E0C6010E945A018E299F29F50198
:10103000948F838F009709F02CC162E0C6010E9453
:1010400083067C0101E010E020E030E0AE014F5F5C
:101050005F4F64E1C6010E949C06E82AF92A898153
:1010600088638983AE014F5F5F4F64E1C6010E94D0
:101070005A01E82AF92A62E0C6010E948306E82A9A
:10108000F92A01E010E020E030E0AE014F5F5F4F51
:1010900061E0C6010E949C06E82AF92A89818863DA
:1010A0008983AE014F5F5F4F61E0C6010E945A0124
:1010B0008E299F29F501948F838F009709F0E9C04D
:1010C00061E0C6010E948624009709F0E2C062E058
:1010D000C6010E948624009709F0DBC060E0C601CB
:1010E0000E948306009719F4C6010E948525F50128
:1010F000948F838F60E0C6010E948306009709F0F9
:1011000043C0C6010E9485250097F1F563E0C60142
:101110000E9483060097C1F501E010E020E030E076
:10112000AE014E5F5F4F61E0C6010E949C060097D2
:1011300059F58A81807F876080618A83AE014E5F26
:101140005F4F61E0C6010E945A010097E9F460E038
:10115000C6010E9483060097B9F401E010E020E088
:1011600030E0AE014F5F5F4F63E0C6010E949C0616
:10117000009751F4898180628983AE014F5F5F4F90
:1011800063E0C6010E945A01F501948F838F85E0C8
:10119000F82E94E0892E912C21E0AE014F5F5F4F35
:1011A00060E0C6010E94D724F501948F838F1981D6
:1011B00021E0AE014F5F5F4F61E0C6010E94D7247E
:1011C0008981F501148E138E183411F4893039F1A8
:1011D000F501948E838E60E0C6010E94830600971D
:1011E000B9F401E010E020E030E0AE014F5F5F4F66
:1011F00063E0C6010E949C06009751F489818260D9
:101200008983AE014F5F5F4F63E0C6010E945A01C0
:10121000F501948F838FFA94F110BECF38CE88E019
:101220008C8320E0AE014C5F5F4F61E3C6010E94FA
:10123000D724F501948F838F009759F563E0C60199
:101240000E948306009711F58CE88B83AE014D5FF9
:101250005F4F63E0C6010E945A010097B9F480E134
:101260008A83AE014E5F5F4F64E0C6010E945A015F
:10127000009761F48981807489688F7B8983AE01CE
:101280004F5F5F4F65E0C6010E945A01F501948FE0
:10129000838FF501948F838F0F900F900F900F9095
:1012A000DF91CF911F910F91FF90EF90DF90CF9042
:1012B000BF90AF909F908F90089510929F021092D0
:1012C000A0021092A1021092A20210929E0280919E
:1012D0009603909197038093B200E0E7F0E080815D
:1012E000816080830895CF93DF93EC01E981FA81D7
:1012F000908181819CBD8DBDE981FA8160E0828110
:101300000E94E30281E08B83DF91CF9108958EBD2F
:101310000DB407FEFDCF08958FEF8EBD0DB407FE0F
:10132000FDCF8EB50895CF93DF93FC012381222357
:1013300061F0EC010180F281E02D61E082810E9488
:10134000E3028FEF0E9487091B82DF91CF910895FE
:101350002FB7F8948091E8029091E902A091EA02F7
:10136000B091EB022FBF0895CF93DF930E94A8099D
:10137000EC010E948C098F3F59F00E94A8098C1B38
:101380009D0B89359240A8F380E0DF91CF910895BD
:1013900081E0FBCFDF92EF92FF920F931F93CF93E9
:1013A000DF938C01C62FD22FF32EE42ED52EFC0115
:1013B0008381811103C0C8010E9473090E94B4098E
:1013C0008C2F80640E9487098D2D0E9487098E2DA5
:1013D0000E9487098F2D0E9487098D2F0E948709FF
:1013E00087E8C11101C085E90E948709CC3011F45A
:1013F0000E948C09C0E00E948C09F801848387FF59
:1014000004C0CF3F11F0CF5FF6CFDF91CF911F9196
:101410000F91FF90EF90DF9008950F931F93CF935C
:10142000DF93EC0189018D81833039F089E0440F2D
:10143000551F661F771F8A95D1F79A01AB0168E1A6
:10144000CE010E94CA09882319F082E3888337C03D
:101450008EEF0E948709F80180818EBD81813296CE
:101460001E5F0DB407FEFDCF8EBDE017F10711F032
:101470008191F7CF0DB407FEFDCF8FEF0E94870952
:101480008FEF0E9487090E948C098C838F718530B1
:1014900089F40E94B409182F89E51123B9F220E0DC
:1014A00030E0A9016DE0CE010E94CA09882361F0F5
:1014B00089E2CCCF86E58883CE010E949309CE01D4
:1014C0000E94930910E007C00E948C098111F0CF9F
:1014D000CE010E949309812FDF91CF911F910F912F
:1014E0000895EF92FF920F931F93CF93DF93EC0138
:1014F00089018D81833039F089E0440F551F661FC3
:10150000771F8A95D1F79A01AB0161E1CE010E9464
:10151000CA09882339F080E38883CE010E949309A9
:1015200080E037C00E94A8097C010E948C098C834E
:101530008F3F69F40E94A8098E199F098D3291404E
:10154000A0F384E58883CE010E949309E6CF8E3F05
:1015500011F080E5F7CF8FEF8EBDF801D801A150D3
:10156000BE4F9FEF0DB407FEFDCF8EB59EBD81939C
:10157000AE17BF07B9F70DB407FEFDCF8EB58C933C
:101580001C820E948C090E948C09CE010E94930942
:1015900081E0DF91CF911F910F91FF90EF9008951F
:1015A000EF92FF921F93CF93DF93FC01208111E014
:1015B00020FF14C0EC017C01F7E0EF0EF11C4B8121
:1015C0005C816D817E81E981FA81970180819181C1
:1015D0000E940D0A182F811108C010E0812FDF91A1
:1015E000CF911F91FF90EF900895888181FD04C0F5
:1015F00088818E7F8883F2CFE981FA814B815C817B
:101600006D817E8184859585A685B785480F591F94
:101610006A1F7B1F9701808191810E940D0A8111B1
:10162000E7CFDBCFCF92DF92EF92FF921F93CF9362
:10163000DF93EC016A017B01122F8B819C81AD81CC
:10164000BE818C159D05AE05BF05B1F0CE010E948F
:10165000D00A81110AC090E080E0DF91CF911F9104
:10166000FF90EF90DF90CF90089512FF0CC018828A
:10167000CB82DC82ED82FE8213708881182B188366
:10168000CE010796EACFE981FA819E01295F3F4F9B
:10169000B701A601808191810E94710A8111E7CF73
:1016A000DACF8F929F92AF92BF92CF92DF92EF925A
:1016B000FF920F931F931092760441E050E060E098
:1016C00070E04093790450937A0460937B047093A4
:1016D0007C0421E734E03093930420939204109229
:1016E00091044FEF5FEFBA01409394045093950437
:1016F0006093960470939704882309F450C020E007
:1017000040E050E0BA0181E994E00E94120B00979A
:1017100061F480E01F910F91FF90EF90DF90CF90E8
:10172000BF90AF909F908F900895FC01E254FE4FC0
:1017300020812F7771F78A539E4FFC01C080D180A2
:10174000E280F380C114D104E104F10411F320E03C
:10175000B701A60181E994E00E94120BFC01892BDC
:10176000C1F2838594858115924099F680898230F3
:1017700081F686859785892B61F2258520937304F0
:101780008FEF820F8093740480E091E0291769F055
:101790008F5F893041F488E080937504BACFC12C03
:1017A000D12C7601D4CF990FF1CF8093750446895F
:1017B000578970E060E04115510521F444A155A11D
:1017C00066A177A140937D0450937E0460937F04CB
:1017D000709380042685378546015701820E931E3B
:1017E000A11CB11C8092850490928604A09287046B
:1017F000B092880421893289309378042093770449
:10180000440F551F661F771F480D591D6A1D7B1D0C
:1018100040938D0450938E0460938F0470939004D2
:1018200021893289A5E0220F331FAA95E1F72150C3
:101830003E4F232F33272695420F531F611D711DE5
:1018400040938104509382046093830470938404D2
:101850000389148930E020E00115110521F400A16D
:1018600011A122A133A1C41AD50AE60AF70AC00EB3
:10187000D11EE21EF31E04C0F694E794D794C794D9
:101880008A95D2F7D701C6010196A11DB11D80939B
:10189000890490938A04A0938B04B0938C0485EF01
:1018A000C8168FE0D806E104F10420F48CE08093A0
:1018B00076042FCF80E125EFC2162FEFD206E10488
:1018C000F10468F084A595A5A6A5B7A580938D041D
:1018D00090938E04A0938F04B093900480E2809341
:1018E000760481E017CF8F929F92AF92BF92CF92F2
:1018F000DF92EF92FF920F931F936A017B014801E1
:101900005901FC012581203299F504891589268920
:101910003789E7E07695679557954795EA95D1F72A
:10192000400F511F621F731F23E080960E94120B0D
:10193000009761F480E01F910F91FF90EF90DF908E
:10194000CF90BF90AF909F908F900895E894C7F884
:10195000DD24EE24FF24CC0CDD1CCC0CDD1C8C0D16
:101960009D1DFC0180829182A282B38281E0E3CF3F
:10197000203101F744895589668977894D0D511DBC
:10198000611D711D23E080960E94120B009791F259
:10199000DD24EE24FF24CC0CDD1CC80ED91EF6017C
:1019A00011830083E3CFCF92DF92EF92FF920F93E8
:1019B0001F93CF93DF93EC016A017B0189018D8135
:1019C000803209F041C08C899D89AE89BF89E7E0EA
:1019D0007695679557954795EA95D1F7480F591F22
:1019E0006A1F7B1F22E0CE0180960E94120B009797
:1019F00051F48FEFDF91CF911F910F91FF90EF90F6
:101A0000DF90CF900895E894C7F8DD24EE24FF24FA
:101A1000CC0CDD1CCC0CDD1C8C0D9D1DFC018081D3
:101A20009181A281B381BF70488D598D6A8D7B8D64
:101A3000481759076A077B0728F1F80180839183CB
:101A4000A283B38381E0D6CF803199F64C895D893A
:101A50006E897F894D0D511D611D711D22E0CE01E2
:101A600080960E94120B009721F2DD24EE24FF24C1
:101A7000CC0CDD1CC80ED91EF60180819181B0E02E
:101A8000A0E0D2CF80E0B6CF0F931F93CF93DF9328
:101A9000FC012081211106C081E0DF91CF911F91CF
:101AA0000F910895EC01828187FF4DC044895589CB
:101AB000668977898681978121E080960E94120B42
:101AC000009729F489818160898380E0E6CF0C81C9
:101AD0001D810F70112725E0000F111F2A95E1F7D6
:101AE000080F191F0115110569F3F8018081853E62
:101AF00049F3888183FF08C0888D998DAA8DBB8D9D
:101B0000848F958FA68FB78F8C8D9D8DF801938FC5
:101B1000828F8C8D9D8DAE8DBF8DB58BA48BE0910A
:101B20009C02F0919D02309759F0B8016A5E7F4F98
:101B3000C80148960995F801808D918D938B828B11
:101B40008A818F778A838E819F8180960E94D00AB6
:101B5000882309F4B7CFA0CF4F925F926F927F9204
:101B60008F929F92AF92BF92CF92DF92EF92FF92AD
:101B70000F931F93CF93DF93EC014A015B014C84D9
:101B80005D846E847F84A881AA2309F486C0488975
:101B900059896A897B89481559056A057B0569F069
:101BA00081149104A104B10451F41C861D861E8683
:101BB0001F86888A998AAA8ABB8A81E073C0A3FF9C
:101BC00059C0088D198D2A8D3B8D081519052A05D8
:101BD0003B0508F462C0EE81FF81848190E00996A4
:101BE0008A019B010150110921093109082E04C005
:101BF00036952795179507950A94D2F775016401D4
:101C0000B1E0CB1AD108E108F10804C0F694E794DA
:101C1000D794C7948A95D2F7C016D106E206F30688
:101C200028F0452B462B472B09F052C0A6FF4BC08E
:101C3000848D958DA68DB78D8C879D87AE87BF8748
:101C40008E01045F1F4FC114D104E104F10409F4B3
:101C5000B0CF4C855D856E857F8598018E819F8193
:101C60000E94D30C91E0C91AD108E108F1081816B6
:101C700054F313C0A5FFAFCFEE81FF81868197811A
:101C800025E0880F991F2A95E1F7B0E0A0E08815BC
:101C90009905AA05BB0508F08CCF4C865D866E863B
:101CA0007F8680E0DF91CF911F910F91FF90EF90A1
:101CB000DF90CF90BF90AF909F908F907F906F906C
:101CC0005F904F9008958C8D9D8DAE8DBF8DB4CF5C
:101CD000C01AD10AE20AF30AB3CFCF93DF93EC0123
:101CE0000E94440D1882DF91CF9108953F924F9248
:101CF0005F926F927F928F929F92AF92BF92CF929C
:101D0000DF92EF92FF920F931F93CF93DF93CDB7A4
:101D1000DEB728970FB6F894DEBF0FBECDBF4C01DB
:101D2000DC0112968C911297806812968C93129710
:101D30001696AD90BC9017971C964D905D906D9047
:101D40007C901F97411451046104710409F05AC03A
:101D5000D50118968D919D910D90BC91A02D8D83EC
:101D60009E83AF83B887CD80DE80EF80F884BFEF9D
:101D7000CB1ADB0AEB0AFB0AF501808D918DA28D4F
:101D8000B38D8C159D05AE05BF0528F482E0C82EE5
:101D9000D12CE12CF12C9E012F5F3F4FB701A60102
:101DA000C5010E94D30C87FD13C0882341F08981AF
:101DB0009A81AB81BC81892B8A2B8B2B41F18D8140
:101DC0009E81AF81B885C816D906EA06FB0679F66A
:101DD000312C832D28960FB6F894DEBF0FBECDBFF1
:101DE000DF91CF911F910F91FF90EF90DF90CF90F7
:101DF000BF90AF909F908F907F906F905F904F902B
:101E00003F9008954D825E826F827886ACCF0FEF4F
:101E10001FEF2FEF3FE0B701A601C5010E94730C31
:101E2000382E8823A9F2411451046104710479F019
:101E300097018601B301A201C5010E94730C88239A
:101E400039F2F401C486D586E686F786C2CFD5017D
:101E50001896CD92DD92ED92FC921B97F2CF8F9265
:101E60009F92AF92BF92CF92DF92EF92FF920F9329
:101E70001F93CF93DF9360910603709107038091C6
:101E800008039091090320919802309199024091A2
:101E90009A0250919B020E94EC32181684F48091B1
:101EA000060390910703A0910803B0910903809362
:101EB000980290939902A0939A02B0939B0260912A
:101EC000060370910703809108039091090320E0B5
:101ED00030E040EA51E40E94943187FF10C08091C5
:101EE000060390910703A0910803B0910903809322
:101EF000980290939902A0939A02B0939B028091CA
:101F00009702823031F5609106037091070380914A
:101F1000080390910903209103013091040140913D
:101F20000501509106010E94943187FF12C08091F3
:101F3000060390910703A0910803B09109038093D1
:101F4000980290939902A0939A02B0939B021092E8
:101F50009702809196028111D9C060910603709119
:101F600007038091080390910903C0901A03D09051
:101F70001B03E0901C03F0901D0380909202909050
:101F80009302A0909402B0909502C1E020910F01BD
:101F90003091100140911101509112010E94EC32D8
:101FA00018160CF0C0E081E090919702911180E04A
:101FB000C823D1F0C701B601681979098A099B09BC
:101FC0002CE330E040E050E00E949B33809113010D
:101FD00090911401B0E0A0E082179307A407B50721
:101FE00018F481E08093970211E08091970281308C
:101FF00009F010E08090980290909902A0909A02C7
:10200000B0909B0220910603309107034091080392
:1020100050910903C0909002D0909102E09001018C
:10202000F0900201C0918F02C501B4010E942731D6
:10203000D1E02091070130910801409109015091B0
:102040000A010E94EC3218160CF0D0E001E0C02723
:10205000C123CD2369F0CE14DF0450F461E086E0A3
:102060000E94E30261E089E00E94E30200938F0294
:102070002091060330910703409108035091090312
:10208000C0909002D0909102C501B4010E94273106
:10209000C1E020910B0130910C0140910D01509154
:1020A0000E010E94EC3218160CF0C0E081E0CE1454
:1020B000DF0408F080E0C82309F493C0112309F479
:1020C00090C0C1E0C093960261E085E00E94E30207
:1020D000C0938E0280911A0390911B03A0911C0360
:1020E000B0911D038093920290939302A093940267
:1020F000B093950282E08093970280919002909134
:1021000091020196909391028093900280919202A5
:1021100090919302A0919402B091950240911A037C
:1021200050911B0360911C0370911D032091960236
:102130002130B9F40A96A11DB11D84179507A60791
:10214000B70778F484E10E946403883C91054CF45D
:1021500060E085E00E94E30210928E0282E08093AC
:10216000960280919602823079F560911A037091FF
:102170001B0380911C0390911D030091920210910A
:1021800093022091940230919502601B710B820B97
:10219000930B2CE330E040E050E00E949B338091B1
:1021A0000001281788F060E089E00E94E3028EE0D9
:1021B0000E94BA02892B41F460E086E00E94E302AB
:1021C00010928F0210929602DF91CF911F910F9182
:1021D000FF90EF90DF90CF90BF90AF909F908F9047
:1021E00008958091920290919302A0919402B091EF
:1021F000950280911A0390911B03A0911C03B0914A
:102200001D03AFCF3F924F925F926F927F928F925A
:102210009F92AF92BF92CF92DF92EF92FF920F9375
:102220001F93CF93DF93CDB7DEB760970FB6F894C7
:10223000DEBF0FBECDBF162F342E822E9E2C9CE00B
:10224000EDE3F1E09E012F5F3F4F5901D90101906D
:102250000D929A95E1F7282F30E0225E3F4F032E32
:10226000000C440B550B69017A0192E0F594E79458
:10227000D794C7949A95D1F7837049F480E8482E93
:1022800081E5582E66246394712C633018F4412C38
:10229000512C32012C193D094E095F0960E873E3A6
:1022A00081EE91E00E9463336D877E878F87988BE4
:1022B000A701960160E075E882EE91E00E94633329
:1022C000CD84DE84EF84F888C60ED71EE81EF91E82
:1022D0004C0C5D1C6E1C7F1CF501812F8150990BED
:1022E0007C01CF018A199B098E159F056CF4A19181
:1022F000B0E020E831E541E050E00E94CC33460EEA
:10230000571E681E791EEDCF202F30E0ACE3B0E001
:102310000E94BD336B017C01C90CD11CE11CF11C76
:10232000282D30E0A0E1BEE00E94BD33C60ED71ECE
:10233000E81EF91EA32DB0E020E831E541E050E0B1
:102340000E94CC336C0D7D1D8E1D9F1D640D751D6F
:10235000861D971D60960FB6F894DEBF0FBECDBFE9
:10236000DF91CF911F910F91FF90EF90DF90CF9071
:10237000BF90AF909F908F907F906F905F904F90A5
:102380003F90089581E080936C0380E480938E03F6
:1023900010926D0310928F038CEA90E00E947B06EE
:1023A00085E394E00C94800684B7877F84BFE0E6E1
:1023B000F0E080818861808386E080838081806412
:1023C0008083089585E10E946403BC01990F880B06
:1023D000990B0E943C3227E230EA49E85BE30E9415
:1023E000F132609300037093010380930203909392
:1023F00003030895E09116014091170120911801FF
:1024000030E02C5E3F4F322F2227330FF0E24F9FF8
:10241000A00111244E2B242B352BFC01318320836A
:1024200020910403409105038091150190E0982FBD
:102430008827990F990F990FF0E24F9FA00111245F
:10244000842B952B30E035952795822B932BFB0120
:10245000918380830895CF93DF93EB0120E2FB010A
:102460003C96DC011C9601900D922A95E1F72A8199
:102470003B81FC01338322834C815D816E817F81AE
:102480004483558366837783488559856A857B8530
:102490004087518762877387DF91CF9108950C96AB
:1024A0000C94440DFC01848583FF17C084A195A181
:1024B000A6A1B7A1448D558D668D778D841B950B94
:1024C000A60BB70B811520E89207A105B10520F0F6
:1024D0008FEF9FE7A0E0B0E0089580E090E0DC019E
:1024E000F1CF90E080E008958F929F92AF92BF92DB
:1024F000DF92EF92FF920F931F93CF93DF93EC0144
:102500007B012881222309F4BBC08A8180FFB8C0E7
:1025100088889988AA88BB8823FF21C0888D998DD7
:10252000AA8DBB8D88199909AA09BB09823091052A
:10253000A105B10518F5009709F530E020E0A901E3
:10254000481B590BCA01DF91CF911F910F91FF904A
:10255000EF90DF90BF90AF909F908F90089525FFF0
:102560000DC0EE81FF818681978135E0880F991F2C
:102570003A95E1F78815990509F488C0840111702E
:10258000EE81FF81B501A40189E0769567955795A5
:1025900047958A95D1F725FF27C0848D958DA68D07
:1025A000B78D480F591F6A1F7B1F8E819F8120E0C6
:1025B00080960E94120B009709F462C0800F911F51
:1025C000FC018081F701808388899989AA89BB8968
:1025D0000196A11DB11D888B998BAA8BBB8B21E025
:1025E00030E090E080E0ABCFD380D422011511051C
:1025F00081F4D1100EC089288A288B2881F526FF06
:1026000029C0848D958DA68DB78D8C879D87AE87CB
:10261000BF87EE81FF814C855D856E857F85425049
:10262000510961097109848104C0440F551F661F57
:10263000771F8A95D2F780899189A289B389840FFF
:10264000951FA61FB71FAC01BD014D0D511D611D8A
:10265000711DABCF8C8D9D8DAE8DBF8DD6CF4C8532
:102660005D856E857F859E01245F3F4FCF010E946F
:10267000D30C87FD05C08111CCCF8881807749F4C8
:102680008981826089838FEF9FEF5DCF30E020E00A
:10269000A8CF21E030E081E090E051CFEF92FF92AF
:1026A0000F931F93CF93DF931F92CDB7DEB77C01BB
:1026B000962FF70140895189628973898A019B01AC
:1026C00085E036952795179507958A95D1F70F7070
:1026D00011F0911129C0BE016F5F7F4FC7010E94A9
:1026E0007412813051F090E080E00F90DF91CF9133
:1026F0001F910F91FF90EF900895F70180899189C4
:10270000A289B3894F96A11DB11D808B918BA28B9D
:10271000B38BF701868197818796F0E20F9F900136
:102720001124820F931FE1CF405E5F4F6F4F7F4FA9
:10273000408B518B628B738BECCFCF93DF931F92C7
:10274000CDB7DEB7BE016F5F7F4F0E947412019755
:1027500031F4898190E00F90DF91CF9108958FEF50
:102760009FEFF9CF0C960C949D138F929F92AF928E
:10277000BF92CF92DF92EF92FF92CF93DF93EC0163
:102780008C8C9D8CAE8CBF8CC88CD98CEA8CFB8CCD
:102790000C960E949D1397FD08C08C8E9D8EAE8E68
:1027A000BF8EC88ED98EEA8EFB8EDF91CF91FF90BF
:1027B000EF90DF90CF90BF90AF909F908F90089553
:1027C0002F923F924F925F926F927F928F929F9241
:1027D000AF92BF92CF92DF92EF92FF920F931F932F
:1027E000CF93DF93EC015B014A01888183FFC5C071
:1027F0008A8181FFC2C082FDB7C0A40170E060E0A1
:1028000088899989AA89BB8980959095A095B0956A
:1028100084179507A607B70708F4AFC064011E0127
:102820008CE0280E311C088919892A893B89C1143A
:10283000D10409F4E1C08E819F81B901A80129E08A
:1028400076956795579547952A95D1F7DC011396AC
:10285000FC90F4221170F1101BC04C855D856E85D3
:102860007F850115110509F0FBC041155105610572
:10287000710509F488C091010E94D30C87FD7DC0C9
:10288000811106C0CE010E94760E882309F475C01E
:10289000EE81FF814C855D856E857F8542505109B3
:1028A00061097109848104C0440F551F661F771F99
:1028B0008A95D2F780899189A289B389840F951F5F
:1028C000A61FB71FAC01BD014F0D511D611D711D2C
:1028D0000115110529F4C114B2E0DB0608F06EC041
:1028E00080E092E0801B910B76018C159D0508F429
:1028F0007C010115110571F4488859886A887B8824
:10290000888D998DAA8DBB8D25E0481659066A06DB
:102910007B0608F421E0CF0180960E94120B0097FD
:1029200061F1A701B501800F911F0E94EA330E0DDE
:102930001F1D0115124039F48E819F8180960E94DF
:10294000D00A8823D1F088899989AA89BB898E0DFC
:102950009F1DA11DB11D888B998BAA8BBB8BAE0CC3
:10296000BF1CCE18DF085FCF488D598D6A8D7B8DD7
:10297000CE010E94AC0D811140CF89818160898395
:102980008FEF9FEF54C08C8D9D8DAE8DBF8D0097C6
:10299000A105B10571F4CE010E94760E882369F37A
:1029A0008C859D85AE85BF858C8F9D8FAE8FBF8FAB
:1029B0006FCF8C879D87AE87BF876ACF83A194A195
:1029C000A5A1B6A1481759076A077B0741F410A2D1
:1029D0008FEF9FEFDC0183A394A3A5A3B6A3EE81A1
:1029E000FF819501808191810E940D0A882329F23F
:1029F000E12C82E0F82EA7CF8A81488D598D6A8D0F
:102A00007B8D401751076207730738F4088F198FC1
:102A10002A8F3B8F80688A8306C020919C02309168
:102A20009D02232BB9F78A8183FD14C0C401DF9175
:102A3000CF911F910F91FF90EF90DF90CF90BF90BB
:102A4000AF909F908F907F906F905F904F903F904E
:102A50002F900895CE010E94440D8111E7CF8DCFB4
:102A6000FC014250510961097109848104C0440F7D
:102A7000551F661F771F8A95D2F780899189A28991
:102A8000B389480F591F6A1F7B1F2ACF0C960C94DD
:102A9000E013CF93DF931F92CDB7DEB7698341E098
:102AA00050E0BE016F5F7F4F0C960E94E0130F90C5
:102AB000DF91CF910895AF92BF92CF92DF92EF92C4
:102AC000FF920F931F93CF93DF9300D000D000D0DD
:102AD0001F92CDB7DEB781E080936C0388E68093C8
:102AE0008E0310926D0310928F0390E080E00E949D
:102AF0007B0680E00E94340440E067E088E60E94A4
:102B00002405F82E1092F6028093F702CE0101966A
:102B10006C018C015801AC18BD088091F602F816C2
:102B200041F085E394E00E940C06F80181938F0147
:102B3000F1CF85E394E00E94800680E0F7E0AF16D5
:102B4000B10409F059C08981282F22952F709AE08D
:102B50008F70299F800D1124809304038A81282F70
:102B600022952F708F70299F800D1124809305036B
:102B70008B81282F30E044E0359527954A95E1F781
:102B800023708F70299F800D1124809315018D81F2
:102B9000282F22952F708F70299F800D11248093EC
:102BA00016018E81282F22952F708F70299F800DFE
:102BB0001124809317018F81282F22952F708F70F9
:102BC000299F800D112480931801E0900403009147
:102BD0000503209115014091160160911701809124
:102BE00018010E94021160931A0370931B038093D3
:102BF0001C0390931D0381E027960FB6F894DEBF67
:102C00000FBECDBFDF91CF911F910F91FF90EF903D
:102C1000DF90CF90BF90AF900895CF92DF92EF9268
:102C2000FF920F931F93CF93DF9300D000D01F929A
:102C3000CDB7DEB741E065E080E40E942405F82EC0
:102C40001092F6028093F7028E010F5F1F4F809162
:102C5000F602F81641F085E394E00E940C06F801B4
:102C600081938F01F4CF6A817B817627672776274E
:102C700090E080E00E943A3220E030E040E856E404
:102C80000E94273120E030E048E453E40E94F13212
:102C900020E030E040E058E30E94F13220E030E0F4
:102CA000A9010E94283120E030E04AE754E40E9464
:102CB000F1326B017C012091F8023091F9024091D0
:102CC000FA025091FB020E94273126E031EC4EEDD2
:102CD00052E40E9499316093060370930703809336
:102CE0000803909309036C817D81762767277627F7
:102CF00084E0769567958A95E1F76851710990E0CF
:102D000080E00E943A322DEC3CEC4CE45DE30E9402
:102D1000F13220E030E048E452E40E942731609331
:102D20008A0270938B0280938C0290938D02C092E2
:102D3000FC02D092FD02E092FE02F092FF020F90A0
:102D40000F900F900F900F90DF91CF911F910F91E7
:102D5000FF90EF90DF90CF9008958F929F92AF9267
:102D6000BF92DF92EF92FF920F931F93CF93DF9367
:102D70000115110509F44EC0D8015D96ED90FC9047
:102D8000E114F10409F446C0F80149015A01D72EB3
:102D9000162F682FC78D81E080936C03C0938E033C
:102DA00010926D0310928F03D701ED91FC91019069
:102DB000F081E02DC701099580E00E943404682D60
:102DC000613208F060E241E08C2F0E9424051092ED
:102DD000F6028093F70290E0B0E0A0E08816990632
:102DE000AA06BB0629F5012FC12FDD2D8C2F801BD4
:102DF00090E0B0E0A0E088159905AA05BB05D8F4DD
:102E0000D701ED91FC910284F385E02DC70109956E
:102E10008993ECCF83E090E0DF91CF911F910F91E8
:102E2000FF90EF90DF90BF90AF909F908F900895AC
:102E300086E090E0F1CF90E080E0EECFFB010190E2
:102E40000020E9F73197AF01461B570BDC01ED91EC
:102E5000FC910280F381E02D09946DEA71E00C94FD
:102E60001E178F929F92AF92BF92EF92FF920F9395
:102E70001F93CF93DF93CDB7DEB7A1970FB6F8942A
:102E8000DEBF0FBECDBF7C01FA01CB0119A22230FB
:102E900008F42AE08E010F5D1F4F822E912CB12C79
:102EA000A12CBF01A50194010E949B33F901CA0125
:102EB0006A300CF5605DD8016E938D01232B242BB5
:102EC000252B79F790E080E0109721F0BD01C70134
:102ED0000E941E17A1960FB6F894DEBF0FBECDBF9D
:102EE000DF91CF911F910F91FF90EF90BF90AF9026
:102EF0009F908F900895695CDECF242F462F50E07D
:102F000070E060E00C943117CF92DF92EF92FF9265
:102F1000CF93DF936C01990FEE08FF08F7FE1BC0FB
:102F20006DE285E494E00E947D01EC014427552781
:102F3000BA014C195D096E097F092AE085E494E025
:102F40000E9431178C0F9D1FDF91CF91FF90EF9062
:102F5000DF90CF9008952AE0B701A60185E494E0C0
:102F6000DF91CF91FF90EF90DF90CF900C943117CD
:102F70008F929F92AF92BF92CF92DF92EF92FF9289
:102F80000F931F93CF93DF93EC016A017B01AB0199
:102F90009601CB01B6010E945E3360EB71E08111B6
:102FA00026C046015701E894B7F82FEF3FEF4FE7EF
:102FB0005FE7C501B4010E945E3381110CC02FEFA1
:102FC0003FEF4FE75FE7C501B4010E94943164EB26
:102FD00071E0181664F02FEF3FEF4FE75FE4C70191
:102FE000B6010E94EC3218168CF468EB71E0CE0149
:102FF000DF91CF911F910F91FF90EF90DF90CF90D5
:10300000BF90AF909F908F900C941E172FEF3FEFC3
:103010004FE75FECC701B6010E94943187FDE5CF11
:1030200020E030E0A901C701B6010E94943110E010
:1030300000E087FF09C06DE2CE010E947D018C0196
:10304000F7FAF094F7F8F0942AE037ED43EA5BE3FF
:10305000C701B6010E9428316B017C010E940B322E
:103060004B015C010E943A329B01AC01C701B601E1
:103070000E9427316B017C012AE0B501A401CE0139
:103080000E943117080F191F6EE2CE010E947D01C8
:10309000080F191F20E030E040E251E4C701B601FB
:1030A0000E94F1324B015C010E940B326B01F12C4A
:1030B000E12C2AE0B701A601CE010E943117080FCA
:1030C000191FC701B6010E943A329B01AC01C5012C
:1030D000B4010E94273120E030E040E251E40E9438
:1030E000F1320E940B32AB0170E060E02AE0CE01C9
:1030F0000E943117800F911FDF91CF911F910F9187
:10310000FF90EF90DF90CF90BF90AF909F908F9007
:1031100008950C941E17FC01808181110FC080E27C
:10312000DF01982F1D929A95E9F777836683DB017B
:1031300015969C91903129F0903211F080E008951D
:1031400080E4808381E08283089585ED8093BC00D4
:103150008091680390916903A0916A03B0916B0319
:103160000796A11DB11D23E0B695A7959795879564
:103170002A95D1F72091BC0024FD03C0109266036C
:103180000895409168035091690360916A037091BA
:103190006B03452B462B472B69F30097A105B1051F
:1031A00041F02AE12A95F1F700C00197A109B10980
:1031B000E1CF809167030C9413042F923F924F92BA
:1031C0005F926F927F928F929F92AF92BF92CF92B7
:1031D000DF92EF92FF920F931F93CF93DF93CDB7C0
:1031E000DEB729970FB6F894DEBF0FBECDBF1C0126
:1031F0007C836B83FA01DB018C918077D1F480E0D2
:1032000029960FB6F894DEBF0FBECDBFDF91CF91E8
:103210001F910F91FF90EF90DF90CF90BF90AF90F4
:103220009F908F907F906F905F904F903F902F90E6
:103230000895D1018C918111E2CF618072808081EB
:10324000837009F4C4C0C3010C966DE070E00E9465
:1032500073336F5F69832A838F01EB81FC81F98768
:10326000E88740E050E0BA01CF010E94AC0D812C0C
:10327000912CC12CD12CE12CF12C1F825801F6E0AD
:10328000AF0EB11CE885F98580899189A289B3893F
:103290009C01AD0165E056954795379527956A9550
:1032A000D1F72B833C834D835E834B805C8061E050
:1032B000CF010E944E13FC01892B09F08BC0A88519
:1032C000B98511968C9181119ACF8A81827482344A
:1032D00009F095CFE1102401E981EE1608F075C1DF
:1032E00060E0888599850E944E13892B09F047C1BB
:1032F000A885B98511968C91811181CFE885F985D2
:10330000808185FD7CCF80899189A289B3898115CF
:103310009E4FAF41B10508F072CF888599850E9414
:10332000760E882309F46BCFA885B9851696ED91A2
:10333000FC9117971C968D909D90AD90BC901F9717
:10334000B2E08B1A9108A108B108848104C0880CEE
:10335000991CAA1CBB1C8A95D2F780899189A289E5
:10336000B389880E991EAA1EBB1E25E0B501A401D3
:10337000CF0180960E94120B6C01009709F43FCF99
:10338000FC0120E032E0119221503040E1F7FF24AF
:10339000F394A885B98516960D90BC91A02DBC8399
:1033A000AB8312968C911297F81608F0EAC096013A
:1033B000B501A4014F0D511D611D711D8D919C9191
:1033C0000E940D0A882309F41ACFF394E2CFB1E0EA
:1033D000B98341CF2081253E11F021110FC0E110AA
:1033E00002C08B809C80B981EB1608F4E394222301
:1033F00009F46BCF253E29F4F12C44CF3981E31633
:1034000038F12E32C9F333853F3009F057C0F1103F
:1034100021C026FF37CF2F71F22EC584D22E8D2DDD
:103420008150990BAC019DE0949F9001959F300DC8
:1034300011242615370500F7512CA4E0A51588F0B6
:103440008181928162167306A9F4892BA9F61ACF9D
:10345000E12CD7CFDA942D11CFCF25852C15F9F299
:10346000CBCFBAE0B51518F084819581EBCF86817A
:103470009781E8CF8F3F910511F008F0BDCF4FEB5A
:10348000480F4A3108F4805EB9016F5F7F4FD80161
:1034900013964D915C91240F351FD9019C912FEB10
:1034A000290F2A3108F4905E9813A6CF53943296D0
:1034B000BDE05B1609F4E6CE9B01BFCF33FD9CCF88
:1034C000FF2009F44CC021E0D21299CE9F01255F64
:1034D0003F4F90E090FB979597F98191980F2E17A9
:1034E0003F07C1F7C9128BCEBA81B7FD88CE80E203
:1034F000F10111928A95E9F7A885B9851696ED91A3
:10350000FC91D1011796FC93EE93169715965C9259
:103510004E921497A885B9855C964D915D916D91F9
:103520007C915F97D10118964D935D936D937C9339
:103530001B974201BFE08B229924DF01979635E06B
:10354000880C991C3A95E1F79D01280D391DD90188
:103550001B968C9183FF90C1F101108250CE4BE0FD
:1035600050E0B501CF010E94DD33892B09F08ACEEE
:10357000D8018C9180FFB8CF21E02F8383CEE394D4
:10358000ABCE90E0B0E0A0E029E0880F991FAA1F21
:10359000BB1F2A95D1F7E885F98540895189628951
:1035A0007389840F951FA61FB71F808B918BA28BE9
:1035B000B38BAB81BC8112968C91823030F4B0E138
:1035C000EB0EE981EE1608F499CEFF81FF2309F492
:1035D0005BC0D8011596BC9082E0E82EF12C9EE7E6
:1035E000A92E6801B6E0CB0ED11CF8018181928131
:1035F0009C012E0D3F1D0380F481E02D8E0F9F1F37
:103600008E179F0779F0A901B5E0440F551FBA95B1
:10361000E1F7240F351F4191042E000C550B242790
:103620003527EECFF3E0FB1510F4A3E0BA2E94E0BB
:103630009B0D822F8F708A3008F092C0805DF80158
:10364000E90FF11D8683F4E036952795FA95E1F7A9
:103650009150B91670F3F801EB0DF11DA68240E010
:1036600050E0BA01888599850E94AC0D61E088859B
:1036700099850E944E13009709F074C0A885B985FA
:1036800011968C918111BBCDA20170E060E0E5E064
:10369000440F551F661F771FEA95D1F788859985D6
:1036A0000E94AC0D882309F4AACDF980FA94EF2C7E
:1036B0005FE0B52E680131E1C30ED11C6DE0A62E8E
:1036C000EE2009F47CC060E0888599850E944E1345
:1036D000FC01892B09F493CDA885B98516962D9107
:1036E0003C91D90190968C919097816090968C93A3
:1036F0008E2DEF1001C080648083B3861486D801BC
:10370000169690E090FB979597F92D91920FCA1617
:10371000DB06C1F79587138E128ED80113962D9173
:103720003C918F718150990BA89EA001A99E500DCC
:10373000112480E04615570578F5D901A40FB51F6F
:103740006C91062E000C770B853088F572836183AF
:103750008F5F4F5F5F4F32968D3061F7EA94B0CF45
:10376000895C6DCFFC012081222309F48DCF238554
:1037700023FD7CCF4BE050E0BC01C6010E94DD334D
:10378000892B09F073CFFFEFEF1AFF0A24E6E21648
:10379000F10409F02ACF33CD61E070E064167506BC
:1037A00011F470E060E0719561957109CDCF8B30B7
:1037B00018F475836483CCCF77836683C9CFE8859B
:1037C000F98580889188A288B38860E0CF010E9443
:1037D0004E136C01892B09F412CD80E2D6011D92A3
:1037E0008A95E9F7F80136968BE0D60101900D92A3
:1037F0008A95E1F7F80180818871D6011C968C9337
:10380000E0919C02F0919D02309761F1B601625FF8
:103810007F4FC6014096099545E0B694A7949794CA
:1038200087944A95D1F72401D60150968D919C91A9
:10383000519753969C938E93529759969C938E933F
:1038400058971E968D919C911F9757969C938E9397
:103850005697A885B9851696ED91FC9180A1816057
:1038600080A345CE81E298E2F601918B808B80E0C7
:1038700098E097878687D0CFAF01480D591DDA01B0
:10388000D2968C918771D1018C93D9011B969C9112
:10389000987119F48860D1018C93D1011396FC9230
:1038A00013978A81827321F08C91817109F054CE33
:1038B0008A818F70D10112968C93129743A154A1E3
:1038C00065A176A154964D935D936D937C93579724
:1038D0008E0E9F1EF40183AD94ADB0E0A0E0DC013C
:1038E00099278827EF5BFF4F4081518170E060E0AE
:1038F000842B952BA62BB72BF101848F958FA68F48
:10390000B78FF3E48F0E911CD4014D915D916D91B1
:103910007C91F101408F518F628F738FFA81F5FD99
:1039200002C081E06DCCC1010E94AC0D882309F476
:1039300013CEF7CF2F923F924F925F926F927F926A
:103940008F929F92AF92BF92CF92DF92EF92FF92AF
:103950000F931F93CF93DF93CDB7DEB7E8970FB6E2
:10396000F894DEBF0FBECDBF7C018B014BAB19823B
:103970001A82DC018C918823D1F080E0E8960FB6A2
:10398000F894DEBF0FBECDBFDF91CF911F910F9195
:10399000FF90EF90DF90CF90BF90AF909F908F906F
:1039A0007F906F905F904F903F902F9008958091FF
:1039B0009806807711F3FB01808168E976E08F3209
:1039C000B9F48F0181918F32E1F360919E0670917D
:1039D0009F06811104C0C7010E948B18CFCFCE0172
:1039E00001960E948B18BE016F5F7F4F882329F2DA
:1039F0009E012E5C3F4F38AF2FABF8019F012F5F28
:103A00003F4F8081803209F495C0FDA3ECA39F0154
:103A1000A9014E1B5F0B8901D9018D919D0188235E
:103A200071F08F3209F088C0CF01840F951F8C018F
:103A3000DC012D91CD012032D1F32F32C1F3DA0117
:103A4000AE0FBF1FAD014E1B5F0BEA17FB0709F45A
:103A50008DC08E918E32B1F38032A1F34F3F51056C
:103A600011F00CF08ACF5BA34AA3DE0197966D019B
:103A700080E28D93AFA8B8ACAA16BB06D1F7DF01E0
:103A8000CD018E1B9F0B2D912E32D1F32032C1F32D
:103A900077247394009709F0712C9A012150310911
:103AA0005F01A40EB51E2F3F320709F062C08EA041
:103AB000512CB7E0BAAB312C612CA8E04A2E841708
:103AC00095070CF094C0DF01A80FB91FAC90AEAA07
:103AD000AA2DA03209F489C0AE3221F482179307CF
:103AE00009F083C09EA8B92DB232A1F0BC3791F085
:103AF000A92DAA52A63010F4BD3261F4AEA9AA5382
:103B0000A63040F0AEA9AB55A33020F0AEA9A1522B
:103B1000AE35C8F18217930709F0ADC08AA98A3083
:103B200009F4B4C0C901BAE0BAABA8E03A2EB0E1DA
:103B30004B2E47C0F90162CF8C3509F41ECF982F68
:103B4000977F923209F419CF8A3309F416CF982F50
:103B50009F7B9C3309F411CF92EC980F923008F4BC
:103B60000CCF80528F3508F453CF07CF50E040E0A0
:103B70007ACFD5019E905D01BEE29B1609F497CFE6
:103B80002150310990CF8217930741F2AAA8A314BC
:103B900008F475C0AEA9A156AA31D0F4AEA9A052BE
:103BA000AEAB542822242394230C5601A30CB11C41
:103BB000D501AEA8AC92A6E0BA2E322CB21408F011
:103BC000822C01967CCF712CBFE5BEABBFE59B2E4E
:103BD000AFEBA90DAA3130F76428E4CFC901AAE000
:103BE000AAABA8E03A2EB0E14B2E712CEACF8EA200
:103BF0008FA1803209F4C1CE772019F1852D86215D
:103C000011F082E0582E59A2F8018081882359F1E1
:103C100021E0AE014F5D5F4FC7010E94DD18882390
:103C200009F4ABCE80E2F701DE01119601900D920E
:103C30008A95E1F7C7010E946D0EBE016F5F7F4F4D
:103C4000DCCE81E089A3912CF601E80DF91D8EE709
:103C50008083E8E2F0E0EC0FFD1F8E0E9F1E81E3F3
:103C6000D4018C93D1CF2BA9AE014F5D5F4FC7011B
:103C70000E94DD1883CEAAA9A31508F0A4CFBAA983
:103C8000BA3021F0281739070CF0A8CF8EA2712C7A
:103C9000AFCF8F929F92AF92BF92EF92FF920F930E
:103CA0001F93CF93DF93CDB7DEB76A970FB6F89423
:103CB000DEBF0FBECDBF8091880290918902019630
:103CC000909389028093880260E083EC96E00E94E2
:103CD00083067C0107E110E020E030E0AE014F5F99
:103CE0005F4F6DE283EC96E00E949C06E82AF92A79
:103CF00089819A819827892798279093C60680936F
:103D0000C5068B819C819827892798279093C806A0
:103D10008093C7068D819E81982789279827909345
:103D2000CA068093C9068F81988598278927982786
:103D30009093CC068093CB0689859A85982789270E
:103D400098279093CE068093CD068B859C859827E7
:103D5000892798279093D0068093CF068D859E85DE
:103D60009827892798279093D8068093D7068F8520
:103D70008093DA06888999899093D2068093D10638
:103D80008A899B899093D4068093D3068C899D89D8
:103D90009093D6068093D5068F898093DB0662E0E8
:103DA00083EC96E00E948306E82AF92A01E010E0FD
:103DB00020E030E0AE01465E5F4F64E183EC96E0C8
:103DC0000E949C06E82AF92A8A8D8695982F93707E
:103DD0008091D9068C7F892B8093D90662E083EC91
:103DE00096E00E948306E82AF92A01E010E020E02C
:103DF00030E0AE01475E5F4F61E083EC96E00E94E9
:103E00009C06E82AF92A898D880F982F9C7080914A
:103E1000D906837F892B8093D90601E010E020E04A
:103E200030E0AE01485E5F4F65E183EC96E00E94B2
:103E30009C068E299F299093DD068093DC06809155
:103E40003201882309F4BAC08091C5069091C60654
:103E50000E94D100AB01BC0185E494E00E94B81738
:103E60006CEB71E085E494E00E9489188091C706AC
:103E70009091C8060E94D100AB01BC0185E494E09A
:103E80000E94B8176CEB71E085E494E00E948918F9
:103E90008091C9069091CA060E94D100AB01BC0175
:103EA00085E494E00E94B8176CEB71E085E494E03F
:103EB0000E9489186091D1067091D206072E000CDD
:103EC000880B990B0E943C322AE939E949E15EE30B
:103ED0000E94F132AB01BC0185E494E00E94B81766
:103EE0006CEB71E085E494E00E9489186091D30640
:103EF0007091D406072E000C880B990B0E943C325F
:103F00002AE939E949E15EE30E94F132AB01BC01E3
:103F100085E494E00E94B8176CEB71E085E494E0CE
:103F20000E9489186091D5067091D606072E000C64
:103F3000880B990B0E943C322AE939E949E15EE39A
:103F40000E94F132AB01BC0185E494E00E94B817F5
:103F50006CEB71E085E494E00E9489188091CB06B7
:103F60009091CC060E949200AB01BC0185E494E0E4
:103F70000E94B8176CEB71E085E494E00E94891808
:103F80008091CD069091CE060E949200AB01BC01BB
:103F900085E494E00E94B8176CEB71E085E494E04E
:103FA0000E9489188091CF069091D0060E949200BD
:103FB000AB01BC0185E494E00E94B817009188022F
:103FC00010918902E0904304F0904404B801012E5E
:103FD000000C880B990B0E943C324B015C01B7012D
:103FE0000F2C000C880B990B0E943C3220E030E033
:103FF00040E05FE30E94F1329B01AC01C501B401D6
:104000000E94EC3287FD24C180918702882309F445
:104010001FC11092870280910B03811121C10E9460
:10402000C2110E151F050CF4FAC00E940D1681E096
:10403000809387028091370190913801892B21F07C
:1040400061E084E00E94E3020E945B150E94E2119D
:1040500080913201882309F4D4C06CE285E494E0B5
:104060000E947D01609118014AE050E085E494E0EF
:104070000E947D176DE285E494E00E947D018091AD
:1040800017018A3028F460E385E494E00E947D0102
:10409000609117014AE050E085E494E00E947D17AA
:1040A0006DE285E494E00E947D01809116018A30E2
:1040B00028F460E385E494E00E947D01609116019C
:1040C0004AE050E085E494E00E947D1764E585E4D1
:1040D00094E00E947D01809115018A3028F460E30C
:1040E00085E494E00E947D01609115014AE050E072
:1040F00085E494E00E947D176AE385E494E00E94E1
:104100007D01809105038A3028F460E385E494E022
:104110000E947D01609105034AE050E085E494E04F
:104120000E947D176AE385E494E00E947D018091FE
:1041300004038A3028F460E385E494E00E947D0162
:10414000609104034AE050E085E494E00E947D170A
:104150006CEB71E085E494E00E9489184091FC02C8
:104160005091FD026091FE027091FF0285E494E09F
:104170000E94B8176CE285E494E00E947D014091B2
:10418000060350910703609108037091090385E4C9
:1041900094E00E94B8176CE285E494E00E947D01EF
:1041A00040918A0250918B0260918C0270918D0235
:1041B00085E494E00E94B8176CE285E494E00E94E4
:1041C0007D014091000350910103609102037091C1
:1041D000030385E494E00E94B8176CE285E494E060
:1041E0000E947D0180918F0290E00E9484176CE212
:1041F00085E494E00E947D0180918E0290E00E940F
:1042000084170E942F0F1092890210928802109238
:1042100086021092850260E084E00E94E3028091B1
:104220003201882321F085E494E00E942D176A96DC
:104230000FB6F894DEBF0FBECDBFDF91CF911F91B7
:104240000F91FF90EF90BF90AF909F908F90089547
:104250000E151F0524F380910B038111E8CEE5CEE6
:104260000E151F050CF0E3CEDACF8F929F92AF921E
:10427000BF92CF92DF92EF92FF920F931F93CF9353
:10428000DF93CDB7DEB7C856D1090FB6F894DEBFBD
:104290000FBECDBF5091040340910503309115012D
:1042A0002091160190911701809118011F925F9340
:1042B0001F924F931F923F931F922F931F929F9392
:1042C0001F928F938EEB91E09F938F938E010F5FE0
:1042D0001F4F1F930F930E94F3332A961FAE2A9706
:1042E0002B961FAE2B9721961FAE1EAE219788EE00
:1042F00093E0A0E0B0E025968CAF9DAFAEAFBFAF2E
:10430000259789E991E09EAF8DAF8DE3E82EF12CE2
:10431000EC0EFD1E8CE0E80EF11C46E4B801C7016E
:104320000E949A1CBE01635C7F4F85E494E00E946A
:104330002B120FB6F894DEBF0FBECDBF98EE892EBC
:1043400093E0992EA12CB12C29E9C22E21E0D22E86
:1043500080915104811132C061E081E10E94E30249
:1043600080918302909184020196909384028093BD
:1043700083022A961FAE2A972B961FAE2B97219663
:104380001FAE1EAE219725968CAE9DAEAEAEBFAED3
:104390002597DEAECDAE42ECB801C7010E949A1C53
:1043A000BE01635C7F4F85E494E00E942B1264E6BB
:1043B00070E080E090E00E949B03CACF60E081E162
:1043C0000E94E3026CED71E085E494E00E9489189C
:1043D00085E494E00E942D178AEF91E190939D026D
:1043E00080939C02C859DF4F0FB6F894DEBF0FBE12
:1043F000CDBFDF91CF911F910F91FF90EF90DF9094
:10440000CF90BF90AF909F908F9008951F920F9282
:104410000FB60F9211242F933F934F935F936F9397
:104420007F938F939F93AF93BF93EF93FF9388E90D
:1044300093E00E940202FF91EF91BF91AF919F9193
:104440008F917F916F915F914F913F912F910F903D
:104450000FBE0F901F9018951F920F920FB60F92DC
:1044600011242F938F939F93EF93FF93E091A803D1
:10447000F091A9038081E091AE03F091AF0382FD3A
:104480001BC090818091B1038F5F8F732091B20325
:10449000821741F0E091B103F0E0E856FC4F958FB0
:1044A0008093B103FF91EF919F918F912F910F9086
:1044B0000FBE0F901F9018958081F4CF1F920F921E
:1044C0000FB60F9211242F933F938F939F93AF9327
:1044D000BF938091E8029091E902A091EA02B09125
:1044E000EB023091E70226E0230F2D3758F50296B4
:1044F000A11DB11D2093E7028093E8029093E90289
:10450000A093EA02B093EB028091EC029091ED024D
:10451000A091EE02B091EF020196A11DB11D809312
:10452000EC029093ED02A093EE02B093EF02BF91E4
:10453000AF919F918F913F912F910F900FBE0F9050
:104540001F90189529E8230F0396A11DB11DD2CF06
:104550001F920F920FB60F9211242F933F934F93F8
:104560005F936F937F938F939F93AF93BF93EF93DB
:10457000FF93E0912701F09128010995FF91EF91B8
:10458000BF91AF919F918F917F916F915F914F916B
:104590003F912F910F900FBE0F901F9018951F9273
:1045A0000F920FB60F9211242F933F934F935F9367
:1045B0006F937F938F939F93AF93BF93EF93FF93EB
:1045C000E0912501F09126010995FF91EF91BF91AE
:1045D000AF919F918F917F916F915F914F913F919B
:1045E0002F910F900FBE0F901F9018951F920F9252
:1045F0000FB60F9211242F933F934F935F936F93B6
:104600007F938F939F93AF93BF93EF93FF9380918B
:10461000B900887F803609F44AC0F0F5883209F481
:10462000A7C018F5803109F49BC0B8F4882309F4B9
:10463000F9C0883009F494C0FF91EF91BF91AF9118
:104640009F918F917F916F915F914F913F912F91AA
:104650000F900FBE0F901F901895883109F488C0F5
:10466000803251F78093640314C0803409F49DC0F4
:1046700040F48033B9F38833F9F68093640385EC12
:10468000B0C0803509F485C0883509F496C08834F7
:1046900099F60E94A518D0CF883909F48CC038F556
:1046A000883729F050F4883611F0803729F683E0F6
:1046B000809366031092E60257C0883809F47BC0E5
:1046C000803919F0803809F0B7CF8091E602803246
:1046D00008F071C0E091E60281E08E0F8093E6025F
:1046E0008091BB00F0E0EA53FD4F80833DC0803BEA
:1046F00039F0E0F4803A09F479C0883A09F09CCFA7
:1047000084E0809366031092C5021092C402E09187
:10471000F202F091F30209958091C40281110FC059
:1047200081E08093C4021092A40209C0803C09F485
:10473000A6CF883C09F4A3CF883B09F07DCFE09158
:10474000C50281E08E0F8093C502F0E0EC55FD4F6D
:1047500080818093BB009091C5028091C40229C0E2
:10476000809141038093BB0085EC8093BC0064CFB3
:104770009091630380916203981758F5E091630369
:1047800081E08E0F80936303F0E0EE5BFC4F80814D
:10479000E9CFE091630381E08E0F80936303809102
:1047A000BB00F0E0EE5BFC4F80839091630380914F
:1047B00062039817C8F285E8D8CFE091630381E0DF
:1047C0008E0F809363038091BB00F0E0EE5BFC4FA3
:1047D00080838091650381115CCF81E080934003E9
:1047E00084EA8093BC001092660326CF85EC809308
:1047F000BC00109266038091E602803230F4E091B2
:10480000E602F0E0EA53FD4F10826091E60270E0AC
:10481000E091F002F091F10286EC92E0099510929D
:10482000E6020ACF1092640334CF1F920F920FB6A4
:104830000F9211242F933F934F935F936F937F9326
:104840008F939F93AF93BF93EF93FF93789480914F
:104850009603909197038093B20080919F0290916C
:10486000A002A091A102B091A2020196A11DB11DCA
:1048700080939F029093A002A093A102B093A20202
:1048800040919F025091A0026091A1027091A202FA
:104890008091920390919303A0919403B09195031A
:1048A000481759076A077B07B0F080919E02811173
:1048B00012C081E080939E0210929F021092A0028B
:1048C0001092A1021092A202E0919003F091910344
:1048D000099510929E02FF91EF91BF91AF919F9128
:1048E0008F917F916F915F914F913F912F910F9099
:1048F0000FBE0F901F9018951F920F920FB60F9238
:1049000011240F900FBE0F901F901895CF92DF9239
:10491000EF92FF920F931F93CF93DF931F92CDB728
:10492000DEB76C01613051F562E00E9483067C01C4
:1049300001E010E020E030E0AE014F5F5F4F64E146
:10494000C6010E949C06E82AF92A89818E7F898304
:10495000AE014F5F5F4F64E1C6010E945A018E298C
:104960009F29F601928F818F0F90DF91CF911F9138
:104970000F91FF90EF90DF90CF90089562E00E943A
:1049800083067C0101E010E020E030E0AE014F5FE3
:104990005F4F61E0C6010E949C06E82AF92A8981DE
:1049A0008E7F8983AE014F5F5F4F61E0D5CF4F921D
:1049B0005F926F927F92BF92CF92DF92EF92FF92BF
:1049C0000F931F93CF93DF9300D000D0CDB7DEB706
:1049D0007C016C836A01B22E80E0211180E88C603A
:1049E0008B8363E0C7010E948306AE014D5F5F4F7A
:1049F00063E1C7010E945A01009721F563E0C701F6
:104A00000E948306AE014C5F5F4F64E1C7010E94C4
:104A10005A010097B9F48A818068807A8F7D8A83F1
:104A2000BB2011F163E0C7010E948306AE014E5F17
:104A30005F4F65E1C7010E945A01412C512C3201A0
:104A40000097F1F00F900F900F900F90DF91CF91A2
:104A50001F910F91FF90EF90DF90CF90BF907F90CC
:104A60006F905F904F90089563E0C7010E948306A6
:104A7000A60166E1C7010E945A01009799F2E2CFB0
:104A800060E0C7010E94830601E010E020E030E012
:104A9000AE014F5F5F4F67E1C7010E949C0629810D
:104AA00026FB332730F941E058EE451653E0550612
:104AB0006104710408F440E0342B4FEF441A540AA7
:104AC000640A740A3323E1F22295217031E058EE32
:104AD000451653E055066104710408F430E0232BB9
:104AE00089F4BB2009F4AECF63E0C7010E948306BE
:104AF00001E010E020E030E0A60167E1C7010E947C
:104B00009C06A0CF81E090E09DCFEF92FF920F93A3
:104B10001F93CF93DF931F92CDB7DEB77C0101E0E7
:104B200010E020E030E0AE014F5F5F4F6FE00E9489
:104B30009C06009751F489818D7F8983AE014F5F78
:104B40005F4F6FE0C7010E945A010F90DF91CF9134
:104B50001F910F91FF90EF900895E8E9F3E0138221
:104B6000128288EE93E0A0E0B0E084839583A68370
:104B7000B78325E731E03183208325EC30E03587AA
:104B8000248724EC30E03787268720EC30E0318B17
:104B9000208B21EC30E0338B228B22EC30E0358B04
:104BA000248B26EC30E0378B268B118E128E138EE1
:104BB000148EE5E3F4E01382128284839583A68346
:104BC000B78327E831E031832083209161002BEA0D
:104BD00031E03093C2062093C10610927604109201
:104BE00098061092990624E62093B8061092BD0606
:104BF00020E52093BE0621E02093BF06E5E4F4E023
:104C0000148615861382128284839583A683B783C4
:104C100089E991E09183808320913B0130913C01AF
:104C20006091390170913A01C9010E9487337093F4
:104C300044046093430488EE93E0B9010E948733F3
:104C400070934204609341040895CF93DF93CDB7EE
:104C5000DEB7CE59D1090FB6F894DEBF0FBECDBF77
:104C6000789484B5826084BD84B5816084BD85B547
:104C7000826085BD85B5816085BD80916E00816053
:104C800080936E00109281008091810082608093F9
:104C900081008091810081608093810080918000FB
:104CA0008160809380008091B10084608093B10026
:104CB0008091B00081608093B00080917A00846020
:104CC00080937A0080917A00826080937A0080914C
:104CD0007A008E7F80937A0080917A00806880933A
:104CE0007A001092C100E091A803F091A90312E0AC
:104CF0001083E091A403F091A5031082E091A60334
:104D0000F091A70388E080831092B003E091AC0398
:104D1000F091AD0386E08083E091AA03F091AB03AC
:104D2000808180618083E091AA03F091AB03808150
:104D300088608083E091AA03F091AB038081806852
:104D40008083E091AA03F091AB0380818F7D808303
:104D500061E084E00E94280361E081E10E94280371
:104D600061E088E00E94280362E080E10E9428035D
:104D700060E083E00E94280360E085E10E94280350
:104D800062E087E00E94280361E08FE00E94280330
:104D900061E089E00E94280360E08EE00E94280321
:104DA00060E084E10E94280361E086E00E9428031D
:104DB00061E085E00E94280360E08FE00E94E3024A
:104DC00060E089E00E94E30261E086E00E94E30285
:104DD00061E085E00E94E30260E081E10E94E3027D
:104DE00061E084E00E94E30261E088E00E94E30267
:104DF0001092F6021092F70210926D0310928F0338
:104E00000E94F5038BE791E09093F3028093F20206
:104E10008CE791E09093F1028093F0021093B80038
:104E20001092BB061092B8061092BD068EEB96E06B
:104E30009093BA068093B9060E94A8098C01E0906D
:104E4000B906F090BA068AE0D70112968C9361E019
:104E50000E94280361E0F70182810E94E302FFB60D
:104E6000F8948091F402811127C0E4ECF0E0849181
:104E7000E0EBF0E09491E82FF0E0EE0FFF1FE45636
:104E8000FF4FA591B491EC91E92321F461E08AE010
:104E90000E94E30261E08AE00E9428038CB58061F1
:104EA0008CBD8CB580648CBD61E08DE00E942803D0
:104EB00061E08BE00E9428038091F4028F5F809371
:104EC000F402FFBEE091B906F091BA0682E5808354
:104ED00081E081838091BB06811104C088EB96E05C
:104EE0000E947309E091B906F091BA0661E08281EF
:104EF0000E94E3029AE0F92E8FEF0E948709FA944C
:104F0000F110FACFE091B906F091BA0660E0828123
:104F10000E94E30220E030E0A90160E088EB96E027
:104F20000E94CA098130F9F00E94A809801B910BE8
:104F3000813D974078F380E28093B80688EB96E055
:104F40000E94930961E081E10E94E30260E084E055
:104F50000E94E30268EE73E080E090E00E949B0311
:104F600010923201A9C02AEA31E040E050E068E046
:104F700088EB96E00E94CA09853049F581E080936C
:104F8000BD068091BD06C12CD12CE12CB0E4FB2ED6
:104F9000823019F0C12CD12C760120E030E0A9013B
:104FA00067E388EB96E00E94CA09A701960169E2CF
:104FB00088EB96E00E94CA09882301F10E94A809A3
:104FC000801B910B813D974040F383E4B5CF84E093
:104FD000F82E0E948C098093BC06FA94F110F9CF48
:104FE0008A3A11F482E0CBCF0E94A809801B910B72
:104FF000813D974008F4B7CF85E29ECF8091BD06F2
:105000008230D1F420E030E0A9016AE388EB96E039
:105010000E94CA09882311F087E38ECF0E948C0971
:10502000807C803C19F483E08093BD060E948C094B
:105030000E948C090E948C0988EB96E00E949309DB
:10504000E091B906F091BA0680E5808381E0818322
:1050500088EB96E0909372048093710488E996E05F
:105060000E946D0E81E00E94510B882309F4C3C099
:1050700080919806811166CF80E2E8E9F6E0DF01D1
:10508000282F1D922A95E9F721E734E030939F06F7
:1050900020939E0690917604903121F0903209F091
:1050A00051CF80E48093980681E080939A068091A6
:1050B0009806807709F446CF80913201882309F45D
:1050C00018C119AE1AAE18AA1FA648EE53E060E048
:1050D00070E049AB5AAB6BAB7CAB89E991E09EA722
:1050E0008DA71D861E861C821B824D835E836F8367
:1050F00078879A83898341E062E372E0CE010D965E
:105100000E949A1CBE016F5F7F4FCE018D960E9458
:105110002B1289AD882309F4ECC0CB56DF4F1982DE
:105120001882C559D0401E0139E5230E311C6E018D
:1051300047E7C40ED11C510153E0A50EB11C4E012E
:105140008BE7880E911CDE01A358BF4FC957DF4F74
:10515000B983A883C758D040FE01E158FF4FC75715
:10516000DF4FF983E883C958D0409E012B573F4F4A
:10517000C557DF4F39832883CB58D040AE014D57F8
:105180005F4FC357DF4F59834883CD58D040CE017E
:105190008F579F4FC157DF4F99838883CF58D04097
:1051A000D1011C9210E000E0CE01C9960E949D132F
:1051B00098018D30D9F02F5F3F4FF101E00FF11FC3
:1051C00080838435F1F42D964CAC5DAC6EAC7FAC35
:1051D0002D97B1E04B1A510861087108E1E0F0E049
:1051E000CB56DF4FF983E883C559D0402E313105C6
:1051F0006CF48901D9CF80E00E94510B811138CF26
:10520000A1CE2E31310510F48A3099F721503109A1
:10521000F101E20FF31F1082D1018C918F3241F125
:105220002230310528F1F10101900020E9F7319792
:10523000E219F3093297E0F0F1018081918188341D
:10524000FCE49F0709F456C40CF05AC18D3434E4D1
:10525000930709F426C40CF016C1823551E4950772
:1052600009F4CDC30CF002C18035914409F4ADC3FB
:10527000CE018D960E945212892B09F091CFCE015A
:10528000C9960E946D0ECB56DF4F28813981C559D2
:10529000D040232B71F11D861E861C821B8288EE56
:1052A00093E0A0E0B0E08D839E83AF83B88789E967
:1052B00091E09A83898343E662E372E0CE010D9622
:1052C0000E949A1CBE016F5F7F4FCE018D960E9497
:1052D0002B12B301A201CE01C9960E94AC0D6EE45F
:1052E00072E0CE018D960E948918CE01C9960E9467
:1052F0006D0E20913B0130913C016091390170911C
:105300003A01C9010E9487337093440460934304B7
:1053100088EE93E0B9010E94873370934204609352
:10532000410460ED77E080E090E00E949B030E94E2
:10533000E2114091000350910103609102037091CA
:10534000030388E993E00E94B81761E572E088E9F9
:1053500093E00E941E1788E993E00E942D170E9497
:105360005B1563E572E088E993E00E94891840913B
:105370001A0350911B0360911C0370911D032AE0D6
:1053800088E993E00E94311788E993E00E942D1785
:1053900064E572E088E993E00E9489186091150144
:1053A0004AE050E088E993E00E947D176BE672E0E6
:1053B00088E993E00E948918609105034AE050E073
:1053C00088E993E00E947D176BE672E088E993E03C
:1053D0000E948918609104034AE050E088E993E054
:1053E0000E947D1788E993E00E942D1788E993E0D9
:1053F0000E94710268E873E180E090E00E949B03E4
:1054000081E080936C0380E480938E0310926D039F
:1054100010928F0390E080E00E947B0685E394E089
:105420000E94800662E070E080E090E00E949B03B2
:1054300041E062E080E40E942405F82E1092F6021A
:105440008093F70262E070E080E090E00E949B03AE
:1054500010E000E08091F602F81609F44FC385E3EE
:1054600094E00E940C060F5F1F4FF4CF843498071E
:1054700009F431C28C34944409F0FACE1092380108
:1054800010923701F5CE833524E4920709F4EBC27C
:10549000E4F48235944409F0EBCEDF92CF928BE4B2
:1054A00092E09F938F93BF92AF920E941634F601C1
:1054B00080819181A281B3818093330190933401E3
:1054C000A0933501B093360154C0803559E4950757
:1054D00009F44FC28235994409F0CACEDF92CF92C7
:1054E0008BE492E09F938F93BF92AF920E94163409
:1054F000D6018D919C9190930D0380930C0339C03C
:105500008434B0E59B0709F4B2C2D4F58235FDE4DA
:105510009F0709F4E0C2B4F480359D4409F0A8CE99
:10552000DF92CF928BE492E09F938F93BF92AF92E2
:105530000E941634D6018D919C9190930201809324
:10554000010117C084354DE4940709F4ADC08334DC
:10555000904509F08DCEDF92CF928BE492E09F933D
:105560008F93BF92AF920E941634D6018C91809394
:1055700031010F900F900F900F900F900F9078CEF9
:105580008035A3E59A0709F4E2C1DCF48035E2E551
:105590009E0709F44EC28934934509F069CEDF9223
:1055A000CF928BE492E09F938F93BF92AF920E9431
:1055B0001634F6018081918190933C0180933B01E8
:1055C000D8CF803524E5920709F4E5C183359445A9
:1055D00009F04ECE9F928F92C857DF4FB881C858BE
:1055E000D040BF93C957DF4FE881C758D040EF93F1
:1055F000C657DF4FF881CA58D040FF93C757DF4FD7
:105600002881C958D0402F93C457DF4F3881CC58D8
:10561000D0403F93C557DF4F4881CB58D0404F9380
:10562000C257DF4F5881CE58D0405F93C357DF4FEA
:105630008881CD58D0408F93C057DF4F9881C05993
:10564000D0409F93C157DF4FA881CF58D040AF9330
:105650008CE392E09F938F93BF92AF920E94163497
:10566000F401E080EE960FADEE97C158DF4F288130
:10567000CF57D040CB57DF4F4881C558D040CD578A
:10568000DF4F6881C358D040CF57DF4F8881C15862
:10569000D0400E9402116093120370931303809311
:1056A00014039093150311C19F928F92C857DF4F37
:1056B0004881C858D0404F93C957DF4F5881C758C9
:1056C000D0405F93C657DF4F8881CA58D0408F9330
:1056D000C757DF4F9881C958D0409F93C457DF4FB9
:1056E000A881CC58D040AF93C557DF4FB881CB5875
:1056F000D040BF93C257DF4FE881CE58D040EF93E0
:10570000C357DF4FF881CD58D040FF93C057DF4FCC
:105710002881C059D0402F93C157DF4F3881CF58CF
:10572000D0403F938CE392E09F938F93BF92AF92D0
:105730000E941634CF57DF4F48815981C158D0405D
:10574000CF56DF4F59834883C159D040CD57DF4FE3
:1057500088819981C358D040C956DF4F9983888387
:10576000C759D040CB57DF4FA881B981C558D04029
:10577000C756DF4FB983A883C959D040F4010190BF
:10578000F081E02DC556DF4FF983E883CB59D04037
:10579000EF96EEACFFACEF97C158DF4F288139810F
:1057A000CF57D040C356DF4F39832883CD59D040DF
:1057B00081E080936C0388E680938E0310926D03E2
:1057C00010928F0390E080E00E947B060AE010E0D8
:1057D000C556DF4F88819981CB59D040B8010E94CE
:1057E000873334E0660F771F3A95E1F78F7099277A
:1057F000862B972B0E947B06C701B8010E94873336
:1058000044E0660F771F4A95E1F78F709927862B42
:10581000972B0E947B06C356DF4F88819981CD5913
:10582000D040B8010E94873354E0660F771F5A9525
:10583000E1F7607377278F709927862B972B0E944B
:105840007B0681E090E00E947B06C756DF4F88818F
:105850009981C959D040B8010E948733E4E0660FAE
:10586000771FEA95E1F78F709927862B972B0E9477
:105870007B06C956DF4F88819981C759D040B8014E
:105880000E948733F4E0660F771FFA95E1F78F7077
:105890009927862B972B0E947B06CF56DF4F888156
:1058A0009981C159D040B8010E948733A4E0660FA6
:1058B000771FAA95E1F78F709927862B972B0E9467
:1058C0007B0685E394E00E9480060FB6F894DEBF65
:1058D0000FBECDBFCDCCDF92CF928BE492E09F93F1
:1058E0008F93BF92AF920E941634D6012D913D91B5
:1058F0004D915C9160E871E581E090E00E94633336
:10590000CF56DF4F688379838A839B83C159D04008
:105910000E945B1580911A0390911B03A0911C03B8
:10592000B0911D03CF56DF4F288139814A815B81B9
:10593000C159D040820F931FA41FB51F809312033B
:1059400090931303A0931403B093150312CEDF9228
:10595000CF928BE492E09F938F93BF92AF920E947D
:105960001634D6018D919C9190933A018093390120
:1059700000CEDF92CF928BE492E09F938F93BF9201
:10598000AF920E941634F6018081918190931401A8
:1059900080931301EECDDF92CF928BE492E09F9340
:1059A0008F93BF92AF920E941634D6016D917D9174
:1059B0008D919C910E943C3260930F017093100175
:1059C0008093110190931201D4CDDF92CF928BE49A
:1059D00092E09F938F93BF92AF920E941634F6018C
:1059E00060817181828193810E943C3260930B01BE
:1059F00070930C0180930D0190930E01BACDDF924C
:105A0000CF928BE492E09F938F93BF92AF920E94CC
:105A10001634D6016D917D918D919C910E943C32FE
:105A200060930701709308018093090190930A0124
:105A3000A0CDDF92CF928BE492E09F938F93BF92A1
:105A4000AF920E941634F601608171818281938148
:105A50000E943C326093030170930401809305011E
:105A60009093060186CD81E080930B0301CCDF92F9
:105A7000CF928BE492E09F938F93BF92AF920E945C
:105A80001634F60160817181828193810E943C32DB
:105A900060932D0170932E0180932F01909330011C
:105AA00068CDDF92CF928BE492E09F938F93BF9269
:105AB000AF920E941634D6016D917D918D919C918B
:105AC0000E943C326093290170932A0180932B013C
:105AD00090932C014ECDDF92CF928BE492E09F9376
