:100000000C945D000C9485000C9485000C94850084
:100010000C9485000C9485000C942B110C94850095
:100020000C9485000C94C4100C9485000C948500ED
:100030000C9485000C9485000C9485000C9485002C
:100040000C945B0F0C9485000C94290F0C94030FF7
:100050000C9485000C9485000C9485000C9485000C
:100060000C94A50F0C9485000000000024002700CC
:100070002A0000000000250028002B0004040404CE
:100080000404040402020202020203030303030342
:10009000010204081020408001020408102001021F
:1000A00004081020000000080002010000030407FB
:1000B0000000000000000000351111241FBECFEF2A
:1000C000D8E0DEBFCDBF11E0A0E0B1E0E2E5F5E3AE
:1000D00002C005900D92A437B107D9F723E0A4E739
:1000E000B1E001C01D92AF37B207E1F710E0CDE5F6
:1000F000D0E004C02197FE010E94A11ACC35D1079F
:10010000C9F70E9482110C94A71A0C940000BC013C
:1001100080916F038695869583708130B1F040F0B1
:100120008230F1F0833039F160E070E0CB01089566
:10013000072E000C880B990B0E942E1920E030E04E
:1001400043E053E40E948B180895072E000C880B9F
:10015000990B0E942E1920E030E043E852E4F2CFE0
:10016000072E000C880B990B0E942E1923E333E312
:1001700043E052E4E7CF072E000C880B990B0E9456
:100180002E1923E333E343E851E4DCCFBC01809133
:100190006F0383708130B1F040F08230F1F0833032
:1001A00039F160E070E0CB010895072E000C880B58
:1001B000990B0E942E192FE632E143E851E40E9488
:1001C0008B180895072E000C880B990B0E942E198E
:1001D0002FE632E143E051E4F2CF072E000C880B0A
:1001E000990B0E942E192FE632E143E850E4E7CF45
:1001F000072E000C880B990B0E942E192FE632E176
:1002000043E050E4DCCF0F931F93FC01862FA081C5
:10021000B181ED91FC911197309761F0BA0114967C
:100220000D911C9121E030E040E050E009951F91D4
:100230000F91089582E090E0FACF8091CD019091E6
:10024000CC01891B990B089508950895AF92BF9230
:10025000CF92DF92EF92FF920F931F93CF93DF9392
:100260006C017B018B01040F151FEB015E01AE18C1
:10027000BF08C017D10759F06991D601ED91FC91E3
:100280000190F081E02DC6010995892B79F7C50110
:10029000DF91CF911F910F91FF90EF90DF90CF9062
:1002A000BF90AF900895FC01538D448D252F30E011
:1002B000842F90E0821B930B541710F0CF96089573
:1002C00001970895FC01918D828D981761F0A28DA0
:1002D000AE0FBF2FB11D5D968C91928D9F5F9F7366
:1002E000928F90E008958FEF9FEF0895FC01918D1C
:1002F000828D981731F0828DE80FF11D858D90E089
:1003000008958FEF9FEF0895FC01918D228D892F25
:1003100090E0805C9F4F821B91098F73992708950D
:100320008AEA92E00E94840121E0892B09F420E00E
:10033000822F089580E090E0892B29F00E9490019F
:1003400081110C9400000895FC01A48DA80FB92F11
:10035000B11DA35ABF4F2C91848D90E001968F73ED
:100360009927848FA689B7892C93A089B1898C910C
:10037000837080648C93938D848D981306C002885B
:10038000F389E02D80818F7D80830895EF92FF9225
:100390000F931F93CF93DF93EC0181E0888F9B8DA8
:1003A0008C8D98131AC0E889F989808185FF15C062
:1003B0009FB7F894EE89FF896083E889F989808185
:1003C0008370806480839FBF81E090E0DF91CF9154
:1003D0001F910F91FF90EF900895F62E0B8D10E076
:1003E0000F5F1F4F0F731127E02E8C8D8E110CC0E5
:1003F0000FB607FCFACFE889F989808185FFF5CF30
:10040000CE010E94A401F1CFEB8DEC0FFD2FF11D69
:10041000E35AFF4FF0829FB7F8940B8FEA89FB896C
:1004200080818062CFCF682F8AEA92E00C94C60167
:10043000CF93DF93EC01888D8823B9F0AA89BB891B
:10044000E889F9898C9185FD03C0808186FD0DC006
:100450000FB607FCF7CF8C9185FFF2CF808185FF27
:10046000EDCFCE010E94A401E9CFDF91CF91089595
:1004700090E0FC01EC55FF4F2491FC01E057FF4F49
:100480003491FC01E458FF4FE491EE23C9F022239C
:1004900039F0233001F1A8F4213019F1223029F18B
:1004A000F0E0EE0FFF1FEE58FF4FA591B4918FB70C
:1004B000F894EC91611126C030953E233C938FBF98
:1004C00008952730A9F02830C9F0243049F78091E9
:1004D00080008F7D03C0809180008F7780938000A3
:1004E000DFCF84B58F7784BDDBCF84B58F7DFBCF25
:1004F0008091B0008F778093B000D2CF8091B00010
:100500008F7DF9CF3E2BDACFCF93DF9390E0FC01C4
:10051000E057FF4F249184589F4FFC01849188231A
:10052000C9F090E0880F991FFC01E859FF4FA59191
:10053000B491FC01EE58FF4FC591D49161110DC0EB
:100540009FB7F8948C91209582238C9388812823DF
:1005500028839FBFDF91CF910895623051F49FB7F8
:10056000F8943C91822F809583238C93E8812E2BE5
:10057000EFCF8FB7F894EC912E2B2C938FBFEACF4F
:100580008E50806480937C0080917A008064809398
:100590007A0080917A0086FDFCCF8091780090915E
:1005A000790008953FB7F8948091C4019091C501F6
:1005B000A091C601B091C70126B5A89B05C02F3FE9
:1005C00019F00196A11DB11D3FBFBA2FA92F982F79
:1005D0008827BC01CD01620F711D811D911D43E073
:1005E000660F771F881F991F4A95D1F708958F923C
:1005F0009F92AF92BF92CF92DF92EF92FF924B0108
:100600005C010E94D2026B017C010E94D2026C1933
:100610007D098E099F09683E734081059105A8F305
:1006200021E0821A9108A108B10888EEC80E83E083
:10063000D81EE11CF11C81149104A104B10429F716
:10064000FF90EF90DF90CF90BF90AF909F908F90F2
:10065000089520919C01260F3327331F2132310545
:10066000ECF420918002FC0190E080E0243069F0FD
:1006700082E00895A0919C012191AC0144585E4F05
:10068000A40FB52FB11D2C930196861798F3809176
:100690009C01680F60939C0180E0089581E00895BB
:1006A0001092800281E080937F0210925A0261E0F2
:1006B00082E10E94380261E083E10E943802E9EBA6
:1006C000F0E080818E7F808380818D7F808380E2D7
:1006D0008093B80085E48093BC000895CF93DF93A6
:1006E00091E090937B018823B9F0C091B800D0913C
:1006F000BA008091BC008A7B8093BC0060E082E1FC
:100700000E94380260E083E10E9438020E94500398
:10071000D093BA00C093B800DF91CF9108958F9223
:100720009F92AF92BF92CF92DF92EF92FF920F9380
:100730001F93CF93DF93D091A902D13208F0D7C095
:10074000182FC091A8020E94D2026B017C018091F7
:10075000800281116BC082E08093800210937F023F
:100760008FEF80937E0210927D02D0937C02A8E8E6
:10077000B2E0ECE5F2E080E0D81391C010925B02A9
:1007800080915B02CC0FC82BC0935B0280915A0210
:10079000813009F088C010925A020E94D2026B0187
:1007A0007C0180915B028093BB00809182029091DA
:1007B0008302A0918402B0918502892B8A2B8B2B16
:1007C000A1F00E94D2020091820210918302209136
:1007D0008402309185026C197D098E099F090617E4
:1007E00017072807390708F442C08091BC0083FD31
:1007F000D8CF85EC8093BC000E94D2026B017C01B3
:1008000080918002823009F450C080917E028F3F37
:1008100009F46FC080917E02803209F46CC080912F
:100820007E02803309F469C084E026C08091820290
:1008300090918302A0918402B0918502892B8A2B2A
:100840008B2B09F484CF0E94D20280908202909078
:100850008302A0908402B09085026C197D098E09F4
:100860009F0986169706A806B90608F070CF8091F2
:1008700081020E946E0385E0109287021092A90205
:1008800010928602DF91CF911F910F91FF90EF9010
:10089000DF90CF90BF90AF909F908F9008959D91E3
:1008A00091938F5F69CF85EEA5CF80918202909161
:1008B0008302A0918402B0918502892B8A2B8B2B15
:1008C00009F49ECF0E94D20200918202109183020D
:1008D00020918402309185026C197D098E099F094F
:1008E000061717072807390708F08ACFC0CF81E01D
:1008F000C3CF80E0C1CF82E0BFCF83E0BDCF8F9276
:100900009F92AF92BF92CF92DF92EF92FF920F939E
:100910001F93CF93DF93D82FC62F142F613208F087
:100920009CC00E94D2026B017C01809180028111E7
:100930006FC081E08093800210937F029FEF9093BD
:100940007E0210927D029C0F90937C0280935B024A
:1009500080915B02DD0FD82BD0935B0280915A020D
:10096000813009F07CC010925A020E94D2026B01C1
:100970007C0180915B028093BB0080918202909108
:100980008302A0918402B0918502892B8A2B8B2B44
:10099000A1F00E94D2020091820210918302209164
:1009A0008402309185026C197D098E099F09061712
:1009B00017072807390708F44CC08091BC0083FD55
:1009C000D8CF85EC8093BC000E94D2026B017C01E1
:1009D00080918002813009F444C080917D028C179F
:1009E00010F4C0917D02ECE5F2E0AAE3B2E080E011
:1009F0008C1359C08C2FDF91CF911F910F91FF90D5
:100A0000EF90DF90CF90BF90AF909F908F90089520
:100A10008091820290918302A0918402B09185021C
:100A2000892B8A2B8B2B09F480CF0E94D2028090D5
:100A3000820290908302A0908402B09085026C198B
:100A40007D098E099F0986169706A806B90608F043
:100A50006CCF809181020E946E03C0E0CBCF85EE07
:100A6000B1CF8091820290918302A0918402B091D3
:100A70008502892B8A2B8B2B09F4AACF0E94D202E4
:100A800000918202109183022091840230918502AC
:100A90006C197D098E099F09061717072807390762
:100AA00008F096CFD6CF91919D938F5FA1CF0895F7
:100AB000E091CC018091CD01E81730F4F0E0E65CE4
:100AC000FD4F808190E008958FEF9FEF0895909102
:100AD000CC018091CD012FEF3FEF981748F4E92F1B
:100AE000F0E0E65CFD4F208130E09F5F9093CC0109
:100AF000C9010895CF92DF92EF92FF920F931F9357
:100B0000CF93DF937C01CB018A01209186022223BF
:100B100089F0EB016B01C40ED51ECC15DD0569F023
:100B20006991D701ED91FC910190F081E02DC70111
:100B30000995F3CF642F0E942903C801DF91CF915B
:100B40001F910F91FF90EF90DF90CF900895CF937A
:100B5000DF931F92CDB7DEB76983209186022223EF
:100B6000F9F02091A902203258F021E030E0FC0198
:100B70003383228390E080E00F90DF91CF9108953E
:100B800080918702E82FF0E0E857FD4F998190832C
:100B90008F5F809387028093A90281E090E0ECCF81
:100BA00061E0CE0101960E942903F7CF81E00C9409
:100BB0008F0390E080E00895CF93DF931F92CDB72D
:100BC000DEB7643078F420E1629FB00111246983BC
:100BD000AE014F5F5F4F6FE70E9403010F90DF91FF
:100BE000CF91089583E090E0F9CF0F931F93FC011C
:100BF000862FBA01A081B1811296ED91FC911397D5
:100C0000309749F0A901980114960D911C9109950E
:100C10001F910F91089582E090E0FACFCF92DF927A
:100C2000EF92FF920F931F93CF93DF931F92CDB755
:100C3000DEB76C01613051F562E00E94DC057C0199
:100C400001E010E020E030E0AE014F5F5F4F64E173
:100C5000C6010E94F505E82AF92A89818E7F8983D9
:100C6000AE014F5F5F4F64E1C6010E9403018E2910
:100C70009F29F601928F818F0F90DF91CF911F9165
:100C80000F91FF90EF90DF90CF90089562E00E9467
:100C9000DC057C0101E010E020E030E0AE014F5FB8
:100CA0005F4F61E0C6010E94F505E82AF92A8981B3
:100CB0008E7F8983AE014F5F5F4F61E0D5CF4F924A
:100CC0005F926F927F92BF92CF92DF92EF92FF92EC
:100CD0000F931F93CF93DF9300D000D0CDB7DEB733
:100CE0007C016C836A01B22E80E0211180E88C6067
:100CF0008B8363E0C7010E94DC05AE014D5F5F4F4F
:100D000063E1C7010E940301009721F563E0C70179
:100D10000E94DC05AE014C5F5F4F64E1C7010E9499
:100D200003010097B9F48A818068807A8F7D8A8375
:100D3000BB2011F163E0C7010E94DC05AE014E5FEC
:100D40005F4F65E1C7010E940301412C512C320124
:100D50000097F1F00F900F900F900F90DF91CF91CF
:100D60001F910F91FF90EF90DF90CF90BF907F90F9
:100D70006F905F904F90089563E0C7010E94DC057B
:100D8000A60166E1C7010E940301009799F2E2CF34
:100D900060E0C7010E94DC0501E010E020E030E0E7
:100DA000AE014F5F5F4F67E1C7010E94F5052981E2
:100DB00026FB332730F941E058EE451653E055063F
:100DC0006104710408F440E0342B4FEF441A540AD4
:100DD000640A740A3323E1F22295217031E058EE5F
:100DE000451653E055066104710408F430E0232BE6
:100DF00089F4BB2009F4AECF63E0C7010E94DC0593
:100E000001E010E020E030E0A60167E1C7010E94A8
:100E1000F505A0CF81E090E09DCFEF92FF920F9378
:100E20001F93CF93DF931F92CDB7DEB77C0101E014
:100E300010E020E030E0AE014F5F5F4F6FE00E94B6
:100E4000F505009751F489818D7F8983AE014F5F4D
:100E50005F4F6FE0C7010E9403010F90DF91CF91B8
:100E60001F910F91FF90EF9008958F929F92AF92F4
:100E7000BF92EF92FF920F931F93CF93DF930115D1
:100E8000110591F1F801C58DD68D209769F14901C1
:100E90007B01682F878D91E0909386028093A80252
:100EA000109287021092A902E881F9810190F081E5
:100EB000E02DCE010995E881F9810280F381E02DD2
:100EC000A401B701CE010995CE010E94D60590E09C
:100ED00080E0DF91CF911F910F91FF90EF90BF9035
:100EE000AF909F908F90089583E090E0F2CF8F9223
:100EF0009F92AF92BF92CF92DF92EF92FF920F93A9
:100F00001F93CF93DF9300D000D0CDB7DEB75C0145
:100F1000822FF50120A3768F658F41A398E64111BA
:100F200099E6978F8F3F19F061E00E948402F501E6
:100F300080A18F3F19F061A10E94380285E397E0FC
:100F4000F50193A382A387ED9BE095A384A3B7A2A9
:100F5000A6A2C5018296938382836501F2E0CF0E3B
:100F6000D11C198260E0C6010E94DC0501E010E09E
:100F700020E030E0AE014F5F5F4F60E0C6010E94AD
:100F8000F505009709F005C289818A3E19F084E0D1
:100F900090E0FFC1F501148E138E60E0C6010E943F
:100FA000DC0501E010E020E030E0AE014F5F5F4F74
:100FB00066E0C6010E94F505009751F489818068BA
:100FC0008983AE014F5F5F4F66E0C6010E94030157
:100FD000F501948F838F009709F0DBC162E370E025
:100FE00080E090E00E94F70260E0C6010E94DC050C
:100FF00001E010E020E030E0AE014F5F5F4F66E0BF
:10100000C6010E94F505009751F489818F7B898381
:10101000AE014F5F5F4F66E0C6010E940301F5011C
:10102000948F838F009709F0B4C160E0C6010E94DD
:10103000DC0501E010E020E030E0AE014F5F5F4FE3
:1010400066E0C6010E94F505009751F489818F7D05
:101050008983AE014F5F5F4F66E0C6010E940301C6
:10106000F501948F838F009709F093C160E0C6016A
:101070000E94DC050097C1F401E010E020E030E0C0
:10108000AE014F5F5F4F65E0C6010E94F505009716
:1010900059F489818F7D8F7E8983AE014F5F5F4FC9
:1010A00065E0C6010E940301F501948F838F0097CC
:1010B00009F06FC162E0C6010E94DC057C0101E01D
:1010C00010E020E030E0AE014F5F5F4F64E1C60109
:1010D0000E94F505E82AF92A8981897F8983AE0172
:1010E0004F5F5F4F64E1C6010E940301E82AF92ABD
:1010F00062E0C6010E94DC05E82AF92A01E010E05E
:1011000020E030E0AE014F5F5F4F61E0C6010E941A
:10111000F505E82AF92A8981897F8983AE014F5F25
:101120005F4F61E0C6010E9403018E299F29F501EE
:10113000948F838F009709F02CC162E0C6010E9452
:10114000DC057C0101E010E020E030E0AE014F5F03
:101150005F4F64E1C6010E94F505E82AF92A8981FA
:1011600088638983AE014F5F5F4F64E1C6010E94CF
:101170000301E82AF92A62E0C6010E94DC05E82A98
:10118000F92A01E010E020E030E0AE014F5F5F4F50
:1011900061E0C6010E94F505E82AF92A8981886381
:1011A0008983AE014F5F5F4F61E0C6010E9403017A
:1011B0008E299F29F501948F838F009709F0E9C04C
:1011C00061E0C6010E940E06009709F0E2C062E0ED
:1011D000C6010E940E06009709F0DBC060E0C60160
:1011E0000E94DC05009719F4C6010E940D07F50165
:1011F000948F838F60E0C6010E94DC05009709F0A0
:1012000043C0C6010E940D070097F1F563E0C601D7
:101210000E94DC050097C1F501E010E020E030E01D
:10122000AE014E5F5F4F61E0C6010E94F505009779
:1012300059F58A81807F876080618A83AE014E5F25
:101240005F4F61E0C6010E9403010097E9F460E08E
:10125000C6010E94DC050097B9F401E010E020E02F
:1012600030E0AE014F5F5F4F63E0C6010E94F505BD
:10127000009751F4898180628983AE014F5F5F4F8F
:1012800063E0C6010E940301F501948F838F85E01E
:10129000F82E94E0892E912C21E0AE014F5F5F4F34
:1012A00060E0C6010E945F06F501948F838F19816B
:1012B00021E0AE014F5F5F4F61E0C6010E945F0613
:1012C0008981F501148E138E183411F4893039F1A7
:1012D000F501948E838E60E0C6010E94DC050097C4
:1012E000B9F401E010E020E030E0AE014F5F5F4F65
:1012F00063E0C6010E94F505009751F48981826080
:101300008983AE014F5F5F4F63E0C6010E94030116
:10131000F501948F838FFA94F110BECF38CE88E018
:101320008C8320E0AE014C5F5F4F61E3C6010E94F9
:101330005F06F501948F838F009759F563E0C6012E
:101340000E94DC05009711F58CE88B83AE014D5FA0
:101350005F4F63E0C6010E9403010097B9F480E18A
:101360008A83AE014E5F5F4F64E0C6010E940301B5
:10137000009761F48981807489688F7B8983AE01CD
:101380004F5F5F4F65E0C6010E940301F501948F36
:10139000838FF501948F838F0F900F900F900F9094
:1013A000DF91CF911F910F91FF90EF90DF90CF9041
:1013B000BF90AF909F908F90089581E080938602B8
:1013C00080E48093A802109287021092A9026CEA2E
:1013D00087E493E00E94A70587E493E00C94D60588
:1013E00085E10E94C002BC01990F880B990B0E94F5
:1013F0002E1927E230EA49E85BE30E94E319609383
:10140000E3017093E4018093E5019093E601089570
:10141000893040F49FB7F89420E8209361008093CE
:1014200061009FBF0895FC0101900020E9F731970A
:10143000AF01481B590BBC018AEA92E00C942601CB
:101440008F929F92AF92BF920F931F93CF93DF9390
:10145000CDB7DEB7A1970FB6F894DEBF0FBECDBFF4
:1014600019A2423008F44AE08E010F5D1F4F842E0E
:10147000912CB12CA12CA50194010E94651AE62F94
:10148000B901CA01EA30F4F4E05DD801EE938D01B0
:10149000232B242B252B79F790E080E0109719F06F
:1014A000CD010E94130AA1960FB6F894DEBF0FBEBD
:1014B000CDBFDF91CF911F910F91BF90AF909F90C3
:1014C0008F900895E95CE1CF0C94130A682F70E0C7
:1014D00090E080E04AE00C94200A4F925F926F9275
:1014E0007F928F929F92AF92BF92CF92DF92EF92B4
:1014F000FF926B017C01AC019B010E94501A882372
:1015000081F08CE391E0FF90EF90DF90CF90BF905F
:10151000AF909F908F907F906F905F904F900C94C2
:10152000130A46015701E894B7F82FEF3FEF4FE752
:101530005FE7C501B4010E94501A81110DC02FEF61
:101540003FEF4FE75FE7C501B4010E948618181608
:101550001CF480E491E0D7CF2FEF3FEF4FE75FE43B
:10156000C701B6010E94DE1918161CF484E491E04C
:10157000CACF2FEF3FEF4FE75FECC701B6010E94E4
:10158000861887FDF3CF20E030E0A901C701B6013E
:101590000E948618B12CA12C87FF08C08DE20E9402
:1015A00013025C01F7FAF094F7F8F0942AE037EDB3
:1015B00043EA5BE3C701B6010E941A182B013C0104
:1015C0000E94FD186B017C010E942C199B01AC014B
:1015D000C301B2010E9419182B013C014AE0C70166
:1015E000B6010E94200A7C01EA0CFB1C8EE20E94DC
:1015F0001302E80EF91E20E030E040E251E4C3019E
:10160000B2010E94E3192B013C010E94FD184B011D
:10161000B12CA12C4AE0C501B4010E94200AE80EB9
:10162000F91EC501B4010E942C199B01AC01C30134
:10163000B2010E94191820E030E040E251E40E941B
:10164000E3190E94FD1890E080E04AE00E94200A21
:101650008E0D9F1DFF90EF90DF90CF90BF90AF90C9
:101660009F908F907F906F905F904F900895CF9252
:10167000DF92EF92FF920F931F93CF93DF9300D0EF
:1016800000D01F92CDB7DEB741E065E080E40E9454
:101690007F04F82E1092CC018093CD018E010F5F54
:1016A0001F4F8091CC01F81641F087E493E00E942F
:1016B0006705F80181938F01F4CF6A817B817627DA
:1016C0006727762790E080E00E942C1920E030E028
:1016D00040E856E40E94191820E030E048E453E462
:1016E0000E94E31920E030E040E058E30E94E31953
:1016F00020E030E0A9010E941A1820E030E04AE71B
:1017000054E40E94E3196B017C012091CE013091D9
:10171000CF014091D0015091D1010E94191826E0CB
:1017200031EC4EED52E40E948B18609329027093C5
:101730002A0280932B0290932C026C817D81762764
:101740006727762784E0769567958A95E1F7685153
:10175000710990E080E00E942C192DEC3CEC4CE4E7
:101760005DE30E94E31920E030E048E452E40E9487
:1017700019186093E7017093E8018093E901909351
:10178000EA01C092EB01D092EC01E092ED01F092FF
:10179000EE010F900F900F900F900F90DF91CF916F
:1017A0001F910F91FF90EF90DF90CF9008958F924F
:1017B0009F92AF92BF92DF92EF92FF920F931F938F
:1017C000CF93DF930115110509F44EC0D8015D9642
:1017D000ED90FC90E114F10409F446C0F8014901D0
:1017E0005A01D72E162F682FC78D81E0809386026D
:1017F000C093A802109287021092A902D701ED911E
:10180000FC910190F081E02DC701099580E00E94D4
:101810008F03682D613208F060E241E08C2F0E9456
:101820007F041092CC018093CD0190E0B0E0A0E065
:1018300088169906AA06BB0629F5012FC12FDD2DB2
:101840008C2F801B90E0B0E0A0E088159905AA05D8
:10185000BB05D8F4D701ED91FC910284F385E02D0E
:10186000C70109958993ECCF83E090E0DF91CF9198
:101870001F910F91FF90EF90DF90BF90AF909F90DE
:101880008F90089586E090E0F1CF90E080E0EECF79
:101890003F924F925F926F927F928F929F92AF9200
:1018A000BF92CF92DF92EF92FF920F931F93CF934D
:1018B000DF93CDB7DEB767970FB6F894DEBF0FBEE4
:1018C000CDBF81E08093860288E68093A8021092C3
:1018D00087021092A90260E087E493E00E94A705C6
:1018E00080E00E948F0340E067E088E60E947F046A
:1018F000D82E1092CC018093CD017E012DE0E20E16
:10190000F11C87015801AE18BF088091CC01D81690
:1019100041F087E493E00E946705F80181938F010D
:10192000F1CF87E493E00E94D60580E0F7E0AF16A0
:10193000B10409F0E2C08D85282F22952F709AE01E
:101940008F70299F800D11248093FF018E85282F91
:1019500022952F708F70299F800D11248093F201A2
:101960008F85282F30E044E0359527954A95E1F79B
:1019700023708F70299F800D112480930001898925
:10198000282F22952F708F70299F800D112480930E
:1019900001018A89282F22952F708F70299F800D31
:1019A0001124809302018B89282F22952F708F702C
:1019B000299F800D1124809303013090FF018090B6
:1019C000F2019090000100910101109102018091BB
:1019D00003019CE0E6E0F1E09E012F5F3F4F5901DB
:1019E000D90101900D929A95E1F7282F30E0225EFF
:1019F0003F4F032E000C440B550B69017A0162E046
:101A0000F594E794D794C7946A95D1F7837049F415
:101A100080E8482E81E5582E66246394712C13309B
:101A200018F4412C512C32012C193D094E095F0943
:101A300060E873E381EE91E00E94551A6C8B7D8B18
:101A40008E8B9F8BA701960160E075E882EE91E096
:101A50000E94551ACC88DD88EE88FF88C60ED71EF6
:101A6000E81EF91E4C0C5D1C6E1C7F1CF501812FBD
:101A70008150990B7C01CF018A199B098E159F0516
:101A80006CF4A191B0E020E831E541E050E00E9423
:101A9000961A460E571E681E791EEDCF292D30E08E
:101AA000A0E1BEE00E94871A6B017C01282D30E086
:101AB000ACE3B0E00E94871AC60ED71EE81EF91EDE
:101AC000C30CD11CE11CF11CA02FB0E020E831E5D3
:101AD00041E050E00E94961AC60ED71EE81EF91E7D
:101AE0004C0C5D1C6E1C7F1C4092350250923602DD
:101AF000609237027092380281E067960FB6F894D0
:101B0000DEBF0FBECDBFDF91CF911F910F91FF9030
:101B1000EF90DF90CF90BF90AF909F908F907F908D
:101B20006F905F904F903F900895CF92DF92EF9229
:101B3000FF920F931F93CF93DF93CDB7DEB76A97D2
:101B40000FB6F894DEBF0FBECDBF60E089E593E02D
:101B50000E94DC057C0107E110E020E030E0AE01EE
:101B60004F5F5F4F6DE289E593E00E94F505E82A3B
:101B7000F92AE7E5F3E089819A8198278927982750
:101B8000958384838B819C819827892798279783C5
:101B900086838D819E8198278927982791878087C2
:101BA0008F819885982789279827938782878985A9
:101BB0009A85982789279827958784878B859C8580
:101BC000982789279827978786878D859E859827C8
:101BD00089279827978B868B8F85818F888999890C
:101BE000918B808B8A899B89938B828B8C899D8931
:101BF000958B848B8F89828F62E089E593E00E94C8
:101C0000DC05E82AF92A01E010E020E030E0AE012E
:101C1000465E5F4F64E189E593E00E94F505E82A9E
:101C2000F92A8A8D8695982F93708FE6C82E83E0C7
:101C3000D82EF60180818C7F892B808362E089E534
:101C400093E00E94DC05E82AF92A01E010E020E098
:101C500030E0AE01475E5F4F61E089E593E00E94AE
:101C6000F505E82AF92A898D880F982F9C70F601CE
:101C70008081837F892B808301E010E020E030E0C9
:101C8000AE01485E5F4F65E189E593E00E94F5058E
:101C90008E299F296A960FB6F894DEBF0FBECDBF7E
:101CA000DF91CF911F910F91FF90EF90DF90CF9038
:101CB0000895CF92DF92EF92FF920F931F93CF93ED
:101CC000DF938091790190917A01019690937A0146
:101CD000809379010E94950D909373038093720312
:101CE0000091790110917A01C0915503D09156036A
:101CF000B801012E000C880B990B0E942E196B0164
:101D00007C01BE010D2E000C880B990B0E942E1930
:101D100020E030E040E05FE30E94E3199B01AC016A
:101D2000C701B6010E94DE1987FD08C080917801C5
:101D3000882321F0109278010E94DD090C171D07FD
:101D4000F4F00E94370B81E08093780180910401C8
:101D500090910501892B21F061E084E00E94380216
:101D60000E94480C0E94F00981E08093EF011092DC
:101D70007A011092790160E084E00E94380281E0EB
:101D80008093F001DF91CF911F910F91FF90EF9021
:101D9000DF90CF90089585ED8093BC008091820202
:101DA00090918302A0918402B09185020796A11DB3
:101DB000B11D23E0B695A795979587952A95D1F7FC
:101DC0002091BC0024FD03C0109280020895409130
:101DD0008202509183026091840270918502452BAA
:101DE000462B472B69F30097A105B10541F02AE185
:101DF0002A95F1F700C00197A109B109E1CF8091BF
:101E000081020C946E031F920F920FB60F92112451
:101E10002F933F934F935F936F937F938F939F93F2
:101E2000AF93BF93EF93FF938AEA92E00E94A401DD
:101E3000FF91EF91BF91AF919F918F917F916F91A2
:101E40005F914F913F912F910F900FBE0F901F9078
:101E500018951F920F920FB60F9211242F938F9304
:101E60009F93EF93FF93E091BA02F091BB028081C0
:101E7000E091C002F091C10282FD1BC0908180916F
:101E8000C3028F5F8F732091C402821741F0E091EB
:101E9000C302F0E0E655FD4F958F8093C302FF919A
:101EA000EF919F918F912F910F900FBE0F901F90E8
:101EB00018958081F4CF1F920F920FB60F921124C4
:101EC0002F933F938F939F93AF93BF938091C001C4
:101ED0009091C101A091C201B091C3013091BF01A5
:101EE00026E0230F2D3758F50296A11DB11D209332
:101EF000BF018093C0019093C101A093C201B09330
:101F0000C3018091C4019091C501A091C601B09117
:101F1000C7010196A11DB11D8093C4019093C50115
:101F2000A093C601B093C701BF91AF919F918F91CC
:101F30003F912F910F900FBE0F901F90189529E899
:101F4000230F0396A11DB11DD2CF1F920F920FB682
:101F50000F9211242F933F934F935F936F937F932F
:101F60008F939F93AF93BF93EF93FF938091B900AB
:101F7000887F803609F44AC0F0F5883209F4A7C09A
:101F800018F5803109F49BC0B8F4882309F4F9C02E
:101F9000883009F494C0FF91EF91BF91AF919F9168
:101FA0008F917F916F915F914F913F912F910F9002
:101FB0000FBE0F901F901895883109F488C08032A9
:101FC00051F780937E0214C0803409F49DC040F420
:101FD0008033B9F38833F9F680937E0285ECB0C084
:101FE000803509F485C0883509F496C0883499F69F
:101FF0000E94CB0ED0CF883909F48CC038F58837D1
:1020000029F050F4883611F0803729F683E0809368
:1020100080021092BE0157C0883809F47BC0803915
:1020200019F0803809F0B7CF8091BE01803208F0F6
:1020300071C0E091BE0181E08E0F8093BE0180915E
:10204000BB00F0E0E256FE4F80833DC0803B39F09C
:10205000E0F4803A09F479C0883A09F09CCF84E032
:102060008093800210929D0110929C01E091CA0120
:10207000F091CB01099580919C0181110FC081E005
:1020800080939C0110927C0109C0803C09F4A6CF8A
:10209000883C09F4A3CF883B09F07DCFE0919D01F6
:1020A00081E08E0F80939D01F0E0E458FE4F808127
:1020B0008093BB0090919D0180919C0129C08091EB
:1020C0005B028093BB0085EC8093BC0064CF909151
:1020D0007D0280917C02981758F5E0917D0281E0A5
:1020E0008E0F80937D02F0E0E45AFD4F8081E9CFAE
:1020F000E0917D0281E08E0F80937D028091BB0094
:10210000F0E0E45AFD4F808390917D0280917C0243
:102110009817C8F285E8D8CFE0917D0281E08E0F54
:1021200080937D028091BB00F0E0E45AFD4F8083F4
:1021300080917F0281115CCF81E080935A0284EA12
:102140008093BC001092800226CF85EC8093BC0067
:10215000109280028091BE01803230F4E091BE0185
:10216000F0E0E256FE4F10826091BE0170E0E09117
:10217000C801F091C9018EE991E009951092BE0164
:102180000ACF10927E0234CF1F920F920FB60F9299
:1021900011242F933F934F935F936F937F938F936C
:1021A0009F93AF93BF93EF93FF9378948091E10156
:1021B0009091E2018093B2008091D7019091D80173
:1021C000A091D901B091DA010196A11DB11D8093B2
:1021D000D7019093D801A093D901B093DA0140912F
:1021E000D7015091D8016091D9017091DA018091A5
:1021F000DD019091DE01A091DF01B091E00148176F
:1022000059076A077B07B0F08091D601811112C08F
:1022100081E08093D6011092D7011092D8011092DC
:10222000D9011092DA01E091DB01F091DC0109950E
:102230001092D601FF91EF91BF91AF919F918F9135
:102240007F916F915F914F913F912F910F900FBEB2
:102250000F901F9018951F920F920FB60F92112496
:102260000F900FBE0F901F901895EAEAF2E01382CC
:10227000128288EE93E0A0E0B0E084839583A68389
:10228000B78326E131E03183208325EC30E03587C8
:10229000248724EC30E03787268720EC30E0318B30
:1022A000208B21EC30E0338B228B22EC30E0358B1D
:1022B000248B26EC30E0378B268B118E128E138EFA
:1022C000148EE7E4F3E01382128284839583A6835D
:1022D000B78388E291E091838083809161008AE3F3
:1022E00091E0909358038093570384E190E090939A
:1022F00056038093550382E390E0909354038093B8
:1023000053030895CF93DF9300D000D0CDB7DEB74D
:10231000789484B5826084BD84B5816084BD85B5C0
:10232000826085BD85B5816085BD80916E008160CC
:1023300080936E0010928100809181008260809372
:102340008100809181008160809381008091800074
:102350008160809380008091B10084608093B1009F
:102360008091B00081608093B00080917A00846099
:1023700080937A0080917A00826080937A008091C5
:102380007A008E7F80937A0080917A0080688093B3
:102390007A001092C100E091BA02F091BB0222E0F3
:1023A0002083E091B602F091B7021082E091B8026A
:1023B000F091B90288E080831092C202E091BE02DF
:1023C000F091BF0286E08083E091BC02F091BD02F3
:1023D000808180618083E091BC02F091BD028081A8
:1023E00088608083E091BC02F091BD0280818068AA
:1023F0008083E091BC02F091BD0280818F7D80835B
:1024000061E084E00E94840261E081E10E94840234
:1024100061E088E00E94840262E080E10E94840220
:1024200060E085E10E94840262E087E00E9484020D
:1024300061E08FE00E94840261E089E00E948402F2
:1024400060E08EE00E94840260E084E10E948402E9
:1024500061E086E00E94840261E085E00E948402DF
:1024600060E08FE00E94380260E089E00E9438025C
:1024700061E086E00E94380261E085E00E94380257
:1024800060E081E10E94380261E084E00E9438024D
:1024900061E088E00E94380264E670E080E090E04D
:1024A0000E94F7020E94500384E291E09093CB01D6
:1024B0008093CA0185E291E09093C9018093C8019D
:1024C00032E03093B80084E190E09093560380931B
:1024D000550382E390E0909354038093530360ED9F
:1024E00077E080E090E00E94F7020E94F00981E02E
:1024F0008093860280E48093A80210928702109253
:10250000A90260E087E493E00E94A70587E493E0D6
:102510000E94D60562E070E080E090E00E94F70241
:1025200041E062E080E40E947F04182F1092CC0109
:102530008093CD0162E070E080E090E00E94F702BD
:102540001A8219828091CC01181759F087E493E020
:102550000E94670549815A814F5F5F4F5A834983C3
:10256000F1CF89819A81892B09F44EC00E94DD093F
:1025700064E170E080E090E00E94F7020E94370B77
:10258000C12CD12C7601E1E0F0E0FA83E9830E94CE
:10259000DD0964E170E080E090E00E94F7020E94B3
:1025A000370B64E670E080E090E00E94F702209133
:1025B000EB013091EC014091ED015091EE01C7012A
:1025C000B6010E941A186B017C0129813A81B90178
:1025D000330F880B990B0E942E199B01AC01C70188
:1025E000B6010E948B186093CE017093CF01809347
:1025F000D0019093D10149815A814F5F5F4F5A8337
:1026000049834A30510519F62FEF41E067E473E042
:1026100087E593E00E94770780917203909173039E
:10262000892B71F088E491E00E94130A81E591E022
:102630000E94130A64EF71E080E090E00E94F702CC
:1026400061E089E00E94380268EB7BE080E090E086
:102650000E94F70260E089E00E9438028AE090E080
:102660009A83898364EF71E080E090E00E94F70232
:10267000E981FA813197FA83E983EF2B99F760E0DA
:1026800086E00E94380260E085E00E9438020E94E5
:10269000480C811107C064E670E080E090E00E9481
:1026A000F702F5CF8091350290913602A091370262
:1026B000B09138028093310290933202A09333029A
:1026C000B09334028091350290913602A091370286
:1026D000B09138028093F9019093FA01A093FB0125
:1026E000B093FC0160E088E00E9438028091D20142
:1026F0009091D301A091D401B091D501892B8A2B5F
:102700008B2B99F48091350290913602A09137027B
:10271000B09138020596A11DB11D8093D20190930E
:10272000D301A093D401B093D5016AE070E080E0BA
:1027300090E00E94F70284B7877F84BF8091600099
:1027400088618093600084E08093600080916000E5
:1027500080648093600082E00E94080A8091F20108
:102760008093F1011092290210922A0210922B02FA
:1027700010922C028091290290912A02A0912B02A2
:10278000B0912C028091350290913602A0913702CF
:10279000B091380280932D0290932E02A0932F02C5
:1027A000B093300203E810E0812C912C5401839403
:1027B000A2E03A2E80913902811134C261E088E0B2
:1027C0000E9438020E94480C0E94DD0960E088E007
:1027D0000E9438028091350290913602A091370212
:1027E000B09138024091310250913202609133022F
:1027F00070913402841B950BA60BB70B81319E4060
:10280000A105B10520F0109205011092040160E0CD
:1028100084E00E94380260E081E10E94380282E098
:102820000E94080A83B7817F846083BF83B7816079
:1028300083BF83B7816083BF889583B78E7F83BF53
:1028400083B78E7F83BF8091640080718093640022
:1028500080E00E94080A8091040190910501892B73
:1028600041F061E084E00E94380261E081E10E9471
:1028700038024091350250913602609137027091D2
:10288000380280912D0290912E02A0912F02B091DA
:102890003002481759076A077B0709F466C0809120
:1028A000350290913602A0913702B09138028093A0
:1028B0002D0290932E02A0932F02B093300261E07C
:1028C00088E00E9438020E94370B60E088E00E9496
:1028D0003802809128028F5F8A3008F051C18093BE
:1028E0002802809100028F5F8C3308F08FC18093A3
:1028F000000284E591E00E94640A609129027091CF
:102900002A0280912B0290912C020E946D0A88E588
:1029100091E00E94640A4090010250900202052C4E
:10292000000C660877084AE0C301B20177FE0BC0CD
:102930008DE20E94130266277727CB01641975097F
:10294000860997094AE00E94200A8DE591E00E94DD
:10295000640A8091FF010E94660A81E591E00E946D
:10296000130A8AEA92E00E9418026091350270917F
:1029700036028091370290913802C0903102D09097
:102980003202E0903302F0903402409035025090D1
:10299000360260903702709038022091F901309130
:1029A000FA014091FB015091FC0129833A834B834A
:1029B0005C83E1E02091FD013091FE01203531057D
:1029C00008F0E0E029813A814B815C81421A530A88
:1029D000640A750A21E030E943163EE753066104B4
:1029E000710408F420E04E2F422309F4E3CE6C1961
:1029F0007D098E099F090E942C1920E030EC48EADD
:102A000057E40E948B1820E030E040EA51E40E9435
:102A1000DE1987FDCFCE6091290270912A02809144
:102A20002B0290912C022091010230910202253656
:102A300031050CF4BFCE20E030E849E853E40E94B1
:102A4000DE1918160CF0B6CE61E088E00E9438025C
:102A500064E670E080E090E00E94F7022FEF41E032
:102A600067E473E087E593E00E9477070E94950D85
:102A7000909373038093720341E04093390261E0C5
:102A800086E00E94380261E089E00E94380251E04D
:102A90005093F8011092F7018091530390915403E1
:102AA000092E000CAA0BBB0B209170002E7F2093E7
:102AB00070002091B0002C7F2093B0002091B100D5
:102AC000277F2093B1002091B6002F7D2093B60080
:102AD000209170002D7F209370002091B100246020
:102AE0002093B1002091B1002C7F2093B10010936E
:102AF000E2010093E1010097A105B10509F089C049
:102B00008092DD019092DE01A092DF01B092E0019F
:102B100089E59EE09093DC018093DB011092D70160
:102B20001092D8011092D9011092DA011092D601B8
:102B30008091E1019091E2018093B2008091700058
:102B40008160809370008091350290913602A0914F
:102B50003702B09138028093F3019093F401A0936F
:102B6000F501B093F6018091F2018093F10160E0EC
:102B700084E00E94380260E081E10E9438021ACEAF
:102B8000109228026091290270912A0280912B02F2
:102B900090912C0220912702422F50E0440F551FA4
:102BA0004D5F5D4F5A8349830E94FD18E981FA8188
:102BB00071836083809127028F5F809327028091C9
:102BC0002702823110F010922702F0912702F98338
:102BD0006091290270912A0280912B0290912C021F
:102BE0002F2F30E0220F331F2D5F3D4F3A83298373
:102BF0000E94FD18E981FA8120813181C901861B7B
:102C0000970B90930202809301026BCE1092000208
:102C100070CE8093DD019093DE01A093DF01B0932D
:102C2000E00176CF80913902813009F0F5C18091C1
:102C3000350290913602A0913702B091380240914E
:102C40003102509132026091330270913402841B40
:102C5000950BA60BB70B81319E40A105B10520F065
:102C600010920501109204018091F001882309F46B
:102C70008CC081E591E00E94130A80915B039091E2
:102C80005C030E94C6000E946D0A8FE591E00E94DD
:102C9000640A80915D0390915E030E94C6000E94C9
:102CA0006D0A8FE591E00E94640A80915F03909124
:102CB00060030E94C6000E946D0A8FE591E00E94A9
:102CC000640A6091670370916803072E000C880BFB
:102CD000990B0E942E192AE939E949E15EE30E9425
:102CE000E3190E946D0A8FE591E00E94640A6091E9
:102CF000690370916A03072E000C880B990B0E94E0
:102D00002E192AE939E949E15EE30E94E3190E949C
:102D10006D0A8FE591E00E94640A60916B037091E7
:102D20006C03072E000C880B990B0E942E192AE9C0
:102D300039E949E15EE30E94E3190E946D0A8FE5DB
:102D400091E00E94640A80916103909162030E9465
:102D500087000E946D0A8FE591E00E94640A8091CD
:102D60006303909164030E9487000E946D0A8FE5BF
:102D700091E00E94640A80916503909166030E942D
:102D800087000E946D0A1092F0018091EF01882364
:102D900009F48BC08CE20E941302809103010E940F
:102DA000660A8DE20E941302809102018A3018F4B3
:102DB00080E30E941302809102010E94660A8DE264
:102DC0000E941302809101018A3018F480E30E946E
:102DD0001302809101010E94660A84E50E94130299
:102DE000809100018A3018F480E30E9413028091E0
:102DF00000010E94660A8AE30E9413028091F20198
:102E00008A3018F480E30E9413028091F2010E943C
:102E1000660A8AE30E9413028091FF018A3018F447
:102E200080E30E9413028091FF010E94660A8FE5F1
:102E300091E00E94640A6091EB017091EC01809135
:102E4000ED019091EE010E946D0A8CE20E94130246
:102E50006091290270912A0280912B0290912C029C
:102E60000E946D0A8CE20E9413026091E70170914A
:102E7000E8018091E9019091EA010E946D0A8CE2DB
:102E80000E9413026091E3017091E4018091E501D9
:102E90009091E6010E946D0A8CE20E9413028091DB
:102EA000F7010E94660A1092EF01F091F801F98390
:102EB000F13061F58091F701811128C080913502D0
:102EC00090913602A0913702B09138024091F301FF
:102ED0005091F4016091F5017091F601841B950BFE
:102EE000A60BB70B4F97A105B10580F061E085E017
:102EF0000E94380229812093F7018091FD01909171
:102F0000FE0101969093FE018093FD018091F701EF
:102F1000813021F58091350290913602A0913702DF
:102F2000B09138024091F3015091F4016091F501A4
:102F30007091F601841B950BA60BB70B8997A10521
:102F4000B10560F084E10E94C002883C910534F430
:102F500060E085E00E9438023092F70180913502EE
:102F600090913602A0913702B09138024091F3015E
:102F70005091F4016091F5017091F601841B950B5D
:102F8000A60BB70B803B9440A105B10508F44ACECF
:102F9000809170008E7F8093700060E085E00E94D9
:102FA000380260E089E00E94380260ED77E080E05E
:102FB00090E00E94F70260E086E00E9438021092E2
:102FC00039028091350290913602A0913702B0917A
:102FD00038028093F9019093FA01A093FB01B0931A
:102FE000FC011092F7011092F8011092280281E67C
:102FF00091E00E94130A81E591E00E94130A89E69C
:1030000091E00E94640A809139020E94660A81E57B
:1030100091E00E94130A06CE40E050E0452B09F4EF
:10302000C9CB0E949001882309F4C4CB0E94000000
:10303000C1CB5058BB27AA270E9431180C94A41961
:103040000E94961938F00E949D1920F039F49F3F94
:1030500019F426F40C9493190EF4E095E7FB0C9404
:103060008D19E92F0E94B51958F3BA176207730733
:103070008407950720F079F4A6F50C94D7190EF47F
:10308000E0950B2EBA2FA02D0B01B90190010C0178
:10309000CA01A0011124FF27591B99F0593F50F490
:1030A000503E68F11A16F040A22F232F342F4427E8
:1030B000585FF3CF469537952795A795F0405395E0
:1030C000C9F77EF41F16BA0B620B730B840BBAF0B0
:1030D0009150A1F0FF0FBB1F661F771F881FC2F71B
:1030E0000EC0BA0F621F731F841F48F4879577952F
:1030F0006795B795F7959E3F08F0B0CF9395880FE9
:1031000008F09927EE0F9795879508950E94691901
:1031100008F481E008950E949F180C94A4190E945D
:103120009D1958F00E94961940F029F45F3F29F04C
:103130000C948D1951110C94D8190C9493190E9468
:10314000B51968F39923B1F3552391F3951B550BEA
:10315000BB27AA2762177307840738F09F5F5F4F6A
:10316000220F331F441FAA1FA9F335D00E2E3AF0A9
:10317000E0E832D091505040E695001CCAF72BD0C1
:10318000FE2F29D0660F771F881FBB1F2617370712
:103190004807AB07B0E809F0BB0B802DBF01FF2744
:1031A00093585F4F3AF09E3F510578F00C948D197B
:1031B0000C94D8195F3FE4F3983ED4F38695779545
:1031C0006795B795F7959F5FC9F7880F911D9695FD
:1031D000879597F90895E1E0660F771F881FBB1F59
:1031E000621773078407BA0720F0621B730B840B06
:1031F000BA0BEE1F88F7E09508950E94BD1988F07C
:103200009F5798F0B92F9927B751B0F0E1F0660FAA
:10321000771F881F991F1AF0BA95C9F714C0B130EB
:1032200091F00E94D719B1E008950C94D719672F37
:10323000782F8827B85F39F0B93FCCF3869577951A
:103240006795B395D9F73EF4909580957095619503
:103250007F4F8F4F9F4F0895E89409C097FB3EF42E
:1032600090958095709561957F4F8F4F9F4F9923D3
:10327000A9F0F92F96E9BB279395F6958795779551
:103280006795B795F111F8CFFAF4BB0F11F460FF11
:103290001BC06F5F7F4F8F4F9F4F16C0882311F069
:1032A00096E911C0772321F09EE8872F762F05C07D
:1032B000662371F096E8862F70E060E02AF09A9518
:1032C000660F771F881FDAF7880F9695879597F90D
:1032D0000895990F0008550FAA0BE0E8FEEF1616A7
:1032E0001706E807F907C0F012161306E407F507FA
:1032F00098F0621B730B840B950B39F40A2661F06E
:10330000232B242B252B21F408950A2609F4A14010
:10331000A6958FEF811D811D089597F99F6780E81D
:1033200070E060E008959FEF80EC089500240A9417
:103330001616170618060906089500240A94121690
:103340001306140605060895092E0394000C11F4C3
:10335000882352F0BB0F40F4BF2B11F460FF04C070
:103360006F5F7F4F8F4F9F4F089557FD9058440FC9
:10337000551F59F05F3F71F04795880F97FB991FD4
:1033800061F09F3F79F08795089512161306140691
:10339000551FF2CF4695F1DF08C01616170618061E
:1033A000991FF1CF86957105610508940895E894F9
:1033B000BB2766277727CB0197F908950E946919E3
:1033C00008F48FEF08950E94F6190C94A4190E9436
:1033D000961938F00E949D1920F0952311F00C9455
:1033E0008D190C94931911240C94D8190E94B519B5
:1033F00070F3959FC1F3950F50E0551F629FF00148
:10340000729FBB27F00DB11D639FAA27F00DB11D60
:10341000AA1F649F6627B00DA11D661F829F2227E9
:10342000B00DA11D621F739FB00DA11D621F839F70
:10343000A00D611D221F749F3327A00D611D231F46
:10344000849F600D211D822F762F6A2F11249F5794
:1034500050409AF0F1F088234AF0EE0FFF1FBB1F97
:10346000661F771F881F91505040A9F79E3F510556
:1034700080F00C948D190C94D8195F3FE4F3983EBA
:10348000D4F3869577956795B795F795E7959F5F00
:10349000C1F7FE2B880F911D9695879597F9089592
:1034A0000E946919880B990B0895DB018F939F93F4
:1034B0000E94961ABF91AF91A29F800D911DA39F6C
:1034C000900DB29F900D11240895A1E21A2EAA1B0F
:1034D000BB1BFD010DC0AA1FBB1FEE1FFF1FA217C4
:1034E000B307E407F50720F0A21BB30BE40BF50BC1
:1034F000661F771F881F991F1A9469F7609570954A
:10350000809590959B01AC01BD01CF010895A29FCC
:10351000B001B39FC001A39F700D811D1124911DA7
:10352000B29F700D811D1124911D08950E94871A6C
:10353000A59F900DB49F900DA49F800D911D112407
:103540000895EE0FFF1F0590F491E02D0994F89473
:02355000FFCFAB
:103552001101011101001F1C1F1E1F1E1F1F1E1F14
:103562001E1F00000000C60126015301180284013B
:103572006201760100000000A7057A05D90557050A
:103582001D01670558050000000077076E616E0097
:10359200696E66006F76660049434D206661696C0C
:1035A200000D0A0020443A002064643A0020002CF6
:1035B20000456E6420526563006C6F6F704D6F64DE
:0435C200653A000066
:00000001FF
