:100000000C9468000C9490000C9490000C94900058
:100010000C9490000C9490000C9469220C94900025
:100020000C9490000C9402220C9490000C9490007C
:100030000C9490000C9490000C9490000C94900000
:100040000C9499200C9490000C9467200C944120FF
:100050000C9490000C9490000C9490000C949000E0
:100060000C94E3200C9490006364696E6F70737558
:1000700078585B0000000000250028002B000000DD
:1000800000002300260029000000000800020100F3
:100090000003040700000000000000000000000052
:1000A000240027002A0001020408102040800102D9
:1000B00004081020010204081020040404040404AD
:1000C00004040202020202020303030303039A234D
:1000D00011241FBECFEFD8E0DEBFCDBF12E0A0E0FD
:1000E000B1E0E2EBFCE602C005900D92A835B10745
:1000F000D9F726E0A8E5B2E001C01D92AE3DB207F7
:10010000E1F710E0C8E6D0E004C02197FE010E94AC
:100110004F30C736D107C9F70E9406240C945736D2
:100120000C940000BC018091CE0686958695837064
:100130008130B1F040F08230F1F0833039F160E08D
:1001400070E0CB010895072E000C880B990B0E94DC
:10015000B42E20E030E043E053E40E940A2E0895DC
:10016000072E000C880B990B0E94B42E20E030E083
:1001700043E852E4F2CF072E000C880B990B0E9443
:10018000B42E23E333E343E052E4E7CF072E000C21
:10019000880B990B0E94B42E23E333E343E851E428
:1001A000DCCFBC018091CE0683708130B1F040F08D
:1001B0008230F1F0833039F160E070E0CB010895D6
:1001C000072E000C880B990B0E94B42E2FE632E10B
:1001D00043E851E40E940A2E0895072E000C880B74
:1001E000990B0E94B42E2FE632E143E051E4F2CFA6
:1001F000072E000C880B990B0E94B42E2FE632E1DB
:1002000043E850E4E7CF072E000C880B990B0E94BF
:10021000B42E2FE632E143E050E4DCCF0F931F937E
:10022000FC01862FA081B181ED91FC91119730974F
:1002300061F0BA0114960D911C9121E030E040E08C
:1002400050E009951F910F91089582E090E0FACF58
:100250008091CB029091CA02891B990B0895089551
:100260000895AF92BF92CF92DF92EF92FF920F93D9
:100270001F93CF93DF936C017B018B01040F151F3C
:10028000EB015E01AE18BF08C017D10759F06991A4
:10029000D601ED91FC910190F081E02DC601099508
:1002A000892B79F7C501DF91CF911F910F91FF90B5
:1002B000EF90DF90CF90BF90AF900895FC01538DE9
:1002C000448D252F30E0842F90E0821B930B541730
:1002D00010F0CF96089501970895FC01918D828DBD
:1002E000981761F0A28DAE0FBF2FB11D5D968C9156
:1002F000928D9F5F9F73928F90E008958FEF9FEF95
:100300000895FC01918D828D981731F0828DE80F50
:10031000F11D858D90E008958FEF9FEF0895FC010A
:10032000918D228D892F90E0805C9F4F821B9109D7
:100330008F73992708958DE893E00E948F0121E043
:10034000892B09F420E0822F089580E090E0892B2A
:1003500029F00E949B0181110C9400000895FC017A
:10036000A48DA80FB92FB11DA35ABF4F2C91848D16
:1003700090E001968F739927848FA689B7892C9373
:10038000A089B1898C91837080648C93938D848DC6
:10039000981306C00288F389E02D80818F7D8083C9
:1003A0000895EF92FF920F931F93CF93DF93EC0189
:1003B00081E0888F9B8D8C8D98131AC0E889F9890C
:1003C000808185FF15C09FB7F894EE89FF8960830F
:1003D000E889F98980818370806480839FBF81E090
:1003E00090E0DF91CF911F910F91FF90EF900895D2
:1003F000F62E0B8D10E00F5F1F4F0F731127E02EAD
:100400008C8D8E110CC00FB607FCFACFE889F989E4
:10041000808185FFF5CFCE010E94AF01F1CFEB8D3A
:10042000EC0FFD2FF11DE35AFF4FF0829FB7F894B8
:100430000B8FEA89FB8980818062CFCFCF93DF93D6
:10044000EC01888D8823B9F0AA89BB89E889F989EC
:100450008C9185FD03C0808186FD0DC00FB607FC21
:10046000F7CF8C9185FFF2CF808185FFEDCFCE0154
:100470000E94AF01E9CFDF91CF910895833081F0E1
:1004800028F4813099F08230A9F008958730A9F0DE
:100490008830C9F08430B1F4809180008F7D03C032
:1004A000809180008F7780938000089584B58F7746
:1004B00084BD089584B58F7DFBCF8091B0008F7788
:1004C0008093B00008958091B0008F7DF9CFCF93D5
:1004D000DF93282F30E0F901E857FF4F8491F901AD
:1004E000EA55FF4FD491F901E654FF4FC491CC2354
:1004F000A1F081110E943E02EC2FF0E0EE0FFF1FF1
:10050000E258FF4FA591B491EC91ED2381E090E08A
:1005100009F480E0DF91CF91089580E090E0FACF78
:100520001F93CF93DF93282F30E0F901E857FF4F57
:100530008491F901EA55FF4FD491F901E654FF4F38
:10054000C491CC23A9F0162F81110E943E02EC2FFA
:10055000F0E0EE0FFF1FEC58FF4FA591B4918FB75D
:10056000F894EC91111108C0D095DE23DC938FBF75
:10057000DF91CF911F910895DE2BF8CFCF93DF93BA
:1005800090E0FC01EA55FF4F249186549F4FFC01F7
:1005900084918823C9F090E0880F991FFC01E456EC
:1005A000FF4FA591B491FC01EC58FF4FC591D49138
:1005B00061110DC09FB7F8948C91209582238C9384
:1005C0008881282328839FBFDF91CF9108956230CF
:1005D00051F49FB7F8943C91822F809583238C939C
:1005E000E8812E2BEFCF8FB7F894EC912E2B2C9324
:1005F0008FBFEACF8E50806480937C0080917A0018
:10060000806480937A0080917A0086FDFCCF80918F
:1006100078009091790008953FB7F8948091C002D6
:100620009091C102A091C202B091C30226B5A89BCD
:1006300005C02F3F19F00196A11DB11D3FBFBA2F74
:10064000A92F982F8827BC01CD01620F711D811D34
:10065000911D43E0660F771F881F991F4A95D1F7B8
:1006600008958F929F92AF92BF92CF92DF92EF92B6
:10067000FF924B015C010E940C036B017C010E9404
:100680000C036C197D098E099F09683E7340810532
:100690009105A8F321E0821A9108A108B10888EE1B
:1006A000C80E83E0D81EE11CF11C81149104A10442
:1006B000B10429F7FF90EF90DF90CF90BF90AF90FB
:1006C0009F908F90089520919802260F3327331F13
:1006D00021323105ECF420916303FC0190E080E0CD
:1006E000243069F082E00895A09198022191AC0134
:1006F00048585D4FA40FB52FB11D2C930196861756
:1007000098F380919802680F6093980280E00895B2
:1007100081E008951092630381E080936203109258
:100720003D0361E082E10E94900261E083E10E946A
:100730009002E9EBF0E080818E7F808380818D7F65
:10074000808380E28093B80085E48093BC000895A4
:10075000CF93DF9391E0909377028823B9F0C09113
:10076000B800D091BA008091BC008A7B8093BC0015
:1007700060E082E10E94900260E083E10E949002CA
:100780000E948A03D093BA00C093B800DF91CF9142
:1007900008958F929F92AF92BF92CF92DF92EF9285
:1007A000FF920F931F93CF93DF93D0918C03D1329D
:1007B00008F0D7C0182FC0918B030E940C036B0167
:1007C0007C018091630381116BC082E0809363039D
:1007D000109362038FEF8093610310926003D093B4
:1007E0005F03ABE6B3E0EFE3F3E080E0D81391C042
:1007F00010923E0380913E03CC0FC82BC0933E0362
:1008000080913D03813009F088C010923D030E9421
:100810000C036B017C0180913E038093BB008091AF
:10082000650390916603A0916703B0916803892BDB
:100830008A2B8B2BA1F00E940C0300916503109171
:10084000660320916703309168036C197D098E0956
:100850009F09061717072807390708F442C0809137
:10086000BC0083FDD8CF85EC8093BC000E940C03B4
:100870006B017C0180916303823009F450C0809148
:1008800061038F3F09F46FC080916103803209F4E6
:100890006CC080916103803309F469C084E026C094
:1008A0008091650390916603A0916703B0916803FE
:1008B000892B8A2B8B2B09F484CF0E940C03809008
:1008C000650390906603A0906703B09068036C196D
:1008D0007D098E099F0986169706A806B90608F0B5
:1008E00070CF809164030E94A80385E010926A0390
:1008F00010928C0310926903DF91CF911F910F9199
:10090000FF90EF90DF90CF90BF90AF909F908F902F
:1009100008959D9191938F5F69CF85EEA5CF8091CA
:10092000650390916603A0916703B0916803892BDA
:100930008A2B8B2B09F49ECF0E940C030091650338
:100940001091660320916703309168036C197D094B
:100950008E099F09061717072807390708F08ACF5D
:10096000C0CF81E0C3CF80E0C1CF82E0BFCF83E0C2
:10097000BDCF8F929F92AF92BF92CF92DF92EF92B4
:10098000FF920F931F93CF93DF93D82FC62F142F6F
:10099000613208F09CC00E940C036B017C018091C5
:1009A000630381116FC081E080936303109362033E
:1009B0009FEF90936103109260039C0F90935F03ED
:1009C00080933E0380913E03DD0FD82BD0933E03EE
:1009D00080913D03813009F07CC010923D030E945C
:1009E0000C036B017C0180913E038093BB008091DE
:1009F000650390916603A0916703B0916803892B0A
:100A00008A2B8B2BA1F00E940C030091650310919F
:100A1000660320916703309168036C197D098E0984
:100A20009F09061717072807390708F44CC080915B
:100A3000BC0083FDD8CF85EC8093BC000E940C03E2
:100A40006B017C0180916303813009F444C0809183
:100A500060038C1710F4C0916003EFE3F3E0ADE1A5
:100A6000B3E080E08C1359C08C2FDF91CF911F91A0
:100A70000F91FF90EF90DF90CF90BF90AF909F903D
:100A80008F9008958091650390916603A09167030C
:100A9000B0916803892B8A2B8B2B09F480CF0E949D
:100AA0000C038090650390906603A0906703B0905C
:100AB00068036C197D098E099F0986169706A8069A
:100AC000B90608F06CCF809164030E94A803C0E0CF
:100AD000CBCF85EEB1CF8091650390916603A09155
:100AE0006703B0916803892B8A2B8B2B09F4AACF5B
:100AF0000E940C0300916503109166032091670327
:100B0000309168036C197D098E099F090617170734
:100B10002807390708F096CFD6CF91919D938F5F24
:100B2000A1CF0895E091CA028091CB02E81730F47A
:100B3000F0E0E35EFC4F808190E008958FEF9FEF3F
:100B400008959091CA028091CB022FEF3FEF981742
:100B500048F4E92FF0E0E35EFC4F208130E09F5F36
:100B60009093CA02C9010895CF92DF92EF92FF924B
:100B70000F931F93CF93DF937C01CB018A012091C8
:100B80006903222389F0EB016B01C40ED51ECC153D
:100B9000DD0569F06991D701ED91FC910190F0813B
:100BA000E02DC7010995F3CF642F0E946303C801AC
:100BB000DF91CF911F910F91FF90EF90DF90CF9039
:100BC0000895CF93DF931F92CDB7DEB7698320914D
:100BD00069032223F9F020918C03203258F021E0A0
:100BE00030E0FC013383228390E080E00F90DF91BE
:100BF000CF91089580916A03E82FF0E0E559FC4F0A
:100C0000998190838F5F80936A0380938C0381E046
:100C100090E0ECCF61E0CE0101960E946303F7CF34
:100C2000682F8AE294E00C94E10581E00C94C903FA
:100C3000CF93DF931F92CDB7DEB7643078F420E115
:100C4000629FB00111246983AE014F5F5F4F6FE770
:100C50000E940E010F90DF91CF91089583E090E004
:100C6000F9CF0F931F93FC01862FBA01A081B181A8
:100C70001296ED91FC911397309749F0A9019801D4
:100C800014960D911C9109951F910F91089582E082
:100C900090E0FACF8F929F92AF92BF92EF92FF9225
:100CA0000F931F93CF93DF930115110591F1F80175
:100CB000C58DD68D209769F149017B01682F878DFD
:100CC00091E09093690380938B0310926A031092D2
:100CD0008C03E881F9810190F081E02DCE01099526
:100CE000E881F9810280F381E02DA401B701CE01F2
:100CF0000995CE010E94150690E080E0DF91CF912A
:100D00001F910F91FF90EF90BF90AF909F908F90A9
:100D1000089583E090E0F2CF8F929F92AF92BF92BE
:100D2000CF92DF92EF92FF920F931F93CF93DF93B7
:100D300000D000D0CDB7DEB75C01822FF50120A333
:100D4000768F658F41A398E6411199E6978F8F3F83
:100D500019F061E00E94BE02F50180A18F3F19F0F9
:100D600061A10E9490028AE496E0F50193A382A318
:100D700088E593E195A384A3B7A2A6A2C5018296B4
:100D8000938382836501F2E0CF0ED11C198260E06B
:100D9000C6010E94180601E010E020E030E0AE013C
:100DA0004F5F5F4F60E0C6010E943106009709F077
:100DB00005C289818A3E19F084E090E0FFC1F50107
:100DC000148E138E60E0C6010E94180601E010E048
:100DD00020E030E0AE014F5F5F4F66E0C6010E9449
:100DE0003106009751F4898180688983AE014F5F95
:100DF0005F4F66E0C6010E940E01F501948F838F5C
:100E0000009709F0DBC162E370E080E090E00E94AF
:100E1000310360E0C6010E94180601E010E020E006
:100E200030E0AE014F5F5F4F66E0C6010E943106C1
:100E3000009751F489818F7B8983AE014F5F5F4FAB
:100E400066E0C6010E940E01F501948F838F009722
:100E500009F0B4C160E0C6010E94180601E010E08C
:100E600020E030E0AE014F5F5F4F66E0C6010E94B8
:100E70003106009751F489818F7D8983AE014F5FE0
:100E80005F4F66E0C6010E940E01F501948F838FCB
:100E9000009709F093C160E0C6010E941806009710
:100EA000C1F401E010E020E030E0AE014F5F5F4FA1
:100EB00065E0C6010E943106009759F489818F7D53
:100EC0008F7E8983AE014F5F5F4F65E0C6010E9450
:100ED0000E01F501948F838F009709F06FC162E0D6
:100EE000C6010E9418067C0101E010E020E030E01D
:100EF000AE014F5F5F4F64E1C6010E943106E82AF0
:100F0000F92A8981897F8983AE014F5F5F4F64E150
:100F1000C6010E940E01E82AF92A62E0C6010E9479
:100F20001806E82AF92A01E010E020E030E0AE01DE
:100F30004F5F5F4F61E0C6010E943106E82AF92A3F
:100F40008981897F8983AE014F5F5F4F61E0C60170
:100F50000E940E018E299F29F501948F838F00979F
:100F600009F02CC162E0C6010E9418067C0101E074
:100F700010E020E030E0AE014F5F5F4F64E1C6015A
:100F80000E943106E82AF92A898188638983AE01A3
:100F90004F5F5F4F64E1C6010E940E01E82AF92A03
:100FA00062E0C6010E941806E82AF92A01E010E072
:100FB00020E030E0AE014F5F5F4F61E0C6010E946C
:100FC0003106E82AF92A898188638983AE014F5F57
:100FD0005F4F61E0C6010E940E018E299F29F50135
:100FE000948F838F009709F0E9C061E0C6010E94E9
:100FF0007322009709F0E2C062E0C6010E947322EA
:10100000009709F0DBC060E0C6010E941806009757
:1010100019F4C6010E947223F501948F838F60E05A
:10102000C6010E941806009709F043C0C6010E943D
:1010300072230097F1F563E0C6010E94180600973D
:10104000C1F501E010E020E030E0AE014E5F5F4FFF
:1010500061E0C6010E943106009759F58A81807FC0
:10106000876080618A83AE014E5F5F4F61E0C60199
:101070000E940E010097E9F460E0C6010E94180684
:101080000097B9F401E010E020E030E0AE014F5FDE
:101090005F4F63E0C6010E943106009751F48981D9
:1010A00080628983AE014F5F5F4F63E0C6010E949B
:1010B0000E01F501948F838F85E0F82E94E0892E40
:1010C000912C21E0AE014F5F5F4F60E0C6010E94AE
:1010D000C422F501948F838F198121E0AE014F5F07
:1010E0005F4F61E0C6010E94C4228981F501148E20
:1010F000138E183411F4893039F1F501948E838EF2
:1011000060E0C6010E9418060097B9F401E010E003
:1011100020E030E0AE014F5F5F4F63E0C6010E9408
:101120003106009751F4898182608983AE014F5F57
:101130005F4F63E0C6010E940E01F501948F838F1B
:10114000FA94F110BECF38CE88E08C8320E0AE0157
:101150004C5F5F4F61E3C6010E94C422F501948F8A
:10116000838F009759F563E0C6010E941806009727
:1011700011F58CE88B83AE014D5F5F4F63E0C601D4
:101180000E940E010097B9F480E18A83AE014E5FA0
:101190005F4F64E0C6010E940E01009761F48981EF
:1011A000807489688F7B8983AE014F5F5F4F65E0F4
:1011B000C6010E940E01F501948F838FF501948F73
:1011C000838F0F900F900F900F90DF91CF911F9111
:1011D0000F91FF90EF90DF90CF90BF90AF909F90D6
:1011E0008F900895CF93DF93EC01E981FA8190818C
:1011F00081819CBD8DBDE981FA8160E082810E9480
:10120000900281E08B83DF91CF9108958EBD0DB464
:1012100007FEFDCF08958FEF8EBD0DB407FEFDCF05
:101220008EB50895CF93DF93FC012381222361F0D3
:10123000EC010180F281E02D61E082810E94900248
:101240008FEF0E9406091B82DF91CF9108952FB77F
:10125000F8948091BC029091BD02A091BE02B09121
:10126000BF022FBF0895CF93DF930E942709EC019F
:101270000E940B098F3F59F00E9427098C1B9D0B80
:1012800089359240A8F380E0DF91CF91089581E005
:10129000FBCFDF92EF92FF920F931F93CF93DF93D9
:1012A0008C01C62FD22FF32EE42ED52EFC01838184
:1012B000811103C0C8010E94F2080E9433098C2FDB
:1012C00080640E9406098D2D0E9406098E2D0E94C1
:1012D00006098F2D0E9406098D2F0E94060987E8B6
:1012E000C11101C085E90E940609CC3011F40E94A9
:1012F0000B09C0E00E940B09F801848387FF04C03A
:10130000CF3F11F0CF5FF6CFDF91CF911F910F91BB
:10131000FF90EF90DF9008950F931F93CF93DF938B
:10132000EC0189018D81833039F089E0440F551F2C
:10133000661F771F8A95D1F79A01AB0168E1CE014C
:101340000E944909882319F082E3888337C08EEF11
:101350000E940609F80180818EBD818132961E5F50
:101360000DB407FEFDCF8EBDE017F10711F081919E
:10137000F7CF0DB407FEFDCF8FEF0E9406098FEF68
:101380000E9406090E940B098C838F71853089F4B5
:101390000E943309182F89E51123B9F220E030E0CB
:1013A000A9016DE0CE010E944909882361F089E21C
:1013B000CCCF86E58883CE010E941209CE010E941F
:1013C000120910E007C00E940B098111F0CFCE0175
:1013D0000E941209812FDF91CF911F910F910895E3
:1013E000EF92FF920F931F93CF93DF93EC0189014C
:1013F0008D81833039F089E0440F551F661F771FB8
:101400008A95D1F79A01AB0161E1CE010E944909A9
:10141000882339F080E38883CE010E94120980E09E
:1014200037C00E9427097C010E940B098C838F3FE3
:1014300069F40E9427098E199F098D329140A0F30B
:1014400084E58883CE010E941209E6CF8E3F11F019
:1014500080E5F7CF8FEF8EBDF801D801A150BE4FC8
:101460009FEF0DB407FEFDCF8EB59EBD8193AE17E5
:10147000BF07B9F70DB407FEFDCF8EB58C931C8264
:101480000E940B090E940B09CE010E94120981E003
:10149000DF91CF911F910F91FF90EF900895EF9200
:1014A000FF921F93CF93DF93FC01208111E020FF77
:1014B00014C0EC017C01F7E0EF0EF11C4B815C8164
:1014C0006D817E81E981FA819701808191810E94FD
:1014D0008C09182F811108C010E0812FDF91CF9166
:1014E0001F91FF90EF900895888181FD04C088814D
:1014F0008E7F8883F2CFE981FA814B815C816D8197
:101500007E8184859585A685B785480F591F6A1FFA
:101510007B1F9701808191810E948C098111E7CF07
:10152000DBCFCF92DF92EF92FF921F93CF93DF93A7
:10153000EC016A017B01122F8B819C81AD81BE8100
:101540008C159D05AE05BF05B1F0CE010E944F0A76
:1015500081110AC090E080E0DF91CF911F91FF9050
:10156000EF90DF90CF90089512FF0CC01882CB82CD
:10157000DC82ED82FE8213708881182B1883CE01E5
:101580000796EACFE981FA819E01295F3F4FB701B3
:10159000A601808191810E94F0098111E7CFDACF05
:1015A0008F929F92AF92BF92CF92DF92EF92FF9273
:1015B0000F931F9310926B0441E050E060E070E0E5
:1015C00040936E0450936F046093700470937104A1
:1015D00026E634E030938804209387041092860432
:1015E0004FEF5FEFBA014093890450938A046093F0
:1015F0008B0470938C04882309F450C020E040E0F1
:1016000050E0BA0186E894E00E94910A009761F4E4
:1016100080E01F910F91FF90EF90DF90CF90BF90EF
:10162000AF909F908F900895FC01E254FE4F20816F
:101630002F7771F78A539E4FFC01C080D180E280E2
:10164000F380C114D104E104F10411F320E0B701E7
:10165000A60186E894E00E94910AFC01892BC1F260
:10166000838594858115924099F68089823081F630
:1016700086859785892B61F22585209368048FEFF5
:10168000820F8093690480E091E0291769F08F5FF1
:10169000893041F488E080936A04BACFC12CD12C00
:1016A0007601D4CF990FF1CF80936A044689578988
:1016B00070E060E04115510521F444A155A166A1F7
:1016C00077A14093720450937304609374047093F1
:1016D00075042685378546015701820E931EA11C8D
:1016E000B11C80927A0490927B04A0927C04B09208
:1016F0007D042189328930936D0420936C04440F5A
:10170000551F661F771F480D591D6A1D7B1D40938D
:101710008204509383046093840470938504218928
:101720003289A5E0220F331FAA95E1F721503E4FE1
:10173000232F33272695420F531F611D711D4093A0
:101740007604509377046093780470937904038946
:10175000148930E020E00115110521F400A111A148
:1017600022A133A1C41AD50AE60AF70AC00ED11E77
:10177000E21EF31E04C0F694E794D794C7948A95AA
:10178000D2F7D701C6010196A11DB11D80937E0439
:1017900090937F04A0938004B093810485EFC816D2
:1017A0008FE0D806E104F10420F48CE080936B0410
:1017B0002FCF80E125EFC2162FEFD206E104F1040E
:1017C00068F084A595A5A6A5B7A5809382049093FB
:1017D0008304A0938404B093850480E280936B0417
:1017E00081E017CF8F929F92AF92BF92CF92DF92FC
:1017F000EF92FF920F931F936A017B0148015901F9
:10180000FC012581203299F50489158926893789BB
:10181000E7E07695679557954795EA95D1F7400F9C
:10182000511F621F731F23E080960E94910A009748
:1018300061F480E01F910F91FF90EF90DF90CF90C7
:10184000BF90AF909F908F900895E894C7F8DD24E3
:10185000EE24FF24CC0CDD1CCC0CDD1C8C0D9D1D5E
:10186000FC0180829182A282B38281E0E3CF2031A9
:1018700001F744895589668977894D0D511D611D90
:10188000711D23E080960E94910A009791F2DD2459
:10189000EE24FF24CC0CDD1CC80ED91EF6011183EA
:1018A0000083E3CFCF92DF92EF92FF920F931F93CB
:1018B000CF93DF93EC016A017B0189018D81803236
:1018C00009F041C08C899D89AE89BF89E7E0769592
:1018D000679557954795EA95D1F7480F591F6A1FA5
:1018E0007B1F22E0CE0180960E94910A009751F45E
:1018F0008FEFDF91CF911F910F91FF90EF90DF90CD
:10190000CF900895E894C7F8DD24EE24FF24CC0C92
:10191000DD1CCC0CDD1C8C0D9D1DFC01808191819A
:10192000A281B381BF70488D598D6A8D7B8D481718
:1019300059076A077B0728F1F80180839183A28306
:10194000B38381E0D6CF803199F64C895D896E8969
:101950007F894D0D511D611D711D22E0CE018096C4
:101960000E94910A009721F2DD24EE24FF24CC0C82
:10197000DD1CC80ED91EF60180819181B0E0A0E087
:10198000D2CF80E0B6CF0F931F93CF93DF93FC01AC
:101990002081211106C081E0DF91CF911F910F912D
:1019A0000895EC01828187FF4DC04489558966897D
:1019B00077898681978121E080960E94910A00971D
:1019C00029F489818160898380E0E6CF0C811D81C3
:1019D0000F70112725E0000F111F2A95E1F7080F5E
:1019E000191F0115110569F3F8018081853E49F33E
:1019F000888183FF08C0888D998DAA8DBB8D848FC7
:101A0000958FA68FB78F8C8D9D8DF801938F828FC8
:101A10008C8D9D8DAE8DBF8DB58BA48BE0916802B2
:101A2000F0916902309759F0B8016A5E7F4FC801A2
:101A300048960995F801808D918D938B828B8A81D0
:101A40008F778A838E819F8180960E944F0A882398
:101A500009F4B7CFA0CF4F925F926F927F928F928F
:101A60009F92AF92BF92CF92DF92EF92FF920F932D
:101A70001F93CF93DF93EC014A015B014C845D849B
:101A80006E847F84A881AA2309F486C04889598975
:101A90006A897B89481559056A057B0569F08114B7
:101AA0009104A104B10451F41C861D861E861F8674
:101AB000888A998AAA8ABB8A81E073C0A3FF59C029
:101AC000088D198D2A8D3B8D081519052A053B05B2
:101AD00008F462C0EE81FF81848190E009968A015A
:101AE0009B010150110921093109082E04C03695C6
:101AF0002795179507950A94D2F775016401B1E00F
:101B0000CB1AD108E108F10804C0F694E794D79401
:101B1000C7948A95D2F7C016D106E206F30628F0DC
:101B2000452B462B472B09F052C0A6FF4BC0848D96
:101B3000958DA68DB78D8C879D87AE87BF878E01CB
:101B4000045F1F4FC114D104E104F10409F4B0CFC4
:101B50004C855D856E857F8598018E819F810E9471
:101B6000520C91E0C91AD108E108F108181654F393
:101B700013C0A5FFAFCFEE81FF818681978125E05D
:101B8000880F991F2A95E1F7B0E0A0E08815990524
:101B9000AA05BB0508F08CCF4C865D866E867F86D5
:101BA00080E0DF91CF911F910F91FF90EF90DF9038
:101BB000CF90BF90AF909F908F907F906F905F90ED
:101BC0004F9008958C8D9D8DAE8DBF8DB4CFC01A72
:101BD000D10AE20AF30AB3CFCF93DF93EC010E945C
:101BE000C30C1882DF91CF9108953F924F925F927C
:101BF0006F927F928F929F92AF92BF92CF92DF921D
:101C0000EF92FF920F931F93CF93DF93CDB7DEB781
:101C100028970FB6F894DEBF0FBECDBF4C01DC0194
:101C200012968C911297806812968C931297169642
:101C3000AD90BC9017971C964D905D906D907C90E8
:101C40001F97411451046104710409F05AC0D50171
:101C500018968D919D910D90BC91A02D8D839E83A2
:101C6000AF83B887CD80DE80EF80F884BFEFCB1ADA
:101C7000DB0AEB0AFB0AF501808D918DA28DB38DF5
:101C80008C159D05AE05BF0528F482E0C82ED12C29
:101C9000E12CF12C9E012F5F3F4FB701A601C5013A
:101CA0000E94520C87FD13C0882341F089819A81DC
:101CB000AB81BC81892B8A2B8B2B41F18D819E813D
:101CC000AF81B885C816D906EA06FB0679F6312C2D
:101CD000832D28960FB6F894DEBF0FBECDBFDF91DF
:101CE000CF911F910F91FF90EF90DF90CF90BF9019
:101CF000AF909F908F907F906F905F904F903F90AC
:101D000008954D825E826F827886ACCF0FEF1FEF11
:101D10002FEF3FE0B701A601C5010E94F20B382E5C
:101D20008823A9F2411451046104710479F09701E8
:101D30008601B301A201C5010E94F20B882339F28A
:101D4000F401C486D586E686F786C2CFD5011896FB
:101D5000CD92DD92ED92FC921B97F2CF81E08093C1
:101D6000690380E480938B0310926A0310928C03C2
:101D70008CEA90E00E9410068AE294E00C9415062A
:101D800084B7877F84BFE0E6F0E08081886180834C
:101D900086E08083808180648083089502C0959569
:101DA00087956A95E2F7092E000CAA0BBB0B2091D0
:101DB00070002E7F209370002091B0002C7F209324
:101DC000B0002091B100277F2093B1002091B60090
:101DD0002F7D2093B600209170002D7F20937000FE
:101DE0002091B10024602093B1002091B1002C7F9C
:101DF0002093B10023E830E03093760220937502FF
:101E00000097A105B10521F481E090E0A0E0B0E0E9
:101E100080936D0290936E02A0936F02B093700254
:101E200080E29CE190936B0280936A0210927102AF
:101E300010927202109273021092740210926C024D
:101E400080917502909176028093B200809170002B
:101E5000816080937000089585E10E94FA02BC01C0
:101E6000990F880B990B0E94B42E27E230EA49E8BB
:101E70005BE30E94692F609360027093610280931C
:101E80006202909363020895E09101014091020182
:101E90002091030130E02C5E3F4F322F2227330F79
:101EA000F0E24F9FA00111244E2B242B352BFC0177
:101EB000318320832091D4024091D502809100018A
:101EC00090E0982F8827990F990F990FF0E24F9F74
:101ED000A0011124842B952B30E035952795822B7A
:101EE000932BFB01918380830895CF93DF93EB01C4
:101EF00020E2FB013C96DC011C9601900D922A9594
:101F0000E1F72A813B81FC01338322834C815D818F
:101F10006E817F81448355836683778348855985A5
:101F20006A857B854087518762877387DF91CF9170
:101F300008950C960C94C30CFC01848583FF17C094
:101F400084A195A1A6A1B7A1448D558D668D778DED
:101F5000841B950BA60BB70B811520E89207A105F2
:101F6000B10520F08FEF9FE7A0E0B0E0089580E09A
:101F700090E0DC01F1CF90E080E008958F929F9295
:101F8000AF92BF92DF92EF92FF920F931F93CF9386
:101F9000DF93EC017B012881222309F4BBC08A81F5
:101FA00080FFB8C088889988AA88BB8823FF21C091
:101FB000888D998DAA8DBB8D88199909AA09BB09AD
:101FC00082309105A105B10518F5009709F530E0BB
:101FD00020E0A901481B590BCA01DF91CF911F9145
:101FE0000F91FF90EF90DF90BF90AF909F908F90F8
:101FF000089525FF0DC0EE81FF818681978135E030
:10200000880F991F3A95E1F78815990509F488C05A
:1020100084011170EE81FF81B501A40189E07695FC
:102020006795579547958A95D1F725FF27C0848DE9
:10203000958DA68DB78D480F591F6A1F7B1F8E8106
:102040009F8120E080960E94910A009709F462C067
:10205000800F911FFC018081F70180838889998915
:10206000AA89BB890196A11DB11D888B998BAA8B6A
:10207000BB8B21E030E090E080E0ABCFD380D42276
:102080000115110581F4D1100EC089288A288B28EA
:1020900081F526FF29C0848D958DA68DB78D8C87FF
:1020A0009D87AE87BF87EE81FF814C855D856E85FC
:1020B0007F854250510961097109848104C0440F30
:1020C000551F661F771F8A95D2F780899189A2894B
:1020D000B389840F951FA61FB71FAC01BD014D0D1D
:1020E000511D611D711DABCF8C8D9D8DAE8DBF8D32
:1020F000D6CF4C855D856E857F859E01245F3F4FE1
:10210000CF010E94520C87FD05C08111CCCF888180
:10211000807749F48981826089838FEF9FEF5DCF5B
:1021200030E020E0A8CF21E030E081E090E051CF26
:10213000EF92FF920F931F93CF93DF931F92CDB730
:10214000DEB77C01962FF701408951896289738936
:102150008A019B0185E036952795179507958A9505
:10216000D1F70F7011F0911129C0BE016F5F7F4F41
:10217000C7010E94BE0F813051F090E080E00F90C7
:10218000DF91CF911F910F91FF90EF900895F7018C
:1021900080899189A289B3894F96A11DB11D808B39
:1021A000918BA28BB38BF701868197818796F0E2A2
:1021B0000F9F90011124820F931FE1CF405E5F4F6C
:1021C0006F4F7F4F408B518B628B738BECCFCF93D4
:1021D000DF931F92CDB7DEB7BE016F5F7F4F0E94C6
:1021E000BE0F019731F4898190E00F90DF91CF917C
:1021F00008958FEF9FEFF9CF0C960C94E7108F9214
:102200009F92AF92BF92CF92DF92EF92FF92CF93C5
:10221000DF93EC018C8C9D8CAE8CBF8CC88CD98CE0
:10222000EA8CFB8C0C960E94E71097FD08C08C8E00
:102230009D8EAE8EBF8EC88ED98EEA8EFB8EDF91BC
:10224000CF91FF90EF90DF90CF90BF90AF909F9095
:102250008F9008952F923F924F925F926F927F924C
:102260008F929F92AF92BF92CF92DF92EF92FF92A6
:102270000F931F93CF93DF93EC015B014A01888199
:1022800083FFC5C08A8181FFC2C082FDB7C0A4019F
:1022900070E060E088899989AA89BB8980959095CA
:1022A000A095B09584179507A607B70708F4AFC0A7
:1022B00064011E018CE0280E311C088919892A89C5
:1022C0003B89C114D10409F4E1C08E819F81B90119
:1022D000A80129E076956795579547952A95D1F7F6
:1022E000DC011396FC90F4221170F1101BC04C8598
:1022F0005D856E857F850115110509F0FBC04115CF
:1023000051056105710509F488C091010E94520CC4
:1023100087FD7DC0811106C0CE010E94F50D882386
:1023200009F475C0EE81FF814C855D856E857F85E2
:102330004250510961097109848104C0440F551F3D
:10234000661F771F8A95D2F780899189A289B38900
:10235000840F951FA61FB71FAC01BD014F0D511D66
:10236000611D711D0115110529F4C114B2E0DB06D0
:1023700008F06EC080E092E0801B910B76018C1516
:102380009D0508F47C010115110571F448885988F0
:102390006A887B88888D998DAA8DBB8D25E048162B
:1023A00059066A067B0608F421E0CF0180960E9458
:1023B000910A009761F1A701B501800F911F0E945A
:1023C00062300E0D1F1D0115124039F48E819F8160
:1023D00080960E944F0A8823D1F088899989AA891A
:1023E000BB898E0D9F1DA11DB11D888B998BAA8B5A
:1023F000BB8BAE0CBF1CCE18DF085FCF488D598D4C
:102400006A8D7B8DCE010E942B0D811140CF898179
:10241000816089838FEF9FEF54C08C8D9D8DAE8D31
:10242000BF8D0097A105B10571F4CE010E94F50D95
:10243000882369F38C859D85AE85BF858C8F9D8FA4
:10244000AE8FBF8F6FCF8C879D87AE87BF876ACFD8
:1024500083A194A1A5A1B6A1481759076A077B07D4
:1024600041F410A28FEF9FEFDC0183A394A3A5A3F7
:10247000B6A3EE81FF819501808191810E948C0934
:10248000882329F2E12C82E0F82EA7CF8A81488D9B
:10249000598D6A8D7B8D401751076207730738F499
:1024A000088F198F2A8F3B8F80688A8306C02091FE
:1024B000680230916902232BB9F78A8183FD14C029
:1024C000C401DF91CF911F910F91FF90EF90DF90AA
:1024D000CF90BF90AF909F908F907F906F905F90C4
:1024E0004F903F902F900895CE010E94C30C811110
:1024F000E7CF8DCFFC0142505109610971098481F8
:1025000004C0440F551F661F771F8A95D2F7808934
:102510009189A289B389480F591F6A1F7B1F2ACF4F
:10252000CF93DF931F92CDB7DEB7898341E050E0B0
:10253000BE016F5F7F4F86E494E00E942A110F90E6
:10254000DF91CF9108950C960C942A11CF93DF93CD
:102550001F92CDB7DEB7698341E050E0BE016F5FE7
:102560007F4F0C960E942A110F90DF91CF91089512
:10257000CF92DF92EF92FF920F931F93CF93DF934F
:1025800000D000D01F92CDB7DEB741E065E080E417
:102590000E94B904F82E1092CA028093CB028E01D9
:1025A0000F5F1F4F8091CA02F81641F08AE294E053
:1025B0000E94A105F80181938F01F4CF6A817B818C
:1025C00076276727762790E080E00E94B22E20E0F1
:1025D00030E040E856E40E94982D20E030E048E4E6
:1025E00053E40E94692F20E030E040E058E30E946D
:1025F000692F20E030E0A9010E94992D20E030E011
:102600004AE754E40E94692F6B017C012091CC02BF
:102610003091CD024091CE025091CF020E94982D70
:1026200026E031EC4EED52E40E940A2E6093DC026B
:102630007093DD028093DE029093DF026C817D81D6
:1026400076276727762784E0769567958A95E1F760
:102650006851710990E080E00E94B22E2DEC3CECB4
:102660004CE45DE30E94692F20E030E048E452E44E
:102670000E94982D609364027093650280936602B5
:1026800090936702C092D002D092D102E092D2021F
:10269000F092D3020F900F900F900F900F90DF9158
:1026A000CF911F910F91FF90EF90DF90CF90089501
:1026B0008F929F92AF92BF92DF92EF92FF920F9311
:1026C0001F93CF93DF930115110509F44EC0D80174
:1026D0005D96ED90FC90E114F10409F446C0F80118
:1026E00049015A01D72E162F682FC78D81E080939C
:1026F0006903C0938B0310926A0310928C03D70175
:10270000ED91FC910190F081E02DC701099580E0E9
:102710000E94C903682D613208F060E241E08C2F0D
:102720000E94B9041092CA028093CB0290E0B0E0FC
:10273000A0E088169906AA06BB0629F5012FC12F2D
:10274000DD2D8C2F801B90E0B0E0A0E0881599056E
:10275000AA05BB05D8F4D701ED91FC910284F3855D
:10276000E02DC70109958993ECCF83E090E0DF91DC
:10277000CF911F910F91FF90EF90DF90BF90AF909E
:102780009F908F90089586E090E0F1CF90E080E0F8
:10279000EECF2F923F924F925F926F927F928F92E5
:1027A0009F92AF92BF92CF92DF92EF92FF920F93E0
:1027B0001F93CF93DF93CDB7DEB766970FB6F8942C
:1027C000DEBF0FBECDBF81E08093690388E68093B2
:1027D0008B0310926A0310928C0390E080E00E94B9
:1027E000100680E00E94C90340E067E088E60E948E
:1027F000B904D82E1092CA028093CB027E018DE0DC
:10280000E80EF11C87015801AE18BF088091CA027A
:10281000D81641F08AE294E00E94A105F801819364
:102820008F01F1CF8AE294E00E94150680E0F7E084
:10283000AF16B10409F0F4C08D85282F22952F70B2
:102840009AE08F70299F800D11248093D4028E8589
:10285000282F22952F708F70299F800D112480932F
:10286000D5028F85282F30E0E4E035952795EA954D
:10287000E1F723708F70299F800D11248093000150
:102880008989282F22952F708F70299F800D112400
:10289000809301018A89282F22952F708F70299F9C
:1028A000800D1124809302018B89282F22952F708F
:1028B0008F70299F800D1124809303017090D402A2
:1028C0008091D5028D8B909100019E8B60900101CB
:1028D000E0910201EC8B809103019CE0ECE1F1E0DE
:1028E0008E010F5F1F4FD80101900D929A95E1F76D
:1028F000282F30E0225E3F4F032E000C440B550B77
:10290000893199F08A3189F08B3179F08C3169F015
:102910007CE0872E912CA12CB12C8D3159F49EE0B6
:10292000892E912CA12CB12C05C06DE0862E912C06
:10293000A12CB12C837051F4FC8980E8282E81E50C
:10294000382E44244394512CF33018F4212C312C8C
:102950002101281939094A095B0960E873E381EE0E
:1029600091E00E94DB2F6B017C01A501940160E0E6
:1029700075E882EE91E00E94DB2FC60ED71EE81E9E
:10298000F91E46015701820C931CA41CB51CF801CA
:102990008C898150990B7C01CF01801B910B8E1586
:1029A0009F056CF4A191B0E020E831E541E050E0F2
:1029B0000E944430860E971EA81EB91EEDCF9E8938
:1029C000292F30E0A0E1BEE00E9435306B017C0190
:1029D000ED892E2F30E0ACE3B0E00E943530C60E1A
:1029E000D71EE81EF91EC70CD11CE11CF11CA62D38
:1029F000B0E020E831E541E050E00E944430C60EEE
:102A0000D71EE81EF91EC80CD91CEA1CFB1CC0927C
:102A10001703D0921803E0921903F0921A0381E091
:102A200066960FB6F894DEBF0FBECDBFDF91CF9193
:102A30001F910F91FF90EF90DF90CF90BF90AF90DC
:102A40009F908F907F906F905F904F903F902F90CE
:102A50000895FB0101900020E9F73197AF01461B73
:102A6000570BDC01ED91FC910280F381E02D09947C
:102A700068E771E00C9429158F929F92AF92BF92F4
:102A8000EF92FF920F931F93CF93DF93CDB7DEB7F3
:102A9000A1970FB6F894DEBF0FBECDBF7C01FA013F
:102AA000CB0119A2223008F42AE08E010F5D1F4FDE
:102AB000822E912CB12CA12CBF01A50194010E9462
:102AC0001330F901CA016A300CF5605DD8016E93CC
:102AD0008D01232B242B252B79F790E080E0109794
:102AE00021F0BD01C7010E942915A1960FB6F894E7
:102AF000DEBF0FBECDBFDF91CF911F910F91FF9031
:102B0000EF90BF90AF909F908F900895695CDECF5B
:102B1000242F462F50E070E060E00C943C154F925B
:102B20005F926F927F928F929F92AF92BF92CF925D
:102B3000DF92EF92FF926B017C01AC019B010E943E
:102B4000D62F6BE771E0811126C046015701E8944A
:102B5000B7F82FEF3FEF4FE75FE7C501B4010E94E1
:102B6000D62F81110CC02FEF3FEF4FE75FE7C50174
:102B7000B4010E94052E6FE771E0181664F02FEF84
:102B80003FEF4FE75FE4C701B6010E94642F1816BC
:102B900094F463E871E08AE394E0FF90EF90DF90B3
:102BA000CF90BF90AF909F908F907F906F905F90ED
:102BB0004F900C9429152FEF3FEF4FE75FECC701C3
:102BC000B6010E94052E87FDE4CF20E030E0A90188
:102BD000C701B6010E94052EB12CA12C87FF08C0A9
:102BE0008DE20E9490125C01F7FAF094F7F8F094ED
:102BF0002AE037ED43EA5BE3C701B6010E94992D55
:102C00002B013C010E94832E6B017C010E94B22E9D
:102C10009B01AC01C301B2010E94982D2B013C0124
:102C20002AE0B701A6018AE394E00E943C157C01EA
:102C3000EA0CFB1C8EE20E949012E80EF91E20E0C6
:102C400030E040E251E4C301B2010E94692F2B0140
:102C50003C010E94832E4B01B12CA12C2AE0B5012E
:102C6000A4018AE394E00E943C15E80EF91EC50118
:102C7000B4010E94B22E9B01AC01C301B2010E94BB
:102C8000982D20E030E040E251E40E94692F0E943C
:102C9000832EAB0170E060E02AE08AE394E00E94BA
:102CA0003C158E0D9F1DFF90EF90DF90CF90BF9051
:102CB000AF909F908F907F906F905F904F9008950E
:102CC0000C942915FC01808181110FC080E2DF0185
:102CD000982F1D929A95E9F777836683DB01159605
:102CE0009C91903129F0903211F080E0089580E4B9
:102CF000808381E08283089585ED8093BC0080917C
:102D0000650390916603A0916703B09168030796ED
:102D1000A11DB11D23E0B695A795979587952A9596
:102D2000D1F72091BC0024FD03C0109263030895E5
:102D30004091650350916603609167037091680349
:102D4000452B462B472B69F30097A105B10541F0B0
:102D50002AE12A95F1F700C00197A109B109E1CF55
:102D6000809164030C94A8032F923F924F925F923C
:102D70006F927F928F929F92AF92BF92CF92DF928B
:102D8000EF92FF920F931F93CF93DF93CDB7DEB7F0
:102D900029970FB6F894DEBF0FBECDBF1C017C8310
:102DA0006B83FA01DB018C918077D1F480E0299666
:102DB0000FB6F894DEBF0FBECDBFDF91CF911F914C
:102DC0000F91FF90EF90DF90CF90BF90AF909F90CA
:102DD0008F907F906F905F904F903F902F900895CD
:102DE000D1018C918111E2CF6180728080818370EA
:102DF00009F4C4C0C3010C966DE070E00E94EB2F93
:102E00006F5F69832A838F01EB81FC81F987E887F3
:102E100040E050E0BA01CF010E942B0D812C912C93
:102E2000C12CD12CE12CF12C1F825801F6E0AF0E01
:102E3000B11CE885F98580899189A289B3899C01B3
:102E4000AD0165E056954795379527956A95D1F779
:102E50002B833C834D835E834B805C8061E0CF019C
:102E60000E949810FC01892B09F08BC0A885B985B8
:102E700011968C9181119ACF8A818274823409F0E3
:102E800095CFE1102401E981EE1608F075C160E0EC
:102E9000888599850E949810892B09F047C1A885DB
:102EA000B98511968C91811181CFE885F985808152
:102EB00085FD7CCF80899189A289B38981159E4F38
:102EC000AF41B10508F072CF888599850E94F50D54
:102ED000882309F46BCFA885B9851696ED91FC91EE
:102EE00017971C968D909D90AD90BC901F97B2E067
:102EF0008B1A9108A108B108848104C0880C991C20
:102F0000AA1CBB1C8A95D2F780899189A289B389B2
:102F1000880E991EAA1EBB1E25E0B501A401CF0193
:102F200080960E94910A6C01009709F43FCFFC0142
:102F300020E032E0119221503040E1F7FF24F39479
:102F4000A885B98516960D90BC91A02DBC83AB8346
:102F500012968C911297F81608F0EAC09601B50106
:102F6000A4014F0D511D611D711D8D919C910E94F9
:102F70008C09882309F41ACFF394E2CFB1E0B98326
:102F800041CF2081253E11F021110FC0E11002C078
:102F90008B809C80B981EB1608F4E394222309F41A
:102FA0006BCF253E29F4F12C44CF3981E31638F15B
:102FB0002E32C9F333853F3009F057C0F11021C0DC
:102FC00026FF37CF2F71F22EC584D22E8D2D815042
:102FD000990BAC019DE0949F9001959F300D1124B9
:102FE0002615370500F7512CA4E0A51588F081813E
:102FF000928162167306A9F4892BA9F61ACFE12CE7
:10300000D7CFDA942D11CFCF25852C15F9F2CBCF60
:10301000BAE0B51518F084819581EBCF8681978150
:10302000E8CF8F3F910511F008F0BDCF4FEB480F6F
:103030004A3108F4805EB9016F5F7F4FD801139663
:103040004D915C91240F351FD9019C912FEB290FD5
:103050002A3108F4905E9813A6CF53943296BDE0BF
:103060005B1609F4E6CE9B01BFCF33FD9CCFFF205A
:1030700009F44CC021E0D21299CE9F01255F3F4F49
:1030800090E090FB979597F98191980F2E173F0745
:10309000C1F7C9128BCEBA81B7FD88CE80E2F101AB
:1030A00011928A95E9F7A885B9851696ED91FC915C
:1030B000D1011796FC93EE93169715965C924E925B
:1030C0001497A885B9855C964D915D916D917C9121
:1030D0005F97D10118964D935D936D937C931B97E9
:1030E0004201BFE08B229924DF01979635E0880CDE
:1030F000991C3A95E1F79D01280D391DD9011B96C0
:103100008C9183FF90C1F101108250CE4BE050E0D2
:10311000B501CF010E945530892B09F08ACED80124
:103120008C9180FFB8CF21E02F8383CEE394ABCE88
:1031300090E0B0E0A0E029E0880F991FAA1FBB1F14
:103140002A95D1F7E885F985408951896289738983
:10315000840F951FA61FB71F808B918BA28BB38BFB
:10316000AB81BC8112968C91823030F4B0E1EB0ED1
:10317000E981EE1608F499CEFF81FF2309F45BC0C4
:10318000D8011596BC9082E0E82EF12C9EE7A92E7E
:103190006801B6E0CB0ED11CF801818192819C01BF
:1031A0002E0D3F1D0380F481E02D8E0F9F1F8E1783
:1031B0009F0779F0A901B5E0440F551FBA95E1F7D3
:1031C000240F351F4191042E000C550B2427352761
:1031D000EECFF3E0FB1510F4A3E0BA2E94E09B0DC4
:1031E000822F8F708A3008F092C0805DF801E90F5D
:1031F000F11D8683F4E036952795FA95E1F7915015
:10320000B91670F3F801EB0DF11DA68240E050E015
:10321000BA01888599850E942B0D61E08885998582
:103220000E949810009709F074C0A885B98511967E
:103230008C918111BBCDA20170E060E0E5E0440F0C
:10324000551F661F771FEA95D1F7888599850E94DB
:103250002B0D882309F4AACDF980FA94EF2C5FE0B6
:10326000B52E680131E1C30ED11C6DE0A62EEE2013
:1032700009F47CC060E0888599850E949810FC0163
:10328000892B09F493CDA885B98516962D913C918B
:10329000D90190968C919097816090968C938E2D09
:1032A000EF1001C080648083B3861486D80116961F
:1032B00090E090FB979597F92D91920FCA16DB0637
:1032C000C1F79587138E128ED80113962D913C91DC
:1032D0008F718150990BA89EA001A99E500D1124B9
:1032E00080E04615570578F5D901A40FB51F6C91FC
:1032F000062E000C770B853088F5728361838F5F13
:103300004F5F5F4F32968D3061F7EA94B0CF895CA2
:103310006DCFFC012081222309F48DCF238523FD6D
:103320007CCF4BE050E0BC01C6010E945530892B98
:1033300009F073CFFFEFEF1AFF0A24E6E216F1045B
:1033400009F02ACF33CD61E070E06416750611F400
:1033500070E060E0719561957109CDCF8B3018F404
:1033600075836483CCCF77836683C9CFE885F9857D
:1033700080889188A288B38860E0CF010E9498106D
:103380006C01892B09F412CD80E2D6011D928A9539
:10339000E9F7F80136968BE0D60101900D928A95F7
:1033A000E1F7F80180818871D6011C968C93E09139
:1033B0006802F0916902309761F1B601625F7F4F58
:1033C000C6014096099545E0B694A79497948794D2
:1033D0004A95D1F72401D60150968D919C91519731
:1033E00053969C938E93529759969C938E9358978D
:1033F0001E968D919C911F9757969C938E935697EE
:10340000A885B9851696ED91FC9180A1816080A375
:1034100045CE81E298E2F601918B808B80E098E0C6
:1034200097878687D0CFAF01480D591DDA01D29614
:103430008C918771D1018C93D9011B969C919871C5
:1034400019F48860D1018C93D1011396FC921397E3
:103450008A81827321F08C91817109F054CE8A8126
:103460008F70D10112968C93129743A154A165A13C
:1034700076A154964D935D936D937C9357978E0EE2
:103480009F1EF40183AD94ADB0E0A0E0DC0199276C
:103490008827EF5BFF4F4081518170E060E0842B13
:1034A000952BA62BB72BF101848F958FA68FB78F05
:1034B000F3E48F0E911CD4014D915D916D917C913F
:1034C000F101408F518F628F738FFA81F5FD02C039
:1034D00081E06DCCC1010E942B0D882309F413CE2D
:1034E000F7CF2F923F924F925F926F927F928F927F
:1034F0009F92AF92BF92CF92DF92EF92FF920F9383
:103500001F93CF93DF93CDB7DEB7E8970FB6F8944C
:10351000DEBF0FBECDBF7C018B014BAB19821A827F
:10352000DC018C918823D1F080E0E8960FB6F89406
:10353000DEBF0FBECDBFDF91CF911F910F91FF90E6
:10354000EF90DF90CF90BF90AF909F908F907F9043
:103550006F905F904F903F902F90089580918D06CF
:10356000807711F3FB0180816DE876E08F32B9F44A
:103570008F0181918F32E1F36091930670919406EF
:10358000811104C0C7010E946216CFCFCE010196FF
:103590000E946216BE016F5F7F4F882329F29E0151
:1035A0002E5C3F4F38AF2FABF8019F012F5F3F4F8D
:1035B0008081803209F495C0FDA3ECA39F01A9018D
:1035C0004E1B5F0B8901D9018D919D01882371F0FC
:1035D0008F3209F088C0CF01840F951F8C01DC0168
:1035E0002D91CD012032D1F32F32C1F3DA01AE0F8C
:1035F000BF1FAD014E1B5F0BEA17FB0709F48DC01F
:103600008E918E32B1F38032A1F34F3F510511F00C
:103610000CF08ACF5BA34AA3DE0197966D0180E28E
:103620008D93AFA8B8ACAA16BB06D1F7DF01CD01C8
:103630008E1B9F0B2D912E32D1F32032C1F37724B4
:103640007394009709F0712C9A01215031095F01A0
:10365000A40EB51E2F3F320709F062C08EA0512C78
:10366000B7E0BAAB312C612CA8E04A2E841795073D
:103670000CF094C0DF01A80FB91FAC90AEAAAA2D20
:10368000A03209F489C0AE3221F48217930709F001
:1036900083C09EA8B92DB232A1F0BC3791F0A92DFC
:1036A000AA52A63010F4BD3261F4AEA9AA53A630D6
:1036B00040F0AEA9AB55A33020F0AEA9A152AE3573
:1036C000C8F18217930709F0ADC08AA98A3009F4BE
:1036D000B4C0C901BAE0BAABA8E03A2EB0E14B2EB3
:1036E00047C0F90162CF8C3509F41ECF982F977F20
:1036F000923209F419CF8A3309F416CF982F9F7BA1
:103700009C3309F411CF92EC980F923008F40CCF4F
:1037100080528F3508F453CF07CF50E040E07ACF86
:10372000D5019E905D01BEE29B1609F497CF215012
:10373000310990CF8217930741F2AAA8A31408F485
:1037400075C0AEA9A156AA31D0F4AEA9A052AEABB5
:10375000542822242394230C5601A30CB11CD50118
:10376000AEA8AC92A6E0BA2E322CB21408F0822C8D
:1037700001967CCF712CBFE5BEABBFE59B2EAFEBB6
:10378000A90DAA3130F76428E4CFC901AAE0AAAB99
:10379000A8E03A2EB0E14B2E712CEACF8EA28FA179
:1037A000803209F4C1CE772019F1852D862111F0E0
:1037B00082E0582E59A2F8018081882359F121E036
:1037C000AE014F5D5F4FC7010E94B416882309F414
:1037D000ABCE80E2F701DE01119601900D928A9541
:1037E000E1F7C7010E94EC0DBE016F5F7F4FDCCE99
:1037F00081E089A3912CF601E80DF91D8EE7808305
:10380000E8E2F0E0EC0FFD1F8E0E9F1E81E3D40175
:103810008C93D1CF2BA9AE014F5D5F4FC7010E94A2
:10382000B41683CEAAA9A31508F0A4CFBAA9BA30BA
:1038300021F0281739070CF0A8CF8EA2712CAFCF3A
:103840008F929F92AF92BF92CF92DF92EF92FF92B0
:103850000F931F93CF93DF93CDB7DEB76A970FB661
:10386000F894DEBF0FBECDBF80915E0290915F02E3
:10387000019690935F0280935E0260E088EB96E091
:103880000E9418067C0107E110E020E030E0AE0164
:103890004F5F5F4F6DE288EB96E00E943106E82AA9
:1038A000F92A89819A819827892798279093BB06BE
:1038B0008093BA068B819C819827892798279093BB
:1038C000BD068093BC068D819E8198278927982705
:1038D0009093BF068093BE068F819885982789278D
:1038E00098279093C1068093C00689859A8598276A
:1038F000892798279093C3068093C2068B859C8561
:103900009827892798279093C5068093C4068D85AC
:103910009E859827892798279093CD068093CC067B
:103920008F858093CF06888999899093C706809365
:10393000C6068A899B899093C9068093C8068C899C
:103940009D899093CB068093CA068F898093D00679
:1039500062E088EB96E00E941806E82AF92A01E066
:1039600010E020E030E0AE01465E5F4F64E188EB9E
:1039700096E00E943106E82AF92A8A8D8695982FCA
:1039800093708091CE068C7F892B8093CE0662E067
:1039900088EB96E00E941806E82AF92A01E010E078
:1039A00020E030E0AE01475E5F4F61E088EB96E0DB
:1039B0000E943106E82AF92A898D880F982F9C7079
:1039C0008091CE06837F892B8093CE0601E010E0A4
:1039D00020E030E0AE01485E5F4F65E188EB96E0A5
:1039E0000E9431068E299F299093D2068093D1069A
:1039F00080911901882309F496C08091BA069091AC
:103A0000BB060E94D1000E948F1567E871E08AE32F
:103A100094E00E9460168091BC069091BD060E94C1
:103A2000D1000E948F1567E871E08AE394E00E945C
:103A300060168091BE069091BF060E94D1000E9440
:103A40008F1567E871E08AE394E00E946016609148
:103A5000C6067091C706072E000C880B990B0E94B2
:103A6000B42E2AE939E949E15EE30E94692F0E94F8
:103A70008F1567E871E08AE394E00E946016609118
:103A8000C8067091C906072E000C880B990B0E947E
:103A9000B42E2AE939E949E15EE30E94692F0E94C8
:103AA0008F1567E871E08AE394E00E9460166091E8
:103AB000CA067091CB06072E000C880B990B0E944A
:103AC000B42E2AE939E949E15EE30E94692F0E9498
:103AD0008F1567E871E08AE394E00E946016809198
:103AE000C0069091C1060E9492000E948F1567E85F
:103AF00071E08AE394E00E9460168091C206909182
:103B0000C3060E9492000E948F1567E871E08AE365
:103B100094E00E9460168091C4069091C5060E94B0
:103B200092000E948F15E0905E02F0905F0200917B
:103B3000380410913904B7010F2C000C880B990B35
:103B40000E94B42E4B015C01B801012E000C880BC1
:103B5000990B0E94B42E20E030E040E05FE30E9429
:103B6000692F9B01AC01C501B4010E94642F87FD40
:103B70009DC180915D02882309F498C110925D0275
:103B80008091C9028111A7C10E94AE0EE016F10614
:103B90000CF471C10E94B81281E080935D028091A3
:103BA0001A0190911B01892B21F061E084E00E94B1
:103BB00090020E94C9130E942C0F80911901882342
:103BC00009F4F8C08CE20E949012609103014AE06F
:103BD00050E08AE394E00E9488158DE20E949012E2
:103BE000809102018A3018F480E30E949012609163
:103BF00002014AE050E08AE394E00E9488158DE2D9
:103C00000E949012809101018A3018F480E30E9492
:103C10009012609101014AE050E08AE394E00E9432
:103C2000881584E50E949012809100018A3018F472
:103C300080E30E949012609100014AE050E08AE324
:103C400094E00E9488158AE30E9490128091D50228
:103C50008A3018F480E30E9490126091D5024AE005
:103C600050E08AE394E00E9488158AE30E94901253
:103C70008091D4028A3018F480E30E9490126091FF
:103C8000D4024AE050E08AE394E00E94881567E895
:103C900071E08AE394E00E9460166091D002709116
:103CA000D1028091D2029091D3020E948F158CE2B2
:103CB0000E9490126091DC027091DD028091DE0220
:103CC0009091DF020E948F158CE20E949012E09189
:103CD0000403F0E0EE0FFF1FE052FD4FC080D180E3
:103CE0000D2C000CEE08FF082AE0B701A601F7FE34
:103CF0000BC08DE20E94901244275527BA014C193F
:103D00005D096E097F092AE08AE394E00E943C1570
:103D10008CE20E949012C090DC02D090DD02E09014
:103D2000DE02F090DF02E0910403F0E0EE0FFF1FEF
:103D3000E052FD4F60817181072E000C880B990BBA
:103D40000E94B42E9B01AC01C701B6010E94982DC0
:103D50000E948F158CE20E94901260916402709113
:103D6000650280916602909167020E948F158CE235
:103D70000E949012609160027091610280916202D3
:103D8000909163020E948F158CE20E9490124AE08B
:103D900050E060910A038AE394E00E9488158CE267
:103DA0000E9490124AE050E06091D7028AE394E0CA
:103DB0000E94881510925F0210925E0260E084E01B
:103DC0000E9490028091C902882319F1C090DC0200
:103DD000D090DD02E090DE02F090DF02E0915C0224
:103DE000F0E0EE0FFF1FE85DFE4F60817181072E4E
:103DF000000C880B990B0E94B42EA70196010E941B
:103E0000992D6093DC027093DD028093DE02909323
:103E1000DF0280915B028F5F8C3308F04FC080938C
:103E20005B0280915A028A3008F16091DC02709145
:103E3000DD028091DE029091DF020091040310E028
:103E4000000F111F00521D4F0E94832EF801718335
:103E50006083809104038F5F809304038091040347
:103E6000823110F01092040310925A0280915A028B
:103E70008F5F80935A0280911901882321F08AE391
:103E800094E00E9438156A960FB6F894DEBF0FBE14
:103E9000CDBFDF91CF911F910F91FF90EF90DF90F9
:103EA000CF90BF90AF909F908F900895E016F1064D
:103EB00014F38091C90281116FCE6CCE10925B0217
:103EC00080915C028F5F8A3018F480935C02A9CFE6
:103ED00010925C02A6CFE016F1060CF05DCECBCFBF
:103EE0008F929F92AF92BF92CF92DF92EF92FF920A
:103EF0000F931F93CF93DF93CDB7DEB7C856D10989
:103F00000FB6F894DEBF0FBECDBF5091D4024091E2
:103F1000D502309100012091010190910201809120
:103F200003011F925F931F924F931F923F931F9223
:103F30002F931F929F931F928F9389E891E09F93F5
:103F40008F938E010F5F1F4F1F930F930E946B3053
:103F50002A961FAE2A972B961FAE2B9721961FAE3F
:103F60001EAE219788EE93E0A0E0B0E025968CAFDE
:103F70009DAFAEAFBFAF259784E691E09EAF8DAF0A
:103F80008DE3E82EF12CEC0EFD1E8CE0E80EF11C0A
:103F900046E4B801C7010E94711ABE01635C7F4FFD
:103FA0008AE394E00E94750F0FB6F894DEBF0FBE4F
:103FB000CDBF98EE892E93E0992EA12CB12C24E64A
:103FC000C22E21E0D22E80914604811132C061E0E0
:103FD00081E10E94900280915802909159020196CD
:103FE00090935902809358022A961FAE2A972B96D7
:103FF0001FAE2B9721961FAE1EAE219725968CAE35
:104000009DAEAEAEBFAE2597DEAECDAE42ECB801F2
:10401000C7010E94711ABE01635C7F4F8AE394E07E
:104020000E94750F64E670E080E090E00E9431032A
:10403000CACF60E081E10E94900267EA71E08AE302
:1040400094E00E9460168AE394E00E94381584E4AC
:104050009FE09093690280936802C859DF4F0FB6C2
:10406000F894DEBF0FBECDBFDF91CF911F910F91AE
:10407000FF90EF90DF90CF90BF90AF909F908F9088
:1040800008951F920F920FB60F9211242F933F9312
:104090004F935F936F937F938F939F93AF93BF9350
:1040A000EF93FF938DE893E00E94AF01FF91EF91B2
:1040B000BF91AF919F918F917F916F915F914F9140
:1040C0003F912F910F900FBE0F901F9018951F9248
:1040D0000F920FB60F9211242F938F939F93EF930C
:1040E000FF93E0919D03F0919E038081E091A303F3
:1040F000F091A40382FD1BC090818091A6038F5F85
:104100008F732091A703821741F0E091A603F0E09E
:10411000E357FC4F958F8093A603FF91EF919F91FA
:104120008F912F910F900FBE0F901F901895808147
:10413000F4CF1F920F920FB60F9211242F933F933B
:104140008F939F93AF93BF938091BC029091BD02D8
:10415000A091BE02B091BF023091BB0226E0230FB6
:104160002D3758F50296A11DB11D2093BB028093F7
:10417000BC029093BD02A093BE02B093BF02809197
:10418000C0029091C102A091C202B091C3020196F7
:10419000A11DB11D8093C0029093C102A093C202E1
:1041A000B093C302BF91AF919F918F913F912F9197
:1041B0000F900FBE0F901F90189529E8230F0396BC
:1041C000A11DB11DD2CF1F920F920FB60F921124D5
:1041D0002F933F934F935F936F937F938F939F930F
:1041E000AF93BF93EF93FF938091B900887F8036A0
:1041F00009F44AC0F0F5883209F4A7C018F58031F7
:1042000009F49BC0B8F4882309F4F9C0883009F494
:1042100094C0FF91EF91BF91AF919F918F917F914A
:104220006F915F914F913F912F910F900FBE0F9023
:104230001F901895883109F488C0803251F7809317
:10424000610314C0803409F49DC040F48033B9F395
:104250008833F9F68093610385ECB0C0803509F4AA
:1042600085C0883509F496C0883499F60E947C167A
:10427000D0CF883909F48CC038F5883729F050F44C
:10428000883611F0803729F683E08093630310921B
:10429000BA0257C0883809F47BC0803919F08038D9
:1042A00009F0B7CF8091BA02803208F071C0E09176
:1042B000BA0281E08E0F8093BA028091BB00F0E0D9
:1042C000E656FD4F80833DC0803B39F0E0F4803AF4
:1042D00009F479C0883A09F09CCF84E080936303A5
:1042E0001092990210929802E091C602F091C702D2
:1042F00009958091980281110FC081E08093980206
:104300001092780209C0803C09F4A6CF883C09F4D9
:10431000A3CF883B09F07DCFE091990281E08E0F19
:1043200080939902F0E0E858FD4F80818093BB00B4
:10433000909199028091980229C080913E038093C8
:10434000BB0085EC8093BC0064CF909160038091AA
:104350005F03981758F5E091600381E08E0F80931A
:104360006003F0E0E15CFC4F8081E9CFE091600305
:1043700081E08E0F809360038091BB00F0E0E15CF0
:10438000FC4F80839091600380915F039817C8F27F
:1043900085E8D8CFE091600381E08E0F80936003C1
:1043A0008091BB00F0E0E15CFC4F80838091620370
:1043B00081115CCF81E080933D0384EA8093BC004F
:1043C0001092630326CF85EC8093BC0010926303A8
:1043D0008091BA02803230F4E091BA02F0E0E65601
:1043E000FD4F10826091BA0270E0E091C402F0913A
:1043F000C5028AE992E009951092BA020ACF10929A
:10440000610334CF1F920F920FB60F9211242F9396
:104410003F934F935F936F937F938F939F93AF934C
:10442000BF93EF93FF9378948091750290917602F9
:104430008093B2008091710290917202A0917302F8
:10444000B09174020196A11DB11D809371029093E9
:104450007202A0937302B093740240917102509162
:104460007202609173027091740280916D0290915A
:104470006E02A0916F02B0917002481759076A0747
:104480007B07B0F080916C02811112C081E08093B3
:104490006C021092710210927202109273021092CA
:1044A0007402E0916A02F0916B02099510926C021D
:1044B000FF91EF91BF91AF919F918F917F916F91FC
:1044C0005F914F913F912F910F900FBE0F901F90D2
:1044D00018951F920F920FB60F9211240F900FBED6
:1044E0000F901F901895CF92DF92EF92FF920F934B
:1044F0001F93CF93DF931F92CDB7DEB76C0161306E
:1045000051F562E00E9418067C0101E010E020E015
:1045100030E0AE014F5F5F4F64E1C6010E9431069B
:10452000E82AF92A89818E7F8983AE014F5F5F4F28
:1045300064E1C6010E940E018E299F29F601928F27
:10454000818F0F90DF91CF911F910F91FF90EF908E
:10455000DF90CF90089562E00E9418067C0101E090
:1045600010E020E030E0AE014F5F5F4F61E0C60138
:104570000E943106E82AF92A89818E7F8983AE015B
:104580004F5F5F4F61E0D5CF4F925F926F927F9206
:10459000BF92CF92DF92EF92FF920F931F93CF9330
:1045A000DF9300D000D0CDB7DEB77C016C836A0109
:1045B000B22E80E0211180E88C608B8363E0C7011C
:1045C0000E941806AE014D5F5F4F63E1C7010E9474
:1045D0000E01009721F563E0C7010E941806AE01A5
:1045E0004C5F5F4F64E1C7010E940E010097B9F470
:1045F0008A818068807A8F7D8A83BB2011F163E095
:10460000C7010E941806AE014E5F5F4F65E1C7010A
:104610000E940E01412C512C32010097F1F00F90B5
:104620000F900F900F90DF91CF911F910F91FF90FE
:10463000EF90DF90CF90BF907F906F905F904F9002
:10464000089563E0C7010E941806A60166E1C7014C
:104650000E940E01009799F2E2CF60E0C7010E942C
:10466000180601E010E020E030E0AE014F5F5F4F40
:1046700067E1C7010E943106298126FB332730F903
:1046800041E058EE451653E055066104710408F404
:1046900040E0342B4FEF441A540A640A740A33235F
:1046A000E1F22295217031E058EE451653E05506AF
:1046B0006104710408F430E0232B89F4BB2009F471
:1046C000AECF63E0C7010E94180601E010E020E0D1
:1046D00030E0A60167E1C7010E943106A0CF81E06A
:1046E00090E09DCFEF92FF920F931F93CF93DF93B4
:1046F0001F92CDB7DEB77C0101E010E020E030E092
:10470000AE014F5F5F4F6FE00E943106009751F49A
:1047100089818D7F8983AE014F5F5F4F6FE0C70155
:104720000E940E010F90DF91CF911F910F91FF908A
:10473000EF900895EDE8F3E01382128288EE93E0A3
:10474000A0E0B0E084839583A683B78320E431E0C2
:104750003183208325EC30E03587248724EC30E05A
:104760003787268720EC30E0318B208B21EC30E03E
:10477000338B228B22EC30E0358B248B26EC30E01F
:10478000378B268B118E128E138E148EEAE2F4E094
:104790001382128284839583A683B78322E531E056
:1047A000318320832091610026E731E03093B70602
:1047B0002093B60610926B0410928D0610928E060E
:1047C00024E62093AD061092B20620E52093B306AE
:1047D00021E02093B406EAE3F4E014861586138200
:1047E000128284839583A683B78384E691E09183C4
:1047F000808384E190E0909339048093380482E3CD
:1048000090E090933704809336040895CF93DF931C
:10481000CDB7DEB7C859D1090FB6F894DEBF0FBEC9
:10482000CDBF789484B5826084BD84B5816084BD39
:1048300085B5826085BD85B5816085BD80916E003E
:10484000816080936E00109281008091810082606F
:1048500080938100809181008160809381008091AC
:1048600080008160809380008091B100846080939B
:10487000B1008091B00081608093B00080917A0097
:10488000846080937A0080917A00826080937A00BD
:1048900080917A008E7F80937A0080917A00806880
:1048A00080937A001092C100E0919D03F0919E03E5
:1048B00012E01083E0919903F0919A031082E09145
:1048C0009B03F0919C0388E080831092A503E09104
:1048D000A103F091A20386E08083E0919F03F09111
:1048E000A003808180618083E0919F03F091A00309
:1048F000808188608083E0919F03F091A003808194
:1049000080688083E0919F03F091A00380818F7D78
:10491000808361E084E00E94BE0261E081E10E9448
:10492000BE0261E088E00E94BE0262E080E10E9477
:10493000BE0260E085E10E94BE0262E087E00E9464
:10494000BE0261E08FE00E94BE0261E089E00E9449
:10495000BE0260E08EE00E94BE0260E084E10E9440
:10496000BE0261E086E00E94BE0261E085E00E9436
:10497000BE0260E08FE00E94900260E089E00E9449
:10498000900261E086E00E94900261E085E00E9472
:10499000900260E081E10E94900261E084E00E9468
:1049A000900261E088E00E9490021092CA02109288
:1049B000CB0210926A0310928C030E948A038FE24A
:1049C00091E09093C7028093C60280E391E09093B8
:1049D000C5028093C4021093B8001092B0061092E2
:1049E000AD061092B20683EB96E09093AF068093EB
:1049F000AE060E9427098C01E090AE06F090AF064B
:104A00008AE0D70112968C9361E00E94BE0261E0B9
:104A1000F70182810E949002FFB6F8948091C8024B
:104A2000811127C0E4ECF0E08491E0EBF0E0949198
:104A3000E82FF0E0EE0FFF1FE456FF4FA591B49171
:104A4000EC91E92321F461E08AE00E94900261E0A8
:104A50008AE00E94BE028CB580618CBD8CB58064FA
:104A60008CBD61E08DE00E94BE0261E08BE00E949F
:104A7000BE028091C8028F5F8093C802FFBEE091A2
:104A8000AE06F091AF0682E5808381E0818380915C
:104A9000B006811104C08DEA96E00E94F208E09110
:104AA000AE06F091AF0661E082810E9490027AE04A
:104AB000F72E8FEF0E940609FA94F110FACFE091D9
:104AC000AE06F091AF0660E082810E94900220E085
:104AD00030E0A90160E08DEA96E00E94490981304A
:104AE000F9F00E942709801B910B813D974078F3D4
:104AF00080E28093AD068DEA96E00E94120961E0A3
:104B000081E10E94900260E084E00E94900268EEE1
:104B100073E080E090E00E94310310921901A9C077
:104B20002AEA31E040E050E068E08DEA96E00E9439
:104B30004909853049F581E08093B2068091B2063B
:104B4000C12CD12CE12C50E4F52E823019F0C12C6F
:104B5000D12C760120E030E0A90167E38DEA96E0F0
:104B60000E944909A701960169E28DEA96E00E9438
:104B70004909882301F10E942709801B910B813D7F
:104B8000974040F383E4B5CF64E0F62E0E940B0912
:104B90008093B106FA94F110F9CF8A3A11F482E0C9
:104BA000CBCF0E942709801B910B813D974008F4D1
:104BB000B7CF85E29ECF8091B2068230D1F420E05B
:104BC00030E0A9016AE38DEA96E00E944909882352
:104BD00011F087E38ECF0E940B09807C803C19F492
:104BE00083E08093B2060E940B090E940B090E9489
:104BF0000B098DEA96E00E941209E091AE06F09151
:104C0000AF0680E5808381E081838DEA96E0909312
:104C10006704809366048DE896E00E94EC0D81E0C5
:104C20000E94D00A882309F4AEC080918D068111BC
:104C300066CF80E2EDE8F6E0DF01282F1D922A958D
:104C4000E9F726E634E0309394062093930690919A
:104C50006B04903121F0903209F051CF80E48093C1
:104C60008D0681E080938F0680918D06807709F410
:104C700046CF80911901882309F4F5C019AE1AAE08
:104C800018AA1FA648EE53E060E070E049AB5AABAB
:104C90006BAB7CAB84E691E09EA78DA71D861E863C
:104CA0001C821B824D835E836F8378879A838983FE
:104CB00041E063E072E0CE010D960E94711ABE01E0
:104CC0006F5F7F4FCE018D960E94750F89AD88234F
:104CD00009F4C9C0B12CA12C7E0189E5E80EF11CB4
:104CE00087010D5F1F4F4E0197E7890E911C1E0132
:104CF000A9E72A0E311CFE01E558FF4FCD57DF4FC3
:104D0000F983E883C358D040CE018F579F4FCB57CC
:104D1000DF4F99838883C558D040DE01A158BF4F2B
:104D2000C957DF4FB983A883C758D0403296C757B9
:104D3000DF4FF983E883C958D040D7011C92D12CAA
:104D4000C12CCE01C9960E94E71096018D30B1F0BA
:104D50002F5F3F4FF701EC0DFD1D80838435C9F4B3
:104D60002D964CAC5DAC6EAC7FAC2D97B1E04B1A80
:104D7000510861087108AA24A394B12C2E31310581
:104D80006CF46901DECF80E00E94D00A81114DCF22
:104D9000B6CE2E31310510F48A3099F72150310901
:104DA000F701E20FF31F1082F70180818F3201F1CA
:104DB00022303105E8F001900020E9F73197EE1933
:104DC000FF093297A8F0D7018D919C918035B9E405
:104DD0009B0709F4B9C10CF077C08334F3E49F0753
:104DE00009F4B8C10CF064C08235914409F4AFC134
:104DF000CE018D960E949C0F892B09F09ECFCE018B
:104E0000C9960E94EC0DAB2871F11D861E861C828E
:104E10001B8288EE93E0A0E0B0E08D839E83AF8399
:104E2000B88784E691E09A83898343E663E072E081
:104E3000CE010D960E94711ABE016F5F7F4FCE01A9
:104E40008D960E94750FB301A201CE01C9960E94F2
:104E50002B0D6FE172E0CE018D960E946016CE019F
:104E6000C9960E94EC0D8091D602882351F01092D1
:104E700018011092100182E090E090931601809347
:104E8000150184E190E0909339048093380482E323
:104E900090E090933704809336040E94C9138111E7
:104EA00060C164E670E080E090E00E943103F5CFDD
:104EB0008434980709F435C18335944409F098CFB8
:104EC00081E08093C90294CF8435FDE49F07A1F06F
:104ED0003CF480359D4409F08BCF87E191E023C1FC
:104EE0008434B0E59B0709F439C18035944509F055
:104EF0007FCF83E191E017C19F928F923F922F92D3
:104F0000CC57DF4FF881C458D040FF93CD57DF4FC7
:104F10002881C358D0402F93CA57DF4F8881C65885
:104F2000D0408F93CB57DF4F9881C558D0409F9387
:104F3000C857DF4FA881C858D040AF93C957DF4F3B
:104F4000B881C758D040BF93C657DF4FE881CA58D1
:104F5000D040EF93C757DF4FF881C958D040FF9337
:104F60008DE092E09F938F931F930F930E948E305A
:104F7000EF968EAD9FADEF97C557DF4F998388832E
:104F8000CB58D040C158DF4FA881B981CF57D0400E
:104F9000C157DF4FB983A883CF58D040CF57DF4FD9
:104FA000E881F981C158D040CF56DF4FF983E883BB
:104FB000C159D040D4010D90BC91A02DCD56DF4FEA
:104FC000B983A883C359D040F1010190F081E02D4D
:104FD000CB56DF4FF983E883C559D040ED968EADAF
:104FE0009FADED97C956DF4F99838883C759D0404D
:104FF00081E08093690388E680938B0310926A03B3
:1050000010928C0390E080E00E9410066AE0C62EA9
:10501000D12CCD56DF4F88819981C359D040B6013C
:105020000E94FF2FE4E0660F771FEA95E1F78F708B
:105030009927862B972B0E941006CB56DF4F88812D
:105040009981C559D040B6010E94FF2FF4E0660F48
:10505000771FFA95E1F78F709927862B972B0E947F
:105060001006C956DF4F88819981C759D040B601D3
:105070000E94FF2FA4E0660F771FAA95E1F76073E7
:1050800077278F709927862B972B0E94100681E037
:1050900090E00E941006CF56DF4F88819981C15958
:1050A000D040B6010E94FF2FB4E0660F771FBA957B
:1050B000E1F78F709927862B972B0E941006C15716
:1050C000DF4F88819981CF58D040B6010E94FF2FD1
:1050D00024E0660F771F2A95E1F78F709927862BBA
:1050E000972B0E941006C557DF4F88819981CB58B6
:1050F000D040B6010E94FF2F34E0660F771F3A952B
:10510000E1F78F709927862B972B0E9410068AE271
:1051100094E00E9415060FB6F894DEBF0FBECDBF17
:1051200067CE80E191E09F938F938CE192E09F9313
:105130008F931F930F930E948E300F900F900F90BC
:105140000F900F900F9054CE85E191E0ECCF81E16C
:1051500091E0E9CF81E08093D6024ACE88E191E0E8
:10516000E2CF60ED77E080E090E00E9431030E94A2
:105170002C0F0E94C91362E272E08DE893E00E9456
:1051800060164091170350911803609119037091B4
:105190001A032AE08DE893E00E943C158DE893E025
:1051A0000E943815609103014AE050E08DE893E0D9
:1051B0000E94881566E272E08DE893E00E94601616
:1051C000609102014AE050E08DE893E00E9488156A
:1051D00066E272E08DE893E00E9460166091010142
:1051E0004AE050E08DE893E00E94881568E272E0A2
:1051F0008DE893E00E946016609100014AE050E063
:105200008DE893E00E9488156EE372E08DE893E0EC
:105210000E9460166091D5024AE050E08DE893E06C
:105220000E9488156EE372E08DE893E00E9460169C
:105230006091D4024AE050E08DE893E00E94881526
:105240008DE893E00E9438158DE893E00E941E02DD
:1052500068E873E180E090E00E94310381E0809390
:10526000690380E480938B0310926A0310928C038D
:1052700090E080E00E9410068AE294E00E94150609
:1052800062E070E080E090E00E94310341E062E083
:1052900080E40E94B904F82E1092CA028093CB02D7
:1052A00062E070E080E090E00E94310310E000E0F6
:1052B0008091CA02F81639F08AE294E00E94A105B2
:1052C0000F5F1F4FF5CF012B09F447C00E94AE0EB0
:1052D00064E170E080E090E00E9431030E94B81227
:1052E000C12CD12C760101E010E00E94AE0E64E1E9
:1052F00070E080E090E00E9431030E94B81264E602
:1053000070E080E090E00E9431032091D002309163
:10531000D1024091D2025091D302C701B6010E943E
:10532000992D6B017C01B801012E000C880B990BA3
:105330000E94B42E9B01AC01C701B6010E940A2E47
:105340006093CC027093CD028093CE029093CF02F3
:105350000F5F1F4F0A30110541F661E089E00E949E
:10536000900268EB7BE080E090E00E94310360E017
:1053700089E00E94900268E873E180E090E00E947A
:10538000310360E086E00E94900260E085E00E94C8
:1053900090028091170390911803A0911903B09186
:1053A0001A038093130390931403A0931503B093EF
:1053B00016038091170390911803A0911903B091DF
:1053C0001A038093050390930603A0930703B093F9
:1053D000080380911901882309F49CC00E94C91315
:1053E0001D861E861C821B8288EE93E0A0E0B0E042
:1053F0008D839E83AF83B88784E691E09A83898307
:1054000046E46AE272E0CE010D960E94711A62E3F0
:1054100072E0CE0101960E94601664E071E0CE0158
:1054200001960E942915CE0101960E94381560E46C
:1054300072E0CE0101960E9460160EE010E051E28B
:10544000F52EF801F0925700649140E150E0CE0152
:1054500001960E9488150F5F1F4F0831110589F7CB
:10546000CE0101960E943815609103014AE050E098
:10547000CE0101960E94881566E272E0CE01019687
:105480000E946016609102014AE050E0CE01019650
:105490000E94881566E272E0CE0101960E946016B5
:1054A000609101014AE050E0CE0101960E9488150A
:1054B00068E272E0CE0101960E94601660910001E0
:1054C0004AE050E0CE0101960E9488156EE372E03A
:1054D000CE0101960E9460166091D5024AE050E02C
:1054E000CE0101960E9488156EE372E0CE0101960E
:1054F0000E9460166091D4024AE050E0CE0101960D
:105500000E948815CE0101960E943815CE010D9695
:105510000E94EC0D60E088E00E94900280911703E9
:1055200090911803A0911903B0911A030596A11D3B
:10553000B11D80930F0390931003A0931103B093B8
:105540001203A0911001AA23D9F0C0901703D090A4
:105550001803E0901903F0901A03B0E020E831E559
:1055600041E050E00E944430C60ED71EE81EF91EEE
:10557000C0920F03D0921003E0921103F092120335
:105580000E94C00E8FB7F89490E89093610092E06B
:10559000909361008FBF3CE3432E512C612C712C02
:1055A00042E0242E3324339480911B0390911C03FA
:1055B000892B09F0BCC061E088E00E9490020E9443
:1055C000C91360E088E00E949002809117039091D7
:1055D0001803A0911903B0911A034091130350913D
:1055E00014036091150370911603841B950BA60B91
:1055F000B70B81319E40A105B10520F010921B012F
:1056000010921A0180911A0190911B01892B71F05F
:1056100061E084E00E94900261E081E10E949002DA
:1056200063E070E080E090E00E94310360E084E09D
:105630000E94900260E081E10E94900283B7817F26
:10564000846083BF83B7816083BF83B7816083BF7A
:10565000889583B78E7F83BF83B78E7F83BF80910A
:105660006400807180936400409117035091180387
:105670006091190370911A0380910F0390911003A8
:10568000A0911103B0911203481759076A077B07CD
:1056900008F48ACF80910F0390911003A091110319
:1056A000B0911203805E934EAF4FBF4F80930B03B8
:1056B00090930C03A0930D03B0930E0380910F03FE
:1056C00090911003A0911103B0911203805E934E4C
:1056D000AF4FBF4F80930F0390931003A09311031C
:1056E000B09312038091190181110E94701F61E033
:1056F00088E00E94900265E070E080E090E00E9407
:1057000031032FEF41E06AE274E086EB96E00E94FD
:105710008C0681E090E090931C0380931B0362E071
:1057200080913604909137040E94CE0E3DCF809137
:105730001B0390911C03019709F0EDC180910A03AE
:105740008111ADC08090170390901803A0901903A9
:10575000B0901A03C0901303D0901403E090150387
:10576000F09016036091170370911803809119034C
:1057700090911A03009105031091060320910703ED
:1057800030910803601B710B820B930BA3019201F4
:105790000E9413306091150170911601CB01770FB3
:1057A000AA0BBB0B61E0281739074A075B0708F40F
:1057B00060E091E03091090320911701321708F061
:1057C00090E0862F892309F46AC0C501B4016C19E1
:1057D0007D098E099F090E94B22E20E030EC48EA34
:1057E00057E40E940A2E4B015C016091180170E0A1
:1057F00090E080E00E94B42E9B01AC01C501B40191
:105800000E94642F87FD4BC0009104036091DC026D
:105810007091DD028091DE029091DF028090DC02C7
:105820009090DD02A090DE02B090DF0210E0000F49
:10583000111F00521D4F0E94832ED8012D913C91C3
:10584000C901861B970B2091110130911201281775
:1058500039072CF5C501B4010E947C2E209113015B
:105860003091140126173707D4F461E086E00E94D6
:10587000900261E089E00E94900230920A038091D8
:10588000170390911803A0911903B0911A03809304
:10589000D8029093D902A093DA02B093DB0211E010
:1058A00080910A03813009F010E08091D7028111C4
:1058B00025C0112319F18091170390911803A0912D
:1058C0001903B0911A034091D8025091D902609106
:1058D000DA027091DB02841B950BA60BB70B4F9776
:1058E000A105B10558F061E085E00E949002309278
:1058F000D702809109038F5F809309038091D702BB
:10590000813021F58091170390911803A09119031C
:10591000B0911A034091D8025091D9026091DA02F5
:105920007091DB02841B950BA60BB70B8997A10521
:10593000B10560F084E10E94FA02883C910534F4DC
:1059400060E085E00E9490022092D70280911703C8
:1059500090911803A0911903B0911A034091D802B5
:105960005091D9026091DA027091DB02841B950B91
:10597000A60BB70B88379105A105B10560F011237F
:1059800051F060E085E00E94900260E089E00E94B2
:10599000900220920A0380910A03823039F58EE04A
:1059A0000E946702892B11F560E086E00E94900258
:1059B0008091170390911803A0911903B0911A03D5
:1059C0008093050390930603A0930703B093080305
:1059D0001092D70210920A0360E572E08DE893E01E
:1059E0000E9429158DE893E00E94381580911703D5
:1059F00090911803A0911903B0911A0340911303D9
:105A0000509114036091150370911603841B950B3C
:105A1000A60BB70B81319E40A105B10520F0109275
:105A20001B0110921A0140911703509118036091C5
:105A3000190370911A0380910B0390910C03A091AC
:105A40000D03B0910E03481759076A077B0768F1E9
:105A5000809170008E7F809370008091190188235F
:105A600021F086E494E00E94EC0D80910B0390916C
:105A70000C03A0910D03B0910E03805E934EAF4FC7
:105A8000BF4F80930B0390930C03A0930D03B0932F
:105A90000E038091190181110E94701F62E08091B4
:105AA0003604909137040E94CE0E80E10E94670276
:105AB000892B09F03CCE6AE070E080E090E00E9423
:105AC000310380E10E946702892B09F030CE80917A
:105AD00070008E7F8093700061E081E10E949002EF
