:100000000C9468000C94BD220C9496220C949000E1
:100010000C9490000C9490000C946A240C94900022
:100020000C9490000C9403240C9490000C94900079
:100030000C9490000C9490000C9490000C94900000
:100040000C944C220C9490000C941A220C94F421E1
:100050000C9490000C9490000C9490000C949000E0
:100060000C94E4220C9490006364696E6F70737555
:1000700078585B0000000000250028002B000000DD
:1000800000002300260029000000000800020100F3
:100090000003040700000000000000000000000052
:1000A000240027002A0001020408102040800102D9
:1000B00004081020010204081020040404040404AD
:1000C00004040202020202020303030303039B254A
:1000D00011241FBECFEFD8E0DEBFCDBF12E0A0E0FD
:1000E000B1E0E0E2F3E702C005900D92A038B1075D
:1000F000D9F726E0A0E8B2E001C01D92A73EB20702
:10010000E1F710E0C8E6D0E004C02197FE010E94AC
:100110008633C736D107C9F70E9413260C948E394F
:100120000C940000BC018091D7068695869583705B
:100130008130B1F040F08230F1F0833039F160E08D
:1001400070E0CB010895072E000C880B990B0E94DC
:10015000EB3120E030E043E053E40E944831089561
:10016000072E000C880B990B0E94EB3120E030E049
:1001700043E852E4F2CF072E000C880B990B0E9443
:10018000EB3123E333E343E052E4E7CF072E000CE7
:10019000880B990B0E94EB3123E333E343E851E4EE
:1001A000DCCFBC018091D70683708130B1F040F084
:1001B0008230F1F0833039F160E070E0CB010895D6
:1001C000072E000C880B990B0E94EB312FE632E1D1
:1001D00043E851E40E9448310895072E000C880B33
:1001E000990B0E94EB312FE632E143E051E4F2CF6C
:1001F000072E000C880B990B0E94EB312FE632E1A1
:1002000043E850E4E7CF072E000C880B990B0E94BF
:10021000EB312FE632E143E050E4DCCF0F931F9344
:10022000FC01862FA081B181ED91FC91119730974F
:1002300061F0BA0114960D911C9121E030E040E08C
:1002400050E009951F910F91089582E090E0FACF58
:100250008091FD029091FC02891B990B08950895ED
:100260000895DC01ED91FC910190F081E02D09945D
:10027000AF92BF92CF92DF92EF92FF920F931F93B4
:10028000CF93DF936C017B018B01040F151FEB01F2
:100290005E01AE18BF08C017D10759F06991D601A9
:1002A000ED91FC910190F081E02DC6010995892B1B
:1002B00079F7C501DF91CF911F910F91FF90EF90DA
:1002C000DF90CF90BF90AF900895FC01538D448D87
:1002D000252F30E0842F90E0821B930B541710F0F1
:1002E000CF96089501970895FC01918D828D9817FE
:1002F00061F0A28DAE0FBF2FB11D5D968C91928DD6
:100300009F5F9F73928F90E008958FEF9FEF089506
:10031000FC01918D828D981731F0828DE80FF11DCF
:10032000858D90E008958FEF9FEF0895FC01918DEA
:10033000228D892F90E0805C9F4F821B91098F73E3
:100340009927089586E993E00E94960121E0892B80
:1003500009F420E0822F089580E090E0892B29F0B5
:100360000E94A20181110C9400000895FC01A48D4B
:10037000A80FB92FB11DA35ABF4F2C91848D90E0C7
:1003800001968F739927848FA689B7892C93A089AA
:10039000B1898C91837080648C93938D848D981334
:1003A00006C00288F389E02D80818F7D80830895C7
:1003B000EF92FF920F931F93CF93DF93EC0181E0B5
:1003C000888F9B8D8C8D98131AC0E889F98980815C
:1003D00085FF15C09FB7F894EE89FF896083E8898F
:1003E000F98980818370806480839FBF81E090E081
:1003F000DF91CF911F910F91FF90EF900895F62E0E
:100400000B8D10E00F5F1F4F0F731127E02E8C8DA7
:100410008E110CC00FB607FCFACFE889F9898081EC
:1004200085FFF5CFCE010E94B601F1CFEB8DEC0F29
:10043000FD2FF11DE35AFF4FF0829FB7F8940B8F09
:10044000EA89FB8980818062CFCFCF93DF93EC0173
:10045000888D8823B9F0AA89BB89E889F9898C91AC
:1004600085FD03C0808186FD0DC00FB607FCF7CF68
:100470008C9185FFF2CF808185FFEDCFCE010E9468
:10048000B601E9CFDF91CF910895833081F028F450
:10049000813099F08230A9F008958730A9F0883032
:1004A000C9F08430B1F4809180008F7D03C08091C9
:1004B00080008F7780938000089584B58F7784BD06
:1004C000089584B58F7DFBCF8091B0008F778093A6
:1004D000B00008958091B0008F7DF9CFCF93DF9366
:1004E000282F30E0F901E857FF4F8491F901EA55D0
:1004F000FF4FD491F901E654FF4FC491CC23A1F0F2
:1005000081110E944502EC2FF0E0EE0FFF1FE25830
:10051000FF4FA591B491EC91ED2381E090E009F4B7
:1005200080E0DF91CF91089580E090E0FACF1F93B3
:10053000CF93DF93282F30E0F901E857FF4F8491E4
:10054000F901EA55FF4FD491F901E654FF4FC491E8
:10055000CC23A9F0162F81110E944502EC2FF0E068
:10056000EE0FFF1FEC58FF4FA591B4918FB7F89491
:10057000EC91111108C0D095DE23DC938FBFDF9181
:10058000CF911F910895DE2BF8CF6091800281E01A
:100590006827609380028091FB02882319F081E133
:1005A0000E94970280918302909184020196909319
:1005B0008402809383020895CF93DF9390E0FC013F
:1005C000EA55FF4F249186549F4FFC018491882364
:1005D000C9F090E0880F991FFC01E456FF4FA591E8
:1005E000B491FC01EC58FF4FC591D49161110DC03D
:1005F0009FB7F8948C91209582238C93888128232F
:1006000028839FBFDF91CF910895623051F49FB747
:10061000F8943C91822F809583238C93E8812E2B34
:10062000EFCF8FB7F894EC912E2B2C938FBFEACF9E
:100630008E50806480937C0080917A0080648093E7
:100640007A0080917A0086FDFCCF809178009091AD
:10065000790008953FB7F8948091F2029091F302E7
:10066000A091F402B091F50226B5A89B05C02F3FDA
:1006700019F00196A11DB11D3FBFBA2FA92F982FC8
:100680008827BC01CD01620F711D811D911D43E0C2
:10069000660F771F881F991F4A95D1F708958F928B
:1006A0009F92AF92BF92CF92DF92EF92FF924B0157
:1006B0005C010E942A036B017C010E942A036C19D1
:1006C0007D098E099F09683E734081059105A8F355
:1006D00021E0821A9108A108B10888EEC80E83E0D3
:1006E000D81EE11CF11C81149104A104B10429F766
:1006F000FF90EF90DF90CF90BF90AF909F908F9042
:10070000089508952091CA02260F3327331F2132FE
:100710003105ECF420916C03FC0190E080E0243082
:1007200069F082E00895A091CA022191AC0146557A
:100730005D4FA40FB52FB11D2C930196861798F32A
:100740008091CA02680F6093CA0280E0089581E038
:10075000089510926C0381E080936B03109246031E
:1007600061E082E10E94970261E083E10E949702CA
:10077000E9EBF0E080818E7F808380818D7F8083B4
:1007800080E28093B80085E48093BC000895CF9305
:10079000DF9391E09093A9028823B9F0C091B8004B
:1007A000D091BA008091BC008A7B8093BC0060E04D
:1007B00082E10E94970260E083E10E9497020E941A
:1007C000A903D093BA00C093B800DF91CF910895E8
:1007D0008F929F92AF92BF92CF92DF92EF92FF9251
:1007E0000F931F93CF93DF93D0919503D13208F0ED
:1007F000D7C0182FC09194030E942A036B017C017B
:1008000080916C0381116BC082E080936C03109324
:100810006B038FEF80936A0310926903D093680390
:10082000A4E7B3E0E8E4F3E080E0D81391C01092CD
:10083000470380914703CC0FC82BC0934703809197
:100840004603813009F088C0109246030E942A03B3
:100850006B017C01809147038093BB0080916E0304
:1008600090916F03A0917003B0917103892B8A2B33
:100870008B2BA1F00E942A0300916E0310916F034D
:1008800020917003309171036C197D098E099F09C5
:10089000061717072807390708F442C08091BC00E3
:1008A00083FDD8CF85EC8093BC000E942A036B01A6
:1008B0007C0180916C03823009F450C080916A03FE
:1008C0008F3F09F46FC080916A03803209F46CC0D5
:1008D00080916A03803309F469C084E026C0809166
:1008E0006E0390916F03A0917003B0917103892BF7
:1008F0008A2B8B2B09F484CF0E942A0380906E03ED
:1009000090906F03A0907003B09071036C197D09F3
:100910008E099F0986169706A806B90608F070CFBB
:1009200080916D030E94C70385E0109273031092BB
:10093000950310927203DF91CF911F910F91FF9059
:10094000EF90DF90CF90BF90AF909F908F900895E1
:100950009D9191938F5F69CF85EEA5CF80916E03B6
:1009600090916F03A0917003B0917103892B8A2B32
:100970008B2B09F49ECF0E942A0300916E031091E5
:100980006F0320917003309171036C197D098E09FA
:100990009F09061717072807390708F08ACFC0CF25
:1009A00081E0C3CF80E0C1CF82E0BFCF83E0BDCF85
:1009B0008F929F92AF92BF92CF92DF92EF92FF926F
:1009C0000F931F93CF93DF93D82FC62F142F61322D
:1009D00008F09CC00E942A036B017C0180916C038B
:1009E00081116FC081E080936C0310936B039FEFC4
:1009F00090936A03109269039C0F9093680380930D
:100A0000470380914703DD0FD82BD0934703809194
:100A10004603813009F07CC0109246030E942A03ED
:100A20006B017C01809147038093BB0080916E0332
:100A300090916F03A0917003B0917103892B8A2B61
:100A40008B2BA1F00E942A0300916E0310916F037B
:100A500020917003309171036C197D098E099F09F3
:100A6000061717072807390708F44CC08091BC0007
:100A700083FDD8CF85EC8093BC000E942A036B01D4
:100A80007C0180916C03813009F444C0809169033A
:100A90008C1710F4C0916903E8E4F3E0A6E2B3E038
:100AA00080E08C1359C08C2FDF91CF911F910F9153
:100AB000FF90EF90DF90CF90BF90AF909F908F907E
:100AC000089580916E0390916F03A0917003B0918F
:100AD0007103892B8A2B8B2B09F480CF0E942A0368
:100AE00080906E0390906F03A0907003B09071039C
:100AF0006C197D098E099F0986169706A806B90606
:100B000008F06CCF80916D030E94C703C0E0CBCF8B
:100B100085EEB1CF80916E0390916F03A091700329
:100B2000B0917103892B8A2B8B2B09F4AACF0E94D9
:100B30002A0300916E0310916F032091700330918E
:100B400071036C197D098E099F090617170728077D
:100B5000390708F096CFD6CF91919D938F5FA1CFA3
:100B60000895E091FC028091FD02E81730F4F0E076
:100B7000EA5DFC4F808190E008958FEF9FEF08952C
:100B80009091FC028091FD022FEF3FEF981748F4FF
:100B9000E92FF0E0EA5DFC4F208130E09F5F909309
:100BA000FC02C9010895CF92DF92EF92FF920F935A
:100BB0001F93CF93DF937C01CB018A0120917203B5
:100BC000222389F0EB016B01C40ED51ECC15DD0587
:100BD00069F06991D701ED91FC910190F081E02DD0
:100BE000C7010995F3CF642F0E948203C801DF91EA
:100BF000CF911F910F91FF90EF90DF90CF900895CC
:100C0000CF93DF931F92CDB7DEB769832091720334
:100C10002223F9F020919503203258F021E030E0B2
:100C2000FC013383228390E080E00F90DF91CF912D
:100C3000089580917303E82FF0E0EC58FC4F998100
:100C400090838F5F809373038093950381E090E09E
:100C5000ECCF61E0CE0101960E948203F7CF682FAE
:100C600083E394E00C94000681E00C94E803CF93B6
:100C7000DF931F92CDB7DEB7643078F420E1629F36
:100C8000B00111246983AE014F5F5F4F6FE70E948F
:100C90000E010F90DF91CF91089583E090E0F9CF9E
:100CA0000F931F93FC01862FBA01A081B181129688
:100CB000ED91FC911397309749F0A9019801149692
:100CC0000D911C9109951F910F91089582E090E07C
:100CD000FACF8F929F92AF92BF92EF92FF920F93B3
:100CE0001F93CF93DF930115110591F1F801C58D85
:100CF000D68D209769F149017B01682F878D91E09E
:100D0000909372038093940310927303109295034F
:100D1000E881F9810190F081E02DCE010995E8810B
:100D2000F9810280F381E02DA401B701CE0109957C
:100D3000CE010E94340690E080E0DF91CF911F91B8
:100D40000F91FF90EF90BF90AF909F908F9008957C
:100D500083E090E0F2CF8F929F92AF92BF92CF92BA
:100D6000DF92EF92FF920F931F93CF93DF9300D008
:100D700000D0CDB7DEB75C01822FF50120A3768FBE
:100D8000658F41A398E6411199E6978F8F3F19F03F
:100D900061E00E94DC02F50180A18F3F19F061A1A2
:100DA0000E94970289E696E0F50193A382A389EA5F
:100DB00096E195A384A3B7A2A6A2C50182969383C8
:100DC00082836501F2E0CF0ED11C198260E0C6017A
:100DD0000E94370601E010E020E030E0AE014F5FF6
:100DE0005F4F60E0C6010E945006009709F005C2FF
:100DF00089818A3E19F084E090E0FFC1F501148EEC
:100E0000138E60E0C6010E94370601E010E020E08A
:100E100030E0AE014F5F5F4F66E0C6010E945006B2
:100E2000009751F4898180688983AE014F5F5F4FDD
:100E300066E0C6010E940E01F501948F838F009732
:100E400009F0DBC162E370E080E090E00E944F03B4
:100E500060E0C6010E94370601E010E020E030E0CB
:100E6000AE014F5F5F4F66E0C6010E9450060097DB
:100E700051F489818F7B8983AE014F5F5F4F66E0BC
:100E8000C6010E940E01F501948F838F009709F02F
:100E9000B4C160E0C6010E94370601E010E020E026
:100EA00030E0AE014F5F5F4F66E0C6010E94500622
:100EB000009751F489818F7D8983AE014F5F5F4F29
:100EC00066E0C6010E940E01F501948F838F0097A2
:100ED00009F093C160E0C6010E9437060097C1F493
:100EE00001E010E020E030E0AE014F5F5F4F65E0D1
:100EF000C6010E945006009759F489818F7D8F7E2C
:100F00008983AE014F5F5F4F65E0C6010E940E010D
:100F1000F501948F838F009709F06FC162E0C601DD
:100F20000E9437067C0101E010E020E030E0AE01D5
:100F30004F5F5F4F64E1C6010E945006E82AF92A1C
:100F40008981897F8983AE014F5F5F4F64E1C6016C
:100F50000E940E01E82AF92A62E0C6010E943706C3
:100F6000E82AF92A01E010E020E030E0AE014F5F0E
:100F70005F4F61E0C6010E945006E82AF92A898184
:100F8000897F8983AE014F5F5F4F61E0C6010E9498
:100F90000E018E299F29F501948F838F009709F008
:100FA0002CC162E0C6010E9437067C0101E010E01E
:100FB00020E030E0AE014F5F5F4F64E1C6010E9468
:100FC0005006E82AF92A898188638983AE014F5F38
:100FD0005F4F64E1C6010E940E01E82AF92A62E02F
:100FE000C6010E943706E82AF92A01E010E020E055
:100FF00030E0AE014F5F5F4F61E0C6010E945006D6
:10100000E82AF92A898188638983AE014F5F5F4F9F
:1010100061E0C6010E940E018E299F29F501948F7F
:10102000838F009709F0E9C061E0C6010E94742433
:10103000009709F0E2C062E0C6010E9474240097A4
:1010400009F0DBC060E0C6010E943706009719F482
:10105000C6010E947325F501948F838F60E0C6015D
:101060000E943706009709F043C0C6010E9473250D
:101070000097F1F563E0C6010E9437060097C1F5BD
:1010800001E010E020E030E0AE014E5F5F4F61E034
:10109000C6010E945006009759F58A81807F8760BB
:1010A00080618A83AE014E5F5F4F61E0C6010E949E
:1010B0000E010097E9F460E0C6010E943706009730
:1010C000B9F401E010E020E030E0AE014F5F5F4F87
:1010D00063E0C6010E945006009751F48981806246
:1010E0008983AE014F5F5F4F63E0C6010E940E012E
:1010F000F501948F838F85E0F82E94E0892E912C52
:1011000021E0AE014F5F5F4F60E0C6010E94C52441
:10111000F501948F838F198121E0AE014F5F5F4FFE
:1011200061E0C6010E94C5248981F501148E138EE9
:10113000183411F4893039F1F501948E838E60E012
:10114000C6010E9437060097B9F401E010E020E0E4
:1011500030E0AE014F5F5F4F63E0C6010E94500672
:10116000009751F4898182608983AE014F5F5F4FA0
:1011700063E0C6010E940E01F501948F838FFA94FB
:10118000F110BECF38CE88E08C8320E0AE014C5FFA
:101190005F4F61E3C6010E94C524F501948F838FE0
:1011A000009759F563E0C6010E943706009711F5D4
:1011B0008CE88B83AE014D5F5F4F63E0C6010E94F8
:1011C0000E010097B9F480E18A83AE014E5F5F4F54
:1011D00064E0C6010E940E01009761F48981807469
:1011E00089688F7B8983AE014F5F5F4F65E0C601E1
:1011F0000E940E01F501948F838FF501948F838FE8
:101200000F900F900F900F90DF91CF911F910F9142
:10121000FF90EF90DF90CF90BF90AF909F908F9016
:101220000895CF93DF93EC01E981FA819081818168
:101230009CBD8DBDE981FA8160E082810E949702A8
:1012400081E08B83DF91CF9108958EBD0DB407FEB1
:10125000FDCF08958FEF8EBD0DB407FEFDCF8EB587
:101260000895CF93DF93FC012381222361F0EC01E9
:101270000180F281E02D61E082810E9497028FEF70
:101280000E9425091B82DF91CF9108952FB7F89412
:101290008091EE029091EF02A091F002B091F102E4
:1012A0002FBF0895CF93DF930E944609EC010E945F
:1012B0002A098F3F59F00E9446098C1B9D0B8935E6
:1012C0009240A8F380E0DF91CF91089581E0FBCFB9
:1012D000DF92EF92FF920F931F93CF93DF938C01D6
:1012E000C62FD22FF32EE42ED52EFC01838181113F
:1012F00003C0C8010E9411090E9452098C2F80640A
:101300000E9425098D2D0E9425098E2D0E942509F8
:101310008F2D0E9425098D2F0E94250987E8C11174
:1013200001C085E90E942509CC3011F40E942A09E8
:10133000C0E00E942A09F801848387FF04C0CF3FE0
:1013400011F0CF5FF6CFDF91CF911F910F91FF90FA
:10135000EF90DF9008950F931F93CF93DF93EC01ED
:1013600089018D81833039F089E0440F551F661F54
:10137000771F8A95D1F79A01AB0168E1CE010E94EF
:101380006809882319F082E3888337C08EEF0E94B2
:101390002509F80180818EBD818132961E5F0DB4D2
:1013A00007FEFDCF8EBDE017F10711F08191F7CF59
:1013B0000DB407FEFDCF8FEF0E9425098FEF0E942D
:1013C00025090E942A098C838F71853089F40E9437
:1013D0005209182F89E51123B9F220E030E0A90164
:1013E0006DE0CE010E946809882361F089E2CCCFCC
:1013F00086E58883CE010E943109CE010E94310921
:1014000010E007C00E942A098111F0CFCE010E948E
:101410003109812FDF91CF911F910F910895EF92A4
:10142000FF920F931F93CF93DF93EC0189018D817E
:10143000833039F089E0440F551F661F771F8A9566
:10144000D1F79A01AB0161E1CE010E9468098823BE
:1014500039F080E38883CE010E94310980E037C0F3
:101460000E9446097C010E942A098C838F3F69F4FF
:101470000E9446098E199F098D329140A0F384E5A0
:101480008883CE010E943109E6CF8E3F11F080E5BE
:10149000F7CF8FEF8EBDF801D801A150BE4F9FEF5F
:1014A0000DB407FEFDCF8EB59EBD8193AE17BF076D
:1014B000B9F70DB407FEFDCF8EB58C931C820E9448
:1014C0002A090E942A09CE010E94310981E0DF9198
:1014D000CF911F910F91FF90EF900895EF92FF929F
:1014E0001F93CF93DF93FC01208111E020FF14C0F4
:1014F000EC017C01F7E0EF0EF11C4B815C816D810A
:101500007E81E981FA819701808191810E94AB09F6
:10151000182F811108C010E0812FDF91CF911F910A
:10152000FF90EF900895888181FD04C088818E7FAF
:101530008883F2CFE981FA814B815C816D817E8164
:1015400084859585A685B785480F591F6A1F7B1F1F
:101550009701808191810E94AB098111E7CFDBCF98
:10156000CF92DF92EF92FF921F93CF93DF93EC0124
:101570006A017B01122F8B819C81AD81BE818C150C
:101580009D05AE05BF05B1F0CE010E946E0A811126
:101590000AC090E080E0DF91CF911F91FF90EF9023
:1015A000DF90CF90089512FF0CC01882CB82DC82AE
:1015B000ED82FE8213708881182B1883CE01079666
:1015C000EACFE981FA819E01295F3F4FB701A60169
:1015D000808191810E940F0A8111E7CFDACF8F922B
:1015E0009F92AF92BF92CF92DF92EF92FF920F93B2
:1015F0001F931092740441E050E060E070E040936B
:101600007704509378046093790470937A042FE6FA
:1016100034E0309391042093900410928F044FEFA4
:101620005FEFBA0140939204509393046093940443
:1016300070939504882309F450C020E040E050E006
:10164000BA018FE894E00E94B00A009761F480E04C
:101650001F910F91FF90EF90DF90CF90BF90AF90D0
:101660009F908F900895FC01E254FE4F20812F77C8
:1016700071F78A539E4FFC01C080D180E280F380D5
:10168000C114D104E104F10411F320E0B701A60173
:101690008FE894E00E94B00AFC01892BC1F2838597
:1016A00094858115924099F68089823081F68685ED
:1016B0009785892B61F22585209371048FEF820F26
:1016C0008093720480E091E0291769F08F5F893080
:1016D00041F488E080937304BACFC12CD12C7601F9
:1016E000D4CF990FF1CF809373044689578970E066
:1016F00060E04115510521F444A155A166A177A1EF
:1017000040937B0450937C0460937D0470937E042B
:101710002685378546015701820E931EA11CB11CF8
:101720008092830490928404A0928504B0928604EF
:10173000218932893093760420937504440F551F14
:10174000661F771F480D591D6A1D7B1D40938B0432
:1017500050938C0460938D0470938E042189328998
:10176000A5E0220F331FAA95E1F721503E4F232F0A
:1017700033272695420F531F611D711D40937F042F
:1017800050938004609381047093820403891489C8
:1017900030E020E00115110521F400A111A122A1E2
:1017A00033A1C41AD50AE60AF70AC00ED11EE21EFA
:1017B000F31E04C0F694E794D794C7948A95D2F7A1
:1017C000D701C6010196A11DB11D80938704909396
:1017D0008804A0938904B0938A0485EFC8168FE02B
:1017E000D806E104F10420F48CE0809374042FCF38
:1017F00080E125EFC2162FEFD206E104F10468F074
:1018000084A595A5A6A5B7A580938B0490938C0479
:10181000A0938D04B0938E0480E28093740481E0E1
:1018200017CF8F929F92AF92BF92CF92DF92EF929B
:10183000FF920F931F936A017B0148015901FC013C
:101840002581203299F50489158926893789E7E0B1
:101850007695679557954795EA95D1F7400F511FB3
:10186000621F731F23E080960E94B00A009761F404
:1018700080E01F910F91FF90EF90DF90CF90BF908D
:10188000AF909F908F900895E894C7F8DD24EE24E0
:10189000FF24CC0CDD1CCC0CDD1C8C0D9D1DFC0133
:1018A00080829182A282B38281E0E3CF203101F76E
:1018B00044895589668977894D0D511D611D711DBA
:1018C00023E080960E94B00A009791F2DD24EE2476
:1018D000FF24CC0CDD1CC80ED91EF6011183008339
:1018E000E3CFCF92DF92EF92FF920F931F93CF93AC
:1018F000DF93EC016A017B0189018D81803209F05F
:1019000041C08C899D89AE89BF89E7E0769567954E
:1019100057954795EA95D1F7480F591F6A1F7B1FC6
:1019200022E0CE0180960E94B00A009751F48FEF1A
:10193000DF91CF911F910F91FF90EF90DF90CF90AB
:101940000895E894C7F8DD24EE24FF24CC0CDD1CB8
:10195000CC0CDD1C8C0D9D1DFC0180819181A28130
:10196000B381BF70488D598D6A8D7B8D481759079B
:101970006A077B0728F1F80180839183A283B383F0
:1019800081E0D6CF803199F64C895D896E897F8957
:101990004D0D511D611D711D22E0CE0180960E94EA
:1019A000B00A009721F2DD24EE24FF24CC0CDD1CCC
:1019B000C80ED91EF60180819181B0E0A0E0D2CF9F
:1019C00080E0B6CF0F931F93CF93DF93FC0120816C
:1019D000211106C081E0DF91CF911F910F910895F1
:1019E000EC01828187FF4DC04489558966897789DA
:1019F0008681978121E080960E94B00A009729F4A1
:101A000089818160898380E0E6CF0C811D810F7020
:101A1000112725E0000F111F2A95E1F7080F191F64
:101A20000115110569F3F8018081853E49F388812C
:101A300083FF08C0888D998DAA8DBB8D848F958F6B
:101A4000A68FB78F8C8D9D8DF801938F828F8C8D93
:101A50009D8DAE8DBF8DB58BA48BE0919A02F091D8
:101A60009B02309759F0B8016A5E7F4FC8014896D3
:101A70000995F801808D918D938B828B8A818F7768
:101A80008A838E819F8180960E946E0A882309F442
:101A9000B7CFA0CF4F925F926F927F928F929F921B
:101AA000AF92BF92CF92DF92EF92FF920F931F936C
:101AB000CF93DF93EC014A015B014C845D846E841B
:101AC0007F84A881AA2309F486C0488959896A8934
:101AD0007B89481559056A057B0569F081149104D5
:101AE000A104B10451F41C861D861E861F86888AB7
:101AF000998AAA8ABB8A81E073C0A3FF59C0088D66
:101B0000198D2A8D3B8D081519052A053B0508F40A
:101B100062C0EE81FF81848190E009968A019B0179
:101B20000150110921093109082E04C03695279565
:101B3000179507950A94D2F775016401B1E0CB1AA5
:101B4000D108E108F10804C0F694E794D794C7944B
:101B50008A95D2F7C016D106E206F30628F0452B87
:101B6000462B472B09F052C0A6FF4BC0848D958DA4
:101B7000A68DB78D8C879D87AE87BF878E01045F4A
:101B80001F4FC114D104E104F10409F4B0CF4C8516
:101B90005D856E857F8598018E819F810E94710C85
:101BA00091E0C91AD108E108F108181654F313C0DE
:101BB000A5FFAFCFEE81FF818681978125E0880F59
:101BC000991F2A95E1F7B0E0A0E088159905AA05CC
:101BD000BB0508F08CCF4C865D866E867F8680E0E4
:101BE000DF91CF911F910F91FF90EF90DF90CF90F9
:101BF000BF90AF909F908F907F906F905F904F902D
:101C000008958C8D9D8DAE8DBF8DB4CFC01AD10A35
:101C1000E20AF30AB3CFCF93DF93EC010E94E20C08
:101C20001882DF91CF9108953F924F925F926F9209
:101C30007F928F929F92AF92BF92CF92DF92EF925C
:101C4000FF920F931F93CF93DF93CDB7DEB7289703
:101C50000FB6F894DEBF0FBECDBF4C01DC0112966B
:101C60008C911297806812968C9312971696AD906D
:101C7000BC9017971C964D905D906D907C901F972F
:101C8000411451046104710409F05AC0D501189639
:101C90008D919D910D90BC91A02D8D839E83AF83DE
:101CA000B887CD80DE80EF80F884BFEFCB1ADB0AE7
:101CB000EB0AFB0AF501808D918DA28DB38D8C15F9
:101CC0009D05AE05BF0528F482E0C82ED12CE12C7D
:101CD000F12C9E012F5F3F4FB701A601C5010E9465
:101CE000710C87FD13C0882341F089819A81AB81F3
:101CF000BC81892B8A2B8B2B41F18D819E81AF81F9
:101D0000B885C816D906EA06FB0679F6312C832D6C
:101D100028960FB6F894DEBF0FBECDBFDF91CF91EE
:101D20001F910F91FF90EF90DF90CF90BF90AF90F9
:101D30009F908F907F906F905F904F903F9008950D
:101D40004D825E826F827886ACCF0FEF1FEF2FEF50
:101D50003FE0B701A601C5010E94110C382E88236F
:101D6000A9F2411451046104710479F097018601CC
:101D7000B301A201C5010E94110C882339F2F401BC
:101D8000C486D586E686F786C2CFD5011896CD9251
:101D9000DD92ED92FC921B97F2CF8F929F92AF92C1
:101DA000BF92CF92DF92EF92FF920F931F93CF9348
:101DB000DF9360910C0370910D0380910E0390915D
:101DC0000F03209196023091970240919802509112
:101DD00099020E949B32181684F480910C03909112
:101DE0000D03A0910E03B0910F0380939602909380
:101DF0009702A0939802B093990260910C0370919E
:101E00000D0380910E0390910F0320E030E040EA33
:101E100051E40E94433187FF10C080910C039091E0
:101E20000D03A0910E03B0910F038093960290933F
:101E30009702A0939802B093990280919502823004
:101E400031F560910C0370910D0380910E03909118
:101E50000F0320910301309104014091050150913D
:101E600006010E94433187FF12C080910C039091BC
:101E70000D03A0910E03B0910F03809396029093EF
:101E80009702A0939802B0939902109295028091C4
:101E900094028111D9C060910C0370910D0380915F
:101EA0000E0390910F03C0902003D0902103E09087
:101EB0002203F09023038090900290909102A090D2
:101EC0009202B0909302C1E020910F013091100175
:101ED00040911101509112010E949B3218160CF092
:101EE000C0E081E090919502911180E0C823D1F08B
:101EF000C701B601681979098A099B092CE330E00A
:101F000040E050E00E944A33809113019091140107
:101F1000B0E0A0E082179307A407B50718F481E0AA
:101F20008093950211E080919502813009F010E0D4
:101F30008090960290909702A0909802B09099029B
:101F400020910C0330910D0340910E0350910F032B
:101F5000C0908E02D0908F02E0900101F0900201BB
:101F6000C0918D02C501B4010E94D630D1E020910C
:101F70000701309108014091090150910A010E9426
:101F80009B3218160CF0D0E001E0C027C123CD230E
:101F900069F0CE14DF0450F461E086E00E949702FD
:101FA00061E089E00E94970200938D0220910C036A
:101FB00030910D0340910E0350910F03C0908E029B
:101FC000D0908F02C501B4010E94D630C1E02091AB
:101FD0000B0130910C0140910D0150910E010E94B6
:101FE0009B3218160CF0C0E081E0CE14DF0408F03C
:101FF00080E0C82309F493C0112309F490C0C1E024
:10200000C093940261E085E00E949702C0938C0225
:102010008091200390912103A0912203B09123038A
:102020008093900290939102A0939202B0939302B6
:1020300082E08093950280918E0290918F020196AA
:1020400090938F0280938E028091900290919102E2
:10205000A0919202B09193024091200350912103EC
:102060006091220370912303209194022130B9F4EE
:102070000A96A11DB11D84179507A607B70778F426
:1020800084E10E941803883C91054CF460E085E0EF
:102090000E94970210928C0282E0809394028091B9
:1020A0009402823079F56091200370912103809130
:1020B00022039091230300919002109191022091AC
:1020C000920230919302601B710B820B930B2CE3F5
:1020D00030E040E050E00E944A3380910001281730
:1020E00088F060E089E00E9497028EE00E946E0214
:1020F000892B41F460E086E00E94970210928D02E5
:1021000010929402DF91CF911F910F91FF90EF9069
:10211000DF90CF90BF90AF909F908F900895809167
:10212000900290919102A0919202B09193028091BD
:10213000200390912103A0912203B0912303AFCFFC
:102140003F924F925F926F927F928F929F92AF9247
:10215000BF92CF92DF92EF92FF920F931F93CF9394
:10216000DF93CDB7DEB760970FB6F894DEBF0FBE32
:10217000CDBF162F342E822E9E2C9CE0ECE3F1E096
:102180009E012F5F3F4F5901D90101900D929A9501
:10219000E1F7282F30E0225E3F4F032E000C440B66
:1021A000550B69017A0192E0F594E794D794C794AE
:1021B0009A95D1F7837049F480E8482E81E5582E2E
:1021C00066246394712C633018F4412C512C320135
:1021D0002C193D094E095F0960E873E381EE91E037
:1021E0000E9412336D877E878F87988BA701960197
:1021F00060E075E882EE91E00E941233CD84DE84C7
:10220000EF84F888C60ED71EE81EF91E4C0C5D1C24
:102210006E1C7F1CF501812F8150990B7C01CF0131
:102220008A199B098E159F056CF4A191B0E020E8F6
:1022300031E541E050E00E947B33460E571E681E98
:10224000791EEDCF202F30E0ACE3B0E00E946C337C
:102250006B017C01C90CD11CE11CF11C282D30E064
:10226000A0E1BEE00E946C33C60ED71EE81EF91E28
:10227000A32DB0E020E831E541E050E00E947B333F
:102280006C0D7D1D8E1D9F1D640D751D861D971D7A
:1022900060960FB6F894DEBF0FBECDBFDF91CF9131
:1022A0001F910F91FF90EF90DF90CF90BF90AF9074
:1022B0009F908F907F906F905F904F903F90089588
:1022C00081E08093720380E48093940310927303FF
:1022D000109295038CEA90E00E942F0683E394E02D
:1022E0000C94340684B7877F84BFE0E6F0E08081F9
:1022F0008861808386E08083808180648083089504
:1023000002C0959587956A95E2F7092E000CAA0BF5
:10231000BB0B209170002E7F209370002091B000A5
:102320002C7F2093B0002091B100277F2093B10033
:102330002091B6002F7D2093B600209170002D7F54
:10234000209370002091B10024602093B10020916F
:10235000B1002C7F2093B10023E830E03093A80235
:102360002093A7020097A105B10521F481E090E038
:10237000A0E0B0E080939F029093A002A093A102FE
:10238000B093A20285E49EE190939D0280939C020B
:102390001092A3021092A4021092A5021092A6021B
:1023A00010929E028091A7029091A8028093B200A1
:1023B00080917000816080937000089585E10E9493
:1023C0001803BC01990F880B990B0E94EB3127E28F
:1023D00030EA49E85BE30E94A03260930603709301
:1023E000070380930803909309030895E091160171
:1023F000409117012091180130E02C5E3F4F322FA1
:102400002227330FF0E24F9FA00111244E2B242BE3
:10241000352BFC013183208320910A0340910B036B
:102420008091150190E0982F8827990F990F990FA7
:10243000F0E24F9FA0011124842B952B30E03595BD
:102440002795822B932BFB01918380830895CF9353
:10245000DF93EB0120E2FB013C96DC011C9601902E
:102460000D922A95E1F72A813B81FC013383228377
:102470004C815D816E817F81448355836683778340
:10248000488559856A857B85408751876287738730
:10249000DF91CF9108950C960C94E20CFC01848599
:1024A00083FF17C084A195A1A6A1B7A1448D558D26
:1024B000668D778D841B950BA60BB70B811520E8D5
:1024C0009207A105B10520F08FEF9FE7A0E0B0E0F3
:1024D000089580E090E0DC01F1CF90E080E0089585
:1024E0008F929F92AF92BF92DF92EF92FF920F93E3
:1024F0001F93CF93DF93EC017B012881222309F402
:10250000BBC08A8180FFB8C088889988AA88BB88A8
:1025100023FF21C0888D998DAA8DBB8D88199909BB
:10252000AA09BB0982309105A105B10518F50097EC
:1025300009F530E020E0A901481B590BCA01DF91E1
:10254000CF911F910F91FF90EF90DF90BF90AF90D0
:102550009F908F90089525FF0DC0EE81FF818681A9
:10256000978135E0880F991F3A95E1F7881599050D
:1025700009F488C084011170EE81FF81B501A401C6
:1025800089E076956795579547958A95D1F725FF08
:1025900027C0848D958DA68DB78D480F591F6A1F52
:1025A0007B1F8E819F8120E080960E94B00A009759
:1025B00009F462C0800F911FFC018081F7018083C4
:1025C00088899989AA89BB890196A11DB11D888B2B
:1025D000998BAA8BBB8B21E030E090E080E0ABCF01
:1025E000D380D4220115110581F4D1100EC08928A1
:1025F0008A288B2881F526FF29C0848D958DA68D8C
:10260000B78D8C879D87AE87BF87EE81FF814C8514
:102610005D856E857F85425051096109710984810C
:1026200004C0440F551F661F771F8A95D2F7808913
:102630009189A289B389840F951FA61FB71FAC018A
:10264000BD014D0D511D611D711DABCF8C8D9D8D3B
:10265000AE8DBF8DD6CF4C855D856E857F859E0105
:10266000245F3F4FCF010E94710C87FD05C081118F
:10267000CCCF8881807749F48981826089838FEF0C
:102680009FEF5DCF30E020E0A8CF21E030E081E097
:1026900090E051CFEF92FF920F931F93CF93DF9370
:1026A0001F92CDB7DEB77C01962FF7014089518983
:1026B000628973898A019B0185E036952795179574
:1026C00007958A95D1F70F7011F0911129C0BE01BD
:1026D0006F5F7F4FC7010E947012813051F090E010
:1026E00080E00F90DF91CF911F910F91FF90EF90BD
:1026F0000895F70180899189A289B3894F96A11D18
:10270000B11D808B918BA28BB38BF7018681978152
:102710008796F0E20F9F90011124820F931FE1CF63
:10272000405E5F4F6F4F7F4F408B518B628B738B3F
:10273000ECCFCF93DF931F92CDB7DEB7BE016F5FB3
:102740007F4F0E947012019731F4898190E00F90C1
:10275000DF91CF9108958FEF9FEFF9CF0C960C94F6
:1027600099138F929F92AF92BF92CF92DF92EF9286
:10277000FF92CF93DF93EC018C8C9D8CAE8CBF8C41
:10278000C88CD98CEA8CFB8C0C960E94991397FD0F
:1027900008C08C8E9D8EAE8EBF8EC88ED98EEA8E6E
:1027A000FB8EDF91CF91FF90EF90DF90CF90BF90A5
:1027B000AF909F908F9008952F923F924F925F928B
:1027C0006F927F928F929F92AF92BF92CF92DF9241
:1027D000EF92FF920F931F93CF93DF93EC015B0176
:1027E0004A01888183FFC5C08A8181FFC2C082FD02
:1027F000B7C0A40170E060E088899989AA89BB8983
:1028000080959095A095B09584179507A607B70772
:1028100008F4AFC064011E018CE0280E311C088949
:1028200019892A893B89C114D10409F4E1C08E8138
:102830009F81B901A80129E076956795579547953D
:102840002A95D1F7DC011396FC90F4221170F11057
:102850001BC04C855D856E857F850115110509F0CE
:10286000FBC0411551056105710509F488C091014E
:102870000E94710C87FD7DC0811106C0CE010E94AF
:10288000140E882309F475C0EE81FF814C855D85A7
:102890006E857F854250510961097109848104C0A8
:1028A000440F551F661F771F8A95D2F7808991893B
:1028B000A289B389840F951FA61FB71FAC01BD0164
:1028C0004F0D511D611D711D0115110529F4C11414
:1028D000B2E0DB0608F06EC080E092E0801B910B56
:1028E00076018C159D0508F47C010115110571F424
:1028F000488859886A887B88888D998DAA8DBB8D78
:1029000025E0481659066A067B0608F421E0CF0147
:1029100080960E94B00A009761F1A701B501800F6F
:10292000911F0E9499330E0D1F1D0115124039F49D
:102930008E819F8180960E946E0A8823D1F08889BB
:102940009989AA89BB898E0D9F1DA11DB11D888BF8
:10295000998BAA8BBB8BAE0CBF1CCE18DF085FCF48
:10296000488D598D6A8D7B8DCE010E944A0D811153
:1029700040CF8981816089838FEF9FEF54C08C8D18
:102980009D8DAE8DBF8D0097A105B10571F4CE016F
:102990000E94140E882369F38C859D85AE85BF85C2
:1029A0008C8F9D8FAE8FBF8F6FCF8C879D87AE87AB
:1029B000BF876ACF83A194A1A5A1B6A148175907E3
:1029C0006A077B0741F410A28FEF9FEFDC0183A31E
:1029D00094A3A5A3B6A3EE81FF8195018081918187
:1029E0000E94AB09882329F2E12C82E0F82EA7CFC0
:1029F0008A81488D598D6A8D7B8D401751076207FA
:102A0000730738F4088F198F2A8F3B8F80688A8369
:102A100006C020919A0230919B02232BB9F78A813C
:102A200083FD14C0C401DF91CF911F910F91FF90DE
:102A3000EF90DF90CF90BF90AF909F908F907F905E
:102A40006F905F904F903F902F900895CE010E941D
:102A5000E20C8111E7CF8DCFFC0142505109610991
:102A60007109848104C0440F551F661F771F8A9522
:102A7000D2F780899189A289B389480F591F6A1FAB
:102A80007B1F2ACF0C960C94DC13CF93DF931F92FD
:102A9000CDB7DEB7698341E050E0BE016F5F7F4F85
:102AA0000C960E94DC130F90DF91CF910895AF92A6
:102AB000BF92CF92DF92EF92FF920F931F93CF932B
:102AC000DF9300D000D000D01F92CDB7DEB781E0F9
:102AD0008093720388E6809394031092730310929C
:102AE000950390E080E00E942F0680E00E94E803BA
:102AF00040E067E088E60E94D804F82E1092FC02BD
:102B00008093FD02CE0101966C018C015801AC1836
:102B1000BD088091FC02F81641F083E394E00E9426
:102B2000C005F80181938F01F1CF83E394E00E9407
:102B3000340680E0F7E0AF16B10409F059C089818E
:102B4000282F22952F709AE08F70299F800D1124D5
:102B500080930A038A81282F22952F708F70299FD6
:102B6000800D112480930B038B81282F30E044E0EB
:102B7000359527954A95E1F723708F70299F800D31
:102B80001124809315018D81282F22952F708F702D
:102B9000299F800D1124809316018E81282F229564
:102BA0002F708F70299F800D1124809317018F81C2
:102BB000282F22952F708F70299F800D11248093CC
:102BC0001801E0900A0300910B0320911501409138
:102BD000160160911701809118010E94A010609366
:102BE000200370932103809322039093230381E0B9
:102BF00027960FB6F894DEBF0FBECDBFDF91CF9101
:102C00001F910F91FF90EF90DF90CF90BF90AF900A
:102C10000895CF92DF92EF92FF920F931F93CF937D
:102C2000DF9300D000D01F92CDB7DEB741E065E062
:102C300080E40E94D804F82E1092FC028093FD02DA
:102C40008E010F5F1F4F8091FC02F81641F083E365
:102C500094E00E94C005F80181938F01F4CF6A814E
:102C60007B8176276727762790E080E00E94E93114
:102C700020E030E040E856E40E94D63020E030E02A
:102C800048E453E40E94A03220E030E040E058E302
:102C90000E94A03220E030E0A9010E94D73020E05D
:102CA00030E04AE754E40E94A0326B017C0120919D
:102CB000FE023091FF0240910003509101030E94F7
:102CC000D63026E031EC4EED52E40E94483160935C
:102CD0000C0370930D0380930E0390930F036C818C
:102CE0007D8176276727762784E0769567958A9594
:102CF000E1F76851710990E080E00E94E9312DEC24
:102D00003CEC4CE45DE30E94A03220E030E048E47B
:102D100052E40E94D63060938802709389028093B7
:102D20008A0290938B02C0920203D0920303E09236
:102D30000403F09205030F900F900F900F900F90E7
:102D4000DF91CF911F910F91FF90EF90DF90CF9087
:102D500008958F929F92AF92BF92DF92EF92FF926F
:102D60000F931F93CF93DF930115110509F44EC004
:102D7000D8015D96ED90FC90E114F10409F446C091
:102D8000F80149015A01D72E162F682FC78D81E00F
:102D900080937203C093940310927303109295036F
:102DA000D701ED91FC910190F081E02DC7010995CB
:102DB00080E00E94E803682D613208F060E241E0A3
:102DC0008C2F0E94D8041092FC028093FD0290E0A8
:102DD000B0E0A0E088169906AA06BB0629F5012FE7
:102DE000C12FDD2D8C2F801B90E0B0E0A0E0881576
:102DF0009905AA05BB05D8F4D701ED91FC91028491
:102E0000F385E02DC70109958993ECCF83E090E02D
:102E1000DF91CF911F910F91FF90EF90DF90BF90C6
:102E2000AF909F908F90089586E090E0F1CF90E072
:102E300080E0EECFFB0101900020E9F73197AF0170
:102E4000461B570BDC01ED91FC910280F381E02DD4
:102E500009946CEA71E00C941A178F929F92AF92CA
:102E6000BF92EF92FF920F931F93CF93DF93CDB753
:102E7000DEB7A1970FB6F894DEBF0FBECDBF7C01C1
:102E8000FA01CB0119A2223008F42AE08E010F5D6D
:102E90001F4F822E912CB12CA12CBF01A5019401B2
:102EA0000E944A33F901CA016A300CF5605DD8010D
:102EB0006E938D01232B242B252B79F790E080E056
:102EC000109721F0BD01C7010E941A17A1960FB6F5
:102ED000F894DEBF0FBECDBFDF91CF911F910F9150
:102EE000FF90EF90BF90AF909F908F900895695C96
:102EF000DECF242F462F50E070E060E00C942D17B9
:102F0000CF92DF92EF92FF92CF93DF936C01990FF4
:102F1000EE08FF08F7FE1BC06DE283E494E00E9418
:102F20003101EC0144275527BA014C195D096E099E
:102F30007F092AE083E494E00E942D178C0F9D1FE7
:102F4000DF91CF91FF90EF90DF90CF9008952AE02E
:102F5000B701A60183E494E0DF91CF91FF90EF9059
:102F6000DF90CF900C942D178F929F92AF92BF92CB
:102F7000CF92DF92EF92FF920F931F93CF93DF9345
:102F8000EC016A017B01AB019601CB01B6010E9405
:102F90000D336FEA71E0811126C046015701E894B4
:102FA000B7F82FEF3FEF4FE75FE7C501B4010E948D
:102FB0000D3381110CC02FEF3FEF4FE75FE7C501E5
:102FC000B4010E94433163EB71E0181664F02FEFF7
:102FD0003FEF4FE75FE4C701B6010E949B3218162E
:102FE0008CF467EB71E0CE01DF91CF911F910F91CF
:102FF000FF90EF90DF90CF90BF90AF909F908F9019
:103000000C941A172FEF3FEF4FE75FECC701B601A3
:103010000E94433187FDE5CF20E030E0A901C701E0
:10302000B6010E94433110E000E087FF09C06DE265
:10303000CE010E9431018C01F7FAF094F7F8F09478
:103040002AE037ED43EA5BE3C701B6010E94D730BF
:103050006B017C010E94BA314B015C010E94E93195
:103060009B01AC01C701B6010E94D6306B017C0107
:103070002AE0B501A401CE010E942D17080F191FE7
:103080006EE2CE010E943101080F191F20E030E0EE
:1030900040E251E4C701B6010E94A0324B015C013D
:1030A0000E94BA316B01F12CE12C2AE0B701A60194
:1030B000CE010E942D17080F191FC701B6010E94EB
:1030C000E9319B01AC01C501B4010E94D63020E07A
:1030D00030E040E251E40E94A0320E94BA31AB01DC
:1030E00070E060E02AE0CE010E942D17800F911F52
:1030F000DF91CF911F910F91FF90EF90DF90CF90D4
:10310000BF90AF909F908F9008950C941A17FC0178
:10311000808181110FC080E2DF01982F1D929A9566
:10312000E9F777836683DB0115969C91903129F04E
:10313000903211F080E0089580E4808381E0828302
:10314000089585ED8093BC0080916E0390916F038C
:10315000A0917003B09171030796A11DB11D23E0EA
:10316000B695A795979587952A95D1F72091BC009C
:1031700024FD03C010926C03089540916E0350919A
:103180006F036091700370917103452B462B472BA1
:1031900069F30097A105B10541F02AE12A95F1F7FD
:1031A00000C00197A109B109E1CF80916D030C9492
:1031B000C7032F923F924F925F926F927F928F92AE
:1031C0009F92AF92BF92CF92DF92EF92FF920F93B6
:1031D0001F93CF93DF93CDB7DEB729970FB6F8943F
:1031E000DEBF0FBECDBF1C017C836B83FA01DB0108
:1031F0008C918077D1F480E029960FB6F894DEBFE9
:103200000FBECDBFDF91CF911F910F91FF90EF9037
:10321000DF90CF90BF90AF909F908F907F906F90F6
:103220005F904F903F902F900895D1018C91811124
:10323000E2CF618072808081837009F4C4C0C301D1
:103240000C966DE070E00E9422336F5F69832A83E1
:103250008F01EB81FC81F987E88740E050E0BA01FB
:10326000CF010E944A0D812C912CC12CD12CE12C34
:10327000F12C1F825801F6E0AF0EB11CE885F985EC
:1032800080899189A289B3899C01AD0165E0569539
:103290004795379527956A95D1F72B833C834D83C6
:1032A0005E834B805C8061E0CF010E944A13FC0189
:1032B000892B09F08BC0A885B98511968C91811155
:1032C0009ACF8A818274823409F095CFE11024016B
:1032D000E981EE1608F075C160E0888599850E9445
:1032E0004A13892B09F047C1A885B98511968C919D
:1032F000811181CFE885F985808185FD7CCF80892A
:103300009189A289B38981159E4FAF41B10508F01B
:1033100072CF888599850E94140E882309F46BCF9B
:10332000A885B9851696ED91FC9117971C968D90FE
:103330009D90AD90BC901F97B2E08B1A9108A108A8
:10334000B108848104C0880C991CAA1CBB1C8A95F6
:10335000D2F780899189A289B389880E991EAA1E05
:10336000BB1E25E0B501A401CF0180960E94B00AE2
:103370006C01009709F43FCFFC0120E032E011928C
:1033800021503040E1F7FF24F394A885B9851696C3
:103390000D90BC91A02DBC83AB8312968C9112979B
:1033A000F81608F0EAC09601B501A4014F0D511DB1
:1033B000611D711D8D919C910E94AB09882309F4B8
:1033C0001ACFF394E2CFB1E0B98341CF2081253EFB
:1033D00011F021110FC0E11002C08B809C80B981D7
:1033E000EB1608F4E394222309F46BCF253E29F46D
:1033F000F12C44CF3981E31638F12E32C9F33385ED
:103400003F3009F057C0F11021C026FF37CF2F7190
:10341000F22EC584D22E8D2D8150990BAC019DE0EA
:10342000949F9001959F300D11242615370500F7C4
:10343000512CA4E0A51588F0818192816216730653
:10344000A9F4892BA9F61ACFE12CD7CFDA942D1144
:10345000CFCF25852C15F9F2CBCFBAE0B51518F0F2
:1034600084819581EBCF86819781E8CF8F3F91054D
:1034700011F008F0BDCF4FEB480F4A3108F4805EE1
:10348000B9016F5F7F4FD80113964D915C91240F66
:10349000351FD9019C912FEB290F2A3108F4905E3A
:1034A0009813A6CF53943296BDE05B1609F4E6CE8E
:1034B0009B01BFCF33FD9CCFFF2009F44CC021E01E
:1034C000D21299CE9F01255F3F4F90E090FB9795D8
:1034D00097F98191980F2E173F07C1F7C9128BCE2C
:1034E000BA81B7FD88CE80E2F10111928A95E9F7A1
:1034F000A885B9851696ED91FC91D1011796FC939C
:10350000EE93169715965C924E921497A885B985FE
:103510005C964D915D916D917C915F97D10118966C
:103520004D935D936D937C931B974201BFE08B227B
:103530009924DF01979635E0880C991C3A95E1F7BC
:103540009D01280D391DD9011B968C9183FF90C1D7
:10355000F101108250CE4BE050E0B501CF010E9446
:103560008C33892B09F08ACED8018C9180FFB8CF9B
:1035700021E02F8383CEE394ABCE90E0B0E0A0E0D7
:1035800029E0880F991FAA1FBB1F2A95D1F7E8854C
:10359000F9854089518962897389840F951FA61F17
:1035A000B71F808B918BA28BB38BAB81BC811296A2
:1035B0008C91823030F4B0E1EB0EE981EE1608F424
:1035C00099CEFF81FF2309F45BC0D8011596BC900A
:1035D00082E0E82EF12C9EE7A92E6801B6E0CB0E22
:1035E000D11CF801818192819C012E0D3F1D038029
:1035F000F481E02D8E0F9F1F8E179F0779F0A90190
:10360000B5E0440F551FBA95E1F7240F351F4191DE
:10361000042E000C550B24273527EECFF3E0FB15C5
:1036200010F4A3E0BA2E94E09B0D822F8F708A30A5
:1036300008F092C0805DF801E90FF11D8683F4E087
:1036400036952795FA95E1F79150B91670F3F80180
:10365000EB0DF11DA68240E050E0BA018885998506
:103660000E944A0D61E0888599850E944A1300975F
:1036700009F074C0A885B98511968C918111BBCDD4
:10368000A20170E060E0E5E0440F551F661F771F60
:10369000EA95D1F7888599850E944A0D882309F417
:1036A000AACDF980FA94EF2C5FE0B52E680131E1E4
:1036B000C30ED11C6DE0A62EEE2009F47CC060E0A4
:1036C000888599850E944A13FC01892B09F493CDC2
:1036D000A885B98516962D913C91D90190968C912B
:1036E0009097816090968C938E2DEF1001C080642E
:1036F0008083B3861486D801169690E090FB979548
:1037000097F92D91920FCA16DB06C1F79587138E94
:10371000128ED80113962D913C918F718150990B87
:10372000A89EA001A99E500D112480E046155705C2
:1037300078F5D901A40FB51F6C91062E000C770BFC
:10374000853088F5728361838F5F4F5F5F4F32965C
:103750008D3061F7EA94B0CF895C6DCFFC01208198
:10376000222309F48DCF238523FD7CCF4BE050E04D
:10377000BC01C6010E948C33892B09F073CFFFEF87
:10378000EF1AFF0A24E6E216F10409F02ACF33CD3E
:1037900061E070E06416750611F470E060E0719508
:1037A00061957109CDCF8B3018F475836483CCCFCC
:1037B00077836683C9CFE885F98580889188A28858
:1037C000B38860E0CF010E944A136C01892B09F491
:1037D00012CD80E2D6011D928A95E9F7F80136965E
:1037E0008BE0D60101900D928A95E1F7F801808176
:1037F0008871D6011C968C93E0919A02F0919B02FD
:10380000309761F1B601625F7F4FC601409609951E
:1038100045E0B694A794979487944A95D1F72401EC
:10382000D60150968D919C91519753969C938E936F
:10383000529759969C938E9358971E968D919C9172
:103840001F9757969C938E935697A885B985169681
:10385000ED91FC9180A1816080A345CE81E298E248
:10386000F601918B808B80E098E097878687D0CF98
:10387000AF01480D591DDA01D2968C918771D101A3
:103880008C93D9011B969C91987119F48860D10191
:103890008C93D1011396FC9213978A81827321F045
:1038A0008C91817109F054CE8A818F70D10112966A
:1038B0008C93129743A154A165A176A154964D9380
:1038C0005D936D937C9357978E0E9F1EF40183AD8D
:1038D00094ADB0E0A0E0DC0199278827EF5BFF4FB3
:1038E0004081518170E060E0842B952BA62BB72B93
:1038F000F101848F958FA68FB78FF3E48F0E911C03
:10390000D4014D915D916D917C91F101408F518F6A
:10391000628F738FFA81F5FD02C081E06DCCC10129
:103920000E944A0D882309F413CEF7CF2F923F92BD
:103930004F925F926F927F928F929F92AF92BF92BF
:10394000CF92DF92EF92FF920F931F93CF93DF936B
:10395000CDB7DEB7E8970FB6F894DEBF0FBECDBF88
:103960007C018B014BAB19821A82DC018C9188237C
:10397000D1F080E0E8960FB6F894DEBF0FBECDBF61
:10398000DF91CF911F910F91FF90EF90DF90CF903B
:10399000BF90AF909F908F907F906F905F904F906F
:1039A0003F902F90089580919606807711F3FB0148
:1039B000808166E976E08F32B9F48F0181918F3290
:1039C000E1F360919C0670919D06811104C0C701CE
:1039D0000E948718CFCFCE0101960E948718BE01A2
:1039E0006F5F7F4F882329F29E012E5C3F4F38AFD7
:1039F0002FABF8019F012F5F3F4F8081803209F488
:103A000095C0FDA3ECA39F01A9014E1B5F0B89018B
:103A1000D9018D919D01882371F08F3209F088C002
:103A2000CF01840F951F8C01DC012D91CD01203237
:103A3000D1F32F32C1F3DA01AE0FBF1FAD014E1B20
:103A40005F0BEA17FB0709F48DC08E918E32B1F33C
:103A50008032A1F34F3F510511F00CF08ACF5BA3E8
:103A60004AA3DE0197966D0180E28D93AFA8B8ACB2
:103A7000AA16BB06D1F7DF01CD018E1B9F0B2D913E
:103A80002E32D1F32032C1F377247394009709F0DA
:103A9000712C9A01215031095F01A40EB51E2F3FF0
:103AA000320709F062C08EA0512CB7E0BAAB312CBE
:103AB000612CA8E04A2E841795070CF094C0DF0112
:103AC000A80FB91FAC90AEAAAA2DA03209F489C0E4
:103AD000AE3221F48217930709F083C09EA8B92D56
:103AE000B232A1F0BC3791F0A92DAA52A63010F441
:103AF000BD3261F4AEA9AA53A63040F0AEA9AB55D1
:103B0000A33020F0AEA9A152AE35C8F182179307B9
:103B100009F0ADC08AA98A3009F4B4C0C901BAE07D
:103B2000BAABA8E03A2EB0E14B2E47C0F90162CF04
:103B30008C3509F41ECF982F977F923209F419CF54
:103B40008A3309F416CF982F9F7B9C3309F411CF49
:103B500092EC980F923008F40CCF80528F3508F415
:103B600053CF07CF50E040E07ACFD5019E905D0162
:103B7000BEE29B1609F497CF2150310990CF8217EE
:103B8000930741F2AAA8A31408F475C0AEA9A156E0
:103B9000AA31D0F4AEA9A052AEAB5428222423946B
:103BA000230C5601A30CB11CD501AEA8AC92A6E023
:103BB000BA2E322CB21408F0822C01967CCF712CD4
:103BC000BFE5BEABBFE59B2EAFEBA90DAA3130F729
:103BD0006428E4CFC901AAE0AAABA8E03A2EB0E17C
:103BE0004B2E712CEACF8EA28FA1803209F4C1CE68
:103BF000772019F1852D862111F082E0582E59A2E7
:103C0000F8018081882359F121E0AE014F5D5F4FBB
:103C1000C7010E94D918882309F4ABCE80E2F701CE
:103C2000DE01119601900D928A95E1F7C7010E947D
:103C30000B0EBE016F5F7F4FDCCE81E089A3912C1C
:103C4000F601E80DF91D8EE78083E8E2F0E0EC0F65
:103C5000FD1F8E0E9F1E81E3D4018C93D1CF2BA923
:103C6000AE014F5D5F4FC7010E94D91883CEAAA94C
:103C7000A31508F0A4CFBAA9BA3021F02817390744
:103C80000CF0A8CF8EA2712CAFCF8F929F92AF92E3
:103C9000BF92EF92FF920F931F93CF93DF93CDB715
:103CA000DEB76A970FB6F894DEBF0FBECDBF809126
:103CB00086029091870201969093870280938602F4
:103CC00060E081EC96E00E9437067C0107E110E09D
:103CD00020E030E0AE014F5F5F4F6DE281EC96E097
:103CE0000E945006E82AF92A89819A819827892713
:103CF00098279093C4068093C3068B819C81982754
:103D0000892798279093C6068093C5068D819E814A
:103D10009827892798279093C8068093C7068F8194
:103D200098859827892798279093CA068093C90673
:103D300089859A859827892798279093CC06809320
:103D4000CB068B859C859827892798279093CE064C
:103D50008093CD068D859E859827892798279093F7
:103D6000D6068093D5068F858093D8068889998951
:103D70009093D0068093CF068A899B899093D20630
:103D80008093D1068C899D899093D4068093D30625
:103D90008F898093D90662E081EC96E00E94370615
:103DA000E82AF92A01E010E020E030E0AE01465EAA
:103DB0005F4F64E181EC96E00E945006E82AF92A00
:103DC0008A8D8695982F93708091D7068C7F892B4A
:103DD0008093D70662E081EC96E00E943706E82ADD
:103DE000F92A01E010E020E030E0AE01475E5F4FCD
:103DF00061E081EC96E00E945006E82AF92A898D5C
:103E0000880F982F9C708091D706837F892B809391
:103E1000D70601E010E020E030E0AE01485E5F4FE1
:103E200065E181EC96E00E9450068E299F299093CF
:103E3000DB068093DA068091C3069091C4060E9447
:103E4000D100AB01BC0183E494E00E94B4176BEB9A
:103E500071E083E494E00E9485188091C5069091FA
:103E6000C6060E94D100AB01BC0183E494E00E942D
:103E7000B4176BEB71E083E494E00E9485188091A5
:103E8000C7069091C8060E94D100AB01BC0183E433
:103E900094E00E94B4176BEB71E083E494E00E941D
:103EA00085186091CF067091D006072E000C880B04
:103EB000990B0E94EB312AE939E949E15EE30E945E
:103EC000A032AB01BC0183E494E00E94B4176BEB19
:103ED00071E083E494E00E9485186091D1067091AE
:103EE000D206072E000C880B990B0E94EB312AE9B1
:103EF00039E949E15EE30E94A032AB01BC0183E4F1
:103F000094E00E94B4176BEB71E083E494E00E94AC
:103F100085186091D3067091D406072E000C880B8B
:103F2000990B0E94EB312AE939E949E15EE30E94ED
:103F3000A032AB01BC0183E494E00E94B4176BEBA8
:103F400071E083E494E00E9485188091C906909105
:103F5000CA060E949200AB01BC0183E494E00E9477
:103F6000B4176BEB71E083E494E00E9485188091B4
:103F7000CB069091CC060E949200AB01BC0183E479
:103F800094E00E94B4176BEB71E083E494E00E942C
:103F900085188091CD069091CE060E949200AB01CB
:103FA000BC0183E494E00E94B41700918602109152
:103FB0008702E0904104F0904204B801012E000C09
:103FC000880B990B0E94EB314B015C01B7010F2C60
:103FD000000C880B990B0E94EB3120E030E040E0B0
:103FE0005FE30E94A0329B01AC01C501B4010E94B5
:103FF0009B3287FD1BC180918502882309F416C17D
:104000001092850280911103811118C10E946011E4
:104010000E151F050CF4F5C00E94091681E080936F
:1040200085028091360190913701892B21F061E062
:1040300084E00E9497020E9457150E94DE116CE2F4
:1040400083E494E00E943101609118014AE050E05D
:1040500083E494E00E9479176DE283E494E00E9487
:104060003101809117018A3028F460E383E494E001
:104070000E943101609117014AE050E083E494E02E
:104080000E9479176DE283E494E00E9431018091EF
:1040900016018A3028F460E383E494E00E94310141
:1040A000609116014AE050E083E494E00E947917A1
:1040B00064E583E494E00E943101809115018A3027
:1040C00028F460E383E494E00E94310160911501DB
:1040D0004AE050E083E494E00E9479176AE383E4C5
:1040E00094E00E94310180910B038A3028F460E350
:1040F00083E494E00E94310160910B034AE050E0B8
:1041000083E494E00E9479176AE383E494E00E94D8
:10411000310180910A038A3028F460E383E494E05B
:104120000E94310160910A034AE050E083E494E088
:104130000E9479176BEB71E083E494E00E9485188C
:1041400040910203509103036091040370910503B1
:1041500083E494E00E94B4176CE283E494E00E944C
:10416000310140910C0350910D0360910E03709149
:104170000F0383E494E00E94B4176CE283E494E0BC
:104180000E943101409188025091890260918A0217
:1041900070918B0283E494E00E94B4176CE283E494
:1041A00094E00E9431014091060350910703609111
:1041B00008037091090383E494E00E94B4176CE251
:1041C00083E494E00E94310180918D0290E00E948E
:1041D00080176CE283E494E00E94310180918C02AC
:1041E00090E00E9480170E94CD0E109287021092DC
:1041F0008602109284021092830260E084E00E94A2
:10420000970283E494E00E9429176A960FB6F89407
:10421000DEBF0FBECDBFDF91CF911F910F91FF90F9
:10422000EF90BF90AF909F908F9008950E151F054F
:1042300044F3809111038111F1CEEECE0E151F05CE
:104240000CF0ECCEDECF8F929F92AF92BF92CF92C6
:10425000DF92EF92FF920F931F93CF93DF93CDB72F
:10426000DEB7C856D1090FB6F894DEBF0FBECDBF7A
:1042700050910A0340910B033091150120911601D2
:1042800090911701809118011F925F931F924F9395
:104290001F923F931F922F931F929F931F928F9372
:1042A0008DEB91E09F938F938E010F5F1F4F1F93B4
:1042B0000F930E94A2332A961FAE2A972B961FAE09
:1042C0002B9721961FAE1EAE219788EE93E0A0E0BB
:1042D000B0E025968CAF9DAFAEAFBFAF259788E914
:1042E00091E09EAF8DAF8DE3E82EF12CEC0EFD1E1C
:1042F0008CE0E80EF11C46E4B801C7010E94961C50
:10430000BE01635C7F4F83E494E00E9427120FB6E6
:10431000F894DEBF0FBECDBF98EE892E93E0992EA4
:10432000A12CB12C28E9C22E21E0D22E80914F047D
:10433000811132C061E081E10E9497028091810287
:1043400090918202019690938202809381022A9634
:104350001FAE2A972B961FAE2B9721961FAE1EAE2F
:10436000219725968CAE9DAEAEAEBFAE2597DEAE44
:10437000CDAE42ECB801C7010E94961CBE01635C41
:104380007F4F83E494E00E94271264E670E080E0AF
:1043900090E00E944F03CACF60E081E10E94970243
:1043A0006BED71E083E494E00E94851883E494E06F
:1043B0000E94291786EF91E190939B0280939A02C5
:1043C000C859DF4F0FB6F894DEBF0FBECDBFDF91E7
:1043D000CF911F910F91FF90EF90DF90CF90BF9002
:1043E000AF909F908F9008951F920F920FB60F92EB
:1043F00011242F933F934F935F936F937F938F93EA
:104400009F93AF93BF93EF93FF9386E993E00E944E
:10441000B601FF91EF91BF91AF919F918F917F91E5
:104420006F915F914F913F912F910F900FBE0F9021
:104430001F9018951F920F920FB60F9211242F9371
:104440008F939F93EF93FF93E091A603F091A703BF
:104450008081E091AC03F091AD0382FD1BC090819F
:104460008091AF038F5F8F732091B003821741F06B
:10447000E091AF03F0E0EA56FC4F958F8093AF03D5
:10448000FF91EF919F918F912F910F900FBE0F9001
:104490001F9018958081F4CF1F920F920FB60F9244
:1044A00011242F933F938F939F93AF93BF9380914A
:1044B000EE029091EF02A091F002B091F1023091E2
:1044C000ED0226E0230F2D3758F50296A11DB11DF0
:1044D0002093ED028093EE029093EF02A093F002FE
:1044E000B093F1028091F2029091F302A091F40254
:1044F000B091F5020196A11DB11D8093F202909337
:10450000F302A093F402B093F502BF91AF919F9193
:104510008F913F912F910F900FBE0F901F90189584
:1045200029E8230F0396A11DB11DD2CF1F920F9230
:104530000FB60F9211242F933F934F935F936F9376
:104540007F938F939F93AF93BF93EF93FF93E091EC
:104550002701F09128010995FF91EF91BF91AF914B
:104560009F918F917F916F915F914F913F912F918B
:104570000F900FBE0F901F9018951F920F920FB6BD
:104580000F9211242F933F934F935F936F937F93D9
:104590008F939F93AF93BF93EF93FF93E091250188
:1045A000F09126010995FF91EF91BF91AF919F91F5
:1045B0008F917F916F915F914F913F912F910F90CC
:1045C0000FBE0F901F9018951F920F920FB60F926B
:1045D00011242F933F934F935F936F937F938F9308
:1045E0009F93AF93BF93EF93FF938091B900887F20
:1045F000803609F44AC0F0F5883209F4A7C018F5EE
:10460000803109F49BC0B8F4882309F4F9C08830DC
:1046100009F494C0FF91EF91BF91AF919F918F9159
:104620007F916F915F914F913F912F910F900FBEAE
:104630000F901F901895883109F488C0803251F787
:1046400080936A0314C0803409F49DC040F4803321
:10465000B9F38833F9F680936A0385ECB0C08035EE
:1046600009F485C0883509F496C0883499F60E940B
:10467000A118D0CF883909F48CC038F5883729F0D3
:1046800050F4883611F0803729F683E080936C036C
:104690001092EC0257C0883809F47BC0803919F0B9
:1046A000803809F0B7CF8091EC02803208F071C0F9
:1046B000E091EC0281E08E0F8093EC028091BB00D0
:1046C000F0E0E453FD4F80833DC0803B39F0E0F4DF
:1046D000803A09F479C0883A09F09CCF84E080934D
:1046E0006C031092CB021092CA02E091F802F09192
:1046F000F90209958091CA0281110FC081E080936F
:10470000CA021092AA0209C0803C09F4A6CF883CD4
:1047100009F4A3CF883B09F07DCFE091CB0281E083
:104720008E0F8093CB02F0E0E655FD4F80818093A1
:10473000BB009091CB028091CA0229C080914703AF
:104740008093BB0085EC8093BC0064CF909169039B
:1047500080916803981758F5E091690381E08E0F06
:1047600080936903F0E0E85BFC4F8081E9CFE09142
:10477000690381E08E0F809369038091BB00F0E0B4
:10478000E85BFC4F808390916903809168039817E0
:10479000C8F285E8D8CFE091690381E08E0F80935D
:1047A00069038091BB00F0E0E85BFC4F808380915F
:1047B0006B0381115CCF81E08093460384EA809390
:1047C000BC0010926C0326CF85EC8093BC00109245
:1047D0006C038091EC02803230F4E091EC02F0E066
:1047E000E453FD4F10826091EC0270E0E091F6021C
:1047F000F091F7028CEC92E009951092EC020ACF4E
:1048000010926A0334CF1F920F920FB60F921124A9
:104810002F933F934F935F936F937F938F939F93C8
:10482000AF93BF93EF93FF9378948091A7029091F9
:10483000A8028093B2008091A3029091A402A0915B
:10484000A502B091A6020196A11DB11D8093A302FD
:104850009093A402A093A502B093A6024091A30254
:104860005091A4026091A5027091A60280919F02CE
:104870009091A002A091A102B091A20248175907FD
:104880006A077B07B0F080919E02811112C081E01F
:1048900080939E021092A3021092A4021092A5028D
:1048A0001092A602E0919C02F0919D02099510924F
:1048B0009E02FF91EF91BF91AF919F918F917F9158
:1048C0006F915F914F913F912F910F900FBE0F907D
:1048D0001F9018951F920F920FB60F9211240F90F0
:1048E0000FBE0F901F901895CF92DF92EF92FF921C
:1048F0000F931F93CF93DF931F92CDB7DEB76C0159
:10490000613051F562E00E9437067C0101E010E061
:1049100020E030E0AE014F5F5F4F64E1C6010E94CE
:104920005006E82AF92A89818E7F8983AE014F5F7C
:104930005F4F64E1C6010E940E018E299F29F60196
:10494000928F818F0F90DF91CF911F910F91FF90E8
:10495000EF90DF90CF90089562E00E9437067C01CF
:1049600001E010E020E030E0AE014F5F5F4F61E01A
:10497000C6010E945006E82AF92A89818E7F898320
:10498000AE014F5F5F4F61E0D5CF4F925F926F9264
:104990007F92BF92CF92DF92EF92FF920F931F937D
:1049A000CF93DF9300D000D0CDB7DEB77C016C830E
:1049B0006A01B22E80E0211180E88C608B8363E075
:1049C000C7010E943706AE014D5F5F4F63E1C7012B
:1049D0000E940E01009721F563E0C7010E9437068F
:1049E000AE014C5F5F4F64E1C7010E940E0100976A
:1049F000B9F48A818068807A8F7D8A83BB2011F127
:104A000063E0C7010E943706AE014E5F5F4F65E16C
:104A1000C7010E940E01412C512C32010097F1F088
:104A20000F900F900F900F90DF91CF911F910F91EA
:104A3000FF90EF90DF90CF90BF907F906F905F904E
:104A40004F90089563E0C7010E943706A60166E112
:104A5000C7010E940E01009799F2E2CF60E0C70102
:104A60000E94370601E010E020E030E0AE014F5F29
:104A70005F4F67E1C7010E945006298126FB33275B
:104A800030F941E058EE451653E0550661047104D3
:104A900008F440E0342B4FEF441A540A640A740AB5
:104AA0003323E1F22295217031E058EE451653E0B0
:104AB00055066104710408F430E0232B89F4BB200F
:104AC00009F4AECF63E0C7010E94370601E010E0B1
:104AD00020E030E0A60167E1C7010E945006A0CFA8
:104AE00081E090E09DCFEF92FF920F931F93CF93C1
:104AF000DF931F92CDB7DEB77C0101E010E020E02C
:104B000030E0AE014F5F5F4F6FE00E9450060097AC
:104B100051F489818D7F8983AE014F5F5F4F6FE0D4
:104B2000C7010E940E010F90DF91CF911F910F914D
:104B3000FF90EF900895E6E9F3E01382128288EE89
:104B400093E0A0E0B0E084839583A683B78324E755
:104B500031E03183208325EC30E03587248724EC55
:104B600030E03787268720EC30E0318B208B21EC3A
:104B700030E0338B228B22EC30E0358B248B26EC1B
:104B800030E0378B268B118E128E138E148EE3E35A
:104B9000F4E01382128284839583A683B78326E888
:104BA00031E031832083209161002AEA31E03093A3
:104BB000C0062093BF0610927404109296061092BD
:104BC000970624E62093B6061092BB0620E52093B4
:104BD000BC0621E02093BD06E3E4F4E014861586CC
:104BE0001382128284839583A683B78388E991E038
:104BF0009183808320913A0130913B01609138018B
:104C000070913901C9010E94363370934204609358
:104C1000410488EE93E0B9010E943633709340045A
:104C200060933F040895CF93DF93CDB7DEB7CC599F
:104C3000D1090FB6F894DEBF0FBECDBF789484B50E
:104C4000826084BD84B5816084BD85B5826085BD88
:104C500085B5816085BD80916E00816080936E0016
:104C60001092810080918100826080938100809108
:104C700081008160809381008091800081608093B9
:104C800080008091B10084608093B1008091B00079
:104C900081608093B00080917A00846080937A0074
:104CA00080917A00826080937A0080917A008E7F72
:104CB00080937A0080917A00806880937A001092C5
:104CC000C100E091A603F091A70312E01083E091E8
:104CD000A203F091A3031082E091A403F091A50335
:104CE00088E080831092AE03E091AA03F091AB03B9
:104CF00086E08083E091A803F091A9038081806120
:104D00008083E091A803F091A9038081886080836B
:104D1000E091A803F091A903808180688083E091ED
:104D2000A803F091A90380818F7D808361E084E0F6
:104D30000E94DC0261E081E10E94DC0261E088E027
:104D40000E94DC0262E080E10E94DC0260E083E01D
:104D50000E94DC0260E085E10E94DC0262E087E004
:104D60000E94DC0261E08FE00E94DC0261E089E0E9
:104D70000E94DC0260E08EE00E94DC0260E084E1E0
:104D80000E94DC0261E086E00E94DC0261E085E0D6
:104D90000E94DC0260E08FE00E94970260E089E000
:104DA0000E94970261E086E00E94970261E085E040
:104DB0000E94970260E081E10E94970261E084E036
:104DC0000E94970261E088E00E9497021092FC0224
:104DD0001092FD0210927303109295030E94A90392
:104DE0008FE291E09093F9028093F80280E391E0E2
:104DF0009093F7028093F6021093B8004CEBC42E08
:104E000046E0D42E0AE010E25FE6252E54E0352E6F
:104E100060E4762E73E0672EE3E45E2EF5E24F2E1B
:104E20001092B9061092B6061092BB06D092B80640
:104E3000C092B7060E9446097C01A090B706B090C8
:104E4000B806D50112960C9361E08AE00E94DC025C
:104E500061E0F50182810E949702BFB6F8948091CB
:104E6000FA02811127C0E4ECF0E08491E0EBF0E07D
:104E70009491E82FF0E0EE0FFF1FE456FF4FA5914D
:104E8000B4918C91982321F461E08AE00E9497020A
:104E900061E08AE00E94DC028CB580618CBD8CB53B
:104EA00080648CBD61E08DE00E94DC0261E08BE0FB
:104EB0000E94DC028091FA028F5F8093FA02BFBEEB
:104EC000E091B706F091B80622E5208381E0818366
:104ED0008091B906811104C086EB96E00E94110909
:104EE000E091B706F091B80661E082810E949702D6
:104EF0002AE0B22E8FEF0E942509BA94B110FACFA2
:104F0000E091B706F091B80660E082810E949702B6
:104F100020E030E0A90160E086EB96E00E9468099D
:104F20008130E1F00E9446098E199F09813D97402A
:104F300078F31093B60686EB96E00E94310961E0A3
:104F400081E10E94970260E084E00E94970268EE8F
:104F500073E080E090E00E944F0362CF2AEA31E0E4
:104F600040E050E068E086EB96E00E9468098530FA
:104F700051F581E08093BB068091BB06812C912C7A
:104F80005401823029F4812C912CA12C80E4B82E7C
:104F900020E030E0A90167E386EB96E00E94680913
:104FA000A501940169E286EB96E00E9468098823D6
:104FB00011F10E9446098E199F09813D974040F3E7
:104FC0005092B606B8CF94E0B92E0E942A09809379
:104FD000BA06BA94B110F9CF8A3A11F482E0CACF76
:104FE0000E9446098E199F09813D974008F4B6CF6B
:104FF0004092B606A0CF8091BB068230D9F420E063
:1050000030E0A9016AE386EB96E00E9468098823F4
:1050100021F087E38093B6068ECF0E942A09807C18
:10502000803C11F46092BB060E942A090E942A0962
:105030000E942A0986EB96E00E943109E091B706AA
:10504000F091B80670E5708381E0818386EB96E08D
:105050009093700480936F0486E996E00E940B0E93
:1050600081E00E94EF0A8823C9F0809196068111A1
:1050700066CFE6E9F6E0DF01212F1D922A95E9F7D8
:1050800030929D0620929C0680917404803161F0DC
:10509000803209F054CF7092960608C080E00E94DA
:1050A000EF0A8111E2CF4BCF1093960681E08093F7
:1050B000980680919606807709F441CF19AE1AAE12
:1050C00018AA1FA648EE53E060E070E049AB5AAB67
:1050D0006BAB7CAB88E991E09EA78DA71D861E86F1
:1050E0001C821B824D835E836F8378879A838983BA
:1050F00041E061E372E0CE010D960E94961CBE0174
:105100006F5F7F4FCE018D960E94271289AD81116E
:10511000BDC020913A0130913B01609138017091FE
:105120003901C9010E9436337093420460934104EF
:1051300088EE93E0B9010E94363370934004609387
:105140003F0460ED77E080E090E00E944F030E9412
:10515000DE1140910603509107036091080370919E
:10516000090386E993E00E94B41760E572E086E9DE
:1051700093E00E941A1786E993E00E9429170E9483
:10518000571562E572E086E993E00E948518409128
:1051900020035091210360912203709123032AE0A0
:1051A00086E993E00E942D1786E993E00E94291773
:1051B00063E572E086E993E00E948518609115012D
:1051C0004AE050E086E993E00E9479176AE672E0CF
:1051D00086E993E00E94851860910B034AE050E055
:1051E00086E993E00E9479176AE672E086E993E027
:1051F0000E94851860910A034AE050E086E993E036
:105200000E94791786E993E00E94291786E993E0C6
:105210000E94250268E873E180E090E00E944F035D
:1052200081E08093720380E480939403109273036F
:105230001092950390E080E00E942F0683E394E0B3
:105240000E94340662E070E080E090E00E944F032C
:1052500041E062E080E40E94D804F82E1092FC0243
:105260008093FD0262E070E080E090E00E944F03D6
:1052700010E000E08091FC02F81609F422C483E3F8
:1052800094E00E94C0050F5F1F4FF4CFCF56DF4F51
:1052900019821882C159D0401E0149E5240E311CE3
:1052A0006E0157E7C50ED11C510163E0A60EB11C7B
:1052B0004E017BE7870E911CCE0183589F4FC95743
:1052C000DF4F99838883C758D040DE01A158BF4F74
:1052D000C757DF4FB983A883C958D040FE01EB57A9
:1052E000FF4FC557DF4FF983E883CB58D040AE015D
:1052F0004D575F4FC357DF4F59834883CD58D04038
:10530000BE016F577F4FC157DF4F79836883CF58F6
:10531000D040D1011C9210E000E0CE01C9960E945D
:10532000991398018D3021F12F5F3F4FF101E00F6C
:10533000F11F8083843509F52D968CAD9DADAEAD02
:10534000BFAD2D97AC01BD014150510961097109F3
:10535000CD56DF4F488359836A837B83C359D0403E
:1053600061E070E0CF56DF4F79836883C159D04048
:105370002E3131053CF48901D0CF2E31310510F4A6
:105380008A30C9F721503109F101E20FF31F108271
:10539000D1018C918F3241F12230310528F1F10198
:1053A00001900020E9F73197E219F3093297E0F014
:1053B000F101808191818834FCE49F0709F47DC369
:1053C0000CF0A5C08D3444E4940709F44DC30CF0EF
:1053D00061C0823561E4960709F4F4C20CF04DC057
:1053E0008035914409F4D4C2CE018D960E944E12AC
:1053F000892B09F08ECFCE01C9960E940B0ECF5695
:10540000DF4F48815981C159D040452B09F481CEE5
:105410001D861E861C821B8288EE93E0A0E0B0E011
:105420008D839E83AF83B88788E991E09A838983CF
:1054300043E661E372E0CE010D960E94961CBE0128
:105440006F5F7F4FCE018D960E942712CD56DF4FA2
:10545000488159816A817B81C359D040CE01C99668
:105460000E944A0D6DE472E0CE018D960E9485186F
:10547000CE01C9960E940B0E4CCE8434980709F4D5
:105480001BC28C34944409F0AFCF109237011092B4
:105490003601AACF8335F4E49F0709F4C7C2E4F4C8
:1054A0008235944409F0A0CFDF92CF928AE492E053
:1054B0009F938F93BF92AF920E94C533F601808174
:1054C0009181A281B3818093320190933301A093A3
:1054D0003401B093350154C0803559E4950709F47F
:1054E0002BC28235994409F07FCFDF92CF928AE4B4
:1054F00092E09F938F93BF92AF920E94C533D601E3
:105500008D919C91909313038093120339C084343E
:1055100070E5970709F48EC2D4F58235BDE49B0788
:1055200009F4BCC2B4F480359D4409F05DCFDF922C
:10553000CF928AE492E09F938F93BF92AF920E94A2
:10554000C533D6018D919C91909302018093010106
:1055500017C084352DE4920709F4ADC0833490451B
:1055600009F042CFDF92CF928AE492E09F938F932B
:10557000BF92AF920E94C533D6018C9180933101C6
:105580000F900F900F900F900F900F902DCF8035B0
:1055900053E5950709F4BEC1DCF4803572E5970741
:1055A00009F42AC28934934509F01ECFDF92CF92C5
:1055B0008AE492E09F938F93BF92AF920E94C5338B
:1055C000F6018081918190933B0180933A01D8CF7D
:1055D0008035B4E59B0709F4C1C18335944509F0D2
:1055E00003CF9F928F92C857DF4FB881C858D040E1
:1055F000BF93C957DF4FE881C758D040EF93C657D4
:10560000DF4FF881CA58D040FF93C757DF4F28813A
:10561000C958D0402F93C457DF4F4881CC58D04051
:105620004F93C557DF4F5881CB58D0405F93C25737
:10563000DF4F6881CE58D0406F93C357DF4F7881DA
:10564000CD58D0407F93C057DF4F8881C059D0409C
:105650008F93C157DF4F9881CF58D0409F938BE3F2
:1056600092E09F938F93BF92AF920E94C533D40173
:10567000EC90EE960FADEE97C158DF4F2881CF57D3
:10568000D040CB57DF4F4881C558D040CD57DF4F72
:105690006881C358D040CF57DF4F8881C158D04070
:1056A0000E94A010609318037093190380931A034B
:1056B00090931B03FBC09F928F92C857DF4FF881D6
:1056C000C858D040FF93C957DF4F2881C758D040F2
:1056D0002F93C657DF4F4881CA58D0404F93C757C2
:1056E000DF4F5881C958D0405F93C457DF4F68815E
:1056F000CC58D0406F93C557DF4F7881CB58D040FE
:105700007F93C257DF4F8881CE58D0408F93C357C5
:10571000DF4F9881CD58D0409F93C057DF4FA8816D
:10572000C059D040AF93C157DF4FB881CF58D04058
:10573000BF938BE392E09F938F93BF92AF920E94AF
:10574000C533CF57DF4FE881F981C158D040C956E2
:10575000DF4FF983E883C759D040CD57DF4F4881E9
:105760005981C358D040C756DF4F59834883C95920
:10577000D040CB57DF4F48805980C558D040D40126
:105780000D911C91EF96EEADFFADEF97C556DF4F33
:10579000F983E883CB59D040C158DF4F68807980C6
:1057A000CF57D04081E08093720388E680939403C2
:1057B000109273031092950390E080E00E942F06F0
:1057C0003AE0E32EF12CC801B7010E94363344E0E1
:1057D000660F771F4A95E1F78F709927862B972BD5
:1057E0000E942F06C556DF4F88819981CB59D04042
:1057F000B7010E94363354E0660F771F5A95E1F7E0
:105800008F709927862B972B0E942F06C301B70113
:105810000E943633E4E0660F771FEA95E1F7607384
:1058200077278F709927862B972B0E942F0681E070
:1058300090E00E942F06C201B7010E943633F4E0C7
:10584000660F771FFA95E1F78F709927862B972BB4
:105850000E942F06C756DF4F88819981C959D040D1
:10586000B7010E943633A4E0660F771FAA95E1F7CF
:105870008F709927862B972B0E942F06C956DF4FD2
:1058800088819981C759D040B7010E943633B4E06E
:10589000660F771FBA95E1F78F709927862B972BA4
:1058A0000E942F0683E394E00E9434060FB6F8941A
:1058B000DEBF0FBECDBF98CDDF92CF928AE492E0DB
:1058C0009F938F93BF92AF920E94C533D6012D91C3
:1058D0003D914D915C9160E871E581E090E00E941E
:1058E00012332B013C010E945715809120039091A7
:1058F0002103A0912203B0912303840D951DA61DC1
:10590000B71D8093180390931903A0931A03B093C3
:105910001B0336CEDF92CF928AE492E09F938F935F
:10592000BF92AF920E94C533D6018D919C91909306
:1059300039018093380124CEDF92CF928AE492E03D
:105940009F938F93BF92AF920E94C533F6018081DF
:105950009181909314018093130112CEDF92CF9224
:105960008AE492E09F938F93BF92AF920E94C533D7
:10597000D6016D917D918D919C910E94EB31609348
:105980000F01709310018093110190931201F8CDD3
:10599000DF92CF928AE492E09F938F93BF92AF926F
:1059A0000E94C533F60160817181828193810E94DA
:1059B000EB3160930B0170930C0180930D01909378
:1059C0000E01DECDDF92CF928AE492E09F938F9317
:1059D000BF92AF920E94C533D6016D917D918D919A
:1059E0009C910E94EB3160930701709308018093B2
:1059F000090190930A01C4CDDF92CF928AE492E02C
:105A00009F938F93BF92AF920E94C533F60160813E
:105A10007181828193810E94EB31609303017093C5
:105A200004018093050190930601AACD81E0809343
:105A30001103DACCDF92CF928AE492E09F938F93A6
:105A4000BF92AF920E94C533F6016081718182815D
:105A500093810E94EB3160932D0170932E0180930E
:105A60002F01909330018CCDDF92CF928AE492E0A7
:105A70009F938F93BF92AF920E94C533D6016D91D1
:105A80007D918D919C910E94EB31609329017093DF
:105A90002A0180932B0190932C0172CDDF92CF923B
:105AA0008AE492E09F938F93BF92AF920E94C53396
:105AB000F60180818093000163CD81E08093FB0239
:105AC00093CC012B09F447C00E94601164E170E09F
:105AD00080E090E00E944F030E940916C12CD12C57
