:1000000000800020BD010000693B0000213B000092
:10001000213B0000213B0000213B0000213B000070
:10002000213B0000213B0000213B0000693B000018
:10003000693B0000213B0000455500004955000088
:10004000693B0000693B0000693B0000693B000020
:10005000693B0000693B0000693B0000693B000010
:10006000693B0000693B0000693B0000693B000000
:10007000693B0000693B0000693B0000693B0000F0
:10008000693B0000693B0000693B0000693B0000E0
:10009000693B0000693B0000693B0000693B0000D0
:1000A00035360000693B0000693B0000693B0000F9
:1000B000693B0000693B0000693B0000693B0000B0
:1000C000693B0000693B0000693B0000693B0000A0
:1000D000693B0000693B0000693B0000693B000090
:1000E000693B0000693B0000693B0000693B000080
:1000F000693B0000693B0000693B0000693B000070
:10010000693B0000693B0000693B0000693B00005F
:10011000693B0000693B0000693B0000693B00004F
:10012000693B0000693B0000693B0000693B00003F
:10013000693B0000693B0000693B0000693B00002F
:10014000693B0000693B0000693B0000693B00001F
:10015000693B0000693B0000693B0000693B00000F
:10016000693B000061410000693B0000693B000001
:10017000693B0000693B0000693B0000693B0000EF
:10018000693B0000693B0000693B0000693B0000DF
:10019000693B0000693B0000693B0000693B0000CF
:1001A000693B0000693B0000693B0000693B0000BF
:1001B000693B0000693B000001530000564B4CF2C4
:1001C000205210B51A804DF628121A8000BF00BFC9
:1001D00003F0CEFC514B4FF010621A60504A9A6007
:1001E000504ADA60504A136813F4807304D14F49BF
:1001F0000B604FF4A85313604D4B1A78110703D5C9
:100200001A7842F008021A704A4B4B492A221A7097
:100210004A4A4B4B8B4204D252F8040F43F8040B6A
:10022000F8E7484B484900228B4202D243F8042B9E
:10023000FAE74649464A002352F8230041F82300D2
:1002400001336F2BF8D1434B434A802103F8011B44
:100250009342FBD1414B3D4A1A60414B8A221A70AE
:10026000A3F5805324225A70A0221A709A7992071B
:10027000FCD59A79D406FCD43A4A937903F00C035E
:10028000082B384BF9D105221A7143225A719A79F9
:100290009006FCD5334A9179324B4906FBD5324A58
:1002A0004FF0817111600521516020221A709A79F6
:1002B00002F00C020C2AFAD12C4B2D4A1A602D4B5D
:1002C0002D4A1A6000225A60072243F8042C2B4A58
:1002D000C3F80C2D62B603F0F9FD144B1B68DA0766
:1002E00005D5274803F084FD264B274A1A60274B83
:1002F0001B785B0609D5234C234B22689A4204D114
:100300001F4803F075FD0023236005F0D7FC03F0C0
:1003100035FC05F047F9FEE70E200540308004402B
:10032000823F04000100002B10D0034014D0034092
:1003300002D0074000E0074024060020146D0000B2
:1003400020FBFF1F24060020700F002000F6FF1F77
:100350000000000000E400E05FE400E008ED00E0E1
:1003600000500640004006404480044004800440A1
:10037000C010050014E000E03F190100000020203B
:1003800073D68B611CE00340A5C3945A00F007406C
:10039000FFFFFFFFFFFFFFFFFFFFFFFFFFFFFFFF6D
:1003A000FFFFFFFFFFFFFFFFFFFFFFFFFFFFFFFF5D
:1003B000FFFFFFFFFFFFFFFFFFFFFFFFFFFFFFFF4D
:1003C000FFFFFFFFFFFFFFFFFFFFFFFFFFFFFFFF3D
:1003D000FFFFFFFFFFFFFFFFFFFFFFFFFFFFFFFF2D
:1003E000FFFFFFFFFFFFFFFFFFFFFFFFFFFFFFFF1D
:1003F000FFFFFFFFFFFFFFFFFFFFFFFFFFFFFFFF0D
:10040000FFFFFFFFFFFFFFFFFFFFFFFFDEF9FFFF23
:1004100010B5054C237833B9044B13B10448AFF33E
:1004200000800123237010BD24060020000000007E
:10043000106D0000084B10B51BB108490848AFF318
:1004400000800848036803B910BD074B002BFBD0A0
:10045000BDE81040184700BF00000000280600203B
:10046000106D0000240600200000000010B5044BB1
:10047000044640F8183B01F0B3FC204610BD00BF15
:10048000146A000010B5044604F0E4FE204610BDD6
:1004900010B50E210446124804F0D0FC204606F0A8
:1004A0000FF80146204604F0C9FC0E4805F06AF832
:1004B00021460D4800F0E2FE052003F0B7FC0A4893
:1004C00001F05CF904460028F9D10146112003F03F
:1004D000A1FC21460220BDE8104003F09BBC00BFF8
:1004E000686900002CFDFF1FA407002008B56E21DD
:1004F000194804F0A7FD0121112003F091FC01210E
:10050000022003F08DFC0121022003F083FC13483C
:1005100000F046FA0721124801F02EFB0E21104888
:1005200001F072FB0A210F4801F078FC58B91C2138
:100530000D4804F083FC0D4805F024F84FF4FA70E0
:1005400003F074FCF3E70A48FFF7A2FF41F288309A
:10055000BDE8084003F06ABC0082FF1F400600208F
:1005600000FCFF1FF80A0020786900002CFDFF1F27
:100570009869000008B504220349044805F026F8EC
:10058000024804F0FFFFFEE7A46900002CFDFF1FF6
:100590002DE9F041764D774C2A68774E266000238E
:1005A000637223612372E3600AB9D8E01A46536983
:1005B000002BFBD154614FF00008704B7048714F15
:1005C0002360C4F81480A4F80480A4F8068084F89A
:1005D0000A8001F0F7FB6748C4F86C80C4F87080AB
:1005E00000F006FE684A6949624805F0D7F8022023
:1005F00007F11802434641463E6087F80880C7F875
:100600000C8078723A61BE4601E0DEF8102042F8B4
:1006100023107A7A5B4801339A42F6DC2A68544BFD
:100620000AB99EE01A465369002BFBD157614FF07F
:100630000008574B5348C7F81480A7F80480A7F860
:10064000068087F80A803B6000F01EFD51492A6849
:1006500081F809800E60C1F8108081F80880C1F827
:100660000C80434B0AB97EE01A465369002BFBD13C
:1006700051614FF00008484B4648C1F81480A1F87A
:100680000480A1F8068081F80A800B6000F0EAFA85
:10069000424A4FF0010E02F1180182F809E0434688
:1006A0004046166082F80880C2F80C8011619646B8
:1006B00001E0DEF8101041F82300517A374E013383
:1006C0009942F6DC29682A4B09B94EE019464B6974
:1006D000002BFBD14A61DFF8E480314E314B1360CF
:1006E0000025404655619580D580957282F8F4507A
:1006F000C2F8F05082F8F550C8F8004082F8F65081
:1007000088F80850C8F8047088F80950C8F80C50E8
:1007100088F8105004F06AFD1B4A2349404605F052
:100720003DF80123304633727372F56086E890001D
:10073000357404F05BFD1C49134A304605F02EF871
:100740001A4B1B4A1A601B480A221A7201F03AFB24
:100750000D4A19491748BDE8F04105F01FB82C6053
:1007600029E7186063E7196083E71E60B3E700BFFD
:10077000CC0E0020A407002064690000146A000069
:10078000BC070020240A0020FCFBFF1F6D040000B2
:10079000086A00006C060020FC6900008406002046
:1007A00090070020206A0000850400004006002019
:1007B000E06900004C060020E11D00007C070020DD
:1007C0002DE9F04F00F5807EB1E8A00AB2E84015AF
:1007D000C5EA0643C6EA2544C7EA0845C8EA2746EB
:1007E000C9EA0A47CAEA2948CBEA0C49CCEA2B4AAB
:1007F000A0E8F8078645E7D1BDE8F04F70474FF015
:1008000000022DE9F00F00F5807C00BFB1E8A00ADE
:10081000C5EA0203C2EA2544C7EA0205C2EA27463E
:10082000C9EA0207C2EA2948CBEA0209C2EA2B4A0E
:10083000A0E8F8078445E9D1BDE8F00F70474FF014
:1008400000022DE9F00F00F5807C00BFB1E8A00A9E
:10085000C2EA0543C2EA0504C2EA0745C2EA07063E
:10086000C2EA0947C2EA0908C2EA0B49C2EA0B0A0E
:10087000A0E8F8078445E9D1BDE8F00F70472DE9FD
:10088000F00F089C00F5007B51F8045B53F8046BF3
:10089000C5EA0647C6EA254952F8045B54F8046BDA
:1008A000C5EA0648C6EA254AA0E880078345EBD199
:1008B000BDE8F00F704700BF002070470020704770
:1008C00038B5242908BFC2800C46017A0E48154667
:1008D00002F036FFC4F307210B4802F0DFFDE1B25E
:1008E000094802F0DBFDC5F30721074802F0D6FDF9
:1008F000E9B2054802F0D2FD034802F0F5FFB0FA74
:1009000080F0400938BD00BFB40D002038B5054661
:10091000F1B1802903799ABFC1F1800444EA04242B
:10092000002433B9224628462221BDE83840FFF78B
:10093000C7BFC288002322F0100203712421FFF7F1
:10094000BFFF224628462221BDE83840FFF7B8BF46
:100950000123037147F67F722221FFF7B1FFEA8876
:1009600042F01002284692B22421BDE83840FFF739
:10097000A7BF00BF0B4610B507490446184605F04F
:1009800021F8064904F016FF05F06CF901462046EF
:10099000BDE81040FFF7BABF00000143EE7CFF3E08
:1009A00070B5012604460671344802F01DFE05208C
:1009B00003F03CFA204644F260023021FFF780FF4A
:1009C0000546002857D06C2226212046FFF778FFE5
:1009D0004FF4F97228212046FFF772FF40F6227289
:1009E0002C212046FFF76CFF44F246423C21204672
:1009F000FFF766FF40F2371224212046FFF760FF21
:100A000044F2FF0230212046FFF75AFF73220221F1
:100A10002046FFF755FF4FF4C87003F007FA41F680
:100A20001D522E212046FFF74BFF0422114620467F
:100A3000FFF746FF302206212046FFF741FF102234
:100A40000A212046FFF73CFF00220E212046FFF737
:100A500037FF43F63C4210212046FFF731FF47F6AF
:100A60007F7222212046FFF72BFF362224212046C9
:100A7000FFF726FF6672284670BD00BFB40D002048
:100A800010B5044619B1012911D0002010BD55221E
:100A90002021FFF715FF0028F7D0E28842F004027A
:100AA000204692B22421BDE81040FFF709BF40F272
:100AB00073122A21FFF704FF0028E6D088222021A4
:100AC0002046FFF7FDFE0028DFD0E288204622F016
:100AD00004022421BDE81040FFF7F2BE10B5044621
:100AE00004F0B4FC204610BD024A0349034804F058
:100AF00055BE00BFFCFBFF1FDD0A0000440A0020BA
:100B000038B5074D074C08482A46214604F046FEF2
:100B10002A4621460548BDE8384004F03FBE00BFE4
:100B2000FCFBFF1FDD0A00004C0A0020540A0020D5
:100B30001B4A1C4B11681C48096970B49942127910
:100B4000027009D2194A127832B3194A4FF0804123
:100B5000116003F5807402E01C46A3F58073154A0A
:100B6000154912680D68AAB1A5B1144E3088402805
:100B700010D841000A44403029440232023130800A
:100B800033F9040B22F8020F9C4233F9020C21F8CE
:100B9000020FF5D870BC704703F58074DFE700BF23
:100BA000640A0020C0F2FF1F1F8000405E0A002080
:100BB00008E200E06C0A0020600A00205C0A0020C5
:100BC000F8B5064604F06EFA0446E8B104F06AFA95
:100BD000054600283AD072B61F4B1A887F2A19D8CA
:100BE000002C31D01D490A6842B162B6204604F09B
:100BF000ADFA2846BDE8F84004F0A8BA18480C60E1
:100C00001A80056062B6F8BD054672B6124B1A88A6
:100C10007F2AE5D9114A12491768146000220C682E
:100C20001A800D6062B63946304604F0B9FA38468B
:100C300004F08CFA30462146012204F0B1FA204635
:100C4000BDE8F84004F082BA62B6F8BD204604F070
:100C50007DFA2C46BFE700BF5C0A00206C0A00202A
:100C6000600A0020F8B5284C284E294F294D20460F
:100C7000012104F087FB00F08BF9274B274A284815
:100C80004FF480611960236800211A6099802279ED
:100C90001E6102F1804240F20116DE809F6102F582
:100CA00004324FF480760627DE82DE839F8302269D
:100CB0008E27D9609E609E82117017702B68194E26
:100CC00043F0124343F001032B600368164D43F0D9
:100CD0001043036004F0FCFA2279144B144C187092
:100CE00053119B0003F16043174602F1100003F516
:100CF000614302F01F020121377001FA02F245F848
:100D000020401A60F8BD00BF640A0020C0F1FF1F38
:100D100000FEFFFF80F0024014B00440A2F0024049
:100D200000F002401B80004000F6FF1F5E0A00201A
:100D3000310B0000024A0349034804F02FBD00BFF5
:100D4000FCFBFF1FDD0A0000640A0020024A034981
:100D5000034804F023BD00BFFCFBFF1FDD0A0000B9
:100D6000700A0020024A0349034804F017BD00BF7F
:100D7000FCFBFF1FDD0A0000780A0020024A03493D
:100D8000034804F00BBD00BFFCFBFF1FDD0A0000A1
:100D9000800A0020024A0349034804F0FFBC00BF58
:100DA000FCFBFF1FDD0A0000880A0020024A0349FD
:100DB000034804F0F3BC00BFFCFBFF1FDD0A00008A
:100DC000900A0020024A0349034804F0E7BC00BF30
:100DD000FCFBFF1FDD0A0000980A0020024A0349BD
:100DE000034804F0DBBC00BFFCFBFF1FDD0A000072
:100DF000A00A00202DE9F84F344B35481A683549D0
:100E000012681B790B70824229D2334B1B784BBB83
:100E1000DFF8D4A0DFF8D490DFF8D480DFF8D4B0C6
:100E2000DAF80060D9F80070B8F80040BBF800505C
:100E3000002E3CD0A7B33A1D311D02EB450201EB59
:100E40004401FFF7BDFC403540347F2C1CD8A8F886
:100E500000407F2D0BD8ABF80050BDE8F88FA0F50F
:100E60008070D5E71D4B4FF080421A60D0E7002418
:100E70003846ABF8004004F069F9194B1A68C9F814
:100E800000201C60BDE8F88F00243046A8F8004020
:100E900004F05CF9134B1A68CAF800201C60D8E70C
:100EA000311D01EB4401FFF7AAFC4034CDE737B117
:100EB000391D01EB4501FFF7C2FC4035C5E74FF492
:100EC0008072394605F01CFABFE700BFAC0A00206B
:100ED000C0F4FF1F1F800040C40A002008E200E0A9
:100EE000C00A0020C80A0020BC0A0020B40A002062
:100EF000A80A0020B80A002070B50021044604F0BA
:100F000069F980B172B61C4A1368002B29D01B49BD
:100F10000D6805B31A4E156000220860328062B673
:100F2000184604F013F92046012104F053F988B162
:100F300072B6144A1368CBB113490C6874B1134DDF
:100F40001460002208602A8062B61846BDE870402E
:100F500004F0FCB870BD086062B6E4E7086062B6F1
:100F600070BD074910600B8062B6DCE7074910606E
:100F70000B8062B670BD00BFBC0A0020C80A00200A
:100F8000A80A0020B40A0020C00A0020B80A0020E5
:100F9000284B29491A68294842F400421A600A6815
:100FA00042F002020A601A6842F002021A60036804
:100FB000002B3EDB224B1B68002B3ADB214A4FF013
:100FC000864313601368002BFCDBF0B51E4C1F48F2
:100FD000DFF8A8E01E491F4B1F4A204F204E214D2D
:100FE00047F2320CC4F800C0002404600120CEF89F
:100FF0000000DFF88CE0C1F800E04FF480311960A8
:10100000194B1360DFF87CE0184A3A6034602860BE
:1010100000F18E40CEF80000154CB967154816490E
:1010200046F8503C4FF4C0632A61236003600B60B4
:10103000F0BD70473C8004404080044000F0024016
:1010400080F0024000F1024004F1024060F00240F2
:1010500008F002400CF0024010F0024014F0024090
:10106000E0F0024084F002401B1F0100001F1F1F20
:1010700008B004400CB0044018B0044004F0024032
:101080000100000788F00240F8B5284C284F2046A0
:10109000012104F077F9274A274B002515601D60D0
:1010A000FFF776FF254B264A2648DFF8B0E04FF4DD
:1010B000C0611960236824491A6002269E80227943
:1010C000D86002F1804202F504324FF48070C3F818
:1010D00010E09E60D88240F2011ED88306268F2041
:1010E0009D829D61A3F806E09E83157010702279A1
:1010F0003A70164B164D4FF080720A600B6004F088
:10110000E7F82279134B144C187053119B0003F12C
:10111000604302F1100003F5614302F01F02012158
:1011200001FA02F244F820501A60F8BDAC0A00201F
:101130001B800040BC0A0020B40A002004B0044018
:10114000C0F3FF1F00FEFFFF00F00240010000900F
:10115000F50D0000C40A002000F6FF1F22F0024037
:10116000024A0349034804F019BB00BFFCFBFF1F00
:10117000DD0A0000AC0A0020024A0349034804F0DB
:101180000DBB00BFFCFBFF1FDD0A0000CC0A0020E6
:10119000024A0349034804F001BB00BFFCFBFF1FE8
:1011A000DD0A0000D40A0020024A0349034804F083
:1011B000F5BA00BFFCFBFF1FDD0A0000DC0A0020BF
:1011C000024A0349034804F0E9BA00BFFCFBFF1FD1
:1011D000DD0A0000E40A0020024A0349034804F043
:1011E000DDBA00BFFCFBFF1FDD0A0000EC0A002097
:1011F00038B50446C06E0D23002584F87B3284F890
:101200007C32256610B103F0A1FFE566206F18B1AE
:1012100003F09CFF0023236738BD00BF38B572B6CA
:1012200090F87B320D2B23D0044600230D22C06E94
:10123000256FE366236784F87B2262B608B103F06A
:1012400085FF15B1284603F081FF04F1180000F076
:10125000CFFD084A13882BB95E210748BDE8384006
:1012600000F072BC013B9BB21380002BF4D038BD60
:1012700062B638BDF40A002000FCFF1F70B52D4D8A
:1012800088B00E460446FFF7C9FF5E212A4800F0E9
:1012900045FC2B8801332B8072B601233246684609
:1012A000264900F063FE08AA9DF8040012F8143DD8
:1012B0000299207784F82430216204F1250304F197
:1012C000320012F8011F03F8011B8342F9D1079B7A
:1012D0006363684600F084FD62B604F1180000F014
:1012E00095FD064648B92B88124AC3B95E211248BB
:1012F00000F02AFC304608B070BD00230D201421F8
:101300000822A4F87832A4F8763284F87A3284F885
:101310007C02216684F87B22304608B070BD013B18
:101320009BB21380002BF7D15E21034800F00CFC28
:10133000E0E700BFF40A002000FCFF1FF80A0020CD
:10134000836B9AB2012A01D000207047C26B4AF623
:1013500044418A4222D045F222618A421BD042F6A1
:1013600011318A42F0D10F4904221B0C012B04D009
:10137000022BE9D1490842F00102B0F84630082BAF
:1013800004D0102BE0D1490842F00202816680F8B7
:101390007C220120704704490422E6E70349002229
:1013A000E3E700BF34EE35171AF79A0B8D7BCD05B6
:1013B0002DE9F04FB0F8766200F1760783B03E4435
:1013C000E9B1DFF8B4B304460D464FF0080A4FF018
:1013D000000994F87B320D2B00F25881DFE813F0FE
:1013E0000F000F00D3009E000F000F000F000F0032
:1013F000160113004500710087000F0022660020CF
:1014000003B0BDE8F08F226E94F87A32AA4204F15C
:10141000380028BF2A4618443146904602F076FA32
:1014200094F87A12B4F87622236E4144C8EB030391
:10143000424484F87A12A4F8762223660193002BA2
:10144000DDD12046FFF77CFF002800F01F810A2233
:10145000019BC4F860A0C8EB0505464484F87A32C5
:1014600084F87B22002DB4D1C9E7226E94F87A3239
:10147000AA4204F1380028BF2A4618443146904653
:1014800002F044FA94F87A12B4F87622236E4144BA
:101490004244C8EB030384F87A12A4F87622236648
:1014A000002BACD1A16BE26B226659454644C8EBD8
:1014B000050500F001810B2384F87B32002D88D1D3
:1014C0009DE7226EB4F876329542C0F04B8113440A
:1014D0000A21AD1AC4F860A0164484F87A92A4F8E0
:1014E000763284F87B12002D7FF473AF87E7226E8B
:1014F000B4F8761295422B4628BF13461944D21AE7
:10150000A4F876127FF47AAFED1A1E44C4F860A0F6
:1015100084F87BA2002D7FF45CAF70E7236E94F813
:101520007D129D4228BF1D465A1B2266002900F0ED
:10153000B680E16EB4F87430A06B01EB430C4FF051
:10154000000EACF8040084F87DE2206F96F801C02C
:1015500016F802EB00EB430001339BB24EEA0C2E6F
:101560007F2BA4F87430A5F10205A0F804E000F286
:10157000DA80002D40F09380002A00F0968084F8F5
:101580007D5228463CE7236EE16E9D4228BF1D46F2
:10159000C5EB030C0236C4F860C003E00236002D30
:1015A00000F0A280B4F8742016F8020C16F801ECD2
:1015B000531C9BB201EB420240EA0E207F2BA4F8A1
:1015C0007430A5F102059080E8D90022204603F08E
:1015D000E7FD0122E16E204603F0E2FDE06E03F03C
:1015E000B5FD236E206F1D44F61B0023A4F8766220
:1015F0002566E36610B103F0A9FD256E15B90D232C
:1016000084F87B32012003B0BDE8F08F226E94F89D
:101610007A32AA4204F1380028BF2A4618443146DB
:10162000904602F073F994F87A12B4F87622236E99
:1016300041444244C8EB030384F87A12A4F87622AA
:101640002366002B7FF4DBAEA26B4A498A421DD190
:10165000226CA1F57001A1F2FB718A4216D101F151
:101660005B41626C01F5F11101F60F418A4230D005
:101670000C23A26C84F87A3284F87B32C8EB05051F
:1016800046442266002D7FF4A4AEB8E60D23002068
:1016900084F87C3284F87B3203B0BDE8F08F023DE1
:1016A000307896F801E024D172BB0D23002084F835
:1016B0007B3203B0BDE8F08F94F87C1284F87D3261
:1016C000CB0784F87B1226D46266002D7FF481AEAE
:1016D00095E6A26CA2F110011829D7D8092184F847
:1016E0007A3284F87B12C9E7BCF1000F7FF487AE31
:1016F000DBE7E16EB4F8743001EB430C40EA0E20F6
:101700000236ACF8040020E73388A363022328469E
:1017100084F87D3274E603F0C5FC206700283FF4AE
:101720006EAE226ED0E70022204603F039FD4FF066
:101730000008E06E03F00AFD0122216FC4F86C80FE
:10174000204603F02DFD206F03F000FD206EC4F84D
:101750007080F61B2844A4F87662206600283FF4C7
:101760004EAF4FE7521B1D442266A4F8765200206C
:1017700046E600BF524946466461746190F87B02B8
:1017800007288CBF00200120704700BF90F87B32F3
:101790000D2B00F0AC802DE9F041044603F082FCF3
:1017A000E066002800F0938094F87B32072B40F22B
:1017B000908000232367B4F87832B4F876120022C0
:1017C000591A9142A4F8742005DD2046FFF7F0FD78
:1017D000002840F0938094F87B320D2B04F118061A
:1017E00025D0304600F068FA08B304F176074FF0D0
:1017F00000080FE0A4F8768294F87B52FFF7D8FD3A
:1018000094F87B32002860D10D2B10D0072D1ED903
:10181000072B1CD839464FF40072304600F0E2FA2C
:1018200083B219462046A4F87832002BE2D1304624
:1018300000F0DEFA354A1388002B59D15E21344876
:1018400000F082F90D2384F87C3284F87B32E06E5C
:10185000F0B1B4F87430BBB17F2B09D800EB43036F
:10186000023300F58175002223F8022FAB42FBD131
:1018700001460022204603F093FC94F87B32072BAC
:1018800001D8DB073CD5E06E03F060FC0023E36683
:10189000206FE0B1B4F874308BB17F2B09D800EB26
:1018A0004303023300F58175002223F8022F9D4285
:1018B000FBD101460122204603F072FC206F03F0A9
:1018C00045FC00232367BDE8F0810D2BAFD0BDE8B8
:1018D000F081DA077FF56DAF03F0E4FB20670028A5
:1018E0007FF469AFE06EBDE8F04103F02FBC7047B4
:1018F000013B9BB21380002BA0D0A3E7BDE8F08191
:101900000122E16E204603F04BFCBCE7F40A002004
:1019100000FCFF1F10B50021044603F05BFC98B1EA
:1019200094F8F6308BB194F8F43094F8F520013344
:10193000342BC8BF0023934207D09A1D04EB8202C8
:10194000DBB2506084F8F43010BDBDE8104003F005
:10195000FDBB00BF10B4047F4160022CC26002D006
:1019600010BC03F08DBD836810BC1847F0B4464B23
:10197000464A186BDC6A01791170454922790A7070
:101980009A6A00790870002A46D05968C9688A4264
:101990003ED82168CC8B240402F1FF3065D4C0F31B
:1019A0000E00C883C88B80B2C882196B0968C88BC7
:1019B000000452D4C2F30E00C883C88B002480B246
:1019C00012F1FF32C88218BF01229C62D96A2E48E8
:1019D00009680D6800F12404A54236D00068C46887
:1019E00014F0804F0C680D6815BF248824780235E8
:1019F000013544F000440D604463196B254B0979AF
:101A00001970214912B1CA6A12791A70F0BC704774
:101A1000521A9A620122D9E7586B196805681E4C60
:101A20000A63CC62CC682D681C4E24F080440327E6
:101A3000B542CC6083F825701FD1037F4260022B32
:101A4000C2601ED0F0BC03F01BBD016890F82400FA
:101A5000CC6840F000404863CFE7CC8BC2F308006D
:101A600004F47E442043C883A7E7CC8BC0F308006E
:101A700004F47E442043C88394E72B461146F0BC0F
:101A800018478368F0BC184700FCFF1F1F80004008
:101A90001C8000401B80004000000FFF5519000013
:101AA00090E80C00F0B41C6859682568164F174E72
:101AB00029432160164D17491760D66015611160E2
:101AC000417A154A5C180A3194F8244053F82150A1
:101AD00002EBC40149680D60017A5C1803EB8101D7
:101AE000247ECD6902EBC40149680D60817A5818E3
:101AF00003EB810390F83000596B02EBC002F0BC9D
:101B000053681960704700BF01401F000110003882
:101B10000110007800001F80106B00005E2911D8B2
:101B200030B44A09C57A012303FA02F42C4300EBCE
:101B30008202C472D06801F01F0103FA01F101436F
:101B4000D16030BC704700BF5E2913D830B44D0956
:101B500000EB850401F01F01E368012202FA01F1A4
:101B600023EA0101E16021B9C37AAA4023EA020213
:101B7000C27230BC704700BF204A43689A42F0B43A
:101B80000FD0427A1A4492F82420914207D093F859
:101B900024408C4215D093F825408C422AD0F0BCCA
:101BA00070470B2907D00729EBD1154C227842F05A
:101BB00001022270E5E7124C227822F00102227025
:101BC000DFE7002421461E685D6836682E420FD08C
:101BD0000C4D05EBC202002756685A18376092F880
:101BE000242005EBC2050A316A6853F821301360DE
:101BF0004472D4E701242146E5E700BF246A0000CF
:101C0000110F0020106B0000204A43689A42F0B484
:101C10000FD0827A1A4492F83020914207D093F87C
:101C200030408C4215D093F831408C422BD0F0BC20
:101C300070470D2907D00E29EBD1154C227842F0C0
:101C400004022270E5E7124C227822F0040222708E
:101C5000DFE7002421461E685D6836682E4210D0FA
:101C60000C4D05EBC202002756685A18376092F8EF
:101C700030200C3105EBC20503EB81036A685B6819
:101C800013608472D3E701242146E4E7246A00004C
:101C9000110F0020106B000000207047704700BF3C
:101CA00010B582B002AB026803F8011D54681946F2
:101CB0000122A04702B010BDC06938B18369C06875
:101CC00047F6FF72181A904228BF1046704700BFAF
:101CD000C36910B504463BB100201871E06901F0FA
:101CE00099F8E3691B791BB101232371002010BD12
:101CF00010BD00BFC06978B100B583B001220DF1FD
:101D0000070100F065FE01280CBF9DF807004FF0A9
:101D1000FF3003B05DF804FB4FF0FF30704700BFA9
:101D2000C369C3B110B582B00446012218460DF153
:101D3000070100F04DFE012803D04FF0FF3002B044
:101D400010BDE0699DF80740C168013900F0F2FE5E
:101D5000204602B010BD1846704700BFC06908B1E8
:101D600000F01ABF704700BF2DE9F04105464FF45F
:101D70007A731348AB60002328602B712B732420E7
:101D80000C46904603F0C2FFE861B0B1064604F18C
:101D9000200E20686168A268E36837460FC71034D8
:101DA00074453E46F5D12068386041460C2205F165
:101DB0000D0004F0F3FB00236B762846BDE8F081AC
:101DC000A46A00004FF47A72044982600022016024
:101DD00002710273C2614273704700BFA46A0000BF
:101DE000704700BFC06908B100F0F2BD704700BF86
:101DF000C36953B110B50446184600F071FDE0699F
:101E000003F08CFF0023E36110BD7047C06918B177
:101E10008079003018BF0120704700BF38B590F8B6
:101E2000323004460D46BBB92A460121204600F057
:101E30005DFA08B9002038BD251D2846012221463B
:101E400001F0AAFA60B1294604F12C0000F098FDD7
:101E5000003018BF012038BD2C3000F041FDE3E711
:101E600002462146284601F097FA0028EBD10020CF
:101E700038BD00BF2DE9F04F99B04FF00008DFF8F2
:101E8000E8A08DF81C808146043106A89346019392
:101E90008DF81E808DF840808DF84280CDF818A016
:101EA000CDF83CA000F06CFD06AE5D460FAF2F21D3
:101EB000284604F089FA441BE4B2294608B32B787B
:101EC0002F2B02A81BD00C2C28BF0C24224604F078
:101ED00065FB18AB2344384603F8588C00F000FD2E
:101EE000012302AA3146384600F08AFF88B3304603
:101EF00000F0F6FC334625443E461F46D7E7013541
:101F0000D5E7019831797279B379B468377DCBEB35
:101F100005050560F068356989F8041089F8052021
:101F2000B16989F80630F269336AC9F80C0048468D
:101F3000C9F800A0C9F80840C9F8105089F8147011
:101F4000C9F81810C9F81C20C9F8203019B0BDE82C
:101F5000F08F89F8040089F806004846C9F800A007
:101F600019B0BDE8F08F00BFCC6A0000F0B59DB09D
:101F700005461F4601A86B461446FFF77BFF009AF3
:101F8000A35C1444002B42D09DF80A202F4E0A96E1
:101F900000238DF82C308DF82E30002A31D00AA87D
:101FA0003B46224601A900F02BFF50B301A800F0E8
:101FB00097FC17F0060F43D19DF82C700C9B9DF8F1
:101FC0002DE0139622469DF82E408DF850708DF826
:101FD000524015930D990E989DF83C70109E119CDF
:101FE000129B8DF851E01691179013A928468DF891
:101FF000607019961A941B93FFF7B6FE28461DB021
:10200000F0BD2846FFF7DEFE28461DB0F0BD9DF866
:1020100008700E4E9DF809409DF80A30039A8DF81D
:10202000507013968DF851408DF8523015920499E6
:1020300005989DF81870079E089C099B044AD2E7F2
:102040000AA8109900F076FDB6E700BFCC6A000040
:10205000C06A0000064B074ADA620221002259607A
:102060009A7083F8242083F8302083F83220704758
:10207000F80A0020CC6A0000052823D8DFE800F029
:10208000030310161C0A124B12484FF038421A6014
:10209000FFF706BD0E4B104A1A600E48FFF700BD51
:1020A0000B4B0E4A1A600B48FFF7FABC084B0C4A60
:1020B0001A600848FFF7F4BC054B0A4A1A60054845
:1020C000FFF7EEBC024B084A1A600248FFF7E8BC73
:1020D0004C0B002000FCFF1F01000238000002B87A
:1020E00000000238011001380540013810B5012107
:1020F000007801F08FFE0E4A137893B10D49CB7A28
:1021000000241846147063B1DC0703D50A4A8869B5
:10211000106018469A0705D4430702D5074B0A6A90
:102120001A6010BD064BCA69C87A1A60F4E700BF8E
:10213000500B002000FCFF1F00E100E008E100E080
:1021400004E100E01E4B1A781AB10078002101F07A
:1021500061BE70B41B4A1C49D47A096801251D7000
:10216000ECB172B6D37ADE071C4606D5174DD4689B
:102170002E68344094612C601C469D0706D5144D92
:1021800013692E68D47A3340D3612B60630705D579
:10219000104C536925682B401362236062B61368A4
:1021A000DA688A4207D00C4C1C600C4AD96041F0B6
:1021B00080441C611A600078002170BC01F02ABEC6
:1021C000500B002000FCFF1F4C0B002080E100E0C2
:1021D00084E100E088E100E001403F0000003F8032
:1021E000F0B41248124A036882B016460093009F6A
:1021F0004FF00045FF24136843F480631360D562F9
:102200005463D36A002BFCDAB36BDBB2FF2B09D02B
:1022100003680193019BDB1B8B42ECD3002002B0CF
:10222000F0BC7047012002B0F0BC7047CC0D00201C
:1022300000C00240F8B50D464FF4967116460446AC
:10224000FFF7CEFF284B1A684FF0004042F480623F
:1022500045F040011A60D8621A465963D36A002BD0
:10226000FCDA214918204FF000470A6826FA00F3EB
:1022700042F48062DBB20A60CF624B63CB6A002B10
:10228000FCDA083810F1080FEFD155B3082D0CBF58
:102290008721FF21144B1A684FF0004042F48062FE
:1022A0001A60D8621A465963D36A002BFCDA0E4AC8
:1022B000002716464FF00045FF21136843F4806362
:1022C0001360D5625163D36A002BFCDAB36BD8B2CA
:1022D0001B06607000D4F8BD0137B7F5807FECD1E4
:1022E000F8BD9521D6E700BF00C002402DE9F043BC
:1022F0000023934E027085B08370336801930546C6
:10230000884610460121019F01F084FD28780121B3
:1023100001F086FD2878012101F07CFD894A1368CF
:1023200043F4805313600620FFF7A6FEDFF840E277
:10233000854B9EF80BC01A68BCF1000F20D072B616
:102340009EF80B30DC07194608D58048DEF80C10E3
:1023500004682140CEF8181001601946980709D585
:102360007B48DEF8103004689EF80B102340CEF84E
:102370001C300360490700F1A28062B69EF80BC0D2
:10238000DEF80030D968914207D07248186072496F
:10239000DA6042F0804018611960704A0A244FF0F8
:1023A0000040FF21136843F480631360D0625163DF
:1023B000D36A002BFCDA013C14F0FF04F2D1BCF12B
:1023C000000F18D01CF0010F05D0654BDEF8182067
:1023D0009EF80BC01A601CF0020F05D0614BDEF8AE
:1023E0001C209EF80BC01A601CF0040F03D05E4B3B
:1023F000DEF820201A602846FFF7A4FE06E03368C6
:102400000293029BDB1BB3F5FA6F51D800221146F1
:102410002846FFF70FFF012881466870EFD14FF47F
:10242000D57208212846FFF705FF430726D585F812
:1024300002904FF0000906E033680393039BDB1B17
:10244000B3F5FA6F34D8002237212846FFF7F2FEA1
:102450004A4629212846FFF7EDFE68700028EBD197
:10246000AB78022B39D02846FFF740FE4046FFF7F5
:1024700003FE0124204605B0BDE8F083374A04215D
:1024800094464FF0004EFF20136843F480631360BE
:10249000C2F82CE05063D36A002BFCDADCF8383049
:1024A0000139DBB211F0FF016B70EDD1AA2B0FD017
:1024B0002846FFF71BFE204605B0BDE8F0832B49F8
:1024C000DEF8143008680340CEF820300B6054E783
:1024D0000223AB704FF08049B5E702463A21284607
:1024E000FFF7A8FE0028E3D11C4B1A684FF0004408
:1024F00042F48062FF201A601946DC625863CB6A9E
:10250000164A002BFBDA936B144A03F0C003C02B6E
:1025100004BF0323AB70032116464FF00044FF2095
:10252000136843F480631360D4625063D36A002B52
:10253000FCDA013911F0FF01B36BF1D193E700BF71
:10254000CC0D00203C8004404C0B002080E100E0DA
:1025500084E100E001403F0000003F8000C00240F5
:1025600000E100E004E100E008E100E088E100E0D3
:1025700000FCFF1FF0B41549154A0B6882B01646DF
:102580000093009F4FF00045FF24136843F48063DD
:102590001360D5625463D36A002BFCDAB36BDBB2F1
:1025A000FF2B43700AD10B680193019BDB1BB3F532
:1025B000967FEAD9002002B0F0BC7047A3F1FE007C
:1025C000B0FA80F0400902B0F0BC7047CC0D00209A
:1025D00000C00240F8B58378032B0E46044618BFAE
:1025E0004E021546FFF7AEFD324611212046FFF799
:1025F00021FE18B92046FFF7BDFF20B92046FFF79E
:1026000075FD0020F8BD204B2049214A1A608E46F6
:1026100059631A4659631E46596305F5FD70A91C96
:1026200005F5FE77D36A13F0F00FFBD0C6F834E05F
:10263000B36B01F8013C1B1201F8023C02318F42DE
:10264000F0D105F50075A8420DD20F4A1646D36A9F
:1026500013F0F00FFBD0B36B191200F8021BA84265
:1026600000F8013CF3D3084B0949084A19601946A0
:102670005A63CB6A044A13F0F00FFAD02046936BEA
:10268000FFF734FD0120F8BD00C00240FFFF0090BD
:1026900000041F80F0B4314E33684FF0004743F41C
:1026A000806333603D46F762344671633346511CA4
:1026B00002F20127E26A002AFCDA1A6811F8016CBA
:1026C00042F480621A60DD625E63E26A002AFCDA2C
:1026D0001A6811F8026B42F480628F421A60DD6260
:1026E0005E63E7D11D49CA6A1C4B002AFBDA1A68EF
:1026F0004FF0004542F48062FF241A601946DD6203
:102700005C63CB6A154A002BFBDA13684FF0004577
:1027100043F48063FF2413601146D5625463CB6A8F
:102720000E4A002BFBDA13684FF0004543F4806338
:10273000FF2413601146D5625463CB6A074A002B0D
:10274000FBDA936BDBB203F01F024370A2F10500CA
:10275000B0FA80F04009F0BC704700BF00C00240F2
:1027600070B5044671B18378032B0D4618BF4D0236
:102770001646FFF7E7FC2A4618212046FFF75AFDC8
:10278000054620B12046FFF7B1FC002070BD32465F
:10279000FE212046FFF77EFF0028F3D04FF416718C
:1027A0002046FFF71DFD0028ECD02A460D212046CB
:1027B000FFF740FD0028E5D10B4B1A684FF00045AC
:1027C00042F48062FF201A601946DD625863CB6ACA
:1027D000054A002BFBDA936B13F0FF0FD2D1204692
:1027E000FFF784FC012070BD00C00240014B024A8B
:1027F0001A6070474C0B00200000023838B590F981
:102800000530002B03DBBDE8384000F0FBBB04467D
:102810000121006900F020FCF8B1257D104B13EB7D
:1028200045151AD0A3790F4A012B9CBFA369EB6110
:10283000E36912686B831B0CAB8232B105F11601A0
:1028400005F1180090472B8B6B82637903F07F03AF
:102850006371BDE8384000F0D5BB002038BD00BF33
:10286000600B0020540B002010B500F10802044654
:102870000121006A00F0DAFC50B1E3693BB96379E9
:10288000A268E26163F07F036371012010BD012043
:1028900010BD00BF70B50646FFF7E6FF98B1326A7B
:1028A000B568117C53691479023D8D40013B74B1C8
:1028B0001D4402E014F0FF0407D0601900F032FC60
:1028C000013C0028F6D1002070BD336A197CB06944
:1028D0004FF4007202FA01F30344B361012070BDAA
:1028E00082790AB90020704710B50446FFF786FFC9
:1028F00018B10023A371012010BD002010BD00BF3E
:1029000070B44B1E01F10A04202203F8012FA342E8
:10291000FBD101380025072610F8014F2CB32E2CCF
:102920001ED0164A01E09C4217D012F8013B002B42
:10293000F9D1AE421FD3A4F121025D2A1BD8A4F124
:102940006102192A05F1010398BF203C0D44DBB256
:1029500098BFE4B22C701D46DEE7002070BC7047C3
:102960000A2EFAD008250A26D6E70B78B3F1200004
:1029700018BF0120F2E71846F0E700BFDC6A00004C
:1029800038B583793BB991F82020102A0D460446CA
:1029900003D0202A10D0002038BD022282714A8C38
:1029A000C361530183610023012060712375256297
:1029B000A360E360236138BD03238371496AC16169
:1029C00000F11802284600F001FC0028EBD1E2E7F4
:1029D000837913B94FF0FF3070472DE9F04F8B46E4
:1029E0004179C90783B0054658D5C1688469641A1E
:1029F000944228BF144626460194002C64D01A46FF
:102A0000022ADFF8E890384FDFF8E4802A6AC1F341
:102A1000080A3FD01479013C04EA5124E4B2BAF127
:102A2000000F5ED1002C5CD1002951D1E969A96069
:102A3000107C52690239814014440819CAF50074A7
:102A40006A79B442A8BF344653062CD4B4F5007F4B
:102A500029D0002100F000FB00B30AEB090E0EEBB9
:102A6000040086450BD00BF1FF32734613F8011BAF
:102A700002F8011F9842F9D1CEEB00008344E968C7
:102A8000361B2144E9601FD0AA79022AC1F3080A43
:102A90002A6ABFD1506A00EB5120CFE74FF0FF30D8
:102AA00003B0BDE8F08F3A689042D2D001465A4652
:102AB000D8F80000FFF78EFD0028EFD0E968361B3C
:102AC0002144A344E960DFD1019803B0BDE8F08F51
:102AD0001046A96805F1080200F040FB0028DDD08F
:102AE0002A6AA968A4E700BF38FCFF1F600B00201A
:102AF0005C0B00208379012B17D930B5C36883B0F4
:102B000001220DF107010446C3F34315FFF760FFEF
:102B1000012802D0002003B030BDE36804481F3311
:102B200000EB4510E36003B030BD0020704700BFEC
:102B3000600B0020F8B5837913B182698A4201D213
:102B40000020F8BD022B0F4605461AD007B32B6AAA
:102B5000E9681C7C4A1E04F109037C1EDA40DC4053
:102B6000A24211D9EB69AB6005F1080606E0A9683D
:102B7000286A00F0F3FA013C0028E1D03246002C2C
:102B8000F5D1EF600120F8BD0029EBD0A41AEBE7E6
:102B9000AF60EF600120F8BD83790BB1FFF72EBE67
:102BA000184670478379012B01D000207047F0B59B
:102BB0004579AC0783B002461CD585698D420C4629
:102BC00018D3D5B12546D6681446FFF7B3FF88B1B0
:102BD000B5B9E169206A00F0B1FB58B1E56122E0C6
:102BE00000F0ACFB30B16FF07042A168206A00F0D9
:102BF00095FBC0B9002003B0F0BD184603B0F0BD8E
:102C000001AAA168206A00F0A9FA0028F2D0206A7F
:102C10000F4B90F8207001994FF6F872102F08BFF3
:102C200013469942DCD36379A279A56163F07F03EF
:102C30006371002ADED02046FFF7E0FD0028D9D0DE
:102C4000B5422946204628BF3146FFF773FFD2E739
:102C5000F8FFFF0F70B51D4B03EB4116F37A13F02D
:102C6000110F02D012F0420F1ED1194B01751B68D3
:102C70000361738BB18A43EA0141C161F37A13F0B6
:102C80001803154604460DD1F3698361012383714E
:102C900005F00F03002163716B06A160E1600FD4A2
:102CA000012070BD102B01D0002070BD00F1180272
:102CB000006A00F08BFA0028F6D00423A371E7E73E
:102CC0002046BDE87040FFF76DBF00BF600B0020DD
:102CD00038FCFF1F2DE9F04784B001AF06460C46D3
:102CE000104639469946FFF70BFE78B30022216A59
:102CF000316213461546A260E260DFF8008108E009
:102D0000E52B1CD001460B22384603F0C7FA88B3E6
:102D1000E368A2699A421DD92046C3F3431AFFF71C
:102D2000E9FE98B10378002BEAD15DB9D8F80030FC
:102D300086F814A03361037823B10125E8E7002D5C
:102D4000FBD1F3E709F01203122B1DD0002004B0D1
:102D5000BDE8F08709F01203122BF7D1A5B9A379CA
:102D6000022BF3D02046FFF795FD0028EED0214C32
:102D7000357514E009F03003302BE7D04A46514650
:102D80003046FFF767FFE2E70121306900F064F9A0
:102D90000028DBD0347D174B13EB4414D6D020220F
:102DA0000021204603F0ACFA97E80700234603C34E
:102DB000114923F8022B0D68120C1A709DB104F111
:102DC0000E0104F11000A847238AE289638223835D
:102DD000E28200F017F90028B8D04A46317D30462B
:102DE000FFF738FFB3E742F621034FF40062238276
:102DF000E281EBE7600B0020540B002038FCFF1F42
:102E000010B4847914B1002010BC704710BCFFF7D7
:102E100061BF00BF2DE9F04F8B46817985B0012954
:102E20000746019205D001233B71002005B0BDE8A3
:102E3000F08F42799107F6D5530708D5FC68B96938
:102E40008C4200F0A880FFF775FE0028EBD0019BB4
:102E5000FC68002B49D0DFF88C91DFF88CA1DDF8FD
:102E60000480386A0679013E06EA542616F0FF0609
:102E7000C4F3080442D1002C40D1B96800296FD1B5
:102E8000FA69002A7ED0BA60C4F50075ADB2454536
:102E90003AD9057C4169023AAA400E4416441FFA09
:102EA00088F51CB9F868BA6990424CD230460121C5
:102EB00000F0D2F80028B6D04C4404EB050E74455F
:102EC0000DD00BF1FF31621E0EF1FF3611F8010F2C
:102ED00002F8010F9642F9D1C4EB0E04A344FC683A
:102EE000B8EB05082C44FC60BBD1BB69A34257D2A8
:102EF0007A79BC6142F080027A715AE0C4F50075BB
:102F0000ADB24545BA68C4D8017C4069023A8A40EE
:102F10000644B5F5007F1644C3D1DAF80020964286
:102F200004BF4FF0FF32CAF800202A4A3146106829
:102F30005A46FFF715FC00283FF475AF0BF5007BF0
:102F40004FF40075CBE700F05DF800283FF46BAF5D
:102F50002149CAF800600A7842F001020A70ABE722
:102F600003AA00F0FBF800283FF460AF386A1B4B5F
:102F700090F82050039A4FF6F871102D18BF19469B
:102F80008A4280D33846FFF76FFC00283FF44BAFEE
:102F9000386ABA6878E7019B002B7FF45CAF08E0E1
:102FA0000F4B7A791B6823B1019B13B142F0800269
:102FB0007A71120709D5BB79002B3FF434AF38463C
:102FC000FFF71CFC00283FF42EAF019805B0BDE8C8
:102FD000F08F00BF5C0B0020600D0020F8FFFF0F9A
:102FE000540B0020600B002038FCFF1F00B583B09D
:102FF00002AB012203F8011D1946FFF70BFF03B0D6
:103000005DF804FB70B50F4C23780BB9012070BD3F
:103010000D4B0E4D196828680D4AFFF7A1FB70B1E2
:103020000C4E316819B900232370012070BD286847
:10303000074AFFF795FB10B100233360F3E7002048
:1030400070BD00BF600D002038FCFF1F5C0B00202E
:10305000600B0020580B002070B50D4D2B6883428B
:103060000E460ED00446FFF7CDFF08B9002070BD14
:10307000084B094A18682146FFF7ACFA0028F5D03A
:103080002C60064B197831431970012070BD00BFC8
:1030900038FCFF1F5C0B0020600B0020600D00203F
:1030A000F8B590F82030C469102B1A4B05460E462F
:1030B00017461B6816D004EBD1149C4216D106F0BB
:1030C0007F06154A42F826701449287E0A7801289E
:1030D00042F001020A7018D9A968114A0B44136022
:1030E0000120F8BD04EB11249C4208D000212046A9
:1030F000FFF7B2FF50B195F82030102B07D1F6B290
:10310000054A234622F81670DEE70120F8BD234663
:10311000D5E700BF38FCFF1F600B0020600D0020CA
:10312000580B002010B50446FFF76CFF78B1084B30
:10313000002103F5007203F8011F9342FBD1054AF9
:10314000054913780C6043F001031370012010BD92
:103150005F0B0020600D002038FCFF1FC3680133A7
:103160008B4218D370B590F82030102B154B0446C5
:1031700016460D46C0691B680FD000EBD11098426F
:103180000FD105F07F01104B53F8213023F070432D
:103190003360012070BD0020704700EB1120984281
:1031A00007D00021FFF758FF50B194F82030102BC2
:1031B000E7D1E9B2044B33F811303360012070BD20
:1031C000002070BD38FCFF1F600B00202DE9F04788
:1031D00082B002ADDFF8508045F8041D04469146E8
:1031E0004FF0000A4FF400774FF6F8760CE094F8B1
:1031F0002030227C0199102B14BF4346334607FA36
:1032000002F29942924408D22A462046FFF7A6FFCE
:103210000028ECD102B0BDE8F0870120C9F800A079
:1032200002B0BDE8F08700BFF8FFFF0F2DE9F04FB7
:10323000176883B06FB301374FF0000AC36803F11A
:10324000010813B38B46064691463C46002505E02F
:103250001C461F46F3680135AB4216D9A04538BF5E
:103260000224214601AA304638BF2746FFF776FFE1
:10327000631CD91B48B1019A002AE9D18B4510D0B3
:103280001C46F3680135AB42E8D8002003B0BDE826
:10329000F08FA1F1010ABAFA8AFA07684FEA5A1ABE
:1032A000CCE7012CF1D9F36801339C42EDD86FF0E3
:1032B000704221463046FFF7F3FE0028E5D0A742D2
:1032C00014D2013C012CE0D9F36801339C42DCD8D4
:1032D000621C21463046FFF7E3FE0028D5D0A74206
:1032E00004F1FF3402D0012CEED1CEE7D9F8001062
:1032F00059B10129C9D9F36801339942C5D83A4671
:103300003046FFF7CDFE0028BFD0C9F80070BAF1F3
:10331000000F01D0013737600120B7E701290AD932
:10332000C3680133994210B402D810BCFFF7B8BE8D
:10333000002010BC70470020704700BFF0B502238A
:1033400083B00546134F03600C464FF6F8760FE046
:10335000EB6801339C4216D8FFF7A2FE98B195F8AE
:103360002030019C102B0CBF33463B469C420DD2B3
:1033700001AA21462846FFF7F1FE2146002210B19E
:10338000012C2846E4D8002003B0F0BD012003B092
:10339000F0BD00BFF8FFFF0FF8B53E4B05461960C2
:1033A0001446DAB1042A01D90020F8BD00210846EC
:1033B000FFF752FE0028F7D0374B03EB041292F8C8
:1033C000AE215206F0D11B3403EB0414D4F80A30BA
:1033D000632BE9D9D4F80640002CE5D00021204623
:1033E000FFF73AFE0028DFD02B4AB2F80B30B3F5D6
:1033F000007FD9D1117C0029D6D0D389002BD3D01E
:10340000567B002ED0D0002329762E712B740127F5
:1034100003E009290B462974C6D007FA03F0B0422D
:1034200003F10101F5D1D68A1B4906B94E6AB2F8FB
:103430000EE0AE60A644C5F81CE0B2F81110177C8F
:103440006984480106FB07E600F2FF1006EB6020E6
:103450006E626861B2F813100F4E01B9316A241A16
:103460000C4424FA03F340F6F4718B42EB600BD961
:103470004FF6F4718B4285BFD36A6B621023202311
:1034800085F820300120F8BD0C2385F8203001207C
:10349000F8BD00BF5C0B0020600B00200A4B1B78BE
:1034A00013B90A4B1B786BB1094A1378202B07D844
:1034B00010B4581C074C1070E154012010BC704728
:1034C0000123037100207047C60D0020890D0020E4
:1034D000C70D0020680D0020704700BF024A034B53
:1034E00010781B78C01A7047C50D0020C40D00204D
:1034F000064A074913780978994204D90548591CA6
:10350000C05C117070474FF0FF307047C40D002051
:10351000C50D00208C0D0020054B064A1B78127843
:103520009A4286BF044AD05C4FF0FF30704700BF1C
:10353000C40D0020C50D00208C0D002070B50D4B72
:103540001B78144613B90C4B1B788BB10B4E357896
:10355000C5F12103A34202D201221C460271084890
:1035600022462844254400F0D1F93570204670BD2C
:10357000184670BDC60D0020890D0020C70D002023
:10358000680D0020124BDB7803F020034BB1114A89
:1035900013780133DBB2012B137012D9122000F023
:1035A000E3BB10B5122003F0FF0400F0DDFB0A4B73
:1035B0001B685BB109490A4A0C701078BDE81040DD
:1035C0001847084B1B78002BE8D0704710BD00BF90
:1035D00000600640B00D0020640D0020C40D0020E6
:1035E000C50D0020890D00200D4A0E4BF0B50020BE
:1035F0000D4C10702268DFF838E00C4F42F04002AA
:1036000022604FF419712826032520248022987007
:10361000CEF8001039605E709D715C719A70F0BDDB
:10362000890D0020006006403480044008A004405A
:103630000CA0044010B5384CE378DBB2D80623D593
:1036400010225906E2701ED503F0040303F0FF02B6
:10365000002B33D0314B32491A68324C00230B70A7
:103660002370002A3BD090472378002B37D02E4B75
:103670001B78294A2D49D02494701371264B0120C0
:1036800002220870DA7010BD5A06DDD4A27802F06A
:10369000100202F0FF0042B313F001031BD12349D3
:1036A00020480A780078904281BF1F4B501C9B5CD9
:1036B00008702371184BD0229A7008E01C48164BF2
:1036C000174902700120C02208709A701B79124BB2
:1036D0000222DA7010BDC023A3702379F7E71249E4
:1036E000002301220B702270C3E7124B124918709D
:1036F0000322122000F0BCFA0D4923790A781F2A10
:10370000DBB2E4D8064800780028E0D00B4C501C0F
:10371000A3540870DBE700BF00600640AC0D00203A
:10372000610D0020C70D0020680D0020C80D00208D
:10373000C50D0020B00D0020853500008C0D002047
:103740000548064A10B40123054C03704900137064
:10375000217010BC704700BFC60D0020C70D0020AF
:10376000680D00202DE9F047584C1223E370A37830
:1037700003F0200382B0002B54D0B423DFF860A103
:10378000A370DAF80020514C0020E378DBB29342BA
:1037900018BF01209F061A46F7D5002840F08D80FB
:1037A0004B4B1B78002B34D003F1FF3C5FFA8CFCB1
:1037B0000027DAF80020DFF82CE1444D0CF1010C71
:1037C0003C464FF002081EF8013F2B715FFA87F963
:1037D000104601E09E0608D5EB78DBB293421CBF91
:1037E000184601249E071A46F4D585F80380EE7822
:1037F000F6B2B3420EBF024632460124F30633D47A
:10380000B30631D5F30744D401376745DBD1002C2B
:103810004AD1002000292ED12E4B00221A7002B06E
:10382000BDE8F0872C4DDFF8B8A003F0FF022B684D
:103830000093009EDAF8000005E02B680193019BDD
:103840009B1B0F2B1BD8E378DBB2834218BF0122EE
:1038500013F0200F1846F0D192BB20481B4B0024D8
:10386000B02204709A708CE70CBB184B80229A70BF
:1038700004200029D0D0154B80229A70CCE7CAB919
:10388000124B00218022042099709A7002B0BDE88A
:10389000F087C4B90D4BB9F1000F4FF080020CBF97
:1038A000022003209A70B7E7CAF80020B1E7CAF8EF
:1038B0000020DAE7CAF80000E2E7CAF800306FE754
:1038C000CAF80030C9E7CAF80020E3E70060064004
:1038D000C70D0020C60D0020CC0D0020890D002052
:1038E0003CFCFF1F670D00200121FFF73BBF00BF1D
:1038F000044B054A1A604FF47A71002299601A71DC
:103900001A737047B40D0020F46A0000844641EA3F
:10391000000313F003036DD1403A41D351F8043B47
:1039200040F8043B51F8043B40F8043B51F8043B99
:1039300040F8043B51F8043B40F8043B51F8043B89
:1039400040F8043B51F8043B40F8043B51F8043B79
:1039500040F8043B51F8043B40F8043B51F8043B69
:1039600040F8043B51F8043B40F8043B51F8043B59
:1039700040F8043B51F8043B40F8043B51F8043B49
:1039800040F8043B51F8043B40F8043B51F8043B39
:1039900040F8043B51F8043B40F8043B403ABDD2A8
:1039A000303211D351F8043B40F8043B51F8043B4A
:1039B00040F8043B51F8043B40F8043B51F8043B09
:1039C00040F8043B103AEDD20C3205D351F8043BD9
:1039D00040F8043B043AF9D2043208D0D2071CBFA5
:1039E00011F8013B00F8013B01D30B8803806046CE
:1039F000704700BF082A13D38B078DD010F0030344
:103A00008AD0C3F10403D21ADB071CBF11F8013BB3
:103A100000F8013B80D331F8023B20F8023B7BE702
:103A2000043AD9D3013A11F8013B00F8013BF9D22D
:103A30000B7803704B7843708B78837060467047C7
:103A400030B42948294A2A4B2A4D6024E1210470C8
:103A500011701B78284C082B30D00A2B2748284996
:103A600037D00C2B0CBF15223D2212232A60236075
:103A700002600B60234B24491B78244ABBB101230D
:103A80000B601360224B23491B78234A012B26D954
:103A9000042B0FD9082B1ED9102B94BF8623872304
:103AA0000B6013601D4B01221A7030BC70470B6015
:103AB0001360E7E784230B601360F3E700F58E20C3
:103AC0000F490830012213232A60236002600B6033
:103AD000D0E71922F7E785230B601360E2E7802324
:103AE0000B601360DEE700BF004007400140074065
:103AF00040FCFF1F08B003400CB0034008B00B406F
:103B00000CB00B40CA0D002020B0034020B00B4089
:103B100041FCFF1F24B0034024B00B40C90D00201E
:103B200008B5104C08E0236859050DD423681A0520
:103B30000FD42368DB0411D423685803F3D500F0B5
:103B40000FFB23685905F1D500F00EF823681A051C
:103B5000EFD500F009F82368DB04EDD500F004F898
:103B6000EAE700BF3480044008B5FFF7D9FF00BF83
:103B7000014B10221A80704700200540704700BF9B
:103B8000094908B50B6830B16A461844A2F580525D
:103B9000904202D20860184608BD02F089F80C2352
:103BA00003604FF0FF3008BD44FCFF1FFEE700BF7D
:103BB000704700BF10B40F4B53F8302092F880428A
:103BC0002CB1012369B182F8803010BC704703EB3F
:103BD000C0035B681A6841B922F002021A6010BC87
:103BE000704782F8003110BC704742F003021A603F
:103BF00010BC7047106B00001C4A02EBC003012987
:103C00005B6811D004291BD052F83000002280F8E4
:103C1000802229B1022920D0032922D01A607047BE
:103C20004FF480721A60704752F830004FF4A2725D
:103C300080F880121A601A6822F020021A60704719
:103C400052F830104FF4A272012081F880021A60FD
:103C50001A6842F020021A60704740F203121A609C
:103C600070474FF481721A60704700BF106B0000FC
:103C7000212848D8F8B5042A44D8DFE802F0484B98
:103C80004E0345004FF410262B4B03EBC0030D46AB
:103C90005C68216811F4E06148D0284B284A294922
:103CA000C3F89C2104F140422748C3F8A411A2F5AF
:103CB0009221264FC3F8A0017C292548C3F8A8719A
:103CC000C3F8AC012CD9A2F594237C2B2AD9A2F5F8
:103CD00096237C2B28D9A2F598237C2B29D9A2F5F1
:103CE0009A227C2A27D81B4872B6236823F47023B3
:103CF00043F08072C4F384011643236040F82150DE
:103D0000266062B6F8BD70474FF43026BCE74FF42A
:103D10000026B9E74FF44026B6E74FF42026B3E774
:103D20000D48E1E70D48DFE70D48DDE7FFF764FFE9
:103D3000B3E70C48D8E7F8BD106B000000F6FF1F92
:103D4000D1FBFF1F79FBFF1FA5FBFF1F4DFBFF1FD3
:103D500021FBFF1F20FDFF1F48FCFF1F80FCFF1FF2
:103D6000D0FCFF1F00FDFF1F1A4B03EBC00010B477
:103D7000426802F14043A3F592217C2923D9A3F59F
:103D800094217C290DD9A3F596217C291FD9A3F56F
:103D900098217C2919D9A3F59A237C2B11D80E4C94
:103DA00000E00E4C72B613680D4823F08773C2F31F
:103DB000840123F4803343F08073136044F82100BE
:103DC00062B610BC7047074CECE7074CEAE7074CBB
:103DD000E8E700BF106B000020FDFF1F80FCFF1F05
:103DE000B13B000048FCFF1F00FDFF1FD0FCFF1F80
:103DF00030B4054B054D064C002210211A602A6094
:103E00002060196030BC704714D0034004D00340D8
:103E100000D00340212801D8FFF7CCBE704700BF77
:103E2000212801D8FFF7E8BE704700BF2DE9F8430D
:103E3000054672B6214F224B224A1B683C68126825
:103E400062B6520102D5322B88BF0134A5B3C3F547
:103E50008C331D4EDFF86890DFF8688003F23F1363
:103E60004FF47A72A6FB031302FB04F404EB131461
:103E700072B6D9F800103A68D8F800E062B6C1F519
:103E80008C3303F23F13A6FB03031EF0806FC4EBD9
:103E900013134FF47A7002D0322988BF013200FB2D
:103EA0000233B3F57A7F04D3013D05D004F57A746B
:103EB000DEE701F093FBDBE7BDE8F883CC0D0020E3
:103EC00018E000E004ED00E0398EE338F8B52D4B42
:103ED0002D49DFF8D0E0DFF8D0C02C4E2C4D2D4C12
:103EE0002D4A2E4F4FF4000018604FF0807018607C
:103EF0004FF0007018604FF0806018604FF0006065
:103F0000186000200860282348F6FF71CCF80010E4
:103F1000CEF80030336013602B6023603B60B362E7
:103F20009362092245F8242CC4F8D80F05F57F6563
:103F3000C7F8D41F07F5FF2707F5FA67C6F8F83F5B
:103F40002B6006F5FF26C4F8D42F05F5FD2504F5F2
:103F5000FF24386006F2F4761148316005F5FF65FC
:103F600004F5FD642B6023600260FFF769FD1920F2
:103F7000FFF75CFF00F05AFE40F21310BDE8F84076
:103F8000FFF754BF08E100E00480034014800340C1
:103F9000248003402C8003401C8003403480034075
:103FA00000800B400C80034008800340431E032B1D
:103FB00014D872B60A4951F8230068B170B4094C9C
:103FC000058834F81320466841F82360521B24F812
:103FD000132062B670BC704762B67047002070470D
:103FE000280E0020580F0020013803280BD872B685
:103FF000074B53F8203043B100205B680130002BA1
:10400000FBD162B67047002070471846F9E700BF41
:104010007C0E002030B472B62B4A13781D0706D5EB
:104020002A4B196A002936D0996A002941D0537861
:104030001C0706D5254B196C00293ED0996C002928
:1040400039D09378190705D5204B196E002936D041
:10405000996E89B1D3781B0707D51C4BD3F8802004
:104060007AB3D3F8882011213AB162B6184B0022F6
:104070001A7030BC00F056BE0D21154C154D22783B
:1040800043F8315003EBC1030830013A5860227005
:1040900062B630BC704704220D4C0F4D217843F8B6
:1040A000325003EBC20308304A1E5860227062B6D9
:1040B000EFE70521E1E70921DFE70822ECE70C2221
:1040C000EAE71022E8E700BF4C6C00000080FF1F09
:1040D000A50E0020C800400088004000431E032BAE
:1040E0001DD81B4A400140F0100030B4104472B695
:1040F000184CE25C032A1BD8DFE802F00212151705
:1041000003220D88E25410F0080F14BFC82388233F
:1041100043EA054308310360416062B630BC704732
:1041200008300222EDE70522EBE708300422E8E739
:10413000094A52F8230038B1084A52F82300416076
:1041400042F8231062B6E9E742F82310034AF7E782
:104150000080FF1FB40E00207C0E00208C0E00207B
:104160002DE9F04FDFF818B3DFF818A387B044E06B
:10417000AE4F4FEA930807EBC809013ED9F8042077
:1041800003F00803F6B2A2F1080003F0FF04002BCD
:1041900040F0048157F838301B0C99B222F8081C03
:1041A000002B00F0F280A24B22F8064C42F8044C9F
:1041B00053F82620002A00F06E819E4D55F82630D7
:1041C00058609D4C45F8260034F81630194424F800
:1041D000161000F087FD002800F05681974A984B92
:1041E00019F0080F00F1080018BF1346C9F80400C1
:1041F00047F8383008238BF800309BF80040E4B2D1
:1042000061071BD58F4B1B78ABB18F490A7802F041
:10421000FF032AB1013BDBB20B70002B00F0EF84EF
:104220008A490A7802F0FF032AB1013BDBB20B7026
:10423000002B00F0F78004238BF8003004F0080313
:1042400003F0FF02002B00F0D6809AF80030DBB2BA
:104250001E098DD19C08DFF8D49159F8342009EB60
:10426000C401C2F38302013A49680C2A7ED8DFE810
:1042700002F081817D7D7D7D7D7D477D7D7D070097
:104280000868734D4A68734F734E286081B240F2DC
:1042900081606A4B6A604FF0010E0022814249F84A
:1042A00034303A60C9F81020C9F8182086F800E0C8
:1042B0005E4C00F2F480B1F5D06F80F07883B1F5F8
:1042C000817F00F0628300F28782802900F0EC8217
:1042D000822940F01E83A98801F07F01042900F2A1
:1042E00018835E485E4C8900084422706270027830
:1042F000930740F1798384F800E04FF0020ED8E292
:10430000544F3A6842B3574B534E57491888347844
:104310000D784028864645F0020828BF4FF0400E31
:10432000002C84F001043470CEEB00000CBF882414
:10433000C82409EBC80680B285F0010544EA0E44A2
:104340007260188049F8384072440D7018B9BEF197
:10435000400F18BF00223A603D4B1A88B2F5A06F9B
:1043600004D100219A785970404B1A70404A0123B9
:1043700013703FE7364A158842F22100854200F06B
:10438000FF812E4A49F83420F0E72C4A2C4B19F0D3
:10439000080F18BF134647F838302BE700F0C2FC6F
:1043A000344A354952F82630002B00F0B68158685F
:1043B0008C5D42F8260003F10802C9F80420032CA2
:1043C00005D8DFE804F0120F150204228A551A8876
:1043D00019F0080F0CBF8823C82343EA024347F8AB
:1043E000383007E702228A55F1E703228A55EEE7C3
:1043F00005228A55EBE7E00700F11A82210600F159
:104400004982A20706D51D4A1D4913780220DBB256
:1044100013700870E30602D5194B10221A7007B00A
:10442000BDE8F08F00F0EAFD05E700BF0080FF1F48
:10443000280E0020D40D0020580F0020C800400096
:1044400088004000B00E0020390E0020B80E002079
:104450009C0E0020D00D0020380E0020C020074008
:10446000A80E0020E40D0020A40E00209820074094
:10447000942007407C0E0020B40E002088200740C6
:104480008020074090200740AB4A47F83800137857
:1044900001331370AEE643F82600A84D91E642F2D0
:1044A0002100814200F0358100F2AF81B1F5086F43
:1044B00000F01B82B1F5106F40F02B82226AA049F8
:1044C000A8780870120600F14583D9F828209D4984
:1044D000130600F13A83D9F830209A49150600F105
:1044E0002F83D9F838209749140600F12483D9F88E
:1044F00040209449100600F11983D9F848209149C9
:10450000120600F10E83D9F850208E49130600F1EF
:104510000383D9F858208B49150600F1F882D9F8A1
:1045200060208849140600F12983D9F8682085495C
:10453000100600F11E83D9F870208249120600F19E
:104540001383D9F878207F49130600F10883D9F83E
:1045500080207C49150600F11C83D9F88820794910
:10456000140600F11083D9F890207649100600F166
:10457000C882D9F898207349120600F1BC827248AB
:10458000724A7349019073486C4D734C0497002331
:1045900005960295804617460E461D4603943868D8
:1045A00028B1446800F0BEFB2046002CF9D100235E
:1045B0003B60029B30681A46002342F8253028B140
:1045C000446800F0AFFB2046002CF9D10022326095
:1045D000019A98F800301146002241F8042B039A02
:1045E0000191023B4FF0000122F81510032B09D86E
:1045F000DFE813F04B0104004B0104004FF001030E
:1046000088F800300135042D07F1040706F104068F
:1046100008F10108C3D1514C514B2278464D049FFB
:10462000059E002129701A70130700F14F826278ED
:104630004C49DFF810810A7010074FF00001C9F8EB
:104640003010C9F8381000F12B824749A2780A705F
:104650000021C9F85010C9F858101107DFF8E4809C
:1046600000F1DC81E2784149364C0A7000211207E2
:10467000C9F87010C9F8781000F1B9813378019346
:10468000002183F00102C9F89010C9F898100020A9
:10469000029080468446044635490D7845F0020E66
:1046A00009EBCE030393019B002B039B5C600CBFC3
:1046B0008824C82444EA080385F0010449F83E3000
:1046C00032700C70DFF87CE02A4BDFF8A480002801
:1046D00040F02681BCF1400F1BD144F0020C09EBE5
:1046E000CC03029CDFF85CE05C60002A40F02E8185
:1046F000020442F088029DF804304EF83C20044445
:1047000033700D702346402803D100201A4A3B60C5
:1047100010801A4A0123137028E68B5D032B00F2E8
:104720002D8101A252F823F0F5410000F54100006F
:104730007F48000085480000A50E0020D40D002011
:10474000B00E00200080FF1F8C0E0020280E0020DD
:104750007C0E0020B40E0020580F00204C6C00008E
:10476000C4200740C8200740CC200740D020074085
:10477000A40E0020380E0020E40D002094200740F5
:10478000928892B9B14A0D784878157050708D783A
:10479000C8789570D07010680D79157186284D799C
:1047A00089795571917100F0A580A949A94E0A78BF
:1047B000307882F00105002842F002020D700CBF33
:1047C0008821C82149F8321009EBC20280F00100AB
:1047D000002130705160D4E540F20232914240F045
:1047E0008D80A98801F07F01042900F292806A88F7
:1047F000002A40F08E809848CDF804E089000844F3
:10480000017841F00201017041E742F2212081422A
:104810007BD1A988002940F0E480904B904A9148D0
:10482000AC781D681560CDF804E00A4604702EE7E8
:104830008D4B8E4886491A614FF0020E80F800E0D9
:10484000854F0A708A49196099608A4E8A4D8B4C4F
:104850009A610D213970FF213170DFF840E2297033
:104860002270874D874A8EF800109F27012406F892
:10487000047C5D600470DA6007B0BDE8F08F00234F
:104880008B55B7E401238B55B4E44FF0000388F84F
:104890000030B7E67049784B80220D2008701A70FE
:1048A000A2077FF5B7ADAEE5774C4FF0020E227050
:1048B0006270EA88724580F0A38165490D78402ACC
:1048C000944645F0020E28BF4FF0400C04EB0C0359
:1048D00009EBCE000293012344604FEA0C48CCEB75
:1048E000020001930022C824E4E6684A664C12786C
:1048F0002270DEE7664A0F21117056E7B1F5A06F0E
:1049000007D1012300220193C1E642F221329142F4
:10491000F7D0514A0F231370544A0123137025E531
:1049200040287FF6DAAE44F002040EEBC401029E8A
:104930004E60BAB19DF80410564A1970334640389B
:1049400088F8005040334EF83420DFE69DF80430FC
:1049500033700204029B0D7042F0C80203444EF80B
:104960003C20D0E69DF804101970029B404A88F85C
:104970000050403840334EF83420C7E619F0080F95
:104980000CBF022303238B5534E4A98801F07F0177
:104990000429BED86A88002ABBD12F48CDF804E08C
:1049A00089000844017821F0020101706FE63A4A5B
:1049B0005468002CADD06888B5F804E003E00C32F0
:1049C0005468002CA5D013888342F8D153887345CE
:1049D000F5D1000A03280CBF94F800E0B2F808E013
:1049E00067E7CDF804E052E64FF0020E61E700F011
:1049F00079F9002800F0F18008301D4AC4F88400DD
:104A0000C4F8802000F06EF9002800F0E080083043
:104A1000204AC9F88C00C9F888202FE600F062F916
:104A2000002800F0E6800830114AC8F86400C8F891
:104A3000602000F057F9002800F0D5800830154AB2
:104A4000C9F86C00C9F868200CE600BF600F0020B0
:104A5000A40E0020380E0020C0200740CC0D0020FE
:104A6000680F0020C80E00200080FF1F9420074020
:104A70008800400088200740802007409820074099
:104A8000E80D00203C0E0020A80E0020B00E0020F3
:104A9000390E0020C8004000506C00008C200740F8
:104AA00000F020F9002800F08C8008305D4AC8F83A
:104AB0004400C8F8402000F015F900287BD00830E9
:104AC000594AC9F84C00C9F84820BEE500F00AF977
:104AD00000286AD00830534AC9F82400C9F82020B9
:104AE00000F000F900285AD008304F4AC9F82C00CD
:104AF000C9F828209BE5D1F89C00083800F012F98D
:104B00003DE5D1F89400083800F00CF931E5C86DA6
:104B1000083800F007F902E5486D083800F002F99E
:104B2000F7E4C86C083800F0FDF8ECE4486C08388D
:104B300000F0F8F8E1E4C86B083800F0F3F8D6E4C8
:104B4000486B083800F0EEF8CBE4C86A083800F08B
:104B5000E9F8C0E4606A083800F0E4F8B5E4C86F2A
:104B6000083800F0DFF8F2E4486F083800F0DAF8AF
:104B7000E7E4C86E083800F0D5F8DCE4486E083881
:104B800000F0D0F8D1E4D1F88C00083800F0CAF871
:104B9000E9E4D1F88400083800F0C4F8DDE42A78AC
:104BA000C9F8280001322A7041E52A78C9F82000A6
:104BB00001322A7094E72A78C9F8480001322A7035
:104BC00043E52A78C8F8400001322A7073E72A7852
:104BD000C9F8880001322A7050E52A78C4F88000AC
:104BE00001322A700EE72A78C9F8680001322A706B
:104BF00038E52A78C8F8600001322A7019E700BE4B
:104C0000BEF1400FF44628BF4FF0400C04EB0C03FC
:104C100002930123CCEB0E004FEA0C4800220193D3
:104C20003AE500BF88004000C80040002DE9F84385
:104C3000204C00F06FFD002204F1A00023461A6012
:104C40005A60083383424FF00001F8D11A4A1B4FD3
:104C500013681B4D1B481C4EDFF87880DFF878C0C6
:104C6000DFF87890DFF878E043F480231360C4F332
:104C700007233B70C4F307432B70240EFF2302F578
:104C800028320470114D88F8003011488CF800303B
:104C9000D4323370012389F8003070268EF800106A
:104CA0004FF40074102107F8183C2E700460117046
:104CB000BDE8F8830080FF1F348004409C2007403B
:104CC000B0200740B42007401020074049E400E02E
:104CD00008E100E08020074088200740942007403A
:104CE0000021074072B60D480268B2FA82F30B2B1E
:104CF00010DC4FF00041D94022EA0102026062B6A6
:104D0000074803EBC303DB00C2180021C150104663
:104D10005160704762B60020704700BF28FDFF1F3A
:104D2000BCF7FF1F0D4B0E4AC31AA2FB03231B093E
:104D30000B2B0CD80B4A127852B972B60A484FF0B6
:104D40000041026821FA03F31A43026062B6704719
:104D5000064A1278002AF0D0FFF75CB9BCF7FF1FB3
:104D6000398EE338A50E002028FDFF1FB00E00206D
:104D700038B50F4D286878B143880288C1180133CF
:104D800093420C7A02D24380204638BDFFF7CAFF17
:104D9000002320462B6038BD064B1B782BB1032027
:104DA000FFF704F928600028E6D14FF0FF3038BD46
:104DB000C40E0020B00E002010B5094C206818B1B8
:104DC00043881844007A10BD064B1B782BB1032092
:104DD000FFF7ECF820600028F2D14FF0FF3010BD53
:104DE000C40E0020B00E0020044B054A1B689088BA
:104DF0001BB11A885B88D31A18447047C40E002070
:104E0000580F00200B4B1B789BB110B50A4C206843
:104E100048B1FFF787FF002303202360FFF7C6F8A0
:104E200030B1FFF77FFF0320FFF7C0F80028F8D16B
:104E300010BD7047B00E0020C40E00202DE9F04FC9
:104E4000DFF8F89083B0012289F80020019169B35E
:104E5000DFF8EC80364F019E8346D8F80000B0B3EF
:104E6000344D4488C4F14001B14228BF314604EBBF
:104E7000010E00221FFA8EFE2A70761AA0F802E0B8
:104E800000F1080251B1013C224459441BF8014B86
:104E900002F8014F8B45F9D1B0F802E0BEF13F0FA7
:104EA0000BD8254A05211170002ED6D10198002378
:104EB00089F8003003B0BDE8F08F4022028001463F
:104EC0000420FFF70BF90022C8F80020E9E73A7840
:104ED0002AB3184D48F601444FF0010A07E0013C9F
:104EE00016D02A78A2B900F079FB3A78BAB104203A
:104EF000FFF77AF80728F2D889F800A0FFF7F2FE4A
:104F0000C8F800000028ACD10C4B013C1870E8D167
:104F100001234FF0FF302B7003B0BDE8F08F00236A
:104F20004FF0FF3089F8003003B0BDE8F08F00BFCC
:104F3000B00E0020C00E0020B80E0020B90E0020D8
:104F4000BC0E002000B583B002AB012103F8010DB7
:104F50001846FFF773FF03B05DF804FB38B50E4D3C
:104F60000E4C28680123237028B140880023237049
:104F7000C0F1400038BD0A4B1B7813B900202070E7
:104F800038BD0420FFF730F80728F7D8FFF7AAFE4E
:104F900028600028E9D1F1E7BC0E0020B90E0020FE
:104FA000B00E0020F8B5114B1B788BB1104E114D8F
:104FB000346801272F7064B10F4A63880027177087
:104FC000214623800420FFF789F8376000232B70E7
:104FD000F8BDFFF787FE084B28B1014604201C707E
:104FE000FFF77CF8F2E71F70F0E700BFB00E00207B
:104FF000BC0E0020B90E0020B80E002038B50E4BB4
:105000001B7873B90D4C216861B103F0FF054B8823
:105010000B800420FFF762F8256038BD084B0122A1
:105020001A7038BDFFF75EFE0028F7D00146BDE8D4
:1050300038400420FFF752B8B90E0020BC0E002003
:10504000B80E0020C029F0B428BFC02172B6124BA0
:10505000124E134A18600023138033607360B360EC
:10506000F36033617361012799B15D0903F01F0497
:1050700056F8252007FA04F4013322438B4246F800
:105080002520F2D10023438001338B4200F582704A
:10509000F9D162B6F0BC7047D40E0020DC0E0020BF
:1050A000F60E0020F0B472B6234F244E3C8806F171
:1050B000180306EB8400984212D256F8241099B9CE
:1050C000021D06F11B05631CAD1A03EB950503E0F9
:1050D00052F8041B41B90133AB421C461046F7D1CC
:1050E00062B60020F0BC7047B1FA81F34FF0004285
:1050F000DA4021EA0201016001B9013410493C8023
:105100000A88013294B20C8062B6801B8010C3EB17
:10511000401000EB801083000A480B49006803F53B
:10512000FB531C330125C5540D88AA42184488BF7F
:105130000C80F0BC704700BFF60E0020DC0E002093
:10514000F80E0020D40E0020D00E0020428872B647
:105150000378012B03D9013B037062B670475311EA
:1051600070B40C4C0C4D54F823102E88D2434FF0E1
:10517000004002F01F0220FA02F21143074A44F8ED
:105180002310B34238BF2B801388013B138062B6D3
:1051900070BC7047DC0E0020F60E0020F80E0020D8
:1051A000C368B3B130B401E0DB688BB1187A9042C8
:1051B000FAD158685C7A006950F82450002DF3D178
:1051C00040F82410087801300870DB68002BEDD11E
:1051D00030BC7047437A8B4206D90369002253F8EA
:1051E000210043F82120704700207047037C23BB37
:1051F0004368427A5B7A9A421FD830B472B6046828
:10520000E3682BB3DA6832B119688C4216D01346C2
:10521000DA68002AF8D1D8600023C360A37A01338A
:10522000A37202684168012313728A7A1A448A724F
:1052300042681372037462B630BC70475D6841689F
:105240008D42E4D1198903899942F4D01346DFE7EE
:10525000E060E1E7037C10B5002B32D04368427A6E
:105260005B7A9A422DD872B60268D36843B39842EB
:1052700002D129E0984202D0DB68002BFAD14368C2
:10528000417A1B69044653F8210048B1FFF75EFFDD
:1052900072B66368627A1B69002143F822102268A3
:1052A000937A013B937223689A7A02B91A72626800
:1052B000937A013B937263689A7A1AB1002323743C
:1052C00062B610BD1A72F9E7C368D360D7E700BFB2
:1052D000084B1A7862B930B407480849D0250570E0
:1052E0004FF0804401220C6010461A7030BC7047A9
:1052F00000207047D80E00205EE400E008E100E0E6
:105300001A491B4A1B48F8B50B681B4D046843F04B
:1053100080730B60136843F0010313602E6814B9A7
:1053200015E064699CB1237A002BFAD023682F68BA
:105330001B68204698472B68E188DB1B1B099AB243
:105340008B42A28088BFE2806469002CEBD10A4BBB
:105350000A4A1B6810880A4C9B1B1B0999B283429E
:10536000218001D91180F8BDF8BD00BFFCED00E03F
:10537000001000E0CC0E0020041000E0F40E00202D
:10538000FA0E0020F0B572B699B902688AB10379B5
:105390000F2B0ED8274C218841FA03F5ED070AD5CB
:1053A00003F1007303F59063B2EB431F03D162B6C0
:1053B000F0BD204C2188002341FA03F212F00102D3
:1053C00007D00133102BF7D162B6002203710260BF
:1053D000F0BD01259D402943218062B6164E174D30
:1053E000174FDFF864E0D9B20171346844F0020469
:1053F00034602C6844F002042C60A6F580268224D8
:10540000A5F5802503F100733C6003F59063223E0F
:10541000243D0C4C8EF800105B0131702970217016
:1054200003601A605A609A60DA601A615A619A6180
:10543000DA61F0BDFC0E0020408004403C80044056
:10544000008000401F8000401A80004003790F2B2D
:1054500011D8094A10B4137072B6084904790A8841
:105460000123A34022EA03030B8062B6102200232B
:1054700010BC0271036070471A800040FC0E0020CF
:1054800010B4EFF3108272B6437F33B9017F012964
:1054900007D003290FD00123437702B962B610BCAD
:1054A0007047124C2168A1B1114943610B688361B7
:1054B00008605861EFE70F4C216881B10E494361E4
:1054C0000B688361086058610C4B4FF08051196084
:1054D000E1E7074B4161816120601860DBE7064B23
:1054E0004161816120601860EEE700BF0C0F002071
:1054F000080F0020000F0020040F002004ED00E042
:1055000070B5EFF3108272B60C4C206880B10C4E6F
:1055100000254369236073B19D6102B962B6457786
:1055200083689847EFF3108272B620680028F0D1A4
:1055300002B962B670BD3360EFE700BF000F002014
:10554000040F0020FFF7DCBF024A13680133136029
:10555000704700BFCC0D0020F8B50E4671B17AB18E
:105560000746144600253B6816F8011B1B683846A1
:105570009847013C0544F6D12846F8BD0846F8BDD9
:105580001046F8BD00B5064A036812885B6883B010
:1055900001A9ADF804200222984703B05DF804FB8E
:1055A000206C000008B5FAF7A1FFFAF7E3FF00F05E
:1055B00015F8FAE7FFF726BCFFF7FEBBFFF7D8BBED
:1055C000FFF712BCFFF7EEBCFFF7C8BC0846114658
:1055D000FFF734BC0846FFF7B5BC00BF2DE9F84320
:1055E000314E337893B1314F3A787AB90122D907E5
:1055F0003A7036D49A0719D400225B073A7005D561
:105600002B4B1A6812B1EFF305820AB1BDE8F8839B
:10561000EFF3108172B6186818B1264C2278002A70
:105620002ED00029F2D162B6BDE8F883DFF8908071
:1056300098F80020002ADFD0DFF88890002405E0E9
:10564000013498F80030E4B2A34212D959F824503A
:105650002B6828461B6998470028F1D02B6998478A
:10566000EEE7FFF7C1FBC8B9134B1B781BB93378C2
:10567000C0E73378C0E7337803F0FE033370B9E74F
:1056800045691D60012323705DB1AA6101B962B64D
:1056900000254577836898472570B7E700F07CF8C8
:1056A000E2E7064B1D60F1E73CFDFF1F120F0020F3
:1056B0000C0F0020100F0020E2FDFF1F080F00203C
:1056C000200F0020140F0020F0B44D1E2E460024A1
:1056D00000E00134B0FBF2F302FB1300092800F1F3
:1056E00030078ABF3730F8B2C0B206F8010F18464B
:1056F000002BEED10A1953704CB1107815F8016FD8
:1057000028700133E01A834202F80169F5DB08468C
:10571000F0BC704770B584B072B6194B194D1A4879
:10572000702241260F2480211A702E701A460470B0
:10573000197013781B06FCD5144B186862B6144B0D
:10574000144C984298BF00EB800001A998BF40001C
:105750000A22FFF7B9FF01A92046002311F8012B07
:1057600001333AB10A2B20F8022FF7D11623237008
:1057700004B070BD5B00DBB2237004B070BD00BF2D
:1057800000000240070002400600024008000240FC
:105790007F969800CCFDFF1F704700BF0B46014667
:1057A000184600F07FBA00BF80F0004002E000BF62
:1057B00081F0004142001FBF5FEA410392EA030FFC
:1057C0007FEA226C7FEA236C6AD04FEA1262D2EB46
:1057D0001363C1BFD218414048404140B8BF5B424B
:1057E000192B88BF704710F0004F40F4000020F0E4
:1057F0007F4018BF404211F0004F41F4000121F0FA
:105800007F4118BF494292EA030F3FD0A2F1010243
:1058100041FA03FC10EB0C00C3F1200301FA03F181
:1058200000F0004302D5494260EB4000B0F5000FA4
:1058300013D3B0F1807F06D340084FEA310102F163
:105840000102FE2A51D2B1F1004F40EBC25008BF15
:1058500020F0010040EA03007047490040EB0000DF
:1058600010F4000FA2F10102EDD1B0FA80FCACF10E
:10587000080CB2EB0C0200FA0CF0AABF00EBC2500D
:1058800052421843BCBFD0401843704792F0000FFB
:1058900081F4000106BF80F400000132013BB5E74E
:1058A0004FEA41037FEA226C18BF7FEA236C21D0C4
:1058B00092EA030F04D092F0000F08BF0846704729
:1058C00090EA010F1CBF0020704712F07F4F04D1F7
:1058D000400028BF40F00040704712F100723CBF0A
:1058E00000F50000704700F0004343F0FE4040F434
:1058F000000070477FEA226216BF08467FEA2363F2
:105900000146420206BF5FEA412390EA010F40F4DC
:10591000800070474FF0000304E000BF10F0004328
:1059200048BF40425FEA000C08BF704743F096430F
:1059300001464FF000001CE050EA010208BF70472A
:105940004FF000030AE000BF50EA010208BF7047B1
:1059500011F0004302D5404261EB41015FEA010CC6
:1059600002BF84460146002043F0B64308BFA3F1BE
:105970008053A3F50003BCFA8CF2083AA3EBC253A0
:1059800010DB01FA02FC634400FA02FCC2F12002BF
:10599000BCF1004F20FA02F243EB020008BF20F0F6
:1059A0000100704702F1200201FA02FCC2F120025C
:1059B00050EA4C0021FA02F243EB020008BF20EA51
:1059C000DC7070474FF0FF0C1CEAD0521EBF1CEA7F
:1059D000D15392EA0C0F93EA0C0F6FD01A4480EA6D
:1059E000010C400218BF5FEA41211ED04FF0006356
:1059F00043EA501043EA5111A0FB01310CF0004082
:105A0000B1F5000F3EBF490041EAD3715B0040EAA7
:105A1000010062F17F02FD2A1DD8B3F1004F40EB77
:105A2000C25008BF20F00100704790F0000F0CF04A
:105A3000004C08BF49024CEA502040EA51207F3A0E
:105A4000C2BFD2F1FF0340EAC250704740F40000E9
:105A50004FF00003013A5DDC12F1190FDCBF00F0DA
:105A600000407047C2F10002410021FA02F1C2F188
:105A7000200200FA02FC5FEA310040F1000053EA24
:105A80004C0308BF20EADC70704792F0000F00F072
:105A9000004C02BF400010F4000F013AF9D040EA78
:105AA0000C0093F0000F01F0004C02BF490011F40C
:105AB000000F013BF9D041EA0C018FE70CEAD1530A
:105AC00092EA0C0F18BF93EA0C0F0AD030F0004C8A
:105AD00018BF31F0004CD8D180EA010000F000403E
