:100000000C9468000C94BC190C9495190C949000F5
:100010000C9490000C9490000C9418080C94900090
:100020000C9490000C94850E0C9490000C9490000D
:100030000C9490000C9490000C9490000C94900000
:100040000C94FC240C9490000C94811A0C945B1A70
:100050000C9490000C9490000C9490000C949000E0
:100060000C94B31A0C9490006364696E6F7073758E
:1000700078585B0000000000240027002A000000E0
:100080000000250028002B000000000023002600AF
:10009000290004040404040404040202020202020B
:1000A000030303030303010204081020408001023C
:1000B00004081020010204081020000000080002BB
:1000C00001000003040700000000000000009A3057
:1000D00011241FBECFEFD8E0DEBFCDBF12E0A0E0FD
:1000E000B1E0E4EBF4E702C005900D92A039B1074E
:1000F000D9F726E0A0E9B2E001C01D92A43FB20703
:10010000E1F710E0C8E6D0E004C02197FE010E94AC
:100110001934C736D107C9F70E9446250C94583ABE
:100120000C940000E09113014091140120911501FD
:1001300030E02C5E3F4F322F2227330FF0E24F9FEB
:10014000A00111244E2B242B352BFC01318320835D
:100150002091A5024091A6028091120190E0982F73
:100160008827990F990F990FF0E24F9FA001112452
:10017000842B952B30E035952795822B932BFB0113
:10018000918380830895FC01848583FF0DC084A141
:1001900095A1A6A1B7A1448D558D668D778D841B41
:1001A000950BA60BB70B03C080E090E0DC01811536
:1001B00020E89207A105B10520F08FEF9FE7A0E0AE
:1001C000B0E00895089580E090E008956091C6023F
:1001D00081E068276093C60280919402882319F019
:1001E00081E10E9440248091C9029091CA02019647
:1001F0009093CA028093C90208950C960C94D81E5D
:10020000CF93DF931F92CDB7DEB7698341E050E013
:10021000BE016F5F7F4F0C960E94D81E0F90DF913A
:10022000CF910895EF92FF921F93CF93DF93FC013C
:10023000208120FF32C0EC017C01F7E0EF0EF11CC1
:100240004B815C816D817E81E981FA81970180819A
:1002500091810E947F0F182F811102C010E01EC0F3
:10026000888181FD04C088818E7F888317C0E981E1
:10027000FA814B815C816D817E8184859585A6851F
:10028000B785480F591F6A1F7B1F97018081918195
:100290000E947F0F8111E7CFE1CF11E0812FDF9125
:1002A000CF911F91FF90EF900895CF92DF92EF9240
:1002B000FF921F93CF93DF93EC016A017B01122F12
:1002C0008B819C81AD81BE8184179507A607B707F6
:1002D000F1F0CE010E941201811103C080E090E094
:1002E0001CC012FF06C01882CB82DC82ED82FE8227
:1002F0000EC0E981FA819E01295F3F4FB701A60137
:10030000808191810E94F00F8111EDCFE7CF1370B2
:100310008881182B1883CE010796DF91CF911F910A
:10032000FF90EF90DF90CF900895CF92DF92EF9201
:10033000FF920F931F93CF93DF93EC016A017B0130
:1003400089018D81803251F58C899D89AE89BF8963
:10035000E7E07695679557954795EA95D1F7480F69
:10036000591F6A1F7B1F22E0CE0180960E94550113
:10037000009711F48FEF40C0E894C7F8DD24EE2415
:10038000FF24CC0CDD1CCC0CDD1CFC01EC0DFD1D98
:1003900080819181A281B381BF701DC0803151F7EE
:1003A0004C895D896E897F894D0D511D611D711DBF
:1003B00022E0CE0180960E9455010097D9F2DD24FB
:1003C000EE24FF24CC0CDD1CFC01EC0DFD1D808116
:1003D0009181A0E0B0E0488D598D6A8D7B8D4817E2
:1003E00059076A077B0738F0F80180839183A2835D
:1003F000B38381E001C080E0DF91CF911F910F9125
:10040000FF90EF90DF90CF9008956115710579F01E
:10041000FB0101900020E9F73197AF01461B570B14
:10042000DC01ED91FC910280F381E02D099480E0E4
:1004300090E008950F931F93CF93DF93FC012081E9
:10044000211102C081E058C0EC01828187FF4BC0BE
:1004500044895589668977898681978121E08096CC
:100460000E945501009729F489818160898380E089
:1004700043C00C811D810F70112725E0000F111F53
:100480002A95E1F7080F191F0115110569F3F80105
:100490008081853E49F3888183FF08C0888D998DCE
:1004A000AA8DBB8D848F958FA68FB78F8C8D9D8DD8
:1004B000AE8DBF8DF801938F828FB58BA48BE091A9
:1004C0009703F0919803309759F0B8016A5E7F4F17
:1004D000C80148960995F801808D918D938B828B88
:1004E0008A818F778A838E819F8180960E941201F4
:1004F000882309F4B9CFA6CFDF91CF911F910F9137
:1005000008950C960C941A024F925F926F927F920C
:100510008F929F92AF92BF92CF92DF92EF92FF9213
:100520000F931F93CF93DF93EC014A015B014C843F
:100530005D846E847F84A881AA2309F491C04889D0
:1005400059896A897B89481559056A057B0509F42B
:100550008DC081149104A104B10429F41C861D8668
:100560001E861F8678C0A3FF0BC0088D198D2A8DAB
:100570003B8D081519052A053B0508F471C014C008
:10058000A5FF12C0EE81FF818681978125E0880F4B
:10059000991F2A95E1F7A0E0B0E088159905AA0512
:1005A000BB0508F45DC057C0EE81FF81848190E0F7
:1005B00009968A019B010150110921093109082E70
:1005C00004C036952795179507950A94D2F77501BB
:1005D0006401B1E0CB1AD108E108F10804C0F69437
:1005E000E794D794C7948A95D2F7C016D106E2064D
:1005F000F30620F0452B462B472B99F4A6FF05C0A8
:10060000848D958DA68DB78D04C08C8D9D8DAE8DFE
:10061000BF8D8C879D87AE87BF878E01045F1F4F7C
:1006200015C0C01AD10AE20AF30AF7CF4C855D85DE
:100630006E857F8598018E819F810E94950191E052
:10064000C91AD108E108F108181654F4C114D104EC
:10065000E104F10459F7888A998AAA8ABB8A06C0FC
:100660004C865D866E867F8680E001C081E0DF91EA
:10067000CF911F910F91FF90EF90DF90CF90BF909F
:10068000AF909F908F907F906F905F904F90089564
:10069000FF920F931F93CF93DF931F92CDB7DEB7D7
:1006A0008C01FC0180899189A289B3899C01AD01EB
:1006B00075E056954795379527957A95D1F7F22F9E
:1006C000FF70FF2E11F0611114C0BE016F5F7F4FEC
:1006D000C8010E94FA1D813019F080E090E01AC034
:1006E000F80180899189A289B3894F96A11DB11D16
:1006F00004C08096A11DB11DF801808B918BA28B47
:10070000B38BF801868197818796F0E2FF9E800D7A
:10071000911D11240F90DF91CF911F910F91FF90A8
:100720000895FC018081811114C080E2DF01982FBF
:100730001D929A95E9F777836683DB0115969C9164
:10074000903119F0903229F480E4808381E0828333
:10075000089580E00895CF93DF93EC010E941A0280
:100760001882DF91CF9108953F924F925F926F92DE
:100770007F928F929F92AF92BF92CF92DF92EF9231
:10078000FF920F931F93CF93DF93CDB7DEB72897D8
:100790000FB6F894DEBF0FBECDBF4C01DC01129640
:1007A0008C911297806812968C9312971C964D909C
:1007B0005D906D907C901F971696AD90BC901797AA
:1007C000411451046104710461F4D50118968D91AE
:1007D0009D910D90BC91A02D8D839E83AF83B88792
:1007E00004C04D825E826F827886CD80DE80EF808D
:1007F000F884BFEFCB1ADB0AEB0AFB0AF501808D08
:10080000918DA28DB38D8C159D05AE05BF0528F485
:1008100082E0C82ED12CE12CF12C9E012F5F3F4F9E
:10082000B701A601C5010E94950187FD20C088235C
:1008300041F089819A81AB81BC81892B8A2B8B2BDA
:1008400051F08D819E81AF81B885C816D906EA0620
:10085000FB0679F60CC00FEF1FEF2FEF3FE0B7015B
:10086000A601C5010E945010382E811102C0312C02
:100870001BC0411451046104710451F097018601B9
:10088000B301A201C5010E945010811108C0EFCF31
:10089000D5011896CD92DD92ED92FC921B97F40152
:1008A000C486D586E686F786832D28960FB6F894FB
:1008B000DEBF0FBECDBFDF91CF911F910F91FF9093
:1008C000EF90DF90CF90BF90AF909F908F907F90F0
:1008D0006F905F904F903F9008958F929F92AF924C
:1008E000BF92CF92DF92EF92FF92CF936091A702D7
:1008F0007091A8028091A9029091AA022091DA0237
:100900003091DB024091DC025091DD020E942E33D7
:10091000181684F48091A7029091A802A091A902D0
:10092000B091AA028093DA029093DB02A093DC02DA
:10093000B093DD028091D90281119CC06091A70221
:100940007091A8028091A9029091AA02C090AC0275
:10095000D090AD02E090AE02F090AF028090D40251
:100960009090D502A090D602B090D702C1E020911D
:100970000C0130910D0140910E0150910F010E9428
:100980002E3318160CF0C0E081E09091D80291113E
:1009900080E08C2321F1C701B601681979098A0921
:1009A0009B092CE330E040E050E00E94DD33809171
:1009B000100190911101A0E0B0E082179307A40705
:1009C000B50768F4C1E0C093D80261E086E00E94F8
:1009D000402461E089E00E944024C093D30220912A
:1009E000A7023091A8024091A9025091AA026091F9
:1009F000DA027091DB028091DC029091DD020E94AC
:100A00006931209108013091090140910A0150910A
:100A10000B010E942E3318166CF591E08091D802DC
:100A2000813009F090E081E02091020130910301D2
:100A3000121613060CF080E08923E1F0C1E0C093A8
:100A4000D90261E085E00E944024C093D2028091E7
:100A5000AC029091AD02A091AE02B091AF02809332
:100A6000D4029093D502A093D602B093D70282E02D
:100A70008093D8028091D802823031F56091A7022C
:100A80007091A8028091A9029091AA02209104017C
:100A90003091050140910601509107010E94D63125
:100AA00087FF12C08091A7029091A802A091A9028D
:100AB000B091AA028093DA029093DB02A093DC0249
:100AC000B093DD021092D8028091D4029091D502A9
:100AD000A091D602B091D7024091AC025091AD02E4
:100AE0006091AE027091AF022091D9022130B9F429
:100AF0000A96A11DB11D84179507A607B70778F4BC
:100B000084E10E94AB24883C91054CF460E085E0D0
:100B10000E9440241092D20282E08093D9028091F8
:100B2000D902823089F58091AC029091AD02A091FA
:100B3000AE02B091AF02C090D402D090D502E09046
:100B4000D602F090D702BC01CD016C197D098E0947
:100B50009F092CE330E040E050E00E94DD338091BB
:100B60000101281788F060E089E00E9440248EE0AF
:100B70000E941724892B41F460E086E00E94402403
:100B80001092D3021092D902CF91FF90EF90DF9094
:100B9000CF90BF90AF909F908F9008953F924F92CB
:100BA0005F926F927F928F929F92AF92BF92CF92FD
:100BB000DF92EF92FF920F931F93CF93DF93CDB706
:100BC000DEB760970FB6F894DEBF0FBECDBF162F0D
:100BD000342EC22EDE2C9CE0E5E6F1E09E012F5F74
:100BE0003F4F7901D90101900D929A95E1F7282F95
:100BF00030E0225E3F4FA901330F660B770B2A01CD
:100C00003B0192E075946794579447949A95D1F775
:100C1000837011F4133020F4812C912C540107C0FF
:100C200080E8882E81E5982EAA24A394B12C9A01FD
:100C3000AB01241935094609570960E873E381EED1
:100C400091E00E94A5336D877E878F87988BA301E3
:100C5000920160E075E882EE91E00E94A5334D8438
:100C60005E846F847888460E571E681E791E480C75
:100C7000591C6A1C7B1C5701E12FF0E03197C5011C
:100C80008E199F098E179F0784F4D5018D915D0100
:100C9000A82FB0E020E831E541E050E00E940E349A
:100CA000460E571E681E791EEACF202F30E0ACE3B7
:100CB000B0E00E94FF334B015C018D0C911CA11C24
:100CC000B11C2C2D30E0A0E1BEE00E94FF33860E67
:100CD000971EA81EB91EA32DB0E020E831E541E023
:100CE00050E00E940E34DC01CB01880D991DAA1D35
:100CF000BB1DBC01CD01640D751D861D971D609641
:100D00000FB6F894DEBF0FBECDBFDF91CF911F911C
:100D10000F91FF90EF90DF90CF90BF90AF909F909A
:100D20008F907F906F905F904F903F900895CF92FB
:100D3000DF92EF92FF920F931F93CF93DF93CDB784
:100D4000DEB727970FB6F894DEBF0FBECDBF81E0A8
:100D50008093980288E680939702109296021092F0
:100D6000950280E090E00E94802160E086E394E0BC
:100D70000E94E11B40E067E088E60E946117109244
:100D8000E4028093E302CE0101967C018C016801AC
:100D9000CE18DF089091E3028091E402981741F0A9
:100DA00086E394E00E941B19F80181938F01EFCF35
:100DB00086E394E00E943C1CF7E0CF16D10409F0D2
:100DC00054C08981982F9695969596959E71292F56
:100DD000220F220F920F8F70890F8093A5028A81B4
:100DE000982F9695969596959E71292F220F220FF2
:100DF000920F8F70890F8093A6028B81982F969502
:100E0000969596959670292F220F220F920F8F702C
:100E1000890F809312018D81982F969596959695BE
:100E20009E71292F220F220F920F8F70890F8093AE
:100E300013018E81982F9695969596959E71292FE0
:100E4000220F220F920F8F70890F809314018F81D0
:100E5000982F9695969596959E71292F220F220F81
:100E6000920F8F70890F80931501E090A502009179
:100E7000A60220911201409113016091140180910A
:100E800015010E94CE056093AC027093AD02809371
:100E9000AE029093AF0227960FB6F894DEBF0FBE56
:100EA000CDBFDF91CF911F910F91FF90EF90DF9019
:100EB000CF900895CF92DF92EF92FF920F931F93FE
:100EC000CF93DF9300D000D01F92CDB7DEB765E09F
:100ED00070E080E490E00E94A3178E010F5F1F4F27
:100EE0009091E3028091E402981741F086E394E048
:100EF0000E941B19F80181938F01F2CF6A817B81D7
:100F000076276727762780E090E00E947C3220E0F9
:100F100030E040E856E40E94693120E030E048E4E7
:100F200053E40E94333320E030E040E058E30E9475
:100F3000333320E030E0A9010E946A3120E030E044
:100F40004AE754E40E9433336B017C0120919902FB
:100F500030919A0240919B0250919C020E9469310B
:100F600026E031EC4EED52E40E94DB316093A702A3
:100F70007093A8028093A9029093AA026C817D814C
:100F800076276727762784E0769567958A95E1F737
:100F90006851710980E090E00E947C322DEC3CECBD
:100FA0004CE45DE30E94333320E030E048E452E457
:100FB0000E9469316093CE027093CF028093D00279
:100FC0009093D102C0929D02D0929E02E0929F0225
:100FD000F092A0020F900F900F900F900F90DF9162
:100FE000CF911F910F91FF90EF90DF90CF900895D8
:100FF00081E08093980280E4809397021092960299
:10100000109295028CEA90E00E94802186E394E0A1
:101010000C943C1C84B7877F84BFE0E6F0E08081BD
:101020008861808386E080838081806480830895E6
:101030001F920F920FB60F9211240F900FBE0F90B8
:101040001F90189585E10E94AB24BC01990F880B75
:10105000990B0E947E3227E230EA49E85BE30E9466
:1010600033336093A1027093A2028093A302909302
:10107000A40208958F929F92AF92BF92CF92DF9277
:10108000EF92FF920F931F93CF93DF93CDB7DEB70D
:101090006A970FB6F894DEBF0FBECDBF8091CC0229
:1010A0009091CD0201969093CD028093CC0286EC74
:1010B00096E0892B09F4B8C060E084EC96E00E94C9
:1010C0003F1C6C0107E110E020E030E0AE014F5F13
:1010D0005F4F6DE284EC96E00E94591CC82AD92A21
:1010E00089819A819827892798279093C7068093AA
:1010F000C6068B819C819827892798279093C906DB
:101100008093C8068D819E81982789279827909380
:10111000CB068093CA068F819885982789279827C0
:101120009093CD068093CC0689859A859827892748
:1011300098279093CF068093CE068B859C85982721
:10114000892798279093D1068093D0068D859E8518
:101150009827892798279093D9068093D8068F855A
:101160008093DB06888999899093D3068093D20671
:101170008A899B899093D5068093D4068C899D8912
:101180009093D7068093D6068F898093DC0662E021
:1011900084EC96E00E943F1CC82AD92A01E010E0A6
:1011A00020E030E0AE01465E5F4F64E184EC96E003
:1011B0000E94591CC82AD92A9A8D9695292F2370E6
:1011C0009091DA069C7F922B9093DA0662E084EC91
:1011D00096E00E943F1CC82AD92A01E010E020E0D6
:1011E00030E0AE01475E5F4F61E084EC96E00E9424
:1011F000591CC82AD92A998D990F292F2C709091A2
:10120000DA06937F922B9093DA0601E010E020E05B
:1012100030E0AE01485E5F4F65E184EC96E00E94ED
:10122000591C8C299D2902C083E090E00FB6F894E8
:10123000DEBF0FBECDBF9093DE068093DD068091AA
:10124000C6069091C7060E94B514AB01BC0186E4A6
:1012500094E00E94852165E072E086E494E00E94BB
:10126000591A8091C8069091C9060E94B514AB0125
:10127000BC0186E494E00E94852165E072E086E48A
:1012800094E00E94591A8091CA069091CB060E9460
:10129000B514AB01BC0186E494E00E94852165E0B1
:1012A00072E086E494E00E94591A6091D20670912F
:1012B000D306072E000C880B990B0E947E322AE978
:1012C00039E949E15EE30E943333AB01BC0186E4B6
:1012D00094E00E94852165E072E086E494E00E943B
:1012E000591A6091D4067091D506072E000C880B10
:1012F000990B0E947E322AE939E949E15EE30E94B6
:101300003333AB01BC0186E494E00E94852165E0A3
:1013100072E086E494E00E94591A6091D6067091BA
:10132000D706072E000C880B990B0E947E322AE903
:1013300039E949E15EE30E943333AB01BC0186E445
:1013400094E00E94852165E072E086E494E00E94CA
:10135000591A8091CC069091CD060E945922AB017A
:10136000BC0186E494E00E94852165E072E086E499
:1013700094E00E94591A8091CE069091CF060E9467
:101380005922AB01BC0186E494E00E94852165E00E
:1013900072E086E494E00E94591A8091D006909100
:1013A000D1060E945922AB01BC0186E494E00E9460
:1013B0008521E090CC02F090CD02B7010F2C000CFB
:1013C000880B990B0E947E324B015C0160914404B2
:1013D00070914504072E000C880B990B0E947E32F9
:1013E00020E030E040E05FE30E9433339B01AC013A
:1013F000C501B4010E942E3387FD0CC08091CB0241
:10140000882341F01092CB028091AB02811102C07F
:101410000E94F8078091440490914504E816F9066B
:101420000CF408C18091AB02811102C00E945A07DE
:1014300081E08093CB028091330190913401892B1C
:1014400021F061E084E00E9440240E9497060E94FF
:1014500022086CE286E494E00E94521A6091150121
:101460004AE050E086E494E00E94421A6DE286E48D
:1014700094E00E94521A809114018A3028F460E3AB
:1014800086E494E00E94521A609114014AE050E010
:1014900086E494E00E94421A6DE286E494E00E94A1
:1014A000521A809113018A3028F460E386E494E0B4
:1014B0000E94521A609113014AE050E086E494E0E1
:1014C0000E94421A64E586E494E00E94521A8091D8
:1014D00012018A3028F460E386E494E00E94521AF4
:1014E000609112014AE050E086E494E00E94421AC2
:1014F0006AE386E494E00E94521A8091A6028A3040
:1015000028F460E386E494E00E94521A6091A602F7
:101510004AE050E086E494E00E94421A6AE386E4DE
:1015200094E00E94521A8091A5028A3028F460E368
:1015300086E494E00E94521A6091A5024AE050E0CD
:1015400086E494E00E94421A65E072E086E494E04A
:101550000E94591A40919D0250919E0260919F02F3
:101560007091A00286E494E00E9485216CE286E4FA
:1015700094E00E94521A4091A7025091A8026091F3
:10158000A9027091AA0286E494E00E9485216CE28F
:1015900086E494E00E94521A4091CE025091CF020C
:1015A0006091D0027091D10286E494E00E9485217E
:1015B0006CE286E494E00E94521A4091A10250919C
:1015C000A2026091A3027091A40286E494E00E94BA
:1015D00085216CE286E494E00E94521A8091D30245
:1015E00090E00E94F2146CE286E494E00E94521AA9
:1015F0008091D20290E00E94F21480910001882331
:1016000059F06CE286E494E00E94521A8091C9027B
:101610009091CA020E94F2140E946D041092CD02B1
:101620001092CC021092CA021092C90260E084E0CB
:101630000E94402486E494E00E942C1A6A960FB619
:10164000F894DEBF0FBECDBFDF91CF911F910F91F8
:10165000FF90EF90DF90CF90BF90AF909F908F90D2
:101660000895EF92FF920F931F93CF93DF93CDB71F
:10167000DEB7C856D1090FB6F894DEBF0FBECDBF96
:101680005091A5024091A6023091120120911301C0
:1016900090911401809115011F925F931F924F93B7
:1016A0001F923F931F922F931F929F931F928F938E
:1016B00087E092E09F938F938E010F5F1F4F1F93E0
:1016C0000F930E943A34CE01CD960E9441208DE3C3
:1016D000E82EF12CEC0EFD1E8CE0E80EF11C46E429
:1016E000B801C7010E944A15BE01635C7F4F86E4C2
:1016F00094E00E9426150FB6F894DEBF0FBECDBF52
:1017000080915204811124C061E081E10E94402453
:101710008091C7029091C80201969093C80280936D
:10172000C702CE01CD960E94412042ECB801C7010C
:101730000E944A15BE01635C7F4F86E494E00E94DC
:10174000261564E670E080E090E00E94C224D8CFC5
:1017500060E081E10E94402465E272E086E494E06A
:101760000E94591A80910001882331F06BE772E0E2
:1017700086E494E00E94591A86E494E00E942C1AB0
:1017800082E990E09093980380939703C859DF4FC4
:101790000FB6F894DEBF0FBECDBFDF91CF911F9182
:1017A0000F91FF90EF900895CF93DF931F92CDB7E5
:1017B000DEB7BE016F5F7F4F0E94FA1D019719F4DB
:1017C000898190E002C08FEF9FEF0F90DF91CF9162
:1017D00008950C960C94D40B8F929F92AF92BF9267
:1017E000CF92DF92EF92FF92CF93DF93EC018C8C3C
:1017F0009D8CAE8CBF8CC88CD98CEA8CFB8C0C96E3
:101800000E94D40B97FD08C08C8E9D8EAE8EBF8E2D
:10181000C88ED98EEA8EFB8EDF91CF91FF90EF902C
:10182000DF90CF90BF90AF909F908F9008959F9240
:10183000AF92BF92CF92DF92EF92FF920F931F93DE
:10184000CF93DF930115110509F44BC0F801C58D45
:10185000D68D209709F445C069017A015B01682F94
:10186000178D81E080939802109397021092960250
:1018700010929502E881F9810190F081E02DCE016E
:10188000099560E0CE010E94E11B6C2D613208F0E9
:1018900060E241E0812F0E9461171092E402809380
:1018A000E30290E0A0E0B0E0C816D906EA06FB0625
:1018B000D9F4912C892D90E0A0E0B0E08C159D0525
:1018C000AE05BF05A0F48501090D111DE881F98160
:1018D0000284F385E02DCE010995F801808393946D
:1018E000E9CF83E090E005C086E090E002C080E0B0
:1018F00090E0DF91CF911F910F91FF90EF90DF90DB
:10190000CF90BF90AF909F9008958F929F92AF928B
:10191000BF92EF92FF920F931F93CF93DF93011526
:10192000110549F1F801C58DD68D209721F14901A6
:101930005A017B01682F878D91E0909398028093E4
:1019400097021092960210929502E881F981019017
:10195000F081E02DCE010995E881F9810280F381C3
:10196000E02DA401B701CE010995CE010E943C1CD7
:1019700080E090E002C083E090E0DF91CF911F9182
:101980000F91FF90EF90BF90AF909F908F90089530
:10199000AF92BF92DF92EF92FF920F931F93CF937C
:1019A000DF9300D000D0CDB7DEB77C0160E00E94AD
:1019B0003F1C009719F4C7010E949723F701818FFC
:1019C000928F60E0C7010E943F1C009709F043C05E
:1019D000C7010E9497230097F1F563E0C7010E94B9
:1019E0003F1C0097C1F501E010E020E030E0AE01BF
:1019F0004E5F5F4F61E0C7010E94591C009759F587
:101A00008A81807F876080618A83AE014E5F5F4FED
:101A100061E0C7010E94AE170097E9F460E0C701DA
:101A20000E943F1C0097B9F401E010E020E030E094
:101A3000AE014F5F5F4F63E0C7010E94591C0097E2
:101A400051F4898180628983AE014F5F5F4F63E00B
:101A5000C7010E94AE17F701928F818FD12C84E0CD
:101A6000A82EB12C21E0AE014F5F5F4F60E0C701AF
:101A70000E94E622F701928F818F198121E0AE0149
:101A80004F5F5F4F61E0C7010E94E6228981F70145
:101A9000128E118E183411F4893051F1F701B28E83
:101AA000A18E60E0C7010E943F1C0097B9F401E0DD
:101AB00010E020E030E0AE014F5F5F4F63E0C70110
:101AC0000E94591C009751F4898182608983AE017C
:101AD0004F5F5F4F63E0C7010E94AE17F701818F30
:101AE000928FD394F5E0DF12BDCF84E090E03AC04E
:101AF00088E08C8320E0AE014C5F5F4F61E3C7015B
:101B00000E94E622F701928F818F009771F563E0C2
:101B1000C7010E943F1C009729F58B8180788C605B
:101B200080688B83AE014D5F5F4F63E0C7010E9409
:101B3000AE170097B9F480E18A83AE014E5F5F4F24
:101B400064E0C7010E94AE17009761F48981807438
:101B500089688F7B8983AE014F5F5F4F65E0C70166
:101B60000E94AE17F701928F818F0F900F900F9008
:101B70000F90DF91CF911F910F91FF90EF90DF9029
:101B8000BF90AF900895CF92DF92EF92FF920F93A4
:101B90001F93CF93DF931F92CDB7DEB77C01822FC7
:101BA000F70120A3768F658F41A3411102C098E60B
:101BB00002C099E6F701978F8F3F19F061E00E940C
:101BC0006F24F70180A18F3F19F061A10E9440248A
:101BD00085E89CE0F70193A382A387E19CE095A3AD
:101BE00084A3F7A2E6A2C70182969383828367014A
:101BF000F2E0CF0ED11C198260E0C6010E943F1CAA
:101C000001E010E020E030E0AE014F5F5F4F60E0A8
:101C1000C6010E94591C009729F429812A3E11F01F
:101C200084E090E0F701948F838F009709F060C003
:101C3000C6010E94B81DF701948F838F009709F0A9
:101C400057C062E370E080E090E00E94C224C601C9
:101C50000E94EB23F701948F838F009709F048C00F
:101C6000C6010E94BF23F701948F838F009709F06C
:101C70003FC040E050E063E070E0C6010E946B1D91
:101C8000F701948F838F009799F540E063E070E04F
:101C9000C6010E94F31CF701948F838F009741F5D2
:101CA00047E057E063E070E0C6010E94741CF70152
:101CB000948F838F0097E1F461E070E0C6010E9489
:101CC0000831F701948F838F009791F462E070E000
:101CD000C6010E940831F701948F838F009741F469
:101CE000C6010E94C80C009719F4F701838D948DEA
:101CF000F701948F838F0F90DF91CF911F910F91F8
:101D0000FF90EF90DF90CF9008951F920F920FB643
:101D10000F9211242F933F934F935F936F937F9371
:101D20008F939F93AF93BF93EF93FF93789480919A
:101D30003203909133038093B2008091DF0290913F
:101D4000E002A091E102B091E2020196A11DB11D55
:101D50008093DF029093E002A093E102B093E2024D
:101D60004091DF025091E0026091E1027091E20245
:101D700080912E0390912F03A0913003B0913103F5
:101D8000481759076A077B07B0F08091DE0281117E
:101D900012C081E08093DE021092DF021092E00216
:101DA0001092E1021092E202E0912C03F0912D03D7
:101DB00009951092DE02FF91EF91BF91AF919F9133
:101DC0008F917F916F915F914F913F912F910F90E4
:101DD0000FBE0F901F9018951092DF021092E00234
:101DE0001092E1021092E2021092DE028091320320
:101DF000909133038093B200E0E7F0E0808181604E
:101E000080830895CF93DF93EC01E981FA8190817B
:101E100081819CBD8DBDE981FA8160E082810E9453
:101E2000402481E08B83DF91CF9108958EBD0DB466
:101E300007FEFDCF08958FEF8EBD0DB407FEFDCFD9
:101E40008EB50895CF93DF93FC012381222361F0A7
:101E5000EC010180F281E02D61E082810E9440244A
:101E60008FEF0E94160F1B82DF91CF910895EF92A2
:101E7000FF921F93CF93DF9300D000D0CDB7DEB792
:101E80007C01162F29833A834B835C83FC01838179
:101E9000811103C0C7010E94020F0E94E41D812F1F
:101EA00080640E94160F8C810E94160F8B810E9405
:101EB000160F8A810E94160F89810E94160F112326
:101EC00011F087E801C085E90E94160F1C3011F45B
:101ED0000E941B0F10E00E941B0FF701848387FFF5
:101EE00004C01F3F11F01F5FF6CF0F900F900F90AF
:101EF0000F90DF91CF911F91FF90EF9008950F9376
:101F00001F93CF93DF93EC0189018D81833039F0EA
:101F100089E0440F551F661F771F8A95D1F79A01F4
:101F2000AB0168E1CE010E94370F882311F082E3F4
:101F30002DC08EEF0E94160FF80180818EBD818129
:101F400032961E5F0DB407FEFDCF8EBDE017F10780
:101F500011F08191F7CF0DB407FEFDCF8FEF0E94F6
:101F6000160F8FEF0E94160F0E941B0F8C838F712C
:101F7000853031F086E58883CE010E94220F07C0AC
:101F80000E94E41D182F811107C089E58883CE01C6
:101F90000E94220F10E012C020E030E0A9016DE0A5
:101FA000CE010E94370F811104C00E941B0F8823AD
:101FB00011F089E2EBCFCE010E94220F812FDF9139
:101FC000CF911F910F9108952FB7F8948091EB0650
:101FD0009091EC06A091ED06B091EE062FBF08950A
:101FE000EF92FF920F931F93CF93DF93EC01890140
:101FF0008D81833039F089E0440F551F661F771FAC
:102000008A95D1F79A01AB0161E1CE010E94370FA9
:10201000882319F080E3888338C00E94E40F7C0194
:102020000E941B0F8C838F3F49F40E94E40F8E198E
:102030009F098D329140A0F384E503C08E3F31F0BB
:1020400080E58883CE010E94220F1FC08FEF8EBDD6
:10205000F801D801A150BE4F9FEF0DB407FEFDCF90
:102060008EB59EBD8193AE17BF07B9F70DB407FEBD
:10207000FDCF8EB58C931C820E941B0F0E941B0FFC
:10208000CE010E94220F81E004C0CE010E94220FE7
:1020900080E0DF91CF911F910F91FF90EF90089515
:1020A0008F929F92AF92BF92CF92DF92EF92FF9268
:1020B0000F931F936A017B0148015901FC0125819F
:1020C000203251F5448955896689778997018601BF
:1020D000E7E03695279517950795EA95D1F7400FD4
:1020E000511F621F731F23E080960E9455010097C5
:1020F00011F480E02DC0E894C7F8DD24EE24FF241D
:10210000CC0CDD1CCC0CDD1CFC01EC0DFD1D80821B
:102110009182A282B3821BC0203159F7FC0144890D
:102120005589668977894D0D511D611D711D23E00B
:1021300080960E9455010097E1F2DD24EE24FF24F1
:10214000CC0CDD1CFC01EC0DFD1D9182808281E038
:102150001F910F91FF90EF90DF90CF90BF90AF90C5
:102160009F908F9008952F923F924F925F926F921F
:102170007F928F929F92AF92BF92CF92DF92EF9217
:10218000FF920F931F93CF93DF93CDB7DEB72D97B9
:102190000FB6F894DEBF0FBECDBFFC018B017A01F4
:1021A000DB018C91807709F4BCC380818111B9C3B4
:1021B000DA0111960D90BC91A02DBF83AE83DA0198
:1021C0008C91837009F498C38E819F810C966DE089
:1021D00070E00E94B533BB24B394B60E2D83470143
:1021E0001F0140E050E0BA01C8010E9484021A8633
:1021F00019861886A12CC12CD12C1B86F701369686
:10220000FD87EC87D80150964D905D906D907C9045
:10221000539735E076946794579447943A95D1F75D
:10222000720161E0C8010E944803009731F4F8018F
:102230008181882309F4A2C074C3DC012C91253E5E
:1022400011F021110AC0C11002C05A864986CB1470
:1022500008F4C394211105C091C0CB1408F44FC3F6
:1022600003C0253E09F43FC02E32E9F1FC0133855D
:102270003F3009F057C0D11008C026FFC3CF2F71DF
:10228000A22EF585F887D22E07C0AA942A112BC05A
:102290002585B8852B1327C04A2D50E041505109A0
:1022A000EDE0E49F9001E59F300D11244E815F81A8
:1022B00024173507C0F4FC01F12C54E05F1518F029
:1022C0008181928108C06AE06F1518F08481958140
:1022D00002C086819781AE81BF81A217B30729F41E
:1022E000892B09F48FCFD12C8DCF8F3F910509F029
:1022F000D0F74FEB480F4A3108F4805EA9014F5FD9
:102300005F4FD40113966D917C911497260F371F60
:10231000D9019C912FEB290F2A3108F4905E981374
:10232000E2CFEFC233FDDFCFDD20A1F0B1E0AB1291
:10233000F8C2FC019C01255F3F4F90E090FB979510
:1023400097F98191980FE217F307C1F7E885E91330
:10235000E8C210C04BE050E06C857D850E942434BB
:10236000892B09F04FCFD4018C9180FF03C0F1E09D
:10237000FB8748CFBD81B7FFF6C1D3C28D81827480
:10238000823409F0CEC2C11002C0FA86E986CB14AD
:1023900008F096C060E0C8010E944803892B31F420
:1023A000F8018181882309F476C0BBC2C394EFCFC2
:1023B00050968D919D910D90BC91A02D81159E4FB1
:1023C000AF41B10508F0ADC2C8010E94B403882333
:1023D00009F4A7C2D8011696ED91FC9117971C96A7
:1023E0004D905D906D907C901F97B2E04B1A510814
:1023F00061087108048004C0440C551C661C771CDD
:102400000A94D2F780899189A289B389480E591E0E
:102410006A1E7B1E25E0B301A201CF0180960E94B7
:1024200055017C01009709F47CC2FC0120E032E0F8
:10243000119221503040E1F7DD24D394D801169653
:102440000D90BC91A02DBD87AC8712968C911297F0
:10245000D81630F190E0A0E0B0E029E0880F991F95
:10246000AA1FBB1F2A95D1F7F801408951896289BB
:102470007389840F951FA61FB71F808B918BA28B2A
:10248000B38BAC85BD8512968C918230C8F4B0E1D7
:10249000CB0ECB14A8F4D8018C9185FF89CF41C213
:1024A0009701B301A2014D0D511D611D711D8D914B
:1024B0009C910E947F0F882309F433C2D394BECF2E
:1024C000EB85EE2309F46AC0D4011596AC9082E046
:1024D000E82EF12C9EE7792E6401B6E0CB0ED11CDC
:1024E000F401818192819701280F391F0380F481C3
:1024F000E02D8E0F9F1F8E179F0779F0A901B5E081
:10250000440F551FBA95E1F7240F351F4191042E52
:10251000000C550B24273527EECFF3E0FA1510F405
:10252000A3E0AA2E94E09A0D822F8F70E92FF0E09D
:102530008A3010F4805D01C0895CE80DF91D868346
:10254000F4E036952795FA95E1F79150A91660F3D6
:10255000F401EA0DF11D768240E050E0BA01C801B5
:102560000E94840261E0C8010E944803009731F490
:10257000D80111968C918111D4C110C0FC01208129
:10258000222361F0238523FDEDCF4BE050E0BC0119
:10259000C6010E942434892B29F7BBC129853A85BD
:1025A000A90160E070E0E5E0440F551F661F771F4A
:1025B000EA95D1F7C8010E948402882309F4B1C1C9
:1025C000DD24DA94DB0CCD2C3D2D3064B32E3FE0BE
:1025D000A32E740141E1E40EF11C4DE0742ECC20D9
:1025E00009F466C060E0C8010E944803FC01892B21
:1025F00009F497C1D80116962D913C911797D901EE
:1026000090968C919097816090968C93DC1002C08C
:102610006B2D01C06C2D6083A3861486D4011696A1
:1026200080E080FB879587F99D91890FAE15BF05E6
:10263000C1F78587138E128ED40113964D915C914C
:1026400014976F7170E061507109769E9001779ECA
:10265000300D112460E08E819F812817390740F4E6
:10266000DA01A20FB31F8C91082E000C990B0CC03D
:1026700081E090E0AE81BF81A217B30711F480E042
:1026800090E0919581959109653018F4928381834A
:1026900007C06B3018F49583848302C097838683C8
:1026A0006F5F2F5F3F4F32966D30A9F6CA9497CF78
:1026B000F80180899189A289B38925E0B695A7950B
:1026C000979587952A95D1F77C0160E0C8010E9413
:1026D00048035C01892B09F424C180E2D5011D92D5
:1026E0008A95E9F7F40136968BE0D50101900D92B9
:1026F0008A95E1F7F40180818871D5011C968C934D
:10270000E0919703F0919803309739F0B501625F3B
:102710007F4FC5014096099509C081E298E2F50115
:10272000918B808B80E098E097878687D5015096C3
:102730008D919C91519753969C938E935297599655
:102740009C938E9358971E968D919C911F975796A8
:102750009C938E935697D8011696ED91FC911797FE
:1027600080A1816080A380E2F10111928A95E9F74E
:10277000D8011696AD90BC901797F101B782A6824A
:10278000F582E4825C968D919D910D90BC91A02D77
:1027900080879187A287B387F701EF70FF27D50164
:1027A000979695E0EE0FFF1F9A95E1F79D012E0F8A
:1027B0003F1FD9011B968C9183FF03C0F10110824A
:1027C000B0C0C5018E0F9F1FDC01D2968C9187711E
:1027D000D1018C93D9011B969C91987119F4886052
:1027E000D1018C93D1011396DC9213978D81827362
:1027F00019F08C91817111F78D818F70D101129632
:102800008C93D50193964D915D916D917C919697A6
:10281000D10154964D935D936D937C935797EA0D38
:10282000FB1DC3ACD4ACE12CF12CB60155274427D9
:102830009F012F5B3F4FD901CD90DC90E12CF12C13
:10284000C42AD52AE62AF72ABD81B4FF33C0C114B1
:10285000D104E104F10409F466C09E012F5F3F4FEB
:10286000B701A601C5010E949501982E87FDA6CF4C
:1028700000E010E09801B701A601C5010E945010C8
:10288000882309F49BCFF5014085518562857385C6
:10289000C416D506E606F70620F4C086D186E28681
:1028A000F386C980DA80EB80FC809110D6CF81114D
:1028B0003AC084CFD1015C96CD92DD92ED92FC922C
:1028C0005F97ED5BFF4F80819181A281B381F10120
:1028D000808F918FA28FB38FFD81F5FF2CC0D10126
:1028E00058964D915D916D917C915B97C1010E94CD
:1028F0008402811120C062CFBB24B3946FCCC12C61
:10290000B3CCF3943296BDE0FB1609F47BCC9A016C
:10291000D4CCEFEFEE1AFE0AF4E6EF16F10409F05C
:10292000DFCD80E009C0D10112968C9112978068AA
:1029300012968C93D1CF81E02D960FB6F894DEBF1E
:102940000FBECDBFDF91CF911F910F91FF90EF9000
:10295000DF90CF90BF90AF909F908F907F906F90BF
:102960005F904F903F902F900895BC018091DA06C0
:1029700083708130D9F078F0823019F1833071F5AD
:10298000072E000C880B990B0E947E322FE632E155
:1029900043E050E420C0072E000C880B990B0E94E6
:1029A0007E322FE632E143E851E415C0072E000CD9
:1029B000880B990B0E947E322FE632E143E051E40E
:1029C0000AC0072E000C880B990B0E947E322FE65E
:1029D00032E143E850E40E94DB31089560E070E0AA
:1029E000CB010895CF92DF92EF92FF92CF93DF93C6
:1029F0006C01990FEE08FF08F7FE1BC06DE286E43C
:102A000094E00E94521AEC0144275527BA014C1950
:102A10005D096E097F092AE086E494E00E94E319CB
:102A20008C0F9D1FDF91CF91FF90EF90DF90CF90A3
:102A300008952AE0B701A60186E494E0DF91CF91E2
:102A4000FF90EF90DF90CF900C94E319CF93DF933A
:102A5000EB0120E2FB013C96DC011C9601900D92FB
:102A60002A95E1F72A813B81FC01338322834C8143
:102A70005D816E817F81448355836683778348853A
:102A800059856A857B854087518762877387DF9187
:102A9000CF9108952F923F924F925F926F927F92C3
:102AA0008F929F92AF92BF92CF92DF92EF92FF925E
:102AB0000F931F93CF93DF93CDB7DEB7E5970FB694
:102AC000F894DEBF0FBECDBF7C018B01842E19822E
:102AD0001A82DC018C91811158C18091990680770E
:102AE00009F453C1FB0180818F32C9F48F018191B8
:102AF0008F32E1F360919F067091A006811104C0AE
:102B0000C7010E94910378C1CE0101960E949103F2
:102B1000882309F43AC1BE016F5F7F4F02C069E9A3
:102B200076E0FE01F296FBABEAABF8019F012F5F66
:102B30003F4F8081803211F4F901F8CFFDA3ECA35F
:102B40009F01A9014E1B5F0B8901D9018D919D0148
:102B5000882341F18F3221F4CF01840F951F1BC0D0
:102B60008C3509F412C1982F977F923209F40DC168
:102B70008A3309F40AC1982F9F7B9C3309F405C15D
:102B800092EC980F923008F400C180528F35C8F251
:102B9000FCC02F3239F48C01DC012D91CD012032A3
:102BA000C1F7F9CFDA01AE0FBF1FAD014E1B5F0BAE
:102BB000EA17FB0759F08E918E32B9F38032A9F3F0
:102BC0004F3F510511F00CF0E0C002C040E050E072
:102BD0005BA34AA3DE0197965D0180E2382E3D9209
:102BE0008AA99BA9A817B907C1F79F01C9018E1B24
:102BF0009F0BD901DD909D01BEE2DB16B9F3B0E277
:102C00003B2ED31499F321E02DAB009709F01DAAB8
:102C10009A01215031096F01C40ED51E2F3FAFEF2D
:102C20003A0749F45EA0612CB7E07B2E312C912C41
:102C3000A8E04A2E54C0D6019E906D01BEE29B16BC
:102C400089F321503109EACF6F01C80ED91ED60190
:102C5000BC91BCABB03209F472C0BE3209F044C0C2
:102C60008217930709F06BC0A6EDDA2EBCA9DB0E24
:102C7000A5E0AD1508F03FC0B6ECDB2EBCA9DB0E1D
:102C8000A5E0AD15D8F5A5EADA2EDB0EB2E0BD154C
:102C9000A8F5BFEDDB2EACA9DA0EBDE5BD1570F1D0
:102CA0008217930709F4A1C07314D0F1DCA8AFE92F
:102CB000CA2ECD0CA9E1AC1560F1BD2DB052BCAB54
:102CC000642822242394230C6501C30CD11C3CA846
:102CD000D6013C92A6E0A215A0F5322C01968417ED
:102CE00095070CF4B1CF30C0ACA9A23239F0AC37A3
:102CF00009F0BACF03C0BD3209F4BECF82179307E3
:102D000009F469C0731460F0AFE5DA2E1DAABFE5BF
:102D1000BCABAFEBDA0EB9E1BD1598F29428D1CF78
:102D2000AAE07A1609F465C0281739070CF461C0C7
:102D3000C901BAE07B2EA8E03A2EB0E14B2E1DAAC5
:102D4000CDCF522C322CCACF5EA28FA18032E9F0B7
:102D5000BDA9BB2341F0862D892111F4862D01C028
:102D600082E089A314C081E089A38EA190E0D501FF
:102D7000A80FB91F2EE72C93E8E2F0E0EC0FFD1F3F
:102D8000E80FF91F21E3208302C080E035C0D8019D
:102D90008C918823C1F021E0AE014F5D5F4FC701E8
:102DA0000E94B310882389F380E2F701DE011196B7
:102DB00001900D928A95E1F7C7010E94AB03BE0115
:102DC0006F5F7F4FB2CE282DAE014F5D5F4FC701C1
:102DD0000E94B31011C0BAE07B1659F0AAE07A2E17
:102DE000B8E03B2EA0E14A2E79CFBAE03B2E73101B
:102DF000F5CF5EA21DAAA9CFE5960FB6F894DEBF67
:102E00000FBECDBFDF91CF911F910F91FF90EF903B
:102E1000DF90CF90BF90AF909F908F907F906F90FA
:102E20005F904F903F902F900895AB01BC0180912F
:102E300070008E7F809370008091B0008C7F8093B3
:102E4000B0008091B100877F8093B1008091B6007F
:102E50008F7D8093B600809170008D7F809370008D
:102E60008091B10084608093B1008091B1008C7F2B
:102E70008093B10083E890E0909333038093320312
:102E8000411551056105710569F481E090E0A0E00C
:102E9000B0E080932E0390932F03A0933003B09360
:102EA000310308C040932E0350932F0360933003E7
:102EB000709331038AE398E090932D0380932C0361
:102EC000089590912B039111FCCF91E090932B03E7
:102ED00040932A032FEF2093290310922803260FF3
:102EE000209327039093260390912603880F892B24
:102EF0008093260380912503813061F4109225038D
:102F0000809126038093BB008091BC0083FDF8CFA5
:102F100085EC01C085EE8093BC0080912B0381304D
:102F2000E1F380912803861710F460912803A5E04F
:102F3000B3E0E5EEF2E080E0861721F09D919193F9
:102F40008F5FFACF0895613208F060E241E00E949D
:102F500061171092E4028093E30208950F931F9388
:102F6000FC01962FA081B181ED91FC9111973097D2
:102F700061F0BA01892F14960D911C91159721E0EB
:102F800030E040E050E0099502C082E090E01F91FF
:102F90000F9108950895CF92DF92EF92FF920F93D1
:102FA0001F93CF93DF936C017A018B01C0E0D0E0D7
:102FB000CE15DF0581F0D8016D918D01D601ED911F
:102FC000FC910190F081E02DC6010995892B11F04B
:102FD0002196EECF7E01C701DF91CF911F910F9116
:102FE000FF90EF90DF90CF900895FC01538D448DBA
:102FF000252F30E0842F90E0821B930B541710F0A4
:10300000CF96089501970895FC01918D828D9817B0
:1030100061F0828DDF01A80FB11D5D968C91928DBC
:103020009F5F9F73928F90E008958FEF9FEF0895B9
:10303000FC01918D828D981731F0828DE80FF11D82
:10304000858D90E008958FEF9FEF0895FC01918D9D
:10305000228D892F90E0805C9F4F821B91098F7396
:103060009927089589E993E00E94261821E0892B89
:1030700009F420E0822F0895FC01848DDF01A80F60
:10308000B11DA35ABF4F2C91848D90E001968F7390
:103090009927848FA689B7892C93A089B1898C91AF
:1030A000837080648C93938D848D981306C00288FE
:1030B000F389E02D80818F7D80830895EF92FF92C8
:1030C0000F931F93CF93DF93EC0181E0888F9B8D4B
:1030D0008C8D981305C0E889F989808185FD26C00B
:1030E000F62E0B8D10E00F5F1F4F0F731127E02E90
:1030F0008C8DE8120CC00FB607FCFACFE889F9896D
:10310000808185FFF5CFCE010E943C18F1CF8B8DD9
:10311000FE01E80FF11DE35AFF4FF0829FB7F894CC
:103120000B8FEA89FB89808180620AC09FB7F8947F
:10313000EE89FF896083E889F989808183708064E2
:1031400080839FBF81E090E0DF91CF911F910F912D
:10315000FF90EF900895CF93DF93EC01888D882343
:10316000C9F0EA89FB89808185FD05C0A889B989F4
:103170008C9186FD0FC00FB607FCF5CF808185FFCF
:10318000F2CFA889B9898C9185FFEDCFCE010E943D
:103190003C18E7CFDF91CF91089580E090E0892B34
:1031A00029F00E94321881110C940000089585EDD9
:1031B0008093BC008091BC0084FDFCCF10922B0357
:1031C000089540917403262F30E0240F311D2132E1
:1031D0003105DCF420912B032430C9F4FC0180E09C
:1031E00090E0861758F4309174032191DC01AC5AB9
:1031F000BC4FA30FB11D2C930196F3CF80917403A4
:10320000680F6093740380E0089581E0089582E080
:103210000895089508950895E091E4028091E302ED
:10322000E81730F4F0E0EB51FD4F808190E0089515
:103230008FEF9FEF08959091E4028091E302981739
:1032400050F4E92FF0E0EB51FD4F208130E09F5F1B
:103250009093E40202C02FEF3FEFC90108958091DF
:10326000E30290E02091E402821B91090895CF923D
:10327000DF92EF92FF920F931F93CF93DF937C0126
:10328000CB018A0120919802222389F0EB016B0186
:10329000C40ED51ECC15DD0569F06991D701ED91FD
:1032A000FC910190F081E02DC7010995F3CF642FC7
:1032B0000E94E118C801DF91CF911F910F91FF90FB
:1032C000EF90DF90CF900895CF93DF931F92CDB70B
:1032D000DEB76983209198022223D1F020919502D4
:1032E000203240F021E030E0FC013383228380E093
:1032F00090E015C080919602E82FF0E0EC5CFC4F66
:10330000998190838F5F809396028093950205C088
:1033100061E0CE0101960E94E11881E090E00F90FB
:10332000DF91CF9108950E941F341F920F920FB624
:103330000F9211242F933F934F935F936F937F933B
:103340008F939F93AF93BF93EF93FF93E0912401EB
:10335000F09125010995FF91EF91BF91AF919F9158
:103360008F917F916F915F914F913F912F910F902E
:103370000FBE0F901F9018951F920F920FB60F92CD
:1033800011242F933F934F935F936F937F938F936A
:103390009F93AF93BF93EF93FF93E0912201F0913E
:1033A00023010995FF91EF91BF91AF919F918F916B
:1033B0007F916F915F914F913F912F910F900FBE31
:1033C0000F901F9018958F929F92AF92BF92EF929D
:1033D000FF920F931F93CF93DF93CDB7DEB7A197E3
:1033E0000FB6F894DEBF0FBECDBF7C01FA01CB0152
:1033F00019A2223008F42AE08E010F5D1F4F822EA1
:10340000912CA12CB12CBF01A50194010E94DD33A8
:10341000F901CA01015011096A3014F4605D01C05C
:10342000695CD8016C93232B242B252B61F7B80101
:10343000C7010E940502A1960FB6F894DEBF0FBE29
:10344000CDBFDF91CF911F910F91FF90EF90BF9073
:10345000AF909F908F90089561E872E00C94050200
:103460000F931F93CF93DF93EC010E9405028C0111
:10347000CE010E942C1A800F911FDF91CF911F91D6
:103480000F9108959A01452B39F4DC01ED91FC91DF
:103490000190F081E02D0994462F50E060E070E04B
:1034A0000C94E319DC01ED91FC910190F081E02D89
:1034B00009940C9405021F920F920FB60F921124DB
:1034C0002F933F934F935F936F937F938F939F932C
:1034D000AF93BF93EF93FF9389E993E00E943C1869
:1034E000FF91EF91BF91AF919F918F917F916F91DC
:1034F0005F914F913F912F910F900FBE0F901F90B2
:1035000018951F920F920FB60F9211242F938F933D
:103510009F93EF93FF93E091A903F091AA03808119
:10352000E091AF03F091B00382FD12C090818091D1
:10353000B2038F5F8F732091B303821751F0E09134
:10354000B203F0E0E756FC4F958F8093B20301C0C1
:103550008081FF91EF919F918F912F910F900FBEDE
:103560000F901F9018951F920F920FB60F92112473
:103570002F933F934F935F936F937F938F939F937B
:10358000AF93BF93EF93FF938091B900887F80360C
:1035900009F49CC068F5883209F45BC090F480316E
:1035A00009F454C038F4882309F4F6C0883009F4CB
:1035B0004DC0F6C0883109F44CC0803209F45DC0BA
:1035C000EFC0803409F468C048F4803309F455C072
:1035D000883309F0E5C080932903D8C0803509F409
:1035E0004FC0883509F45DC0883409F0D9C0D6C011
:1035F000883909F4C7C0A8F4883709F467C038F4DB
:10360000883609F463C0803709F460C0C9C08838BF
:1036100009F4B8C0803909F45FC0803809F0C0C02F
:103620005BC0803B09F486C038F4803A09F466C078
:10363000883A09F47FC0B4C0803C09F4A7C0883C34
:1036400009F4A4C0883B09F48AC0AAC0809126036B
:1036500010C09091280380912703981770F5E0918E
:10366000280381E08E0F80932803F0E0EB5FFC4F8E
:1036700080818093BB0085EC86C0809329038EC037
:10368000E091280381E08E0F809328038091BB0096
:10369000F0E0EB5FFC4F808390912803809127033B
:1036A0006EC0E091280381E08E0F80932803809103
:1036B000BB00F0E0EB5FFC4F808380912A03811117
:1036C0006DC081E08093250384EA61C083E080932C
:1036D0002B0310929603CFCF80919603803208F08F
:1036E00051C0E091960381E08E0F80939603809104
:1036F000BB00F0E0EA58FC4F8083BDCF85EC80939F
:10370000BC0010922B0380919603803230F4E0913C
:103710009603F0E0EA58FC4F10826091960370E047
:10372000E0919002F091910286E793E00995109262
:10373000960336C084E080932B0310927503109299
:103740007403E0919202F0919302099580917403C1
:10375000811105C081E08093740310925403E091BD
:10376000750381E08E0F80937503F0E0EC5AFC4FF7
:1037700080818093BB0090917503809174039817AA
:1037800008F479CF85E88093BC000AC085EC80936B
:10379000BC0010922B0304C0109229030E94D7187A
:1037A000FF91EF91BF91AF919F918F917F916F9119
:1037B0005F914F913F912F910F900FBE0F901F90EF
:1037C000189530919502313208F04AC080912B0350
:1037D0008111FCCF9091970222E020932B036093FC
:1037E0002A032FEF209329031092280330932703F5
:1037F000E4E3F3E0A5E0B3E020E0321721F04191EB
:103800004D932F5FFACF1092260320912603990F34
:10381000922B9093260390912503913061F410929E
:103820002503909126039093BB009091BC0093FDDB
:10383000F8CF95EC01C095EE9093BC0090912B03CE
:103840009230E1F3909129039F3F79F08091290311
:10385000803241F080912903803331F084E005C04B
:1038600081E003C082E001C083E0109296021092D2
:10387000950210929802089561E00C94E11BCF9399
:10388000DF931F92CDB7DEB7643068F420E1629F0A
:10389000B001112460736983AE014F5F5F4F6FE722
:1038A0000E94AE1702C083E090E00F90DF91CF91AD
:1038B00008950F931F93FC01962FBA01A081B18147
:1038C0001296ED91FC911397309749F0A901980158
:1038D000892F14960D911C911597099502C082E0CD
:1038E00090E01F910F9108958F929F92AF92BF9297
:1038F000CF92DF92EF92FF920F931F93CF93DF93BC
:103900001F92CDB7DEB79B0123703327232B09F419
:1039100058C06A014B015C0160FF26C062E00E9452
:103920003F1C7C0101E010E020E030E0AE014F5F81
:103930005F4F64E1C5010E94591CE82AF92A8C2DC9
:103940008770482F440F440F440F8981877CC82E0D
:10395000C42AC982AE014F5F5F4F64E1C5010E9476
:10396000AE17E82AF92A02C0E12CF12C81FE2CC006
:1039700062E0C5010E943F1C4C0101E010E020E024
:1039800030E0AE014F5F5F4F61E0C5010E94591CFE
:1039900088299929E82AF92A8D2D8770582F550FE3
:1039A000550F550F8981877CD82ED52AD982AE0133
:1039B0004F5F5F4F61E0C5010E94AE178E299F29BE
:1039C00004C087E090E001C0C7010F90DF91CF9164
:1039D0001F910F91FF90EF90DF90CF90BF90AF902D
:1039E0009F908F9008958F929F92AF92BF92CF92A7
:1039F000DF92FF920F931F93CF93DF931F92CDB768
:103A0000DEB79B0123703327232B09F453C0F42E18
:103A10004B015C0160FF23C062E00E943F1C6C010F
:103A200001E010E020E030E0AE014F5F5F4F64E165
:103A3000C5010E94591CC82AD92A8F2D8370982F3E
:103A4000990F8981897F892B8983AE014F5F5F4FF1
:103A500064E1C5010E94AE17C82AD92A02C0C12C50
:103A6000D12C81FE2AC062E0C5010E943F1C4C019E
:103A700001E010E020E030E0AE014F5F5F4F61E019
:103A8000C5010E94591C88299929C82AD92A8F2D35
:103A90008695482F46708981897FF82EF42AF9820D
:103AA000AE014F5F5F4F61E0C5010E94AE178C29E8
:103AB0009D2904C087E090E001C0C6010F90DF910E
:103AC000CF911F910F91FF90DF90CF90BF90AF905B
:103AD0009F908F900895BF92CF92DF92EF92FF92C6
:103AE0000F931F93CF93DF931F92CDB7DEB79B0148
:103AF00023713327232B79F1B42E7B016C0160E015
:103B00000E943F1C009749F501E010E020E030E002
:103B1000AE014F5F5F4F65E0C6010E94591C0097E0
:103B2000E1F4E0FE04C08981B0FA85F98983E1FE01
:103B300004C08981B0FA84F98983E4FE04C08981D4
:103B4000B0FA86F98983AE014F5F5F4F65E0C60129
:103B50000E94AE1702C087E090E00F90DF91CF91F6
:103B60001F910F91FF90EF90DF90CF90BF9008953D
:103B7000EF92FF920F931F93CF93DF931F92CDB7D6
:103B8000DEB77C0160E00E943F1C01E010E020E015
:103B900030E0AE014F5F5F4F66E0C7010E94591CE5
:103BA000009751F4898180688983AE014F5F5F4F30
:103BB00066E0C7010E94AE170F90DF91CF911F9171
:103BC0000F91FF90EF900895CF93DF930E94E40F41
:103BD000EC010E941B0F8F3F49F00E94E40F8C1BE9
:103BE0009D0B89359240A8F380E001C081E0DF9110
:103BF000CF910895DF92EF92FF920F931F93CF938F
:103C0000DF93EC018B0128812223E9F08A8180FF78
:103C10001AC01FC0D380D422E114F10409F078C087
:103C2000D11076C0892B8A2B8B2B09F456C04C857A
:103C30005D856E857F859E01245F3F4FCF010E9489
:103C4000950187FF5AC08981826089838FEF9FEF3A
:103C5000A7C023FF14C0888D998DAA8DBB8D48897C
:103C600059896A897B89841B950BA60BB70B823017
:103C70009105A105B105A0F4009791F468C025FF56
:103C80000FC0EE81FF818681978145E0880F991FE3
:103C90004A95E1F7488959898417950709F45AC06C
:103CA00088899989AA89BB897C0131E0F322EE8158
:103CB000FF81AC01BD0139E0769567955795479531
:103CC0003A95D1F725FFA6CF848D958DA68DB78D1A
:103CD000480F591F6A1F7B1F46C026FF05C0848DF1
:103CE000958DA68DB78D04C08C8D9D8DAE8DBF8DAD
:103CF0008C879D87AE87BF870BC0811109C08881E3
:103D0000807709F4A0CF21E030E081E090E026C088
:103D1000EE81FF814C855D856E857F85425051091E
:103D200061097109048004C0440F551F661F771F85
:103D30000A94D2F780899189A289B389480F591FC3
:103D40006A1F7B1F4D0D511D611D711D0CC020E0B0
:103D500030E004C020E030E080E090E0A901481BA2
:103D6000590BCA011DC08E819F8120E080960E9460
:103D70005501009709F467CFFC01EE0DFF1D80810E
:103D8000F801808388899989AA89BB890196A11D38
:103D9000B11D888B998BAA8BBB8B21E030E0DCCFE7
:103DA000DF91CF911F910F91FF90EF90DF900895D9
:103DB0002F923F924F925F926F927F928F929F923B
:103DC000AF92BF92CF92DF92EF92FF920F931F9329
:103DD000CF93DF93EC015B014A01888183FF0EC022
:103DE0008A8181FF0BC082FF0FC0488D598D6A8D7B
:103DF0007B8DCE010E948402811106C08981816081
:103E000089838FEF9FEF2AC1A40160E070E0888969
:103E10009989AA89BB8980959095A095B0958417BA
:103E20009507A607B70750F364011E018CE0280E22
:103E3000311C088919892A893B89C114D10409F4E4
:103E4000D0C08E819F81B901A80129E07695679540
:103E5000579547952A95D1F7DC011396FC90F422EB
:103E60001170F11034C00115110589F54C855D857F
:103E70006E857F85411551056105710569F09101D8
:103E80000E94950187FDBACF8111CDC0CE010E945D
:103E9000B4038111C8C0B2CF8C8D9D8DAE8DBF8D06
:103EA0000097A105B10579F4CE010E94B4038823DF
:103EB00009F4A4CF8C859D85AE85BF858C8F9D8FA1
:103EC000AE8FBF8F04C08C879D87AE87BF87EE8182
:103ED000FF814C855D856E857F8542505109610962
:103EE0007109048004C0440F551F661F771F0A9490
:103EF000D2F780899189A289B389480F591F6A1F17
:103F00007B1F4F0D511D611D711D0115110521F400
:103F1000C114B2E0DB06B0F580E092E0801B910BAB
:103F200076018C159D0508F47C010115110579F4C5
:103F3000488859886A887B88888D998DAA8DBB8D21
:103F4000481659066A067B0610F025E001C021E0FC
:103F5000CF0180960E945501009709F44FCFA70129
:103F6000B501800F911F0E9431340E0D1F1D0115E8
:103F7000124031F58E819F8180960E94120181113D
:103F80001FC03CCF83A194A1A5A1B6A1841795071A
:103F9000A607B70741F410A28FEF9FEFDC0183A3C0
:103FA00094A3A5A3B6A3EE81FF81950180819181A1
:103FB0000E947F0F882309F421CFE12C82E0F82EA4
:103FC00088899989AA89BB898E0D9F1DA11DB11D64
:103FD000888B998BAA8BBB8BAE0CBF1CCE18DF08CD
:103FE00028CF488D598D6A8D7B8D8A814017510766
:103FF0006207730728F4088F198F2A8F3B8F06C03A
:104000002091970330919803232B11F080688A83C5
:104010008A8183FD02C0C40121C0CE010E941A0220
:104020008111F9CFEBCEEE81FF814C855D856E85E8
:104030007F854250510961097109048004C0440F11
:10404000551F661F771F0A94D2F780899189A2892C
:10405000B389480F591F6A1F7B1F5ACFDF91CF9139
:104060001F910F91FF90EF90DF90CF90BF90AF9096
:104070009F908F907F906F905F904F903F902F9088
:104080000895FC01148615861382128288EE93E04F
:10409000A0E0B0E084839583A683B78385E791E0B1
:1040A000918380830895CF92DF92EF92FF920F93D6
:1040B0001F93CF93C82F1092770481E090E0A0E087
:1040C000B0E080937A0490937B04A0937C04B09337
:1040D0007D0482E794E0909394048093930410927B
:1040E00092048FEF9FEFDC018093950490939604E8
:1040F000A0939704B0939804CC2331F1C53008F015
:10410000DEC020E040E050E0BA0182E994E00E9485
:104110005501009709F4D3C000E1C09F800D911DA7
:1041200011244097FC01E254FE4F20812F7709F0C3
:10413000C6C03896C080D180E280F380C114D1041B
:10414000E104F10421F4BBC0C12CD12C760120E0A4
:10415000B701A60182E994E00E945501FC01892B78
:1041600009F4ADC0838594858115924009F0A7C0FC
:104170008089823009F0A3C0268537852115310555
:1041800009F49DC09585909374048FEF890F8093F7
:104190007504C0E081E0981751F041E04C0F4930C0
:1041A00019F4C09376048BC0880FC42FF4CFC0934A
:1041B0007604468957894115510519F060E070E091
:1041C00004C044A155A166A177A140937E045093F9
:1041D0007F046093800470938104D701C601820F2D
:1041E000931FA11DB11D8C019D01809386049093A6
:1041F0008704A0938804B09389048189928990935D
:10420000790480937804440F551F661F771F400F71
:10421000511F621F731F40938E0450938F0460934D
:10422000900470939104B5E0880F991FBA95E1F757
:1042300081509E4F892F99278695480F591F611DE0
:10424000711D40938204509383046093840470939F
:104250008504238934892115310521F0C901A0E0A5
:10426000B0E004C080A191A1A2A1B3A197018601F1
:10427000041B150B260B370BB901A801480F591F5A
:104280006A1F7B1F04C07695679557954795CA9519
:10429000D2F7DB01CA010196A11DB11D80938A04EA
:1042A00090938B04A0938C04B0938D04453F1FE042
:1042B00051076105710528F48CE08093770480E054
:1042C00017C0453F5F4F6105710510F480E10DC0D7
:1042D00084A595A5A6A5B7A580938E0490938F0479
:1042E000A0939004B093910480E28093770481E0DE
:1042F000CF911F910F91FF90EF90DF90CF90089595
:10430000682F86E394E00C9464194F925F926F9249
:104310007F928F929F92AF92BF92CF92DF92EF9255
:10432000FF921F93CF93DF93EC016A017B019A0107
:10433000AB01C701B6010E94A033882319F064E8DD
:1043400072E027C046015701E894B7F82FEF3FEF1E
:104350004FE75FE7C501B4010E94A03381110DC092
:104360002FEF3FEF4FE75FE7C501B4010E94D63161
:1043700018161CF468E872E00CC02FEF3FEF4FE70F
:104380005FE4C701B6010E942E331816A4F46CE84E
:1043900072E0CE01DF91CF911F91FF90EF90DF90FF
:1043A000CF90BF90AF909F908F907F906F905F90D5
:1043B0004F900C9405022FEF3FEF4FE75FECC701E2
:1043C000B6010E94D63187FDE2CF20E030E0A9019E
:1043D000C701B6010E94D63187FF0AC06DE2CE0147
:1043E0000E94521A5C01F7FAF094F7F8F09402C0B8
:1043F000A12CB12C2AE037ED43EA5BE3C701B601FB
:104400000E946A312B013C010E944D326B017C01FC
:104410000E947C329B01AC01C301B2010E94693150
:104420002B013C012AE0B701A601CE010E94E3194D
:104430007C01EA0CFB1C6EE2CE010E94521AE80ECF
:10444000F91E13E0115021F120E030E040E251E488
:10445000C301B2010E9433332B013C010E944D3253
:104460004B01A12CB12C2AE0B501A401CE010E9480
:10447000E319E80EF91EC501B4010E947C329B01CC
:10448000AC01C301B2010E9469312B013C01DACFBA
:10449000C701DF91CF911F91FF90EF90DF90CF90F8
:1044A000BF90AF909F908F907F906F905F904F9054
:1044B0000895BC018091DA068695869583708130D7
:1044C000D9F078F0823019F1833071F5072E000CA5
:1044D000880B990B0E947E3223E333E343E851E4D7
:1044E00020C0072E000C880B990B0E947E3220E022
:1044F00030E043E053E415C0072E000C880B990B05
:104500000E947E3220E030E043E852E40AC0072EE9
:10451000000C880B990B0E947E3223E333E343E0C7
:1045200052E40E94DB31089560E070E0CB01089511
:10453000833081F028F4813099F08230A1F0089521
:104540008730A9F08830B9F08430D1F480918000B0
:104550008F7D03C0809180008F77809380000895C5
:1045600084B58F7702C084B58F7D84BD0895809116
:10457000B0008F7703C08091B0008F7D8093B00032
:1045800008953FB7F8948091F0069091F106A091BC
:10459000F206B091F30626B5A89B05C02F3F19F08F
:1045A0000196A11DB11D3FBFBA2FA92F982F8827B3
:1045B000820F911DA11DB11DBC01CD0143E0660F0D
:1045C000771F881F991F4A95D1F708957F928F9280
:1045D0009F92AF92BF92CF92DF92EF92FF920F9392
:1045E0001F93CF93DF9300D000D0CDB7DEB77C010F
:1045F0006C836A01722E211102C080E001C080E844
:104600008C608B8363E0C7010E943F1CAE014D5F4D
:104610005F4F63E1C7010E94AE17009709F070C0B9
:1046200063E0C7010E943F1CAE014C5F5F4F64E135
:10463000C7010E94AE17009709F062C08A818068A6
:10464000807A8F7D8A83772091F063E0C7010E9492
:104650003F1CAE014E5F5F4F65E1C7010E94AE1780
:10466000009709F04DC0812C912C540114C063E0D7
:10467000C7010E943F1CA60166E1C7010E94AE1758
:10468000009719F33DC0242B4FEF841A940AA40A13
:10469000B40A21111DC060E0C7010E943F1C01E067
:1046A00010E020E030E0AE014F5F5F4F67E1C701EF
:1046B0000E94591C398136FB442740F921E058EE0D
:1046C000851653E09506A104B104E8F620E0DBCF9F
:1046D00034FD18C058EE851653E09506A104B104C8
:1046E00088F4772069F063E0C7010E943F1C01E075
:1046F00010E020E030E0A60167E1C7010E94591CEC
:10470000282F02C021E090E0822F0F900F900F9091
:104710000F90DF91CF911F910F91FF90EF90DF905D
:10472000CF90BF90AF909F908F907F900895EF9221
:10473000FF920F931F93CF93DF931F92CDB7DEB7F6
:104740007C0101E010E020E030E0AE014F5F5F4F00
:104750006FE00E94591C009751F489818D7F8983F5
:10476000AE014F5F5F4F6FE0C7010E94AE170F9021
:10477000DF91CF911F910F91FF90EF900895EF92ED
:10478000FF920F931F93CF93DF931F92CDB7DEB7A6
:104790007C0160E00E943F1C01E010E020E030E07E
:1047A000AE014F5F5F4F66E0C7010E94591C009742
:1047B00051F489818F7D8983AE014F5F5F4F66E041
:1047C000C7010E94AE170F90DF91CF911F910F91FB
:1047D000FF90EF900895EF92FF920F931F93CF9366
:1047E000DF931F92CDB7DEB77C0160E00E943F1CD3
:1047F00001E010E020E030E0AE014F5F5F4F66E087
:10480000C7010E94591C009751F489818F7B8983CD
:10481000AE014F5F5F4F66E0C7010E94AE170F9079
:10482000DF91CF911F910F91FF90EF900895CF935B
:10483000DF93282F30E0F901E654FF4F8491F9010E
:10484000EA55FF4FD491F901EE56FF4FC491CC23A6
:1048500091F081110E949822EC2FF0E0EE0FFF1FE3
:10486000E857FF4FA591B491EC91ED2381E090E0E2
:1048700021F480E002C080E090E0DF91CF910895C4
:104880001F93CF93DF93282F30E0F901E654FF4FB9
:104890008491F901EA55FF4FD491F901EE56FF4F8B
:1048A000C491CC23C1F0162F81110E949822EC2FC5
:1048B000F0E0EE0FFF1FE258FF4FA591B4919FB7B4
:1048C000F894111104C08C91D095D82302C0EC91BA
:1048D000DE2BDC939FBFDF91CF911F910895CF9383
:1048E000DF9390E0FC01EA55FF4F2491FC01EE5666
:1048F000FF4F8491882361F190E0880F991FFC019C
:10490000EC58FF4FC591D491FC01E258FF4FA5919F
:10491000B491611109C09FB7F894888120958223D2
:104920008883EC912E230BC0623061F49FB7F8941A
:104930008881322F309583238883EC912E2B2C9302
:104940009FBF06C08FB7F894E8812E2B28838FBFB6
:10495000DF91CF9108958E3008F08E50877080647B
:1049600080937C0080917A00806480937A008091AB
:104970007A0086FDFCCF809178002091790090E04C
:10498000922B08958F929F92AF92BF92CF92DF9217
:10499000EF92FF926B017C010E94C1224B015C01EE
:1049A000C114D104E104F104F1F00E94C122DC0140
:1049B000CB0188199909AA09BB09883E9340A10532
:1049C000B10570F321E0C21AD108E108F10888EEC0
:1049D000880E83E0981EA11CB11CC114D104E1040F
:1049E000F10419F7DDCFFF90EF90DF90CF90BF90EB
:1049F000AF909F908F9008951F920F920FB60F92D5
:104A000011242F933F938F939F93AF93BF938091E4
:104A1000EB069091EC06A091ED06B091EE06309178
:104A2000EF0626E0230F2D3720F40296A11DB11DBD
:104A300005C029E8230F0396A11DB11D2093EF06A1
:104A40008093EB069093EC06A093ED06B093EE06F0
:104A50008091F0069091F106A091F206B091F306D4
:104A60000196A11DB11D8093F0069093F106A093CD
:104A7000F206B093F306BF91AF919F918F913F9152
:104A80002F910F900FBE0F901F901895CF93DF932B
:104A9000CDB7DEB7C559D1090FB6F894DEBF0FBE4A
:104AA000CDBF789484B5826084BD84B5816084BDB7
:104AB00085B5826085BD85B5816085BD80916E00BC
:104AC000816080936E0010928100809181008260ED
:104AD000809381008091810081608093810080912A
:104AE00080008160809380008091B1008460809319
:104AF000B1008091B00081608093B00080917A0015
:104B0000846080937A0080917A00826080937A003A
:104B100080917A008E7F80937A0080917A008068FD
:104B200080937A001092C100E091A903F091AA034A
:104B300012E01083E091A503F091A6031082E091AA
:104B4000A703F091A80388E080831092B103E0915D
:104B5000AD03F091AE0386E08083E091AB03F0916A
:104B6000AC03808180618083E091AB03F091AC0362
:104B7000808188608083E091AB03F091AC038081F9
:104B800080688083E091AB03F091AC0380818F7DDE
:104B9000808361E084E00E946F2461E081E10E94F3
:104BA0006F2461E088E00E946F2462E080E10E944F
:104BB0006F2460E083E00E946F2460E085E10E9442
:104BC0006F2462E087E00E946F2461E08FE00E9422
:104BD0006F2461E089E00E946F2460E08EE00E9413
:104BE0006F2460E084E10E946F2461E086E00E940F
:104BF0006F2461E085E00E946F2460E08FE00E94F6
:104C0000402460E089E00E94402461E086E00E9448
:104C1000402461E085E00E94402460E081E10E9440
:104C2000402461E084E00E94402461E088E00E942A
:104C300040241092E4021092E30210929602109225
:104C4000950210922B0381E080932A031092250392
:104C500061E082E10E94402461E083E10E944024FF
:104C60008091B9008E7F8093B9008091B9008D7FCB
:104C70008093B90080E28093B80085E48093BC0003
:104C800089E099E190939302809392028AE099E1FE
:104C900090939102809390021093B8003FEBC32E43
:104CA00036E0D32E0AE010E242E7242E44E0342E10
:104CB00050E4752E63E0662E73E4572EE5E24E2E27
:104CC0001092BC061092B9061092BE06D092BB0696
:104CD000C092BA060E94E40F7C01A090BA06B09080
:104CE000BB06D50112960C9361E08AE00E946F2406
:104CF00061E0F50182810E944024BFB6F894809162
:104D0000B002811127C0ECE9F0E08491E0EBF0E023
:104D10009491E82FF0E0EE0FFF1FEC58FF4FA591A4
:104D2000B4918C91982321F461E08AE00E944024A0
:104D300061E08AE00E946F248CB580618CBD8CB5E7
:104D400080648CBD61E08DE00E946F2461E08BE0A7
:104D50000E946F248091B0028F5F8093B002BFBE2B
:104D6000E091BA06F091BB0622E5208381E08183C1
:104D70008091BC06811104C089EB96E00E94020F6D
:104D8000E091BA06F091BB0661E082810E94402466
:104D90008AE0B82E8FEF0E94160FBA94B110FACFA6
:104DA000E091BA06F091BB0660E082810E94402447
:104DB00020E030E0A90160E089EB96E00E94370F27
:104DC000813051F00E94E40F8E199F09813D974078
:104DD00078F31093B9068CC02AEA31E040E050E045
:104DE00068E089EB96E00E94370F853011F481E08E
:104DF0000CC0B4E0BB2E0E941B0F8093BD06BA947A
:104E0000B110F9CF8A3A59F482E08093BE068091BE
:104E1000BE06823071F0812C912C54010FC00E948B
:104E2000E40F8E199F09813D9740B0F24092B90678
:104E30005FC0812C912CA12CA0E4BA2E20E030E0A0
:104E4000A90167E389EB96E00E94370FA501940161
:104E500069E289EB96E00E94370F882351F00E94A7
:104E6000E40F8E199F09813D974040F35092B90697
:104E70003FC08091BE068230D9F420E030E0A90125
:104E80006AE389EB96E00E94370F882321F087E3DD
:104E90008093B9062DC00E941B0F807C803C11F4CA
:104EA0006092BE060E941B0F0E941B0F0E941B0FE8
:104EB00089EB96E00E94220FE091BA06F091BB06C2
:104EC00070E5708381E0818389EB96E090937304B1
:104ED0008093720489E996E00E94AB0381E00E940E
:104EE0005320882351F080919906811129C00BC06D
:104EF00089EB96E00E94220F23C080E00E9453209D
:104F00008111F1CF1DC0E9E9F6E0DF01212F1D92EB
:104F10002A95E9F73092A00620929F0680917704A7
:104F2000803129F0803261F47092990602C01093AA
:104F3000990681E080939B0680919906807779F4A9
:104F400061E081E10E94402460E084E00E9440240E
:104F500068EE73E080E090E00E94C224B1CECE0102
:104F60008D960E944120AE014F5F5F4F6A01CA01DA
:104F70000E94412041E06DEA71E0CE010D960E9451
:104F80004A15B601CE018D960E94261589AD88235B
:104F900009F432C4C757DF4F19821882C958D0406C
:104FA0001E0159E5250E311C510163E0A60EB11C0E
:104FB0004E0177E7870E911CCE0187589F4FCF5740
:104FC000DF4F99838883C158D040DE01A158BF4F7D
:104FD000CD57DF4FB983A883C358D040FE01E358B3
:104FE000FF4FCB57DF4FF983E883C558D040AE0160
:104FF00045585F4FC957DF4F59834883C758D04042
:10500000D1011C9200E010E0CE01C9960E94D40BA1
:1050100098018D3011F40C9493302F5F3F4FF101C4
:10502000E00FF11F8083843509F52D968CAD9DAD81
:10503000AEADBFAD2D97AC01BD0141505109610925
:105040007109C457DF4F488359836A837B83CC58E7
:10505000D0402E31310580F461E070E0C757DF4F5A
:1050600079836883C958D0408901CECF2E3131056C
:1050700058F48A30C9F708C081E090E0C757DF4F85
:1050800099838883C958D04021503109F101E20F3A
:10509000F31F1082D1018C918F3209F475C3223035
:1050A000310508F471C3F10101900020E9F731974F
:1050B000E219F30932970CF467C3F1018081918101
:1050C0008234FDE49F0709F47DC20CF06CC0823588
:1050D00044E4940709F4BCC20CF045C0843464E491
:1050E000960709F488C2ECF48035914409F04CC36A
:1050F000DF92CF9286EC91E09F938F93BF92AF9215
:105100000E945C3469817A818B819C810E947E320D
:10511000609308017093090180930A0190930B0139
:105120002DC38C34B4E49B0709F4CBC28D34944472
:1051300009F02AC3DF92CF9286EC91E09F938F9380
:10514000BF92AF920E945C3469817A818B819C818D
:105150000E947E326093260170932701809328017C
:10516000909329010BC38035F9E49F0709F4AEC27F
:105170006CF4833544E4940709F4FCC28834954404
:1051800009F002C381E080930001FEC2823569E428
:10519000960709F474C288349C4409F0F5C281E092
:1051A00080939402F1C28035A2E59A0709F4B8C24F
:1051B0000CF03FC08435EDE49E0709F4BBC0BCF49D
:1051C00080352DE4920709F4C4C282359D4409F06C
:1051D000DBC2DF92CF9286EC91E09F938F93BF92D8
:1051E000AF920E945C34898180930101C7C28334ED
:1051F00050E5950709F4F1C18434904509F0C4C223
:10520000DF92CF9286EC91E09F938F93BF92AF9203
:105210000E945C3469817A818B819C810E947E32FC
:1052200060932A0170932B0180932C0190932D01A0
:10523000A5C2803574E5970709F459C2D4F48934BE
:10524000B3E59B0709F42CC28035934509F09CC255
:10525000DF92CF9286EC91E09F938F93BF92AF92B3
:105260000E945C3489819A81909336018093350144
:1052700085C28335F4E59F0709F447C18234974519
:1052800009F082C2DF92CF929F928F92CE57DF4F6A
:10529000F881C258D040FF93CF57DF4F2881C158C3
:1052A000D0402F93CC57DF4F4881C458D0404F9304
:1052B000CD57DF4F5881C358D0405F93CA57DF4F57
:1052C0006881C658D0406F93CB57DF4F7881C5585F
:1052D000D0407F93C857DF4F8881C858D0408F9304
:1052E000C957DF4F9881C758D0409F9387EB91E013
:1052F0009F938F93BF92AF920E945C34E980D40158
:105300000C91EA962FADEA97C158DF4F4881CF57ED
:10531000D040EE966FADEE97EC968FADEC970E9475
:10532000CE056093B1027093B2028093B302909362
:10533000B40242C1DF92CF929F928F92CE57DF4F3D
:105340004881C258D0404F93CF57DF4F5881C15842
:10535000D0405F93CC57DF4F6881C458D0406F93E3
:10536000CD57DF4F7881C358D0407F93CA57DF4F66
:105370008881C658D0408F93CB57DF4F9881C5584E
:10538000D0409F93C857DF4FA881C858D040AF93F3
:10539000C957DF4FB881C758D040BF9387EB91E022
:1053A0009F938F93BF92AF920E945C34ED96EEADC7
:1053B000FFADED97C057DF4FF983E883C059D04068
:1053C000EF964EAD5FADEF97CE56DF4F59834883D2
:1053D000C259D040C158DF4F48805980CF57D04084
:1053E00009811A81D4010D90BC91A02DCC56DF4FBC
:1053F000B983A883C459D040EB966EAC7FACEB97D1
:1054000081E08093980288E680939702109296023A
:105410001092950280E090E00E9480219AE0E92EAF
:10542000F12CC801B7010E94C93324E0660F771F31
:105430002A95E1F78F709927862B972B0E94802160
:10544000CC56DF4F88819981C459D040B7010E9462
:10545000C93334E0660F771F3A95E1F78F709927CB
:10546000862B972B0E948021C301B7010E94C9336C
:105470006370772744E0660F771F4A95E1F78F70D6
:105480009927862B972B0E94802181E090E00E9433
:105490008021C201B7010E94C93354E0660F771F13
:1054A0005A95E1F78F709927862B972B0E948021C0
:1054B000CE56DF4F88819981C259D040B7010E94F2
:1054C000C933E4E0660F771FEA95E1F78F709927FB
:1054D000862B972B0E948021C057DF4F88819981AE
:1054E000C059D040B7010E94C933F4E0660F771F5E
:1054F000FA95E1F78F709927862B972B0E948021D0
:1055000086E394E00E943C1C57C0DF92CF929F92AA
:105510008F92CE57DF4FF881C258D040FF93CF57BC
:10552000DF4F2881C158D0402F93CC57DF4F48819F
:10553000C458D0404F93CD57DF4F5881C358D04007
:105540005F93CA57DF4F6881C658D0406F93CB57DF
:10555000DF4F7881C558D0407F93C857DF4F88818F
:10556000C858D0408F93C957DF4F9881C758D04053
:105570009F9387EB91E09F938F93BF92AF920E948E
:105580005C34E980D4010C91EA962FADEA97C158BA
:10559000DF4F4881CF57D040EE966FADEE97EC9637
:1055A0008FADEC970E94CE056093BC027093BD0254
:1055B0008093BE029093BF020FB6F894DEBF0FBE79
:1055C000CDBFE2C0DF92CF9286EC91E09F938F93A4
:1055D000BF92AF920E945C34D1C0DF92CF9286EC32
:1055E00091E09F938F93BF92AF920E945C34898128
:1055F00080932E01C3C0DF92CF9286EC91E09F93FF
:105600008F93BF92AF920E945C3429813A814B8183
:105610005C8160E871E581E090E00E94A5332B0198
:105620003C010E9497068091AC029091AD02A0913E
:10563000AE02B091AF02480E591E6A1E7B1E409208
:10564000BC025092BD026092BE027092BF0296C030
:10565000DF92CF9286EC91E09F938F93BF92AF92AF
:105660000E945C3489819A81AB81BC8180932F0137
:1056700090933001A0933101B09332017FC0DF924B
:10568000CF9286EC91E09F938F93BF92AF920E944E
:105690005C3489819A819093B7028093B6026EC080
:1056A000DF92CF9286EC91E09F938F93BF92AF925F
:1056B0000E945C3489819A819093380180933701EC
:1056C0005DC010923401109233015EC0DF92CF9220
:1056D00086EC91E09F938F93BF92AF920E945C34CF
:1056E00089819A81909311018093100147C0DF92C4
:1056F000CF9286EC91E09F938F93BF92AF920E94DE
:105700005C3469817A818B819C810E947E326093B6
:105710000C0170930D0180930E0190930F012EC028
:10572000DF92CF9286EC91E09F938F93BF92AF92DE
:105730000E945C3469817A818B819C810E947E32D7
:105740006093040170930501809306019093070113
:1057500015C0DF92CF9286EC91E09F938F93BF921A
:10576000AF920E945C3489819A8190930301809367
:10577000020104C081E08093AB0206C00F900F903D
:105780000F900F900F900F90CE018D960E94C30046
:10579000892B09F035CCCE01C9960E94AB03C757BF
:1057A000DF4F48815981C958D040452B29F1C601A6
:1057B0000E94412043E66DEA71E0CE010D960E9401
:1057C0004A15B601CE018D960E942615C457DF4FAB
:1057D000488159816A817B81CC58D040CE01C996DD
:1057E0000E94840269EC71E0CE018D960E94591AE4
:1057F000CE01C9960E94AB03209137013091380148
:105800006091350170913601C9010E94C9337093CE
:1058100045046093440488EE93E0B9010E94C933C3
:10582000709343046093420460ED77E080E090E081
:105830000E94C2240E9422084091A1025091A2021B
:105840006091A3027091A40289E993E00E948521EE
:105850006CEC71E089E993E00E94301A0E9497068F
:105860006EEC71E089E993E00E94591A4091AC0214
:105870005091AD026091AE027091AF022AE089E9C9
:1058800093E00E94E31989E993E00E942C1A6FECDF
:1058900071E089E993E00E94591A609112014AE08F
:1058A00050E089E993E00E94421A6FEE71E089E9C5
:1058B00093E00E94591A6091A6024AE050E089E9FB
:1058C00093E00E94421A6FEE71E089E993E00E9432
:1058D000591A6091A5024AE050E089E993E00E94DC
:1058E000421A89E993E00E942C1A89E993E00E9408
:1058F000AB1868E873E180E090E00E94C22481E088
:105900008093980280E480939702109296021092FE
:10591000950280E090E00E94802186E394E00E945E
:105920003C1C62E070E080E090E00E94C22462E0F3
:1059300070E080E490E00E94A31762E070E080E0F5
:1059400090E00E94C22400E010E09091E302809178
:10595000E402981739F086E394E00E941B190F5F68
:105960001F4FF3CF012BE1F42FEF41E066E374E02A
:1059700082EC96E00E94C30D8091DD069091DE06D8
:10598000892B09F455C062ED71E089E993E00E942A
:10599000301A64EF71E080E090E00E94C22448C0B9
:1059A0000E94F80764E170E080E090E00E94C22469
:1059B0000E945A07812C912C540101E010E00E94B2
:1059C000F80764E170E080E090E00E94C2240E9449
:1059D0005A0764E670E080E090E00E94C2242091C3
:1059E0009D0230919E0240919F025091A002C501FC
:1059F000B4010E946A314B015C01B801012E000C18
:105A0000880B990B0E947E329B01AC01C501B40149
:105A10000E94DB316093990270939A0280939B02FB
:105A200090939C020F5F1F4F0A30110541F69CCFE7
:105A300060E088E00E94402461E089E00E94402408
:105A400064EC79E080E090E00E94C22460E089E0AC
:105A50000E9440240AE010E064EF71E080E090E0F2
:105A60000E94C22401501109B9F760E086E00E944B
:105A7000402460E085E00E9440240E9497068091C7
:105A8000AC029091AD02A091AE02B091AF028093B2
:105A9000C0029093C102A093C202B093C3020E94BD
:105AA0009706C6010E94412046E46BED71E0CE01ED
:105AB0000D960E944A1563EE71E0C6010E94591AC4
:105AC00066E171E0C6010E94301A61EF71E0C60123
:105AD0000E94591A0EE010E081E2F82EF801F092CF
