:100000000C9468000C94B5190C948E190C94900003
:100010000C9490000C9490000C9411080C94900097
:100020000C9490000C947E0E0C9490000C94900014
:100030000C9490000C9490000C9490000C94900000
:100040000C94F5240C9490000C947A1A0C94541A85
:100050000C9490000C9490000C9490000C949000E0
:100060000C94AC1A0C9490006364696E6F70737595
:1000700078585B0000000000240027002A000000E0
:100080000000250028002B000000000023002600AF
:10009000290004040404040404040202020202020B
:1000A000030303030303010204081020408001023C
:1000B00004081020010204081020000000080002BB
:1000C000010000030407000000000000000056309B
:1000D00011241FBECFEFD8E0DEBFCDBF12E0A0E0FD
:1000E000B1E0ECE2F4E702C005900D92A039B1074F
:1000F000D9F726E0A0E9B2E001C01D92A03FB20707
:10010000E1F710E0C8E6D0E004C02197FE010E94AC
:10011000D533C736D107C9F70E943F250C94143A4E
:100120000C940000E09113014091140120911501FD
:1001300030E02C5E3F4F322F2227330FF0E24F9FEB
:10014000A00111244E2B242B352BFC01318320835D
:100150002091A5024091A6028091120190E0982F73
:100160008827990F990F990FF0E24F9FA001112452
:10017000842B952B30E035952795822B932BFB0113
:10018000918380830895FC01848583FF0DC084A141
:1001900095A1A6A1B7A1448D558D668D778D841B41
:1001A000950BA60BB70B03C080E090E0DC01811536
:1001B00020E89207A105B10520F08FEF9FE7A0E0AE
:1001C000B0E00895089580E090E008956091C20243
:1001D00081E068276093C20280919402882319F01D
:1001E00081E10E9439248091C5029091C602019656
:1001F0009093C6028093C50208950C960C94D11E6C
:10020000CF93DF931F92CDB7DEB7698341E050E013
:10021000BE016F5F7F4F0C960E94D11E0F90DF9141
:10022000CF910895EF92FF921F93CF93DF93FC013C
:10023000208120FF32C0EC017C01F7E0EF0EF11CC1
:100240004B815C816D817E81E981FA81970180819A
:1002500091810E94780F182F811102C010E01EC0FA
:10026000888181FD04C088818E7F888317C0E981E1
:10027000FA814B815C816D817E8184859585A6851F
:10028000B785480F591F6A1F7B1F97018081918195
:100290000E94780F8111E7CFE1CF11E0812FDF912C
:1002A000CF911F91FF90EF900895CF92DF92EF9240
:1002B000FF921F93CF93DF93EC016A017B01122F12
:1002C0008B819C81AD81BE8184179507A607B707F6
:1002D000F1F0CE010E941201811103C080E090E094
:1002E0001CC012FF06C01882CB82DC82ED82FE8227
:1002F0000EC0E981FA819E01295F3F4FB701A60137
:10030000808191810E94E90F8111EDCFE7CF1370B9
:100310008881182B1883CE010796DF91CF911F910A
:10032000FF90EF90DF90CF900895CF92DF92EF9201
:10033000FF920F931F93CF93DF93EC016A017B0130
:1003400089018D81803251F58C899D89AE89BF8963
:10035000E7E07695679557954795EA95D1F7480F69
:10036000591F6A1F7B1F22E0CE0180960E94550113
:10037000009711F48FEF40C0E894C7F8DD24EE2415
:10038000FF24CC0CDD1CCC0CDD1CFC01EC0DFD1D98
:1003900080819181A281B381BF701DC0803151F7EE
:1003A0004C895D896E897F894D0D511D611D711DBF
:1003B00022E0CE0180960E9455010097D9F2DD24FB
:1003C000EE24FF24CC0CDD1CFC01EC0DFD1D808116
:1003D0009181A0E0B0E0488D598D6A8D7B8D4817E2
:1003E00059076A077B0738F0F80180839183A2835D
:1003F000B38381E001C080E0DF91CF911F910F9125
:10040000FF90EF90DF90CF9008956115710579F01E
:10041000FB0101900020E9F73197AF01461B570B14
:10042000DC01ED91FC910280F381E02D099480E0E4
:1004300090E008950F931F93CF93DF93FC012081E9
:10044000211102C081E058C0EC01828187FF4BC0BE
:1004500044895589668977898681978121E08096CC
:100460000E945501009729F489818160898380E089
:1004700043C00C811D810F70112725E0000F111F53
:100480002A95E1F7080F191F0115110569F3F80105
:100490008081853E49F3888183FF08C0888D998DCE
:1004A000AA8DBB8D848F958FA68FB78F8C8D9D8DD8
:1004B000AE8DBF8DF801938F828FB58BA48BE091A9
:1004C0009303F0919403309759F0B8016A5E7F4F1F
:1004D000C80148960995F801808D918D938B828B88
:1004E0008A818F778A838E819F8180960E941201F4
:1004F000882309F4B9CFA6CFDF91CF911F910F9137
:1005000008950C960C941A024F925F926F927F920C
:100510008F929F92AF92BF92CF92DF92EF92FF9213
:100520000F931F93CF93DF93EC014A015B014C843F
:100530005D846E847F84A881AA2309F491C04889D0
:1005400059896A897B89481559056A057B0509F42B
:100550008DC081149104A104B10429F41C861D8668
:100560001E861F8678C0A3FF0BC0088D198D2A8DAB
:100570003B8D081519052A053B0508F471C014C008
:10058000A5FF12C0EE81FF818681978125E0880F4B
:10059000991F2A95E1F7A0E0B0E088159905AA0512
:1005A000BB0508F45DC057C0EE81FF81848190E0F7
:1005B00009968A019B010150110921093109082E70
:1005C00004C036952795179507950A94D2F77501BB
:1005D0006401B1E0CB1AD108E108F10804C0F69437
:1005E000E794D794C7948A95D2F7C016D106E2064D
:1005F000F30620F0452B462B472B99F4A6FF05C0A8
:10060000848D958DA68DB78D04C08C8D9D8DAE8DFE
:10061000BF8D8C879D87AE87BF878E01045F1F4F7C
:1006200015C0C01AD10AE20AF30AF7CF4C855D85DE
:100630006E857F8598018E819F810E94950191E052
:10064000C91AD108E108F108181654F4C114D104EC
:10065000E104F10459F7888A998AAA8ABB8A06C0FC
:100660004C865D866E867F8680E001C081E0DF91EA
:10067000CF911F910F91FF90EF90DF90CF90BF909F
:10068000AF909F908F907F906F905F904F90089564
:10069000FF920F931F93CF93DF931F92CDB7DEB7D7
:1006A0008C01FC0180899189A289B3899C01AD01EB
:1006B00075E056954795379527957A95D1F7F22F9E
:1006C000FF70FF2E11F0611114C0BE016F5F7F4FEC
:1006D000C8010E94F31D813019F080E090E01AC03B
:1006E000F80180899189A289B3894F96A11DB11D16
:1006F00004C08096A11DB11DF801808B918BA28B47
:10070000B38BF801868197818796F0E2FF9E800D7A
:10071000911D11240F90DF91CF911F910F91FF90A8
:100720000895FC018081811114C080E2DF01982FBF
:100730001D929A95E9F777836683DB0115969C9164
:10074000903119F0903229F480E4808381E0828333
:10075000089580E00895CF93DF93EC010E941A0280
:100760001882DF91CF9108953F924F925F926F92DE
:100770007F928F929F92AF92BF92CF92DF92EF9231
:10078000FF920F931F93CF93DF93CDB7DEB72897D8
:100790000FB6F894DEBF0FBECDBF4C01DC01129640
:1007A0008C911297806812968C9312971C964D909C
:1007B0005D906D907C901F971696AD90BC901797AA
:1007C000411451046104710461F4D50118968D91AE
:1007D0009D910D90BC91A02D8D839E83AF83B88792
:1007E00004C04D825E826F827886CD80DE80EF808D
:1007F000F884BFEFCB1ADB0AEB0AFB0AF501808D08
:10080000918DA28DB38D8C159D05AE05BF0528F485
:1008100082E0C82ED12CE12CF12C9E012F5F3F4F9E
:10082000B701A601C5010E94950187FD20C088235C
:1008300041F089819A81AB81BC81892B8A2B8B2BDA
:1008400051F08D819E81AF81B885C816D906EA0620
:10085000FB0679F60CC00FEF1FEF2FEF3FE0B7015B
:10086000A601C5010E944910382E811102C0312C09
:100870001BC0411451046104710451F097018601B9
:10088000B301A201C5010E944910811108C0EFCF38
:10089000D5011896CD92DD92ED92FC921B97F40152
:1008A000C486D586E686F786832D28960FB6F894FB
:1008B000DEBF0FBECDBFDF91CF911F910F91FF9093
:1008C000EF90DF90CF90BF90AF909F908F907F90F0
:1008D0006F905F904F903F900895CF92DF92EF928C
:1008E000FF920F931F93CF936091A7027091A8027C
:1008F0008091A9029091AA022091D6023091D7024C
:100900004091D8025091D9020E94EA32181684F41C
:100910008091A7029091A802A091A902B091AA0289
:100920008093D6029093D702A093D802B093D902B5
:100930008091D50281119EC0C090A702D090A802DC
:10094000E090A902F090AA028091AC029091AD02D1
:10095000A091AE02B091AF020091D0021091D102ED
:100960002091D2023091D302BC01CD01601B710BEA
:10097000820B930B2CE330E040E050E00E9499336F
:100980008091100190911101A0E0B0E082179307CF
:10099000A407B50720F5C1E020910C0130910D01AD
:1009A00040910E0150910F01C701B6010E94EA3239
:1009B00018160CF0C0E081E09091D402911180E013
:1009C0008C2369F0C1E0C093D40261E086E00E940C
:1009D000392461E089E00E943924C093CF0220913C
:1009E000A7023091A8024091A9025091AA026091F9
:1009F000D6027091D7028091D8029091D9020E94BC
:100A00002531209108013091090140910A0150914E
:100A10000B010E94EA3218166CF591E08091D40225
:100A2000813009F090E081E02091020130910301D2
:100A3000121613060CF080E08923E1F0C1E0C093A8
:100A4000D50261E085E00E943924C093CE028091F6
:100A5000AC029091AD02A091AE02B091AF02809332
:100A6000D0029093D102A093D202B093D30282E03D
:100A70008093D4028091D402823031F56091A70234
:100A80007091A8028091A9029091AA02209104017C
:100A90003091050140910601509107010E94923169
:100AA00087FF12C08091A7029091A802A091A9028D
:100AB000B091AA028093D6029093D702A093D80255
:100AC000B093D9021092D402C090D002D090D1023B
:100AD000E090D202F090D302B701A601465F5F4FCB
:100AE0006F4F7F4F8091AC029091AD02A091AE020A
:100AF000B091AF02481759076A077B0798F48091B5
:100B0000D502813079F484E10E94A424883C9105C7
:100B10004CF460E085E00E9439241092CE0282E01D
:100B20008093D5028091D502823049F58091AC0244
:100B30009091AD02A091AE02B091AF02BC01CD0187
:100B40006C197D098E099F092CE330E040E050E0EC
:100B50000E94993380910101281788F060E089E0B4
:100B60000E9439248EE00E941024892B41F460E019
:100B700086E00E9439241092CF021092D502CF91C4
:100B80001F910F91FF90EF90DF90CF9008953F92CB
:100B90004F925F926F927F928F929F92AF92BF928D
:100BA000CF92DF92EF92FF920F931F93CF93DF9339
:100BB000CDB7DEB760970FB6F894DEBF0FBECDBFDE
:100BC000162F342EC22EDE2C9CE0E5E6F1E09E01CD
:100BD0002F5F3F4F7901D90101900D929A95E1F76E
:100BE000282F30E0225E3F4FA901330F660B770BB1
:100BF0002A013B0192E075946794579447949A9523
:100C0000D1F7837011F4133020F4812C912C54010E
:100C100007C080E8882E81E5982EAA24A394B12CE1
:100C20009A01AB01241935094609570960E873E3B5
:100C300081EE91E00E9461336D877E878F87988B6C
:100C4000A301920160E075E882EE91E00E946133B9
:100C50004D845E846F847888460E571E681E791E08
:100C6000480C591C6A1C7B1C5701E12FF0E031979E
:100C7000C5018E199F098E179F0784F4D5018D91A8
:100C80005D01A82FB0E020E831E541E050E00E948E
:100C9000CA33460E571E681E791EEACF202F30E059
:100CA000ACE3B0E00E94BB334B015C018D0C911CA6
:100CB000A11CB11C2C2D30E0A0E1BEE00E94BB3392
:100CC000860E971EA81EB91EA32DB0E020E831E5C0
:100CD00041E050E00E94CA33DC01CB01880D991D30
:100CE000AA1DBB1DBC01CD01640D751D861D971D80
:100CF00060960FB6F894DEBF0FBECDBFDF91CF91E7
:100D00001F910F91FF90EF90DF90CF90BF90AF9029
:100D10009F908F907F906F905F904F903F9008953D
:100D2000CF92DF92EF92FF920F931F93CF93DF93B7
:100D3000CDB7DEB727970FB6F894DEBF0FBECDBF95
:100D400081E08093980288E6809397021092960241
:100D50001092950280E090E00E94792160E082E3A9
:100D600094E00E94DA1B40E067E088E60E945A1790
:100D70001092E0028093DF02CE0101967C018C018B
:100D80006801CE18DF089091DF028091E002981789
:100D900041F082E394E00E941419F80181938F01DD
:100DA000EFCF82E394E00E94351CF7E0CF16D10428
:100DB00009F054C08981982F9695969596959E71C5
:100DC000292F220F220F920F8F70890F8093A50277
:100DD0008A81982F9695969596959E71292F220F28
:100DE000220F920F8F70890F8093A6028B81982F0C
:100DF0009695969596959670292F220F220F920F11
:100E00008F70890F809312018D81982F96959695FA
:100E100096959E71292F220F220F920F8F70890FA6
:100E2000809313018E81982F9695969596959E7135
:100E3000292F220F220F920F8F70890F8093140198
:100E40008F81982F9695969596959E71292F220FB2
:100E5000220F920F8F70890F80931501E090A502E9
:100E60000091A6022091120140911301609114019A
:100E7000809115010E94C7056093AC027093AD028A
:100E80008093AE029093AF0227960FB6F894DEBF20
:100E90000FBECDBFDF91CF911F910F91FF90EF90CB
:100EA000DF90CF900895CF92DF92EF92FF920F9351
:100EB0001F93CF93DF9300D000D01F92CDB7DEB742
:100EC00065E070E080E490E00E949C178E010F5F67
:100ED0001F4F9091DF028091E002981741F082E36A
:100EE00094E00E941419F80181938F01F2CF6A8176
:100EF0007B8176276727762780E090E00E94383252
:100F000020E030E040E856E40E94253120E030E067
:100F100048E453E40E94EF3220E030E040E058E340
:100F20000E94EF3220E030E0A9010E94263120E04B
:100F300030E04AE754E40E94EF326B017C012091DB
:100F4000990230919A0240919B0250919C020E941A
:100F5000253126E031EC4EED52E40E94973160934A
:100F6000A7027093A8028093A9029093AA026C81B1
:100F70007D8176276727762784E0769567958A9521
:100F8000E1F76851710980E090E00E9438322DEC61
:100F90003CEC4CE45DE30E94EF3220E030E048E4BA
:100FA00052E40E9425316093CA027093CB02809371
:100FB000CC029093CD02C0929D02D0929E02E0920C
:100FC0009F02F092A0020F900F900F900F900F9041
:100FD000DF91CF911F910F91FF90EF90DF90CF9015
:100FE000089581E08093980280E4809397021092A4
:100FF0009602109295028CEA90E00E94792182E399
:1010000094E00C94351C84B7877F84BFE0E6F0E061
:1010100080818861808386E0808380818064808392
:1010200008951F920F920FB60F9211240F900FBECA
:101030000F901F90189585E10E94A424BC01990F80
:10104000880B990B0E943A3227E230EA49E85BE3C9
:101050000E94EF326093A1027093A2028093A302D8
:101060009093A40208958F929F92AF92BF92CF92D5
:10107000DF92EF92FF920F931F93CF93DF93CDB741
:10108000DEB76A970FB6F894DEBF0FBECDBF809172
:10109000C8029091C90201969093C9028093C80238
:1010A00082EC96E0892B09F4B8C060E080EC96E011
:1010B0000E94381C6C0107E110E020E030E0AE0136
:1010C0004F5F5F4F6DE280EC96E00E94521CC82A91
:1010D000D92A89819A819827892798279093C306CE
:1010E0008093C2068B819C819827892798279093AB
:1010F000C5068093C4068D819E81982789279827ED
:101100009093C7068093C6068F8198859827892774
:1011100098279093C9068093C80689859A85982751
:10112000892798279093CB068093CA068B859C8548
:101130009827892798279093CD068093CC068D8594
:101140009E859827892798279093D5068093D40663
:101150008F858093D706888999899093CF0680934D
:10116000CE068A899B899093D1068093D0068C897C
:101170009D899093D3068093D2068F898093D80659
:1011800062E080EC96E00E94381CC82AD92A01E06F
:1011900010E020E030E0AE01465E5F4F64E180EC9D
:1011A00096E00E94521CC82AD92A9A8D9695292F1A
:1011B00023709091D6069C7F922B9093D60662E086
:1011C00080EC96E00E94381CC82AD92A01E010E081
:1011D00020E030E0AE01475E5F4F61E080EC96E0DA
:1011E0000E94521CC82AD92A998D990F292F2C7038
:1011F0009091D606937F922B9093D60601E010E053
:1012000020E030E0AE01485E5F4F65E180EC96E0A3
:101210000E94521C8C299D2902C083E090E00FB6E9
:10122000F894DEBF0FBECDBF9093DA068093D90647
:101230008091C2069091C3060E94AE14AB01BC011E
:1012400082E494E00E947E2165E072E082E494E012
:101250000E94521A8091C4069091C5060E94AE1455
:10126000AB01BC0182E494E00E947E2165E072E063
:1012700082E494E00E94521A8091C6069091C706BB
:101280000E94AE14AB01BC0182E494E00E947E2176
:1012900065E072E082E494E00E94521A6091CE060A
:1012A0007091CF06072E000C880B990B0E943A32E2
:1012B0002AE939E949E15EE30E94EF32AB01BC0162
:1012C00082E494E00E947E2165E072E082E494E092
:1012D0000E94521A6091D0067091D106072E000C20
:1012E000880B990B0E943A322AE939E949E15EE319
:1012F0000E94EF32AB01BC0182E494E00E947E21A7
:1013000065E072E082E494E00E94521A6091D20695
:101310007091D306072E000C880B990B0E943A326D
:101320002AE939E949E15EE30E94EF32AB01BC01F1
:1013300082E494E00E947E2165E072E082E494E021
:101340000E94521A8091C8069091C9060E945222AA
:10135000AB01BC0182E494E00E947E2165E072E072
:1013600082E494E00E94521A8091CA069091CB06C2
:101370000E945222AB01BC0182E494E00E947E21D3
:1013800065E072E082E494E00E94521A8091CC06FB
:101390009091CD060E945222AB01BC0182E494E000
:1013A0000E947E21E090C802F090C902B7010F2C84
:1013B000000C880B990B0E943A324B015C01609142
:1013C000400470914104072E000C880B990B0E9479
:1013D0003A3220E030E040E05FE30E94EF329B01D0
:1013E000AC01C501B4010E94EA3287FD0CC08091B6
:1013F000C702882341F01092C7028091AB0281118D
:1014000002C00E94F1078091400490914104E816C7
:10141000F9060CF408C18091AB02811102C00E9450
:10142000530781E08093C70280913301909134018A
:10143000892B21F061E084E00E9439240E9490060B
:101440000E941B086CE282E494E00E944B1A6091B7
:1014500015014AE050E082E494E00E943B1A6DE2FC
:1014600082E494E00E944B1A809114018A3028F49F
:1014700060E382E494E00E944B1A609114014AE018
:1014800050E082E494E00E943B1A6DE282E494E032
:101490000E944B1A809113018A3028F460E382E4A1
:1014A00094E00E944B1A609113014AE050E082E4FC
:1014B00094E00E943B1A64E582E494E00E944B1A97
:1014C000809112018A3028F460E382E494E00E9463
:1014D0004B1A609112014AE050E082E494E00E94CD
:1014E0003B1A6AE382E494E00E944B1A8091A602C0
:1014F0008A3028F460E382E494E00E944B1A609101
:10150000A6024AE050E082E494E00E943B1A6AE3BB
:1015100082E494E00E944B1A8091A5028A3028F45C
:1015200060E382E494E00E944B1A6091A5024AE0D5
:1015300050E082E494E00E943B1A65E072E082E4AD
:1015400094E00E94521A40919D0250919E02609137
:101550009F027091A00282E494E00E947E216CE2DE
:1015600082E494E00E944B1A4091A7025091A80295
:101570006091A9027091AA0282E494E00E947E2107
:101580006CE282E494E00E944B1A4091CA025091AE
:10159000CB026091CC027091CD0282E494E00E9473
:1015A0007E216CE282E494E00E944B1A4091A102F9
:1015B0005091A2026091A3027091A40282E494E08F
:1015C0000E947E216CE282E494E00E944B1A80919A
:1015D000CF0290E00E94EB146CE282E494E00E945F
:1015E0004B1A8091CE0290E00E94EB148091000192
:1015F000882359F06CE282E494E00E944B1A8091B7
:10160000C5029091C6020E94EB140E946D041092D4
:10161000C9021092C8021092C6021092C50260E080
:1016200084E00E94392482E494E00E94251A6A969C
:101630000FB6F894DEBF0FBECDBFDF91CF911F91E3
:101640000F91FF90EF90DF90CF90BF90AF909F9061
:101650008F900895EF92FF920F931F93CF93DF9394
:10166000CDB7DEB7C856D1090FB6F894DEBF0FBEAE
:10167000CDBF5091A5024091A60230911201209158
:10168000130190911401809115011F925F931F9295
:101690004F931F923F931F922F931F929F931F92DE
:1016A0008F9387E092E09F938F938E010F5F1F4F80
:1016B0001F930F930E94F633CE01CD960E943A20DD
:1016C0008DE3E82EF12CEC0EFD1E8CE0E80EF11CF3
:1016D00046E4B801C7010E944315BE01635C7F4F19
:1016E00082E494E00E941F150FB6F894DEBF0FBE8F
:1016F000CDBF80914E04811124C061E081E10E9440
:1017000039248091C3029091C40201969093C4023F
:101710008093C302CE01CD960E943A2042ECB801DC
:10172000C7010E944315BE01635C7F4F82E494E0D1
:101730000E941F1564E670E080E090E00E94BB24E8
:10174000D8CF60E081E10E94392465E272E082E452
:1017500094E00E94521A80910001882331F06BE7D7
:1017600072E082E494E00E94521A82E494E00E94C3
:10177000251A82E990E09093940380939303C859CB
:10178000DF4F0FB6F894DEBF0FBECDBFDF91CF9114
:101790001F910F91FF90EF900895CF93DF931F92C9
:1017A000CDB7DEB7BE016F5F7F4F0E94F31D01977B
:1017B00019F4898190E002C08FEF9FEF0F90DF91C5
:1017C000CF9108950C960C94CD0B8F929F92AF926F
:1017D000BF92CF92DF92EF92FF92CF93DF93EC0113
:1017E0008C8C9D8CAE8CBF8CC88CD98CEA8CFB8C7D
:1017F0000C960E94CD0B97FD08C08C8E9D8EAE8EF0
:10180000BF8EC88ED98EEA8EFB8EDF91CF91FF906E
:10181000EF90DF90CF90BF90AF909F908F90089502
:101820009F92AF92BF92CF92DF92EF92FF920F936F
:101830001F93CF93DF930115110509F44BC0F801F5
:10184000C58DD68D209709F445C069017A015B01E9
:10185000682F178D81E08093980210939702109261
:10186000960210929502E881F9810190F081E02DB5
:10187000CE01099560E0CE010E94DA1B6C2D613229
:1018800008F060E241E0812F0E945A171092E002B6
:101890008093DF0290E0A0E0B0E0C816D906EA0627
:1018A000FB06D9F4912C892D90E0A0E0B0E08C15D6
:1018B0009D05AE05BF05A0F48501090D111DE88148
:1018C000F9810284F385E02DCE010995F80180832A
:1018D0009394E9CF83E090E005C086E090E002C0F9
:1018E00080E090E0DF91CF911F910F91FF90EF90FA
:1018F000DF90CF90BF90AF909F9008958F929F926E
:10190000AF92BF92EF92FF920F931F93CF93DF930B
:101910000115110549F1F801C58DD68D209721F1EA
:1019200049015A017B01682F878D91E090939802BD
:10193000809397021092960210929502E881F981A5
:101940000190F081E02DCE010995E881F9810280B6
:10195000F381E02DA401B701CE010995CE010E94CB
:10196000351C80E090E002C083E090E0DF91CF91F1
:101970001F910F91FF90EF90BF90AF909F908F902D
:101980000895AF92BF92DF92EF92FF920F931F9351
:10199000CF93DF9300D000D0CDB7DEB77C0160E0FD
:1019A0000E94381C009719F4C7010E949023F70188
:1019B000818F928F60E0C7010E94381C009709F068
:1019C00043C0C7010E9490230097F1F563E0C7016F
:1019D0000E94381C0097C1F501E010E020E030E0E3
:1019E000AE014E5F5F4F61E0C7010E94521C00973D
:1019F00059F58A81807F876080618A83AE014E5F5E
:101A00005F4F61E0C7010E94A7170097E9F460E00B
:101A1000C7010E94381C0097B9F401E010E020E0F3
:101A200030E0AE014F5F5F4F63E0C7010E94521C80
:101A3000009751F4898180628983AE014F5F5F4FC7
:101A400063E0C7010E94A717F701928F818FD12C05
:101A500084E0A82EB12C21E0AE014F5F5F4F60E023
:101A6000C7010E94DF22F701928F818F198121E047
:101A7000AE014F5F5F4F61E0C7010E94DF228981A5
:101A8000F701128E118E183411F4893051F1F701DB
:101A9000B28EA18E60E0C7010E94381C0097B9F495
:101AA00001E010E020E030E0AE014F5F5F4F63E007
:101AB000C7010E94521C009751F48981826089837A
:101AC000AE014F5F5F4F63E0C7010E94A717F701A8
:101AD000818F928FD394F5E0DF12BDCF84E090E048
:101AE0003AC088E08C8320E0AE014C5F5F4F61E339
:101AF000C7010E94DF22F701928F818F009771F555
:101B000063E0C7010E94381C009729F58B8180781B
:101B10008C6080688B83AE014D5F5F4F63E0C701CF
:101B20000E94A7170097B9F480E18A83AE014E5F47
:101B30005F4F64E0C7010E94A717009761F4898195
:101B4000807489688F7B8983AE014F5F5F4F65E04A
:101B5000C7010E94A717F701928F818F0F900F90F6
:101B60000F900F90DF91CF911F910F91FF90EF9009
:101B7000DF90BF90AF900895CF92DF92EF92FF92E7
:101B80000F931F93CF93DF931F92CDB7DEB77C01E6
:101B9000822FF70120A3768F658F41A3411102C0E8
:101BA00098E602C099E6F701978F8F3F19F061E040
:101BB0000E946824F70180A18F3F19F061A10E9463
:101BC00039248EE79CE0F70193A382A380E19CE097
:101BD00095A384A3F7A2E6A2C7018296938382838A
:101BE0006701F2E0CF0ED11C198260E0C6010E94AD
:101BF000381C01E010E020E030E0AE014F5F5F4FA5
:101C000060E0C6010E94521C009729F429812A3EF7
:101C100011F084E090E0F701948F838F009709F032
:101C200060C0C6010E94B11DF701948F838F009799
:101C300009F057C062E370E080E090E00E94BB24AE
:101C4000C6010E94E423F701948F838F009709F067
:101C500048C0C6010E94B823F701948F838F009774
:101C600009F03FC040E050E063E070E0C6010E9430
:101C7000641DF701948F838F009799F540E063E02E
:101C800070E0C6010E94EC1CF701948F838F0097CF
:101C900041F547E057E063E070E0C6010E946D1C2B
:101CA000F701948F838F0097E1F461E070E0C60143
:101CB0000E94C430F701948F838F009791F462E003
:101CC00070E0C6010E94C430F701948F838F0097A3
:101CD00041F4C6010E94C10C009719F4F701838DED
:101CE000948DF701948F838F0F90DF91CF911F9187
:101CF0000F91FF90EF90DF90CF9008951F920F9279
:101D00000FB60F9211242F933F934F935F936F93CE
:101D10007F938F939F93AF93BF93EF93FF937894A9
:101D200080912E0390912F038093B2008091DB026B
:101D30009091DC02A091DD02B091DE020196A11D1E
:101D4000B11D8093DB029093DC02A093DD02B0937F
:101D5000DE024091DB025091DC026091DD02709165
:101D6000DE0280912A0390912B03A0912C03B09165
:101D70002D03481759076A077B07B0F08091DA02F4
:101D8000811112C081E08093DA021092DB0210927E
:101D9000DC021092DD021092DE02E0912803F09145
:101DA000290309951092DA02FF91EF91BF91AF914B
:101DB0009F918F917F916F915F914F913F912F9163
:101DC0000F900FBE0F901F9018951092DB0210928B
:101DD000DC021092DD021092DE021092DA02809193
:101DE0002E0390912F038093B200E0E7F0E0808112
:101DF000816080830895CF93DF93EC01E981FA81BC
:101E0000908181819CBD8DBDE981FA8160E08281F4
:101E10000E94392481E08B83DF91CF9108958EBD9C
:101E20000DB407FEFDCF08958FEF8EBD0DB407FEF4
:101E3000FDCF8EB50895CF93DF93FC01238122233C
:101E400061F0EC010180F281E02D61E082810E946D
:101E500039248FEF0E940F0F1B82DF91CF910895DD
:101E6000EF92FF921F93CF93DF9300D000D0CDB7B6
:101E7000DEB77C01162F29833A834B835C83FC01F8
:101E80008381811103C0C7010E94FB0E0E94DD1DEA
:101E9000812F80640E940F0F8C810E940F0F8B8115
:101EA0000E940F0F8A810E940F0F89810E940F0FDD
:101EB000112311F087E801C085E90E940F0F1C3043
:101EC00011F40E94140F10E00E94140FF701848394
:101ED00087FF04C01F3F11F01F5FF6CF0F900F90D8
:101EE0000F900F90DF91CF911F91FF90EF90089589
:101EF0000F931F93CF93DF93EC0189018D81833082
:101F000039F089E0440F551F661F771F8A95D1F776
:101F10009A01AB0168E1CE010E94300F882311F0D5
:101F200082E32DC08EEF0E940F0FF80180818EBDDD
:101F3000818132961E5F0DB407FEFDCF8EBDE01786
:101F4000F10711F08191F7CF0DB407FEFDCF8FEFB0
:101F50000E940F0F8FEF0E940F0F0E94140F8C83AF
:101F60008F71853031F086E58883CE010E941B0F8A
:101F700007C00E94DD1D182F811107C089E58883E5
:101F8000CE010E941B0F10E012C020E030E0A9013A
:101F90006DE0CE010E94300F811104C00E94140F29
:101FA000882311F089E2EBCFCE010E941B0F812F15
:101FB000DF91CF911F910F9108952FB7F8948091E1
:101FC000E7069091E806A091E906B091EA062FBFD6
:101FD0000895EF92FF920F931F93CF93DF93EC013D
:101FE00089018D81833039F089E0440F551F661FC8
:101FF000771F8A95D1F79A01AB0161E1CE010E946A
:10200000300F882319F080E3888338C00E94DD0FE9
:102010007C010E94140F8C838F3F49F40E94DD0FD6
:102020008E199F098D329140A0F384E503C08E3F45
:1020300031F080E58883CE010E941B0F1FC08FEF17
:102040008EBDF801D801A150BE4F9FEF0DB407FE21
:10205000FDCF8EB59EBD8193AE17BF07B9F70DB406
:1020600007FEFDCF8EB58C931C820E94140F0E9438
:10207000140FCE010E941B0F81E004C0CE010E940C
:102080001B0F80E0DF91CF911F910F91FF90EF9098
:1020900008958F929F92AF92BF92CF92DF92EF926C
:1020A000FF920F931F936A017B0148015901FC01C4
:1020B0002581203251F544895589668977899701B0
:1020C0008601E7E03695279517950795EA95D1F7AC
:1020D000400F511F621F731F23E080960E9455011D
:1020E000009711F480E02DC0E894C7F8DD24EE24B9
:1020F000FF24CC0CDD1CCC0CDD1CFC01EC0DFD1D0B
:1021000080829182A282B3821BC0203159F7FC01E8
:1021100044895589668977894D0D511D611D711D51
:1021200023E080960E9455010097E1F2DD24EE2421
:10213000FF24CC0CDD1CFC01EC0DFD1D9182808286
:1021400081E01F910F91FF90EF90DF90CF90BF90B3
:10215000AF909F908F9008952F923F924F925F92F1
:102160006F927F928F929F92AF92BF92CF92DF92A7
:10217000EF92FF920F931F93CF93DF93CDB7DEB70C
:102180002D970FB6F894DEBF0FBECDBFFC018B01BB
:102190007A01DB018C91807709F4BCC380818111C5
:1021A000B9C3DA0111960D90BC91A02DBF83AE8307
:1021B000DA018C91837009F498C38E819F810C960B
:1021C0006DE070E00E947133BB24B394B60E2D8392
:1021D00047011F0140E050E0BA01C8010E9484029B
:1021E0001A8619861886A12CC12CD12C1B86F701C2
:1021F0003696FD87EC87D80150964D905D906D9096
:102200007C90539735E076946794579447943A9529
:10221000D1F7720161E0C8010E944803009731F4D0
:10222000F8018181882309F4A2C074C3DC012C91D8
:10223000253E11F021110AC0C11002C05A864986FC
:10224000CB1408F4C394211105C091C0CB1408F439
:102250004FC303C0253E09F43FC02E32E9F1FC0113
:1022600033853F3009F057C0D11008C026FFC3CFD7
:102270002F71A22EF585F887D22E07C0AA942A11B5
:102280002BC02585B8852B1327C04A2D50E041501F
:102290005109EDE0E49F9001E59F300D11244E813E
:1022A0005F8124173507C0F4FC01F12C54E05F1561
:1022B00018F08181928108C06AE06F1518F084815E
:1022C000958102C086819781AE81BF81A217B30735
:1022D00029F4892B09F48FCFD12C8DCF8F3F910515
:1022E00009F0D0F74FEB480F4A3108F4805EA9019E
:1022F0004F5F5F4FD40113966D917C911497260F19
:10230000371FD9019C912FEB290F2A3108F4905ED9
:102310009813E2CFEFC233FDDFCFDD20A1F0B1E0B3
:10232000AB12F8C2FC019C01255F3F4F90E090FB8F
:10233000979597F98191980FE217F307C1F7E88510
:10234000E913E8C210C04BE050E06C857D850E9427
:10235000E033892B09F04FCFD4018C9180FF03C06B
:10236000F1E0FB8748CFBD81B7FFF6C1D3C28D81B5
:102370008274823409F0CEC2C11002C0FA86E986A6
:10238000CB1408F096C060E0C8010E944803892B76
:1023900031F4F8018181882309F476C0BBC2C3946B
:1023A000EFCF50968D919D910D90BC91A02D8115F0
:1023B0009E4FAF41B10508F0ADC2C8010E94B40301
:1023C000882309F4A7C2D8011696ED91FC911797BE
:1023D0001C964D905D906D907C901F97B2E04B1ACB
:1023E000510861087108048004C0440C551C661C27
:1023F000771C0A94D2F780899189A289B389480E03
:10240000591E6A1E7B1E25E0B301A201CF018096F2
:102410000E9455017C01009709F47CC2FC0120E078
:1024200032E0119221503040E1F7DD24D394D801FD
:1024300016960D90BC91A02DBD87AC8712968C91FD
:102440001297D81630F190E0A0E0B0E029E0880FB4
:10245000991FAA1FBB1F2A95D1F7F80140895189FE
:1024600062897389840F951FA61FB71F808B918B7C
:10247000A28BB38BAC85BD8512968C918230C8F44B
:10248000B0E1CB0ECB14A8F4D8018C9185FF89CF95
:1024900041C29701B301A2014D0D511D611D711D76
:1024A0008D919C910E94780F882309F433C2D394B4
:1024B000BECFEB85EE2309F46AC0D4011596AC902B
:1024C00082E0E82EF12C9EE7792E6401B6E0CB0E77
:1024D000D11CF401818192819701280F391F03805B
:1024E000F481E02D8E0F9F1F8E179F0779F0A901B1
:1024F000B5E0440F551FBA95E1F7240F351F419100
:10250000042E000C550B24273527EECFF3E0FA15E7
:1025100010F4A3E0AA2E94E09A0D822F8F70E92F79
:10252000F0E08A3010F4805D01C0895CE80DF91D8F
:102530008683F4E036952795FA95E1F79150A91630
:1025400060F3F401EA0DF11D768240E050E0BA013B
:10255000C8010E94840261E0C8010E9448030097FC
:1025600031F4D80111968C918111D4C110C0FC01B5
:102570002081222361F0238523FDEDCF4BE050E045
:10258000BC01C6010E94E033892B29F7BBC1298514
:102590003A85A90160E070E0E5E0440F551F661F31
:1025A000771FEA95D1F7C8010E948402882309F4B5
:1025B000B1C1DD24DA94DB0CCD2C3D2D3064B32E7B
:1025C0003FE0A32E740141E1E40EF11C4DE0742EB6
:1025D000CC2009F466C060E0C8010E944803FC01F9
:1025E000892B09F497C1D80116962D913C91179724
:1025F000D90190968C919097816090968C93DC1085
:1026000002C06B2D01C06C2D6083A3861486D4019B
:10261000169680E080FB879587F99D91890FAE150E
:10262000BF05C1F78587138E128ED40113964D9185
:102630005C9114976F7170E061507109769E900102
:10264000779E300D112460E08E819F812817390715
:1026500040F4DA01A20FB31F8C91082E000C990BE5
:102660000CC081E090E0AE81BF81A217B30711F4E6
:1026700080E090E0919581959109653018F49283FE
:10268000818307C06B3018F49583848302C09783DD
:1026900086836F5F2F5F3F4F32966D30A9F6CA94E5
:1026A00097CFF80180899189A289B38925E0B695F1
:1026B000A795979587952A95D1F77C0160E0C80189
:1026C0000E9448035C01892B09F424C180E2D501F2
:1026D0001D928A95E9F7F40136968BE0D5010190B9
:1026E0000D928A95E1F7F40180818871D5011C96DD
:1026F0008C93E0919303F0919403309739F0B501F6
:10270000625F7F4FC5014096099509C081E298E25A
:10271000F501918B808B80E098E097878687D501C3
:1027200050968D919C91519753969C938E9352976E
:1027300059969C938E9358971E968D919C911F97B6
:1027400057969C938E935697D8011696ED91FC91CF
:10275000179780A1816080A380E2F10111928A9590
:10276000E9F7D8011696AD90BC901797F101B782A2
:10277000A682F582E4825C968D919D910D90BC912C
:10278000A02D80879187A287B387F701EF70FF277D
:10279000D501979695E0EE0FFF1F9A95E1F79D0101
:1027A0002E0F3F1FD9011B968C9183FF03C0F101AF
:1027B0001082B0C0C5018E0F9F1FDC01D2968C9194
:1027C0008771D1018C93D9011B969C91987119F452
:1027D0008860D1018C93D1011396DC9213978D817F
:1027E000827319F08C91817111F78D818F70D101F5
:1027F00012968C93D50193964D915D916D917C913C
:102800009697D10154964D935D936D937C93579712
:10281000EA0DFB1DC3ACD4ACE12CF12CB60155275D
:1028200044279F012F5B3F4FD901CD90DC90E12CD5
:10283000F12CC42AD52AE62AF72ABD81B4FF33C079
:10284000C114D104E104F10409F466C09E012F5FB4
:102850003F4FB701A601C5010E949501982E87FD43
:10286000A6CF00E010E09801B701A601C5010E94C3
:102870004910882309F49BCFF50140855185628575
:102880007385C416D506E606F70620F4C086D18601
:10289000E286F386C980DA80EB80FC809110D6CF87
:1028A00081113AC084CFD1015C96CD92DD92ED9238
:1028B000FC925F97ED5BFF4F80819181A281B38194
:1028C000F101808F918FA28FB38FFD81F5FF2CC016
:1028D000D10158964D915D916D917C915B97C101AD
:1028E0000E948402811120C062CFBB24B3946FCCBC
:1028F000C12CB3CCF3943296BDE0FB1609F47BCC2B
:102900009A01D4CCEFEFEE1AFE0AF4E6EF16F104CA
:1029100009F0DFCD80E009C0D10112968C911297A9
:10292000806812968C93D1CF81E02D960FB6F894E3
:10293000DEBF0FBECDBFDF91CF911F910F91FF90F2
:10294000EF90DF90CF90BF90AF909F908F907F904F
:102950006F905F904F903F902F900895BC018091B1
:10296000D60683708130D9F078F0823019F1833047
:1029700071F5072E000C880B990B0E943A322FE656
:1029800032E143E050E420C0072E000C880B990B85
:102990000E943A322FE632E143E851E415C0072E97
:1029A000000C880B990B0E943A322FE632E143E08B
:1029B00051E40AC0072E000C880B990B0E943A3292
:1029C0002FE632E143E850E40E949731089560E039
:1029D00070E0CB010895CF92DF92EF92FF92CF93F8
:1029E000DF936C01990FEE08FF08F7FE1BC06DE244
:1029F00082E494E00E944B1AEC0144275527BA0167
:102A00004C195D096E097F092AE082E494E00E9476
:102A1000DC198C0F9D1FDF91CF91FF90EF90DF901D
:102A2000CF9008952AE0B701A60182E494E0DF91F7
:102A3000CF91FF90EF90DF90CF900C94DC19CF9363
:102A4000DF93EB0120E2FB013C96DC011C96019038
:102A50000D922A95E1F72A813B81FC013383228381
:102A60004C815D816E817F8144835583668377834A
:102A7000488559856A857B8540875187628773873A
:102A8000DF91CF9108952F923F924F925F926F9274
:102A90007F928F929F92AF92BF92CF92DF92EF92EE
:102AA000FF920F931F93CF93DF93CDB7DEB7E597D8
:102AB0000FB6F894DEBF0FBECDBF7C018B01842E14
:102AC00019821A82DC018C91811158C1809195067E
:102AD000807709F453C1FB0180818F32C9F48F01E3
:102AE00081918F32E1F360919B0670919C06811178
:102AF00004C0C7010E94910378C1CE0101960E94D3
:102B00009103882309F43AC1BE016F5F7F4F02C071
:102B100065E976E0FE01F296FBABEAABF8019F01B6
:102B20002F5F3F4F8081803211F4F901F8CFFDA370
:102B3000ECA39F01A9014E1B5F0B8901D9018D9167
:102B40009D01882341F18F3221F4CF01840F951F1D
:102B50001BC08C3509F412C1982F977F923209F46B
:102B60000DC18A3309F40AC1982F9F7B9C3309F465
:102B700005C192EC980F923008F400C180528F3555
:102B8000C8F2FCC02F3239F48C01DC012D91CD014B
:102B90002032C1F7F9CFDA01AE0FBF1FAD014E1BD6
:102BA0005F0BEA17FB0759F08E918E32B9F3803232
:102BB000A9F34F3F510511F00CF0E0C002C040E016
:102BC00050E05BA34AA3DE0197965D0180E2382EB8
:102BD0003D928AA99BA9A817B907C1F79F01C9010E
:102BE0008E1B9F0BD901DD909D01BEE2DB16B9F370
:102BF000B0E23B2ED31499F321E02DAB009709F0FE
:102C00001DAA9A01215031096F01C40ED51E2F3F14
:102C1000AFEF3A0749F45EA0612CB7E07B2E312C70
:102C2000912CA8E04A2E54C0D6019E906D01BEE2C0
:102C30009B1689F321503109EACF6F01C80ED91EC6
:102C4000D601BC91BCABB03209F472C0BE3209F0FF
:102C500044C08217930709F06BC0A6EDDA2EBCA919
:102C6000DB0EA5E0AD1508F03FC0B6ECDB2EBCA92D
:102C7000DB0EA5E0AD15D8F5A5EADA2EDB0EB2E045
:102C8000BD15A8F5BFEDDB2EACA9DA0EBDE5BD156F
:102C900070F18217930709F4A1C07314D0F1DCA876
:102CA000AFE9CA2ECD0CA9E1AC1560F1BD2DB05233
:102CB000BCAB642822242394230C6501C30CD11CD3
:102CC0003CA8D6013C92A6E0A215A0F5322C0196B4
:102CD000841795070CF4B1CF30C0ACA9A23239F0FB
:102CE000AC3709F0BACF03C0BD3209F4BECF8217AA
:102CF000930709F469C0731460F0AFE5DA2E1DAADA
:102D0000BFE5BCABAFEBDA0EB9E1BD1598F2942884
:102D1000D1CFAAE07A1609F465C0281739070CF458
:102D200061C0C901BAE07B2EA8E03A2EB0E14B2E7B
:102D30001DAACDCF522C322CCACF5EA28FA18032D9
:102D4000E9F0BDA9BB2341F0862D892111F4862D20
:102D500001C082E089A314C081E089A38EA190E024
:102D6000D501A80FB91F2EE72C93E8E2F0E0EC0F95
:102D7000FD1FE80FF91F21E3208302C080E035C06A
:102D8000D8018C918823C1F021E0AE014F5D5F4FE7
:102D9000C7010E94AC10882389F380E2F701DE01AD
:102DA000119601900D928A95E1F7C7010E94AB033D
:102DB000BE016F5F7F4FB2CE282DAE014F5D5F4FDA
:102DC000C7010E94AC1011C0BAE07B1659F0AAE00E
:102DD0007A2EB8E03B2EA0E14A2E79CFBAE03B2E06
:102DE0007310F5CF5EA21DAAA9CFE5960FB6F89491
:102DF000DEBF0FBECDBFDF91CF911F910F91FF902E
:102E0000EF90DF90CF90BF90AF909F908F907F908A
:102E10006F905F904F903F902F900895AB01BC0151
:102E2000809170008E7F809370008091B0008C7FC5
:102E30008093B0008091B100877F8093B100809132
:102E4000B6008F7D8093B600809170008D7F809357
:102E500070008091B10084608093B1008091B100D6
:102E60008C7F8093B10083E890E090932F03809350
:102E70002E03411551056105710569F481E090E06B
:102E8000A0E0B0E080932A0390932B03A0932C033F
:102E9000B0932D0308C040932A0350932B036093F3
:102EA0002C0370932D0383E398E090932903809380
:102EB00028030895909127039111FCCF91E09093FE
:102EC0002703409326032FEF20932503109224031A
:102ED000260F209323039093220390912203880FBF
:102EE000892B8093220380912103813061F4109219
:102EF0002103809122038093BB008091BC0083FD5D
:102F0000F8CF85EC01C085EE8093BC00809127034B
:102F10008130E1F380912403861710F4609124033B
:102F2000A1E0B3E0E1EEF2E080E0861721F09D91B0
:102F300091938F5FFACF0895613208F060E241E02B
:102F40000E945A171092E0028093DF0208950F93B7
:102F50001F93FC01962FA081B181ED91FC911197F7
:102F6000309761F0BA01892F14960D911C91159735
:102F700021E030E040E050E0099502C082E090E0BE
:102F80001F910F9108950895CF92DF92EF92FF92D3
:102F90000F931F93CF93DF936C017A018B01C0E0F5
:102FA000D0E0CE15DF0581F0D8016D918D01D601FD
:102FB000ED91FC910190F081E02DC6010995892BDE
:102FC00011F02196EECF7E01C701DF91CF911F91C5
:102FD0000F91FF90EF90DF90CF900895FC01538DFB
:102FE000448D252F30E0842F90E0821B930B5417E3
:102FF00010F0CF96089501970895FC01918D828D70
:10300000981761F0828DDF01A80FB11D5D968C913C
:10301000928D9F5F9F73928F90E008958FEF9FEF47
:103020000895FC01918D828D981731F0828DE80F03
:10303000F11D858D90E008958FEF9FEF0895FC01BD
:10304000918D228D892F90E0805C9F4F821B91098A
:103050008F739927089585E993E00E941F1821E056
:10306000892B09F420E0822F0895FC01848DDF0173
:10307000A80FB11DA35ABF4F2C91848D90E00196EB
:103080008F739927848FA689B7892C93A089B189DA
:103090008C91837080648C93938D848D981306C07B
:1030A0000288F389E02D80818F7D80830895EF92DF
:1030B000FF920F931F93CF93DF93EC0181E0888FF2
:1030C0009B8D8C8D981305C0E889F989808185FDD9
:1030D00026C0F62E0B8D10E00F5F1F4F0F731127C8
:1030E000E02E8C8DE8120CC00FB607FCFACFE889F1
:1030F000F989808185FFF5CFCE010E943518F1CF87
:103100008B8DFE01E80FF11DE35AFF4FF0829FB750
:10311000F8940B8FEA89FB89808180620AC09FB78F
:10312000F894EE89FF896083E889F989808183704A
:10313000806480839FBF81E090E0DF91CF911F91F9
:103140000F91FF90EF900895CF93DF93EC01888D5E
:103150008823C9F0EA89FB89808185FD05C0A8899B
:10316000B9898C9186FD0FC00FB607FCF5CF808121
:1031700085FFF2CFA889B9898C9185FFEDCFCE016B
:103180000E943518E7CFDF91CF91089580E090E05D
:10319000892B29F00E942B1881110C9400000895AE
:1031A00085ED8093BC008091BC0084FDFCCF109223
:1031B0002703089540917003262F30E0240F311D1E
:1031C00021323105DCF4209127032430C9F4FC01BD
:1031D00080E090E0861758F4309170032191DC0173
:1031E000A05BBC4FA30FB11D2C930196F3CF809130
:1031F0007003680F6093700380E0089581E0089584
:1032000082E00895089508950895E091E002809184
:10321000DF02E81730F4F0E0EF51FD4F808190E0DD
:1032200008958FEF9FEF08959091E0028091DF0263
:10323000981750F4E92FF0E0EF51FD4F208130E076
:103240009F5F9093E00202C02FEF3FEFC901089506
:103250008091DF0290E02091E002821B91090895A5
:10326000CF92DF92EF92FF920F931F93CF93DF9352
:103270007C01CB018A0120919802222389F0EB0185
:103280006B01C40ED51ECC15DD0569F06991D7011F
:10329000ED91FC910190F081E02DC7010995F3CFEC
:1032A000642F0E94DA18C801DF91CF911F910F910E
:1032B000FF90EF90DF90CF900895CF93DF931F9210
:1032C000CDB7DEB76983209198022223D1F02091F7
:1032D0009502203240F021E030E0FC01338322836C
:1032E00080E090E015C080919602E82FF0E0E05D6C
:1032F000FC4F998190838F5F809396028093950213
:1033000005C061E0CE0101960E94DA1881E090E0EC
:103310000F90DF91CF9108950E94DB331F920F929F
:103320000FB60F9211242F933F934F935F936F9398
:103330007F938F939F93AF93BF93EF93FF93E0910E
:103340002401F09125010995FF91EF91BF91AF9173
:103350009F918F917F916F915F914F913F912F91AD
:103360000F900FBE0F901F9018951F920F920FB6DF
:103370000F9211242F933F934F935F936F937F93FB
:103380008F939F93AF93BF93EF93FF93E0912201AD
:10339000F09123010995FF91EF91BF91AF919F911A
:1033A0008F917F916F915F914F913F912F910F90EE
:1033B0000FBE0F901F9018958F929F92AF92BF9261
:1033C000EF92FF920F931F93CF93DF93CDB7DEB7AA
:1033D000A1970FB6F894DEBF0FBECDBF7C01FA01F6
:1033E000CB0119A2223008F42AE08E010F5D1F4F95
:1033F000822E912CA12CB12CBF01A50194010E9419
:103400009933F901CA01015011096A3014F4605D61
:1034100001C0695CD8016C93232B242B252B61F709
:10342000B801C7010E940502A1960FB6F894DEBF4D
:103430000FBECDBFDF91CF911F910F91FF90EF9005
:10344000BF90AF909F908F90089561E872E00C94C8
:1034500005020F931F93CF93DF93EC010E940502A7
:103460008C01CE010E94251A800F911FDF91CF9110
:103470001F910F9108959A01452B39F4DC01ED91CC
:10348000FC910190F081E02D0994462F50E060E01E
:1034900070E00C94DC19DC01ED91FC910190F0815D
:1034A000E02D09940C9405021F920F920FB60F9213
:1034B00011242F933F934F935F936F937F938F9339
:1034C0009F93AF93BF93EF93FF9385E993E00E949F
:1034D0003518FF91EF91BF91AF919F918F917F919F
:1034E0006F915F914F913F912F910F900FBE0F9071
:1034F0001F9018951F920F920FB60F9211242F93C1
:103500008F939F93EF93FF93E091A503F091A60310
:103510008081E091AB03F091AC0382FD12C09081F9
:103520008091AE038F5F8F732091AF03821751F0AC
:10353000E091AE03F0E0EB56FC4F958F8093AE0325
:1035400001C08081FF91EF919F918F912F910F90FA
:103550000FBE0F901F9018951F920F920FB60F92EB
:1035600011242F933F934F935F936F937F938F9388
:103570009F93AF93BF93EF93FF938091B900887FA0
:10358000803609F49CC068F5883209F45BC090F479
:10359000803109F454C038F4882309F4F6C0883027
:1035A00009F44DC0F6C0883109F44CC0803209F4EA
:1035B0005DC0EFC0803409F468C048F4803309F47A
:1035C00055C0883309F0E5C080932503D8C0803505
:1035D00009F44FC0883509F45DC0883409F0D9C0BA
:1035E000D6C0883909F4C7C0A8F4883709F467C081
:1035F00038F4883609F463C0803709F460C0C9C064
:10360000883809F4B8C0803909F45FC0803809F0FF
:10361000C0C05BC0803B09F486C038F4803A09F42E
:1036200066C0883A09F47FC0B4C0803C09F4A7C0E2
:10363000883C09F4A4C0883B09F48AC0AAC08091E0
:10364000220310C09091240380912303981770F5F2
:10365000E091240381E08E0F80932403F0E0EF5F7C
:10366000FC4F80818093BB0085EC86C0809325034E
:103670008EC0E091240381E08E0F8093240380911B
:10368000BB00F0E0EF5FFC4F8083909124038091BA
:1036900023036EC0E091240381E08E0F8093240306
:1036A0008091BB00F0E0EF5FFC4F808380912603A8
:1036B00081116DC081E08093210384EA61C083E0C1
:1036C0008093270310929203CFCF80919203803290
:1036D00008F051C0E091920381E08E0F8093920335
:1036E0008091BB00F0E0EE58FC4F8083BDCF85ECAD
:1036F0008093BC001092270380919203803230F4B3
:10370000E0919203F0E0EE58FC4F1082609192033A
:1037100070E0E0919002F091910282E793E00995C8
:103720001092920336C084E08093270310927103B5
:1037300010927003E0919202F091930209958091AA
:103740007003811105C081E08093700310925003D3
:10375000E091710381E08E0F80937103F0E0E05BF4
:10376000FC4F80818093BB00909171038091700326
:10377000981708F479CF85E88093BC000AC085ECDF
:103780008093BC001092270304C0109225030E946E
:10379000D018FF91EF91BF91AF919F918F917F9141
:1037A0006F915F914F913F912F910F900FBE0F90AE
:1037B0001F90189530919502313208F04AC08091DF
:1037C00027038111FCCF9091970222E020932703D9
:1037D000609326032FEF2093250310922403309348
:1037E0002303E0E3F3E0A1E0B3E020E0321721F0AF
:1037F00041914D932F5FFACF109222032091220323
:10380000990F922B9093220390912103913061F4B0
:1038100010922103909122039093BB009091BC00E1
:1038200093FDF8CF95EC01C095EE9093BC0090917C
:1038300027039230E1F3909125039F3F79F0809127
:103840002503803241F080912503803331F084E0FC
:1038500005C081E003C082E001C083E010929602BF
:103860001092950210929802089561E00C94DA1B70
:10387000CF93DF931F92CDB7DEB7643068F420E1B9
:10388000629FB001112460736983AE014F5F5F4F87
:103890006FE70E94A71702C083E090E00F90DF91CE
:1038A000CF9108950F931F93FC01962FBA01A08129
:1038B000B1811296ED91FC911397309749F0A901CF
:1038C0009801892F14960D911C911597099502C0A6
:1038D00082E090E01F910F9108958F929F92AF9296
:1038E000BF92CF92DF92EF92FF920F931F93CF93ED
:1038F000DF931F92CDB7DEB79B0123703327232BB5
:1039000009F458C06A014B015C0160FF26C062E007
:103910000E94381C7C0101E010E020E030E0AE01A4
:103920004F5F5F4F64E1C5010E94521CE82AF92AEB
:103930008C2D8770482F440F440F440F8981877C5A
:10394000C82EC42AC982AE014F5F5F4F64E1C50132
:103950000E94A717E82AF92A02C0E12CF12C81FE67
:103960002CC062E0C5010E94381C4C0101E010E04F
:1039700020E030E0AE014F5F5F4F61E0C5010E9483
:10398000521C88299929E82AF92A8D2D8770582FE9
:10399000550F550F550F8981877CD82ED52AD9828E
:1039A000AE014F5F5F4F61E0C5010E94A7178E29EE
:1039B0009F2904C087E090E001C0C7010F90DF910C
:1039C000CF911F910F91FF90EF90DF90CF90BF901C
:1039D000AF909F908F9008958F929F92AF92BF92D9
:1039E000CF92DF92FF920F931F93CF93DF931F929B
:1039F000CDB7DEB79B0123703327232B09F453C0C7
:103A0000F42E4B015C0160FF23C062E00E94381C71
:103A10006C0101E010E020E030E0AE014F5F5F4F4D
:103A200064E1C5010E94521CC82AD92A8F2D8370D7
:103A3000982F990F8981897F892B8983AE014F5FE8
:103A40005F4F64E1C5010E94A717C82AD92A02C0A6
:103A5000C12CD12C81FE2AC062E0C5010E94381C15
:103A60004C0101E010E020E030E0AE014F5F5F4F1D
:103A700061E0C5010E94521C88299929C82AD92AC7
:103A80008F2D8695482F46708981897FF82EF42ADC
:103A9000F982AE014F5F5F4F61E0C5010E94A71739
:103AA0008C299D2904C087E090E001C0C6010F90D9
:103AB000DF91CF911F910F91FF90DF90CF90BF903A
:103AC000AF909F908F900895BF92CF92DF92EF9228
:103AD000FF920F931F93CF93DF931F92CDB7DEB763
:103AE0009B0123713327232B79F1B42E7B016C01C9
:103AF00060E00E94381C009749F501E010E020E0EA
:103B000030E0AE014F5F5F4F65E0C6010E94521C7E
:103B10000097E1F4E0FE04C08981B0FA85F9898359
:103B2000E1FE04C08981B0FA84F98983E4FE04C00F
:103B30008981B0FA86F98983AE014F5F5F4F65E0F6
:103B4000C6010E94A71702C087E090E00F90DF91A6
:103B5000CF911F910F91FF90EF90DF90CF90BF908A
:103B60000895EF92FF920F931F93CF93DF931F92CD
:103B7000CDB7DEB77C0160E00E94381C01E010E0A8
:103B800020E030E0AE014F5F5F4F66E0C7010E946A
:103B9000521C009751F4898180688983AE014F5F80
:103BA0005F4F66E0C7010E94A7170F90DF91CF918A
:103BB0001F910F91FF90EF900895CF93DF930E9494
:103BC000DD0FEC010E94140F8F3F49F00E94DD0FC2
:103BD0008C1B9D0B89359240A8F380E001C081E0E9
:103BE000DF91CF910895DF92EF92FF920F931F9391
:103BF000CF93DF93EC018B0128812223E9F08A81A6
:103C000080FF1AC01FC0D380D422E114F10409F050
:103C100078C0D11076C0892B8A2B8B2B09F456C023
:103C20004C855D856E857F859E01245F3F4FCF016A
:103C30000E94950187FF5AC08981826089838FEF36
:103C40009FEFA7C023FF14C0888D998DAA8DBB8DCF
:103C5000488959896A897B89841B950BA60BB70B08
:103C600082309105A105B105A0F4009791F468C0D8
:103C700025FF0FC0EE81FF818681978145E0880F87
:103C8000991F4A95E1F7488959898417950709F4DE
:103C90005AC088899989AA89BB897C0131E0F322BD
:103CA000EE81FF81AC01BD0139E0769567955795AE
:103CB00047953A95D1F725FFA6CF848D958DA68D92
:103CC000B78D480F591F6A1F7B1F46C026FF05C0CE
:103CD000848D958DA68DB78D04C08C8D9D8DAE8DF8
:103CE000BF8D8C879D87AE87BF870BC0811109C0B0
:103CF0008881807709F4A0CF21E030E081E090E076
:103D000026C0EE81FF814C855D856E857F854250A2
:103D1000510961097109048004C0440F551F661FD1
:103D2000771F0A94D2F780899189A289B389480FB5
:103D3000591F6A1F7B1F4D0D511D611D711D0CC048
:103D400020E030E004C020E030E080E090E0A90115
:103D5000481B590BCA011DC08E819F8120E08096AF
:103D60000E945501009709F467CFFC01EE0DFF1D7D
:103D70008081F801808388899989AA89BB89019605
:103D8000A11DB11D888B998BAA8BBB8B21E030E0E4
:103D9000DCCFDF91CF911F910F91FF90EF90DF90DB
:103DA00008952F923F924F925F926F927F928F92DF
:103DB0009F92AF92BF92CF92DF92EF92FF920F93BA
:103DC0001F93CF93DF93EC015B014A01888183FF4E
:103DD0000EC08A8181FF0BC082FF0FC0488D598DB4
:103DE0006A8D7B8DCE010E948402811106C089817B
:103DF000816089838FEF9FEF2AC1A40160E070E0AA
:103E000088899989AA89BB8980959095A095B09554
:103E100084179507A607B70750F364011E018CE0CD
:103E2000280E311C088919892A893B89C114D104BB
:103E300009F4D0C08E819F81B901A80129E076954F
:103E40006795579547952A95D1F7DC011396FC9015
:103E5000F4221170F11034C00115110589F54C855B
:103E60005D856E857F85411551056105710569F098
:103E700091010E94950187FDBACF8111CDC0CE017D
:103E80000E94B4038111C8C0B2CF8C8D9D8DAE8DC0
:103E9000BF8D0097A105B10579F4CE010E94B4034E
:103EA000882309F4A4CF8C859D85AE85BF858C8F32
:103EB0009D8FAE8FBF8F04C08C879D87AE87BF87D5
:103EC000EE81FF814C855D856E857F85425051096D
:103ED00061097109048004C0440F551F661F771FD4
:103EE0000A94D2F780899189A289B389480F591F12
:103EF0006A1F7B1F4F0D511D611D711D011511059D
:103F000021F4C114B2E0DB06B0F580E092E0801B42
:103F1000910B76018C159D0508F47C0101151105A6
:103F200079F4488859886A887B88888D998DAA8D0C
:103F3000BB8D481659066A067B0610F025E001C0C5
:103F400021E0CF0180960E945501009709F44FCFE0
:103F5000A701B501800F911F0E94ED330E0D1F1DAB
:103F60000115124031F58E819F8180960E941201C9
:103F700081111FC03CCF83A194A1A5A1B6A1841734
:103F80009507A607B70741F410A28FEF9FEFDC015A
:103F900083A394A3A5A3B6A3EE81FF81950180819D
:103FA00091810E94780F882309F421CFE12C82E0CF
:103FB000F82E88899989AA89BB898E0D9F1DA11D1C
:103FC000B11D888B998BAA8BBB8BAE0CBF1CCE18F6
:103FD000DF0828CF488D598D6A8D7B8D8A814017E7
:103FE00051076207730728F4088F198F2A8F3B8FB8
:103FF00006C02091930330919403232B11F0806825
:104000008A838A8183FD02C0C40121C0CE010E943F
:104010001A028111F9CFEBCEEE81FF814C855D85CF
:104020006E857F854250510961097109048004C081
:10403000440F551F661F771F0A94D2F78089918914
:10404000A289B389480F591F6A1F7B1F5ACFDF917E
:10405000CF911F910F91FF90EF90DF90CF90BF9085
:10406000AF909F908F907F906F905F904F903F9018
:104070002F900895FC01148615861382128288EE13
:1040800093E0A0E0B0E084839583A683B78385E7BF
:1040900091E0918380830895CF92DF92EF92FF9217
:1040A0000F931F93CF93C82F1092730481E090E079
:1040B000A0E0B0E08093760490937704A093780416
:1040C000B09379048EE694E09093900480938F04EB
:1040D00010928E048FEF9FEFDC01809391049093F8
:1040E0009204A0939304B0939404CC2331F1C5308F
:1040F00008F0DEC020E040E050E0BA018EE894E035
:104100000E945501009709F4D3C000E1C09F800DC3
:10411000911D11244097FC01E254FE4F20812F771E
:1041200009F0C6C03896C080D180E280F380C11407
:10413000D104E104F10421F4BBC0C12CD12C7601DF
:1041400020E0B701A6018EE894E00E945501FC0131
:10415000892B09F4ADC0838594858115924009F0BF
:10416000A7C08089823009F0A3C026853785211534
:10417000310509F49DC09585909370048FEF890FE8
:1041800080937104C0E081E0981751F041E04C0F3A
:10419000493019F4C09372048BC0880FC42FF4CF38
:1041A000C0937204468957894115510519F060E0A2
:1041B00070E004C044A155A166A177A140937A04A0
:1041C00050937B0460937C0470937D04D701C601F7
:1041D000820F931FA11DB11D8C019D01809382044C
:1041E00090938304A0938404B09385048189928979
:1041F0009093750480937404440F551F661F771FB6
:10420000400F511F621F731F40938A0450938B0409
:1042100060938C0470938D04B5E0880F991FBA9554
:10422000E1F781509E4F892F99278695480F591F96
:10423000611D711D40937E0450937F046093800440
:1042400070938104238934892115310521F0C90136
:10425000A0E0B0E004C080A191A1A2A1B3A1970108
:104260008601041B150B260B370BB901A801480F5B
:10427000591F6A1F7B1F04C0769567955795479510
:10428000CA95D2F7DB01CA010196A11DB11D809329
:10429000860490938704A0938804B0938904453FD3
:1042A0001FE051076105710528F48CE080937304C9
:1042B00080E017C0453F5F4F6105710510F480E154
:1042C0000DC084A595A5A6A5B7A580938A04909353
:1042D0008B04A0938C04B0938D0480E280937304CC
:1042E00081E0CF911F910F91FF90EF90DF90CF90E1
:1042F0000895682F82E394E00C945D194F925F92C9
:104300006F927F928F929F92AF92BF92CF92DF92E5
:10431000EF92FF921F93CF93DF93EC016A017B0131
:104320009A01AB01C701B6010E945C33882319F0E2
:1043300064E872E027C046015701E894B7F82FEF10
:104340003FEF4FE75FE7C501B4010E945C33811185
:104350000DC02FEF3FEF4FE75FE7C501B4010E94AB
:10436000923118161CF468E872E00CC02FEF3FEF92
:104370004FE75FE4C701B6010E94EA321816A4F4C1
:104380006CE872E0CE01DF91CF911F91FF90EF902A
:10439000DF90CF90BF90AF909F908F907F906F9065
:1043A0005F904F900C9405022FEF3FEF4FE75FECCB
:1043B000C701B6010E94923187FDE2CF20E030E0D4
:1043C000A901C701B6010E94923187FF0AC06DE2C0
:1043D000CE010E944B1A5C01F7FAF094F7F8F094C2
:1043E00002C0A12CB12C2AE037ED43EA5BE3C70100
:1043F000B6010E9426312B013C010E9409326B015B
:104400007C010E9438329B01AC01C301B2010E94C1
:1044100025312B013C012AE0B701A601CE010E9403
:10442000DC197C01EA0CFB1C6EE2CE010E944B1AE7
:10443000E80EF91E13E0115021F120E030E040E2D7
:1044400051E4C301B2010E94EF322B013C010E94F2
:1044500009324B01A12CB12C2AE0B501A401CE01F7
:104460000E94DC19E80EF91EC501B4010E94383221
:104470009B01AC01C301B2010E9425312B013C011B
:10448000DACFC701DF91CF911F91FF90EF90DF90BE
:10449000CF90BF90AF909F908F907F906F905F90E4
:1044A0004F900895BC018091D606869586958370BD
:1044B0008130D9F078F0823019F1833071F5072E10
:1044C000000C880B990B0E943A3223E333E343E854
:1044D00051E420C0072E000C880B990B0E943A3241
:1044E00020E030E043E053E415C0072E000C880BB9
:1044F000990B0E943A3220E030E043E852E40AC0CF
:10450000072E000C880B990B0E943A3223E333E309
:1045100043E052E40E949731089560E070E0CB01DF
:104520000895833081F028F4813099F08230A1F031
:1045300008958730A9F08830B9F08430D1F48091A3
:1045400080008F7D03C0809180008F7780938000F2
:10455000089584B58F7702C084B58F7D84BD08959A
:104560008091B0008F7703C08091B0008F7D8093E1
:10457000B00008953FB7F8948091EC069091ED0655
:10458000A091EE06B091EF0626B5A89B05C02F3F7F
:1045900019F00196A11DB11D3FBFBA2FA92F982F69
:1045A0008827820F911DA11DB11DBC01CD0143E0E3
:1045B000660F771F881F991F4A95D1F708957F923C
:1045C0008F929F92AF92BF92CF92DF92EF92FF9223
:1045D0000F931F93CF93DF9300D000D0CDB7DEB7FA
:1045E0007C016C836A01722E211102C080E001C03F
:1045F00080E88C608B8363E0C7010E94381CAE01A9
:104600004D5F5F4F63E1C7010E94A717009709F054
:1046100070C063E0C7010E94381CAE014C5F5F4F61
:1046200064E1C7010E94A717009709F062C08A8160
:104630008068807A8F7D8A83772091F063E0C7015C
:104640000E94381CAE014E5F5F4F65E1C7010E94BA
:10465000A717009709F04DC0812C912C540114C06C
:1046600063E0C7010E94381CA60166E1C7010E94F1
:10467000A717009719F33DC0242B4FEF841A940A13
:10468000A40AB40A21111DC060E0C7010E94381CB1
:1046900001E010E020E030E0AE014F5F5F4F67E1E6
:1046A000C7010E94521C398136FB442740F921E0A2
:1046B00058EE851653E09506A104B104E8F620E013
:1046C000DBCF34FD18C058EE851653E09506A104E3
:1046D000B10488F4772069F063E0C7010E94381CB8
:1046E00001E010E020E030E0A60167E1C7010E9490
:1046F000521C282F02C021E090E0822F0F900F90D3
:104700000F900F90DF91CF911F910F91FF90EF903D
:10471000DF90CF90BF90AF909F908F907F90089543
:10472000EF92FF920F931F93CF93DF931F92CDB71A
:10473000DEB77C0101E010E020E030E0AE014F5F29
:104740005F4F6FE00E94521C009751F489818D7F6A
:104750008983AE014F5F5F4F6FE0C7010E94A717CB
:104760000F90DF91CF911F910F91FF90EF900895DF
:10477000EF92FF920F931F93CF93DF931F92CDB7CA
:10478000DEB77C0160E00E94381C01E010E020E010
:1047900030E0AE014F5F5F4F66E0C7010E94521CE0
:1047A000009751F489818F7D8983AE014F5F5F4F00
:1047B00066E0C7010E94A7170F90DF91CF911F916C
:1047C0000F91FF90EF900895EF92FF920F931F9338
:1047D000CF93DF931F92CDB7DEB77C0160E00E94DC
:1047E000381C01E010E020E030E0AE014F5F5F4F89
:1047F00066E0C7010E94521C009751F489818F7BAB
:104800008983AE014F5F5F4F66E0C7010E94A71723
:104810000F90DF91CF911F910F91FF90EF9008952E
:10482000CF93DF93282F30E0F901E654FF4F8491B6
:10483000F901EA55FF4FD491F901EE56FF4FC491AB
:10484000CC2391F081110E949122EC2FF0E0EE0F29
:10485000FF1FE857FF4FA591B491EC91ED2381E044
:1048600090E021F480E002C080E090E0DF91CF9101
:1048700008951F93CF93DF93282F30E0F901E6547A
:10488000FF4F8491F901EA55FF4FD491F901EE569B
:10489000FF4FC491CC23C1F0162F81110E949122A9
:1048A000EC2FF0E0EE0FFF1FE258FF4FA591B491FF
:1048B0009FB7F894111104C08C91D095D82302C0F1
:1048C000EC91DE2BDC939FBFDF91CF911F91089578
:1048D000CF93DF9390E0FC01EA55FF4F2491FC0158
:1048E000EE56FF4F8491882361F190E0880F991F65
:1048F000FC01EC58FF4FC591D491FC01E258FF4FE9
:10490000A591B491611109C09FB7F8948881209551
:1049100082238883EC912E230BC0623061F49FB711
:10492000F8948881322F309583238883EC912E2B45
:104930002C939FBF06C08FB7F894E8812E2B288355
:104940008FBFDF91CF9108958E3008F08E50877021
:10495000806480937C0080917A00806480937A00E8
:1049600080917A0086FDFCCF8091780020917900BB
:1049700090E0922B08958F929F92AF92BF92CF9228
:10498000DF92EF92FF926B017C010E94BA224B01F1
:104990005C01C114D104E104F104F1F00E94BA22D7
:1049A000DC01CB0188199909AA09BB09883E93400B
:1049B000A105B10570F321E0C21AD108E108F108A0
:1049C00088EE880E83E0981EA11CB11CC114D1048E
:1049D000E104F10419F7DDCFFF90EF90DF90CF9065
:1049E000BF90AF909F908F9008951F920F920FB637
:1049F0000F9211242F933F938F939F93AF93BF9365
:104A00008091E7069091E806A091E906B091EA0648
:104A10003091EB0626E0230F2D3720F40296A11DDE
:104A2000B11D05C029E8230F0396A11DB11D2093D8
:104A3000EB068093E7069093E806A093E906B0930F
:104A4000EA068091EC069091ED06A091EE06B091F9
:104A5000EF060196A11DB11D8093EC069093ED0623
:104A6000A093EE06B093EF06BF91AF919F918F9107
:104A70003F912F910F900FBE0F901F901895CF93DD
:104A8000DF93CDB7DEB7C559D1090FB6F894DEBFB5
:104A90000FBECDBF789484B5826084BD84B581603B
:104AA00084BD85B5826085BD85B5816085BD8091F9
:104AB0006E00816080936E00109281008091810071
:104AC0008260809381008091810081608093810069
:104AD000809180008160809380008091B10084602B
:104AE0008093B1008091B00081608093B00080918C
:104AF0007A00846080937A0080917A00826080934B
:104B00007A0080917A008E7F80937A0080917A007B
:104B1000806880937A001092C100E091A503F09123
:104B2000A60312E01083E091A103F091A20310828A
:104B3000E091A303F091A40388E080831092AD0379
:104B4000E091A903F091AA0386E08083E091A70396
:104B5000F091A803808180618083E091A703F091A8
:104B6000A803808188608083E091A703F091A80367
:104B7000808180688083E091A703F091A803808101
:104B80008F7D808361E084E00E94682461E081E1A0
:104B90000E94682461E088E00E94682462E080E16D
:104BA0000E94682460E083E00E94682460E085E160
:104BB0000E94682462E087E00E94682461E08FE040
:104BC0000E94682461E089E00E94682460E08EE031
:104BD0000E94682460E084E10E94682461E086E02D
:104BE0000E94682461E085E00E94682460E08FE014
:104BF0000E94392460E089E00E94392461E086E067
:104C00000E94392461E085E00E94392460E081E15E
:104C10000E94392461E084E00E94392461E088E048
:104C20000E9439241092E0021092DF021092960244
:104C3000109295021092270381E080932603109230
:104C4000210361E082E10E94392461E083E10E9456
:104C500039248091B9008E7F8093B9008091B9008A
:104C60008D7F8093B90080E28093B80085E48093C3
:104C7000BC0082E099E1909393028093920283E0DA
:104C800099E190939102809390021093B8004BEBBE
:104C9000642E46E0742E0AE010E25EE6452E54E0F3
:104CA000552E63E4362E75E2272E1092B806109228
:104CB000B5061092BA067092B7066092B6060E94C8
:104CC000DD0F7C01C090B606D090B706D6011296D3
:104CD0000C9361E08AE00E94682461E0F601828121
:104CE0000E943924DFB6F8948091B002811127C068
:104CF000ECE9F0E08491E0EBF0E09491E82FF0E053
:104D0000EE0FFF1FEC58FF4FA591B4918C919823A3
:104D100021F461E08AE00E94392461E08AE00E9487
:104D200068248CB580618CBD8CB580648CBD61E0DD
:104D30008DE00E94682461E08BE00E9468248091ED
:104D4000B0028F5F8093B002DFBEE091B606F091B3
:104D5000B70622E5C22EC08281E081838091B80629
:104D6000811104C085EB96E00E94FB0EE091B6062F
:104D7000F091B70661E082810E9439249AE0D92E31
:104D80008FEF0E940F0FDA94D110FACFE091B606A0
:104D9000F091B70660E082810E94392420E030E083
:104DA000A90160E085EB96E00E94300F813051F060
:104DB0000E94DD0F8E199F09813D974078F3109373
:104DC000B5068DC02AEA31E040E050E068E085EBAE
:104DD00096E00E94300F853011F481E00CC084E031
:104DE000D82E0E94140F8093B906DA94D110F9CF0F
:104DF0008A3A59F482E08093BA068091BA068230EA
:104E000071F0812C912C54010FC00E94DD0F8E197E
:104E10009F09813D9740B0F22092B50660C0812C79
:104E2000912CA12CB0E4BB2E20E030E0A90167E377
:104E300085EB96E00E94300FA501940169E285EBB5
:104E400096E00E94300F882351F00E94DD0F8E19EA
:104E50009F09813D974040F33092B50640C0809154
:104E6000BA068230E1F420E030E0A9016AE385EB84
:104E700096E00E94300F882321F087E38093B506E7
:104E80002EC00E94140F807C803C19F463E0609374
:104E9000BA060E94140F0E94140F0E94140F85EB93
:104EA00096E00E941B0FE091B606F091B70670E500
:104EB000708381E0818385EB96E090936F0480930B
:104EC0006E0485E996E00E94AB0381E00E944C20CD
:104ED000882351F08091950681112BC00BC085EB82
:104EE00096E00E941B0F25C080E00E944C2081119B
:104EF000F1CF1FC0E5E9F6E0DF01C12E1D92CA9493
:104F0000E9F750929C0640929B0680917304803191
:104F100039F0803271F4A0E4DA2ED092950602C006
:104F20001093950681E0809397068091950680778F
:104F300079F461E081E10E94392460E084E00E941C
:104F4000392468EE73E080E090E00E94BB24ADCE8F
:104F5000CE018D960E943A20AE014F5F5F4F1A013D
:104F6000CA010E943A2041E06DEA71E0CE010D963F
:104F70000E944315B101CE018D960E941F1589AD87
:104F8000882309F417C4C757DF4F19821882C958FC
:104F9000D0403E0159E5650E711C630163E0C60E09
:104FA000D11CCE0189589F4FCF57DF4F99838883FB
:104FB000C158D040DE01A758BF4FCD57DF4FB9834E
:104FC000A883C358D040FE01E158FF4FCB57DF4FB5
:104FD000F983E883C558D040AE0143585F4FC957A5
:104FE000DF4F59834883C758D0402E015BE7450EF9
:104FF000511CD3011C9200E010E0CE01C9960E9422
:10500000CD0B98018D3011F40C944F302F5F3F4F32
:10501000F301E00FF11F8083843509F52D968CADE7
:105020009DADAEADBFAD2D97AC01BD014150510955
:1050300061097109C457DF4F488359836A837B83B1
:10504000CC58D0402E31310580F461E070E0C75774
:10505000DF4F79836883C958D0408901CECF2E3184
:10506000310558F48A30C9F708C081E090E0C7578D
:10507000DF4F99838883C958D04021503109F3010B
:10508000E20FF31F1082D3018C918F3209F45AC3BF
:105090002230310508F456C3F30101900020E9F7EE
:1050A0003197E619F70932970CF44CC3F30180816C
:1050B00091818234FDE49F0709F462C20CF06CC058
:1050C000823544E4940709F4A1C20CF045C084344D
:1050D00064E4960709F46DC2ECF48035914409F05C
:1050E00031C33F922F9286EC91E09F938F93DF9292
:1050F000CF920E94183469817A818B819C810E94B1
:105100003A32609308017093090180930A019093E9
:105110000B0112C38C34B4E49B0709F4B0C28D3484
:10512000944409F00FC33F922F9286EC91E09F9335
:105130008F93DF92CF920E94183469817A818B819C
:105140009C810E943A3260932601709327018093DC
:10515000280190932901F0C28035F9E49F0709F4F2
:1051600093C26CF4833544E4940709F4E1C28834B3
:10517000954409F0E7C281E080930001E3C28235E3
:1051800069E4960709F459C288349C4409F0DAC2EC
:1051900081E080939402D6C28035A2E59A0709F493
:1051A0009DC20CF03FC08435EDE49E0709F4A0C019
:1051B000BCF480352DE4920709F4A9C282359D44E0
:1051C00009F0C0C23F922F9286EC91E09F938F939B
:1051D000DF92CF920E941834898180930101ACC282
:1051E000833450E5950709F4D6C18434904509F01D
:1051F000A9C23F922F9286EC91E09F938F93DF920A
:10520000CF920E94183469817A818B819C810E949F
:105210003A3260932A0170932B0180932C01909372
:105220002D018AC2803574E5970709F43EC2D4F493
:105230008934B3E59B0709F411C28035934509F021
:1052400081C23F922F9286EC91E09F938F93DF92E1
:10525000CF920E94183489819A819093360180936D
:1052600035016AC28335F4E59F0709F42CC1823405
:10527000974509F067C23F922F92CE57DF4F588172
:10528000C258D0405F93CF57DF4F6881C158D0409C
:105290006F93CC57DF4F7881C458D0407F93CD5760
:1052A000DF4F8881C358D0408F93CA57DF4F988112
:1052B000C658D0409F93CB57DF4FA881C558D040E8
:1052C000AF93C857DF4FB881C858D040BF93C95774
:1052D000DF4FE881C758D040EF935F924F9287EB42
:1052E00091E09F938F93DF92CF920E94183442C136
:1052F0003F922F92CE57DF4F4881C258D0404F93F4
:10530000CF57DF4F5881C158D0405F93CC57DF4F04
:105310006881C458D0406F93CD57DF4F7881C35810
:10532000D0407F93CA57DF4F8881C658D0408F93B3
:10533000CB57DF4F9881C558D0409F93C857DF4F58
:10534000A881C858D040AF93C957DF4FB881C7581C
:10535000D040BF935F924F9287EB91E09F938F93E2
:10536000DF92CF920E941834F2010190F081E02D7B
:10537000C057DF4FF983E883C059D040EF96EEACB9
:10538000FFACEF97CE56DF4FF982E882C259D0408A
:10539000C158DF4FE880F980CF57D040CC56DF4F5F
:1053A000F982E882C459D04009811A81E996AEACED
:1053B000BFACE997EB968EAC9FACEB9781E0809306
:1053C000980288E6809397021092960210929502B6
:1053D00080E090E00E9479219AE0E92EF12CC8014A
:1053E000B7010E94853324E0660F771F2A95E1F705
:1053F0008F709927862B972B0E947921C501B701C1
:105400000E94853334E0660F771F3A95E1F78F707D
:105410009927862B972B0E947921C401B7010E94FE
:1054200085336370772744E0660F771F4A95E1F76D
:105430008F709927862B972B0E94792181E090E02D
:105440000E947921CC56DF4F88819981C459D04080
:10545000B7010E94853354E0660F771F5A95E1F734
:105460008F709927862B972B0E947921CE56DF4F7C
:1054700088819981C259D040B7010E948533E4E008
:10548000660F771FEA95E1F78F709927862B972B88
:105490000E947921C057DF4F88819981C059D0403F
:1054A000B7010E948533F4E0660F771FFA95E1F7A4
:1054B0008F709927862B972B0E94792182E394E0A5
:1054C0000E94351C57C03F922F92CE57DF4F588114
:1054D000C258D0405F93CF57DF4F6881C158D0404A
:1054E0006F93CC57DF4F7881C458D0407F93CD570E
:1054F000DF4F8881C358D0408F93CA57DF4F9881C0
:10550000C658D0409F93CB57DF4FA881C558D04095
:10551000AF93C857DF4FB881C858D040BF93C95721
:10552000DF4FE881C758D040EF935F924F9287EBEF
:1055300091E09F938F93DF92CF920E941834E9807D
:10554000E8960FADE897EA962FADEA97C158DF4F7E
:105550004881CF57D040EE966FADEE97D2018C9137
:105560000E94C7056093B8027093B9028093BA0293
:105570009093BB020FB6F894DEBF0FBECDBFE2C062
:105580003F922F9286EC91E09F938F93DF92CF9280
:105590000E941834D1C03F922F9286EC91E09F93E5
:1055A0008F93DF92CF920E941834898180932E01CD
:1055B000C3C03F922F9286EC91E09F938F93DF922E
:1055C000CF920E94183429813A814B815C8160E836
:1055D00071E581E090E00E9461334B015C010E9423
:1055E00090068091AC029091AD02A091AE02B09174
:1055F000AF02880E991EAA1EBB1E8092B80290921E
:10560000B902A092BA02B092BB0296C03F922F920A
:1056100086EC91E09F938F93DF92CF920E94183493
:1056200089819A81AB81BC8180932F019093300155
:10563000A0933101B09332017FC03F922F9286EC4C
:1056400091E09F938F93DF92CF920E9418348981CB
:105650009A819093B3028093B2026EC03F922F92D0
:1056600086EC91E09F938F93DF92CF920E94183443
:1056700089819A8190933801809337015DC010929F
:105680003401109233015EC03F922F9286EC91E07C
:105690009F938F93DF92CF920E94183489819A81D1
:1056A000909311018093100147C03F922F9286EC96
:1056B00091E09F938F93DF92CF920E94183469817B
:1056C0007A818B819C810E943A3260930C017093A5
:1056D0000D0180930E0190930F012EC03F922F92E7
:1056E00086EC91E09F938F93DF92CF920E941834C3
:1056F00069817A818B819C810E943A326093040196
:1057000070930501809306019093070115C03F92A5
:105710002F9286EC91E09F938F93DF92CF920E941D
:10572000183489819A81909303018093020104C007
:1057300081E08093AB0206C00F900F900F900F9006
:105740000F900F90CE018D960E94C300892B09F017
:1057500050CCCE01C9960E94AB03C757DF4FC8801B
:10576000D980C958D040CD2829F1C1010E943A20E2
:1057700043E66DEA71E0CE010D960E944315B1013A
:10578000CE018D960E941F15C457DF4F4881598165
:105790006A817B81CC58D040CE01C9960E94840298
:1057A00069EC71E0CE018D960E94521ACE01C99625
:1057B0000E94AB032091370130913801609135018F
:1057C00070913601C9010E94853370934104609342
:1057D000400488EE93E0B9010E94853370933F0442
:1057E00060933E0460ED77E080E090E00E94BB248F
:1057F0000E941B084091A1025091A2026091A30255
:105800007091A40285E993E00E947E216CEC71E026
:1058100085E993E00E94291A0E9490066EEC71E0DF
:1058200085E993E00E94521A4091AC025091AD027A
:105830006091AE027091AF022AE085E993E00E9488
:10584000DC1985E993E00E94251A6FEC71E085E987
:1058500093E00E94521A609112014AE050E085E9FB
:1058600093E00E943B1A6FEE71E085E993E00E949D
:10587000521A6091A6024AE050E085E993E00E9446
:105880003B1A6FEE71E085E993E00E94521A609135
:10589000A5024AE050E085E993E00E943B1A85E9C1
:1058A00093E00E94251A85E993E00E94A41868E815
:1058B00073E180E090E00E94BB2481E08093980235
:1058C00080E480939702109296021092950280E0F5
:1058D00090E00E94792182E394E00E94351C62E00E
:1058E00070E080E090E00E94BB2462E070E080E421
:1058F00090E00E949C1762E070E080E090E00E94DF
:10590000BB2400E010E09091DF028091E002981744
:1059100039F082E394E00E9414190F5F1F4FF3CF18
:10592000012BE1F42FEF41E062E374E08EEB96E0AF
:105930000E94BC0D8091D9069091DA06892B09F45A
:1059400055C062ED71E085E993E00E94291A64EF89
:1059500071E080E090E00E94BB2448C00E94F10703
:1059600064E170E080E090E00E94BB240E94530755
:10597000C12CD12C760101E010E00E94F10764E116
:1059800070E080E090E00E94BB240E94530764E630
:1059900070E080E090E00E94BB2420919D02309155
:1059A0009E0240919F025091A002C701B6010E9441
:1059B00026316B017C01B801012E000C880B990B7C
:1059C0000E943A329B01AC01C701B6010E94973197
:1059D0006093990270939A0280939B0290939C0229
:1059E0000F5F1F4F0A30110541F69CCF60E088E041
:1059F0000E94392461E089E00E94392464EC79E056
:105A000080E090E00E94BB2460E089E00E9439249D
:105A10000AE010E064EF71E080E090E00E94BB24B7
:105A200001501109B9F760E086E00E94392460E076
:105A300085E00E9439240E9490068091AC029091EA
:105A4000AD02A091AE02B091AF028093BC029093E0
:105A5000BD02A093BE02B093BF020E949006C10196
:105A60000E943A2046E46BED71E0CE010D960E9453
:105A7000431563EE71E0C1010E94521A66E171E0C4
:105A8000C1010E94291A61EF71E0C1010E94521AFE
:105A90000EE010E081E2F82EF801F09257006491D8
:105AA00040E150E0C1010E943B1A0F5F1F4F0831D7
:105AB000110591F7C1010E94251A609115014AE074
:105AC00050E0C1010E943B1A61E072E0C1010E94F6
:105AD000521A609114014AE050E0C1010E943B1A41
