:100000000C9462000C948A000C948A000C948A0070
:100010000C948A000C948A000C94C8130C948A00E7
:100020000C948A000C9461130C948A000C948A003E
:100030000C948A000C948A000C948A000C948A0018
:100040000C94F8110C948A000C94C6110C94A01115
:100050000C948A000C948A000C948A000C948A00F8
:100060000C9442120C948A00000000002300260029
:10007000290000000000240027002A0000000000E2
:10008000250028002B0004040404040404040202D4
:100090000202020203030303030301020408102007
:1000A0004080010204081020010204081020000012
:1000B0000008000201000003040700000000000027
:1000C0000000D21311241FBECFEFD8E0DEBFCDBF9A
:1000D00011E0A0E0B1E0EEEDF6E302C005900D9274
:1000E000A439B107D9F723E0A4E9B1E001C01D921A
:1000F000A937B207E1F710E0C2E6D0E004C02197CB
:10010000FE010E94671BC136D107C9F70E941F1468
:100110000C946D1B0C940000BC01809169038695C2
:10012000869583708130B1F040F08230F1F08330F9
:1001300039F160E070E0CB010895072E000C880BC8
:10014000990B0E94F41920E030E043E053E40E9450
:1001500051190895072E000C880B990B0E94F41971
:1001600020E030E043E852E4F2CF072E000C880B89
:10017000990B0E94F41923E333E343E052E4E7CF01
:10018000072E000C880B990B0E94F41923E333E32C
:1001900043E851E4DCCFBC01809169038370813076
:1001A000B1F040F08230F1F0833039F160E070E07E
:1001B000CB010895072E000C880B990B0E94F419AF
:1001C0002FE632E143E851E40E9451190895072EC9
:1001D000000C880B990B0E94F4192FE632E143E0E2
:1001E00051E4F2CF072E000C880B990B0E94F419F2
:1001F0002FE632E143E850E4E7CF072E000C880BEE
:10020000990B0E94F4192FE632E143E050E4DCCF71
:100210000F931F93FC01862FA081B181ED91FC917A
:100220001197309761F0BA0114960D911C9121E05D
:1002300030E040E050E009951F910F91089582E071
:1002400090E0FACF809100029091FF01891B990BF9
:10025000089508950895AF92BF92CF92DF92EF92E2
:10026000FF920F931F93CF93DF936C017B018B0160
:10027000040F151FEB015E01AE18BF08C017D107B0
:1002800059F06991D601ED91FC910190F081E02D3A
:10029000C6010995892B79F7C501DF91CF911F918F
:1002A0000F91FF90EF90DF90CF90BF90AF900895A7
:1002B000FC01538D448D252F30E0842F90E0821B6C
:1002C000930B541710F0CF96089501970895FC01F1
:1002D000918D828D981761F0A28DAE0FBF2FB11D49
:1002E0005D968C91928D9F5F9F73928F90E00895A1
:1002F0008FEF9FEF0895FC01918D828D981731F05B
:10030000828DE80FF11D858D90E008958FEF9FEFAE
:100310000895FC01918D228D892F90E0805C9F4F84
:10032000821B91098F739927089584EA92E00E94B5
:10033000890121E0892B09F420E0822F089580E0D3
:1003400090E0892B29F00E94950181110C94000006
:100350000895FC01A48DA80FB92FB11DA35ABF4F5A
:100360002C91848D90E001968F739927848FA689B4
:10037000B7892C93A089B1898C91837080648C9308
:10038000938D848D981306C00288F389E02D8081B7
:100390008F7D80830895EF92FF920F931F93CF93E9
:1003A000DF93EC0181E0888F9B8D8C8D98131AC0B0
:1003B000E889F989808185FF15C09FB7F894EE8997
:1003C000FF896083E889F9898081837080648083F4
:1003D0009FBF81E090E0DF91CF911F910F91FF903F
:1003E000EF900895F62E0B8D10E00F5F1F4F0F73E7
:1003F0001127E02E8C8D8E110CC00FB607FCFACFA2
:10040000E889F989808185FFF5CFCE010E94A90195
:10041000F1CFEB8DEC0FFD2FF11DE35AFF4FF08272
:100420009FB7F8940B8FEA89FB8980818062CFCFD8
:10043000682F84EA92E00C94CB01CF93DF93EC0118
:10044000888D8823B9F0AA89BB89E889F9898C91BC
:1004500085FD03C0808186FD0DC00FB607FCF7CF78
:100460008C9185FFF2CF808185FFEDCFCE010E9478
:10047000A901E9CFDF91CF910895833081F028F46D
:10048000813099F08230A9F008958730A9F0883042
:10049000C9F08430B1F4809180008F7D03C08091D9
:1004A00080008F7780938000089584B58F7784BD16
:1004B000089584B58F7DFBCF8091B0008F778093B6
:1004C000B00008958091B0008F7DF9CF1F93CF9336
:1004D000DF93282F30E0F901E255FF4F8491F901B5
:1004E000E656FF4FD491F901EA57FF4FC491CC2350
:1004F000A9F0162F81110E943D02EC2FF0E0EE0FC3
:10050000FF1FE458FF4FA591B4918FB7F894EC9179
:10051000111108C0D095DE23DC938FBFDF91CF91FE
:100520001F910895DE2BF8CFCF93DF9390E0FC016D
:10053000E656FF4F24918A579F4FFC0184918823F0
:10054000C9F090E0880F991FFC01EE58FF4FA5916C
:10055000B491FC01E458FF4FC591D49161110DC0D5
:100560009FB7F8948C91209582238C9388812823BF
:1005700028839FBFDF91CF910895623051F49FB7D8
:10058000F8943C91822F809583238C93E8812E2BC5
:10059000EFCF8FB7F894EC912E2B2C938FBFEACF2F
:1005A0008E50806480937C0080917A008064809378
:1005B0007A0080917A0086FDFCCF8091780090913E
:1005C000790008953FB7F8948091F7019091F80170
:1005D000A091F901B091FA0126B5A89B05C02F3F63
:1005E00019F00196A11DB11D3FBFBA2FA92F982F59
:1005F0008827BC01CD01620F711D811D911D43E053
:10060000660F771F881F991F4A95D1F708958F921B
:100610009F92AF92BF92CF92DF92EF92FF924B01E7
:100620005C010E94E2026B017C010E94E2026C19F3
:100630007D098E099F09683E734081059105A8F3E5
:1006400021E0821A9108A108B10888EEC80E83E063
:10065000D81EE11CF11C81149104A104B10429F7F6
:10066000FF90EF90DF90CF90BF90AF909F908F90D2
:1006700008952091CF01260F3327331F21323105F2
:10068000ECF420917A02FC0190E080E0243069F0E3
:1006900082E00895A091CF012191AC0141555E4FB8
:1006A000A40FB52FB11D2C930196861798F3809156
:1006B000CF01680F6093CF0180E0089581E0089535
:1006C00010927A0281E0809379021092540261E0E4
:1006D00082E10E94660261E083E10E946602E9EB2A
:1006E000F0E080818E7F808380818D7F808380E2B7
:1006F0008093B80085E48093BC000895CF93DF9386
:1007000091E09093AE018823B9F0C091B800D091E8
:10071000BA008091BC008A7B8093BC0060E082E1DB
:100720000E94660260E083E10E9466020E9460030C
:10073000D093BA00C093B800DF91CF9108958F9203
:100740009F92AF92BF92CF92DF92EF92FF920F9360
:100750001F93CF93DF93D091A302D13208F0D7C07B
:10076000182FC091A2020E94E2026B017C018091CD
:100770007A0281116BC082E080937A021093790231
:100780008FEF8093780210927702D0937602A2E8DE
:10079000B2E0E6E5F2E080E0D81391C01092550295
:1007A00080915502CC0FC82BC09355028091540202
:1007B000813009F088C0109254020E94E2026B015D
:1007C0007C01809155028093BB0080917C029091C6
:1007D0007D02A0917E02B0917F02892B8A2B8B2B08
:1007E000A1F00E94E20200917C0210917D02209112
:1007F0007E0230917F026C197D098E099F090617D0
:1008000017072807390708F442C08091BC0083FD10
:10081000D8CF85EC8093BC000E94E2026B017C0182
:1008200080917A02823009F450C0809178028F3F23
:1008300009F46FC080917802803209F46CC0809115
:100840007802803309F469C084E026C080917C027C
:1008500090917D02A0917E02B0917F02892B8A2B1C
:100860008B2B09F484CF0E94E20280907C0290904E
:100870007D02A0907E02B0907F026C197D098E09E6
:100880009F0986169706A806B90608F070CF8091D2
:100890007B020E947E0385E0109281021092A302E7
:1008A00010928002DF91CF911F910F91FF90EF90F6
:1008B000DF90CF90BF90AF909F908F9008959D91C3
:1008C00091938F5F69CF85EEA5CF80917C02909147
:1008D0007D02A0917E02B0917F02892B8A2B8B2B07
:1008E00009F49ECF0E94E20200917C0210917D02E9
:1008F00020917E0230917F026C197D098E099F093B
:10090000061717072807390708F08ACFC0CF81E0FC
:10091000C3CF80E0C1CF82E0BFCF83E0BDCF8F9255
:100920009F92AF92BF92CF92DF92EF92FF920F937E
:100930001F93CF93DF93D82FC62F142F613208F067
:100940009CC00E94E2026B017C0180917A028111BD
:100950006FC081E080937A02109379029FEF9093A9
:100960007802109277029C0F909376028093550242
:1009700080915502DD0FD82BD093550280915402FF
:10098000813009F07CC0109254020E94E2026B0197
:100990007C01809155028093BB0080917C029091F4
:1009A0007D02A0917E02B0917F02892B8A2B8B2B36
:1009B000A1F00E94E20200917C0210917D02209140
:1009C0007E0230917F026C197D098E099F090617FE
:1009D00017072807390708F44CC08091BC0083FD35
:1009E000D8CF85EC8093BC000E94E2026B017C01B1
:1009F00080917A02813009F444C0809177028C178B
:100A000010F4C0917702E6E5F2E0A4E3B2E080E002
:100A10008C1359C08C2FDF91CF911F910F91FF90B4
:100A2000EF90DF90CF90BF90AF909F908F90089500
:100A300080917C0290917D02A0917E02B0917F0214
:100A4000892B8A2B8B2B09F480CF0E94E2028090A5
:100A50007C0290907D02A0907E02B0907F026C1983
:100A60007D098E099F0986169706A806B90608F023
:100A70006CCF80917B020E947E03C0E0CBCF85EEDD
:100A8000B1CF80917C0290917D02A0917E02B091C5
:100A90007F02892B8A2B8B2B09F4AACF0E94E202BA
:100AA00000917C0210917D0220917E0230917F02A4
:100AB0006C197D098E099F09061717072807390742
:100AC00008F096CFD6CF91919D938F5FA1CF0895D7
:100AD000E091FF0180910002E81730F4F0E0EC5C57
:100AE000FD4F808190E008958FEF9FEF08959091E2
:100AF000FF01809100022FEF3FEF981748F4E92F94
:100B0000F0E0EC5CFD4F208130E09F5F9093FF01AF
:100B1000C9010895CF92DF92EF92FF920F931F9336
:100B2000CF93DF937C01CB018A01209180022223A5
:100B300089F0EB016B01C40ED51ECC15DD0569F003
:100B40006991D701ED91FC910190F081E02DC701F1
:100B50000995F3CF642F0E943903C801DF91CF912B
:100B60001F910F91FF90EF90DF90CF900895CF935A
:100B7000DF931F92CDB7DEB76983209180022223D5
:100B8000F9F02091A302203258F021E030E0FC017E
:100B90003383228390E080E00F90DF91CF9108951E
:100BA00080918102E82FF0E0EE57FD4F998190830C
:100BB0008F5F809381028093A30281E090E0ECCF6D
:100BC00061E0CE0101960E943903F7CF81E00C94D9
:100BD0009F0390E080E00895CF93DF931F92CDB7FD
:100BE000DEB7643078F420E1629FB001112469839C
:100BF000AE014F5F5F4F6FE70E9408010F90DF91DA
:100C0000CF91089583E090E0F9CF0F931F93FC01FB
:100C1000862FBA01A081B1811296ED91FC911397B4
:100C2000309749F0A901980114960D911C910995EE
:100C30001F910F91089582E090E0FACFCF92DF925A
:100C4000EF92FF920F931F93CF93DF931F92CDB735
:100C5000DEB76C01613051F562E00E94EC057C0169
:100C600001E010E020E030E0AE014F5F5F4F64E153
:100C7000C6010E940506E82AF92A89818E7F8983A8
:100C8000AE014F5F5F4F64E1C6010E9408018E29EB
:100C90009F29F601928F818F0F90DF91CF911F9145
:100CA0000F91FF90EF90DF90CF90089562E00E9447
:100CB000EC057C0101E010E020E030E0AE014F5F88
:100CC0005F4F61E0C6010E940506E82AF92A898182
:100CD0008E7F8983AE014F5F5F4F61E0D5CF4F922A
:100CE0005F926F927F92BF92CF92DF92EF92FF92CC
:100CF0000F931F93CF93DF9300D000D0CDB7DEB713
:100D00007C016C836A01B22E80E0211180E88C6046
:100D10008B8363E0C7010E94EC05AE014D5F5F4F1E
:100D200063E1C7010E940801009721F563E0C70154
:100D30000E94EC05AE014C5F5F4F64E1C7010E9469
:100D400008010097B9F48A818068807A8F7D8A8350
:100D5000BB2011F163E0C7010E94EC05AE014E5FBC
:100D60005F4F65E1C7010E940801412C512C3201FF
:100D70000097F1F00F900F900F900F90DF91CF91AF
:100D80001F910F91FF90EF90DF90CF90BF907F90D9
:100D90006F905F904F90089563E0C7010E94EC054B
:100DA000A60166E1C7010E940801009799F2E2CF0F
:100DB00060E0C7010E94EC0501E010E020E030E0B7
:100DC000AE014F5F5F4F67E1C7010E9405062981B1
:100DD00026FB332730F941E058EE451653E055061F
:100DE0006104710408F440E0342B4FEF441A540AB4
:100DF000640A740A3323E1F22295217031E058EE3F
:100E0000451653E055066104710408F430E0232BC5
:100E100089F4BB2009F4AECF63E0C7010E94EC0562
:100E200001E010E020E030E0A60167E1C7010E9488
:100E30000506A0CF81E090E09DCFEF92FF920F9347
:100E40001F93CF93DF931F92CDB7DEB77C0101E0F4
:100E500010E020E030E0AE014F5F5F4F6FE00E9496
:100E60000506009751F489818D7F8983AE014F5F1C
:100E70005F4F6FE0C7010E9408010F90DF91CF9193
:100E80001F910F91FF90EF9008958F929F92AF92D4
:100E9000BF92EF92FF920F931F93CF93DF930115B1
:100EA000110591F1F801C58DD68D209769F14901A1
:100EB0007B01682F878D91E0909380028093A2023E
:100EC000109281021092A302E881F9810190F081D1
:100ED000E02DCE010995E881F9810280F381E02DB2
:100EE000A401B701CE010995CE010E94E60590E06C
:100EF00080E0DF91CF911F910F91FF90EF90BF9015
:100F0000AF909F908F90089583E090E0F2CF8F9202
:100F10009F92AF92BF92CF92DF92EF92FF920F9388
:100F20001F93CF93DF9300D000D0CDB7DEB75C0125
:100F3000822FF50120A3768F658F41A398E641119A
:100F400099E6978F8F3F19F061E00E949402F501B6
:100F500080A18F3F19F061A10E94660285E497E0AD
:100F6000F50193A382A38DE69EE095A384A3B7A287
:100F7000A6A2C5018296938382836501F2E0CF0E1B
:100F8000D11C198260E0C6010E94EC0501E010E06E
:100F900020E030E0AE014F5F5F4F60E0C6010E948D
:100FA0000506009709F005C289818A3E19F084E0A0
:100FB00090E0FFC1F501148E138E60E0C6010E941F
:100FC000EC0501E010E020E030E0AE014F5F5F4F44
:100FD00066E0C6010E940506009751F48981806889
:100FE0008983AE014F5F5F4F66E0C6010E94080132
:100FF000F501948F838F009709F0DBC162E370E005
:1010000080E090E00E94070360E0C6010E94EC05CA
:1010100001E010E020E030E0AE014F5F5F4F66E09E
:10102000C6010E940506009751F489818F7B898350
:10103000AE014F5F5F4F66E0C6010E940801F501F7
:10104000948F838F009709F0B4C160E0C6010E94BD
:10105000EC0501E010E020E030E0AE014F5F5F4FB3
:1010600066E0C6010E940506009751F489818F7DD4
:101070008983AE014F5F5F4F66E0C6010E940801A1
:10108000F501948F838F009709F093C160E0C6014A
:101090000E94EC050097C1F401E010E020E030E090
:1010A000AE014F5F5F4F65E0C6010E9405060097E5
:1010B00059F489818F7D8F7E8983AE014F5F5F4FA9
:1010C00065E0C6010E940801F501948F838F0097A7
:1010D00009F06FC162E0C6010E94EC057C0101E0ED
:1010E00010E020E030E0AE014F5F5F4F64E1C601E9
:1010F0000E940506E82AF92A8981897F8983AE0141
:101100004F5F5F4F64E1C6010E940801E82AF92A97
:1011100062E0C6010E94EC05E82AF92A01E010E02D
:1011200020E030E0AE014F5F5F4F61E0C6010E94FA
:101130000506E82AF92A8981897F8983AE014F5FF4
:101140005F4F61E0C6010E9408018E299F29F501C9
:10115000948F838F009709F02CC162E0C6010E9432
:10116000EC057C0101E010E020E030E0AE014F5FD3
:101170005F4F64E1C6010E940506E82AF92A8981C9
:1011800088638983AE014F5F5F4F64E1C6010E94AF
:101190000801E82AF92A62E0C6010E94EC05E82A63
:1011A000F92A01E010E020E030E0AE014F5F5F4F30
:1011B00061E0C6010E940506E82AF92A8981886350
:1011C0008983AE014F5F5F4F61E0C6010E94080155
:1011D0008E299F29F501948F838F009709F0E9C02C
:1011E00061E0C6010E941E06009709F0E2C062E0BD
:1011F000C6010E941E06009709F0DBC060E0C60130
:101200000E94EC05009719F4C6010E941D07F50124
:10121000948F838F60E0C6010E94EC05009709F06F
:1012200043C0C6010E941D070097F1F563E0C601A7
:101230000E94EC050097C1F501E010E020E030E0ED
:10124000AE014E5F5F4F61E0C6010E940506009748
:1012500059F58A81807F876080618A83AE014E5F05
:101260005F4F61E0C6010E9408010097E9F460E069
:10127000C6010E94EC050097B9F401E010E020E0FF
:1012800030E0AE014F5F5F4F63E0C6010E9405068C
:10129000009751F4898180628983AE014F5F5F4F6F
:1012A00063E0C6010E940801F501948F838F85E0F9
:1012B000F82E94E0892E912C21E0AE014F5F5F4F14
:1012C00060E0C6010E946F06F501948F838F19813B
:1012D00021E0AE014F5F5F4F61E0C6010E946F06E3
:1012E0008981F501148E138E183411F4893039F187
:1012F000F501948E838E60E0C6010E94EC05009794
:10130000B9F401E010E020E030E0AE014F5F5F4F44
:1013100063E0C6010E940506009751F4898182604E
:101320008983AE014F5F5F4F63E0C6010E940801F1
:10133000F501948F838FFA94F110BECF38CE88E0F8
:101340008C8320E0AE014C5F5F4F61E3C6010E94D9
:101350006F06F501948F838F009759F563E0C601FE
:101360000E94EC05009711F58CE88B83AE014D5F70
:101370005F4F63E0C6010E9408010097B9F480E165
:101380008A83AE014E5F5F4F64E0C6010E94080190
:10139000009761F48981807489688F7B8983AE01AD
:1013A0004F5F5F4F65E0C6010E940801F501948F11
:1013B000838FF501948F838F0F900F900F900F9074
:1013C000DF91CF911F910F91FF90EF90DF90CF9021
:1013D000BF90AF909F908F900895CF92DF92EF9241
:1013E000FF92CF93DF93609123027091240280914A
:1013F000250290912602C0911A0220E030E040EAD6
:1014000051E40E944C1987FF12C0C11110C0809195
:10141000230290912402A0912502B091260280938C
:10142000AA019093AB01A093AC01B093AD01609180
:10143000230270912402809125029091260220912E
:10144000AA013091AB014091AC015091AD010E94D5
:10145000A41A181684F48091230290912402A0917A
:101460002502B09126028093AA019093AB01A0932C
:10147000AC01B093AD018091A901823011F560916A
:10148000230270912402809125029091260220E08F
:1014900030E040EA51E40E944C1987FF12C080916D
:1014A000230290912402A0912502B09126028093FC
:1014B000AA019093AB01A093AC01B093AD0110923F
:1014C000A90180911A028111A7C060912302709135
:1014D000240280912502909126022091A9012111D8
:1014E0000BC020E030E048EC53E40E94A41A181628
:1014F0001CF481E08093A901C1E08091A9018130B1
:1015000009F0C0E0C090AA01D090AB01E090AC011E
:10151000F090AD01209123023091240240912502E8
:10152000509126026091A7017091A80190911E022E
:1015300081E06035710508F080E08C23D1E09D27C3
:10154000892331F1C701B6010E94DF1820E030E0A5
:1015500040E252E40E94A41A1816D4F461E086E036
:101560000E94660261E089E00E94660280912E027C
:1015700090912F02A0913002B091310280931F020E
:1015800090932002A0932102B0932202D0931E02D6
:10159000209123023091240240912502509126028D
:1015A0006091A7017091A80181E06035710508F094
:1015B00080E08C2389F1C701B6010E94DF1820E08A
:1015C00030E048EC52E40E94A41A18162CF5C1E051
:1015D000C0931A0261E085E00E946602C093A601F2
:1015E00080912E0290912F02A0913002B091310291
:1015F00080931F0290932002A0932102B0932202B5
:1016000082E08093A9018091A7019091A8010196A1
:101610009093A8018093A70120911A0280911F0244
:1016200090912002A0912102B091220240912E02BD
:1016300050912F0260913002709131020A96A11DE3
:10164000B11D84179507A607B70788F4213079F4F0
:1016500084E10E94D002883C91054CF460E085E072
:101660000E9466021092A60182E080931A022091E5
:101670001A0280911F0290912002A0912102B09144
:10168000220240912E0250912F02609130027091FF
:101690003102CC96A11DB11D84179507A607B70787
:1016A00058F4213049F460E085E00E94660210920F
:1016B000A60182E080931A0280911A02823009F01A
:1016C0003CC060912E0270912F0280913002909167
:1016D0003102C0901F02D0902002E0902102F090D1
:1016E00022026C197D098E099F092CE330E040E04D
:1016F00050E00E942B1B233000F160E089E00E9443
:101700006602ECEBF0E08491E8EAF0E0D491E4E9E1
:10171000F0E0C491C11118C060E086E00E9466024A
:1017200010921E0283E080931A021092AA01109276
:10173000AB011092AC011092AD01DF91CF91FF90FF
:10174000EF90DF90CF90089581110E943D02EC2F21
:10175000F0E0EE0FFF1FE859FF4FA591B491EC9117
:10176000ED23D1F2EACF81E08093800280E4809380
:10177000A202109281021092A3026CEA81E493E02B
:101780000E94B70581E493E00C94E60585E10E9490
:10179000D002BC01990F880B990B0E94F41927E223
:1017A00030EA49E85BE30E94A91A60939D017093B7
:1017B0009E0180939F019093A0010895893040F489
:1017C0009FB7F89420E820936100809361009FBF49
:1017D0000895FC0101900020E9F73197AF01481B03
:1017E000590BBC0184EA92E00C942B018F929F92DA
:1017F000AF92BF920F931F93CF93DF93CDB7DEB716
:10180000A1970FB6F894DEBF0FBECDBF19A242302C
:1018100008F44AE08E010F5D1F4F842E912CB12CED
:10182000A12CA50194010E942B1BE62FB901CA012E
:10183000EA30F4F4E05DD801EE938D01232B242BE4
:10184000252B79F790E080E0109719F0CD010E94E8
:10185000E90BA1960FB6F894DEBF0FBECDBFDF91A6
:10186000CF911F910F91BF90AF909F908F9008954F
:10187000E95CE1CF0C94E90B682F70E090E080E028
:101880004AE00C94F60B4F925F926F927F928F9288
:101890009F92AF92BF92CF92DF92EF92FF926B0135
:1018A0007C01AC019B010E94161B882381F084E619
:1018B00091E0FF90EF90DF90CF90BF90AF909F901E
:1018C0008F907F906F905F904F900C94E90B460142
:1018D0005701E894B7F82FEF3FEF4FE75FE7C501F7
:1018E000B4010E94161B81110DC02FEF3FEF4FE78F
:1018F0005FE7C501B4010E944C1918161CF488E674
:1019000091E0D7CF2FEF3FEF4FE75FE4C701B6017C
:101910000E94A41A18161CF48CE691E0CACF2FEF8F
:101920003FEF4FE75FECC701B6010E944C1987FDFE
:10193000F3CF20E030E0A901C701B6010E944C19A5
:10194000B12CA12C87FF08C08DE20E9418025C0117
:10195000F7FAF094F7F8F0942AE037ED43EA5BE306
:10196000C701B6010E94E0182B013C010E94C31977
:101970006B017C010E94F2199B01AC01C301B20111
:101980000E94DF182B013C014AE0C701B6010E940A
:10199000F60B7C01EA0CFB1C8EE20E941802E80E9A
:1019A000F91E20E030E040E251E4C301B2010E94A0
:1019B000A91A2B013C010E94C3194B01B12CA12C87
:1019C0004AE0C501B4010E94F60BE80EF91EC501FC
:1019D000B4010E94F2199B01AC01C301B2010E9443
:1019E000DF1820E030E040E251E40E94A91A0E9492
:1019F000C31990E080E04AE00E94F60B8E0D9F1D17
:101A0000FF90EF90DF90CF90BF90AF909F908F901E
:101A10007F906F905F904F900895CF92DF92EF92FA
:101A2000FF92CF93DF936C01990FEE08FF08F7FE4A
:101A300017C08DE20E941802EC0166277727CB01C0
:101A40006C197D098E099F094AE00E94F60B8C0FE4
:101A50009D1FDF91CF91FF90EF90DF90CF90089581
:101A60004AE0C701B601DF91CF91FF90EF90DF9080
:101A7000CF900C94F60B8CE20E941802809100012A
:101A80000E943C0C8DE20E941802809101018A3074
:101A900018F480E30E941802809101010E943C0C1E
:101AA0008DE20E941802809102018A3018F480E3CE
:101AB0000E941802809102010E943C0C84E50E9461
:101AC0001802809103018A3018F480E30E94180202
:101AD000809103010E943C0C8AE30E9418028091CD
:101AE00029028A3018F480E30E94180280912902AA
:101AF0000E943C0C8AE30E9418028091A5018A3062
:101B000018F480E30E9418028091A5010E943C0C09
:101B100080E791E00E943A0C609105027091060204
:101B200080910702909108020E94430C8CE20E946F
:101B300018026091230270912402809125029091F5
:101B400026020E94430C8CE20E9418026091A101BF
:101B50007091A2018091A3019091A4010E94430C75
:101B60008CE20E94180260919D0170919E0180910B
:101B70009F019091A0010E94430C8CE20E941802E8
:101B800080911E0290E00E940D0D8CE20E941802CE
:101B90008091A60190E00C940D0DCF92DF92EF9210
:101BA000FF920F931F93CF93DF9300D000D01F922B
:101BB000CDB7DEB741E065E080E40E948F04F82EE7
:101BC0001092FF01809300028E010F5F1F4F8091E2
:101BD000FF01F81641F081E493E00E947705F801D7
:101BE00081938F01F4CF6A817B81762767277627DF
:101BF00090E080E00E94F21920E030E040E856E4F6
:101C00000E94DF1820E030E048E453E40E94A91A63
:101C100020E030E040E058E30E94A91A20E030E0E4
:101C2000A9010E94E01820E030E04AE754E40E9455
:101C3000A91A6B017C0120910102309102024091AE
:101C40000302509104020E94DF1826E031EC4EEDB1
:101C500052E40E94511960932302709324028093EE
:101C60002502909326026C817D817627672776274F
:101C700084E0769567958A95E1F76851710990E05F
:101C800080E00E94F2192DEC3CEC4CE45DE30E94F4
:101C9000A91A20E030E048E452E40E94DF18609383
:101CA000A1017093A2018093A3019093A401C0921B
:101CB0000502D0920602E0920702F09208020F900D
:101CC0000F900F900F900F90DF91CF911F910F9178
:101CD000FF90EF90DF90CF9008958F929F92AF92F8
:101CE000BF92DF92EF92FF920F931F93CF93DF93F8
:101CF0000115110509F44EC0D8015D96ED90FC90D8
:101D0000E114F10409F446C0F80149015A01D72E43
:101D1000162F682FC78D81E080938002C093A202A6
:101D2000109281021092A302D701ED91FC910190D3
:101D3000F081E02DC701099580E00E949F03682D86
:101D4000613208F060E241E08C2F0E948F04109213
:101D5000FF018093000290E0B0E0A0E088169906B1
:101D6000AA06BB0629F5012FC12FDD2D8C2F801B64
:101D700090E0B0E0A0E088159905AA05BB05D8F46D
:101D8000D701ED91FC910284F385E02DC7010995FF
:101D90008993ECCF83E090E0DF91CF911F910F9179
:101DA000FF90EF90DF90BF90AF909F908F9008953D
:101DB00086E090E0F1CF90E080E0EECF3F924F924E
:101DC0005F926F927F928F929F92AF92BF92CF92CB
:101DD000DF92EF92FF920F931F93CF93DF93CDB7D4
:101DE000DEB767970FB6F894DEBF0FBECDBF81E0B8
:101DF0008093800288E68093A20210928102109262
:101E0000A30260E081E493E00E94B70580E00E94B5
:101E10009F0340E067E088E60E948F04D82E10926E
:101E2000FF01809300027E012DE0E20EF11C87018C
:101E30005801AE18BF088091FF01D81641F081E427
:101E400093E00E947705F80181938F01F1CF81E43F
:101E500093E00E94E60580E0F7E0AF16B10409F0D8
:101E6000E2C08D85282F22952F709AE08F70299FD0
:101E7000800D11248093A5018E85282F22952F7027
:101E80008F70299F800D1124809329028F85282F20
:101E900030E044E0359527954A95E1F723708F703F
:101EA000299F800D1124809303018989282F229571
:101EB0002F708F70299F800D1124809302018A89D1
:101EC000282F22952F708F70299F800D11248093C9
:101ED00001018B89282F22952F708F70299F800DEB
:101EE0001124809300013090A501809029029090E8
:101EF00003010091020110910101809100019CE019
:101F0000E6E0F1E09E012F5F3F4F5901D9010190BA
:101F10000D929A95E1F7282F30E0225E3F4F032E75
:101F2000000C440B550B69017A0162E0F594E794CB
:101F3000D794C7946A95D1F7837049F480E8482E06
:101F400081E5582E66246394712C133018F4412CCB
:101F5000512C32012C193D094E095F0960E873E3E9
:101F600081EE91E00E941B1B6C8B7D8B8E8B9F8B77
:101F7000A701960160E075E882EE91E00E941B1BCC
:101F8000CC88DD88EE88FF88C60ED71EE81EF91EB5
:101F90004C0C5D1C6E1C7F1CF501812F8150990B30
:101FA0007C01CF018A199B098E159F056CF4A191C4
:101FB000B0E020E831E541E050E00E945C1B460EB5
:101FC000571E681E791EEDCF292D30E0A0E1BEE03E
:101FD0000E944D1B6B017C01282D30E0ACE3B0E08A
:101FE0000E944D1BC60ED71EE81EF91EC30CD11C45
:101FF000E11CF11CA02FB0E020E831E541E050E009
:102000000E945C1BC60ED71EE81EF91E4C0C5D1C00
:102010006E1C7F1C40922E0250922F026092300262
:102020007092310281E067960FB6F894DEBF0FBE62
:10203000CDBFDF91CF911F910F91FF90EF90DF9077
:10204000CF90BF90AF909F908F907F906F905F9058
:102050004F903F900895CF92DF92EF92FF920F93AF
:102060001F93CF93DF93CDB7DEB76A970FB6F8947F
:10207000DEBF0FBECDBF60E083E593E00E94EC05BC
:102080007C0107E110E020E030E0AE014F5F5F4FE0
:102090006DE283E593E00E940506E82AF92AE1E56E
:1020A000F3E089819A8198278927982795838483EB
:1020B0008B819C81982789279827978386838D8198
:1020C0009E81982789279827918780878F81988577
:1020D0009827892798279387828789859A859827C3
:1020E00089279827958784878B859C8598278927BA
:1020F0009827978786878D859E8598278927982793
:10210000978B868B8F85818F88899989918B808B1E
:102110008A899B89938B828B8C899D89958B848BF3
:102120008F89828F62E083E593E00E94EC05E82AC4
:10213000F92A01E010E020E030E0AE01465E5F4F9A
:1021400064E183E593E00E940506E82AF92A8A8D76
:102150008695982F937089E6C82E83E0D82EF601D5
:1021600080818C7F892B808362E083E593E00E94ED
:10217000EC05E82AF92A01E010E020E030E0AE01A9
:10218000475E5F4F61E083E593E00E940506E82A21
:10219000F92A898D880F982F9C70F6018081837FA2
:1021A000892B808301E010E020E030E0AE01485E42
:1021B0005F4F65E183E593E00E9405068E299F2924
:1021C0006A960FB6F894DEBF0FBECDBFDF91CF91F8
:1021D0001F910F91FF90EF90DF90CF900895CF92D5
:1021E000DF92EF92FF920F931F93CF93DF93809133
:1021F0009B0190919C01019690939C0180939B017F
:102200000E942B1090936D0380936C0300919B01AF
:1022100010919C01C0914F03D0915003B801012E41
:10222000000C880B990B0E94F4196B017C01BE0114
:102230000D2E000C880B990B0E94F41920E030E061
:1022400040E05FE30E94A91A9B01AC01C701B601FF
:102250000E94A41A87FD05C080919A0181111092F5
:102260009A010C171D0744F181E080939A01809137
:10227000040190910501892B21F061E084E00E9426
:1022800066020E94DE0E0E94C60BC1E0C0931C02D3
:102290000E94ED0980911A02833011F4C0931B0251
:1022A00010929C0110929B0110929901109298013A
:1022B00060E084E00E94660281E080931D02DF916D
:1022C000CF911F910F91FF90EF90DF90CF900895E5
:1022D00085ED8093BC0080917C0290917D02A0915D
:1022E0007E02B0917F020796A11DB11D23E0B69535
:1022F000A795979587952A95D1F72091BC0024FD45
:1023000003C010927A02089540917C0250917D02A0
:1023100060917E0270917F02452B462B472B69F31B
:102320000097A105B10541F02AE12A95F1F700C017
:102330000197A109B109E1CF80917B020C947E0342
:102340001F920F920FB60F9211242F933F934F932A
:102350005F936F937F938F939F93AF93BF93EF930D
:10236000FF9384EA92E00E94A901FF91EF91BF914F
:10237000AF919F918F917F916F915F914F913F911D
:102380002F910F900FBE0F901F9018951F920F92D4
:102390000FB60F9211242F938F939F93EF93FF9378
:1023A000E091B402F091B5028081E091BA02F0911F
:1023B000BB0282FD1BC090818091BD028F5F8F7335
:1023C0002091BE02821741F0E091BD02F0E0EC5591
:1023D000FD4F958F8093BD02FF91EF919F918F915B
:1023E0002F910F900FBE0F901F9018958081F4CF02
:1023F0001F920F920FB60F9211242F933F938F933A
:102400009F93AF93BF938091F3019091F401A091BA
:10241000F501B091F6013091F20126E0230F2D373E
:1024200058F50296A11DB11D2093F2018093F3018E
:102430009093F401A093F501B093F6018091F70118
:102440009091F801A091F901B091FA010196A11DB6
:10245000B11D8093F7019093F801A093F901B09317
:10246000FA01BF91AF919F918F913F912F910F9062
:102470000FBE0F901F90189529E8230F0396A11DFA
:10248000B11DD2CF1F920F920FB60F9211242F932E
:102490003F934F935F936F937F938F939F93AF93EC
:1024A000BF93EF93FF938091B900887F803609F442
:1024B0004AC0F0F5883209F4A7C018F5803109F454
:1024C0009BC0B8F4882309F4F9C0883009F494C09B
:1024D000FF91EF91BF91AF919F918F917F916F91FC
:1024E0005F914F913F912F910F900FBE0F901F90D2
:1024F0001895883109F488C0803251F780937802AA
:1025000014C0803409F49DC040F48033B9F388339B
:10251000F9F68093780285ECB0C0803509F485C067
:10252000883509F496C0883499F60E946811D0CF96
:10253000883909F48CC038F5883729F050F488368A
:1025400011F0803729F683E080937A021092F1012E
:1025500057C0883809F47BC0803919F0803809F0F9
:10256000B7CF8091F101803208F071C0E091F101A4
:1025700081E08E0F8093F1018091BB00F0E0EF527B
:10258000FE4F80833DC0803B39F0E0F4803A09F48F
:1025900079C0883A09F09CCF84E080937A02109247
:1025A000D0011092CF01E091FD01F091FE0109955B
:1025B0008091CF0181110FC081E08093CF011092F3
:1025C000AF0109C0803C09F4A6CF883C09F4A3CF31
:1025D000883B09F07DCFE091D00181E08E0F8093A0
:1025E000D001F0E0E155FE4F80818093BB009091D7
:1025F000D0018091CF0129C0809155028093BB000A
:1026000085EC8093BC0064CF909177028091760234
:10261000981758F5E091770281E08E0F809377024A
:10262000F0E0EA5AFD4F8081E9CFE091770281E046
:102630008E0F809377028091BB00F0E0EA5AFD4F45
:10264000808390917702809176029817C8F285E88E
:10265000D8CFE091770281E08E0F8093770280914E
:10266000BB00F0E0EA5AFD4F80838091790281112E
:102670005CCF81E08093540284EA8093BC00109286
:102680007A0226CF85EC8093BC0010927A0280916A
:10269000F101803230F4E091F101F0E0EF52FE4FB1
:1026A00010826091F10170E0E091FB01F091FC017A
:1026B00081ED91E009951092F1010ACF1092780214
:1026C00034CF1F920F920FB60F9211242F933F9386
:1026D0004F935F936F937F938F939F93AF93BF932A
:1026E000EF93FF9378948091180290911902809350
:1026F000B20080910E0290910F02A0911002B09151
:1027000011020196A11DB11D80930E0290930F023C
:10271000A0931002B093110240910E0250910F024B
:102720006091100270911102809114029091150233
:10273000A0911602B0911702481759076A077B0744
:10274000B0F080910D02811112C081E080930D02E2
:1027500010920E0210920F021092100210921102AB
:10276000E0911202F0911302099510920D02FF916F
:10277000EF91BF91AF919F918F917F916F915F91F9
:102780004F913F912F910F900FBE0F901F90189572
:102790001F920F920FB60F9211240F900FBE0F9041
:1027A0001F901895E4EAF2E01382128288EE93E01B
:1027B000A0E0B0E084839583A683B7832EE331E065
:1027C0003183208325EC30E03587248724EC30E00A
:1027D0003787268720EC30E0318B208B21EC30E0EE
:1027E000338B228B22EC30E0358B248B26EC30E0CF
:1027F000378B268B118E128E138E148EE1E4F3E04C
:102800001382128284839583A683B78380E591E047
:10281000918380838091610082E691E090935203DE
:102820008093510384E190E09093500380934F0391
:1028300082E390E090934E0380934D030895789443
:1028400084B5826084BD84B5816084BD85B58260B5
:1028500085BD85B5816085BD80916E008160809366
:102860006E001092810080918100826080938100CF
:1028700080918100816080938100809180008160DF
:10288000809380008091B10084608093B10080913A
:10289000B00081608093B00080917A008460809362
:1028A0007A0080917A00826080937A0080917A0029
:1028B0008E7F80937A0080917A00806880937A007E
:1028C0001092C100E091B402F091B502C2E0C08361
:1028D000E091B002F091B1021082E091B202F09169
:1028E000B30288E080831092BC02E091B802F091BC
:1028F000B90286E08083E091B602F091B702808150
:1029000080618083E091B602F091B7028081886097
:102910008083E091B602F091B70280818068808365
:10292000E091B602F091B70280818F7D808361E0F3
:1029300084E00E94940261E081E10E94940261E0DF
:1029400088E00E94940262E080E10E94940260E0CC
:1029500083E00E94940260E085E10E94940262E0BC
:1029600087E00E94940261E08FE00E94940261E09F
:1029700089E00E94940260E08EE00E94940260E090
:1029800084E10E94940261E086E00E94940261E08A
:1029900085E00E94940260E08FE00E94660260E0A1
:1029A00089E00E94660261E086E00E94660261E0C2
:1029B00085E00E94660260E081E10E94660261E0BB
:1029C00084E00E94660261E088E00E94660264E69C
:1029D00070E080E090E00E9407030E94600389E2BB
:1029E00091E09093FE018093FD018AE291E0909343
:1029F000FC018093FB01C093B80084E190E09093C8
:102A0000500380934F0382E390E090934E038093B2
:102A10004D0360ED77E080E090E00E9407030E94A4
:102A2000C60B81E08093800280E48093A202109222
:102A300081021092A30260E081E493E00E94B70556
:102A400081E493E00E94E60562E070E080E090E0BF
:102A50000E94070341E062E080E40E948F04182F87
:102A60001092FF018093000262E070E080E090E04D
:102A70000E940703D0E0C0E08091FF01181731F0F9
:102A800081E493E00E9477052196F6CFCD2B09F4DF
:102A900046C00E94B30B64E170E080E090E00E94C9
:102AA00007030E94CD0DC12CD12C7601C1E0D0E0EE
:102AB0000E94B30B64E170E080E090E00E940703A5
:102AC0000E94CD0D64E670E080E090E00E94070374
:102AD00020910502309106024091070250910802B0
:102AE000C701B6010E94E0186B017C01BE010D2EEA
:102AF000000C880B990B0E94F4199B01AC01C701D3
:102B0000B6010E94511960930102709302028093F2
:102B10000302909304022196CA30D10549F62FEFA3
:102B200041E061E473E081E593E00E9487078091D2
:102B30006C0390916D03892B71F082E791E00E9404
:102B4000E90B8BE791E00E94E90B64EF71E080E014
:102B500090E00E94070361E089E00E94660268EB52
:102B60007BE080E090E00E94070360E089E00E9443
:102B70006602CAE0D0E064EF71E080E090E00E947D
:102B800007032197C1F760E086E00E94660260E0DB
:102B900085E00E9466020E94DE0E811107C064E695
:102BA00070E080E090E00E940703F5CF80912E0254
:102BB00090912F02A0913002B091310280932A02AD
:102BC00090932B02A0932C02B0932D0280912E02A1
:102BD00090912F02A0913002B091310280931F0298
:102BE00090932002A0932102B093220260E088E03B
:102BF0000E9466028091090290910A02A0910B0244
:102C0000B0910C02892B8A2B8B2B99F480912E0288
:102C100090912F02A0913002B09131020596A11D32
:102C2000B11D8093090290930A02A0930B02B09306
:102C30000C026AE070E080E090E00E94070384B735
:102C4000877F84BF8091600088618093600086E008
:102C5000809360008091600080648093600082E0D7
:102C60000E94DE0B80912902809328028CE3882E3B
:102C7000912CA12CB12C22242394312C03E810E0B8
:102C8000CFEED0E1412C512C32014394809132029D
:102C900090913302892B09F089C161E088E00E949C
:102CA00066020E94DE0E60E088E00E94660280916B
:102CB0002E0290912F02A0913002B09131024091EA
:102CC0002A0250912B0260912C0270912D02841BDC
:102CD000950BA60BB70B81319E40A105B10520F0E5
:102CE0001092050110920401809104019091050158
:102CF000892B71F061E084E00E94660261E081E16D
:102D00000E94660263E070E080E090E00E940703AA
:102D100060E084E00E94660260E081E10E94660259
:102D200083B7817F846083BF83B7816083BF83B7AC
:102D3000816083BF889583B78E7F83BF83B78E7F83
:102D400083BF8091640080718093640060912E0243
:102D500070912F028091300290913102C0902A022E
:102D6000D0902B02E0902C02F0902D026C197D097E
:102D70008E099F090E94F21920E030EC48EA57E4DE
:102D80000E9451196B017C0120E030E0A9010E94F2
:102D9000A41A87FD7BCF20E030E048E252E4C7016F
:102DA000B6010E944C1987FF71CF90912902809142
:102DB0002802981709F459C08091290280932802AB
:102DC000809127028F5F8A3008F0E4C08093270249
:102DD000E091270284E0E89FF0011124EE5EFE4FAF
:102DE00080819181A281B3818093230290932402F8
:102DF000A0932502B093260280E00E94DE0B64E6D9
:102E000070E080E090E00E9407038EE791E00E946E
:102E10003A0C60912E0270912F02809130029091B5
:102E20003102C0901F02D0902002E0902102F09069
:102E300022026C197D098E099F09A50194010E9447
:102E40002B1BCA01B9014AE00E94F60B8BE791E007
:102E50000E94E90B0E943B0D64E670E080E090E088
:102E60000E94070382E00E94DE0B80912E02909167
:102E70002F02A0913002B091310240911F02509177
:102E800020026091210270912202841B950BA60BF7
:102E9000B70B84399240A105B10508F4F7CE0E9422
:102EA000ED0980911E02882309F4F0CE80E00E9493
:102EB000DE0B61E088E00E94660264E670E080E07C
:102EC00090E00E9407032FEF41E061E473E081E5A9
:102ED00093E00E9487070E942B1090936D038093CC
:102EE0006C03309233022092320280914D03909114
:102EF0004E03092E000CAA0BBB0B209170002E7FF5
:102F0000209370002091B0002C7F2093B00020917E
:102F1000B100277F2093B1002091B6002F7D209330
:102F2000B600209170002D7F209370002091B10099
:102F300024602093B1002091B1002C7F2093B10038
:102F400010931902009318020097A105B10529F505
:102F5000409214025092150260921602709217026B
:102F6000D0931302C093120210920E0210920F021D
:102F7000109210021092110210920D02809118020C
:102F8000909119028093B2008091700081608093CB
:102F900070007CCE109227021BCF80931402909376
:102FA0001502A0931602B0931702DACF8091320275
:102FB00090913302019709F0F5C090912902809118
:102FC0002802981761F0809127029091290290932E
:102FD00028028F5F8A3008F0E2C080932702E091D8
:102FE000270284E0E89FF0011124EE5EFE4F80810D
:102FF0009181A281B3818093230290932402A093B4
:103000002502B093260280912E0290912F02A0916A
:103010003002B091310240912A0250912B0260910E
:103020002C0270912D02841B950BA60BB70B8131DE
:103030009E40A105B10520F01092050110920401F7
:1030400080911D02882309F48CC08BE791E00E94D7
:10305000E90B80915503909156030E94CB000E948A
:10306000430C80E791E00E943A0C809157039091C5
:1030700058030E94CB000E94430C80E791E00E941D
:103080003A0C8091590390915A030E94CB000E9400
:10309000430C80E791E00E943A0C609161037091CB
:1030A0006203072E000C880B990B0E94F4192AE981
:1030B00039E949E15EE30E94A91A0E94430C80E7C6
:1030C00091E00E943A0C6091630370916403072EB3
:1030D000000C880B990B0E94F4192AE939E949E19F
:1030E0005EE30E94A91A0E94430C80E791E00E94CF
:1030F0003A0C6091650370916603072E000C880BF3
:10310000990B0E94F4192AE939E949E15EE30E942A
:10311000A91A0E94430C80E791E00E943A0C80912A
:103120005B0390915C030E948C000E94430C80E73B
:1031300091E00E943A0C80915D0390915E030E94A1
:103140008C000E94430C80E791E00E943A0C809131
:103150005F03909160030E948C000E94430C1092C8
:103160001D0280911C02882321F00E943B0D1092C9
:103170001C0280911B02882309F418CF80917000F3
:103180008E7F8093700082E00E94DE0B10923302EB
:103190001092320210921B0210921A0207CF109264
:1031A00027021DCF80E090E0892B09F46FCD0E94AB
:1031B0009501882309F46ACD0E94000067CD50581C
:1031C000BB27AA270E94F7180C946A1A0E945C1A5F
:1031D00038F00E94631A20F039F49F3F19F426F466
:1031E0000C94591A0EF4E095E7FB0C94531AE92F4E
:1031F0000E947B1A58F3BA17620773078407950772
:1032000020F079F4A6F50C949D1A0EF4E0950B2E9F
:10321000BA2FA02D0B01B90190010C01CA01A00128
:103220001124FF27591B99F0593F50F4503E68F183
:103230001A16F040A22F232F342F4427585FF3CFC4
:10324000469537952795A795F0405395C9F77EF495
:103250001F16BA0B620B730B840BBAF09150A1F0DE
:10326000FF0FBB1F661F771F881FC2F70EC0BA0F64
:10327000621F731F841F48F4879577956795B795EC
:10328000F7959E3F08F0B0CF9395880F08F09927E7
:10329000EE0F9795879508950E942F1A08F481E004
:1032A00008950E9465190C946A1A0E94631A58F0D6
:1032B0000E945C1A40F029F45F3F29F00C94531AE5
:1032C00051110C949E1A0C94591A0E947B1A68F39F
:1032D0009923B1F3552391F3951B550BBB27AA27CF
:1032E00062177307840738F09F5F5F4F220F331F09
:1032F000441FAA1FA9F335D00E2E3AF0E0E832D0D1
:1033000091505040E695001CCAF72BD0FE2F29D0D3
:10331000660F771F881FBB1F261737074807AB07A5
:10332000B0E809F0BB0B802DBF01FF2793585F4F1A
:103330003AF09E3F510578F00C94531A0C949E1A63
:103340005F3FE4F3983ED4F3869577956795B795FC
:10335000F7959F5FC9F7880F911D9695879597F907
:103360000895E1E0660F771F881FBB1F6217730780
:103370008407BA0720F0621B730B840BBA0BEE1F95
:1033800088F7E09508950E94831A88F09F5798F077
:10339000B92F9927B751B0F0E1F0660F771F881F5A
:1033A000991F1AF0BA95C9F714C0B13091F00E9474
:1033B0009D1AB1E008950C949D1A672F782F8827E5
:1033C000B85F39F0B93FCCF3869577956795B3959B
:1033D000D9F73EF490958095709561957F4F8F4F0A
:1033E0009F4F0895E89409C097FB3EF4909580950F
:1033F000709561957F4F8F4F9F4F9923A9F0F92FBB
:1034000096E9BB279395F695879577956795B79538
:10341000F111F8CFFAF4BB0F11F460FF1BC06F5F1E
:103420007F4F8F4F9F4F16C0882311F096E911C030
:10343000772321F09EE8872F762F05C0662371F051
:1034400096E8862F70E060E02AF09A95660F771F65
:10345000881FDAF7880F9695879597F90895990F41
:103460000008550FAA0BE0E8FEEF16161706E8074E
:10347000F907C0F012161306E407F50798F0621B6F
:10348000730B840B950B39F40A2661F0232B242B44
:10349000252B21F408950A2609F4A140A6958FEF63
:1034A000811D811D089597F99F6780E870E060E0B5
:1034B00008959FEF80EC089500240A9416161706CD
:1034C00018060906089500240A9412161306140615
:1034D00005060895092E0394000C11F4882352F078
:1034E000BB0F40F4BF2B11F460FF04C06F5F7F4F30
:1034F0008F4F9F4F089557FD9058440F551F59F017
:103500005F3F71F04795880F97FB991F61F09F3FD0
:1035100079F087950895121613061406551FF2CFF9
:103520004695F1DF08C0161617061806991FF1CF49
:1035300086957105610508940895E894BB27662770
:103540007727CB0197F908950E942F1A08F48FEF7F
:1035500008950E94BC1A0C946A1A0E945C1A38F0F2
:103560000E94631A20F0952311F00C94531A0C94C6
:10357000591A11240C949E1A0E947B1A70F3959F7D
:10358000C1F3950F50E0551F629FF001729FBB275A
:10359000F00DB11D639FAA27F00DB11DAA1F649FF6
:1035A0006627B00DA11D661F829F2227B00DA11DA9
:1035B000621F739FB00DA11D621F839FA00D611D2F
:1035C000221F749F3327A00D611D231F849F600D50
:1035D000211D822F762F6A2F11249F5750409AF079
:1035E000F1F088234AF0EE0FFF1FBB1F661F771F05
:1035F000881F91505040A9F79E3F510580F00C94D0
:10360000531A0C949E1A5F3FE4F3983ED4F38695C8
:1036100077956795B795F795E7959F5FC1F7FE2B6F
:10362000880F911D9695879597F908950E942F1AF6
:10363000880B990B0895DB018F939F930E945C1B6D
:10364000BF91AF91A29F800D911DA39F900DB29F3E
:10365000900D11240895A1E21A2EAA1BBB1BFD0197
:103660000DC0AA1FBB1FEE1FFF1FA217B307E40761
:10367000F50720F0A21BB30BE40BF50B661F771FB9
:10368000881F991F1A9469F7609570958095909599
:103690009B01AC01BD01CF010895A29FB001B39F72
:1036A000C001A39F700D811D1124911DB29F700D4B
:1036B000811D1124911D08950E944D1BA59F900D01
:1036C000B49F900DA49F800D911D11240895EE0FBD
:0E36D000FF1F0590F491E02D0994F894FFCFB0
:1036DE001101011101001F1C1F1E1F1E1F1F1E1F87
:1036EE001E1FCDCCCC3D0000FA430000E14300008C
:1036FE00D24300009643000048430000C842000039
:10370E0048420000C8420000484300000000CB01C0
:10371E002B0158011D02890167017B010000000089
:10372E00B7058A05E90567052201770568050000DA
:10373E00000087076E616E00696E66006F76660028
:10374E002C0049434D206661696C000D0A004D69DD
:10375E006E2073696E6365206C61737420706C618A
:04376E00793A0000A4
:00000001FF
