:100000000C9468000C9490000C9490000C94900058
:100010000C9490000C9490000C947B220C94900013
:100020000C9490000C9414220C9490000C9490006A
:100030000C9490000C9490000C9490000C94900000
:100040000C94AB200C9490000C9479200C945320C9
:100050000C9490000C9490000C9490000C949000E0
:100060000C94F5200C9490006364696E6F70737546
:1000700078585B0000000000250028002B000000DD
:1000800000002300260029000000000800020100F3
:100090000003040700000000000000000000000052
:1000A000240027002A0001020408102040800102D9
:1000B00004081020010204081020040404040404AD
:1000C0000404020202020202030303030303AC233B
:1000D00011241FBECFEFD8E0DEBFCDBF12E0A0E0FD
:1000E000B1E0E6E5F0E702C005900D92A636B10753
:1000F000D9F726E0A6E6B2E001C01D92AE3EB207F7
:10010000E1F710E0C8E6D0E004C02197FE010E94AC
:100110002132C736D107C9F70E9424240C9429380C
:100120000C940000BC018091DE0686958695837054
:100130008130B1F040F08230F1F0833039F160E08D
:1001400070E0CB010895072E000C880B990B0E94DC
:10015000863020E030E043E053E40E94DC2F089535
:10016000072E000C880B990B0E94863020E030E0AF
:1001700043E852E4F2CF072E000C880B990B0E9443
:10018000863023E333E343E052E4E7CF072E000C4D
:10019000880B990B0E94863023E333E343E851E454
:1001A000DCCFBC018091DE0683708130B1F040F07D
:1001B0008230F1F0833039F160E070E0CB010895D6
:1001C000072E000C880B990B0E9486302FE632E137
:1001D00043E851E40E94DC2F0895072E000C880BA1
:1001E000990B0E9486302FE632E143E051E4F2CFD2
:1001F000072E000C880B990B0E9486302FE632E107
:1002000043E850E4E7CF072E000C880B990B0E94BF
:1002100086302FE632E143E050E4DCCF0F931F93AA
:10022000FC01862FA081B181ED91FC91119730974F
:1002300061F0BA0114960D911C9121E030E040E08C
:1002400050E009951F910F91089582E090E0FACF58
:100250008091D9029091D802891B990B0895089535
:100260000895AF92BF92CF92DF92EF92FF920F93D9
:100270001F93CF93DF936C017B018B01040F151F3C
:10028000EB015E01AE18BF08C017D10759F06991A4
:10029000D601ED91FC910190F081E02DC601099508
:1002A000892B79F7C501DF91CF911F910F91FF90B5
:1002B000EF90DF90CF90BF90AF900895FC01538DE9
:1002C000448D252F30E0842F90E0821B930B541730
:1002D00010F0CF96089501970895FC01918D828DBD
:1002E000981761F0A28DAE0FBF2FB11D5D968C9156
:1002F000928D9F5F9F73928F90E008958FEF9FEF95
:100300000895FC01918D828D981731F0828DE80F50
:10031000F11D858D90E008958FEF9FEF0895FC010A
:10032000918D228D892F90E0805C9F4F821B9109D7
:100330008F73992708958DE993E00E948F0121E042
:10034000892B09F420E0822F089580E090E0892B2A
:1003500029F00E949B0181110C9400000895FC017A
:10036000A48DA80FB92FB11DA35ABF4F2C91848D16
:1003700090E001968F739927848FA689B7892C9373
:10038000A089B1898C91837080648C93938D848DC6
:10039000981306C00288F389E02D80818F7D8083C9
:1003A0000895EF92FF920F931F93CF93DF93EC0189
:1003B00081E0888F9B8D8C8D98131AC0E889F9890C
:1003C000808185FF15C09FB7F894EE89FF8960830F
:1003D000E889F98980818370806480839FBF81E090
:1003E00090E0DF91CF911F910F91FF90EF900895D2
:1003F000F62E0B8D10E00F5F1F4F0F731127E02EAD
:100400008C8D8E110CC00FB607FCFACFE889F989E4
:10041000808185FFF5CFCE010E94AF01F1CFEB8D3A
:10042000EC0FFD2FF11DE35AFF4FF0829FB7F894B8
:100430000B8FEA89FB8980818062CFCFCF93DF93D6
:10044000EC01888D8823B9F0AA89BB89E889F989EC
:100450008C9185FD03C0808186FD0DC00FB607FC21
:10046000F7CF8C9185FFF2CF808185FFEDCFCE0154
:100470000E94AF01E9CFDF91CF910895833081F0E1
:1004800028F4813099F08230A9F008958730A9F0DE
:100490008830C9F08430B1F4809180008F7D03C032
:1004A000809180008F7780938000089584B58F7746
:1004B00084BD089584B58F7DFBCF8091B0008F7788
:1004C0008093B00008958091B0008F7DF9CFCF93D5
:1004D000DF93282F30E0F901E857FF4F8491F901AD
:1004E000EA55FF4FD491F901E654FF4FC491CC2354
:1004F000A1F081110E943E02EC2FF0E0EE0FFF1FF1
:10050000E258FF4FA591B491EC91ED2381E090E08A
:1005100009F480E0DF91CF91089580E090E0FACF78
:100520001F93CF93DF93282F30E0F901E857FF4F57
:100530008491F901EA55FF4FD491F901E654FF4F38
:10054000C491CC23A9F0162F81110E943E02EC2FFA
:10055000F0E0EE0FFF1FEC58FF4FA591B4918FB75D
:10056000F894EC91111108C0D095DE23DC938FBF75
:10057000DF91CF911F910895DE2BF8CFCF93DF93BA
:1005800090E0FC01EA55FF4F249186549F4FFC01F7
:1005900084918823C9F090E0880F991FFC01E456EC
:1005A000FF4FA591B491FC01EC58FF4FC591D49138
:1005B00061110DC09FB7F8948C91209582238C9384
:1005C0008881282328839FBFDF91CF9108956230CF
:1005D00051F49FB7F8943C91822F809583238C939C
:1005E000E8812E2BEFCF8FB7F894EC912E2B2C9324
:1005F0008FBFEACF8E50806480937C0080917A0018
:10060000806480937A0080917A0086FDFCCF80918F
:1006100078009091790008953FB7F8948091CE02C8
:100620009091CF02A091D002B091D10226B5A89BA3
:1006300005C02F3F19F00196A11DB11D3FBFBA2F74
:10064000A92F982F8827BC01CD01620F711D811D34
:10065000911D43E0660F771F881F991F4A95D1F7B8
:1006600008958F929F92AF92BF92CF92DF92EF92B6
:10067000FF924B015C010E940C036B017C010E9404
:100680000C036C197D098E099F09683E7340810532
:100690009105A8F321E0821A9108A108B10888EE1B
:1006A000C80E83E0D81EE11CF11C81149104A10442
:1006B000B10429F7FF90EF90DF90CF90BF90AF90FB
:1006C0009F908F9008952091A602260F3327331F05
:1006D00021323105ECF420917303FC0190E080E0BD
:1006E000243069F082E00895A091A6022191AC0126
:1006F0004A575D4FA40FB52FB11D2C930196861755
:1007000098F38091A602680F6093A60280E0089596
:1007100081E008951092730381E080937203109238
:100720004D0361E082E10E94900261E083E10E945A
:100730009002E9EBF0E080818E7F808380818D7F65
:10074000808380E28093B80085E48093BC000895A4
:10075000CF93DF9391E0909385028823B9F0C09105
:10076000B800D091BA008091BC008A7B8093BC0015
:1007700060E082E10E94900260E083E10E949002CA
:100780000E948A03D093BA00C093B800DF91CF9142
:1007900008958F929F92AF92BF92CF92DF92EF9285
:1007A000FF920F931F93CF93DF93D0919C03D1328D
:1007B00008F0D7C0182FC0919B030E940C036B0157
:1007C0007C018091730381116BC082E0809373037D
:1007D000109372038FEF8093710310927003D09384
:1007E0006F03ABE7B3E0EFE4F3E080E0D81391C030
:1007F00010924E0380914E03CC0FC82BC0934E0332
:1008000080914D03813009F088C010924D030E9401
:100810000C036B017C0180914E038093BB0080919F
:10082000750390917603A0917703B0917803892B9B
:100830008A2B8B2BA1F00E940C0300917503109161
:10084000760320917703309178036C197D098E0926
:100850009F09061717072807390708F442C0809137
:10086000BC0083FDD8CF85EC8093BC000E940C03B4
:100870006B017C0180917303823009F450C0809138
:1008800071038F3F09F46FC080917103803209F4C6
:100890006CC080917103803309F469C084E026C084
:1008A0008091750390917603A0917703B0917803BE
:1008B000892B8A2B8B2B09F484CF0E940C03809008
:1008C000750390907603A0907703B09078036C192D
:1008D0007D098E099F0986169706A806B90608F0B5
:1008E00070CF809174030E94A80385E010927A0370
:1008F00010929C0310927903DF91CF911F910F9179
:10090000FF90EF90DF90CF90BF90AF909F908F902F
:1009100008959D9191938F5F69CF85EEA5CF8091CA
:10092000750390917603A0917703B0917803892B9A
:100930008A2B8B2B09F49ECF0E940C030091750328
:100940001091760320917703309178036C197D091B
:100950008E099F09061717072807390708F08ACF5D
:10096000C0CF81E0C3CF80E0C1CF82E0BFCF83E0C2
:10097000BDCF8F929F92AF92BF92CF92DF92EF92B4
:10098000FF920F931F93CF93DF93D82FC62F142F6F
:10099000613208F09CC00E940C036B017C018091C5
:1009A000730381116FC081E080937303109372030E
:1009B0009FEF90937103109270039C0F90936F03BD
:1009C00080934E0380914E03DD0FD82BD0934E03BE
:1009D00080914D03813009F07CC010924D030E943C
:1009E0000C036B017C0180914E038093BB008091CE
:1009F000750390917603A0917703B0917803892BCA
:100A00008A2B8B2BA1F00E940C030091750310918F
:100A1000760320917703309178036C197D098E0954
:100A20009F09061717072807390708F44CC080915B
:100A3000BC0083FDD8CF85EC8093BC000E940C03E2
:100A40006B017C0180917303813009F444C0809173
:100A500070038C1710F4C0917003EFE4F3E0ADE283
:100A6000B3E080E08C1359C08C2FDF91CF911F91A0
:100A70000F91FF90EF90DF90CF90BF90AF909F903D
:100A80008F9008958091750390917603A0917703DC
:100A9000B0917803892B8A2B8B2B09F480CF0E948D
:100AA0000C038090750390907603A0907703B0902C
:100AB00078036C197D098E099F0986169706A8068A
:100AC000B90608F06CCF809174030E94A803C0E0BF
:100AD000CBCF85EEB1CF8091750390917603A09135
:100AE0007703B0917803892B8A2B8B2B09F4AACF3B
:100AF0000E940C03009175031091760320917703F7
:100B0000309178036C197D098E099F090617170724
:100B10002807390708F096CFD6CF91919D938F5F24
:100B2000A1CF0895E091D8028091D902E81730F45E
:100B3000F0E0E35DFC4F808190E008958FEF9FEF40
:100B400008959091D8028091D9022FEF3FEF981726
:100B500048F4E92FF0E0E35DFC4F208130E09F5F37
:100B60009093D802C9010895CF92DF92EF92FF923D
:100B70000F931F93CF93DF937C01CB018A012091C8
:100B80007903222389F0EB016B01C40ED51ECC152D
:100B9000DD0569F06991D701ED91FC910190F0813B
:100BA000E02DC7010995F3CF642F0E946303C801AC
:100BB000DF91CF911F910F91FF90EF90DF90CF9039
:100BC0000895CF93DF931F92CDB7DEB7698320914D
:100BD00079032223F9F020919C03203258F021E080
:100BE00030E0FC013383228390E080E00F90DF91BE
:100BF000CF91089580917A03E82FF0E0E558FC4FFB
:100C0000998190838F5F80937A0380939C0381E026
:100C100090E0ECCF61E0CE0101960E946303F7CF34
:100C2000682F8AE394E00C94E10581E00C94C903F9
:100C3000CF93DF931F92CDB7DEB7643078F420E115
:100C4000629FB00111246983AE014F5F5F4F6FE770
:100C50000E940E010F90DF91CF91089583E090E004
:100C6000F9CF0F931F93FC01862FBA01A081B181A8
:100C70001296ED91FC911397309749F0A9019801D4
:100C800014960D911C9109951F910F91089582E082
:100C900090E0FACF8F929F92AF92BF92EF92FF9225
:100CA0000F931F93CF93DF930115110591F1F80175
:100CB000C58DD68D209769F149017B01682F878DFD
:100CC00091E09093790380939B0310927A031092A2
:100CD0009C03E881F9810190F081E02DCE01099516
:100CE000E881F9810280F381E02DA401B701CE01F2
:100CF0000995CE010E94150690E080E0DF91CF912A
:100D00001F910F91FF90EF90BF90AF909F908F90A9
:100D1000089583E090E0F2CF8F929F92AF92BF92BE
:100D2000CF92DF92EF92FF920F931F93CF93DF93B7
:100D300000D000D0CDB7DEB75C01822FF50120A333
:100D4000768F658F41A398E6411199E6978F8F3F83
:100D500019F061E00E94BE02F50180A18F3F19F0F9
:100D600061A10E9490028AE496E0F50193A382A318
:100D700088E194E195A384A3B7A2A6A2C5018296B7
:100D8000938382836501F2E0CF0ED11C198260E06B
:100D9000C6010E94180601E010E020E030E0AE013C
:100DA0004F5F5F4F60E0C6010E943106009709F077
:100DB00005C289818A3E19F084E090E0FFC1F50107
:100DC000148E138E60E0C6010E94180601E010E048
:100DD00020E030E0AE014F5F5F4F66E0C6010E9449
:100DE0003106009751F4898180688983AE014F5F95
:100DF0005F4F66E0C6010E940E01F501948F838F5C
:100E0000009709F0DBC162E370E080E090E00E94AF
:100E1000310360E0C6010E94180601E010E020E006
:100E200030E0AE014F5F5F4F66E0C6010E943106C1
:100E3000009751F489818F7B8983AE014F5F5F4FAB
:100E400066E0C6010E940E01F501948F838F009722
:100E500009F0B4C160E0C6010E94180601E010E08C
:100E600020E030E0AE014F5F5F4F66E0C6010E94B8
:100E70003106009751F489818F7D8983AE014F5FE0
:100E80005F4F66E0C6010E940E01F501948F838FCB
:100E9000009709F093C160E0C6010E941806009710
:100EA000C1F401E010E020E030E0AE014F5F5F4FA1
:100EB00065E0C6010E943106009759F489818F7D53
:100EC0008F7E8983AE014F5F5F4F65E0C6010E9450
:100ED0000E01F501948F838F009709F06FC162E0D6
:100EE000C6010E9418067C0101E010E020E030E01D
:100EF000AE014F5F5F4F64E1C6010E943106E82AF0
:100F0000F92A8981897F8983AE014F5F5F4F64E150
:100F1000C6010E940E01E82AF92A62E0C6010E9479
:100F20001806E82AF92A01E010E020E030E0AE01DE
:100F30004F5F5F4F61E0C6010E943106E82AF92A3F
:100F40008981897F8983AE014F5F5F4F61E0C60170
:100F50000E940E018E299F29F501948F838F00979F
:100F600009F02CC162E0C6010E9418067C0101E074
:100F700010E020E030E0AE014F5F5F4F64E1C6015A
:100F80000E943106E82AF92A898188638983AE01A3
:100F90004F5F5F4F64E1C6010E940E01E82AF92A03
:100FA00062E0C6010E941806E82AF92A01E010E072
:100FB00020E030E0AE014F5F5F4F61E0C6010E946C
:100FC0003106E82AF92A898188638983AE014F5F57
:100FD0005F4F61E0C6010E940E018E299F29F50135
:100FE000948F838F009709F0E9C061E0C6010E94E9
:100FF0008522009709F0E2C062E0C6010E948522C6
:10100000009709F0DBC060E0C6010E941806009757
:1010100019F4C6010E948423F501948F838F60E048
:10102000C6010E941806009709F043C0C6010E943D
:1010300084230097F1F563E0C6010E94180600972B
:10104000C1F501E010E020E030E0AE014E5F5F4FFF
:1010500061E0C6010E943106009759F58A81807FC0
:10106000876080618A83AE014E5F5F4F61E0C60199
:101070000E940E010097E9F460E0C6010E94180684
:101080000097B9F401E010E020E030E0AE014F5FDE
:101090005F4F63E0C6010E943106009751F48981D9
:1010A00080628983AE014F5F5F4F63E0C6010E949B
:1010B0000E01F501948F838F85E0F82E94E0892E40
:1010C000912C21E0AE014F5F5F4F60E0C6010E94AE
:1010D000D622F501948F838F198121E0AE014F5FF5
:1010E0005F4F61E0C6010E94D6228981F501148E0E
:1010F000138E183411F4893039F1F501948E838EF2
:1011000060E0C6010E9418060097B9F401E010E003
:1011100020E030E0AE014F5F5F4F63E0C6010E9408
:101120003106009751F4898182608983AE014F5F57
:101130005F4F63E0C6010E940E01F501948F838F1B
:10114000FA94F110BECF38CE88E08C8320E0AE0157
:101150004C5F5F4F61E3C6010E94D622F501948F78
:10116000838F009759F563E0C6010E941806009727
:1011700011F58CE88B83AE014D5F5F4F63E0C601D4
:101180000E940E010097B9F480E18A83AE014E5FA0
:101190005F4F64E0C6010E940E01009761F48981EF
:1011A000807489688F7B8983AE014F5F5F4F65E0F4
:1011B000C6010E940E01F501948F838FF501948F73
:1011C000838F0F900F900F900F90DF91CF911F9111
:1011D0000F91FF90EF90DF90CF90BF90AF909F90D6
:1011E0008F900895CF93DF93EC01E981FA8190818C
:1011F00081819CBD8DBDE981FA8160E082810E9480
:10120000900281E08B83DF91CF9108958EBD0DB464
:1012100007FEFDCF08958FEF8EBD0DB407FEFDCF05
:101220008EB50895CF93DF93FC012381222361F0D3
:10123000EC010180F281E02D61E082810E94900248
:101240008FEF0E9406091B82DF91CF9108952FB77F
:10125000F8948091CA029091CB02A091CC02B091F7
:10126000CD022FBF0895CF93DF930E942709EC0191
:101270000E940B098F3F59F00E9427098C1B9D0B80
:1012800089359240A8F380E0DF91CF91089581E005
:10129000FBCFDF92EF92FF920F931F93CF93DF93D9
:1012A0008C01C62FD22FF32EE42ED52EFC01838184
:1012B000811103C0C8010E94F2080E9433098C2FDB
:1012C00080640E9406098D2D0E9406098E2D0E94C1
:1012D00006098F2D0E9406098D2F0E94060987E8B6
:1012E000C11101C085E90E940609CC3011F40E94A9
:1012F0000B09C0E00E940B09F801848387FF04C03A
:10130000CF3F11F0CF5FF6CFDF91CF911F910F91BB
:10131000FF90EF90DF9008950F931F93CF93DF938B
:10132000EC0189018D81833039F089E0440F551F2C
:10133000661F771F8A95D1F79A01AB0168E1CE014C
:101340000E944909882319F082E3888337C08EEF11
:101350000E940609F80180818EBD818132961E5F50
:101360000DB407FEFDCF8EBDE017F10711F081919E
:10137000F7CF0DB407FEFDCF8FEF0E9406098FEF68
:101380000E9406090E940B098C838F71853089F4B5
:101390000E943309182F89E51123B9F220E030E0CB
:1013A000A9016DE0CE010E944909882361F089E21C
:1013B000CCCF86E58883CE010E941209CE010E941F
:1013C000120910E007C00E940B098111F0CFCE0175
:1013D0000E941209812FDF91CF911F910F910895E3
:1013E000EF92FF920F931F93CF93DF93EC0189014C
:1013F0008D81833039F089E0440F551F661F771FB8
:101400008A95D1F79A01AB0161E1CE010E944909A9
:10141000882339F080E38883CE010E94120980E09E
:1014200037C00E9427097C010E940B098C838F3FE3
:1014300069F40E9427098E199F098D329140A0F30B
:1014400084E58883CE010E941209E6CF8E3F11F019
:1014500080E5F7CF8FEF8EBDF801D801A150BE4FC8
:101460009FEF0DB407FEFDCF8EB59EBD8193AE17E5
:10147000BF07B9F70DB407FEFDCF8EB58C931C8264
:101480000E940B090E940B09CE010E94120981E003
:10149000DF91CF911F910F91FF90EF900895EF9200
:1014A000FF921F93CF93DF93FC01208111E020FF77
:1014B00014C0EC017C01F7E0EF0EF11C4B815C8164
:1014C0006D817E81E981FA819701808191810E94FD
:1014D0008C09182F811108C010E0812FDF91CF9166
:1014E0001F91FF90EF900895888181FD04C088814D
:1014F0008E7F8883F2CFE981FA814B815C816D8197
:101500007E8184859585A685B785480F591F6A1FFA
:101510007B1F9701808191810E948C098111E7CF07
:10152000DBCFCF92DF92EF92FF921F93CF93DF93A7
:10153000EC016A017B01122F8B819C81AD81BE8100
:101540008C159D05AE05BF05B1F0CE010E944F0A76
:1015500081110AC090E080E0DF91CF911F91FF9050
:10156000EF90DF90CF90089512FF0CC01882CB82CD
:10157000DC82ED82FE8213708881182B1883CE01E5
:101580000796EACFE981FA819E01295F3F4FB701B3
:10159000A601808191810E94F0098111E7CFDACF05
:1015A0008F929F92AF92BF92CF92DF92EF92FF9273
:1015B0000F931F9310927B0441E050E060E070E0D5
:1015C00040937E0450937F04609380047093810461
:1015D00026E734E030939804209397041092960401
:1015E0004FEF5FEFBA014093990450939A046093D0
:1015F0009B0470939C04882309F450C020E040E0D1
:1016000050E0BA0186E994E00E94910A009761F4E3
:1016100080E01F910F91FF90EF90DF90CF90BF90EF
:10162000AF909F908F900895FC01E254FE4F20816F
:101630002F7771F78A539E4FFC01C080D180E280E2
:10164000F380C114D104E104F10411F320E0B701E7
:10165000A60186E994E00E94910AFC01892BC1F25F
:10166000838594858115924099F68089823081F630
:1016700086859785892B61F22585209378048FEFE5
:10168000820F8093790480E091E0291769F08F5FE1
:10169000893041F488E080937A04BACFC12CD12CF0
:1016A0007601D4CF990FF1CF80937A044689578978
:1016B00070E060E04115510521F444A155A166A1F7
:1016C00077A14093820450938304609384047093C1
:1016D00085042685378546015701820E931EA11C7D
:1016E000B11C80928A0490928B04A0928C04B092D8
:1016F0008D042189328930937D0420937C04440F2A
:10170000551F661F771F480D591D6A1D7B1D40938D
:1017100092045093930460939404709395042189E8
:101720003289A5E0220F331FAA95E1F721503E4FE1
:10173000232F33272695420F531F611D711D4093A0
:101740008604509387046093880470938904038906
:10175000148930E020E00115110521F400A111A148
:1017600022A133A1C41AD50AE60AF70AC00ED11E77
:10177000E21EF31E04C0F694E794D794C7948A95AA
:10178000D2F7D701C6010196A11DB11D80938E0429
:1017900090938F04A0939004B093910485EFC816A2
:1017A0008FE0D806E104F10420F48CE080937B0400
:1017B0002FCF80E125EFC2162FEFD206E104F1040E
:1017C00068F084A595A5A6A5B7A5809392049093EB
:1017D0009304A0939404B093950480E280937B04D7
:1017E00081E017CF8F929F92AF92BF92CF92DF92FC
:1017F000EF92FF920F931F936A017B0148015901F9
:10180000FC012581203299F50489158926893789BB
:10181000E7E07695679557954795EA95D1F7400F9C
:10182000511F621F731F23E080960E94910A009748
:1018300061F480E01F910F91FF90EF90DF90CF90C7
:10184000BF90AF909F908F900895E894C7F8DD24E3
:10185000EE24FF24CC0CDD1CCC0CDD1C8C0D9D1D5E
:10186000FC0180829182A282B38281E0E3CF2031A9
:1018700001F744895589668977894D0D511D611D90
:10188000711D23E080960E94910A009791F2DD2459
:10189000EE24FF24CC0CDD1CC80ED91EF6011183EA
:1018A0000083E3CFCF92DF92EF92FF920F931F93CB
:1018B000CF93DF93EC016A017B0189018D81803236
:1018C00009F041C08C899D89AE89BF89E7E0769592
:1018D000679557954795EA95D1F7480F591F6A1FA5
:1018E0007B1F22E0CE0180960E94910A009751F45E
:1018F0008FEFDF91CF911F910F91FF90EF90DF90CD
:10190000CF900895E894C7F8DD24EE24FF24CC0C92
:10191000DD1CCC0CDD1C8C0D9D1DFC01808191819A
:10192000A281B381BF70488D598D6A8D7B8D481718
:1019300059076A077B0728F1F80180839183A28306
:10194000B38381E0D6CF803199F64C895D896E8969
:101950007F894D0D511D611D711D22E0CE018096C4
:101960000E94910A009721F2DD24EE24FF24CC0C82
:10197000DD1CC80ED91EF60180819181B0E0A0E087
:10198000D2CF80E0B6CF0F931F93CF93DF93FC01AC
:101990002081211106C081E0DF91CF911F910F912D
:1019A0000895EC01828187FF4DC04489558966897D
:1019B00077898681978121E080960E94910A00971D
:1019C00029F489818160898380E0E6CF0C811D81C3
:1019D0000F70112725E0000F111F2A95E1F7080F5E
:1019E000191F0115110569F3F8018081853E49F33E
:1019F000888183FF08C0888D998DAA8DBB8D848FC7
:101A0000958FA68FB78F8C8D9D8DF801938F828FC8
:101A10008C8D9D8DAE8DBF8DB58BA48BE0917602A4
:101A2000F0917702309759F0B8016A5E7F4FC80194
:101A300048960995F801808D918D938B828B8A81D0
:101A40008F778A838E819F8180960E944F0A882398
:101A500009F4B7CFA0CF4F925F926F927F928F928F
:101A60009F92AF92BF92CF92DF92EF92FF920F932D
:101A70001F93CF93DF93EC014A015B014C845D849B
:101A80006E847F84A881AA2309F486C04889598975
:101A90006A897B89481559056A057B0569F08114B7
:101AA0009104A104B10451F41C861D861E861F8674
:101AB000888A998AAA8ABB8A81E073C0A3FF59C029
:101AC000088D198D2A8D3B8D081519052A053B05B2
:101AD00008F462C0EE81FF81848190E009968A015A
:101AE0009B010150110921093109082E04C03695C6
:101AF0002795179507950A94D2F775016401B1E00F
:101B0000CB1AD108E108F10804C0F694E794D79401
:101B1000C7948A95D2F7C016D106E206F30628F0DC
:101B2000452B462B472B09F052C0A6FF4BC0848D96
:101B3000958DA68DB78D8C879D87AE87BF878E01CB
:101B4000045F1F4FC114D104E104F10409F4B0CFC4
:101B50004C855D856E857F8598018E819F810E9471
:101B6000520C91E0C91AD108E108F108181654F393
:101B700013C0A5FFAFCFEE81FF818681978125E05D
:101B8000880F991F2A95E1F7B0E0A0E08815990524
:101B9000AA05BB0508F08CCF4C865D866E867F86D5
:101BA00080E0DF91CF911F910F91FF90EF90DF9038
:101BB000CF90BF90AF909F908F907F906F905F90ED
:101BC0004F9008958C8D9D8DAE8DBF8DB4CFC01A72
:101BD000D10AE20AF30AB3CFCF93DF93EC010E945C
:101BE000C30C1882DF91CF9108953F924F925F927C
:101BF0006F927F928F929F92AF92BF92CF92DF921D
:101C0000EF92FF920F931F93CF93DF93CDB7DEB781
:101C100028970FB6F894DEBF0FBECDBF4C01DC0194
:101C200012968C911297806812968C931297169642
:101C3000AD90BC9017971C964D905D906D907C90E8
:101C40001F97411451046104710409F05AC0D50171
:101C500018968D919D910D90BC91A02D8D839E83A2
:101C6000AF83B887CD80DE80EF80F884BFEFCB1ADA
:101C7000DB0AEB0AFB0AF501808D918DA28DB38DF5
:101C80008C159D05AE05BF0528F482E0C82ED12C29
:101C9000E12CF12C9E012F5F3F4FB701A601C5013A
:101CA0000E94520C87FD13C0882341F089819A81DC
:101CB000AB81BC81892B8A2B8B2B41F18D819E813D
:101CC000AF81B885C816D906EA06FB0679F6312C2D
:101CD000832D28960FB6F894DEBF0FBECDBFDF91DF
:101CE000CF911F910F91FF90EF90DF90CF90BF9019
:101CF000AF909F908F907F906F905F904F903F90AC
:101D000008954D825E826F827886ACCF0FEF1FEF11
:101D10002FEF3FE0B701A601C5010E94F20B382E5C
:101D20008823A9F2411451046104710479F09701E8
:101D30008601B301A201C5010E94F20B882339F28A
:101D4000F401C486D586E686F786C2CFD5011896FB
:101D5000CD92DD92ED92FC921B97F2CF3F924F9283
:101D60005F926F927F928F929F92AF92BF92CF922B
:101D7000DF92EF92FF920F931F93CF93DF93CDB734
:101D8000DEB760970FB6F894DEBF0FBECDBF162F3B
:101D9000342E822E9E2C9CE0E9E2F1E09E012F5F22
:101DA0003F4F5901D90101900D929A95E1F7282FE3
:101DB00030E0225E3F4F032E000C440B550B6901AF
:101DC0007A0192E0F594E794D794C7949A95D1F765
:101DD000837049F480E8482E81E5582E6624639488
:101DE000712C633018F4412C512C32012C193D090F
:101DF0004E095F0960E873E381EE91E00E94AD3126
:101E00006D877E878F87988BA701960160E075E8C4
:101E100082EE91E00E94AD31CD84DE84EF84F888BB
:101E2000C60ED71EE81EF91E4C0C5D1C6E1C7F1CD6
:101E3000F501812F8150990B7C01CF018A199B09F3
:101E40008E159F056CF4A191B0E020E831E541E0EA
:101E500050E00E941632460E571E681E791EEDCFC6
:101E6000202F30E0ACE3B0E00E9407326B017C0130
:101E7000C90CD11CE11CF11C282D30E0A0E1BEE012
:101E80000E940732C60ED71EE81EF91EA32DB0E031
:101E900020E831E541E050E00E9416326C0D7D1DD6
:101EA0008E1D9F1D640D751D861D971D60960FB6B6
:101EB000F894DEBF0FBECDBFDF91CF911F910F9180
:101EC000FF90EF90DF90CF90BF90AF909F908F905A
:101ED0007F906F905F904F903F90089581E0809346
:101EE000790380E480939B0310927A0310929C0301
:101EF0008CEA90E00E9410068AE394E00C941506A8
:101F000084B7877F84BFE0E6F0E0808188618083CA
:101F100086E08083808180648083089502C09595E7
:101F200087956A95E2F7092E000CAA0BBB0B20914E
:101F300070002E7F209370002091B0002C7F2093A2
:101F4000B0002091B100277F2093B1002091B6000E
:101F50002F7D2093B600209170002D7F209370007C
:101F60002091B10024602093B1002091B1002C7F1A
:101F70002093B10023E830E0309384022093830261
:101F80000097A105B10521F481E090E0A0E0B0E068
:101F900080937B0290937C02A0937D02B0937E029B
:101FA00082E39CE1909379028093780210927F0201
:101FB00010928002109281021092820210927A0294
:101FC00080918302909184028093B200809170008E
:101FD000816080937000089585E10E94FA02BC013F
:101FE000990F880B990B0E94863027E230EA49E866
:101FF0005BE30E943B3160936E0270936F028093AB
:102000007002909371020895E091010140910201E4
:102010002091030130E02C5E3F4F322F2227330FF7
:10202000F0E24F9FA00111244E2B242B352BFC01F5
:10203000318320832091E2024091E30280910001EC
:1020400090E0982F8827990F990F990FF0E24F9FF2
:10205000A0011124842B952B30E035952795822BF8
:10206000932BFB01918380830895CF93DF93EB0142
:1020700020E2FB013C96DC011C9601900D922A9512
:10208000E1F72A813B81FC01338322834C815D810E
:102090006E817F8144835583668377834885598524
:1020A0006A857B854087518762877387DF91CF91EF
:1020B00008950C960C94C30CFC01848583FF17C013
:1020C00084A195A1A6A1B7A1448D558D668D778D6C
:1020D000841B950BA60BB70B811520E89207A10571
:1020E000B10520F08FEF9FE7A0E0B0E0089580E019
:1020F00090E0DC01F1CF90E080E008958F929F9214
:10210000AF92BF92DF92EF92FF920F931F93CF9304
:10211000DF93EC017B012881222309F4BBC08A8173
:1021200080FFB8C088889988AA88BB8823FF21C00F
:10213000888D998DAA8DBB8D88199909AA09BB092B
:1021400082309105A105B10518F5009709F530E039
:1021500020E0A901481B590BCA01DF91CF911F91C3
:102160000F91FF90EF90DF90BF90AF909F908F9076
:10217000089525FF0DC0EE81FF818681978135E0AE
:10218000880F991F3A95E1F78815990509F488C0D9
:1021900084011170EE81FF81B501A40189E076957B
:1021A0006795579547958A95D1F725FF27C0848D68
:1021B000958DA68DB78D480F591F6A1F7B1F8E8185
:1021C0009F8120E080960E94910A009709F462C0E6
:1021D000800F911FFC018081F70180838889998994
:1021E000AA89BB890196A11DB11D888B998BAA8BE9
:1021F000BB8B21E030E090E080E0ABCFD380D422F5
:102200000115110581F4D1100EC089288A288B2868
:1022100081F526FF29C0848D958DA68DB78D8C877D
:102220009D87AE87BF87EE81FF814C855D856E857A
:102230007F854250510961097109848104C0440FAE
:10224000551F661F771F8A95D2F780899189A289C9
:10225000B389840F951FA61FB71FAC01BD014D0D9B
:10226000511D611D711DABCF8C8D9D8DAE8DBF8DB0
:10227000D6CF4C855D856E857F859E01245F3F4F5F
:10228000CF010E94520C87FD05C08111CCCF8881FF
:10229000807749F48981826089838FEF9FEF5DCFDA
:1022A00030E020E0A8CF21E030E081E090E051CFA5
:1022B000EF92FF920F931F93CF93DF931F92CDB7AF
:1022C000DEB77C01962FF7014089518962897389B5
:1022D0008A019B0185E036952795179507958A9584
:1022E000D1F70F7011F0911129C0BE016F5F7F4FC0
:1022F000C7010E947E10813051F090E080E00F9085
:10230000DF91CF911F910F91FF90EF900895F7010A
:1023100080899189A289B3894F96A11DB11D808BB7
:10232000918BA28BB38BF701868197818796F0E220
:102330000F9F90011124820F931FE1CF405E5F4FEA
:102340006F4F7F4F408B518B628B738BECCFCF9352
:10235000DF931F92CDB7DEB7BE016F5F7F4F0E9444
:102360007E10019731F4898190E00F90DF91CF9139
:1023700008958FEF9FEFF9CF0C960C94A7118F92D1
:102380009F92AF92BF92CF92DF92EF92FF92CF9344
:10239000DF93EC018C8C9D8CAE8CBF8CC88CD98C5F
:1023A000EA8CFB8C0C960E94A71197FD08C08C8EBE
:1023B0009D8EAE8EBF8EC88ED98EEA8EFB8EDF913B
:1023C000CF91FF90EF90DF90CF90BF90AF909F9014
:1023D0008F9008952F923F924F925F926F927F92CB
:1023E0008F929F92AF92BF92CF92DF92EF92FF9225
:1023F0000F931F93CF93DF93EC015B014A01888118
:1024000083FFC5C08A8181FFC2C082FDB7C0A4011D
:1024100070E060E088899989AA89BB898095909548
:10242000A095B09584179507A607B70708F4AFC025
:1024300064011E018CE0280E311C088919892A8943
:102440003B89C114D10409F4E1C08E819F81B90197
:10245000A80129E076956795579547952A95D1F774
:10246000DC011396FC90F4221170F1101BC04C8516
:102470005D856E857F850115110509F0FBC041154D
:1024800051056105710509F488C091010E94520C43
:1024900087FD7DC0811106C0CE010E94F50D882305
:1024A00009F475C0EE81FF814C855D856E857F8561
:1024B0004250510961097109848104C0440F551FBC
:1024C000661F771F8A95D2F780899189A289B3897F
:1024D000840F951FA61FB71FAC01BD014F0D511DE5
:1024E000611D711D0115110529F4C114B2E0DB064F
:1024F00008F06EC080E092E0801B910B76018C1595
:102500009D0508F47C010115110571F4488859886E
:102510006A887B88888D998DAA8DBB8D25E04816A9
:1025200059066A067B0608F421E0CF0180960E94D6
:10253000910A009761F1A701B501800F911F0E94D8
:1025400034320E0D1F1D0115124039F48E819F810A
:1025500080960E944F0A8823D1F088899989AA8998
:10256000BB898E0D9F1DA11DB11D888B998BAA8BD8
:10257000BB8BAE0CBF1CCE18DF085FCF488D598DCA
:102580006A8D7B8DCE010E942B0D811140CF8981F8
:10259000816089838FEF9FEF54C08C8D9D8DAE8DB0
:1025A000BF8D0097A105B10571F4CE010E94F50D14
:1025B000882369F38C859D85AE85BF858C8F9D8F23
:1025C000AE8FBF8F6FCF8C879D87AE87BF876ACF57
:1025D00083A194A1A5A1B6A1481759076A077B0753
:1025E00041F410A28FEF9FEFDC0183A394A3A5A376
:1025F000B6A3EE81FF819501808191810E948C09B3
:10260000882329F2E12C82E0F82EA7CF8A81488D19
:10261000598D6A8D7B8D401751076207730738F417
:10262000088F198F2A8F3B8F80688A8306C020917C
:10263000760230917702232BB9F78A8183FD14C08B
:10264000C401DF91CF911F910F91FF90EF90DF9028
:10265000CF90BF90AF909F908F907F906F905F9042
:102660004F903F902F900895CE010E94C30C81118E
:10267000E7CF8DCFFC014250510961097109848176
:1026800004C0440F551F661F771F8A95D2F78089B3
:102690009189A289B389480F591F6A1F7B1F2ACFCE
:1026A000CF93DF931F92CDB7DEB7898341E050E02F
:1026B000BE016F5F7F4F86E594E00E94EA110F90A4
:1026C000DF91CF9108950C960C94EA11CF93DF938C
:1026D0001F92CDB7DEB7698341E050E0BE016F5F66
:1026E0007F4F0C960E94EA110F90DF91CF910895D1
:1026F000CF92DF92EF92FF920F931F93CF93DF93CE
:1027000000D000D01F92CDB7DEB741E065E080E495
:102710000E94B904F82E1092D8028093D9028E013B
:102720000F5F1F4F8091D802F81641F08AE394E0C2
:102730000E94A105F80181938F01F4CF6A817B810A
:1027400076276727762790E080E00E94843020E09B
:1027500030E040E856E40E946A2F20E030E048E490
:1027600053E40E943B3120E030E040E058E30E9417
:102770003B3120E030E0A9010E946B2F20E030E0E7
:102780004AE754E40E943B316B017C012091DA025C
:102790003091DB024091DC025091DD020E946A2FF1
:1027A00026E031EC4EED52E40E94DC2F6093E9020A
:1027B0007093EA028093EB029093EC026C817D812E
:1027C00076276727762784E0769567958A95E1F7DF
:1027D0006851710990E080E00E9484302DEC3CEC5F
:1027E0004CE45DE30E943B3120E030E048E452E4F9
:1027F0000E946A2F60937202709373028093740236
:1028000090937502C092DE02D092DF02E092E00265
:10281000F092E1020F900F900F900F900F90DF91C8
:10282000CF911F910F91FF90EF90DF90CF9008957F
:102830008F929F92AF92BF92DF92EF92FF920F938F
:102840001F93CF93DF930115110509F44EC0D801F2
:102850005D96ED90FC90E114F10409F446C0F80196
:1028600049015A01D72E162F682FC78D81E080931A
:102870007903C0939B0310927A0310929C03D701B3
:10288000ED91FC910190F081E02DC701099580E068
:102890000E94C903682D613208F060E241E08C2F8C
:1028A0000E94B9041092D8028093D90290E0B0E05F
:1028B000A0E088169906AA06BB0629F5012FC12FAC
:1028C000DD2D8C2F801B90E0B0E0A0E088159905ED
:1028D000AA05BB05D8F4D701ED91FC910284F385DC
:1028E000E02DC70109958993ECCF83E090E0DF915B
:1028F000CF911F910F91FF90EF90DF90BF90AF901D
:102900009F908F90089586E090E0F1CF90E080E076
:10291000EECFAF92BF92CF92DF92EF92FF920F93E2
:102920001F93CF93DF9300D000D000D01F92CDB77C
:10293000DEB781E08093790388E680939B03109251
:102940007A0310929C0390E080E00E94100680E0E1
:102950000E94C90340E067E088E60E94B904F82EAF
:102960001092D8028093D902CE0101966C018C019D
:102970005801AC18BD088091D802F81641F08AE3DE
:1029800094E00E94A105F80181938F01F1CF8AE3C1
:1029900094E00E94150680E0F7E0AF16B10409F05C
:1029A00059C08981282F22952F709AE08F70299F16
:1029B000800D11248093E2028A81282F22952F70A6
:1029C0008F70299F800D11248093E3028B81282F23
:1029D00030E044E0359527954A95E1F723708F70F4
:1029E000299F800D1124809300018D81282F22952D
:1029F0002F708F70299F800D1124809301018E818B
:102A0000282F22952F708F70299F800D112480937D
:102A100002018F81282F22952F708F70299F800DA2
:102A2000112480930301E090E2020091E3022091DF
:102A300000014091010160910201809103010E9417
:102A4000AE0E60932703709328038093290390931D
:102A50002A0381E027960FB6F894DEBF0FBECDBFE4
:102A6000DF91CF911F910F91FF90EF90DF90CF906A
:102A7000BF90AF900895FB0101900020E9F73197D6
:102A8000AF01461B570BDC01ED91FC910280F381F5
:102A9000E02D099465E871E00C943B158F929F92AC
:102AA000AF92BF92EF92FF920F931F93CF93DF935A
:102AB000CDB7DEB7A1970FB6F894DEBF0FBECDBF7E
:102AC0007C01FA01CB0119A2223008F42AE08E0120
:102AD0000F5D1F4F822E912CB12CA12CBF01A5019F
:102AE00094010E94E531F901CA016A300CF5605D7C
:102AF000D8016E938D01232B242B252B79F790E0A1
:102B000080E0109721F0BD01C7010E943B15A196FE
:102B10000FB6F894DEBF0FBECDBFDF91CF911F91EE
:102B20000F91FF90EF90BF90AF909F908F9008957E
:102B3000695CDECF242F462F50E070E060E00C94FB
:102B40004E154F925F926F927F928F929F92AF92AB
:102B5000BF92CF92DF92EF92FF926B017C01AC01AA
:102B60009B010E94A83168E871E0811126C04601EE
:102B70005701E894B7F82FEF3FEF4FE75FE7C50144
:102B8000B4010E94A83181110CC02FEF3FEF4FE735
:102B90005FE7C501B4010E94D72F6CE871E01816F9
:102BA00064F02FEF3FEF4FE75FE4C701B6010E94EB
:102BB0003631181694F460E971E08AE494E0FF90ED
:102BC000EF90DF90CF90BF90AF909F908F907F90CD
:102BD0006F905F904F900C943B152FEF3FEF4FE7B6
:102BE0005FECC701B6010E94D72F87FDE4CF20E03C
:102BF00030E0A901C701B6010E94D72FB12CA12C4A
:102C000087FF08C08DE20E9450135C01F7FAF09430
:102C1000F7F8F0942AE037ED43EA5BE3C701B60129
:102C20000E946B2F2B013C010E9455306B017C01EF
:102C30000E9484309B01AC01C301B2010E946A2F43
:102C40002B013C012AE0B701A6018AE494E00E942E
:102C50004E157C01EA0CFB1C8EE20E945013E80E1C
:102C6000F91E20E030E040E251E4C301B2010E94CD
:102C70003B312B013C010E9455304B01B12CA12C62
:102C80002AE0B501A4018AE494E00E944E15E80E02
:102C9000F91EC501B4010E9484309B01AC01C3013F
:102CA000B2010E946A2F20E030E040E251E40E942D
:102CB0003B310E945530AB0170E060E02AE08AE4CD
:102CC00094E00E944E158E0D9F1DFF90EF90DF90B7
:102CD000CF90BF90AF909F908F907F906F905F90BC
:102CE0004F9008950C943B15FC01808181110FC019
:102CF00080E2DF01982F1D929A95E9F7778366832A
:102D0000DB0115969C91903129F0903211F080E012
:102D1000089580E4808381E08283089585ED809327
:102D2000BC008091750390917603A0917703B091D8
:102D300078030796A11DB11D23E0B695A795979539
:102D400087952A95D1F72091BC0024FD03C01092ED
:102D50007303089540917503509176036091770352
:102D600070917803452B462B472B69F30097A105FB
:102D7000B10541F02AE12A95F1F700C00197A109B8
:102D8000B109E1CF809174030C94A8032F923F9274
:102D90004F925F926F927F928F929F92AF92BF926B
:102DA000CF92DF92EF92FF920F931F93CF93DF9317
:102DB000CDB7DEB729970FB6F894DEBF0FBECDBFF3
:102DC0001C017C836B83FA01DB018C918077D1F449
:102DD00080E029960FB6F894DEBF0FBECDBFDF911D
:102DE000CF911F910F91FF90EF90DF90CF90BF9008
:102DF000AF909F908F907F906F905F904F903F909B
:102E00002F900895D1018C918111E2CF6180728061
:102E10008081837009F4C4C0C3010C966DE070E03A
:102E20000E94BD316F5F69832A838F01EB81FC8132
:102E3000F987E88740E050E0BA01CF010E942B0DEE
:102E4000812C912CC12CD12CE12CF12C1F8258010A
:102E5000F6E0AF0EB11CE885F98580899189A289D9
:102E6000B3899C01AD0165E0569547953795279547
:102E70006A95D1F72B833C834D835E834B805C80C6
:102E800061E0CF010E945811FC01892B09F08BC031
:102E9000A885B98511968C9181119ACF8A81827407
:102EA000823409F095CFE1102401E981EE1608F093
:102EB00075C160E0888599850E945811892B09F0B9
:102EC00047C1A885B98511968C91811181CFE8857C
:102ED000F985808185FD7CCF80899189A289B3891C
:102EE00081159E4FAF41B10508F072CF8885998555
:102EF0000E94F50D882309F46BCFA885B985169635
:102F0000ED91FC9117971C968D909D90AD90BC9083
:102F10001F97B2E08B1A9108A108B108848104C000
:102F2000880C991CAA1CBB1C8A95D2F780899189B0
:102F3000A289B389880E991EAA1EBB1E25E0B50181
:102F4000A401CF0180960E94910A6C01009709F4B8
:102F50003FCFFC0120E032E0119221503040E1F7F8
:102F6000FF24F394A885B98516960D90BC91A02DE9
:102F7000BC83AB8312968C911297F81608F0EAC0C6
:102F80009601B501A4014F0D511D611D711D8D915B
:102F90009C910E948C09882309F41ACFF394E2CF04
:102FA000B1E0B98341CF2081253E11F021110FC03E
:102FB000E11002C08B809C80B981EB1608F4E39489
:102FC000222309F46BCF253E29F4F12C44CF39811B
:102FD000E31638F12E32C9F333853F3009F057C07C
:102FE000F11021C026FF37CF2F71F22EC584D22ECB
:102FF0008D2D8150990BAC019DE0949F9001959F80
:10300000300D11242615370500F7512CA4E0A51525
:1030100088F08181928162167306A9F4892BA9F642
:103020001ACFE12CD7CFDA942D11CFCF25852C15CF
:10303000F9F2CBCFBAE0B51518F084819581EBCFCA
:1030400086819781E8CF8F3F910511F008F0BDCFC1
:103050004FEB480F4A3108F4805EB9016F5F7F4F34
:10306000D80113964D915C91240F351FD9019C9185
:103070002FEB290F2A3108F4905E9813A6CF5394B2
:103080003296BDE05B1609F4E6CE9B01BFCF33FD5F
:103090009CCFFF2009F44CC021E0D21299CE9F01B1
:1030A000255F3F4F90E090FB979597F98191980F9E
:1030B0002E173F07C1F7C9128BCEBA81B7FD88CE54
:1030C00080E2F10111928A95E9F7A885B9851696F3
:1030D000ED91FC91D1011796FC93EE9316971596FE
:1030E0005C924E921497A885B9855C964D915D913E
:1030F0006D917C915F97D10118964D935D936D937F
:103100007C931B974201BFE08B229924DF019796A5
:1031100035E0880C991C3A95E1F79D01280D391D81
:10312000D9011B968C9183FF90C1F101108250CE82
:103130004BE050E0B501CF010E942732892B09F006
:103140008ACED8018C9180FFB8CF21E02F8383CE27
:10315000E394ABCE90E0B0E0A0E029E0880F991FA7
:10316000AA1FBB1F2A95D1F7E885F98540895189A7
:1031700062897389840F951FA61FB71F808B918B5F
:10318000A28BB38BAB81BC8112968C91823030F4D0
:10319000B0E1EB0EE981EE1608F499CEFF81FF2332
:1031A00009F45BC0D8011596BC9082E0E82EF12CA2
:1031B0009EE7A92E6801B6E0CB0ED11CF8018181F3
:1031C00092819C012E0D3F1D0380F481E02D8E0F16
:1031D0009F1F8E179F0779F0A901B5E0440F551F77
:1031E000BA95E1F7240F351F4191042E000C550BC1
:1031F00024273527EECFF3E0FB1510F4A3E0BA2E19
:1032000094E09B0D822F8F708A3008F092C0805D11
:10321000F801E90FF11D8683F4E036952795FA95BC
:10322000E1F79150B91670F3F801EB0DF11DA6828C
:1032300040E050E0BA01888599850E942B0D61E03D
:10324000888599850E945811009709F074C0A88557
:10325000B98511968C918111BBCDA20170E060E01F
:10326000E5E0440F551F661F771FEA95D1F7888563
:1032700099850E942B0D882309F4AACDF980FA9430
:10328000EF2C5FE0B52E680131E1C30ED11C6DE07B
:10329000A62EEE2009F47CC060E0888599850E9406
:1032A0005811FC01892B09F493CDA885B985169690
:1032B0002D913C91D90190968C9190978160909638
:1032C0008C938E2DEF1001C080648083B3861486AA
:1032D000D801169690E090FB979597F92D91920F53
:1032E000CA16DB06C1F79587138E128ED801139686
:1032F0002D913C918F718150990BA89EA001A99EA0
:10330000500D112480E04615570578F5D901A40F1A
:10331000B51F6C91062E000C770B853088F57283F3
:1033200061838F5F4F5F5F4F32968D3061F7EA9414
:10333000B0CF895C6DCFFC012081222309F48DCFB1
:10334000238523FD7CCF4BE050E0BC01C6010E94E9
:103350002732892B09F073CFFFEFEF1AFF0A24E61B
:10336000E216F10409F02ACF33CD61E070E0641673
:10337000750611F470E060E0719561957109CDCF2B
:103380008B3018F475836483CCCF77836683C9CF81
:10339000E885F98580889188A288B38860E0CF01AC
:1033A0000E9458116C01892B09F412CD80E2D601DC
:1033B0001D928A95E9F7F80136968BE0D6010190C7
:1033C0000D928A95E1F7F80180818871D6011C96EB
:1033D0008C93E0917602F0917702309761F1B6011B
:1033E000625F7F4FC6014096099545E0B694A79469
:1033F000979487944A95D1F72401D60150968D91E0
:103400009C91519753969C938E93529759969C9367
:103410008E9358971E968D919C911F9757969C93CB
:103420008E935697A885B9851696ED91FC9180A14B
:10343000816080A345CE81E298E2F601918B808B7A
:1034400080E098E097878687D0CFAF01480D591D5F
:10345000DA01D2968C918771D1018C93D9011B9698
:103460009C91987119F48860D1018C93D1011396C5
:10347000FC9213978A81827321F08C91817109F0FB
:1034800054CE8A818F70D10112968C93129743A1EA
:1034900054A165A176A154964D935D936D937C9351
:1034A00057978E0E9F1EF40183AD94ADB0E0A0E05F
:1034B000DC0199278827EF5BFF4F4081518170E045
:1034C00060E0842B952BA62BB72BF101848F958F71
:1034D000A68FB78FF3E48F0E911CD4014D915D91AF
:1034E0006D917C91F101408F518F628F738FFA81C2
:1034F000F5FD02C081E06DCCC1010E942B0D882337
:1035000009F413CEF7CF2F923F924F925F926F92B2
:103510007F928F929F92AF92BF92CF92DF92EF9263
:10352000FF920F931F93CF93DF93CDB7DEB7E8974A
:103530000FB6F894DEBF0FBECDBF7C018B014BAB45
:1035400019821A82DC018C918823D1F080E0E89600
:103550000FB6F894DEBF0FBECDBFDF91CF911F91A4
:103560000F91FF90EF90DF90CF90BF90AF909F9022
:103570008F907F906F905F904F903F902F90089525
:1035800080919D06807711F3FB0180816DE976E0E3
:103590008F32B9F48F0181918F32E1F36091A306EC
:1035A0007091A406811104C0C7010E947416CFCF88
:1035B000CE0101960E947416BE016F5F7F4F882373
:1035C00029F29E012E5C3F4F38AF2FABF8019F01CF
:1035D0002F5F3F4F8081803209F495C0FDA3ECA39B
:1035E0009F01A9014E1B5F0B8901D9018D919D019E
:1035F000882371F08F3209F088C0CF01840F951FA6
:103600008C01DC012D91CD012032D1F32F32C1F399
:10361000DA01AE0FBF1FAD014E1B5F0BEA17FB07B0
:1036200009F48DC08E918E32B1F38032A1F34F3FF9
:10363000510511F00CF08ACF5BA34AA3DE019796E7
:103640006D0180E28D93AFA8B8ACAA16BB06D1F786
:10365000DF01CD018E1B9F0B2D912E32D1F3203235
:10366000C1F377247394009709F0712C9A012150CB
:1036700031095F01A40EB51E2F3F320709F062C069
:103680008EA0512CB7E0BAAB312C612CA8E04A2EA9
:10369000841795070CF094C0DF01A80FB91FAC90F8
:1036A000AEAAAA2DA03209F489C0AE3221F4821745
:1036B000930709F083C09EA8B92DB232A1F0BC37A0
:1036C00091F0A92DAA52A63010F4BD3261F4AEA932
:1036D000AA53A63040F0AEA9AB55A33020F0AEA956
:1036E000A152AE35C8F18217930709F0ADC08AA97F
:1036F0008A3009F4B4C0C901BAE0BAABA8E03A2EE6
:10370000B0E14B2E47C0F90162CF8C3509F41ECFD2
:10371000982F977F923209F419CF8A3309F416CF84
:10372000982F9F7B9C3309F411CF92EC980F923025
:1037300008F40CCF80528F3508F453CF07CF50E0F8
:1037400040E07ACFD5019E905D01BEE29B1609F460
:1037500097CF2150310990CF8217930741F2AAA841
:10376000A31408F475C0AEA9A156AA31D0F4AEA92D
:10377000A052AEAB542822242394230C5601A30C50
:10378000B11CD501AEA8AC92A6E0BA2E322CB21470
:1037900008F0822C01967CCF712CBFE5BEABBFE553
:1037A0009B2EAFEBA90DAA3130F76428E4CFC901F5
:1037B000AAE0AAABA8E03A2EB0E14B2E712CEACFDA
:1037C0008EA28FA1803209F4C1CE772019F1852D08
:1037D000862111F082E0582E59A2F80180818823B9
:1037E00059F121E0AE014F5D5F4FC7010E94C6163F
:1037F000882309F4ABCE80E2F701DE011196019037
:103800000D928A95E1F7C7010E94EC0DBE016F5F32
:103810007F4FDCCE81E089A3912CF601E80DF91DE4
:103820008EE78083E8E2F0E0EC0FFD1F8E0E9F1E16
:1038300081E3D4018C93D1CF2BA9AE014F5D5F4FB3
:10384000C7010E94C61683CEAAA9A31508F0A4CF6B
:10385000BAA9BA3021F0281739070CF0A8CF8EA2E8
:10386000712CAFCF8F929F92AF92BF92CF92DF9287
:10387000EF92FF920F931F93CF93DF93CDB7DEB7F5
:103880006A970FB6F894DEBF0FBECDBF80916C0271
:1038900090916D02019690936D0280936C0260E0AE
:1038A00088EC96E00E9418067C0107E110E020E019
:1038B00030E0AE014F5F5F4F6DE288EC96E00E9412
:1038C0003106E82AF92A89819A8198278927982739
:1038D0009093CB068093CA068B819C819827892779
:1038E00098279093CD068093CC068D819E81982752
:1038F000892798279093CF068093CE068F8198854D
:103900009827892798279093D1068093D006898598
:103910009A859827892798279093D3068093D20673
:103920008B859C859827892798279093D506809327
:10393000D4068D859E859827892798279093DD0644
:103940008093DC068F858093DF0688899989909320
:10395000D7068093D6068A899B899093D90680934F
:10396000D8068C899D899093DB068093DA068F892F
:103970008093E00662E088EC96E00E941806E82A50
:10398000F92A01E010E020E030E0AE01465E5F4F32
:1039900064E188EC96E00E943106E82AF92A8A8DD3
:1039A0008695982F93708091DE068C7F892B80936B
:1039B000DE0662E088EC96E00E941806E82AF92A02
:1039C00001E010E020E030E0AE01475E5F4F61E0D3
:1039D00088EC96E00E943106E82AF92A898D880F42
:1039E000982F9C708091DE06837F892B8093DE0662
:1039F00001E010E020E030E0AE01485E5F4F65E19D
:103A000088EC96E00E9431068E299F299093E20669
:103A10008093E10680911E01882309F496C080916D
:103A2000CA069091CB060E94D1000E94A11564E9BC
:103A300071E08AE494E00E9472168091CC06909125
:103A4000CD060E94D1000E94A11564E971E08AE4CC
:103A500094E00E9472168091CE069091CF060E944B
:103A6000D1000E94A11564E971E08AE494E00E940B
:103A700072166091D6067091D706072E000C880B3F
:103A8000990B0E9486302AE939E949E15EE30E94F8
:103A90003B310E94A11564E971E08AE494E00E9440
:103AA00072166091D8067091D906072E000C880B0B
:103AB000990B0E9486302AE939E949E15EE30E94C8
:103AC0003B310E94A11564E971E08AE494E00E9410
:103AD00072166091DA067091DB06072E000C880BD7
:103AE000990B0E9486302AE939E949E15EE30E9498
:103AF0003B310E94A11564E971E08AE494E00E94E0
:103B000072168091D0069091D1060E9492000E9478
:103B1000A11564E971E08AE494E00E947216809134
:103B2000D2069091D3060E9492000E94A11564E9EA
:103B300071E08AE494E00E9472168091D40690911C
:103B4000D5060E9492000E94A115E0906C02F090B0
:103B50006D020091480410914904B7010F2C000C2C
:103B6000880B990B0E9486304B015C01B801012E35
:103B7000000C880B990B0E94863020E030E040E07A
:103B80005FE30E943B319B01AC01C501B4010E947F
:103B9000363187FD9DC180916B02882309F498C15D
:103BA00010926B028091D7028111A7C10E946E0F03
:103BB000E016F1060CF471C10E94781381E0809345
:103BC0006B028091230190912401892B21F061E007
:103BD00084E00E9490020E9489140E94EC0F809160
:103BE0001E01882309F4F8C08CE20E9450136091F2
:103BF00003014AE050E08AE494E00E949A158DE2C5
:103C00000E945013809102018A3018F480E30E94D0
:103C10005013609102014AE050E08AE494E00E946F
:103C20009A158DE20E945013809101018A3018F498
:103C300080E30E945013609101014AE050E08AE461
:103C400094E00E949A1584E50E945013809100012F
:103C50008A3018F480E30E945013609100014AE01A
:103C600050E08AE494E00E949A158AE30E9450137F
:103C70008091E3028A3018F480E30E94501360912F
:103C8000E3024AE050E08AE494E00E949A158AE355
:103C90000E9450138091E2028A3018F480E30E945F
:103CA00050136091E2024AE050E08AE494E00E94FE
:103CB0009A1564E971E08AE494E00E9472166091BA
:103CC000DE027091DF028091E0029091E1020E9499
:103CD000A1158CE20E9450136091E9027091EA02F2
:103CE0008091EB029091EC020E94A1158CE20E945F
:103CF0005013E0911103F0E0EE0FFF1FE351FD4F71
:103D0000C080D1800D2C000CEE08FF082AE0B7011E
:103D1000A601F7FE0BC08DE20E94501344275527E1
:103D2000BA014C195D096E097F092AE08AE494E022
:103D30000E944E158CE20E945013C090E902D09070
:103D4000EA02E090EB02F090EC02E0911103F0E067
:103D5000EE0FFF1FE351FD4F60817181072E000CB4
:103D6000880B990B0E9486309B01AC01C701B601FC
:103D70000E946A2F0E94A1158CE20E94501360914C
:103D800072027091730280917402909175020E9488
:103D9000A1158CE20E94501360916E0270916F0227
:103DA00080917002909171020E94A1158CE20E9494
:103DB00050134AE050E0609118038AE494E00E94B6
:103DC0009A158CE20E9450134AE050E06091E402A0
:103DD0008AE494E00E949A1510926D0210926C028F
:103DE00060E084E00E9490028091D702882319F15C
:103DF000C090E902D090EA02E090EB02F090EC0271
:103E0000E0916A02F0E0EE0FFF1FEB5CFE4F608175
:103E10007181072E000C880B990B0E948630A70138
:103E200096010E946B2F6093E9027093EA028093DF
:103E3000EB029093EC02809169028F5F8C3308F063
:103E40004FC080936902809168028A3008F16091C6
:103E5000E9027091EA028091EB029091EC020091EC
:103E6000110310E0000F111F03511D4F0E94553028
:103E7000F80171836083809111038F5F8093110338
:103E800080911103823110F0109211031092680298
:103E9000809168028F5F8093680280911E01882361
:103EA00021F08AE494E00E944A156A960FB6F894CD
:103EB000DEBF0FBECDBFDF91CF911F910F91FF905D
:103EC000EF90DF90CF90BF90AF909F908F9008952C
:103ED000E016F10614F38091D70281116FCE6CCEFB
:103EE0001092690280916A028F5F8A3018F4809381
:103EF0006A02A9CF10926A02A6CFE016F1060CF072
:103F00005DCECBCF8F929F92AF92BF92CF92DF9236
:103F1000EF92FF920F931F93CF93DF93CDB7DEB74E
:103F2000C856D1090FB6F894DEBF0FBECDBF509171
:103F3000E2024091E3023091000120910101909151
:103F40000201809103011F925F931F924F931F9272
:103F50003F931F922F931F929F931F928F9386E9F7
:103F600091E09F938F938E010F5F1F4F1F930F93CD
:103F70000E943D322A961FAE2A972B961FAE2B9792
:103F800021961FAE1EAE219788EE93E0A0E0B0E030
:103F900025968CAF9DAFAEAFBFAF259781E791E07F
:103FA0009EAF8DAF8DE3E82EF12CEC0EFD1E8CE064
:103FB000E80EF11C46E4B801C7010E94831ABE0155
:103FC000635C7F4F8AE494E00E9435100FB6F8944A
:103FD000DEBF0FBECDBF98EE892E93E0992EA12CA7
:103FE000B12C21E7C22E21E0D22E809156048111FE
:103FF00032C061E081E10E9490028091660290915E
:104000006702019690936702809366022A961FAE1C
:104010002A972B961FAE2B9721961FAE1EAE219787
:1040200025968CAE9DAEAEAEBFAE2597DEAECDAEC4
:1040300042ECB801C7010E94831ABE01635C7F4F46
:104040008AE494E00E94351064E670E080E090E03D
:104050000E943103CACF60E081E10E94900264EBCC
:1040600071E08AE494E00E9472168AE494E00E946F
:104070004A1584E090E19093770280937602C859C4
:10408000DF4F0FB6F894DEBF0FBECDBFDF91CF91EB
:104090001F910F91FF90EF90DF90CF90BF90AF9066
:1040A0009F908F9008951F920F920FB60F92112438
:1040B0002F933F934F935F936F937F938F939F9330
:1040C000AF93BF93EF93FF938DE993E00E94AF010D
:1040D000FF91EF91BF91AF919F918F917F916F91E0
:1040E0005F914F913F912F910F900FBE0F901F90B6
:1040F00018951F920F920FB60F9211242F938F9342
:104100009F93EF93FF93E091AD03F091AE03808115
:10411000E091B303F091B40382FD1BC090818091C4
:10412000B6038F5F8F732091B703821741F0E09140
:10413000B603F0E0E356FC4F958F8093B603FF91F2
:10414000EF919F918F912F910F900FBE0F901F9025
:1041500018958081F4CF1F920F920FB60F92112401
:104160002F933F938F939F93AF93BF938091CA02F6
:104170009091CB02A091CC02B091CD023091C902B6
:1041800026E0230F2D3758F50296A11DB11D20936F
:10419000C9028093CA029093CB02A093CC02B09341
:1041A000CD028091CE029091CF02A091D002B09129
:1041B000D1020196A11DB11D8093CE029093CF0232
:1041C000A093D002B093D102BF91AF919F918F91F4
:1041D0003F912F910F900FBE0F901F90189529E8D7
:1041E000230F0396A11DB11DD2CF1F920F920FB6C0
:1041F0000F9211242F933F934F935F936F937F936D
:104200008F939F93AF93BF93EF93FF938091B900E8
:10421000887F803609F44AC0F0F5883209F4A7C0D7
:1042200018F5803109F49BC0B8F4882309F4F9C06B
:10423000883009F494C0FF91EF91BF91AF919F91A5
:104240008F917F916F915F914F913F912F910F903F
:104250000FBE0F901F901895883109F488C08032E6
:1042600051F78093710314C0803409F49DC040F469
:104270008033B9F38833F9F68093710385ECB0C0CD
:10428000803509F485C0883509F496C0883499F6DC
:104290000E948E16D0CF883909F48CC038F5883743
:1042A00029F050F4883611F0803729F683E08093A6
:1042B00073031092C80257C0883809F47BC0803954
:1042C00019F0803809F0B7CF8091C802803208F029
:1042D00071C0E091C80281E08E0F8093C802809186
:1042E000BB00F0E0E855FD4F80833DC0803B39F0D6
:1042F000E0F4803A09F479C0883A09F09CCF84E070
:10430000809373031092A7021092A602E091D40248
:10431000F091D50209958091A60281110FC081E02C
:104320008093A6021092860209C0803C09F4A6CFB1
:10433000883C09F4A3CF883B09F07DCFE091A70228
:1043400081E08E0F8093A702F0E0EA57FD4F808155
:104350008093BB009091A7028091A60229C0809112
:104360004E038093BB0085EC8093BC0064CF90919A
:10437000700380916F03981758F5E091700381E006
:104380008E0F80937003F0E0E15BFC4F8081E9CFFA
:10439000E091700381E08E0F809370038091BB00E9
:1043A000F0E0E15BFC4F80839091700380916F039C
:1043B0009817C8F285E8D8CFE091700381E08E0F9E
:1043C000809370038091BB00F0E0E15BFC4F808341
:1043D0008091720381115CCF81E080934D0384EA68
:1043E0008093BC001092730326CF85EC8093BC00B1
:1043F000109273038091C802803230F4E091C802B9
:10440000F0E0E855FD4F10826091C80270E0E09145
:10441000D202F091D30288EA92E009951092C80284
:104420000ACF1092710334CF1F920F920FB60F92E2
:1044300011242F933F934F935F936F937F938F93A9
:104440009F93AF93BF93EF93FF93789480918302F0
:10445000909184028093B20080917F0290918002BB
:10446000A0918102B09182020196A11DB11D80939D
:104470007F0290938002A0938102B09382024091C8
:104480007F0250918002609181027091820280913E
:104490007B0290917C02A0917D02B0917E02481730
:1044A00059076A077B07B0F080917A02811112C028
:1044B00081E080937A0210927F0210928002109223
:1044C000810210928202E0917802F09179020995BE
:1044D00010927A02FF91EF91BF91AF919F918F91CE
:1044E0007F916F915F914F913F912F910F900FBEF0
:1044F0000F901F9018951F920F920FB60F921124D4
:104500000F900FBE0F901F901895CF92DF92EF92F1
:10451000FF920F931F93CF93DF931F92CDB7DEB718
:104520006C01613051F562E00E9418067C0101E0E7
:1045300010E020E030E0AE014F5F5F4F64E1C60164
:104540000E943106E82AF92A89818E7F8983AE018B
:104550004F5F5F4F64E1C6010E940E018E299F29C3
:10456000F601928F818F0F90DF91CF911F910F9164
:10457000FF90EF90DF90CF90089562E00E941806C0
:104580007C0101E010E020E030E0AE014F5F5F4FC2
:1045900061E0C6010E943106E82AF92A89818E7FEE
:1045A0008983AE014F5F5F4F61E0D5CF4F925F923D
:1045B0006F927F92BF92CF92DF92EF92FF920F9312
:1045C0001F93CF93DF9300D000D0CDB7DEB77C012F
:1045D0006C836A01B22E80E0211180E88C608B83AD
:1045E00063E0C7010E941806AE014D5F5F4F63E1B3
:1045F000C7010E940E01009721F563E0C7010E94E8
:104600001806AE014C5F5F4F64E1C7010E940E01C6
:104610000097B9F48A818068807A8F7D8A83BB2075
:1046200011F163E0C7010E941806AE014E5F5F4FB3
:1046300065E1C7010E940E01412C512C3201009707
:10464000F1F00F900F900F900F90DF91CF911F918D
:104650000F91FF90EF90DF90CF90BF907F906F9081
:104660005F904F90089563E0C7010E941806A6016D
:1046700066E1C7010E940E01009799F2E2CF60E067
:10468000C7010E94180601E010E020E030E0AE0112
:104690004F5F5F4F67E1C7010E943106298126FB0A
:1046A000332730F941E058EE451653E055066104D2
:1046B000710408F440E0342B4FEF441A540A640AA2
:1046C000740A3323E1F22295217031E058EE451649
:1046D00053E055066104710408F430E0232B89F49B
:1046E000BB2009F4AECF63E0C7010E94180601E0C9
:1046F00010E020E030E0A60167E1C7010E9431062A
:10470000A0CF81E090E09DCFEF92FF920F931F9397
:10471000CF93DF931F92CDB7DEB77C0101E010E0AD
:1047200020E030E0AE014F5F5F4F6FE00E94310646
:10473000009751F489818D7F8983AE014F5F5F4F70
:104740006FE0C7010E940E010F90DF91CF911F9182
:104750000F91FF90EF900895EDE9F3E0138212823C
:1047600088EE93E0A0E0B0E084839583A683B783CE
:104770002DE431E03183208325EC30E03587248738
:1047800024EC30E03787268720EC30E0318B208B1B
:1047900021EC30E0338B228B22EC30E0358B248B04
:1047A00026EC30E0378B268B118E128E138E148EF2
:1047B000EAE3F4E01382128284839583A683B783AD
:1047C0002FE531E0318320832091610023E831E03F
:1047D0003093C7062093C60610927B0410929D0664
:1047E00010929E0624E62093BD061092C20620E594
:1047F0002093C30621E02093C406EAE4F4E0148683
:1048000015861382128284839583A683B78381E7FA
:1048100091E091838083209127013091280160915C
:10482000250170912601C9010E94D131709349047C
:104830006093480488EE93E0B9010E94D1317093EF
:104840004704609346040895CF93DF93CDB7DEB756
:10485000C05AD1090FB6F894DEBF0FBECDBF789411
:1048600084B5826084BD84B5816084BD85B5826075
:1048700085BD85B5816085BD80916E008160809326
:104880006E0010928100809181008260809381008F
:10489000809181008160809381008091800081609F
:1048A000809380008091B10084608093B1008091FA
:1048B000B00081608093B00080917A008460809322
:1048C0007A0080917A00826080937A0080917A00E9
:1048D0008E7F80937A0080917A00806880937A003E
:1048E0001092C100E091AD03F091AE0312E010838D
:1048F000E091A903F091AA031082E091AB03F0913B
:10490000AC0388E080831092B503E091B103F0918D
:10491000B20386E08083E091AF03F091B003808121
:1049200080618083E091AF03F091B0038081886063
:104930008083E091AF03F091B00380818068808331
:10494000E091AF03F091B00380818F7D808361E0BF
:1049500084E00E94BE0261E081E10E94BE0261E04B
:1049600088E00E94BE0262E080E10E94BE0260E038
:1049700085E10E94BE0262E087E00E94BE0261E023
:104980008FE00E94BE0261E089E00E94BE0260E00A
:104990008EE00E94BE0260E084E10E94BE0261E0FF
:1049A00086E00E94BE0261E085E00E94BE0260E0F7
:1049B0008FE00E94900260E089E00E94900261E036
:1049C00086E00E94900261E085E00E94900260E033
:1049D00081E10E94900261E084E00E94900261E027
:1049E00088E00E9490021092D8021092D902109290
:1049F0007A0310929C030E948A038FE291E09093C5
:104A0000D5028093D40280E391E09093D302809307
:104A1000D2021093B8001092C0061092BD061092F8
:104A2000C20683EC96E09093BF068093BE060E9478
:104A300027098C01E090BE06F090BF068AE0D701FE
:104A400012968C9361E00E94BE0261E0F7018281C0
:104A50000E949002FFB6F8948091D602811127C07F
:104A6000E4ECF0E08491E0EBF0E09491E82FF0E0EA
:104A7000EE0FFF1FE456FF4FA591B491EC91E9238F
:104A800021F461E08AE00E94900261E08AE00E94E5
:104A9000BE028CB580618CBD8CB580648CBD61E03C
:104AA0008DE00E94BE0261E08BE00E94BE02809118
:104AB000D6028F5F8093D602FFBEE091BE06F091D2
:104AC000BF0682E5808381E081838091C0068111E9
:104AD00004C08DEB96E00E94F208E091BE06F091D2
:104AE000BF0661E082810E9490026AE0F62E8FEF9D
:104AF0000E940609FA94F110FACFE091BE06F091F7
:104B0000BF0660E082810E94900220E030E0A901AF
:104B100060E08DEB96E00E9449098130F9F00E9437
:104B20002709801B910B813D974078F380E28093A9
:104B3000BD068DEB96E00E94120961E081E10E94C2
:104B4000900260E084E00E94900268EE73E080E0F2
:104B500090E00E94310310921E01A9C02AEA31E0C0
:104B600040E050E068E08DEB96E00E944909853016
:104B700049F581E08093C2068091C206C12CD12CF8
:104B8000E12C40E4F42E823019F0C12CD12C7601B6
:104B900020E030E0A90167E38DEB96E00E9449092F
:104BA000A701960169E28DEB96E00E9449098823EE
:104BB00001F10E942709801B910B813D974040F332
:104BC00083E4B5CF54E0F52E0E940B098093C10613
:104BD000FA94F110F9CF8A3A11F482E0CBCF0E9417
:104BE0002709801B910B813D974008F4B7CF85E2E0
:104BF0009ECF8091C2068230D1F420E030E0A9013E
:104C00006AE38DEB96E00E944909882311F087E35F
:104C10008ECF0E940B09807C803C19F483E0809346
:104C2000C2060E940B090E940B090E940B098DEB22
:104C300096E00E941209E091BE06F091BF0680E561
:104C4000808381E081838DEB96E09093770480935D
:104C500076048DE996E00E94EC0D81E00E94D00A76
:104C6000882309F4C3C080919D06811166CF80E23C
:104C7000EDE9F6E0DF01282F1D922A95E9F726E7F6
:104C800034E03093A4062093A30690917B049031E6
:104C900021F0903209F051CF80E480939D0681E0AD
:104CA00080939F0680919D06807709F446CF80917E
:104CB0001E01882309F46BC119AE1AAE18AA1FA6EB
:104CC00048EE53E060E070E049AB5AAB6BAB7CABB5
:104CD00081E791E09EA78DA71D861E861C821B8200
:104CE0004D835E836F8378879A83898341E060E197
:104CF00072E0CE010D960E94831ABE016F5F7F4F56
:104D0000CE018D960E94351089AD882309F43FC1EC
:104D1000CF56DF4F19821882C159D0401E0139E5A4
:104D2000230E311C6E0147E7C40ED11C510153E024
:104D3000A50EB11C4E018BE7880E911CDE01A35815
:104D4000BF4FC957DF4FB983A883C758D040FE0172
:104D5000E158FF4FC757DF4FF983E883C958D04068
:104D60009E012B573F4FC557DF4F39832883CB58C0
:104D7000D040AE014D575F4FC357DF4F5983488333
:104D8000CD58D040CE018F579F4FC157DF4F9983E9
:104D90008883CF58D040D1011C9210E000E0CE01B2
:104DA000C9960E94A71198018D30D9F02F5F3F4F0F
:104DB000F101E00FF11F80838435F1F42D964CACA6
:104DC0005DAC6EAC7FAC2D97B1E04B1A5108610819
:104DD0007108E1E0F0E0CF56DF4FF983E883C15975
:104DE000D0402E3131056CF48901D9CF80E00E948A
:104DF000D00A811138CFA1CE2E31310510F48A307E
:104E000099F721503109F101E20FF31F1082D1010E
:104E10008C918F3209F47AC02230310508F476C0C3
:104E2000F10101900020E9F73197E219F309329777
:104E300008F46CC0F101808191818035FDE49F0709
:104E400009F49EC3B4F5823534E4930709F421C311
:104E5000FCF48434980709F4E0C28C34A4E49A0783
:104E600009F465C38235914409F050C0DF92CF92B6
:104E700089E292E09F938F93BF92AF920E9460323B
:104E8000F601808191819093120180931101BEC23D
:104E90008035E9E49E0709F44FC38235F9E49F07A2
:104EA00009F40FC38335944489F581E08093D702D8
:104EB0002DC0843430E5930709F474C3E4F48435D9
:104EC0005DE4950709F47DC18334A0E59A0709F4F0
:104ED0008FC282359D44D1F4DF92CF9289E292E075
:104EE0009F938F93BF92AF920E946032D6018C91B4
:104EF000809310018BC28035E3E59E0709F405C35A
:104F00000CF0ECC08934934509F4EDC2CE018D96C6
:104F10000E945C10892B09F03ECFCE01C9960E94F9
:104F2000EC0DCF56DF4FE881F981C159D040EF2B0E
:104F300071F11D861E861C821B8288EE93E0A0E024
:104F4000B0E08D839E83AF83B88781E791E09A8339
:104F5000898343E660E172E0CE010D960E94831AD8
:104F6000BE016F5F7F4FCE018D960E943510B30159
:104F7000A201CE01C9960E942B0D6CE272E0CE0117
:104F80008D960E947216CE01C9960E94EC0D20915A
:104F90002701309128016091250170912601C901F6
:104FA0000E94D131709349046093480488EE93E0E5
:104FB000B9010E94D131709347046093460460EDBB
:104FC00077E080E090E00E9431030E94EC0F0E94A5
:104FD00089146FE272E08DE993E00E9472164091AD
:104FE0002703509128036091290370912A032AE036
:104FF0008DE993E00E944E158DE993E00E944A15D9
:1050000060E372E08DE993E00E9472166091000106
:105010004AE050E08DE993E00E949A1567E472E05F
:105020008DE993E00E9472166091E3024AE050E03D
:105030008DE993E00E949A1567E472E08DE993E0B0
:105040000E9472166091E2024AE050E08DE993E01E
:105050000E949A158DE993E00E944A158DE993E02C
:105060000E941E0268E873E180E090E00E94310334
:1050700081E08093790380E480939B0310927A030C
:1050800010929C0390E080E00E9410068AE394E076
:105090000E94150662E070E080E090E00E9431031B
:1050A00041E062E080E40E94B904F82E1092D80238
:1050B0008093D90262E070E080E090E00E943103CA
:1050C00010E000E08091D802F81609F485C28AE366
:1050D00094E00E94A1050F5F1F4FF4CF803534E5A7
:1050E000930709F43BC28335944509F00FCF9F9293
:1050F0008F92C857DF4FB881C858D040BF93C95767
:10510000DF4FE881C758D040EF93C657DF4FF88193
:10511000CA58D040FF93C757DF4F2881C958D040A5
:105120002F93C457DF4F3881CC58D0403F93C55799
:10513000DF4F4881CB58D0404F93C257DF4F588143
:10514000CE58D0405F93C357DF4F8881CD58D040B1
:105150008F93C057DF4F9881C059D0409F93C1575C
:10516000DF4FA881CF58D040AF938AE192E09F9360
:105170008F93BF92AF920E946032F401E080EE966E
:105180000FADEE97C158DF4F2881CF57D040CB5796
:10519000DF4F4881C558D040CD57DF4F6881C35895
:1051A000D040CF57DF4F8881C158D0400E94AE0E0B
:1051B00060931F0370932003809321039093220335
:1051C00011C19F928F92C857DF4F5881C858D04065
:1051D0005F93C957DF4F8881C758D0408F93C65718
:1051E000DF4F9881CA58D0409F93C757DF4FA8819F
:1051F000C958D040AF93C457DF4FB881CC58D04086
:10520000BF93C557DF4FE881CB58D040EF93C257CB
:10521000DF4FF881CE58D040FF93C357DF4F28812E
:10522000CD58D0402F93C057DF4F3881C059D04060
:105230003F93C157DF4F4881CF58D0404F938AE109
:1052400092E09F938F93BF92AF920E946032CF57AC
:10525000DF4F88819981C158D040CB56DF4F998369
:105260008883C559D040CD57DF4FA881B981C35835
:10527000D040C756DF4FB983A883C959D040CB5718
:10528000DF4FE881F981C558D040C556DF4FF9831B
:10529000E883CB59D040D4010D90BC91A02DC356CA
:1052A000DF4FB983A883CD59D040EF96EEACFFAC69
:1052B000EF97C158DF4FE881F981CF57D040C156F1
:1052C000DF4FF983E883CF59D04081E080937903A1
:1052D00088E680939B0310927A0310929C0390E0DF
:1052E00080E00E9410060AE010E0C356DF4F88817C
:1052F0009981CD59D040B8010E94D131E4E0660FC8
:10530000771FEA95E1F78F709927862B972B0E94DC
:105310001006C701B8010E94D131F4E0660F771F73
:10532000FA95E1F78F709927862B972B0E9410062C
:10533000C156DF4F88819981CF59D040B8010E9472
:10534000D131A4E0660F771FAA95E1F76073772744
:105350008F709927862B972B0E94100681E090E092
:105360000E941006C556DF4F88819981CB59D040E5
:10537000B8010E94D131B4E0660F771FBA95E1F70A
:105380008F709927862B972B0E941006C756DF4FE8
:1053900088819981C959D040B8010E94D13124E057
:1053A000660F771F2A95E1F78F709927862B972B29
:1053B0000E941006CB56DF4F88819981C559D04095
:1053C000B8010E94D13134E0660F771F3A95E1F7BA
:1053D0008F709927862B972B0E9410068AE394E002
:1053E0000E9415060FB6F894DEBF0FBECDBF8ECD5E
:1053F000DF92CF9289E292E09F938F93BF92AF9218
:105400000E946032D6018C9180931D010F900F9005
:105410000F900F900F900F9079CDDF92CF9289E28D
:1054200092E09F938F93BF92AF920E946032D60119
:105430002D913D914D915C9160E871E581E090E0A6
:105440000E94AD31CB56DF4F688379838A839B837B
:10545000C559D0400E948914809127039091280358
:10546000A0912903B0912A03CB56DF4F28813981BF
:105470004A815B81C559D040820F931FA41FB51F7D
:1054800080931F0390932003A0932103B0932203E2
:10549000BDCFDF92CF9289E292E09F938F93BF922C
:1054A000AF920E946032F60180819181A281B38126
:1054B00080931F0190932001A0932101B0932201BA
:1054C000A5CFDF92CF9289E292E09F938F93BF9214
:1054D000AF920E946032D6018D919C9190931A03F5
:1054E0008093190393CFDF92CF9289E292E09F934A
:1054F0008F93BF92AF920E946032F60180819181BA
:10550000909328018093270181CFDF92CF9289E287
:1055100092E09F938F93BF92AF920E946032D60128
:105520008D919C9190932601809325016FCF1092CD
:10553000240110922301EACCDF92CF9289E292E01B
:105540009F938F93BF92AF920E946032F601808149
:105550009181909316018093150158CFDF92CF92DD
:1055600089E292E09F938F93BF92AF920E94603244
:10557000D6018D919C91909314018093130146CF95
:10558000DF92CF9289E292E09F938F93BF92AF9286
:105590000E946032D6018D919C9190931801809366
:1055A000170134CFDF92CF9289E292E09F938F93DD
:1055B000BF92AF920E946032F60160817181828158
:1055C00093810E9486306093190170931A01809331
:1055D0001B0190931C011ACF012B09F447C00E94B4
:1055E0006E0F64E170E080E090E00E9431030E9461
:1055F0007813C12CD12C760101E010E00E946E0FCF
:1056000064E170E080E090E00E9431030E94781332
:1056100064E670E080E090E00E9431032091DE02B9
:105620003091DF024091E0025091E102C701B601E2
:105630000E946B2F6B017C01B801012E000C880BBE
:10564000990B0E9486309B01AC01C701B6010E94F4
:10565000DC2F6093DA027093DB028093DC0290937C
:10566000DD020F5F1F4F0A30110541F661E089E04E
:105670000E94900268EB7BE080E090E00E943103A2
:1056800060E089E00E9490020AE010E064EF71E0BF
:1056900080E090E00E94310301501109B9F760E009
:1056A00086E00E94900260E085E00E9490020E94E5
:1056B0008914811107C064E670E080E090E00E94E8
:1056C0003103F5CF8091270390912803A0912903FE
:1056D000B0912A038093230390932403A09325037E
:1056E000B09326038091270390912803A09129036A
:1056F000B0912A038093120390931303A093140391
:10570000B093150380911E01882309F49CC00E9468
:1057100089141D861E861C821B8288EE93E0A0E001
:10572000B0E08D839E83AF83B88781E791E09A8351
:10573000898346E463E372E0CE010D960E94831AEA
:105740006BE372E0CE0101960E94721664E071E094
:10575000CE0101960E943B15CE0101960E944A158A
:1057600069E472E0CE0101960E9472160EE010E02C
:1057700051E2F52EF801F0925700649140E150E0BB
:10578000CE0101960E949A150F5F1F4F0831110537
:1057900089F7CE0101960E944A15609103014AE003
:1057A00050E0CE0101960E949A1569E572E0CE01A3
:1057B00001960E947216609102014AE050E0CE010B
:1057C00001960E949A1569E572E0CE0101960E9449
:1057D0007216609101014AE050E0CE0101960E94EC
:1057E0009A156BE572E0CE0101960E9472166091E7
:1057F00000014AE050E0CE0101960E949A1567E44C
:1058000072E0CE0101960E9472166091E3024AE0B6
:1058100050E0CE0101960E949A1567E472E0CE0135
:1058200001960E9472166091E2024AE050E0CE01B9
:1058300001960E949A15CE0101960E944A15CE014A
:105840000D960E94EC0D60E088E00E94900280912D
:105850001F0390912003A0912103B0912203892B73
:105860008A2B8B2B99F48091270390912803A09188
:105870002903B0912A030596A11DB11D80931F0332
:1058800090932003A0932103B09322036AE070E079
:1058900080E090E00E9431030E94800F80911D0102
:1058A000893040F49FB7F89420E8209361008093FA
:1058B00061009FBF3CE3432E512C612C712C2224AC
:1058C000239442E0342E80912B0390912C03892B5A
:1058D00009F0D7C061E088E00E9490020E9489141C
:1058E00060E088E00E949002809127039091280355
:1058F000A0912903B0912A034091230350912403DE
:105900006091250370912603841B950BA60BB70BA2
:1059100081319E40A105B10520F010922401109222
:1059200023018091230190912401892B71F061E082
:1059300084E00E94900261E081E10E94900263E0B5
:1059400070E080E090E00E94310360E084E00E941B
:10595000900260E081E10E94900283B7817F8460C1
:1059600083BF83B7816083BF83B7816083BF88951E
:1059700083B78E7F83BF83B78E7F83BF80916400A0
:1059800080718093640040912703509128036091B7
:10599000290370912A0380911F0390912003A09105
:1059A0002103B0912203481759076A077B0708F4BF
:1059B0008ACF20911F013091200140912101509107
:1059C0002201ACE3B0E00E941632AB01BC01809131
:1059D0001F0390912003A0912103B0912203840F13
:1059E000951FA61FB71F80931B0390931C03A093C2
:1059F0001D03B0931E0300911F03109120032091FB
:105A00002103309122038091190390911A03092EEA
:105A1000000CAA0BBB0B840F951FA61FB71F080F06
:105A2000191F2A1F3B1F00931F031093200320936D
:105A300021033093220380911E0181110E94821F55
:105A400061E088E00E94900265E070E080E090E014
:105A50000E9431032FEF41E06AE374E086EC96E0A8
:105A60000E948C0621E030E030932C0320932B031E
:105A700060911D0180914604909147040E948E0F11
:105A800022CF80912B0390912C03019709F015C22E
:105A9000809118038111ABC0809027039090280358
:105AA000A0902903B0902A03C0902303D090240330
:105AB000E0902503F090260360912703709128035E
:105AC0008091290390912A030091120310911303EE
:105AD0002091140330911503601B710B820B930B03
