:100000000C9462000C948A000C948A000C948A0070
:100010000C948A000C948A000C94CD130C948A00E2
:100020000C948A000C9466130C948A000C948A0039
:100030000C948A000C948A000C948A000C948A0018
:100040000C94FD110C948A000C94CB110C94A51106
:100050000C948A000C948A000C948A000C948A00F8
:100060000C9447120C948A00000000002300260024
:10007000290000000000240027002A0000000000E2
:10008000250028002B0004040404040404040202D4
:100090000202020203030303030301020408102007
:1000A0004080010204081020010204081020000012
:1000B0000008000201000003040700000000000027
:1000C0000000D71311241FBECFEFD8E0DEBFCDBF95
:1000D00011E0A0E0B1E0E4EEF5E302C005900D927E
:1000E000A635B107D9F723E0A6E5B1E001C01D921E
:1000F000AA33B207E1F710E0C2E6D0E004C02197CE
:10010000FE010E94EA1AC136D107C9F70E942414E1
:100110000C94F01A0C940000BC0180912A0386957F
:10012000869583708130B1F040F08230F1F08330F9
:1001300039F160E070E0CB010895072E000C880BC8
:10014000990B0E94771920E030E043E053E40E94CD
:10015000D4180895072E000C880B990B0E9477196C
:1001600020E030E043E852E4F2CF072E000C880B89
:10017000990B0E94771923E333E343E052E4E7CF7E
:10018000072E000C880B990B0E94771923E333E3A9
:1001900043E851E4DCCFBC0180912A0383708130B5
:1001A000B1F040F08230F1F0833039F160E070E07E
:1001B000CB010895072E000C880B990B0E9477192C
:1001C0002FE632E143E851E40E94D4180895072E47
:1001D000000C880B990B0E9477192FE632E143E05F
:1001E00051E4F2CF072E000C880B990B0E9477196F
:1001F0002FE632E143E850E4E7CF072E000C880BEE
:10020000990B0E9477192FE632E143E050E4DCCFEE
:100210000F931F93FC01862FA081B181ED91FC917A
:100220001197309761F0BA0114960D911C9121E05D
:1002300030E040E050E009951F910F91089582E071
:1002400090E0FACF8091C2019091C101891B990B76
:10025000089508950895AF92BF92CF92DF92EF92E2
:10026000FF920F931F93CF93DF936C017B018B0160
:10027000040F151FEB015E01AE18BF08C017D107B0
:1002800059F06991D601ED91FC910190F081E02D3A
:10029000C6010995892B79F7C501DF91CF911F918F
:1002A0000F91FF90EF90DF90CF90BF90AF900895A7
:1002B000FC01538D448D252F30E0842F90E0821B6C
:1002C000930B541710F0CF96089501970895FC01F1
:1002D000918D828D981761F0A28DAE0FBF2FB11D49
:1002E0005D968C91928D9F5F9F73928F90E00895A1
:1002F0008FEF9FEF0895FC01918D828D981731F05B
:10030000828DE80FF11D858D90E008958FEF9FEFAE
:100310000895FC01918D228D892F90E0805C9F4F84
:10032000821B91098F739927089585E692E00E94B8
:10033000890121E0892B09F420E0822F089580E0D3
:1003400090E0892B29F00E94950181110C94000006
:100350000895FC01A48DA80FB92FB11DA35ABF4F5A
:100360002C91848D90E001968F739927848FA689B4
:10037000B7892C93A089B1898C91837080648C9308
:10038000938D848D981306C00288F389E02D8081B7
:100390008F7D80830895EF92FF920F931F93CF93E9
:1003A000DF93EC0181E0888F9B8D8C8D98131AC0B0
:1003B000E889F989808185FF15C09FB7F894EE8997
:1003C000FF896083E889F9898081837080648083F4
:1003D0009FBF81E090E0DF91CF911F910F91FF903F
:1003E000EF900895F62E0B8D10E00F5F1F4F0F73E7
:1003F0001127E02E8C8D8E110CC00FB607FCFACFA2
:10040000E889F989808185FFF5CFCE010E94A90195
:10041000F1CFEB8DEC0FFD2FF11DE35AFF4FF08272
:100420009FB7F8940B8FEA89FB8980818062CFCFD8
:10043000682F85E692E00C94CB01CF93DF93EC011B
:10044000888D8823B9F0AA89BB89E889F9898C91BC
:1004500085FD03C0808186FD0DC00FB607FCF7CF78
:100460008C9185FFF2CF808185FFEDCFCE010E9478
:10047000A901E9CFDF91CF910895833081F028F46D
:10048000813099F08230A9F008958730A9F0883042
:10049000C9F08430B1F4809180008F7D03C08091D9
:1004A00080008F7780938000089584B58F7784BD16
:1004B000089584B58F7DFBCF8091B0008F778093B6
:1004C000B00008958091B0008F7DF9CF1F93CF9336
:1004D000DF93282F30E0F901E255FF4F8491F901B5
:1004E000E656FF4FD491F901EA57FF4FC491CC2350
:1004F000A9F0162F81110E943D02EC2FF0E0EE0FC3
:10050000FF1FE458FF4FA591B4918FB7F894EC9179
:10051000111108C0D095DE23DC938FBFDF91CF91FE
:100520001F910895DE2BF8CFCF93DF9390E0FC016D
:10053000E656FF4F24918A579F4FFC0184918823F0
:10054000C9F090E0880F991FFC01EE58FF4FA5916C
:10055000B491FC01E458FF4FC591D49161110DC0D5
:100560009FB7F8948C91209582238C9388812823BF
:1005700028839FBFDF91CF910895623051F49FB7D8
:10058000F8943C91822F809583238C93E8812E2BC5
:10059000EFCF8FB7F894EC912E2B2C938FBFEACF2F
:1005A0008E50806480937C0080917A008064809378
:1005B0007A0080917A0086FDFCCF8091780090913E
:1005C000790008953FB7F8948091B9019091BA01EC
:1005D000A091BB01B091BC0126B5A89B05C02F3FDF
:1005E00019F00196A11DB11D3FBFBA2FA92F982F59
:1005F0008827BC01CD01620F711D811D911D43E053
:10060000660F771F881F991F4A95D1F708958F921B
:100610009F92AF92BF92CF92DF92EF92FF924B01E7
:100620005C010E94E2026B017C010E94E2026C19F3
:100630007D098E099F09683E734081059105A8F3E5
:1006400021E0821A9108A108B10888EEC80E83E063
:10065000D81EE11CF11C81149104A104B10429F7F6
:10066000FF90EF90DF90CF90BF90AF909F908F90D2
:10067000089520919101260F3327331F2132310530
:10068000ECF420913B02FC0190E080E0243069F022
:1006900082E00895A09191012191AC014F585E4FE5
:1006A000A40FB52FB11D2C930196861798F3809156
:1006B0009101680F6093910180E0089581E00895B1
:1006C00010923B0281E080933A021092150261E0A1
:1006D00082E10E94660261E083E10E946602E9EB2A
:1006E000F0E080818E7F808380818D7F808380E2B7
:1006F0008093B80085E48093BC000895CF93DF9386
:1007000091E0909370018823B9F0C091B800D09126
:10071000BA008091BC008A7B8093BC0060E082E1DB
:100720000E94660260E083E10E9466020E9460030C
:10073000D093BA00C093B800DF91CF9108958F9203
:100740009F92AF92BF92CF92DF92EF92FF920F9360
:100750001F93CF93DF93D0916402D13208F0D7C0BA
:10076000182FC09163020E94E2026B017C0180910C
:100770003B0281116BC082E080933B0210933A02EE
:100780008FEF8093390210923802D0933702A3E49E
:10079000B2E0E7E1F2E080E0D81391C010921602D7
:1007A00080911602CC0FC82BC093160280911502BF
:1007B000813009F088C0109215020E94E2026B019C
:1007C0007C01809116028093BB0080913D02909144
:1007D0003E02A0913F02B0914002892B8A2B8B2BC5
:1007E000A1F00E94E20200913D0210913E02209190
:1007F0003F02309140026C197D098E099F0906174E
:1008000017072807390708F442C08091BC0083FD10
:10081000D8CF85EC8093BC000E94E2026B017C0182
:1008200080913B02823009F450C0809139028F3FA1
:1008300009F46FC080913902803209F46CC0809154
:100840003902803309F469C084E026C080913D02FA
:1008500090913E02A0913F02B0914002892B8A2BD9
:100860008B2B09F484CF0E94E20280903D0290908D
:100870003E02A0903F02B09040026C197D098E09A3
:100880009F0986169706A806B90608F070CF8091D2
:100890003C020E947E0385E01092420210926402A4
:1008A00010924102DF91CF911F910F91FF90EF9035
:1008B000DF90CF90BF90AF909F908F9008959D91C3
:1008C00091938F5F69CF85EEA5CF80913D02909186
:1008D0003E02A0913F02B0914002892B8A2B8B2BC4
:1008E00009F49ECF0E94E20200913D0210913E0267
:1008F00020913F02309140026C197D098E099F09B9
:10090000061717072807390708F08ACFC0CF81E0FC
:10091000C3CF80E0C1CF82E0BFCF83E0BDCF8F9255
:100920009F92AF92BF92CF92DF92EF92FF920F937E
:100930001F93CF93DF93D82FC62F142F613208F067
:100940009CC00E94E2026B017C0180913B028111FC
:100950006FC081E080933B0210933A029FEF909327
:100960003902109238029C0F90933702809316023E
:1009700080911602DD0FD82BD093160280911502BC
:10098000813009F07CC0109215020E94E2026B01D6
:100990007C01809116028093BB0080913D02909172
:1009A0003E02A0913F02B0914002892B8A2B8B2BF3
:1009B000A1F00E94E20200913D0210913E022091BE
:1009C0003F02309140026C197D098E099F0906177C
:1009D00017072807390708F44CC08091BC0083FD35
:1009E000D8CF85EC8093BC000E94E2026B017C01B1
:1009F00080913B02813009F444C0809138028C1709
:100A000010F4C0913802E7E1F2E0A5EFB1E080E038
:100A10008C1359C08C2FDF91CF911F910F91FF90B4
:100A2000EF90DF90CF90BF90AF909F908F90089500
:100A300080913D0290913E02A0913F02B091400210
:100A4000892B8A2B8B2B09F480CF0E94E2028090A5
:100A50003D0290903E02A0903F02B09040026C197F
:100A60007D098E099F0986169706A806B90608F023
:100A70006CCF80913C020E947E03C0E0CBCF85EE1C
:100A8000B1CF80913D0290913E02A0913F02B09182
:100A90004002892B8A2B8B2B09F4AACF0E94E202F9
:100AA00000913D0210913E0220913F0230914002A0
:100AB0006C197D098E099F09061717072807390742
:100AC00008F096CFD6CF91919D938F5FA1CF0895D7
:100AD000E091C1018091C201E81730F4F0E0EB50E1
:100AE000FE4F808190E008958FEF9FEF08959091E1
:100AF000C1018091C2012FEF3FEF981748F4E92F11
:100B0000F0E0EB50FE4F208130E09F5F9093C101F9
:100B1000C9010895CF92DF92EF92FF920F931F9336
:100B2000CF93DF937C01CB018A01209141022223E4
:100B300089F0EB016B01C40ED51ECC15DD0569F003
:100B40006991D701ED91FC910190F081E02DC701F1
:100B50000995F3CF642F0E943903C801DF91CF912B
:100B60001F910F91FF90EF90DF90CF900895CF935A
:100B7000DF931F92CDB7DEB7698320914102222314
:100B8000F9F020916402203258F021E030E0FC01BD
:100B90003383228390E080E00F90DF91CF9108951E
:100BA00080914202E82FF0E0ED5BFD4F9981908348
:100BB0008F5F809342028093640281E090E0ECCFEB
:100BC00061E0CE0101960E943903F7CF81E00C94D9
:100BD0009F0390E080E00895CF93DF931F92CDB7FD
:100BE000DEB7643078F420E1629FB001112469839C
:100BF000AE014F5F5F4F6FE70E9408010F90DF91DA
:100C0000CF91089583E090E0F9CF0F931F93FC01FB
:100C1000862FBA01A081B1811296ED91FC911397B4
:100C2000309749F0A901980114960D911C910995EE
:100C30001F910F91089582E090E0FACFCF92DF925A
:100C4000EF92FF920F931F93CF93DF931F92CDB735
:100C5000DEB76C01613051F562E00E94EC057C0169
:100C600001E010E020E030E0AE014F5F5F4F64E153
:100C7000C6010E940506E82AF92A89818E7F8983A8
:100C8000AE014F5F5F4F64E1C6010E9408018E29EB
:100C90009F29F601928F818F0F90DF91CF911F9145
:100CA0000F91FF90EF90DF90CF90089562E00E9447
:100CB000EC057C0101E010E020E030E0AE014F5F88
:100CC0005F4F61E0C6010E940506E82AF92A898182
:100CD0008E7F8983AE014F5F5F4F61E0D5CF4F922A
:100CE0005F926F927F92BF92CF92DF92EF92FF92CC
:100CF0000F931F93CF93DF9300D000D0CDB7DEB713
:100D00007C016C836A01B22E80E0211180E88C6046
:100D10008B8363E0C7010E94EC05AE014D5F5F4F1E
:100D200063E1C7010E940801009721F563E0C70154
:100D30000E94EC05AE014C5F5F4F64E1C7010E9469
:100D400008010097B9F48A818068807A8F7D8A8350
:100D5000BB2011F163E0C7010E94EC05AE014E5FBC
:100D60005F4F65E1C7010E940801412C512C3201FF
:100D70000097F1F00F900F900F900F90DF91CF91AF
:100D80001F910F91FF90EF90DF90CF90BF907F90D9
:100D90006F905F904F90089563E0C7010E94EC054B
:100DA000A60166E1C7010E940801009799F2E2CF0F
:100DB00060E0C7010E94EC0501E010E020E030E0B7
:100DC000AE014F5F5F4F67E1C7010E9405062981B1
:100DD00026FB332730F941E058EE451653E055061F
:100DE0006104710408F440E0342B4FEF441A540AB4
:100DF000640A740A3323E1F22295217031E058EE3F
:100E0000451653E055066104710408F430E0232BC5
:100E100089F4BB2009F4AECF63E0C7010E94EC0562
:100E200001E010E020E030E0A60167E1C7010E9488
:100E30000506A0CF81E090E09DCFEF92FF920F9347
:100E40001F93CF93DF931F92CDB7DEB77C0101E0F4
:100E500010E020E030E0AE014F5F5F4F6FE00E9496
:100E60000506009751F489818D7F8983AE014F5F1C
:100E70005F4F6FE0C7010E9408010F90DF91CF9193
:100E80001F910F91FF90EF9008958F929F92AF92D4
:100E9000BF92EF92FF920F931F93CF93DF930115B1
:100EA000110591F1F801C58DD68D209769F14901A1
:100EB0007B01682F878D91E09093410280936302BC
:100EC0001092420210926402E881F9810190F0814F
:100ED000E02DCE010995E881F9810280F381E02DB2
:100EE000A401B701CE010995CE010E94E60590E06C
:100EF00080E0DF91CF911F910F91FF90EF90BF9015
:100F0000AF909F908F90089583E090E0F2CF8F9202
:100F10009F92AF92BF92CF92DF92EF92FF920F9388
:100F20001F93CF93DF9300D000D0CDB7DEB75C0125
:100F3000822FF50120A3768F658F41A398E641119A
:100F400099E6978F8F3F19F061E00E949402F501B6
:100F500080A18F3F19F061A10E94660285E497E0AD
:100F6000F50193A382A38DE69EE095A384A3B7A287
:100F7000A6A2C5018296938382836501F2E0CF0E1B
:100F8000D11C198260E0C6010E94EC0501E010E06E
:100F900020E030E0AE014F5F5F4F60E0C6010E948D
:100FA0000506009709F005C289818A3E19F084E0A0
:100FB00090E0FFC1F501148E138E60E0C6010E941F
:100FC000EC0501E010E020E030E0AE014F5F5F4F44
:100FD00066E0C6010E940506009751F48981806889
:100FE0008983AE014F5F5F4F66E0C6010E94080132
:100FF000F501948F838F009709F0DBC162E370E005
:1010000080E090E00E94070360E0C6010E94EC05CA
:1010100001E010E020E030E0AE014F5F5F4F66E09E
:10102000C6010E940506009751F489818F7B898350
:10103000AE014F5F5F4F66E0C6010E940801F501F7
:10104000948F838F009709F0B4C160E0C6010E94BD
:10105000EC0501E010E020E030E0AE014F5F5F4FB3
:1010600066E0C6010E940506009751F489818F7DD4
:101070008983AE014F5F5F4F66E0C6010E940801A1
:10108000F501948F838F009709F093C160E0C6014A
:101090000E94EC050097C1F401E010E020E030E090
:1010A000AE014F5F5F4F65E0C6010E9405060097E5
:1010B00059F489818F7D8F7E8983AE014F5F5F4FA9
:1010C00065E0C6010E940801F501948F838F0097A7
:1010D00009F06FC162E0C6010E94EC057C0101E0ED
:1010E00010E020E030E0AE014F5F5F4F64E1C601E9
:1010F0000E940506E82AF92A8981897F8983AE0141
:101100004F5F5F4F64E1C6010E940801E82AF92A97
:1011100062E0C6010E94EC05E82AF92A01E010E02D
:1011200020E030E0AE014F5F5F4F61E0C6010E94FA
:101130000506E82AF92A8981897F8983AE014F5FF4
:101140005F4F61E0C6010E9408018E299F29F501C9
:10115000948F838F009709F02CC162E0C6010E9432
:10116000EC057C0101E010E020E030E0AE014F5FD3
:101170005F4F64E1C6010E940506E82AF92A8981C9
:1011800088638983AE014F5F5F4F64E1C6010E94AF
:101190000801E82AF92A62E0C6010E94EC05E82A63
:1011A000F92A01E010E020E030E0AE014F5F5F4F30
:1011B00061E0C6010E940506E82AF92A8981886350
:1011C0008983AE014F5F5F4F61E0C6010E94080155
:1011D0008E299F29F501948F838F009709F0E9C02C
:1011E00061E0C6010E941E06009709F0E2C062E0BD
:1011F000C6010E941E06009709F0DBC060E0C60130
:101200000E94EC05009719F4C6010E941D07F50124
:10121000948F838F60E0C6010E94EC05009709F06F
:1012200043C0C6010E941D070097F1F563E0C601A7
:101230000E94EC050097C1F501E010E020E030E0ED
:10124000AE014E5F5F4F61E0C6010E940506009748
:1012500059F58A81807F876080618A83AE014E5F05
:101260005F4F61E0C6010E9408010097E9F460E069
:10127000C6010E94EC050097B9F401E010E020E0FF
:1012800030E0AE014F5F5F4F63E0C6010E9405068C
:10129000009751F4898180628983AE014F5F5F4F6F
:1012A00063E0C6010E940801F501948F838F85E0F9
:1012B000F82E94E0892E912C21E0AE014F5F5F4F14
:1012C00060E0C6010E946F06F501948F838F19813B
:1012D00021E0AE014F5F5F4F61E0C6010E946F06E3
:1012E0008981F501148E138E183411F4893039F187
:1012F000F501948E838E60E0C6010E94EC05009794
:10130000B9F401E010E020E030E0AE014F5F5F4F44
:1013100063E0C6010E940506009751F4898182604E
:101320008983AE014F5F5F4F63E0C6010E940801F1
:10133000F501948F838FFA94F110BECF38CE88E0F8
:101340008C8320E0AE014C5F5F4F61E3C6010E94D9
:101350006F06F501948F838F009759F563E0C601FE
:101360000E94EC05009711F58CE88B83AE014D5F70
:101370005F4F63E0C6010E9408010097B9F480E165
:101380008A83AE014E5F5F4F64E0C6010E94080190
:10139000009761F48981807489688F7B8983AE01AD
:1013A0004F5F5F4F65E0C6010E940801F501948F11
:1013B000838FF501948F838F0F900F900F900F9074
:1013C000DF91CF911F910F91FF90EF90DF90CF9021
:1013D000BF90AF909F908F900895CF92DF92EF9241
:1013E000FF92CF93DF936091E5017091E6018091C8
:1013F000E7019091E801C091DC0120E030E040EA93
:1014000051E40E94CF1887FF12C0C11110C0809113
:10141000E5019091E601A091E701B091E801809388
:101420006C0190936D01A0936E01B0936F01609178
:10143000E5017091E6018091E7019091E80120912A
:101440006C0130916D0140916E0150916F010E94CD
:10145000271A181684F48091E5019091E601A09175
:10146000E701B091E80180936C0190936D01A09326
:101470006E01B0936F0180916B01823011F5609124
:10148000E5017091E6018091E7019091E80120E08B
:1014900030E040EA51E40E94CF1887FF12C08091EB
:1014A000E5019091E601A091E701B091E8018093F8
:1014B0006C0190936D01A0936E01B0936F01109237
:1014C0006B018091DC018111A7C06091E5017091F1
:1014D000E6018091E7019091E80120916B012111D3
:1014E0000BC020E030E048EC53E40E94271A1816A5
:1014F0001CF481E080936B01C1E080916B0181302D
:1015000009F0C0E0C0906C01D0906D01E0906E01D8
:10151000F0906F012091E5013091E6014091E701E3
:101520005091E8016091690170916A019091E00128
:1015300081E06035710508F080E08C23D1E09D27C3
:10154000892331F1C701B6010E94621820E030E022
:1015500040E252E40E94271A1816D4F461E086E0B3
:101560000E94660261E089E00E9466028091EF01BC
:101570009091F001A091F101B091F2018093E1010D
:101580009093E201A093E301B093E401D093E001D2
:101590002091E5013091E6014091E7015091E80189
:1015A0006091690170916A0181E06035710508F010
:1015B00080E08C2389F1C701B6010E94621820E007
:1015C00030E048EC52E40E94271A18162CF5C1E0CE
:1015D000C093DC0161E085E00E946602C09368016F
:1015E0008091EF019091F001A091F101B091F20191
:1015F0008093E1019093E201A093E301B093E401B1
:1016000082E080936B018091690190916A0101965B
:1016100090936A01809369012091DC018091E1013E
:101620009091E201A091E301B091E4014091EF01BA
:101630005091F0016091F1017091F2010A96A11DA3
:10164000B11D84179507A607B70788F4213079F4F0
:1016500084E10E94D002883C91054CF460E085E072
:101660000E9466021092680182E08093DC01209162
:10167000DC018091E1019091E201A091E301B09140
:10168000E4014091EF015091F0016091F1017091FE
:10169000F201CC96A11DB11D84179507A607B707C7
:1016A00058F4213049F460E085E00E94660210920F
:1016B000680182E08093DC018091DC01823009F0D6
:1016C0003CC06091EF017091F0018091F101909127
:1016D000F201C090E101D090E201E090E301F090CE
:1016E000E4016C197D098E099F092CE330E040E08C
:1016F00050E00E94AE1A2A3000F160E089E00E94BA
:101700006602ECEBF0E08491E8EAF0E0D491E4E9E1
:10171000F0E0C491C11118C060E086E00E9466024A
:101720001092E00183E08093DC0110926C01109232
:101730006D0110926E0110926F01DF91CF91FF90B9
:10174000EF90DF90CF90089581110E943D02EC2F21
:10175000F0E0EE0FFF1FE859FF4FA591B491EC9117
:10176000ED23D1F2EACF81E08093410280E48093BF
:10177000630210924202109264026CEA82E093E0EB
:101780000E94B70582E093E00C94E60585E10E9493
:10179000D002BC01990F880B990B0E94771927E2A0
:1017A00030EA49E85BE30E942C1A60935F01709372
:1017B000600180936101909362010895893040F443
:1017C0009FB7F89420E820936100809361009FBF49
:1017D0000895FC0101900020E9F73197AF01481B03
:1017E000590BBC0185E692E00C942B018F929F92DD
:1017F000AF92BF920F931F93CF93DF93CDB7DEB716
:10180000A1970FB6F894DEBF0FBECDBF19A242302C
:1018100008F44AE08E010F5D1F4F842E912CB12CED
:10182000A12CA50194010E94AE1AE62FB901CA01AC
:10183000EA30F4F4E05DD801EE938D01232B242BE4
:10184000252B79F790E080E0109719F0CD010E94E8
:10185000E90BA1960FB6F894DEBF0FBECDBFDF91A6
:10186000CF911F910F91BF90AF909F908F9008954F
:10187000E95CE1CF0C94E90B682F70E090E080E028
:101880004AE00C94F60B4F925F926F927F928F9288
:101890009F92AF92BF92CF92DF92EF92FF926B0135
:1018A0007C01AC019B010E94991A882381F08CE392
:1018B00091E0FF90EF90DF90CF90BF90AF909F901E
:1018C0008F907F906F905F904F900C94E90B460142
:1018D0005701E894B7F82FEF3FEF4FE75FE7C501F7
:1018E000B4010E94991A81110DC02FEF3FEF4FE70D
:1018F0005FE7C501B4010E94CF1818161CF480E4FC
:1019000091E0D7CF2FEF3FEF4FE75FE4C701B6017C
:101910000E94271A18161CF484E491E0CACF2FEF16
:101920003FEF4FE75FECC701B6010E94CF1887FD7C
:10193000F3CF20E030E0A901C701B6010E94CF1823
:10194000B12CA12C87FF08C08DE20E9418025C0117
:10195000F7FAF094F7F8F0942AE037ED43EA5BE306
:10196000C701B6010E9463182B013C010E94461971
:101970006B017C010E9475199B01AC01C301B2018E
:101980000E9462182B013C014AE0C701B6010E9487
:10199000F60B7C01EA0CFB1C8EE20E941802E80E9A
:1019A000F91E20E030E040E251E4C301B2010E94A0
:1019B0002C1A2B013C010E9446194B01B12CA12C81
:1019C0004AE0C501B4010E94F60BE80EF91EC501FC
:1019D000B4010E9475199B01AC01C301B2010E94C0
:1019E000621820E030E040E251E40E942C1A0E948C
:1019F000461990E080E04AE00E94F60B8E0D9F1D94
:101A0000FF90EF90DF90CF90BF90AF909F908F901E
:101A10007F906F905F904F900895CF92DF92EF92FA
:101A2000FF92CF93DF936C01990FEE08FF08F7FE4A
:101A300017C08DE20E941802EC0166277727CB01C0
:101A40006C197D098E099F094AE00E94F60B8C0FE4
:101A50009D1FDF91CF91FF90EF90DF90CF90089581
:101A60004AE0C701B601DF91CF91FF90EF90DF9080
:101A7000CF900C94F60B8CE20E941802809100012A
:101A80000E943C0C8DE20E941802809101018A3074
:101A900018F480E30E941802809101010E943C0C1E
:101AA0008DE20E941802809102018A3018F480E3CE
:101AB0000E941802809102010E943C0C84E50E9461
:101AC0001802809103018A3018F480E30E94180202
:101AD000809103010E943C0C8AE30E9418028091CD
:101AE000EA018A3018F480E30E9418028091EA012A
:101AF0000E943C0C8AE30E941802809167018A30A0
:101B000018F480E30E941802809167010E943C0C47
:101B100088E491E00E943A0C6091C7017091C8017D
:101B20008091C9019091CA010E94430C8CE20E94ED
:101B300018026091E5017091E6018091E7019091B2
:101B4000E8010E94430C8CE20E941802609163013C
:101B50007091640180916501909166010E94430C2F
:101B60008CE20E94180260915F0170916001809187
:101B70006101909162010E94430C8CE20E94180264
:101B80008091E00190E00E940D0D8CE20E9418020D
:101B90008091680190E00C940D0DCF92DF92EF924E
:101BA000FF920F931F93CF93DF9300D000D01F922B
:101BB000CDB7DEB741E065E080E40E948F04F82EE7
:101BC0001092C1018093C2018E010F5F1F4F80915F
:101BD000C101F81641F082E093E00E947705F80118
:101BE00081938F01F4CF6A817B81762767277627DF
:101BF00090E080E00E94751920E030E040E856E473
:101C00000E94621820E030E048E453E40E942C1A5D
:101C100020E030E040E058E30E942C1A20E030E061
:101C2000A9010E94631820E030E04AE754E40E94D2
:101C30002C1A6B017C012091C3013091C4014091A9
:101C4000C5015091C6010E94621826E031EC4EEDAC
:101C500052E40E94D4186093E5017093E6018093EA
:101C6000E7019093E8016C817D81762767277627CD
:101C700084E0769567958A95E1F76851710990E05F
:101C800080E00E9475192DEC3CEC4CE45DE30E9471
:101C90002C1A20E030E048E452E40E94621860937D
:101CA0006301709364018093650190936601C09213
:101CB000C701D092C801E092C901F092CA010F9009
:101CC0000F900F900F900F90DF91CF911F910F9178
:101CD000FF90EF90DF90CF9008958F929F92AF92F8
:101CE000BF92DF92EF92FF920F931F93CF93DF93F8
:101CF0000115110509F44EC0D8015D96ED90FC90D8
:101D0000E114F10409F446C0F80149015A01D72E43
:101D1000162F682FC78D81E080934102C093630224
:101D20001092420210926402D701ED91FC91019051
:101D3000F081E02DC701099580E00E949F03682D86
:101D4000613208F060E241E08C2F0E948F04109213
:101D5000C1018093C20190E0B0E0A0E0881699062E
:101D6000AA06BB0629F5012FC12FDD2D8C2F801B64
:101D700090E0B0E0A0E088159905AA05BB05D8F46D
:101D8000D701ED91FC910284F385E02DC7010995FF
:101D90008993ECCF83E090E0DF91CF911F910F9179
:101DA000FF90EF90DF90BF90AF909F908F9008953D
:101DB00086E090E0F1CF90E080E0EECF3F924F924E
:101DC0005F926F927F928F929F92AF92BF92CF92CB
:101DD000DF92EF92FF920F931F93CF93DF93CDB7D4
:101DE000DEB767970FB6F894DEBF0FBECDBF81E0B8
:101DF0008093410288E6809363021092420210921F
:101E0000640260E082E093E00E94B70580E00E94F7
:101E10009F0340E067E088E60E948F04D82E10926E
:101E2000C1018093C2017E012DE0E20EF11C870109
:101E30005801AE18BF088091C101D81641F082E068
:101E400093E00E947705F80181938F01F1CF82E042
:101E500093E00E94E60580E0F7E0AF16B10409F0D8
:101E6000E2C08D85282F22952F709AE08F70299FD0
:101E7000800D1124809367018E85282F22952F7065
:101E80008F70299F800D11248093EA018F85282F60
:101E900030E044E0359527954A95E1F723708F703F
:101EA000299F800D1124809303018989282F229571
:101EB0002F708F70299F800D1124809302018A89D1
:101EC000282F22952F708F70299F800D11248093C9
:101ED00001018B89282F22952F708F70299F800DEB
:101EE000112480930001309067018090EA01909066
:101EF00003010091020110910101809100019CE019
:101F0000E6E0F1E09E012F5F3F4F5901D9010190BA
:101F10000D929A95E1F7282F30E0225E3F4F032E75
:101F2000000C440B550B69017A0162E0F594E794CB
:101F3000D794C7946A95D1F7837049F480E8482E06
:101F400081E5582E66246394712C133018F4412CCB
:101F5000512C32012C193D094E095F0960E873E3E9
:101F600081EE91E00E949E1A6C8B7D8B8E8B9F8BF5
:101F7000A701960160E075E882EE91E00E949E1A4A
:101F8000CC88DD88EE88FF88C60ED71EE81EF91EB5
:101F90004C0C5D1C6E1C7F1CF501812F8150990B30
:101FA0007C01CF018A199B098E159F056CF4A191C4
:101FB000B0E020E831E541E050E00E94DF1A460E33
:101FC000571E681E791EEDCF292D30E0A0E1BEE03E
:101FD0000E94D01A6B017C01282D30E0ACE3B0E008
:101FE0000E94D01AC60ED71EE81EF91EC30CD11CC3
:101FF000E11CF11CA02FB0E020E831E541E050E009
:102000000E94DF1AC60ED71EE81EF91E4C0C5D1C7E
:102010006E1C7F1C4092EF015092F0016092F10122
:102020007092F20181E067960FB6F894DEBF0FBEA2
:10203000CDBFDF91CF911F910F91FF90EF90DF9077
:10204000CF90BF90AF909F908F907F906F905F9058
:102050004F903F900895CF92DF92EF92FF920F93AF
:102060001F93CF93DF93CDB7DEB76A970FB6F8947F
:10207000DEBF0FBECDBF60E084E193E00E94EC05BF
:102080007C0107E110E020E030E0AE014F5F5F4FE0
:102090006DE284E193E00E940506E82AF92AE2E174
:1020A000F3E089819A8198278927982795838483EB
:1020B0008B819C81982789279827978386838D8198
:1020C0009E81982789279827918780878F81988577
:1020D0009827892798279387828789859A859827C3
:1020E00089279827958784878B859C8598278927BA
:1020F0009827978786878D859E8598278927982793
:10210000978B868B8F85818F88899989918B808B1E
:102110008A899B89938B828B8C899D89958B848BF3
:102120008F89828F62E084E193E00E94EC05E82AC7
:10213000F92A01E010E020E030E0AE01465E5F4F9A
:1021400064E184E193E00E940506E82AF92A8A8D79
:102150008695982F93708AE2C82E83E0D82EF601D8
:1021600080818C7F892B808362E084E193E00E94F0
:10217000EC05E82AF92A01E010E020E030E0AE01A9
:10218000475E5F4F61E084E193E00E940506E82A24
:10219000F92A898D880F982F9C70F6018081837FA2
:1021A000892B808301E010E020E030E0AE01485E42
:1021B0005F4F65E184E193E00E9405068E299F2927
:1021C0006A960FB6F894DEBF0FBECDBFDF91CF91F8
:1021D0001F910F91FF90EF90DF90CF900895CF92D5
:1021E000DF92EF92FF920F931F93CF93DF93809133
:1021F0005D0190915E01019690935E0180935D0177
:102200000E942B1090932E0380932D0300915D016B
:1022100010915E01C0911003D0911103B801012EFD
:10222000000C880B990B0E9477196B017C01BE0191
:102230000D2E000C880B990B0E94771920E030E0DE
:1022400040E05FE30E942C1A9B01AC01C701B6017C
:102250000E94271A87FD08C080915C01882321F025
:1022600010925C010E94B30B0C171D0754F10E94E1
:10227000CD0D81E080935C01809104019091050176
:10228000892B21F061E084E00E9466020E94DE0E4C
:102290000E94C60BC1E0C093DE010E94ED0980914F
:1022A000DC01833011F4C093DD0110925E011092C5
:1022B0005D0110925B0110925A0160E084E00E947F
:1022C000660281E08093DF01DF91CF911F910F9132
:1022D000FF90EF90DF90CF90089585ED8093BC0044
:1022E00080913D0290913E02A0913F02B091400248
:1022F0000796A11DB11D23E0B695A79597958795E3
:102300002A95D1F72091BC0024FD03C010923B0216
:10231000089540913D0250913E0260913F027091BC
:102320004002452B462B472B69F30097A105B105C9
:1023300041F02AE12A95F1F700C00197A109B109FE
:10234000E1CF80913C020C947E031F920F920FB656
:102350000F9211242F933F934F935F936F937F932B
:102360008F939F93AF93BF93EF93FF9385E692E094
:102370000E94A901FF91EF91BF91AF919F918F9121
:102380007F916F915F914F913F912F910F900FBE71
:102390000F901F9018951F920F920FB60F92112455
:1023A0002F938F939F93EF93FF93E0917502F0919A
:1023B00076028081E0917B02F0917C0282FD1BC05D
:1023C000908180917E028F5F8F7320917F028217B0
:1023D00041F0E0917E02F0E0EB59FD4F958F809344
:1023E0007E02FF91EF919F918F912F910F900FBEE1
:1023F0000F901F9018958081F4CF1F920F920FB607
:102400000F9211242F933F938F939F93AF93BF937A
:102410008091B5019091B601A091B701B091B8013A
:102420003091B40126E0230F2D3758F50296A11DF7
:10243000B11D2093B4018093B5019093B601A09390
:10244000B701B093B8018091B9019091BA01A09100
:10245000BB01B091BC010196A11DB11D8093B901D2
:102460009093BA01A093BB01B093BC01BF91AF910F
:102470009F918F913F912F910F900FBE0F901F90C2
:10248000189529E8230F0396A11DB11DD2CF1F92E5
:102490000F920FB60F9211242F933F934F935F9398
:1024A0006F937F938F939F93AF93BF93EF93FF931C
:1024B0008091B900887F803609F44AC0F0F58832EF
:1024C00009F4A7C018F5803109F49BC0B8F488233B
:1024D00009F4F9C0883009F494C0FF91EF91BF91DD
:1024E000AF919F918F917F916F915F914F913F91AC
:1024F0002F910F900FBE0F901F901895883109F4FF
:1025000088C0803251F78093390214C0803409F4B6
:102510009DC040F48033B9F38833F9F680933902D3
:1025200085ECB0C0803509F485C0883509F496C0C3
:10253000883499F60E946D11D0CF883909F48CC087
:1025400038F5883729F050F4883611F0803729F6AD
:1025500083E080933B021092B30157C0883809F49E
:102560007BC0803919F0803809F0B7CF8091B30172
:10257000803208F071C0E091B30181E08E0F80934A
:10258000B3018091BB00F0E0ED56FE4F80833DC06B
:10259000803B39F0E0F4803A09F479C0883A09F0D8
:1025A0009CCF84E080933B021092920110929101A3
:1025B000E091BF01F091C0010995809191018111D5
:1025C0000FC081E0809391011092710109C0803C9D
:1025D00009F4A6CF883C09F4A3CF883B09F07DCF4E
:1025E000E091920181E08E0F80939201F0E0EF582C
:1025F000FE4F80818093BB00909192018091910168
:1026000029C0809116028093BB0085EC8093BC00AA
:1026100064CF9091380280913702981758F5E09175
:10262000380281E08E0F80933802F0E0E95EFD4FC2
:102630008081E9CFE091380281E08E0F80933802EB
:102640008091BB00F0E0E95EFD4F808390913802FD
:10265000809137029817C8F285E8D8CFE091380208
:1026600081E08E0F809338028091BB00F0E0E95E3C
:10267000FD4F808380913A0281115CCF81E080938D
:10268000150284EA8093BC0010923B0226CF85ECB1
:102690008093BC0010923B028091B301803230F4F1
:1026A000E091B301F0E0ED56FE4F10826091B3016E
:1026B00070E0E091BD01F091BE0183E991E00995E0
:1026C0001092B3010ACF1092390234CF1F920F92A9
:1026D0000FB60F9211242F933F934F935F936F93F5
:1026E0007F938F939F93AF93BF93EF93FF937894D0
:1026F0008091DA019091DB018093B2008091D0014A
:102700009091D101A091D201B091D3010196A11D68
:10271000B11D8093D0019093D101A093D201B093C9
:10272000D3014091D0015091D1016091D2017091BB
:10273000D3018091D6019091D701A091D801B09199
:10274000D901481759076A077B07B0F08091CF017C
:10275000811112C081E08093CF011092D0011092BC
:10276000D1011092D2011092D301E091D401F091E5
:10277000D50109951092CF01FF91EF91BF91AF91D3
:102780009F918F917F916F915F914F913F912F9189
:102790000F900FBE0F901F9018951F920F920FB6BB
:1027A0000F9211240F900FBE0F901F901895E5E621
:1027B000F2E01382128288EE93E0A0E0B0E084831E
:1027C0009583A683B78326E131E03183208325EC0E
:1027D00030E03587248724EC30E03787268720ECEB
:1027E00030E0318B208B21EC30E0338B228B22ECDC
:1027F00030E0358B248B26EC30E0378B268B118E26
:10280000128E138E148EE2E0F3E013821282848320
:102810009583A683B78388E291E09183808380913A
:1028200061008AE391E0909313038093120384E1A3
:1028300090E0909311038093100382E390E09093D3
:102840000F0380930E030895789484B5826084BD4D
:1028500084B5816084BD85B5826085BD85B58160A4
:1028600085BD80916E00816080936E001092810022
:1028700080918100826080938100809181008160DD
:10288000809381008091800081608093800080919E
:10289000B10084608093B1008091B000816080932A
:1028A000B00080917A00846080937A0080917A00F1
:1028B000826080937A0080917A008E7F80937A0084
:1028C00080917A00806880937A001092C100E09134
:1028D0007502F0917602C2E0C083E0917102F0913E
:1028E00072021082E0917302F091740288E080839A
:1028F00010927D02E0917902F0917A0286E0808365
:10290000E0917702F0917802808180618083E0918C
:102910007702F0917802808188608083E09177026D
:10292000F0917802808180688083E0917702F09155
:10293000780280818F7D808361E084E00E94940230
:1029400061E081E10E94940261E088E00E949402CB
:1029500062E080E10E94940260E083E00E949402C1
:1029600060E085E10E94940262E087E00E949402A8
:1029700061E08FE00E94940261E089E00E9494028D
:1029800060E08EE00E94940260E084E10E94940284
:1029900061E086E00E94940261E085E00E9494027A
:1029A00060E08FE00E94660260E089E00E946602BB
:1029B00061E086E00E94660261E085E00E946602B6
:1029C00060E081E10E94660261E084E00E946602AC
:1029D00061E088E00E94660264E670E080E090E0DA
:1029E0000E9407030E94600389E291E09093C00176
:1029F0008093BF018AE291E09093BE018093BD0174
:102A0000C093B80084E190E0909311038093100389
:102A100082E390E090930F0380930E0360ED77E0E4
:102A200080E090E00E9407030E94C60B81E0809343
:102A3000410280E480936302109242021092640289
:102A400060E082E093E00E94B70582E093E00E949C
:102A5000E60562E070E080E090E00E94070341E05C
:102A600062E080E40E948F04182F1092C1018093CD
:102A7000C20162E070E080E090E00E940703D0E0D5
:102A8000C0E08091C101181731F082E093E00E940C
:102A900077052196F6CFCD2B09F446C00E94B30BE3
:102AA00064E170E080E090E00E9407030E94CD0D99
:102AB000C12CD12C7601C1E0D0E00E94B30B64E1BF
:102AC00070E080E090E00E9407030E94CD0D64E674
:102AD00070E080E090E00E9407032091C7013091F0
:102AE000C8014091C9015091CA01C701B6010E94B5
:102AF00063186B017C01BE010D2E000C880B990B35
:102B00000E9477199B01AC01C701B6010E94D4183D
:102B10006093C3017093C4018093C5019093C60173
:102B20002196CA30D10549F62FEF41E062E073E00B
:102B300082E193E00E94870780912D0390912E03FC
:102B4000892B71F08AE491E00E94E90B83E591E022
:102B50000E94E90B64EF71E080E090E00E940703BF
:102B600061E089E00E94660268EB7BE080E090E033
:102B70000E94070360E089E00E946602CAE0D0E09C
:102B800064EF71E080E090E00E9407032197C1F7B5
:102B900060E086E00E94660260E085E00E946602D6
:102BA0000E94DE0E811107C064E670E080E090E0D4
:102BB0000E940703F5CF8091EF019091F001A09161
:102BC000F101B091F2018093EB019093EC01A0939D
:102BD000ED01B093EE018091EF019091F001A09191
:102BE000F101B091F2018093E1019093E201A09391
:102BF000E301B093E40160E088E00E946602809106
:102C0000CB019091CC01A091CD01B091CE01892B47
:102C10008A2B8B2B99F48091EF019091F001A09178
:102C2000F101B091F2010596A11DB11D8093CB0178
:102C30009093CC01A093CD01B093CE016AE070E0F7
:102C400080E090E00E94070384B7877F84BF809173
:102C5000600088618093600086E0809360008091CE
:102C6000600080648093600082E00E94DE0B8091AF
:102C7000EA018093E90180E0882E80E0982EC1E08F
:102C8000D0E003E810E09FEEA92E90E1B92E412C90
:102C9000512C320143948091F3019091F401892BDE
:102CA00009F031C161E088E00E9466020E94DE0EF8
:102CB00060E088E00E9466028091EF019091F0014F
:102CC000A091F101B091F2014091EB015091EC0122
:102CD0006091ED017091EE01841B950BA60BB70B73
:102CE00081319E40A105B10520F01092050110929E
:102CF00004018091040190910501892B71F061E03C
:102D000084E00E94660261E081E10E94660263E065
:102D100070E080E090E00E94070360E084E00E94A1
:102D2000660260E081E10E94660283B7817F846071
:102D300083BF83B7816083BF83B7816083BF88957A
:102D400083B78E7F83BF83B78E7F83BF80916400FC
:102D50008071809364006091EF017091F001809127
:102D6000F1019091F201C090EB01D090EC01E09064
:102D7000ED01F090EE016C197D098E099F090E940A
:102D8000751920E030EC48EA57E40E94D4186B0132
:102D90007C0120E030E040E651E40E94271A87FDE4
:102DA0007ACF20E030E048E252E4C701B6010E9449
:102DB000CF1887FF70CF0E94B30B64E670E080E00D
:102DC00090E00E9407030E94CD0D8091EF01909149
:102DD000F001A091F101B091F2014091E101509117
:102DE000E2016091E3017091E401841B950BA60B55
:102DF000B70B8C3C9E47A105B10508F44CCF0E944F
:102E0000ED098091E001882309F445CF80E00E941C
:102E1000DE0B61E088E00E94660264E670E080E01C
:102E200090E00E9407032FEF41E062E073E082E14F
:102E300093E00E9487070E942B1090932E038093AB
:102E40002D03D093F401C093F30180910E03909170
:102E50000F03092E000CAA0BBB0B209170002E7FD4
:102E6000209370002091B0002C7F2093B00020911F
:102E7000B100277F2093B1002091B6002F7D2093D1
:102E8000B600209170002D7F209370002091B1003A
:102E900024602093B1002091B1002C7F2093B100D9
:102EA0001093DB010093DA010097A105B10511F53C
:102EB0004092D6015092D7016092D8017092D90108
:102EC000B092D501A092D4011092D0011092D101FC
:102ED0001092D2011092D3011092CF018091DA01A9
:102EE0009091DB018093B2008091700081608093AB
:102EF0007000D1CE8093D6019093D701A093D801D2
:102F0000B093D901DDCF8091F3019091F401019745
:102F100009F0CCC08091EF019091F001A091F101F6
:102F2000B091F2014091EB015091EC016091ED0103
:102F30007091EE01841B950BA60BB70B81319E405F
:102F4000A105B10520F010920501109204018091B5
:102F5000DF01882309F48CC083E591E00E94E90B2E
:102F600080911603909117030E94CB000E94430C9E
:102F700088E491E00E943A0C809118039091190323
:102F80000E94CB000E94430C88E491E00E943A0C1E
:102F900080911A0390911B030E94CB000E94430C66
:102FA00088E491E00E943A0C60912203709123031F
:102FB000072E000C880B990B0E9477192AE939E932
:102FC00049E15EE30E942C1A0E94430C88E491E0E0
:102FD0000E943A0C6091240370912503072E000C87
:102FE000880B990B0E9477192AE939E949E15EE3D8
:102FF0000E942C1A0E94430C88E491E00E943A0C33
:103000006091260370912703072E000C880B990B03
:103010000E9477192AE939E949E15EE30E942C1AF6
:103020000E94430C88E491E00E943A0C80911C03BA
:1030300090911D030E948C000E94430C88E491E053
:103040000E943A0C80911E0390911F030E948C00F5
:103050000E94430C88E491E00E943A0C8091200386
:10306000909121030E948C000E94430C1092DF017A
:103070008091DE01882321F00E943B0D1092DE0139
:103080008091DD01882309F43ECF809170008E7F0E
:103090008093700082E00E94DE0B1092F401109287
:1030A000F3011092DD011092DC012DCF8114910407
:1030B00009F4F1CD0E949501882309F4ECCD0E941A
:1030C0000000E9CD5058BB27AA270E947A180C941B
:1030D000ED190E94DF1938F00E94E61920F039F44A
:1030E0009F3F19F426F40C94DC190EF4E095E7FBED
:1030F0000C94D619E92F0E94FE1958F3BA176207EB
:1031000073078407950720F079F4A6F50C94201A2C
:103110000EF4E0950B2EBA2FA02D0B01B9019001F2
:103120000C01CA01A0011124FF27591B99F0593F36
:1031300050F4503E68F11A16F040A22F232F342F7E
:103140004427585FF3CF469537952795A795F040CC
:103150005395C9F77EF41F16BA0B620B730B840BE1
:10316000BAF09150A1F0FF0FBB1F661F771F881F99
:10317000C2F70EC0BA0F621F731F841F48F48795F1
:1031800077956795B795F7959E3F08F0B0CF9395E3
:10319000880F08F09927EE0F9795879508950E945C
:1031A000B21908F481E008950E94E8180C94ED1912
:1031B0000E94E61958F00E94DF1940F029F45F3FA1
:1031C00029F00C94D61951110C94211A0C94DC1985
:1031D0000E94FE1968F39923B1F3552391F3951BCF
:1031E000550BBB27AA2762177307840738F09F5F28
:1031F0005F4F220F331F441FAA1FA9F335D00E2E95
:103200003AF0E0E832D091505040E695001CCAF701
:103210002BD0FE2F29D0660F771F881FBB1F2617C4
:1032200037074807AB07B0E809F0BB0B802DBF019B
:10323000FF2793585F4F3AF09E3F510578F00C946A
:10324000D6190C94211A5F3FE4F3983ED4F3869587
:1032500077956795B795F7959F5FC9F7880F911D8B
:103260009695879597F90895E1E0660F771F881F77
:10327000BB1F621773078407BA0720F0621B730B2A
:10328000840BBA0BEE1F88F7E09508950E94061A8A
:1032900088F09F5798F0B92F9927B751B0F0E1F017
:1032A000660F771F881F991F1AF0BA95C9F714C0C7
:1032B000B13091F00E94201AB1E008950C94201AC8
:1032C000672F782F8827B85F39F0B93FCCF3869500
:1032D00077956795B395D9F73EF49095809570955D
:1032E00061957F4F8F4F9F4F0895E89409C097FBDA
:1032F0003EF490958095709561957F4F8F4F9F4FCD
:103300009923A9F0F92F96E9BB279395F695879510
:1033100077956795B795F111F8CFFAF4BB0F11F4D3
:1033200060FF1BC06F5F7F4F8F4F9F4F16C088237A
:1033300011F096E911C0772321F09EE8872F762FB0
:1033400005C0662371F096E8862F70E060E02AF0F1
:103350009A95660F771F881FDAF7880F96958795DD
:1033600097F90895990F0008550FAA0BE0E8FEEFB2
:1033700016161706E807F907C0F012161306E40739
:10338000F50798F0621B730B840B950B39F40A2632
:1033900061F0232B242B252B21F408950A2609F410
:1033A000A140A6958FEF811D811D089597F99F6714
:1033B00080E870E060E008959FEF80EC08950024BD
:1033C0000A941616170618060906089500240A948A
:1033D00012161306140605060895092E0394000C10
:1033E00011F4882352F0BB0F40F4BF2B11F460FF9F
:1033F00004C06F5F7F4F8F4F9F4F089557FD9058C8
:10340000440F551F59F05F3F71F04795880F97FBA8
:10341000991F61F09F3F79F0879508951216130662
:103420001406551FF2CF4695F1DF08C01616170691
:103430001806991FF1CF86957105610508940895C6
:10344000E894BB2766277727CB0197F908950E9458
:10345000B21908F48FEF08950E943F1A0C94ED19E9
:103460000E94DF1938F00E94E61920F0952311F030
:103470000C94D6190C94DC1911240C94211A0E9476
:10348000FE1970F3959FC1F3950F50E0551F629F91
:10349000F001729FBB27F00DB11D639FAA27F00DAD
:1034A000B11DAA1F649F6627B00DA11D661F829FD4
:1034B0002227B00DA11D621F739FB00DA11D621FB9
:1034C000839FA00D611D221F749F3327A00D611DD6
:1034D000231F849F600D211D822F762F6A2F1124B8
:1034E0009F5750409AF0F1F088234AF0EE0FFF1FEB
:1034F000BB1F661F771F881F91505040A9F79E3F42
:10350000510580F00C94D6190C94211A5F3FE4F316
:10351000983ED4F3869577956795B795F795E79597
:103520009F5FC1F7FE2B880F911D9695879597F9A0
:1035300008950E94B219880B990B0895DB018F93AF
:103540009F930E94DF1ABF91AF91A29F800D911DA2
:10355000A39F900DB29F900D11240895A1E21A2E01
:10356000AA1BBB1BFD010DC0AA1FBB1FEE1FFF1F27
:10357000A217B307E407F50720F0A21BB30BE40B77
:10358000F50B661F771F881F991F1A9469F76095BE
:103590007095809590959B01AC01BD01CF01089578
:1035A000A29FB001B39FC001A39F700D811D112484
:1035B000911DB29F700D811D1124911D08950E94CF
:1035C000D01AA59F900DB49F900DA49F800D911DC2
:1035D00011240895EE0FFF1F0590F491E02D09943A
:0435E000F894FFCF8D
:1035E4001101011101001F1C1F1E1F1E1F1F1E1F82
:1035F4001E1F00000000CB012B0158011D02890190
:1036040067017B0100000000B7058A05E90567052D
:103614002201770568050000000087076E616E00CF
:10362400696E66006F7666002C0049434D20666122
:06363400696C000D0A00A4
:00000001FF
