:100000000C9468000C94941A0C946D1A0C94900043
:100010000C9490000C9490000C948C090C9490001B
:100020000C9490000C94B0100C9490000C949000E0
:100030000C9490000C9490000C9490000C94900000
:100040000C9448230C9490000C94471B0C94211B97
:100050000C9490000C9490000C9490000C949000E0
:100060000C94791B0C9490006364696E6F707375C7
:1000700078585B0000000000240027002A000000E0
:100080000000250028002B000000000023002600AF
:10009000290004040404040404040202020202020B
:1000A000030303030303010204081020408001023C
:1000B00004081020010204081020000000080002BB
:1000C00001000003040700000000000000001C2ED7
:1000D00011241FBECFEFD8E0DEBFCDBF12E0A0E0FD
:1000E000B1E0EAE6F1E702C005900D92AA38B10747
:1000F000D9F726E0AAE8B2E001C01D92AB3EB207F4
:10010000E1F710E0C8E6D0E004C02197FE010E94AC
:100110007432C736D107C9F70E9492230C94B338C2
:100120000C940000E09116014091170120911801F4
:1001300030E02C5E3F4F322F2227330FF0E24F9FEB
:10014000A00111244E2B242B352BFC01318320835D
:100150002091B7024091B8028091150190E0982F4C
:100160008827990F990F990FF0E24F9FA001112452
:10017000842B952B30E035952795822B932BFB0113
:10018000918380830895FC01848583FF0DC084A141
:1001900095A1A6A1B7A1448D558D668D778D841B41
:1001A000950BA60BB70B03C080E090E0DC01811536
:1001B00020E89207A105B10520F08FEF9FE7A0E0AE
:1001C000B0E00895089580E090E0089560918A027B
:1001D00081E0682760938A028091A602882319F043
:1001E00081E10E948C2280918D0290918E02019675
:1001F00090938E0280938D0208950C960C942E1E7F
:10020000CF93DF931F92CDB7DEB7698341E050E013
:10021000BE016F5F7F4F0C960E942E1E0F90DF91E4
:10022000CF910895CF93DF93FC012381222361F0C6
:10023000EC010180F281E02D61E082810E948C223C
:100240008FEF0E9441111B82DF91CF910895EF92B1
:10025000FF921F93CF93DF9300D000D0CDB7DEB7CE
:100260007C01162F29833A834B835C83FC018381B5
:10027000811103C0C7010E942D110E943A1D812FD8
:1002800080640E9441118C810E9441118B810E94E7
:1002900041118A810E94411189810E9441111123DB
:1002A00011F087E801C085E90E9441111C3011F46A
:1002B0000E94461110E00E944611F701848387FFD7
:1002C00004C01F3F11F01F5FF6CF0F900F900F90EB
:1002D0000F90DF91CF911F91FF90EF9008952FB76E
:1002E000F8948091E0069091E106A091E206B09129
:1002F000E3062FBF0895EF92FF920F931F93CF93C2
:10030000DF93EC0189018D81833039F089E0440F5E
:10031000551F661F771F8A95D1F79A01AB0161E1DE
:10032000CE010E942701882319F080E3888338C01A
:100330000E946F017C010E9446118C838F3F49F41B
:100340000E946F018E199F098D329140A0F384E5C0
:1003500003C08E3F31F080E58883CE010E941201F8
:100360001FC08FEF8EBDF801D801A150BE4F9FEF87
:100370000DB407FEFDCF8EB59EBD8193AE17BF07AE
:10038000B9F70DB407FEFDCF8EB58C931C820E9489
:1003900046110E944611CE010E94120181E004C064
:1003A000CE010E94120180E0DF91CF911F910F9149
:1003B000FF90EF900895EF92FF921F93CF93DF93FA
:1003C000FC01208120FF32C0EC017C01F7E0EF0E40
:1003D000F11C4B815C816D817E81E981FA819701FD
:1003E000808191810E944D11182F811102C010E06F
:1003F0001EC0888181FD04C088818E7F888317C0DC
:10040000E981FA814B815C816D817E81848595854E
:10041000A685B785480F591F6A1F7B1F97018081EA
:1004200091810E944D118111E7CFE1CF11E0812F21
:10043000DF91CF911F91FF90EF900895CF92DF92BF
:10044000EF92FF921F93CF93DF93EC016A017B0140
:10045000122F8B819C81AD81BE8184179507A607E1
:10046000B707F1F0CE010E94DB01811103C080E0EB
:1004700090E01CC012FF06C01882CB82DC82ED82A5
:10048000FE820EC0E981FA819E01295F3F4FB701CC
:10049000A601808191810E947B018111EDCFE7CF80
:1004A00013708881182B1883CE010796DF91CF91A6
:1004B0001F91FF90EF90DF90CF9008958F929F92C1
:1004C000AF92BF92CF92DF92EF92FF920F931F9362
:1004D0006A017B0148015901FC012581203251F557
:1004E000448955896689778997018601E7E03695C1
:1004F000279517950795EA95D1F7400F511F621F71
:10050000731F23E080960E941E02009711F480E082
:100510002DC0E894C7F8DD24EE24FF24CC0CDD1CAC
:10052000CC0CDD1CFC01EC0DFD1D80829182A282B1
:10053000B3821BC0203159F7FC0144895589668973
:1005400077894D0D511D611D711D23E080960E941C
:100550001E020097E1F2DD24EE24FF24CC0CDD1C0A
:10056000FC01EC0DFD1D9182808281E01F910F91B5
:10057000FF90EF90DF90CF90BF90AF909F908F90C3
:100580000895CF92DF92EF92FF920F931F93CF9334
:10059000DF93EC016A017B0189018D81803251F585
:1005A0008C899D89AE89BF89E7E0769567955795D7
:1005B0004795EA95D1F7480F591F6A1F7B1F22E024
:1005C000CE0180960E941E02009711F48FEF40C06A
:1005D000E894C7F8DD24EE24FF24CC0CDD1CCC0C01
:1005E000DD1CFC01EC0DFD1D80819181A281B38198
:1005F000BF701DC0803151F74C895D896E897F893C
:100600004D0D511D611D711D22E0CE0180960E948D
:100610001E020097D9F2DD24EE24FF24CC0CDD1C51
:10062000FC01EC0DFD1D80819181A0E0B0E0488DC2
:10063000598D6A8D7B8D481759076A077B0738F0FB
:10064000F80180839183A283B38381E001C080E0BD
:10065000DF91CF911F910F91FF90EF90DF90CF909E
:1006600008956115710579F0FB0101900020E9F70B
:100670003197AF01461B570BDC01ED91FC910280D5
:10068000F381E02D099480E090E008950F931F938B
:10069000CF93DF93FC012081211102C081E058C07B
:1006A000EC01828187FF4BC044895589668977892F
:1006B0008681978121E080960E941E02009729F48E
:1006C00089818160898380E043C00C811D810F7026
:1006D000112725E0000F111F2A95E1F7080F191FB8
:1006E0000115110569F3F8018081853E49F3888180
:1006F00083FF08C0888D998DAA8DBB8D848F958FBF
:10070000A68FB78F8C8D9D8DAE8DBF8DF801938F89
:10071000828FB58BA48BE0918C03F0918D03309781
:1007200059F0B8016A5E7F4FC80148960995F801F3
:10073000808D918D938B828B8A818F778A838E8136
:100740009F8180960E94DB01882309F4B9CFA6CF50
:10075000DF91CF911F910F9108950C960C94460351
:100760004F925F926F927F928F929F92AF92BF92C1
:10077000CF92DF92EF92FF920F931F93CF93DF936D
:10078000EC014A015B014C845D846E847F84A88106
:10079000AA2309F491C0488959896A897B89481537
:1007A00059056A057B0509F48DC081149104A104E3
:1007B000B10429F41C861D861E861F8678C0A3FFFF
:1007C0000BC0088D198D2A8D3B8D081519052A053A
:1007D0003B0508F471C014C0A5FF12C0EE81FF8173
:1007E0008681978125E0880F991F2A95E1F7A0E07F
:1007F000B0E088159905AA05BB0508F45DC057C08F
:10080000EE81FF81848190E009968A019B0101506D
:10081000110921093109082E04C03695279517952D
:1008200007950A94D2F775016401B1E0CB1AD1089B
:10083000E108F10804C0F694E794D794C7948A9528
:10084000D2F7C016D106E206F30620F0452B462B60
:10085000472B99F4A6FF05C0848D958DA68DB78D85
:1008600004C08C8D9D8DAE8DBF8D8C879D87AE878E
:10087000BF878E01045F1F4F15C0C01AD10AE20A5C
:10088000F30AF7CF4C855D856E857F8598018E8153
:100890009F810E94C10291E0C91AD108E108F108C4
:1008A000181654F4C114D104E104F10459F7888AEC
:1008B000998AAA8ABB8A06C04C865D866E867F8628
:1008C00080E001C081E0DF91CF911F910F91FF90F7
:1008D000EF90DF90CF90BF90AF909F908F907F90E0
:1008E0006F905F904F900895FF920F931F93CF9357
:1008F000DF931F92CDB7DEB78C01FC01808991890F
:10090000A289B3899C01AD0175E05695479537954D
:1009100027957A95D1F7F22FFF70FF2E11F0611114
:1009200014C0BE016F5F7F4FC8010E94501D81300F
:1009300019F080E090E01AC0F80180899189A289BD
:10094000B3894F96A11DB11D04C08096A11DB11D94
:10095000F801808B918BA28BB38BF80186819781F4
:100960008796F0E2FF9E800D911D11240F90DF917C
:10097000CF911F910F91FF900895FC01808181110B
:1009800014C080E2DF01982F1D929A95E9F77783D2
:100990006683DB0115969C91903119F0903229F411
:1009A00080E4808381E08283089580E00895CF937E
:1009B000DF93EC010E9446031882DF91CF910895E6
:1009C0003F924F925F926F927F928F929F92AF92DF
:1009D000BF92CF92DF92EF92FF920F931F93CF932C
:1009E000DF93CDB7DEB728970FB6F894DEBF0FBE02
:1009F000CDBF4C01DC0112968C9112978068129643
:100A00008C9312971C964D905D906D907C901F97E3
:100A10001696AD90BC90179741145104610471046F
:100A200061F4D50118968D919D910D90BC91A02DEA
:100A30008D839E83AF83B88704C04D825E826F82B0
:100A40007886CD80DE80EF80F884BFEFCB1ADB0A9A
:100A5000EB0AFB0AF501808D918DA28DB38D8C156B
:100A60009D05AE05BF0528F482E0C82ED12CE12CEF
:100A7000F12C9E012F5F3F4FB701A601C5010E94D7
:100A8000C10287FD20C0882341F089819A81AB8112
:100A9000BC81892B8A2B8B2B51F08D819E81AF815C
:100AA000B885C816D906EA06FB0679F60CC00FEF22
:100AB0001FEF2FEF3FE0B701A601C5010E945E02C4
:100AC000382E811102C0312C1BC041145104610425
:100AD000710451F097018601B301A201C5010E9482
:100AE0005E02811108C0EFCFD5011896CD92DD923C
:100AF000ED92FC921B97F401C486D586E686F786B4
:100B0000832D28960FB6F894DEBF0FBECDBFDF91C0
:100B1000CF911F910F91FF90EF90DF90CF90BF90FA
:100B2000AF909F908F907F906F905F904F903F908D
:100B300008958F929F92AF92BF92CF92DF92EF92E1
:100B4000FF921F93CF93DF936091B9027091BA0225
:100B50008091BB029091BC0220919E0230919F0235
:100B60004091A0025091A1020E948931181684F48C
:100B70008091B9029091BA02A091BB02B091BC02DF
:100B800080939E0290939F02A093A002B093A10233
:100B900080919D02823031F56091B9027091BA0264
:100BA0008091BB029091BC0220910301309104011D
:100BB00040910501509106010E94313087FF12C01B
:100BC0008091B9029091BA02A091BB02B091BC028F
:100BD00080939E0290939F02A093A002B093A102E3
:100BE00010929D0280919C028111CAC06091B9024D
:100BF0007091BA028091BB029091BC02C090BE027B
:100C0000D090BF02E090C002F090C10280909802A4
:100C100090909902A0909A02B0909B02C1E020911E
:100C20000F013091100140911101509112010E9469
:100C3000893118160CF0C0E081E090919D0291116D
:100C400080E08C23D1F0C701B601681979098A09BF
:100C50009B092CE330E040E050E00E943832809164
:100C6000130190911401A0E0B0E082179307A4074C
:100C7000B50718F481E080939D02C1E080919D0248
:100C8000813009F0C0E0C0909E02D0909F02E090B9
:100C9000A002F090A1022091B9023091BA024091D5
:100CA000BB025091BC0210919702C701B6010E948D
:100CB000C42FD1E020910701309108014091090132
:100CC00050910A010E94893118160CF0D0E081E0A1
:100CD0002091010130910201121613060CF080E000
:100CE0008C238D23181758F461E086E00E948C2233
:100CF00061E089E00E948C2281E08093970220913C
:100D0000B9023091BA024091BB025091BC02C701B6
:100D1000B6010E94C42F20910B0130910C0140912B
:100D20000D0150910E010E94893118160CF08AC0F5
:100D300081E02091010130910201121613060CF09E
:100D400080E0C82309F47EC0C1E0C0939C0261E04A
:100D500085E00E948C22C09396028091BE02909101
:100D6000BF02A091C002B091C102809398029093FB
:100D70009902A0939A02B0939B0282E080939D0215
:100D80008091980290919902A0919A02B0919B0251
:100D90004091BE025091BF026091C0027091C102A9
:100DA00020919C022130B9F40A96A11DB11D84172F
:100DB0009507A607B70778F484E10E94F722883CDC
:100DC00091054CF460E085E00E948C22109296021E
:100DD00082E080939C0280919C02823009F043C0A3
:100DE0008091BE029091BF02A091C002B091C10259
:100DF000C0909802D0909902E0909A02F0909B02E5
:100E0000BC01CD016C197D098E099F092CE330E0EE
:100E100040E050E00E94383280910001281718F11C
:100E200060E089E00E948C228EE00E946322892B80
:100E3000D1F460E086E00E948C221092970210921A
:100E40009C0211C08091980290919902A0919A02FF
:100E5000B0919B028091BE029091BF02A091C0020E
:100E6000B091C102B8CFDF91CF911F91FF90EF9069
:100E7000DF90CF90BF90AF909F908F9008953F925A
:100E80004F925F926F927F928F929F92AF92BF929A
:100E9000CF92DF92EF92FF920F931F93CF93DF9346
:100EA000CDB7DEB760970FB6F894DEBF0FBECDBFEB
:100EB000162F342EC22EDE2C9CE0ECE3F1E09E01D6
:100EC0002F5F3F4F7901D90101900D929A95E1F77B
:100ED000282F30E0225E3F4FA901330F660B770BBE
:100EE0002A013B0192E075946794579447949A9530
:100EF000D1F7837011F4133020F4812C912C54011C
:100F000007C080E8882E81E5982EAA24A394B12CEE
:100F10009A01AB01241935094609570960E873E3C2
:100F200081EE91E00E9400326D877E878F87988BDB
:100F3000A301920160E075E882EE91E00E94003228
:100F40004D845E846F847888460E571E681E791E15
:100F5000480C591C6A1C7B1C5701E12FF0E03197AB
:100F6000C5018E199F098E179F0784F4D5018D91B5
:100F70005D01A82FB0E020E831E541E050E00E949B
:100F80006932460E571E681E791EEACF202F30E0C8
:100F9000ACE3B0E00E945A324B015C018D0C911C15
:100FA000A11CB11C2C2D30E0A0E1BEE00E945A3201
:100FB000860E971EA81EB91EA32DB0E020E831E5CD
:100FC00041E050E00E946932DC01CB01880D991D9F
:100FD000AA1DBB1DBC01CD01640D751D861D971D8D
:100FE00060960FB6F894DEBF0FBECDBFDF91CF91F4
:100FF0001F910F91FF90EF90DF90CF90BF90AF9037
:101000009F908F907F906F905F904F903F9008954A
:10101000CF92DF92EF92FF920F931F93CF93DF93C4
:10102000CDB7DEB727970FB6F894DEBF0FBECDBFA2
:1010300081E08093AA0288E68093A9021092A80218
:101040001092A70280E090E00E94D62060E08BE240
:1010500094E00E94A71C40E067E088E60E946018C8
:101060001092E5068093E406CE0101967C018C0186
:101070006801CE18DF089091E4068091E506981784
:1010800041F08BE294E00E94F319F80181938F0103
:10109000EFCF8BE294E00E94021DF7E0CF16D1045F
:1010A00009F06CC08981982F9695969596959E71BA
:1010B000292F220F220F920F8F70890F8093B70272
:1010C0008A81982F9695969596959E71292F220F35
:1010D000220F920F8F70890F8093B8028B81982F07
:1010E0009695969596959670292F220F220F920F1E
:1010F0008F70890F809315018D81982F9695969505
:1011000096959E71292F220F220F920F8F70890FB3
:10111000809316018E81982F9695969596959E713F
:10112000292F220F220F920F8F70890F80931701A2
:101130008F81982F9695969596959E71292F220FBF
:10114000220F920F8F70890F80931801E090B702E1
:101150000091B8022091150140911601609117018C
:10116000809118010E943F076093BE027093BF02F6
:101170008093C0029093C10281E001C080E0279675
:101180000FB6F894DEBF0FBECDBFDF91CF911F9198
:101190000F91FF90EF90DF90CF900895CF92DF9264
:1011A000EF92FF920F931F93CF93DF9300D000D065
:1011B0001F92CDB7DEB765E070E080E490E00E945A
:1011C0003C228E010F5F1F4F9091E4068091E5064F
:1011D000981741F08BE294E00E94F319F801819393
:1011E0008F01F2CF6A817B8176276727762780E09F
:1011F00090E00E94D73020E030E040E856E40E94C2
:10120000C42F20E030E048E453E40E948E3120E017
:1012100030E040E058E30E948E3120E030E0A90148
:101220000E94C52F20E030E04AE754E40E948E314E
:101230006B017C012091AB023091AC024091AD0278
:101240005091AE020E94C42F26E031EC4EED52E4E4
:101250000E9436306093B9027093BA028093BB0249
:101260009093BC026C817D8176276727762784E086
:10127000769567958A95E1F76851710980E090E06D
:101280000E94D7302DEC3CEC4CE45DE30E948E31A3
:1012900020E030E048E452E40E94C42F60939202C0
:1012A000709393028093940290939502C092AF0240
:1012B000D092B002E092B102F092B2020F900F9081
:1012C0000F900F900F90DF91CF911F910F91FF9092
:1012D000EF90DF90CF90089581E08093AA0280E4A0
:1012E0008093A9021092A8021092A7028CEA90E0C3
:1012F0000E94D6208BE294E00C94021D84B7877F75
:1013000084BFE0E6F0E080818861808386E08083AE
:1013100080818064808308951F920F920FB60F9290
:1013200011240F900FBE0F901F90189585E10E9419
:10133000F722BC01990F880B990B0E94D93027E244
:1013400030EA49E85BE30E948E316093B302709308
:10135000B4028093B5029093B60208958F929F9243
:10136000AF92BF92CF92DF92EF92FF920F931F93B3
:10137000CF93DF93CDB7DEB76A970FB6F894DEBF91
:101380000FBECDBF809190029091910201969093F3
:101390009102809390028BEB96E0892B09F4B8C000
:1013A00060E089EB96E00E94051D6C0107E110E00A
:1013B00020E030E0AE014F5F5F4F6DE289EB96E0D9
:1013C0000E941F1DC82AD92A89819A8198278927B6
:1013D00098279093BC068093BB068B819C819827AD
:1013E000892798279093BE068093BD068D819E81A4
:1013F0009827892798279093C0068093BF068F81EE
:1014000098859827892798279093C2068093C106CC
:1014100089859A859827892798279093C406809371
:10142000C3068B859C859827892798279093C606A5
:101430008093C5068D859E85982789279827909348
:10144000CE068093CD068F858093D00688899989B2
:101450009093C8068093C7068A899B899093CA0691
:101460008093C9068C899D899093CC068093CB0686
:101470008F898093D10662E089EB96E00E94051D7A
:10148000C82AD92A01E010E020E030E0AE01465E33
:101490005F4F64E189EB96E00E941F1DC82AD92A9C
:1014A0009A8D9695292F23709091CF069C7F922B31
:1014B0009093CF0662E089EB96E00E94051DC82A52
:1014C000D92A01E010E020E030E0AE01475E5F4F36
:1014D00061E089EB96E00E941F1DC82AD92A998DE8
:1014E000990F292F2C709091CF06937F922B909378
:1014F000CF0601E010E020E030E0AE01485E5F4F33
:1015000065E189EB96E00E941F1D8C299D2902C090
:1015100083E090E00FB6F894DEBF0FBECDBF90938E
:10152000D3068093D2068091BB069091BC060E94A0
:10153000B415AB01BC018BE394E00E94DB2060EBAF
:1015400071E08BE394E00E941F1B8091BD06909197
:10155000BE060E94B415AB01BC018BE394E00E946F
:10156000DB2060EB71E08BE394E00E941F1B809115
:10157000BF069091C0060E94B415AB01BC018BE37D
:1015800094E00E94DB2060EB71E08BE394E00E942A
:101590001F1B6091C7067091C806072E000C880BB0
:1015A000990B0E94D9302AE939E949E15EE30E94AA
:1015B0008E31AB01BC018BE394E00E94DB2060EB39
:1015C00071E08BE394E00E941F1B6091C90670914B
:1015D000CA06072E000C880B990B0E94D9302AE905
:1015E00039E949E15EE30E948E31AB01BC018BE336
:1015F00094E00E94DB2060EB71E08BE394E00E94BA
:101600001F1B6091CB067091CC06072E000C880B37
:10161000990B0E94D9302AE939E949E15EE30E9439
:101620008E31AB01BC018BE394E00E94DB2060EBC8
:1016300071E08BE394E00E941F1B8091C1069091A2
:10164000C2060E94AF21AB01BC018BE394E00E9473
:10165000DB2060EB71E08BE394E00E941F1B809124
:10166000C3069091C4060E94AF21AB01BC018BE37D
:1016700094E00E94DB2060EB71E08BE394E00E9439
:101680001F1B8091C5069091C6060E94AF21AB0139
:10169000BC018BE394E00E94DB20E0909002F0908C
:1016A0009102B7010F2C000C880B990B0E94D930C6
:1016B0004B015C016091390470913A04072E000CD3
:1016C000880B990B0E94D93020E030E040E05FE3C6
:1016D0000E948E319B01AC01C501B4010E94893189
:1016E00087FD0CC080918F02882341F010928F02F9
:1016F0008091BD02811102C00E946C098091390461
:1017000090913A04E816F9060CF404C18091BD02E8
:10171000811102C00E94CE0881E080938F028091E7
:10172000360190913701892B21F061E084E00E941D
:101730008C220E9408080E9496096CE28BE394E0D8
:101740000E94181B609118014AE050E08BE394E07E
:101750000E94081B6DE28BE394E00E94181B8091AD
:1017600017018A3028F460E38BE394E00E94181B91
:10177000609117014AE050E08BE394E00E94081B5F
:101780006DE28BE394E00E94181B809116018A3071
:1017900028F460E38BE394E00E94181B609116012B
:1017A0004AE050E08BE394E00E94081B64E58BE381
:1017B00094E00E94181B809115018A3028F460E3A0
:1017C0008BE394E00E94181B609115014AE050E001
:1017D0008BE394E00E94081B6AE38BE394E00E9491
:1017E000181B8091B8028A3028F460E38BE394E000
:1017F0000E94181B6091B8024AE050E08BE394E02D
:101800000E94081B6AE38BE394E00E94181B8091FE
:10181000B7028A3028F460E38BE394E00E94181B3F
:101820006091B7024AE050E08BE394E00E94081B0D
:1018300060EB71E08BE394E00E941F1B4091AF02CC
:101840005091B0026091B1027091B2028BE394E0CA
:101850000E94DB206CE28BE394E00E94181B409115
:10186000B9025091BA026091BB027091BC028BE345
:1018700094E00E94DB206CE28BE394E00E94181B52
:10188000409192025091930260919402709195025E
:101890008BE394E00E94DB206CE28BE394E00E94F7
:1018A000181B4091B3025091B4026091B50270913F
:1018B000B6028BE394E00E94DB206CE28BE394E0C1
:1018C0000E94181B8091970290E00E94F1156CE233
:1018D0008BE394E00E94181B8091960290E00E9496
:1018E000F1156CE28BE394E00E94181B80918D024D
:1018F00090918E020E94F1150E949905109291021A
:101900001092900210928E0210928D0260E084E09C
:101910000E948C228BE394E00E94041B6A960FB60F
:10192000F894DEBF0FBECDBFDF91CF911F910F9115
:10193000FF90EF90DF90CF90BF90AF909F908F90EF
:101940000895EF92FF920F931F93CF93DF93CDB73C
:10195000DEB7C856D1090FB6F894DEBF0FBECDBFB3
:101960005091B7024091B8023091150120911601B3
:1019700090911701809118011F925F931F924F93CE
:101980001F923F931F922F931F929F931F928F93AB
:1019900082EB91E09F938F938E010F5F1F4F1F93F8
:1019A0000F930E949532CE01CD960E94971F8DE332
:1019B000E82EF12CEC0EFD1E8CE0E80EF11C46E446
:1019C000B801C7010E944916BE01635C7F4F8BE3DB
:1019D00094E00E9425160FB6F894DEBF0FBECDBF6F
:1019E00080914704811124C061E081E10E948C2232
:1019F00080918B0290918C02019690938C0280933F
:101A00008B02CE01CD960E94971F42ECB801C70110
:101A10000E944916BE01635C7F4F8BE394E00E94F5
:101A2000251664E670E080E090E00E940E23D8CF97
:101A300060E081E10E948C2260ED71E08BE394E034
:101A40000E941F1B66E272E08BE394E00E941F1B62
:101A50008BE394E00E94041B82E990E090938D0355
:101A600080938C03C859DF4F0FB6F894DEBF0FBECA
:101A7000CDBFDF91CF911F910F91FF90EF9008950F
:101A8000CF93DF931F92CDB7DEB7BE016F5F7F4F5D
:101A90000E94501D019719F4898190E002C08FEFD8
:101AA0009FEF0F90DF91CF9108950C960C94400D0D
:101AB0008F929F92AF92BF92CF92DF92EF92FF925E
:101AC000CF93DF93EC018C8C9D8CAE8CBF8CC88C3B
:101AD000D98CEA8CFB8C0C960E94400D97FD08C0B7
:101AE0008C8E9D8EAE8EBF8EC88ED98EEA8EFB8E6A
:101AF000DF91CF91FF90EF90DF90CF90BF90AF90AC
:101B00009F908F9008959F92AF92BF92CF92DF9255
:101B1000EF92FF920F931F93CF93DF93011511055F
:101B200009F44BC0F801C58DD68D209709F445C046
:101B300069017A015B01682F178D81E08093AA0209
:101B40001093A9021092A8021092A702E881F981CD
:101B50000190F081E02DCE01099560E0CE010E9458
:101B6000A71C6C2D613208F060E241E0812F0E94D9
:101B700060181092E5068093E40690E0A0E0B0E0E3
:101B8000C816D906EA06FB06D9F4912C892D90E0F7
:101B9000A0E0B0E08C159D05AE05BF05A0F4850161
:101BA000090D111DE881F9810284F385E02DCE0134
:101BB0000995F80180839394E9CF83E090E005C014
:101BC00086E090E002C080E090E0DF91CF911F912D
:101BD0000F91FF90EF90DF90CF90BF90AF909F90CC
:101BE00008958F929F92AF92BF92EF92FF920F93C0
:101BF0001F93CF93DF930115110549F1F801C58DAE
:101C0000D68D209721F149015A017B01682F878DDC
:101C100091E09093AA028093A9021092A8021092D8
:101C2000A702E881F9810190F081E02DCE010995AC
:101C3000E881F9810280F381E02DA401B701CE0192
:101C40000995CE010E94021D80E090E002C083E071
:101C500090E0DF91CF911F910F91FF90EF90BF9097
:101C6000AF909F908F9008958F929F92AF92BF9266
:101C7000CF92DF92EF92FF920F931F93CF93DF9358
:101C800000D000D0CDB7DEB76C01822FF60120A3C3
:101C9000768F658F41A3411102C098E602C099E694
:101CA000F601978F8F3F19F061E00E94BB22F60189
:101CB00080A18F3F19F061A10E948C2281EF9DE0ED
:101CC000F60193A382A383E89DE095A384A3D7A202
:101CD000C6A2C6018296938382837601F2E0EF0E5C
:101CE000F11C198260E0C7010E94051D01E010E0AF
:101CF00020E030E0AE014F5F5F4F60E0C7010E941F
:101D00001F1D009729F429812A3E11F084E090E0FC
:101D1000F601948F838F009709F00EC260E0C7012F
:101D20000E94051D01E010E020E030E0AE014F5FB1
:101D30005F4F66E0C7010E941F1D009751F4898123
:101D400080688983AE014F5F5F4F66E0C7010E94E4
:101D50004722F601948F838F009709F0EDC162E36B
:101D600070E080E090E00E940E2360E0C7010E94D6
:101D7000051D01E010E020E030E0AE014F5F5F4F55
:101D800066E0C7010E941F1D009751F489818F7B77
:101D90008983AE014F5F5F4F66E0C7010E94472213
:101DA000F601948F838F009709F0C6C160E0C701E8
:101DB0000E94051D01E010E020E030E0AE014F5F21
:101DC0005F4F66E0C7010E941F1D009751F4898193
:101DD0008F7D8983AE014F5F5F4F66E0C7010E9430
:101DE0004722F601948F838F009709F0A5C160E028
:101DF000C7010E94051D0097C1F401E010E020E03A
:101E000030E0AE014F5F5F4F65E0C7010E941F1DCC
:101E1000009759F489818F7D8F7E8983AE014F5F52
:101E20005F4F65E0C7010E944722F601948F838FC0
:101E3000009709F081C162E0C7010E94051D5C01A5
:101E400001E010E020E030E0AE014F5F5F4F64E161
:101E5000C7010E941F1DA82AB92A8981897F898309
:101E6000AE014F5F5F4F64E1C7010E944722A82A7D
:101E7000B92A62E0C7010E94051DA82AB92A01E01B
:101E800010E020E030E0AE014F5F5F4F61E0C7013E
:101E90000E941F1DA82AB92A8981897F8983AE01E2
:101EA0004F5F5F4F61E0C7010E9447228A299B294B
:101EB000F601948F838F009709F03EC162E0C7015D
:101EC0000E94051D5C0101E010E020E030E0AE0161
:101ED0004F5F5F4F64E1C7010E941F1DA82AB92A06
:101EE000898188638983AE014F5F5F4F64E1C701D9
:101EF0000E944722A82AB92A62E0C7010E94051D54
:101F0000A82AB92A01E010E020E030E0AE014F5FDE
:101F10005F4F61E0C7010E941F1DA82AB92A89816D
:101F200088638983AE014F5F5F4F61E0C7010E9404
:101F300047228A299B29F601948F838F009709F005
:101F4000FBC061E070E0C7010E948A2EF601948F09
:101F5000838F009709F0F0C062E070E0C7010E9433
:101F60008A2EF601948F838F009709F0E5C060E018
:101F7000C7010E94051D009719F4C7010E949C2FFC
:101F8000F601838F948F60E0C7010E94051D0097C2
:101F900009F043C0C7010E949C2F0097F1F563E050
:101FA000C7010E94051D0097C1F501E010E020E087
:101FB00030E0AE014E5F5F4F61E0C7010E941F1D20
:101FC000009759F58A81807F876080618A83AE019E
:101FD0004E5F5F4F61E0C7010E9447220097E9F41E
:101FE00060E0C7010E94051D0097B9F401E010E010
:101FF00020E030E0AE014F5F5F4F63E0C7010E9419
:102000001F1D009751F4898180628983AE014F5F63
:102010005F4F63E0C7010E944722F601948F838FD0
:10202000B12C84E0882E912C21E0AE014F5F5F4FF0
:1020300060E0C7010E94EB2EF601948F838F198117
:1020400021E0AE014F5F5F4F61E0C7010E94EB2EC0
:102050008981F601148E138E183411F4893051F1F0
:10206000F601948E838E60E0C7010E94051D0097E3
:10207000B9F401E010E020E030E0AE014F5F5F4FC7
:1020800063E0C7010E941F1D009751F4898182609F
:102090008983AE014F5F5F4F63E0C7010E94472213
:1020A000F601838F948FB394F5E0BF12BDCF84E027
:1020B00090E03AC088E08C8320E0AE014C5F5F4F37
:1020C00061E3C7010E94EB2EF601948F838F009786
:1020D00071F563E0C7010E94051D009729F58B810A
:1020E00080788C6080688B83AE014D5F5F4F63E0CA
:1020F000C7010E9447220097B9F480E18A83AE01AC
:102100004E5F5F4F64E0C7010E944722009761F471
:102110008981807489688F7B8983AE014F5F5F4FAF
:1021200065E0C7010E944722F601948F838F0097D4
:1021300019F4F601838D948DF601948F838F0F909F
:102140000F900F900F90DF91CF911F910F91FF9003
:10215000EF90DF90CF90BF90AF909F908F900895B9
:102160001F920F920FB60F9211242F933F934F930C
:102170005F936F937F938F939F93AF93BF93EF93EF
:10218000FF93789480912703909128038093B20065
:102190008091D6029091D702A091D802B091D90235
:1021A0000196A11DB11D8093D6029093D702A093F2
:1021B000D802B093D9024091D6025091D7026091D3
:1021C000D8027091D9028091230390912403A091A9
:1021D0002503B0912603481759076A077B07B0F01B
:1021E0008091D502811112C081E08093D5021092B6
:1021F000D6021092D7021092D8021092D902E09122
:102200002103F091220309951092D502FF91EF91DD
:10221000BF91AF919F918F917F916F915F914F91FE
:102220003F912F910F900FBE0F901F901895109215
:10223000D6021092D7021092D8021092D9021092B0
:10224000D50280912703909128038093B200E0E7A4
:10225000F0E08081816080830895CF93DF93EC016B
:10226000E981FA81908181819CBD8DBDE981FA81EE
:1022700060E082810E948C2281E08B83DF91CF918C
:1022800008958EBD0DB407FEFDCF08958FEF8EBD6E
:102290000DB407FEFDCF8EB508950F931F93CF9316
:1022A000DF93EC0189018D81833039F089E0440F9F
:1022B000551F661F771F8A95D1F79A01AB0168E118
:1022C000CE010E942701882311F082E32DC08EEFFA
:1022D0000E944111F80180818EBD818132961E5F7E
:1022E0000DB407FEFDCF8EBDE017F10711F081910F
:1022F000F7CF0DB407FEFDCF8FEF0E9441118FEF96
:102300000E9441110E9446118C838F71853031F0FB
:1023100086E58883CE010E94120107C00E943A1D03
:10232000182F811107C089E58883CE010E94120110
:1023300010E012C020E030E0A9016DE0CE010E9463
:102340002701811104C00E944611882311F089E2FF
:10235000EBCFCE010E941201812FDF91CF911F910F
:102360000F9108952F923F924F925F926F927F92BA
:102370008F929F92AF92BF92CF92DF92EF92FF9295
:102380000F931F93CF93DF93CDB7DEB72D970FB683
:10239000F894DEBF0FBECDBFFC018B017A01DB01DB
:1023A0008C91807709F4BCC380818111B9C3DA01B3
:1023B00011960D90BC91A02DBF83AE83DA018C9154
:1023C000837009F498C38E819F810C966DE070E054
:1023D0000E941032BB24B394B60E2D8347011F0117
:1023E00040E050E0BA01C8010E94B0031A86198685
:1023F0001886A12CC12CD12C1B86F7013696FD879F
:10240000EC87D80150964D905D906D907C905397DD
:1024100035E076946794579447943A95D1F77201D2
:1024200061E0C8010E947404009731F4F8018181D1
:10243000882309F4A2C074C3DC012C91253E11F05D
:1024400021110AC0C11002C05A864986CB1408F473
:10245000C394211105C091C0CB1408F44FC303C02D
:10246000253E09F43FC02E32E9F1FC0133853F30AF
:1024700009F057C0D11008C026FFC3CF2F71A22E7C
:10248000F585F887D22E07C0AA942A112BC025857E
:10249000B8852B1327C04A2D50E041505109EDE07B
:1024A000E49F9001E59F300D11244E815F81241738
:1024B0003507C0F4FC01F12C54E05F1518F0818160
:1024C000928108C06AE06F1518F08481958102C07E
:1024D00086819781AE81BF81A217B30729F4892B2A
:1024E00009F48FCFD12C8DCF8F3F910509F0D0F714
:1024F0004FEB480F4A3108F4805EA9014F5F5F4FF0
:10250000D40113966D917C911497260F371FD90132
:102510009C912FEB290F2A3108F4905E9813E2CF9B
:10252000EFC233FDDFCFDD20A1F0B1E0AB12F8C286
:10253000FC019C01255F3F4F90E090FB979597F938
:102540008191980FE217F307C1F7E885E913E8C214
:1025500010C04BE050E06C857D850E947F32892B56
:1025600009F04FCFD4018C9180FF03C0F1E0FB87CD
:1025700048CFBD81B7FFF6C1D3C28D81827482344A
:1025800009F0CEC2C11002C0FA86E986CB1408F069
:1025900096C060E0C8010E947404892B31F4F801F0
:1025A0008181882309F476C0BBC2C394EFCF5096D3
:1025B0008D919D910D90BC91A02D81159E4FAF41A5
:1025C000B10508F0ADC2C8010E94E004882309F4F7
:1025D000A7C2D8011696ED91FC9117971C964D90C5
:1025E0005D906D907C901F97B2E04B1A5108610886
:1025F0007108048004C0440C551C661C771C0A94A6
:10260000D2F780899189A289B389480E591E6A1E22
:102610007B1E25E0B301A201CF0180960E941E021D
:102620007C01009709F47CC2FC0120E032E01192A9
:1026300021503040E1F7DD24D394D80116960D9057
:10264000BC91A02DBD87AC8712968C911297D8169D
:1026500030F190E0A0E0B0E029E0880F991FAA1FB8
:10266000BB1F2A95D1F7F801408951896289738986
:10267000840F951FA61FB71F808B918BA28BB38BE6
:10268000AC85BD8512968C918230C8F4B0E1CB0E3A
:10269000CB14A8F4D8018C9185FF89CF41C2970152
:1026A000B301A2014D0D511D611D711D8D919C91B4
:1026B0000E944D11882309F433C2D394BECFEB8519
:1026C000EE2309F46AC0D4011596AC9082E0E82E9E
:1026D000F12C9EE7792E6401B6E0CB0ED11CF401FB
:1026E000818192819701280F391F0380F481E02DA9
:1026F0008E0F9F1F8E179F0779F0A901B5E0440F39
:10270000551FBA95E1F7240F351F4191042E000C97
:10271000550B24273527EECFF3E0FA1510F4A3E08C
:10272000AA2E94E09A0D822F8F70E92FF0E08A3064
:1027300010F4805D01C0895CE80DF91D8683F4E02A
:1027400036952795FA95E1F79150A91660F3F401B3
:10275000EA0DF11D768240E050E0BA01C8010E9406
:10276000B00361E0C8010E947404009731F4D801FD
:1027700011968C918111D4C110C0FC0120812223BB
:1027800061F0238523FDEDCF4BE050E0BC01C60195
:102790000E947F32892B29F7BBC129853A85A9017F
:1027A00060E070E0E5E0440F551F661F771FEA9573
:1027B000D1F7C8010E94B003882309F4B1C1DD2418
:1027C000DA94DB0CCD2C3D2D3064B32E3FE0A32EEC
:1027D000740141E1E40EF11C4DE0742ECC2009F4AB
:1027E00066C060E0C8010E947404FC01892B09F4F2
:1027F00097C1D80116962D913C911797D9019096C3
:102800008C919097816090968C93DC1002C06B2D18
:1028100001C06C2D6083A3861486D401169680E0D7
:1028200080FB879587F99D91890FAE15BF05C1F78C
:102830008587138E128ED40113964D915C91149757
:102840006F7170E061507109769E9001779E300D36
:10285000112460E08E819F812817390740F4DA0146
:10286000A20FB31F8C91082E000C990B0CC081E0B5
:1028700090E0AE81BF81A217B30711F480E090E031
:10288000919581959109653018F49283818307C0F1
:102890006B3018F49583848302C0978386836F5FBF
:1028A0002F5F3F4F32966D30A9F6CA9497CFF8014B
:1028B00080899189A289B38925E0B695A7959795D6
:1028C00087952A95D1F77C0160E0C8010E947404C5
:1028D0005C01892B09F424C180E2D5011D928A95FF
:1028E000E9F7F40136968BE0D50101900D928A95B7
:1028F000E1F7F40180818871D5011C968C93E091F9
:102900008C03F0918D03309739F0B501625F7F4FF2
:10291000C5014096099509C081E298E2F501918BC5
:10292000808B80E098E097878687D50150968D91BF
:102930009C91519753969C938E93529759969C9342
:102940008E9358971E968D919C911F9757969C93A6
:102950008E935697D8011696ED91FC91179780A10A
:10296000816080A380E2F10111928A95E9F7D80194
:102970001696AD90BC901797F101B782A682F582AA
:10298000E4825C968D919D910D90BC91A02D8087E5
:102990009187A287B387F701EF70FF27D50197963C
:1029A00095E0EE0FFF1F9A95E1F79D012E0F3F1F57
:1029B000D9011B968C9183FF03C0F1011082B0C036
:1029C000C5018E0F9F1FDC01D2968C918771D101BA
:1029D0008C93D9011B969C91987119F48860D10150
:1029E0008C93D1011396DC9213978D81827319F029
:1029F0008C91817111F78D818F70D10112968C931A
:102A0000D50193964D915D916D917C919697D101F1
:102A100054964D935D936D937C935797EA0DFB1DF0
:102A2000C3ACD4ACE12CF12CB601552744279F014F
:102A30002F5B3F4FD901CD90DC90E12CF12CC42AC3
:102A4000D52AE62AF72ABD81B4FF33C0C114D104C8
:102A5000E104F10409F466C09E012F5F3F4FB70106
:102A6000A601C5010E94C102982E87FDA6CF00E0F5
:102A700010E09801B701A601C5010E945E028823FB
:102A800009F49BCFF5014085518562857385C41695
:102A9000D506E606F70620F4C086D186E286F386E0
:102AA000C980DA80EB80FC809110D6CF81113AC0CA
:102AB00084CFD1015C96CD92DD92ED92FC925F972E
:102AC000ED5BFF4F80819181A281B381F101808F05
:102AD000918FA28FB38FFD81F5FF2CC0D101589645
:102AE0004D915D916D917C915B97C1010E94B00306
:102AF000811120C062CFBB24B3946FCCC12CB3CC66
:102B0000F3943296BDE0FB1609F47BCC9A01D4CC49
:102B1000EFEFEE1AFE0AF4E6EF16F10409F0DFCD4E
:102B200080E009C0D10112968C91129780681296AC
:102B30008C93D1CF81E02D960FB6F894DEBF0FBEF7
:102B4000CDBFDF91CF911F910F91FF90EF90DF905C
:102B5000CF90BF90AF909F908F907F906F905F903D
:102B60004F903F902F900895BC018091CF068370C5
:102B70008130D9F078F0823019F1833071F5072E69
:102B8000000C880B990B0E94D9302FE632E143E00C
:102B900050E420C0072E000C880B990B0E94D930FE
:102BA0002FE632E143E851E415C0072E000C880BF4
:102BB000990B0E94D9302FE632E143E051E40AC07C
:102BC000072E000C880B990B0E94D9302FE632E1BA
:102BD00043E850E40E943630089560E070E0CB0195
:102BE0000895CF92DF92EF92FF92CF93DF936C0123
:102BF000990FEE08FF08F7FE1BC06DE28BE394E02F
:102C00000E94181BEC0144275527BA014C195D0995
:102C10006E097F092AE08BE394E00E94BB1A8C0FB7
:102C20009D1FDF91CF91FF90EF90DF90CF9008959F
:102C30002AE0B701A6018BE394E0DF91CF91FF90EA
:102C4000EF90DF90CF900C94BB1ACF93DF93EB0102
:102C500020E2FB013C96DC011C9601900D922A9526
:102C6000E1F72A813B81FC01338322834C815D8122
:102C70006E817F8144835583668377834885598538
:102C80006A857B854087518762877387DF91CF9103
:102C900008952F923F924F925F926F927F928F9200
:102CA0009F92AF92BF92CF92DF92EF92FF920F93DB
:102CB0001F93CF93DF93CDB7DEB7E5970FB6F894A8
:102CC000DEBF0FBECDBF7C018B01842E19821A821C
:102CD000DC018C91811158C180918E06807709F4B6
:102CE00053C1FB0180818F32C9F48F0181918F32F2
:102CF000E1F36091940670919506811104C0C701BB
:102D00000E94BD0478C1CE0101960E94BD048823B3
:102D100009F43AC1BE016F5F7F4F02C06EE876E0F2
:102D2000FE01F296FBABEAABF8019F012F5F3F4F2C
:102D30008081803211F4F901F8CFFDA3ECA39F014B
:102D4000A9014E1B5F0B8901D9018D919D0188233B
:102D500041F18F3221F4CF01840F951F1BC08C35B8
:102D600009F412C1982F977F923209F40DC18A336A
:102D700009F40AC1982F9F7B9C3309F405C192EC9A
:102D8000980F923008F400C180528F35C8F2FCC011
:102D90002F3239F48C01DC012D91CD012032C1F7A5
:102DA000F9CFDA01AE0FBF1FAD014E1B5F0BEA1763
:102DB000FB0759F08E918E32B9F38032A9F34F3F61
:102DC000510511F00CF0E0C002C040E050E05BA300
:102DD0004AA3DE0197965D0180E2382E3D928AA9D2
:102DE0009BA9A817B907C1F79F01C9018E1B9F0BAB
:102DF000D901DD909D01BEE2DB16B9F3B0E23B2EB6
:102E0000D31499F321E02DAB009709F01DAA9A0184
:102E1000215031096F01C40ED51E2F3FAFEF3A0785
:102E200049F45EA0612CB7E07B2E312C912CA8E0F8
:102E30004A2E54C0D6019E906D01BEE29B1689F3C6
:102E400021503109EACF6F01C80ED91ED601BC91BD
:102E5000BCABB03209F472C0BE3209F044C0821774
:102E6000930709F06BC0A6EDDA2EBCA9DB0EA5E036
:102E7000AD1508F03FC0B6ECDB2EBCA9DB0EA5E01B
:102E8000AD15D8F5A5EADA2EDB0EB2E0BD15A8F532
:102E9000BFEDDB2EACA9DA0EBDE5BD1570F18217D2
:102EA000930709F4A1C07314D0F1DCA8AFE9CA2ECE
:102EB000CD0CA9E1AC1560F1BD2DB052BCAB6428BE
:102EC00022242394230C6501C30CD11C3CA8D601F9
:102ED0003C92A6E0A215A0F5322C01968417950726
:102EE0000CF4B1CF30C0ACA9A23239F0AC3709F044
:102EF000BACF03C0BD3209F4BECF8217930709F4DD
:102F000069C0731460F0AFE5DA2E1DAABFE5BCAB53
:102F1000AFEBDA0EB9E1BD1598F29428D1CFAAE053
:102F20007A1609F465C0281739070CF461C0C90185
:102F3000BAE07B2EA8E03A2EB0E14B2E1DAACDCFF1
:102F4000522C322CCACF5EA28FA18032E9F0BDA9EB
:102F5000BB2341F0862D892111F4862D01C082E02A
:102F600089A314C081E089A38EA190E0D501A80FA8
:102F7000B91F2EE72C93E8E2F0E0EC0FFD1FE80FFD
:102F8000F91F21E3208302C080E035C0D8018C9175
:102F90008823C1F021E0AE014F5D5F4FC7010E9461
:102FA000B211882389F380E2F701DE0111960190C6
:102FB0000D928A95E1F7C7010E94D704BE016F5FA9
:102FC0007F4FB2CE282DAE014F5D5F4FC7010E94EB
:102FD000B21111C0BAE07B1659F0AAE07A2EB8E01F
:102FE0003B2EA0E14A2E79CFBAE03B2E7310F5CFED
:102FF0005EA21DAAA9CFE5960FB6F894DEBF0FBE5C
:10300000CDBFDF91CF911F910F91FF90EF90DF9097
:10301000CF90BF90AF909F908F907F906F905F9078
:103020004F903F902F900895AB01BC0180917000AC
:103030008E7F809370008091B0008C7F8093B00071
:103040008091B100877F8093B1008091B6008F7D21
:103050008093B600809170008D7F80937000809186
:10306000B10084608093B1008091B1008C7F809327
:10307000B10083E890E090932803809327034115E3
:1030800051056105710569F481E090E0A0E0B0E0D0
:103090008093230390932403A0932503B0932603E6
:1030A00008C0409323035093240360932503709337
:1030B00026038EEA99E090932203809321030895DA
:1030C000909120039111FCCF91E0909320034093C5
:1030D0001F032FEF20931E0310921D03260F209332
:1030E0001C0390931B0390911B03880F892B8093E3
:1030F0001B0380911A03813061F410921A038091AE
:103100001B038093BB008091BC0083FDF8CF85EC4E
:1031100001C085EE8093BC00809120038130E1F3F3
:1031200080911D03861710F460911D03AAEFB2E091
:10313000EAEDF2E080E0861721F09D9191938F5F98
:10314000FACF08950895CF92DF92EF92FF920F93F6
:103150001F93CF93DF936C017A018B01C0E0D0E025
:10316000CE15DF0581F0D8016D918D01D601ED916D
:10317000FC910190F081E02DC6010995892B11F099
:103180002196EECF7E01C701DF91CF911F910F9164
:10319000FF90EF90DF90CF900895FC01538D448D08
:1031A000252F30E0842F90E0821B930B541710F0F2
:1031B000CF96089501970895FC01918D828D9817FF
:1031C00061F0828DDF01A80FB11D5D968C91928D0B
:1031D0009F5F9F73928F90E008958FEF9FEF089508
:1031E000FC01918D828D981731F0828DE80FF11DD1
:1031F000858D90E008958FEF9FEF0895FC01918DEC
:10320000228D892F90E0805C9F4F821B91098F73E4
:10321000992708958EE893E00E94FE1821E0892BFB
:1032200009F420E0822F0895FC01848DDF01A80FAE
:10323000B11DA35ABF4F2C91848D90E001968F73DE
:103240009927848FA689B7892C93A089B1898C91FD
:10325000837080648C93938D848D981306C002884C
:10326000F389E02D80818F7D80830895EF92FF9216
:103270000F931F93CF93DF93EC0181E0888F9B8D99
:103280008C8D981305C0E889F989808185FD26C059
:10329000F62E0B8D10E00F5F1F4F0F731127E02EDE
:1032A0008C8DE8120CC00FB607FCFACFE889F989BB
:1032B000808185FFF5CFCE010E941419F1CF8B8D4F
:1032C000FE01E80FF11DE35AFF4FF0829FB7F8941B
:1032D0000B8FEA89FB89808180620AC09FB7F894CE
:1032E000EE89FF896083E889F98980818370806431
:1032F00080839FBF81E090E0DF91CF911F910F917C
:10330000FF90EF900895CF93DF93EC01888D882391
:10331000C9F0EA89FB89808185FD05C0A889B98942
:103320008C9186FD0FC00FB607FCF5CF808185FF1D
:10333000F2CFA889B9898C9185FFEDCFCE010E948B
:103340001419E7CFDF91CF91089580E090E0892BA9
:1033500029F00E940A1981110C940000089585ED4E
:103360008093BC008091BC0084FDFCCF10922003B0
:10337000089540916903262F30E0240F311D21323A
:103380003105DCF4209120032430C9F4FC0180E0F5
:1033900090E0861758F4309169032191DC01A75B16
:1033A000BC4FA30FB11D2C930196F3CF80916903FD
:1033B000680F6093690380E0089581E0089582E0DA
:1033C0000895089508950895E091E5068091E40632
:1033D000E81730F4F0E0E652FD4F808190E0089568
:1033E0008FEF9FEF08959091E5068091E40698177E
:1033F00050F4E92FF0E0E652FD4F208130E09F5F6E
:103400009093E50602C02FEF3FEFC9010895809128
:10341000E40690E02091E506821B91090895CF9281
:10342000DF92EF92FF920F931F93CF93DF937C0174
:10343000CB018A012091AA02222389F0EB016B01C2
:10344000C40ED51ECC15DD0569F06991D701ED914B
:10345000FC910190F081E02DC7010995F3CF642F15
:103460000E94B919C801DF91CF911F910F91FF9070
:10347000EF90DF90CF900895CF93DF931F92CDB759
:10348000DEB769832091AA022223D1F02091A702FE
:10349000203240F021E030E0FC013383228380E0E1
:1034A00090E015C08091A802E82FF0E0E75DFC4FA6
:1034B000998190838F5F8093A8028093A70205C0B3
:1034C00061E0CE0101960E94B91981E090E00F9071
:1034D000DF91CF9108950E947A321F920F920FB61A
:1034E0000F9211242F933F934F935F936F937F938A
:1034F0008F939F93AF93BF93EF93FF93E091270137
:10350000F09128010995FF91EF91BF91AF919F91A3
:103510008F917F916F915F914F913F912F910F907C
:103520000FBE0F901F9018951F920F920FB60F921B
:1035300011242F933F934F935F936F937F938F93B8
:103540009F93AF93BF93EF93FF93E0912501F09189
:1035500026010995FF91EF91BF91AF919F918F91B6
:103560007F916F915F914F913F912F910F900FBE7F
:103570000F901F9018958F929F92AF92BF92EF92EB
:10358000FF920F931F93CF93DF93CDB7DEB7A19731
:103590000FB6F894DEBF0FBECDBF7C01FA01CB01A0
:1035A00019A2223008F42AE08E010F5D1F4F822EEF
:1035B000912CA12CB12CBF01A50194010E9438329D
:1035C000F901CA01015011096A3014F4605D01C0AB
:1035D000695CD8016C93232B242B252B61F7B80150
:1035E000C7010E943103A1960FB6F894DEBF0FBE4B
:1035F000CDBFDF91CF911F910F91FF90EF90BF90C2
:10360000AF909F908F9008956BE772E00C94310318
:103610009A01452B39F4DC01ED91FC910190F08188
:10362000E02D0994462F50E060E070E00C94BB1A46
:10363000DC01ED91FC910190F081E02D09940C9456
:1036400031031F920F920FB60F9211242F933F93C5
:103650004F935F936F937F938F939F93AF93BF939A
:10366000EF93FF938EE893E00E941419FF91EF917E
:10367000BF91AF919F918F917F916F915F914F918A
:103680003F912F910F900FBE0F901F9018951F9292
:103690000F920FB60F9211242F938F939F93EF9356
:1036A000FF93E0919E03F0919F038081E091A4033A
:1036B000F091A50382FD12C090818091A7038F5FD6
:1036C0008F732091A803821751F0E091A703F0E0D7
:1036D000E257FC4F958F8093A70301C08081FF9133
:1036E000EF919F918F912F910F900FBE0F901F9090
:1036F00018951F920F920FB60F9211242F933F939C
:103700004F935F936F937F938F939F93AF93BF93E9
:10371000EF93FF938091B900887F803609F49CC0B5
:1037200068F5883209F45BC090F4803109F454C024
:1037300038F4882309F4F6C0883009F44DC0F6C087
:10374000883109F44CC0803209F45DC0EFC0803488
:1037500009F468C048F4803309F455C0883309F08F
:10376000E5C080931E03D8C0803509F44FC088356A
:1037700009F45DC0883409F0D9C0D6C0883909F48D
:10378000C7C0A8F4883709F467C038F4883609F44C
:1037900063C0803709F460C0C9C0883809F4B8C074
:1037A000803909F45FC0803809F0C0C05BC0803B3D
:1037B00009F486C038F4803A09F466C0883A09F4FE
:1037C0007FC0B4C0803C09F4A7C0883C09F4A4C001
:1037D000883B09F48AC0AAC080911B0310C0909155
:1037E0001D0380911C03981770F5E0911D0381E083
:1037F0008E0F80931D03F0E0E650FD4F8081809393
:10380000BB0085EC86C080931E038EC0E0911D0333
:1038100081E08E0F80931D038091BB00F0E0E650A5
:10382000FD4F808390911D0380911C036EC0E09139
:103830001D0381E08E0F80931D038091BB00F0E09B
:10384000E650FD4F808380911F0381116DC081E0A0
:1038500080931A0384EA61C083E08093200310926E
:103860008B03CFCF80918B03803208F051C0E09161
:103870008B0381E08E0F80938B038091BB00F0E07F
:10388000E559FC4F8083BDCF85EC8093BC0010923E
:10389000200380918B03803230F4E0918B03F0E0C1
:1038A000E559FC4F108260918B0370E0E091A20219
:1038B000F091A3028BE693E0099510928B0336C03A
:1038C00084E08093200310926A0310926903E091D0
:1038D000A402F091A502099580916903811105C0A8
:1038E00081E08093690310924903E0916A0381E0CB
:1038F0008E0F80936A03F0E0E75BFC4F808180933A
:10390000BB0090916A0380916903981708F479CFFE
:1039100085E88093BC000AC085EC8093BC001092BF
:10392000200304C010921E030E94AF19FF91EF9173
:10393000BF91AF919F918F917F916F915F914F91C7
:103940003F912F910F900FBE0F901F9018953091BF
:10395000A702313208F04AC0809120038111FCCFC8
:103960009091A90222E02093200360931F032FEF80
:1039700020931E0310921D0330931C03E9E2F3E031
:10398000AAEFB2E020E0321721F041914D932F5F72
:10399000FACF10921B0320911B03990F922B909347
:1039A0001B0390911A03913061F410921A039091C5
:1039B0001B039093BB009091BC0093FDF8CF95EC56
:1039C00001C095EE9093BC00909120039230E1F3FA
:1039D00090911E039F3F79F080911E03803241F049
:1039E00080911E03803331F084E005C081E003C084
:1039F00082E001C083E01092A8021092A702109208
:103A0000AA02089561E00C94A71CCF93DF931F9244
:103A1000CDB7DEB7643068F420E1629FB0011124B5
:103A200060736983AE014F5F5F4F6FE70E9447226B
:103A300002C083E090E00F90DF91CF9108950F9343
:103A40001F93FC01962FBA01A081B1811296ED91CE
:103A5000FC911397309749F0A9019801892F14968A
:103A60000D911C911597099502C082E090E01F917D
:103A70000F910895CF93DF930E946F01EC010E9494
:103A800046118F3F49F00E946F018C1B9D0B8935B9
:103A90009240A8F380E001C081E0DF91CF910895CA
:103AA000DF92EF92FF920F931F93CF93DF93EC017E
:103AB0008B0128812223E9F08A8180FF1AC01FC070
:103AC000D380D422E114F10409F078C0D11076C07B
:103AD000892B8A2B8B2B09F456C04C855D856E850E
:103AE0007F859E01245F3F4FCF010E94C10287FF67
:103AF0005AC08981826089838FEF9FEFA7C023FF1F
:103B000014C0888D998DAA8DBB8D488959896A8981
:103B10007B89841B950BA60BB70B82309105A10501
:103B2000B105A0F4009791F468C025FF0FC0EE81A5
:103B3000FF818681978145E0880F991F4A95E1F7BB
:103B4000488959898417950709F45AC08889998941
:103B5000AA89BB897C0131E0F322EE81FF81AC01AF
:103B6000BD0139E076956795579547953A95D1F718
:103B700025FFA6CF848D958DA68DB78D480F591F33
:103B80006A1F7B1F46C026FF05C0848D958DA68DBC
:103B9000B78D04C08C8D9D8DAE8DBF8D8C879D871C
:103BA000AE87BF870BC0811109C08881807709F477
:103BB000A0CF21E030E081E090E026C0EE81FF81DF
:103BC0004C855D856E857F8542505109610971097B
:103BD000048004C0440F551F661F771F0A94D2F754
:103BE00080899189A289B389480F591F6A1F7B1F59
:103BF0004D0D511D611D711D0CC020E030E004C051
:103C000020E030E080E090E0A901481B590BCA0198
:103C10001DC08E819F8120E080960E941E02009729
:103C200009F467CFFC01EE0DFF1D8081F801808350
:103C300088899989AA89BB890196A11DB11D888BA4
:103C4000998BAA8BBB8B21E030E0DCCFDF91CF9149
:103C50001F910F91FF90EF90DF9008952F923F9268
:103C60004F925F926F927F928F929F92AF92BF928C
:103C7000CF92DF92EF92FF920F931F93CF93DF9338
:103C8000EC015B014A01888183FF0EC08A8181FFBC
:103C90000BC082FF0FC0488D598D6A8D7B8DCE0180
:103CA0000E94B003811106C08981816089838FEFF2
:103CB0009FEF2AC1A40160E070E088899989AA89F0
:103CC000BB8980959095A095B09584179507A60718
:103CD000B70750F364011E018CE0280E311C0889DF
:103CE00019892A893B89C114D10409F4D0C08E8175
:103CF0009F81B901A80129E0769567955795479569
:103D00002A95D1F7DC011396FC90F4221170F11082
:103D100034C00115110589F54C855D856E857F855B
:103D2000411551056105710569F091010E94C102BB
:103D300087FDBACF8111CDC0CE010E94E004811170
:103D4000C8C0B2CF8C8D9D8DAE8DBF8D0097A10563
:103D5000B10579F4CE010E94E004882309F4A4CFD0
:103D60008C859D85AE85BF858C8F9D8FAE8FBF8FD7
:103D700004C08C879D87AE87BF87EE81FF814C850D
:103D80005D856E857F854250510961097109048006
:103D900004C0440F551F661F771F0A94D2F780890D
:103DA0009189A289B389480F591F6A1F7B1F4F0D44
:103DB000511D611D711D0115110521F4C114B2E0E1
:103DC000DB06B0F580E092E0801B910B76018C154C
:103DD0009D0508F47C010115110579F4488859887E
:103DE0006A887B88888D998DAA8DBB8D4816590667
:103DF0006A067B0610F025E001C021E0CF01809625
:103E00000E941E02009709F44FCFA701B501800F51
:103E1000911F0E948C320E0D1F1D0115124031F5AD
:103E20008E819F8180960E94DB0181111FC03CCF53
:103E300083A194A1A5A1B6A184179507A607B707EA
:103E400041F410A28FEF9FEFDC0183A394A3A5A3FD
:103E5000B6A3EE81FF819501808191810E944D1171
:103E6000882309F421CFE12C82E0F82E88899989F2
:103E7000AA89BB898E0D9F1DA11DB11D888B998BB1
:103E8000AA8BBB8BAE0CBF1CCE18DF0828CF488D89
:103E9000598D6A8D7B8D8A814017510762077307A0
:103EA00028F4088F198F2A8F3B8F06C020918C032E
:103EB00030918D03232B11F080688A838A8183FDE2
:103EC00002C0C40121C0CE010E9446038111F9CF76
:103ED000EBCEEE81FF814C855D856E857F854250FE
:103EE000510961097109048004C0440F551F661F00
:103EF000771F0A94D2F780899189A289B389480FE4
:103F0000591F6A1F7B1F5ACFDF91CF911F910F91CD
:103F1000FF90EF90DF90CF90BF90AF909F908F90E9
:103F20007F906F905F904F903F902F900895FC018D
:103F3000148615861382128288EE93E0A0E0B0E02A
:103F400084839583A683B78388E791E091838083F8
:103F50000895CF92DF92EF92FF920F931F93CF932A
:103F6000C82F10926C0481E090E0A0E0B0E0809354
:103F70006F0490937004A0937104B093720487E669
:103F800094E09093890480938804109287048FEFC3
:103F90009FEFDC0180938A0490938B04A0938C04A0
:103FA000B0938D04CC2331F1C53008F0DEC020E0A1
:103FB00040E050E0BA0187E894E00E941E020097BA
:103FC00009F4D3C000E1C09F800D911D11244097DA
:103FD000FC01E254FE4F20812F7709F0C6C03896CD
:103FE000C080D180E280F380C114D104E104F104E7
:103FF00021F4BBC0C12CD12C760120E0B701A60171
:1040000087E894E00E941E02FC01892B09F4ADC0F0
:10401000838594858115924009F0A7C080898230FC
:1040200009F0A3C0268537852115310509F49DC007
:104030009585909369048FEF890F80936A04C0E09F
:1040400081E0981751F041E04C0F493019F4C093CA
:104050006B048BC0880FC42FF4CFC0936B044689C8
:1040600057894115510519F060E070E004C044A182
:1040700055A166A177A14093730450937404609393
:10408000750470937604D701C601820F931FA11D9A
:10409000B11D8C019D0180937B0490937C04A093BF
:1040A0007D04B0937E048189928990936E048093FD
:1040B0006D04440F551F661F771F400F511F621F6D
:1040C000731F40938304509384046093850470931A
:1040D0008604B5E0880F991FBA95E1F781509E4F8D
:1040E000892F99278695480F591F611D711D40938F
:1040F0007704509378046093790470937A04238949
:1041000034892115310521F0C901A0E0B0E004C0D7
:1041100080A191A1A2A1B3A197018601041B150B57
:10412000260B370BB901A801480F591F6A1F7B1FC7
:1041300004C07695679557954795CA95D2F7DB01E8
:10414000CA010196A11DB11D80937F049093800444
:10415000A0938104B0938204453F1FE0510761059D
:10416000710528F48CE080936C0480E017C0453F13
:104170005F4F6105710510F480E10DC084A595A520
:10418000A6A5B7A58093830490938404A093850487
:10419000B093860480E280936C0481E0CF911F91FC
:1041A0000F91FF90EF90DF90CF900895682F8BE2F2
:1041B00094E00C943C1A4F925F926F927F928F9290
:1041C0009F92AF92BF92CF92DF92EF92FF921F9396
:1041D000CF93DF93EC016A017B019A01AB01C70128
:1041E000B6010E94FB31882319F06EE772E027C008
:1041F00046015701E894B7F82FEF3FEF4FE75FE72D
:10420000C501B4010E94FB3181110DC02FEF3FEFBA
:104210004FE75FE7C501B4010E94313018161CF466
:1042200062E872E00CC02FEF3FEF4FE75FE4C70199
:10423000B6010E9489311816A4F466E872E0CE0136
:10424000DF91CF911F91FF90EF90DF90CF90BF90C3
:10425000AF909F908F907F906F905F904F900C9455
:1042600031032FEF3FEF4FE75FECC701B6010E942C
:10427000313087FDE2CF20E030E0A901C701B6016F
:104280000E94313087FF0AC06DE2CE010E94181BE8
:104290005C01F7FAF094F7F8F09402C0A12CB12C6D
:1042A0002AE037ED43EA5BE3C701B6010E94C52F60
:1042B0002B013C010E94A8306B017C010E94D73089
:1042C0009B01AC01C301B2010E94C42F2B013C0130
:1042D0002AE0B701A601CE010E94BB1A7C01EA0CBC
:1042E000FB1C6EE2CE010E94181BE80EF91E13E0C3
:1042F000115021F120E030E040E251E4C301B2016D
:104300000E948E312B013C010E94A8304B01A12C50
:10431000B12C2AE0B501A401CE010E94BB1AE80E1F
:10432000F91EC501B4010E94D7309B01AC01C30145
:10433000B2010E94C42F2B013C01DACFC701DF91EB
:10434000CF911F91FF90EF90DF90CF90BF90AF90F3
:104350009F908F907F906F905F904F900895BC01D9
:104360008091CF068695869583708130D9F078F05C
:10437000823019F1833071F5072E000C880B990BF0
:104380000E94D93023E333E343E851E420C0072EF1
:10439000000C880B990B0E94D93020E030E043E0FC
:1043A00053E415C0072E000C880B990B0E94D930DE
:1043B00020E030E043E852E40AC0072E000C880BEE
:1043C000990B0E94D93023E333E343E052E40E9487
:1043D0003630089560E070E0CB010895833081F0BD
:1043E00028F4813099F08230A1F008958730A9F047
:1043F0008830B9F08430D1F4809180008F7D03C083
:10440000809180008F7780938000089584B58F77A6
:1044100002C084B58F7D84BD08958091B0008F77F0
:1044200003C08091B0008F7D8093B00008953FB7A6
:10443000F8948091E7069091E806A091E906B09182
:10444000EA0626B5A89B05C02F3F19F00196A11DCD
:10445000B11D3FBFBA2FA92F982F8827820F911D1A
:10446000A11DB11DBC01CD0143E0660F771F881F60
:10447000991F4A95D1F70895613208F060E241E052
:104480000E9460181092E5068093E40608950F9349
:104490001F93FC01962FA081B181ED91FC911197A2
:1044A000309761F0BA01892F14960D911C911597E0
:1044B00021E030E040E050E0099502C082E090E069
:1044C0001F910F910895CF93DF93282F30E0F901CA
:1044D000E654FF4F8491F901EA55FF4FD491F90159
:1044E000EE56FF4FC491CC2391F081110E94EE2132
:1044F000EC2FF0E0EE0FFF1FE857FF4FA591B491AE
:10450000EC91ED2381E090E021F480E002C080E0B6
:1045100090E0DF91CF9108951F93CF93DF93282FE1
:1045200030E0F901E654FF4F8491F901EA55FF4F5D
:10453000D491F901EE56FF4FC491CC23C1F0162F50
:1045400081110E94EE21EC2FF0E0EE0FFF1FE258E8
:10455000FF4FA591B4919FB7F894111104C08C91AD
:10456000D095D82302C0EC91DE2BDC939FBFDF9166
:10457000CF911F910895CF93DF9390E0FC01EA550E
:10458000FF4F2491FC01EE56FF4F8491882361F187
:1045900090E0880F991FFC01EC58FF4FC591D49112
:1045A000FC01E258FF4FA591B491611109C09FB77A
:1045B000F8948881209582238883EC912E230BC068
:1045C000623061F49FB7F8948881322F309583234D
:1045D0008883EC912E2B2C939FBF06C08FB7F89445
:1045E000E8812E2B28838FBFDF91CF9108958E30E5
:1045F00008F08E508770806480937C0080917A00F0
:10460000806480937A0080917A0086FDFCCF80914F
:1046100078002091790090E0922B08958F929F92DC
:10462000AF92BF92CF92DF92EF92FF926B017C012B
:104630000E9417224B015C01C114D104E104F10472
:10464000F1F00E941722DC01CB0188199909AA090F
:10465000BB09883E9340A105B10570F321E0C21A61
:10466000D108E108F10888EE880E83E0981EA11CAD
:10467000B11CC114D104E104F10419F7DDCFFF909E
:10468000EF90DF90CF90BF90AF909F908F90089564
:104690001F920F920FB60F9211242F933F938F9377
:1046A0009F93AF93BF938091E0069091E106A09114
:1046B000E206B091E3063091E60626E0230F2D379F
:1046C00020F40296A11DB11D05C029E8230F039611
:1046D000A11DB11D2093E6068093E0069093E106AC
:1046E000A093E206B093E3068091E7069091E80676
:1046F000A091E906B091EA060196A11DB11D809333
:10470000E7069093E806A093E906B093EA06BF9106
:10471000AF919F918F913F912F910F900FBE0F906E
:104720001F901895CF93DF93CDB7DEB7C459D10949
:104730000FB6F894DEBF0FBECDBF789484B582600B
:1047400084BD84B5816084BD85B5826085BD85B535
:10475000816085BD80916E00816080936E001092B3
:10476000810080918100826080938100809181002E
:1047700081608093810080918000816080938000BF
:104780008091B10084608093B1008091B00081601D
:104790008093B00080917A00846080937A00809149
:1047A0007A00826080937A0080917A008E7F809375
:1047B0007A0080917A00806880937A001092C1001C
:1047C000E0919E03F0919F0312E01083E0919A0321
:1047D000F0919B031082E0919C03F0919D0388E08F
:1047E00080831092A603E091A203F091A30386E0D8
:1047F0008083E091A003F091A10380818061808398
:10480000E091A003F091A103808188608083E09112
:10481000A003F091A103808180688083E091A003D0
:10482000F091A10380818F7D808361E084E00E940C
:10483000BB2261E081E10E94BB2261E088E00E942E
:10484000BB2262E080E10E94BB2260E083E00E9424
:10485000BB2260E085E10E94BB2262E087E00E940B
:10486000BB2261E08FE00E94BB2261E089E00E94F0
:10487000BB2260E08EE00E94BB2260E084E10E94E7
:10488000BB2261E086E00E94BB2261E085E00E94DD
:10489000BB2260E08FE00E948C2260E089E00E94F1
:1048A0008C2261E086E00E948C2261E085E00E941B
:1048B0008C2260E081E10E948C2261E084E00E9411
:1048C0008C2261E088E00E948C221092E506109212
:1048D000E4061092A8021092A7021092200381E031
:1048E00080931F0310921A0361E082E10E948C22E0
:1048F00061E083E10E948C228091B9008E7F8093D9
:10490000B9008091B9008D7F8093B90080E28093D7
:10491000B80085E48093BC0081EE99E19093A502F4
:104920008093A40282EE99E19093A3028093A20265
:104930001093B80034EBC32E36E0D32E0AE010E219
:1049400047E6242E44E0342E50E4752E63E0662EB4
:1049500073E4572EE5E24E2E1092B1061092AE0689
:104960001092B306D092B006C092AF060E946F01BB
:104970007C01A090AF06B090B006D50112960C93C2
:1049800061E08AE00E94BB2261E0F50182810E9421
:104990008C22BFB6F8948091C202811127C0ECE945
:1049A000F0E08491E0EBF0E09491E82FF0E0EE0F7E
:1049B000FF1FEC58FF4FA591B4918C91982321F4DF
:1049C00061E08AE00E948C2261E08AE00E94BB22C2
:1049D0008CB580618CBD8CB580648CBD61E08DE050
:1049E0000E94BB2261E08BE00E94BB228091C20248
:1049F0008F5F8093C202BFBEE091AF06F091B00618
:104A000022E5208381E081838091B106811104C079
:104A10008EEA96E00E942D11E091AF06F091B0066B
:104A200061E082810E948C228AE0B82E8FEF0E9482
:104A30004111BA94B110FACFE091AF06F091B006EF
:104A400060E082810E948C2220E030E0A90160E0D9
:104A50008EEA96E00E942701813051F00E946F019A
:104A60008E199F09813D974078F31093AE068CC054
:104A70002AEA31E040E050E068E08EEA96E00E94E9
:104A80002701853011F481E00CC0B4E0BB2E0E94F8
:104A900046118093B206BA94B110F9CF8A3A59F40C
:104AA00082E08093B3068091B306823071F0812C4E
:104AB000912C54010FC00E946F018E199F09813DF6
:104AC0009740B0F24092AE065FC0812C912CA12C91
:104AD000A0E4BA2E20E030E0A90167E38EEA96E078
:104AE0000E942701A501940169E28EEA96E00E94E6
:104AF0002701882351F00E946F018E199F09813D83
:104B0000974040F35092AE063FC08091B30682308A
:104B1000D9F420E030E0A9016AE38EEA96E00E9431
:104B20002701882321F087E38093AE062DC00E94E1
:104B30004611807C803C11F46092B3060E944611BD
:104B40000E9446110E9446118EEA96E00E941201D0
:104B5000E091AF06F091B00670E5708381E081834B
:104B60008EEA96E090936804809367048EE896E05E
:104B70000E94D70481E00E94A91F882351F08091F0
:104B80008E06811129C00BC08EEA96E00E941201A8
:104B900023C080E00E94A91F8111F1CF1DC0EEE863
:104BA000F6E0DF01212F1D922A95E9F73092950654
:104BB0002092940680916C04803129F0803261F457
:104BC00070928E0602C010938E0681E0809390064C
:104BD00080918E06807779F461E081E10E948C22D9
:104BE00060E084E00E948C2268EE73E080E090E058
:104BF0000E940E23B1CECE018D960E94971FAE016A
:104C00004F5F5F4F6A01CA010E94971F41E06CE24B
:104C100072E0CE010D960E944916B601CE018D9626
:104C20000E94251689AD882309F4D5C3C757DF4FE5
:104C300019821882C958D0401E0159E5250E311C31
:104C4000510163E0A60EB11C4E0177E7870E911C5F
:104C5000CE0187589F4FCF57DF4F99838883C15824
:104C6000D040DE01A158BF4FCD57DF4FB983A88395
:104C7000C358D040FE01E358FF4FCB57DF4FF983B5
:104C8000E883C558D040AE0145585F4FC957DF4F44
:104C900059834883C758D040D1011C9200E010E0EE
:104CA000CE01C9960E94400D98018D3009F4BFC70E
:104CB0002F5F3F4FF101E00FF11F8083843509F52D
:104CC0002D968CAD9DADAEADBFAD2D97AC01BD01A8
:104CD0004150510961097109C557DF4F4883598314
:104CE0006A837B83CB58D0402E31310580F461E05C
:104CF00070E0C757DF4F79836883C958D040890176
:104D0000CFCF2E31310558F48A30C9F708C081E081
:104D100090E0C757DF4F99838883C958D04021500E
:104D20003109F101E20FF31F1082D1018C918F3212
:104D300009F419C32230310508F415C3F1010190BB
:104D40000020E9F73197E219F30932970CF40BC30D
:104D5000F101808191818834FCE49F0709F400C34C
:104D60000CF072C08D3444E4940709F4CCC28CF585
:104D7000823561E4960709F477C2ECF480359144FA
:104D800009F0F1C2DF92CF9285E492E09F938F9376
:104D9000BF92AF920E94B73269817A818B819C81E8
:104DA0000E94D93060930B0170930C0180930D0128
:104DB00090930E01CEC28434B4E49B0709F4ECC195
:104DC0008C34944409F0CFC210923701109236010E
:104DD000CAC28335F4E49F0709F478C2DCF4823553
:104DE000944409F0C0C2DF92CF9285E492E09F9391
:104DF0008F93BF92AF920E94B73289819A81AB8123
:104E0000BC818093320190933301A0933401B0931D
:104E100035019FC2803559E4950709F4FBC18235FD
:104E2000994409F0A0C2DF92CF9285E492E09F936B
:104E30008F93BF92AF920E94B73289819A819093EB
:104E4000C5028093C40285C2843470E5970709F4D3
:104E500041C294F58235BDE49B0709F46DC2ACF400
:104E600080359D4409F07FC2DF92CF9285E492E0C5
:104E70009F938F93BF92AF920E94B73289819A819C
:104E8000909302018093010164C284352DE492075E
:104E900009F493C08334904509F065C2DF92CF9244
:104EA00085E492E09F938F93BF92AF920E94B732B6
:104EB0008981809331014DC2803553E5950709F40E
:104EC00098C1D4F4803572E5970709F4E6C18934B6
:104ED000934509F048C2DF92CF9285E492E09F9318
:104EE0008F93BF92AF920E94B73289819A8190933B
:104EF0003B0180933A012DC28035B4E59B0709F44C
:104F00009AC18335944509F02EC2DF92CF929F92C9
:104F10008F92CE57DF4FF881C258D040FF93CF57C2
:104F2000DF4F2881C158D0402F93CC57DF4F4881A5
:104F3000C458D0404F93CD57DF4F5881C358D0400D
:104F40005F93CA57DF4F6881C658D0406F93CB57E5
:104F5000DF4F7881C558D0407F93C857DF4F888195
:104F6000C858D0408F93C957DF4F9881C758D04059
:104F70009F9386E392E09F938F93BF92AF920E949C
:104F8000B732E980D4010C91EA962FADEA97C15867
:104F9000DF4F4881CF57D040EE966FADEE97EC963D
:104FA0008FADEC970E943F076093CA027093CB02CB
:104FB0008093CC029093CD02E9C0DF92CF929F9272
:104FC0008F92CE57DF4FF881C258D040FF93CF5712
:104FD000DF4F2881C158D0402F93CC57DF4F4881F5
:104FE000C458D0404F93CD57DF4F5881C358D0405D
:104FF0005F93CA57DF4F6881C658D0406F93CB5735
:10500000DF4F7881C558D0407F93C857DF4F8881E4
:10501000C858D0408F93C957DF4F9881C758D040A8
:105020009F9386E392E09F938F93BF92AF920E94EB
:10503000B732ED96AEADBFADED97C157DF4FB98337
:10504000A883CF58D040EF96EEADFFADEF97CF5687
:10505000DF4FF983E883C159D040C158DF4F488002
:105060005980CF57D040E980FA80D4010D90BC918F
:10507000A02DCD56DF4FB983A883C359D040EB96FE
:105080006EAC7FACEB9781E08093AA0288E68093B8
:10509000A9021092A8021092A70280E090E00E945C
:1050A000D6200AE010E0C701B8010E94243224E0B3
:1050B000660F771F2A95E1F78F709927862B972B1C
:1050C0000E94D620CD56DF4F88819981C359D040A8
:1050D000B8010E94243234E0660F771F3A95E1F759
:1050E0008F709927862B972B0E94D620C301B80179
:1050F0000E9424326370772744E0660F771F4A9539
:10510000E1F78F709927862B972B0E94D62081E09C
:1051100090E00E94D620C201B8010E94243254E0DF
:10512000660F771F5A95E1F78F709927862B972B7B
:105130000E94D620CF56DF4F88819981C159D04037
:10514000B8010E942432E4E0660F771FEA95E1F788
:105150008F709927862B972B0E94D620C157DF4F3F
:1051600088819981CF58D040B8010E942432F4E060
:10517000660F771FFA95E1F78F709927862B972B8B
:105180000E94D6208BE294E00E94021D0FB6F89494
:10519000DEBF0FBECDBFE7C0DF92CF9285E492E0C5
:1051A0009F938F93BF92AF920E94B73229813A8129
:1051B0004B815C8160E871E581E090E00E94003203
:1051C0002B013C010E9408088091BE029091BF0211
:1051D000A091C002B091C102480E591E6A1E7B1EEA
:1051E0004092CA025092CB026092CC027092CD02E1
:1051F000B0C0DF92CF9285E492E09F938F93BF92ED
:10520000AF920E94B73289819A819093390180933D
:1052100038019FC0DF92CF9285E492E09F938F93F5
:10522000BF92AF920E94B73289819A819093140104
:10523000809313018EC0DF92CF9285E492E09F931A
:105240008F93BF92AF920E94B73269817A818B812E
:105250009C810E94D93060930F017093100180935C
:1052600011019093120175C0DF92CF9285E492E014
:105270009F938F93BF92AF920E94B73269817A81D8
:105280008B819C810E94D930609307017093080143
:105290008093090190930A015CC0DF92CF9285E46C
:1052A00092E09F938F93BF92AF920E94B732698131
:1052B0007A818B819C810E94D93060930301709325
:1052C0000401809305019093060143C081E080931F
:1052D000BD0249C0DF92CF9285E492E09F938F9305
:1052E000BF92AF920E94B73269817A818B819C8193
:1052F0000E94D93060932D0170932E0180932F016D
:105300009093300126C0DF92CF9285E492E09F9384
:105310008F93BF92AF920E94B73269817A818B815D
:105320009C810E94D9306093290170932A01809357
:105330002B0190932C010DC0DF92CF9285E492E077
:105340009F938F93BF92AF920E94B73289818093CF
:1053500000010F900F900F900F900F900F9003C0CF
:1053600081E08093A602CE018D960E94C300892B16
:1053700009F092CCCE01C9960E94D704C757DF4FDF
:1053800048815981C958D040452B29F1C6010E9456
:10539000971F43E66CE272E0CE010D960E9449161B
:1053A000B601CE018D960E942516C557DF4F488164
:1053B00059816A817B81CB58D040CE01C9960E9429
:1053C000B00368E472E0CE018D960E941F1BCE01EF
:1053D000C9960E94D70420913A0130913B01609117
:1053E000380170913901C9010E94243270933A0446
:1053F0006093390488EE93E0B9010E9424327093DF
:1054000038046093370460ED77E080E090E00E941C
:105410000E230E9496094091B3025091B40260910C
:10542000B5027091B6028EE893E00E94DB206BE437
:1054300072E08EE893E00E9431038EE893E00E94D0
:10544000041B0E9408086DE472E08EE893E00E945D
:105450001F1B4091BE025091BF026091C00270912B
:10546000C1022AE08EE893E00E94BB1A8EE893E026
:105470000E94041B6EE472E08EE893E00E941F1B02
:10548000609115014AE050E08EE893E00E94081B0D
:1054900065E672E08EE893E00E941F1B6091B802FF
:1054A0004AE050E08EE893E00E94081B65E672E057
:1054B0008EE893E00E941F1B6091B7024AE050E023
:1054C0008EE893E00E94081B8EE893E00E94041B84
:1054D0008EE893E00E94831968E873E180E090E031
:1054E0000E940E2381E08093AA0280E48093A902A7
:1054F0001092A8021092A70280E090E00E94D620AD
:105500008BE294E00E94021D62E070E080E090E097
:105510000E940E2362E070E080E490E00E943C2252
:1055200062E070E080E090E00E940E2300E010E076
:105530009091E4068091E506981739F08BE294E0AB
:105540000E94F3190F5F1F4FF3CF012B89F461E025
:1055500089E00E948C2268EB7BE080E090E00E9472
:105560000E2360E089E00E948C220AE010E048C02F
:105570000E946C0964E170E080E090E00E940E23DC
:105580000E94CE08812C912C540101E010E00E9471
:105590006C0964E170E080E090E00E940E230E94BC
:1055A000CE0864E670E080E090E00E940E23209137
:1055B000AF023091B0024091B1025091B202C501E8
:1055C000B4010E94C52F4B015C01B801012E000CF3
:1055D000880B990B0E94D9309B01AC01C501B40125
:1055E0000E9436306093AB027093AC028093AD02A0
:1055F0009093AE020F5F1F4F0A30110541F6A7CFFF
:1056000064EF71E080E090E00E940E2301501109E8
:10561000B9F760E086E00E948C2260E085E00E949D
:105620008C220E940808811107C064E670E080E0C7
:1056300090E00E940E23F5CF8091BE029091BF02B0
:10564000A091C002B091C1028093CE029093CF028C
:10565000A093D002B093D1020E940808C6010E9414
:10566000971F46E461E572E0CE010D960E9449164F
:1056700069E572E0C6010E941F1B69E171E0C60185
:105680000E943103C6010E94041B67E672E0C60156
:105690000E941F1B0EE010E091E2F92EF801F0923B
:1056A0005700649140E150E0C6010E94081B0F5F63
:1056B0001F4F0831110591F7C6010E94041B60912C
:1056C00018014AE050E0C6010E94081B67E772E03B
:1056D000C6010E941F1B609117014AE050E0C601FD
:1056E0000E94081B67E772E0C6010E941F1B6091C1
:1056F00016014AE050E0C6010E94081B69E772E00B
:10570000C6010E941F1B609115014AE050E0C601CE
:105710000E94081B65E672E0C6010E941F1B609193
:10572000B8024AE050E0C6010E94081B65E672E03C
:10573000C6010E941F1B6091B7024AE050E0C601FB
:105740000E94081BC6010E94041BCE010D960E94F8
:10575000D70460E088E00E948C228091CA02909178
:10576000CB02A091CC02B091CD02892B8A2B8B2B3E
:1057700099F48091BE029091BF02A091C002B091B5
:10578000C1020596A11DB11D8093CA029093CB0260
:10579000A093CC02B093CD026AE070E080E090E08C
:1057A0000E940E230E947E0980913101893040F4CD
:1057B0009FB7F89420E820936100809361009FBF19
:1057C00001E010E086EEE82E80E0F82E8091D20213
:1057D0009091D302892B09F04BC161E088E00E94CF
:1057E0008C220E94080860E088E00E948C22809150
:1057F000BE029091BF02A091C002B091C10240913F
:10580000CE025091CF026091D0027091D102841BE0
:10581000950BA60BB70B81319E40A105B10520F079
:105820001092370110923601809136019091370124
:10583000892B71F061E084E00E948C2261E081E1BB
:105840000E948C2263E070E080E090E00E940E23D2
:1058500060E084E00E948C2260E081E10E948C2262
:1058600083B7817F846083BF83B7816083BF83B741
:10587000816083BF889583B78E7F83BF83B78E7F18
:1058800083BF809164008071809364004091BE0268
:105890005091BF026091C0027091C1028091CA0212
:1058A0009091CB02A091CC02B091CD02481759073C
:1058B0006A077B0708F48ACF2091320130913301C7
:1058C0004091340150913501ACE3B0E00E9469325F
:1058D0008090CA029090CB02A090CC02B090CD02F2
:1058E000860E971EA81EB91E8092C6029092C7020D
:1058F000A092C802B092C9028090CA029090CB02D6
:10590000A090CC02B090CD024090C4025090C5024D
:10591000052C000C66087708DC01CB01840D951D71
:10592000A61DB71D880D991DAA1DBB1D8093CA0217
:105930009093CB02A093CC02B093CD020E94A10C15
:1059400061E088E00E948C2265E070E080E090E0F9
:105950000E940E232FEF41E06BE274E087EB96E0AC
:105960000E94340E1093D3020093D2026091370448
:10597000709138040090310102C0759567950A94C2
:10598000E2F7072E000C880B990B0E9414180E9456
:105990001711F0922801E0922701809169008C6034
:1059A00080936900E99A12CF8091BE029091BF0264
:1059B000A091C002B091C1024091CE025091CF029D
:1059C0006091D0027091D102841B950BA60BB70B8E
:1059D00081319E40A105B10520F01092370110924F
:1059E00036014091BE025091BF026091C002709199
:1059F000C1028091C6029091C702A091C802B091E5
:105A0000C902481759076A077B07D0F580E10E9451
:105A10006322892B09F480C08091BE029091BF025D
:105A2000A091C002B091C1028090CE029090CF02AE
:105A3000A090D002B090D102BC01CD0168197909C3
:105A40008A099B090E94D73020E030EC48EA57E4ED
:105A50000E9436304B015C0120912D0130912E01C6
:105A600040912F01509130010E94893187FF8DC0F4
:105A70008091D2029091D302019709F495CFD4C0BE
:105A8000809170008E7F8093700087E494E00E9484
:105A9000D7048091C4029091C502892BB1F5809002
:105AA000C6029090C702A090C802B090C90220918F
:105AB0003201309133014091340150913501ACE312
:105AC000B0E00E946932860E971EA81EB91E809211
:105AD000C6029092C702A092C802B092C9020E9468
