:100000000C9468000C9490000C9490000C94900058
:100010000C9490000C9490000C945B220C94900033
:100020000C9490000C94F4210C9490000C9490008B
:100030000C9490000C9490000C9490000C94900000
:100040000C948B200C9490000C9459200C94332029
:100050000C9490000C9490000C9490000C949000E0
:100060000C94D5200C9490006364696E6F70737566
:1000700078585B0000000000250028002B000000DD
:1000800000002300260029000000000800020100F3
:100090000003040700000000000000000000000052
:1000A000240027002A0001020408102040800102D9
:1000B00004081020010204081020040404040404AD
:1000C00004040202020202020303030303038C235B
:1000D00011241FBECFEFD8E0DEBFCDBF12E0A0E0FD
:1000E000B1E0E6E4FCE602C005900D92A235B1074E
:1000F000D9F726E0A2E5B2E001C01D92A73DB20704
:10010000E1F710E0C8E6D0E004C02197FE010E94AC
:100110001930C736D107C9F70E94F8230C9421364D
:100120000C940000BC018091C7068695869583706B
:100130008130B1F040F08230F1F0833039F160E08D
:1001400070E0CB010895072E000C880B990B0E94DC
:100150007E2E20E030E043E053E40E94D42D089549
:10016000072E000C880B990B0E947E2E20E030E0B9
:1001700043E852E4F2CF072E000C880B990B0E9443
:100180007E2E23E333E343E052E4E7CF072E000C57
:10019000880B990B0E947E2E23E333E343E851E45E
:1001A000DCCFBC018091C70683708130B1F040F094
:1001B0008230F1F0833039F160E070E0CB010895D6
:1001C000072E000C880B990B0E947E2E2FE632E141
:1001D00043E851E40E94D42D0895072E000C880BAB
:1001E000990B0E947E2E2FE632E143E051E4F2CFDC
:1001F000072E000C880B990B0E947E2E2FE632E111
:1002000043E850E4E7CF072E000C880B990B0E94BF
:100210007E2E2FE632E143E050E4DCCF0F931F93B4
:10022000FC01862FA081B181ED91FC91119730974F
:1002300061F0BA0114960D911C9121E030E040E08C
:1002400050E009951F910F91089582E090E0FACF58
:100250008091C5029091C402891B990B089508955D
:100260000895AF92BF92CF92DF92EF92FF920F93D9
:100270001F93CF93DF936C017B018B01040F151F3C
:10028000EB015E01AE18BF08C017D10759F06991A4
:10029000D601ED91FC910190F081E02DC601099508
:1002A000892B79F7C501DF91CF911F910F91FF90B5
:1002B000EF90DF90CF90BF90AF900895FC01538DE9
:1002C000448D252F30E0842F90E0821B930B541730
:1002D00010F0CF96089501970895FC01918D828DBD
:1002E000981761F0A28DAE0FBF2FB11D5D968C9156
:1002F000928D9F5F9F73928F90E008958FEF9FEF95
:100300000895FC01918D828D981731F0828DE80F50
:10031000F11D858D90E008958FEF9FEF0895FC010A
:10032000918D228D892F90E0805C9F4F821B9109D7
:100330008F739927089586E893E00E948F0121E04A
:10034000892B09F420E0822F089580E090E0892B2A
:1003500029F00E949B0181110C9400000895FC017A
:10036000A48DA80FB92FB11DA35ABF4F2C91848D16
:1003700090E001968F739927848FA689B7892C9373
:10038000A089B1898C91837080648C93938D848DC6
:10039000981306C00288F389E02D80818F7D8083C9
:1003A0000895EF92FF920F931F93CF93DF93EC0189
:1003B00081E0888F9B8D8C8D98131AC0E889F9890C
:1003C000808185FF15C09FB7F894EE89FF8960830F
:1003D000E889F98980818370806480839FBF81E090
:1003E00090E0DF91CF911F910F91FF90EF900895D2
:1003F000F62E0B8D10E00F5F1F4F0F731127E02EAD
:100400008C8D8E110CC00FB607FCFACFE889F989E4
:10041000808185FFF5CFCE010E94AF01F1CFEB8D3A
:10042000EC0FFD2FF11DE35AFF4FF0829FB7F894B8
:100430000B8FEA89FB8980818062CFCFCF93DF93D6
:10044000EC01888D8823B9F0AA89BB89E889F989EC
:100450008C9185FD03C0808186FD0DC00FB607FC21
:10046000F7CF8C9185FFF2CF808185FFEDCFCE0154
:100470000E94AF01E9CFDF91CF910895833081F0E1
:1004800028F4813099F08230A9F008958730A9F0DE
:100490008830C9F08430B1F4809180008F7D03C032
:1004A000809180008F7780938000089584B58F7746
:1004B00084BD089584B58F7DFBCF8091B0008F7788
:1004C0008093B00008958091B0008F7DF9CFCF93D5
:1004D000DF93282F30E0F901E857FF4F8491F901AD
:1004E000EA55FF4FD491F901E654FF4FC491CC2354
:1004F000A1F081110E943E02EC2FF0E0EE0FFF1FF1
:10050000E258FF4FA591B491EC91ED2381E090E08A
:1005100009F480E0DF91CF91089580E090E0FACF78
:100520001F93CF93DF93282F30E0F901E857FF4F57
:100530008491F901EA55FF4FD491F901E654FF4F38
:10054000C491CC23A9F0162F81110E943E02EC2FFA
:10055000F0E0EE0FFF1FEC58FF4FA591B4918FB75D
:10056000F894EC91111108C0D095DE23DC938FBF75
:10057000DF91CF911F910895DE2BF8CFCF93DF93BA
:1005800090E0FC01EA55FF4F249186549F4FFC01F7
:1005900084918823C9F090E0880F991FFC01E456EC
:1005A000FF4FA591B491FC01EC58FF4FC591D49138
:1005B00061110DC09FB7F8948C91209582238C9384
:1005C0008881282328839FBFDF91CF9108956230CF
:1005D00051F49FB7F8943C91822F809583238C939C
:1005E000E8812E2BEFCF8FB7F894EC912E2B2C9324
:1005F0008FBFEACF8E50806480937C0080917A0018
:10060000806480937A0080917A0086FDFCCF80918F
:1006100078009091790008953FB7F8948091BA02DC
:100620009091BB02A091BC02B091BD0226B5A89BDF
:1006300005C02F3F19F00196A11DB11D3FBFBA2F74
:10064000A92F982F8827BC01CD01620F711D811D34
:10065000911D43E0660F771F881F991F4A95D1F7B8
:1006600008958F929F92AF92BF92CF92DF92EF92B6
:10067000FF924B015C010E940C036B017C010E9404
:100680000C036C197D098E099F09683E7340810532
:100690009105A8F321E0821A9108A108B10888EE1B
:1006A000C80E83E0D81EE11CF11C81149104A10442
:1006B000B10429F7FF90EF90DF90CF90BF90AF90FB
:1006C0009F908F90089520919202260F3327331F19
:1006D00021323105ECF420915C03FC0190E080E0D4
:1006E000243069F082E00895A09192022191AC013A
:1006F0004E585D4FA40FB52FB11D2C930196861750
:1007000098F380919202680F6093920280E00895BE
:1007100081E0089510925C0381E080935B03109266
:10072000360361E082E10E94900261E083E10E9471
:100730009002E9EBF0E080818E7F808380818D7F65
:10074000808380E28093B80085E48093BC000895A4
:10075000CF93DF9391E0909371028823B9F0C09119
:10076000B800D091BA008091BC008A7B8093BC0015
:1007700060E082E10E94900260E083E10E949002CA
:100780000E948A03D093BA00C093B800DF91CF9142
:1007900008958F929F92AF92BF92CF92DF92EF9285
:1007A000FF920F931F93CF93DF93D0918503D132A4
:1007B00008F0D7C0182FC09184030E940C036B016E
:1007C0007C0180915C0381116BC082E080935C03AB
:1007D00010935B038FEF80935A0310925903D093C9
:1007E0005803A4E6B3E0E8E3F3E080E0D81391C057
:1007F0001092370380913703CC0FC82BC093370377
:1008000080913603813009F088C0109236030E942F
:100810000C036B017C01809137038093BB008091B6
:100820005E0390915F03A0916003B0916103892BF7
:100830008A2B8B2BA1F00E940C0300915E03109178
:100840005F0320916003309161036C197D098E096B
:100850009F09061717072807390708F442C0809137
:10086000BC0083FDD8CF85EC8093BC000E940C03B4
:100870006B017C0180915C03823009F450C080914F
:100880005A038F3F09F46FC080915A03803209F4F4
:100890006CC080915A03803309F469C084E026C09B
:1008A00080915E0390915F03A0916003B09161031A
:1008B000892B8A2B8B2B09F484CF0E940C03809008
:1008C0005E0390905F03A0906003B09061036C1989
:1008D0007D098E099F0986169706A806B90608F0B5
:1008E00070CF80915D030E94A80385E0109263039E
:1008F0001092850310926203DF91CF911F910F91A7
:10090000FF90EF90DF90CF90BF90AF909F908F902F
:1009100008959D9191938F5F69CF85EEA5CF8091CA
:100920005E0390915F03A0916003B0916103892BF6
:100930008A2B8B2B09F49ECF0E940C0300915E033F
:1009400010915F0320916003309161036C197D0960
:100950008E099F09061717072807390708F08ACF5D
:10096000C0CF81E0C3CF80E0C1CF82E0BFCF83E0C2
:10097000BDCF8F929F92AF92BF92CF92DF92EF92B4
:10098000FF920F931F93CF93DF93D82FC62F142F6F
:10099000613208F09CC00E940C036B017C018091C5
:1009A0005C0381116FC081E080935C0310935B0353
:1009B0009FEF90935A03109259039C0F9093580302
:1009C0008093370380913703DD0FD82BD093370303
:1009D00080913603813009F07CC0109236030E946A
:1009E0000C036B017C01809137038093BB008091E5
:1009F0005E0390915F03A0916003B0916103892B26
:100A00008A2B8B2BA1F00E940C0300915E031091A6
:100A10005F0320916003309161036C197D098E0999
:100A20009F09061717072807390708F44CC080915B
:100A3000BC0083FDD8CF85EC8093BC000E940C03E2
:100A40006B017C0180915C03813009F444C080918A
:100A500059038C1710F4C0915903E8E3F3E0A6E1C1
:100A6000B3E080E08C1359C08C2FDF91CF911F91A0
:100A70000F91FF90EF90DF90CF90BF90AF909F903D
:100A80008F90089580915E0390915F03A091600321
:100A9000B0916103892B8A2B8B2B09F480CF0E94A4
:100AA0000C0380905E0390905F03A0906003B09071
:100AB00061036C197D098E099F0986169706A806A1
:100AC000B90608F06CCF80915D030E94A803C0E0D6
:100AD000CBCF85EEB1CF80915E0390915F03A09163
:100AE0006003B0916103892B8A2B8B2B09F4AACF69
:100AF0000E940C0300915E0310915F03209160033C
:100B0000309161036C197D098E099F09061717073B
:100B10002807390708F096CFD6CF91919D938F5F24
:100B2000A1CF0895E091C4028091C502E81730F486
:100B3000F0E0EA5EFC4F808190E008958FEF9FEF38
:100B400008959091C4028091C5022FEF3FEF98174E
:100B500048F4E92FF0E0EA5EFC4F208130E09F5F2F
:100B60009093C402C9010895CF92DF92EF92FF9251
:100B70000F931F93CF93DF937C01CB018A012091C8
:100B80006203222389F0EB016B01C40ED51ECC1544
:100B9000DD0569F06991D701ED91FC910190F0813B
:100BA000E02DC7010995F3CF642F0E946303C801AC
:100BB000DF91CF911F910F91FF90EF90DF90CF9039
:100BC0000895CF93DF931F92CDB7DEB7698320914D
:100BD00062032223F9F020918503203258F021E0AE
:100BE00030E0FC013383228390E080E00F90DF91BE
:100BF000CF91089580916303E82FF0E0EC59FC4F0A
:100C0000998190838F5F809363038093850381E054
:100C100090E0ECCF61E0CE0101960E946303F7CF34
:100C2000682F83E294E00C94E10581E00C94C90301
:100C3000CF93DF931F92CDB7DEB7643078F420E115
:100C4000629FB00111246983AE014F5F5F4F6FE770
:100C50000E940E010F90DF91CF91089583E090E004
:100C6000F9CF0F931F93FC01862FBA01A081B181A8
:100C70001296ED91FC911397309749F0A9019801D4
:100C800014960D911C9109951F910F91089582E082
:100C900090E0FACF8F929F92AF92BF92EF92FF9225
:100CA0000F931F93CF93DF930115110591F1F80175
:100CB000C58DD68D209769F149017B01682F878DFD
:100CC00091E09093620380938403109263031092E7
:100CD0008503E881F9810190F081E02DCE0109952D
:100CE000E881F9810280F381E02DA401B701CE01F2
:100CF0000995CE010E94150690E080E0DF91CF912A
:100D00001F910F91FF90EF90BF90AF909F908F90A9
:100D1000089583E090E0F2CF8F929F92AF92BF92BE
:100D2000CF92DF92EF92FF920F931F93CF93DF93B7
:100D300000D000D0CDB7DEB75C01822FF50120A333
:100D4000768F658F41A398E6411199E6978F8F3F83
:100D500019F061E00E94BE02F50180A18F3F19F0F9
:100D600061A10E9490028AE496E0F50193A382A318
:100D700088EB92E195A384A3B7A2A6A2C5018296AF
:100D8000938382836501F2E0CF0ED11C198260E06B
:100D9000C6010E94180601E010E020E030E0AE013C
:100DA0004F5F5F4F60E0C6010E943106009709F077
:100DB00005C289818A3E19F084E090E0FFC1F50107
:100DC000148E138E60E0C6010E94180601E010E048
:100DD00020E030E0AE014F5F5F4F66E0C6010E9449
:100DE0003106009751F4898180688983AE014F5F95
:100DF0005F4F66E0C6010E940E01F501948F838F5C
:100E0000009709F0DBC162E370E080E090E00E94AF
:100E1000310360E0C6010E94180601E010E020E006
:100E200030E0AE014F5F5F4F66E0C6010E943106C1
:100E3000009751F489818F7B8983AE014F5F5F4FAB
:100E400066E0C6010E940E01F501948F838F009722
:100E500009F0B4C160E0C6010E94180601E010E08C
:100E600020E030E0AE014F5F5F4F66E0C6010E94B8
:100E70003106009751F489818F7D8983AE014F5FE0
:100E80005F4F66E0C6010E940E01F501948F838FCB
:100E9000009709F093C160E0C6010E941806009710
:100EA000C1F401E010E020E030E0AE014F5F5F4FA1
:100EB00065E0C6010E943106009759F489818F7D53
:100EC0008F7E8983AE014F5F5F4F65E0C6010E9450
:100ED0000E01F501948F838F009709F06FC162E0D6
:100EE000C6010E9418067C0101E010E020E030E01D
:100EF000AE014F5F5F4F64E1C6010E943106E82AF0
:100F0000F92A8981897F8983AE014F5F5F4F64E150
:100F1000C6010E940E01E82AF92A62E0C6010E9479
:100F20001806E82AF92A01E010E020E030E0AE01DE
:100F30004F5F5F4F61E0C6010E943106E82AF92A3F
:100F40008981897F8983AE014F5F5F4F61E0C60170
:100F50000E940E018E299F29F501948F838F00979F
:100F600009F02CC162E0C6010E9418067C0101E074
:100F700010E020E030E0AE014F5F5F4F64E1C6015A
:100F80000E943106E82AF92A898188638983AE01A3
:100F90004F5F5F4F64E1C6010E940E01E82AF92A03
:100FA00062E0C6010E941806E82AF92A01E010E072
:100FB00020E030E0AE014F5F5F4F61E0C6010E946C
:100FC0003106E82AF92A898188638983AE014F5F57
:100FD0005F4F61E0C6010E940E018E299F29F50135
:100FE000948F838F009709F0E9C061E0C6010E94E9
:100FF0006522009709F0E2C062E0C6010E94652206
:10100000009709F0DBC060E0C6010E941806009757
:1010100019F4C6010E946423F501948F838F60E068
:10102000C6010E941806009709F043C0C6010E943D
:1010300064230097F1F563E0C6010E94180600974B
:10104000C1F501E010E020E030E0AE014E5F5F4FFF
:1010500061E0C6010E943106009759F58A81807FC0
:10106000876080618A83AE014E5F5F4F61E0C60199
:101070000E940E010097E9F460E0C6010E94180684
:101080000097B9F401E010E020E030E0AE014F5FDE
:101090005F4F63E0C6010E943106009751F48981D9
:1010A00080628983AE014F5F5F4F63E0C6010E949B
:1010B0000E01F501948F838F85E0F82E94E0892E40
:1010C000912C21E0AE014F5F5F4F60E0C6010E94AE
:1010D000B622F501948F838F198121E0AE014F5F15
:1010E0005F4F61E0C6010E94B6228981F501148E2E
:1010F000138E183411F4893039F1F501948E838EF2
:1011000060E0C6010E9418060097B9F401E010E003
:1011100020E030E0AE014F5F5F4F63E0C6010E9408
:101120003106009751F4898182608983AE014F5F57
:101130005F4F63E0C6010E940E01F501948F838F1B
:10114000FA94F110BECF38CE88E08C8320E0AE0157
:101150004C5F5F4F61E3C6010E94B622F501948F98
:10116000838F009759F563E0C6010E941806009727
:1011700011F58CE88B83AE014D5F5F4F63E0C601D4
:101180000E940E010097B9F480E18A83AE014E5FA0
:101190005F4F64E0C6010E940E01009761F48981EF
:1011A000807489688F7B8983AE014F5F5F4F65E0F4
:1011B000C6010E940E01F501948F838FF501948F73
:1011C000838F0F900F900F900F90DF91CF911F9111
:1011D0000F91FF90EF90DF90CF90BF90AF909F90D6
:1011E0008F900895CF93DF93EC01E981FA8190818C
:1011F00081819CBD8DBDE981FA8160E082810E9480
:10120000900281E08B83DF91CF9108958EBD0DB464
:1012100007FEFDCF08958FEF8EBD0DB407FEFDCF05
:101220008EB50895CF93DF93FC012381222361F0D3
:10123000EC010180F281E02D61E082810E94900248
:101240008FEF0E9406091B82DF91CF9108952FB77F
:10125000F8948091B6029091B702A091B802B09133
:10126000B9022FBF0895CF93DF930E942709EC01A5
:101270000E940B098F3F59F00E9427098C1B9D0B80
:1012800089359240A8F380E0DF91CF91089581E005
:10129000FBCFDF92EF92FF920F931F93CF93DF93D9
:1012A0008C01C62FD22FF32EE42ED52EFC01838184
:1012B000811103C0C8010E94F2080E9433098C2FDB
:1012C00080640E9406098D2D0E9406098E2D0E94C1
:1012D00006098F2D0E9406098D2F0E94060987E8B6
:1012E000C11101C085E90E940609CC3011F40E94A9
:1012F0000B09C0E00E940B09F801848387FF04C03A
:10130000CF3F11F0CF5FF6CFDF91CF911F910F91BB
:10131000FF90EF90DF9008950F931F93CF93DF938B
:10132000EC0189018D81833039F089E0440F551F2C
:10133000661F771F8A95D1F79A01AB0168E1CE014C
:101340000E944909882319F082E3888337C08EEF11
:101350000E940609F80180818EBD818132961E5F50
:101360000DB407FEFDCF8EBDE017F10711F081919E
:10137000F7CF0DB407FEFDCF8FEF0E9406098FEF68
:101380000E9406090E940B098C838F71853089F4B5
:101390000E943309182F89E51123B9F220E030E0CB
:1013A000A9016DE0CE010E944909882361F089E21C
:1013B000CCCF86E58883CE010E941209CE010E941F
:1013C000120910E007C00E940B098111F0CFCE0175
:1013D0000E941209812FDF91CF911F910F910895E3
:1013E000EF92FF920F931F93CF93DF93EC0189014C
:1013F0008D81833039F089E0440F551F661F771FB8
:101400008A95D1F79A01AB0161E1CE010E944909A9
:10141000882339F080E38883CE010E94120980E09E
:1014200037C00E9427097C010E940B098C838F3FE3
:1014300069F40E9427098E199F098D329140A0F30B
:1014400084E58883CE010E941209E6CF8E3F11F019
:1014500080E5F7CF8FEF8EBDF801D801A150BE4FC8
:101460009FEF0DB407FEFDCF8EB59EBD8193AE17E5
:10147000BF07B9F70DB407FEFDCF8EB58C931C8264
:101480000E940B090E940B09CE010E94120981E003
:10149000DF91CF911F910F91FF90EF900895EF9200
:1014A000FF921F93CF93DF93FC01208111E020FF77
:1014B00014C0EC017C01F7E0EF0EF11C4B815C8164
:1014C0006D817E81E981FA819701808191810E94FD
:1014D0008C09182F811108C010E0812FDF91CF9166
:1014E0001F91FF90EF900895888181FD04C088814D
:1014F0008E7F8883F2CFE981FA814B815C816D8197
:101500007E8184859585A685B785480F591F6A1FFA
:101510007B1F9701808191810E948C098111E7CF07
:10152000DBCFCF92DF92EF92FF921F93CF93DF93A7
:10153000EC016A017B01122F8B819C81AD81BE8100
:101540008C159D05AE05BF05B1F0CE010E944F0A76
:1015500081110AC090E080E0DF91CF911F91FF9050
:10156000EF90DF90CF90089512FF0CC01882CB82CD
:10157000DC82ED82FE8213708881182B1883CE01E5
:101580000796EACFE981FA819E01295F3F4FB701B3
:10159000A601808191810E94F0098111E7CFDACF05
:1015A0008F929F92AF92BF92CF92DF92EF92FF9273
:1015B0000F931F931092640441E050E060E070E0EC
:1015C00040936704509368046093690470936A04BD
:1015D0002FE534E0309381042093800410927F043F
:1015E0004FEF5FEFBA0140938204509383046093FE
:1015F000840470938504882309F450C020E040E0FF
:1016000050E0BA018FE794E00E94910A009761F4DC
:1016100080E01F910F91FF90EF90DF90CF90BF90EF
:10162000AF909F908F900895FC01E254FE4F20816F
:101630002F7771F78A539E4FFC01C080D180E280E2
:10164000F380C114D104E104F10411F320E0B701E7
:10165000A6018FE794E00E94910AFC01892BC1F258
:10166000838594858115924099F68089823081F630
:1016700086859785892B61F22585209361048FEFFC
:10168000820F8093620480E091E0291769F08F5FF8
:10169000893041F488E080936304BACFC12CD12C07
:1016A0007601D4CF990FF1CF80936304468957898F
:1016B00070E060E04115510521F444A155A166A1F7
:1016C00077A140936B0450936C0460936D04709306
:1016D0006E042685378546015701820E931EA11C94
:1016E000B11C8092730490927404A0927504B0921D
:1016F0007604218932893093660420936504440F6F
:10170000551F661F771F480D591D6A1D7B1D40938D
:101710007B0450937C0460937D0470937E04218944
:101720003289A5E0220F331FAA95E1F721503E4FE1
:10173000232F33272695420F531F611D711D4093A0
:101740006F04509370046093710470937204038962
:10175000148930E020E00115110521F400A111A148
:1017600022A133A1C41AD50AE60AF70AC00ED11E77
:10177000E21EF31E04C0F694E794D794C7948A95AA
:10178000D2F7D701C6010196A11DB11D8093770440
:1017900090937804A0937904B0937A0485EFC816E7
:1017A0008FE0D806E104F10420F48CE08093640417
:1017B0002FCF80E125EFC2162FEFD206E104F1040E
:1017C00068F084A595A5A6A5B7A580937B04909302
:1017D0007C04A0937D04B0937E0480E28093640433
:1017E00081E017CF8F929F92AF92BF92CF92DF92FC
:1017F000EF92FF920F931F936A017B0148015901F9
:10180000FC012581203299F50489158926893789BB
:10181000E7E07695679557954795EA95D1F7400F9C
:10182000511F621F731F23E080960E94910A009748
:1018300061F480E01F910F91FF90EF90DF90CF90C7
:10184000BF90AF909F908F900895E894C7F8DD24E3
:10185000EE24FF24CC0CDD1CCC0CDD1C8C0D9D1D5E
:10186000FC0180829182A282B38281E0E3CF2031A9
:1018700001F744895589668977894D0D511D611D90
:10188000711D23E080960E94910A009791F2DD2459
:10189000EE24FF24CC0CDD1CC80ED91EF6011183EA
:1018A0000083E3CFCF92DF92EF92FF920F931F93CB
:1018B000CF93DF93EC016A017B0189018D81803236
:1018C00009F041C08C899D89AE89BF89E7E0769592
:1018D000679557954795EA95D1F7480F591F6A1FA5
:1018E0007B1F22E0CE0180960E94910A009751F45E
:1018F0008FEFDF91CF911F910F91FF90EF90DF90CD
:10190000CF900895E894C7F8DD24EE24FF24CC0C92
:10191000DD1CCC0CDD1C8C0D9D1DFC01808191819A
:10192000A281B381BF70488D598D6A8D7B8D481718
:1019300059076A077B0728F1F80180839183A28306
:10194000B38381E0D6CF803199F64C895D896E8969
:101950007F894D0D511D611D711D22E0CE018096C4
:101960000E94910A009721F2DD24EE24FF24CC0C82
:10197000DD1CC80ED91EF60180819181B0E0A0E087
:10198000D2CF80E0B6CF0F931F93CF93DF93FC01AC
:101990002081211106C081E0DF91CF911F910F912D
:1019A0000895EC01828187FF4DC04489558966897D
:1019B00077898681978121E080960E94910A00971D
:1019C00029F489818160898380E0E6CF0C811D81C3
:1019D0000F70112725E0000F111F2A95E1F7080F5E
:1019E000191F0115110569F3F8018081853E49F33E
:1019F000888183FF08C0888D998DAA8DBB8D848FC7
:101A0000958FA68FB78F8C8D9D8DF801938F828FC8
:101A10008C8D9D8DAE8DBF8DB58BA48BE0916202B8
:101A2000F0916302309759F0B8016A5E7F4FC801A8
:101A300048960995F801808D918D938B828B8A81D0
:101A40008F778A838E819F8180960E944F0A882398
:101A500009F4B7CFA0CF4F925F926F927F928F928F
:101A60009F92AF92BF92CF92DF92EF92FF920F932D
:101A70001F93CF93DF93EC014A015B014C845D849B
:101A80006E847F84A881AA2309F486C04889598975
:101A90006A897B89481559056A057B0569F08114B7
:101AA0009104A104B10451F41C861D861E861F8674
:101AB000888A998AAA8ABB8A81E073C0A3FF59C029
:101AC000088D198D2A8D3B8D081519052A053B05B2
:101AD00008F462C0EE81FF81848190E009968A015A
:101AE0009B010150110921093109082E04C03695C6
:101AF0002795179507950A94D2F775016401B1E00F
:101B0000CB1AD108E108F10804C0F694E794D79401
:101B1000C7948A95D2F7C016D106E206F30628F0DC
:101B2000452B462B472B09F052C0A6FF4BC0848D96
:101B3000958DA68DB78D8C879D87AE87BF878E01CB
:101B4000045F1F4FC114D104E104F10409F4B0CFC4
:101B50004C855D856E857F8598018E819F810E9471
:101B6000520C91E0C91AD108E108F108181654F393
:101B700013C0A5FFAFCFEE81FF818681978125E05D
:101B8000880F991F2A95E1F7B0E0A0E08815990524
:101B9000AA05BB0508F08CCF4C865D866E867F86D5
:101BA00080E0DF91CF911F910F91FF90EF90DF9038
:101BB000CF90BF90AF909F908F907F906F905F90ED
:101BC0004F9008958C8D9D8DAE8DBF8DB4CFC01A72
:101BD000D10AE20AF30AB3CFCF93DF93EC010E945C
:101BE000C30C1882DF91CF9108953F924F925F927C
:101BF0006F927F928F929F92AF92BF92CF92DF921D
:101C0000EF92FF920F931F93CF93DF93CDB7DEB781
:101C100028970FB6F894DEBF0FBECDBF4C01DC0194
:101C200012968C911297806812968C931297169642
:101C3000AD90BC9017971C964D905D906D907C90E8
:101C40001F97411451046104710409F05AC0D50171
:101C500018968D919D910D90BC91A02D8D839E83A2
:101C6000AF83B887CD80DE80EF80F884BFEFCB1ADA
:101C7000DB0AEB0AFB0AF501808D918DA28DB38DF5
:101C80008C159D05AE05BF0528F482E0C82ED12C29
:101C9000E12CF12C9E012F5F3F4FB701A601C5013A
:101CA0000E94520C87FD13C0882341F089819A81DC
:101CB000AB81BC81892B8A2B8B2B41F18D819E813D
:101CC000AF81B885C816D906EA06FB0679F6312C2D
:101CD000832D28960FB6F894DEBF0FBECDBFDF91DF
:101CE000CF911F910F91FF90EF90DF90CF90BF9019
:101CF000AF909F908F907F906F905F904F903F90AC
:101D000008954D825E826F827886ACCF0FEF1FEF11
:101D10002FEF3FE0B701A601C5010E94F20B382E5C
:101D20008823A9F2411451046104710479F09701E8
:101D30008601B301A201C5010E94F20B882339F28A
:101D4000F401C486D586E686F786C2CFD5011896FB
:101D5000CD92DD92ED92FC921B97F2CF81E08093C1
:101D6000620380E4809384031092630310928503DE
:101D70008CEA90E00E94100683E294E00C94150631
:101D800084B7877F84BFE0E6F0E08081886180834C
:101D900086E08083808180648083089502C0959569
:101DA00087956A95E2F7092E000CAA0BBB0B2091D0
:101DB00070002E7F209370002091B0002C7F209324
:101DC000B0002091B100277F2093B1002091B60090
:101DD0002F7D2093B600209170002D7F20937000FE
:101DE0002091B10024602093B1002091B1002C7F9C
:101DF0002093B10023E830E03093700220936F020B
:101E00000097A105B10521F481E090E0A0E0B0E0E9
:101E10008093670290936802A0936902B0936A026C
:101E200080E29CE1909365028093640210926B02C1
:101E300010926C0210926D0210926E021092660265
:101E400080916F02909170028093B2008091700037
:101E5000816080937000089585E10E94FA02BC01C0
:101E6000990F880B990B0E947E2E27E230EA49E8F1
:101E70005BE30E94332F60935A0270935B0280935E
:101E80005C0290935D020895E0910101409102018E
:101E90002091030130E02C5E3F4F322F2227330F79
:101EA000F0E24F9FA00111244E2B242B352BFC0177
:101EB000318320832091CE024091CF028091000196
:101EC00090E0982F8827990F990F990FF0E24F9F74
:101ED000A0011124842B952B30E035952795822B7A
:101EE000932BFB01918380830895CF93DF93EB01C4
:101EF00020E2FB013C96DC011C9601900D922A9594
:101F0000E1F72A813B81FC01338322834C815D818F
:101F10006E817F81448355836683778348855985A5
:101F20006A857B854087518762877387DF91CF9170
:101F300008950C960C94C30CFC01848583FF17C094
:101F400084A195A1A6A1B7A1448D558D668D778DED
:101F5000841B950BA60BB70B811520E89207A105F2
:101F6000B10520F08FEF9FE7A0E0B0E0089580E09A
:101F700090E0DC01F1CF90E080E008958F929F9295
:101F8000AF92BF92DF92EF92FF920F931F93CF9386
:101F9000DF93EC017B012881222309F4BBC08A81F5
:101FA00080FFB8C088889988AA88BB8823FF21C091
:101FB000888D998DAA8DBB8D88199909AA09BB09AD
:101FC00082309105A105B10518F5009709F530E0BB
:101FD00020E0A901481B590BCA01DF91CF911F9145
:101FE0000F91FF90EF90DF90BF90AF909F908F90F8
:101FF000089525FF0DC0EE81FF818681978135E030
:10200000880F991F3A95E1F78815990509F488C05A
:1020100084011170EE81FF81B501A40189E07695FC
:102020006795579547958A95D1F725FF27C0848DE9
:10203000958DA68DB78D480F591F6A1F7B1F8E8106
:102040009F8120E080960E94910A009709F462C067
:10205000800F911FFC018081F70180838889998915
:10206000AA89BB890196A11DB11D888B998BAA8B6A
:10207000BB8B21E030E090E080E0ABCFD380D42276
:102080000115110581F4D1100EC089288A288B28EA
:1020900081F526FF29C0848D958DA68DB78D8C87FF
:1020A0009D87AE87BF87EE81FF814C855D856E85FC
:1020B0007F854250510961097109848104C0440F30
:1020C000551F661F771F8A95D2F780899189A2894B
:1020D000B389840F951FA61FB71FAC01BD014D0D1D
:1020E000511D611D711DABCF8C8D9D8DAE8DBF8D32
:1020F000D6CF4C855D856E857F859E01245F3F4FE1
:10210000CF010E94520C87FD05C08111CCCF888180
:10211000807749F48981826089838FEF9FEF5DCF5B
:1021200030E020E0A8CF21E030E081E090E051CF26
:10213000EF92FF920F931F93CF93DF931F92CDB730
:10214000DEB77C01962FF701408951896289738936
:102150008A019B0185E036952795179507958A9505
:10216000D1F70F7011F0911129C0BE016F5F7F4F41
:10217000C7010E94BE0F813051F090E080E00F90C7
:10218000DF91CF911F910F91FF90EF900895F7018C
:1021900080899189A289B3894F96A11DB11D808B39
:1021A000918BA28BB38BF701868197818796F0E2A2
:1021B0000F9F90011124820F931FE1CF405E5F4F6C
:1021C0006F4F7F4F408B518B628B738BECCFCF93D4
:1021D000DF931F92CDB7DEB7BE016F5F7F4F0E94C6
:1021E000BE0F019731F4898190E00F90DF91CF917C
:1021F00008958FEF9FEFF9CF0C960C94E7108F9214
:102200009F92AF92BF92CF92DF92EF92FF92CF93C5
:10221000DF93EC018C8C9D8CAE8CBF8CC88CD98CE0
:10222000EA8CFB8C0C960E94E71097FD08C08C8E00
:102230009D8EAE8EBF8EC88ED98EEA8EFB8EDF91BC
:10224000CF91FF90EF90DF90CF90BF90AF909F9095
:102250008F9008952F923F924F925F926F927F924C
:102260008F929F92AF92BF92CF92DF92EF92FF92A6
:102270000F931F93CF93DF93EC015B014A01888199
:1022800083FFC5C08A8181FFC2C082FDB7C0A4019F
:1022900070E060E088899989AA89BB8980959095CA
:1022A000A095B09584179507A607B70708F4AFC0A7
:1022B00064011E018CE0280E311C088919892A89C5
:1022C0003B89C114D10409F4E1C08E819F81B90119
:1022D000A80129E076956795579547952A95D1F7F6
:1022E000DC011396FC90F4221170F1101BC04C8598
:1022F0005D856E857F850115110509F0FBC04115CF
:1023000051056105710509F488C091010E94520CC4
:1023100087FD7DC0811106C0CE010E94F50D882386
:1023200009F475C0EE81FF814C855D856E857F85E2
:102330004250510961097109848104C0440F551F3D
:10234000661F771F8A95D2F780899189A289B38900
:10235000840F951FA61FB71FAC01BD014F0D511D66
:10236000611D711D0115110529F4C114B2E0DB06D0
:1023700008F06EC080E092E0801B910B76018C1516
:102380009D0508F47C010115110571F448885988F0
:102390006A887B88888D998DAA8DBB8D25E048162B
:1023A00059066A067B0608F421E0CF0180960E9458
:1023B000910A009761F1A701B501800F911F0E945A
:1023C0002C300E0D1F1D0115124039F48E819F8196
:1023D00080960E944F0A8823D1F088899989AA891A
:1023E000BB898E0D9F1DA11DB11D888B998BAA8B5A
:1023F000BB8BAE0CBF1CCE18DF085FCF488D598D4C
:102400006A8D7B8DCE010E942B0D811140CF898179
:10241000816089838FEF9FEF54C08C8D9D8DAE8D31
:10242000BF8D0097A105B10571F4CE010E94F50D95
:10243000882369F38C859D85AE85BF858C8F9D8FA4
:10244000AE8FBF8F6FCF8C879D87AE87BF876ACFD8
:1024500083A194A1A5A1B6A1481759076A077B07D4
:1024600041F410A28FEF9FEFDC0183A394A3A5A3F7
:10247000B6A3EE81FF819501808191810E948C0934
:10248000882329F2E12C82E0F82EA7CF8A81488D9B
:10249000598D6A8D7B8D401751076207730738F499
:1024A000088F198F2A8F3B8F80688A8306C02091FE
:1024B000620230916302232BB9F78A8183FD14C035
:1024C000C401DF91CF911F910F91FF90EF90DF90AA
:1024D000CF90BF90AF909F908F907F906F905F90C4
:1024E0004F903F902F900895CE010E94C30C811110
:1024F000E7CF8DCFFC0142505109610971098481F8
:1025000004C0440F551F661F771F8A95D2F7808934
:102510009189A289B389480F591F6A1F7B1F2ACF4F
:10252000CF93DF931F92CDB7DEB7898341E050E0B0
:10253000BE016F5F7F4F8FE394E00E942A110F90DE
:10254000DF91CF9108950C960C942A11CF93DF93CD
:102550001F92CDB7DEB7698341E050E0BE016F5FE7
:102560007F4F0C960E942A110F90DF91CF91089512
:102570008F929F92AF92BF92DF92EF92FF920F9352
:102580001F93CF93DF930115110509F44EC0D801B5
:102590005D96ED90FC90E114F10409F446C0F80159
:1025A00049015A01D72E162F682FC78D81E08093DD
:1025B0006203C09384031092630310928503D701D2
:1025C000ED91FC910190F081E02DC701099580E02B
:1025D0000E94C903682D613208F060E241E08C2F4F
:1025E0000E94B9041092C4028093C50290E0B0E04A
:1025F000A0E088169906AA06BB0629F5012FC12F6F
:10260000DD2D8C2F801B90E0B0E0A0E088159905AF
:10261000AA05BB05D8F4D701ED91FC910284F3859E
:10262000E02DC70109958993ECCF83E090E0DF911D
:10263000CF911F910F91FF90EF90DF90BF90AF90DF
:102640009F908F90089586E090E0F1CF90E080E039
:10265000EECFCF92DF92EF92FF920F931F93CF9323
:10266000DF9300D000D01F92CDB7DEB741E065E028
:1026700080E40E94B904F82E1092C4028093C5022F
:102680008E010F5F1F4F8091C402F81641F083E264
:1026900094E00E94A105F80181938F01F4CF6A8133
:1026A0007B8176276727762790E080E00E947C2E4A
:1026B00020E030E040E856E40E94622D20E030E067
:1026C00048E453E40E94332F20E030E040E058E338
:1026D0000E94332F20E030E0A9010E94632D20E00A
:1026E00030E04AE754E40E94332F6B017C012091D3
:1026F000C6023091C7024091C8025091C9020E949F
:10270000622D26E031EC4EED52E40E94D42D609310
:10271000D5027093D6028093D7029093D8026C8131
:102720007D8176276727762784E0769567958A9559
:10273000E1F76851710990E080E00E947C2E2DEC59
:102740003CEC4CE45DE30E94332F20E030E048E4B1
:1027500052E40E94622D60935E0270935F02809348
:10276000600290936102C092CA02D092CB02E092C2
:10277000CC02F092CD020F900F900F900F900F901F
:10278000DF91CF911F910F91FF90EF90DF90CF904D
:1027900008952F923F924F925F926F927F928F9205
:1027A0009F92AF92BF92CF92DF92EF92FF920F93E0
:1027B0001F93CF93DF93CDB7DEB766970FB6F8942C
:1027C000DEBF0FBECDBF81E08093620388E68093B9
:1027D0008403109263031092850390E080E00E94CE
:1027E000100680E00E94C90340E067E088E60E948E
:1027F000B904D82E1092C4028093C5027E018DE0E8
:10280000E80EF11C87015801AE18BF088091C40280
:10281000D81641F083E294E00E94A105F80181936B
:102820008F01F1CF83E294E00E94150680E0F7E08B
:10283000AF16B10409F0F4C08D85282F22952F70B2
:102840009AE08F70299F800D11248093CE028E858F
:10285000282F22952F708F70299F800D112480932F
:10286000CF028F85282F30E0E4E035952795EA9553
:10287000E1F723708F70299F800D11248093000150
:102880008989282F22952F708F70299F800D112400
:10289000809301018A89282F22952F708F70299F9C
:1028A000800D1124809302018B89282F22952F708F
:1028B0008F70299F800D1124809303017090CE02A8
:1028C0008091CF028D8B909100019E8B60900101D1
:1028D000E0910201EC8B809103019CE0E6E1F1E0E4
:1028E0008E010F5F1F4FD80101900D929A95E1F76D
:1028F000282F30E0225E3F4F032E000C440B550B77
:10290000893199F08A3189F08B3179F08C3169F015
:102910007CE0872E912CA12CB12C8D3159F49EE0B6
:10292000892E912CA12CB12C05C06DE0862E912C06
:10293000A12CB12C837051F4FC8980E8282E81E50C
:10294000382E44244394512CF33018F4212C312C8C
:102950002101281939094A095B0960E873E381EE0E
:1029600091E00E94A52F6B017C01A501940160E01C
:1029700075E882EE91E00E94A52FC60ED71EE81ED4
:10298000F91E46015701820C931CA41CB51CF801CA
:102990008C898150990B7C01CF01801B910B8E1586
:1029A0009F056CF4A191B0E020E831E541E050E0F2
:1029B0000E940E30860E971EA81EB91EEDCF9E896E
:1029C000292F30E0A0E1BEE00E94FF2F6B017C01C7
:1029D000ED892E2F30E0ACE3B0E00E94FF2FC60E51
:1029E000D71EE81EF91EC70CD11CE11CF11CA62D38
:1029F000B0E020E831E541E050E00E940E30C60E24
:102A0000D71EE81EF91EC80CD91CEA1CFB1CC0927C
:102A10001003D0921103E0921203F092130381E0AD
:102A200066960FB6F894DEBF0FBECDBFDF91CF9193
:102A30001F910F91FF90EF90DF90CF90BF90AF90DC
:102A40009F908F907F906F905F904F903F902F90CE
:102A50000895FB0101900020E9F73197AF01461B73
:102A6000570BDC01ED91FC910280F381E02D09947C
:102A700062E771E00C9429158F929F92AF92BF92FA
:102A8000EF92FF920F931F93CF93DF93CDB7DEB7F3
:102A9000A1970FB6F894DEBF0FBECDBF7C01FA013F
:102AA000CB0119A2223008F42AE08E010F5D1F4FDE
:102AB000822E912CB12CA12CBF01A50194010E9462
:102AC000DD2FF901CA016A300CF5605DD8016E9303
:102AD0008D01232B242B252B79F790E080E0109794
:102AE00021F0BD01C7010E942915A1960FB6F894E7
:102AF000DEBF0FBECDBFDF91CF911F910F91FF9031
:102B0000EF90BF90AF909F908F900895695CDECF5B
:102B1000242F462F50E070E060E00C943C154F925B
:102B20005F926F927F928F929F92AF92BF92CF925D
:102B3000DF92EF92FF926B017C01AC019B010E943E
:102B4000A02F65E771E0811126C046015701E89486
:102B5000B7F82FEF3FEF4FE75FE7C501B4010E94E1
:102B6000A02F81110CC02FEF3FEF4FE75FE7C501AA
:102B7000B4010E94CF2D69E771E0181664F02FEFC1
:102B80003FEF4FE75FE4C701B6010E942E2F1816F2
:102B900094F46DE771E083E394E0FF90EF90DF90B1
:102BA000CF90BF90AF909F908F907F906F905F90ED
:102BB0004F900C9429152FEF3FEF4FE75FECC701C3
:102BC000B6010E94CF2D87FDE4CF20E030E0A901BF
:102BD000C701B6010E94CF2DB12CA12C87FF08C0E0
:102BE0008DE20E9490125C01F7FAF094F7F8F094ED
:102BF0002AE037ED43EA5BE3C701B6010E94632D8B
:102C00002B013C010E944D2E6B017C010E947C2E09
:102C10009B01AC01C301B2010E94622D2B013C015A
:102C20002AE0B701A60183E394E00E943C157C01F1
:102C3000EA0CFB1C8EE20E949012E80EF91E20E0C6
:102C400030E040E251E4C301B2010E94332F2B0176
:102C50003C010E944D2E4B01B12CA12C2AE0B50164
:102C6000A40183E394E00E943C15E80EF91EC5011F
:102C7000B4010E947C2E9B01AC01C301B2010E94F1
:102C8000622D20E030E040E251E40E94332F0E94A8
:102C90004D2EAB0170E060E02AE083E394E00E94F7
:102CA0003C158E0D9F1DFF90EF90DF90CF90BF9051
:102CB000AF909F908F907F906F905F904F9008950E
:102CC0000C942915FC01808181110FC080E2DF0185
:102CD000982F1D929A95E9F777836683DB01159605
:102CE0009C91903129F0903211F080E0089580E4B9
:102CF000808381E08283089585ED8093BC0080917C
:102D00005E0390915F03A0916003B0916103079609
:102D1000A11DB11D23E0B695A795979587952A9596
:102D2000D1F72091BC0024FD03C010925C030895EC
:102D300040915E0350915F03609160037091610365
:102D4000452B462B472B69F30097A105B10541F0B0
:102D50002AE12A95F1F700C00197A109B109E1CF55
:102D600080915D030C94A8032F923F924F925F9243
:102D70006F927F928F929F92AF92BF92CF92DF928B
:102D8000EF92FF920F931F93CF93DF93CDB7DEB7F0
:102D900029970FB6F894DEBF0FBECDBF1C017C8310
:102DA0006B83FA01DB018C918077D1F480E0299666
:102DB0000FB6F894DEBF0FBECDBFDF91CF911F914C
:102DC0000F91FF90EF90DF90CF90BF90AF909F90CA
:102DD0008F907F906F905F904F903F902F900895CD
:102DE000D1018C918111E2CF6180728080818370EA
:102DF00009F4C4C0C3010C966DE070E00E94B52FC9
:102E00006F5F69832A838F01EB81FC81F987E887F3
:102E100040E050E0BA01CF010E942B0D812C912C93
:102E2000C12CD12CE12CF12C1F825801F6E0AF0E01
:102E3000B11CE885F98580899189A289B3899C01B3
:102E4000AD0165E056954795379527956A95D1F779
:102E50002B833C834D835E834B805C8061E0CF019C
:102E60000E949810FC01892B09F08BC0A885B985B8
:102E700011968C9181119ACF8A818274823409F0E3
:102E800095CFE1102401E981EE1608F075C160E0EC
:102E9000888599850E949810892B09F047C1A885DB
:102EA000B98511968C91811181CFE885F985808152
:102EB00085FD7CCF80899189A289B38981159E4F38
:102EC000AF41B10508F072CF888599850E94F50D54
:102ED000882309F46BCFA885B9851696ED91FC91EE
:102EE00017971C968D909D90AD90BC901F97B2E067
:102EF0008B1A9108A108B108848104C0880C991C20
:102F0000AA1CBB1C8A95D2F780899189A289B389B2
:102F1000880E991EAA1EBB1E25E0B501A401CF0193
:102F200080960E94910A6C01009709F43FCFFC0142
:102F300020E032E0119221503040E1F7FF24F39479
:102F4000A885B98516960D90BC91A02DBC83AB8346
:102F500012968C911297F81608F0EAC09601B50106
:102F6000A4014F0D511D611D711D8D919C910E94F9
:102F70008C09882309F41ACFF394E2CFB1E0B98326
:102F800041CF2081253E11F021110FC0E11002C078
:102F90008B809C80B981EB1608F4E394222309F41A
:102FA0006BCF253E29F4F12C44CF3981E31638F15B
:102FB0002E32C9F333853F3009F057C0F11021C0DC
:102FC00026FF37CF2F71F22EC584D22E8D2D815042
:102FD000990BAC019DE0949F9001959F300D1124B9
:102FE0002615370500F7512CA4E0A51588F081813E
:102FF000928162167306A9F4892BA9F61ACFE12CE7
:10300000D7CFDA942D11CFCF25852C15F9F2CBCF60
:10301000BAE0B51518F084819581EBCF8681978150
:10302000E8CF8F3F910511F008F0BDCF4FEB480F6F
:103030004A3108F4805EB9016F5F7F4FD801139663
:103040004D915C91240F351FD9019C912FEB290FD5
:103050002A3108F4905E9813A6CF53943296BDE0BF
:103060005B1609F4E6CE9B01BFCF33FD9CCFFF205A
:1030700009F44CC021E0D21299CE9F01255F3F4F49
:1030800090E090FB979597F98191980F2E173F0745
:10309000C1F7C9128BCEBA81B7FD88CE80E2F101AB
:1030A00011928A95E9F7A885B9851696ED91FC915C
:1030B000D1011796FC93EE93169715965C924E925B
:1030C0001497A885B9855C964D915D916D917C9121
:1030D0005F97D10118964D935D936D937C931B97E9
:1030E0004201BFE08B229924DF01979635E0880CDE
:1030F000991C3A95E1F79D01280D391DD9011B96C0
:103100008C9183FF90C1F101108250CE4BE050E0D2
:10311000B501CF010E941F30892B09F08ACED8015A
:103120008C9180FFB8CF21E02F8383CEE394ABCE88
:1031300090E0B0E0A0E029E0880F991FAA1FBB1F14
:103140002A95D1F7E885F985408951896289738983
:10315000840F951FA61FB71F808B918BA28BB38BFB
:10316000AB81BC8112968C91823030F4B0E1EB0ED1
:10317000E981EE1608F499CEFF81FF2309F45BC0C4
:10318000D8011596BC9082E0E82EF12C9EE7A92E7E
:103190006801B6E0CB0ED11CF801818192819C01BF
:1031A0002E0D3F1D0380F481E02D8E0F9F1F8E1783
:1031B0009F0779F0A901B5E0440F551FBA95E1F7D3
:1031C000240F351F4191042E000C550B2427352761
:1031D000EECFF3E0FB1510F4A3E0BA2E94E09B0DC4
:1031E000822F8F708A3008F092C0805DF801E90F5D
:1031F000F11D8683F4E036952795FA95E1F7915015
:10320000B91670F3F801EB0DF11DA68240E050E015
:10321000BA01888599850E942B0D61E08885998582
:103220000E949810009709F074C0A885B98511967E
:103230008C918111BBCDA20170E060E0E5E0440F0C
:10324000551F661F771FEA95D1F7888599850E94DB
:103250002B0D882309F4AACDF980FA94EF2C5FE0B6
:10326000B52E680131E1C30ED11C6DE0A62EEE2013
:1032700009F47CC060E0888599850E949810FC0163
:10328000892B09F493CDA885B98516962D913C918B
:10329000D90190968C919097816090968C938E2D09
:1032A000EF1001C080648083B3861486D80116961F
:1032B00090E090FB979597F92D91920FCA16DB0637
:1032C000C1F79587138E128ED80113962D913C91DC
:1032D0008F718150990BA89EA001A99E500D1124B9
:1032E00080E04615570578F5D901A40FB51F6C91FC
:1032F000062E000C770B853088F5728361838F5F13
:103300004F5F5F4F32968D3061F7EA94B0CF895CA2
:103310006DCFFC012081222309F48DCF238523FD6D
:103320007CCF4BE050E0BC01C6010E941F30892BCE
:1033300009F073CFFFEFEF1AFF0A24E6E216F1045B
:1033400009F02ACF33CD61E070E06416750611F400
:1033500070E060E0719561957109CDCF8B3018F404
:1033600075836483CCCF77836683C9CFE885F9857D
:1033700080889188A288B38860E0CF010E9498106D
:103380006C01892B09F412CD80E2D6011D928A9539
:10339000E9F7F80136968BE0D60101900D928A95F7
:1033A000E1F7F80180818871D6011C968C93E09139
:1033B0006202F0916302309761F1B601625F7F4F64
:1033C000C6014096099545E0B694A79497948794D2
:1033D0004A95D1F72401D60150968D919C91519731
:1033E00053969C938E93529759969C938E9358978D
:1033F0001E968D919C911F9757969C938E935697EE
:10340000A885B9851696ED91FC9180A1816080A375
:1034100045CE81E298E2F601918B808B80E098E0C6
:1034200097878687D0CFAF01480D591DDA01D29614
:103430008C918771D1018C93D9011B969C919871C5
:1034400019F48860D1018C93D1011396FC921397E3
:103450008A81827321F08C91817109F054CE8A8126
:103460008F70D10112968C93129743A154A165A13C
:1034700076A154964D935D936D937C9357978E0EE2
:103480009F1EF40183AD94ADB0E0A0E0DC0199276C
:103490008827EF5BFF4F4081518170E060E0842B13
:1034A000952BA62BB72BF101848F958FA68FB78F05
:1034B000F3E48F0E911CD4014D915D916D917C913F
:1034C000F101408F518F628F738FFA81F5FD02C039
:1034D00081E06DCCC1010E942B0D882309F413CE2D
:1034E000F7CF2F923F924F925F926F927F928F927F
:1034F0009F92AF92BF92CF92DF92EF92FF920F9383
:103500001F93CF93DF93CDB7DEB7E8970FB6F8944C
:10351000DEBF0FBECDBF7C018B014BAB19821A827F
:10352000DC018C918823D1F080E0E8960FB6F89406
:10353000DEBF0FBECDBFDF91CF911F910F91FF90E6
:10354000EF90DF90CF90BF90AF909F908F907F9043
:103550006F905F904F903F902F90089580918606D6
:10356000807711F3FB01808166E876E08F32B9F451
:103570008F0181918F32E1F360918C0670918D06FD
:10358000811104C0C7010E946216CFCFCE010196FF
:103590000E946216BE016F5F7F4F882329F29E0151
:1035A0002E5C3F4F38AF2FABF8019F012F5F3F4F8D
:1035B0008081803209F495C0FDA3ECA39F01A9018D
:1035C0004E1B5F0B8901D9018D919D01882371F0FC
:1035D0008F3209F088C0CF01840F951F8C01DC0168
:1035E0002D91CD012032D1F32F32C1F3DA01AE0F8C
:1035F000BF1FAD014E1B5F0BEA17FB0709F48DC01F
:103600008E918E32B1F38032A1F34F3F510511F00C
:103610000CF08ACF5BA34AA3DE0197966D0180E28E
:103620008D93AFA8B8ACAA16BB06D1F7DF01CD01C8
:103630008E1B9F0B2D912E32D1F32032C1F37724B4
:103640007394009709F0712C9A01215031095F01A0
:10365000A40EB51E2F3F320709F062C08EA0512C78
:10366000B7E0BAAB312C612CA8E04A2E841795073D
:103670000CF094C0DF01A80FB91FAC90AEAAAA2D20
:10368000A03209F489C0AE3221F48217930709F001
:1036900083C09EA8B92DB232A1F0BC3791F0A92DFC
:1036A000AA52A63010F4BD3261F4AEA9AA53A630D6
:1036B00040F0AEA9AB55A33020F0AEA9A152AE3573
:1036C000C8F18217930709F0ADC08AA98A3009F4BE
:1036D000B4C0C901BAE0BAABA8E03A2EB0E14B2EB3
:1036E00047C0F90162CF8C3509F41ECF982F977F20
:1036F000923209F419CF8A3309F416CF982F9F7BA1
:103700009C3309F411CF92EC980F923008F40CCF4F
:1037100080528F3508F453CF07CF50E040E07ACF86
:10372000D5019E905D01BEE29B1609F497CF215012
:10373000310990CF8217930741F2AAA8A31408F485
:1037400075C0AEA9A156AA31D0F4AEA9A052AEABB5
:10375000542822242394230C5601A30CB11CD50118
:10376000AEA8AC92A6E0BA2E322CB21408F0822C8D
:1037700001967CCF712CBFE5BEABBFE59B2EAFEBB6
:10378000A90DAA3130F76428E4CFC901AAE0AAAB99
:10379000A8E03A2EB0E14B2E712CEACF8EA28FA179
:1037A000803209F4C1CE772019F1852D862111F0E0
:1037B00082E0582E59A2F8018081882359F121E036
:1037C000AE014F5D5F4FC7010E94B416882309F414
:1037D000ABCE80E2F701DE01119601900D928A9541
:1037E000E1F7C7010E94EC0DBE016F5F7F4FDCCE99
:1037F00081E089A3912CF601E80DF91D8EE7808305
:10380000E8E2F0E0EC0FFD1F8E0E9F1E81E3D40175
:103810008C93D1CF2BA9AE014F5D5F4FC7010E94A2
:10382000B41683CEAAA9A31508F0A4CFBAA9BA30BA
:1038300021F0281739070CF0A8CF8EA2712CAFCF3A
:103840008F929F92AF92BF92CF92DF92EF92FF92B0
:103850000F931F93CF93DF93CDB7DEB76A970FB661
:10386000F894DEBF0FBECDBF8091580290915902EF
:103870000196909359028093580260E081EB96E0A4
:103880000E9418067C0107E110E020E030E0AE0164
:103890004F5F5F4F6DE281EB96E00E943106E82AB0
:1038A000F92A89819A819827892798279093B406C5
:1038B0008093B3068B819C819827892798279093C2
:1038C000B6068093B5068D819E8198278927982713
:1038D0009093B8068093B7068F819885982789279B
:1038E00098279093BA068093B90689859A85982778
:1038F000892798279093BC068093BB068B859C856F
:103900009827892798279093BE068093BD068D85BA
:103910009E859827892798279093C6068093C50689
:103920008F858093C806888999899093C006809373
:10393000BF068A899B899093C2068093C1068C89B1
:103940009D899093C4068093C3068F898093C9068E
:1039500062E081EB96E00E941806E82AF92A01E06D
:1039600010E020E030E0AE01465E5F4F64E181EBA5
:1039700096E00E943106E82AF92A8A8D8695982FCA
:1039800093708091C7068C7F892B8093C70662E075
:1039900081EB96E00E941806E82AF92A01E010E07F
:1039A00020E030E0AE01475E5F4F61E081EB96E0E2
:1039B0000E943106E82AF92A898D880F982F9C7079
:1039C0008091C706837F892B8093C70601E010E0B2
:1039D00020E030E0AE01485E5F4F65E181EB96E0AC
:1039E0000E9431068E299F299093CB068093CA06A8
:1039F0008091B3069091B4060E94D1000E948F1569
:103A000061E871E083E394E00E9460168091B5065E
:103A10009091B6060E94D1000E948F1561E871E076
:103A200083E394E00E9460168091B7069091B806F7
:103A30000E94D1000E948F1561E871E083E394E059
:103A40000E9460166091BF067091C006072E000CA0
:103A5000880B990B0E947E2E2AE939E949E15EE341
:103A60000E94332F0E948F1561E871E083E394E098
:103A70000E9460166091C1067091C206072E000C6C
:103A8000880B990B0E947E2E2AE939E949E15EE311
:103A90000E94332F0E948F1561E871E083E394E068
:103AA0000E9460166091C3067091C406072E000C38
:103AB000880B990B0E947E2E2AE939E949E15EE3E1
:103AC0000E94332F0E948F1561E871E083E394E038
:103AD0000E9460168091B9069091BA060E949200E9
:103AE0000E948F1561E871E083E394E00E94601604
:103AF0008091BB069091BC060E9492000E948F1597
:103B000061E871E083E394E00E9460168091BD0655
:103B10009091BE060E9492000E948F15E09058027C
:103B2000F09059020091310410913204B7010F2C2A
:103B3000000C880B990B0E947E2E4B015C01B80192
:103B4000012E000C880B990B0E947E2E20E030E0A5
:103B500040E05FE30E94332F9B01AC01C501B4013B
:103B60000E942E2F87FD94C180915702882309F46B
:103B70008FC1109257028091C30281119EC10E9491
:103B8000AE0EE016F1060CF46CC10E94291381E020
:103B9000809357028091140190911501892B21F097
:103BA00061E084E00E9490020E94C9130E942C0FE1
:103BB0008CE20E949012609103014AE050E083E39E
:103BC00094E00E9488158DE20E949012809102017B
:103BD0008A3018F480E30E949012609102014AE05A
:103BE00050E083E394E00E9488158DE20E949012D9
:103BF000809101018A3018F480E30E949012609154
:103C000001014AE050E083E394E00E94881584E5D6
:103C10000E949012809100018A3018F480E30E9483
:103C20009012609100014AE050E083E394E00E942A
:103C300088158AE30E9490128091CF028A3018F48E
:103C400080E30E9490126091CF024AE050E083E34B
:103C500094E00E9488158AE30E9490128091CE021F
:103C60008A3018F480E30E9490126091CE024AE0FC
:103C700050E083E394E00E94881561E871E083E3FB
:103C800094E00E9460166091CA027091CB0280910C
:103C9000CC029091CD020E948F158CE20E9490126E
:103CA0006091D5027091D6028091D7029091D8028E
:103CB0000E948F158CE20E949012E091FD02F0E0CC
:103CC000EE0FFF1FE752FD4FC080D1800D2C000C7E
:103CD000EE08FF082AE0B701A601F7FE0BC08DE24F
:103CE0000E94901244275527BA014C195D096E09AC
:103CF0007F092AE083E394E00E943C158CE20E9455
:103D00009012C090D502D090D602E090D702F090E9
:103D1000D802E091FD02F0E0EE0FFF1FE752FD4FE9
:103D200060817181072E000C880B990B0E947E2EFA
:103D30009B01AC01C701B6010E94622D0E948F1544
:103D40008CE20E94901260915E0270915F028091FD
:103D50006002909161020E948F158CE20E94901285
:103D600060915A0270915B0280915C0290915D02B9
:103D70000E948F158CE20E9490124AE050E0609100
:103D8000030383E394E00E9488158CE20E94901262
:103D90004AE050E06091D00283E394E00E948815ED
:103DA000109259021092580260E084E00E94900242
:103DB0008091C302882319F1C090D502D090D60219
:103DC000E090D702F090D802E0915602F0E0EE0FBA
:103DD000FF1FEE5DFE4F60817181072E000C880B86
:103DE000990B0E947E2EA70196010E94632D60937D
:103DF000D5027093D6028093D7029093D802809117
:103E000055028F5F8C3308F04BC080935502809130
:103E100054028A3008F16091D5027091D6028091E7
:103E2000D7029091D8020091FD0210E0000F111FFF
:103E300007521D4F0E944D2EF801718360838091BF
:103E4000FD028F5F8093FD028091FD02823110F0B0
:103E50001092FD0210925402809154028F5F809361
:103E6000540283E394E00E9438156A960FB6F894E2
:103E7000DEBF0FBECDBFDF91CF911F910F91FF909D
:103E8000EF90DF90CF90BF90AF909F908F9008956C
:103E9000E016F10634F38091C302811178CE75CE1D
:103EA00010925502809156028F5F8A3018F48093E9
:103EB0005602ADCF10925602AACFE016F1060CF0D2
:103EC00066CECFCF8F929F92AF92BF92CF92DF926A
:103ED000EF92FF920F931F93CF93DF93CDB7DEB78F
:103EE000C856D1090FB6F894DEBF0FBECDBF5091B2
:103EF000CE024091CF0230910001209101019091BA
:103F00000201809103011F925F931F924F931F92B2
:103F10003F931F922F931F929F931F928F9383E83B
:103F200091E09F938F938E010F5F1F4F1F930F930D
:103F30000E9435302A961FAE2A972B961FAE2B97DC
:103F400021961FAE1EAE219788EE93E0A0E0B0E070
:103F500025968CAF9DAFAEAFBFAF25978EE591E0B4
:103F60009EAF8DAF8DE3E82EF12CEC0EFD1E8CE0A4
:103F7000E80EF11C46E4B801C7010E94711ABE01A7
:103F8000635C7F4F83E394E00E94750F0FB6F89453
:103F9000DEBF0FBECDBF98EE892E93E0992EA12CE7
:103FA000B12C2EE5C22E21E0D22E80913F0481114A
:103FB00032C061E081E10E949002809152029091B2
:103FC0005302019690935302809352022A961FAE99
:103FD0002A972B961FAE2B9721961FAE1EAE2197C8
:103FE00025968CAE9DAEAEAEBFAE2597DEAECDAE05
:103FF00042ECB801C7010E94711ABE01635C7F4F99
:1040000083E394E00E94750F64E670E080E090E046
:104010000E943103CACF60E081E10E94900261EA10
:1040200071E083E394E00E94601683E394E00E94D1
:10403000381584E49FE09093630280936202C8592C
:10404000DF4F0FB6F894DEBF0FBECDBFDF91CF912B
:104050001F910F91FF90EF90DF90CF90BF90AF90A6
:104060009F908F9008951F920F920FB60F92112478
:104070002F933F934F935F936F937F938F939F9370
:10408000AF93BF93EF93FF9386E893E00E94AF0155
:10409000FF91EF91BF91AF919F918F917F916F9120
:1040A0005F914F913F912F910F900FBE0F901F90F6
:1040B00018951F920F920FB60F9211242F938F9382
:1040C0009F93EF93FF93E0919603F0919703808184
:1040D000E0919C03F0919D0382FD1BC09081809133
:1040E0009F038F5F8F732091A003821741F0E091AF
:1040F0009F03F0E0EA57FC4F958F80939F03FF9159
:10410000EF919F918F912F910F900FBE0F901F9065
:1041100018958081F4CF1F920F920FB60F92112441
:104120002F933F938F939F93AF93BF938091B6024A
:104130009091B702A091B802B091B9023091B50246
:1041400026E0230F2D3758F50296A11DB11D2093AF
:10415000B5028093B6029093B702A093B802B093D1
:10416000B9028091BA029091BB02A091BC02B091B9
:10417000BD020196A11DB11D8093BA029093BB02AE
:10418000A093BC02B093BD02BF91AF919F918F915C
:104190003F912F910F900FBE0F901F90189529E817
:1041A000230F0396A11DB11DD2CF1F920F920FB600
:1041B0000F9211242F933F934F935F936F937F93AD
:1041C0008F939F93AF93BF93EF93FF938091B90029
:1041D000887F803609F44AC0F0F5883209F4A7C018
:1041E00018F5803109F49BC0B8F4882309F4F9C0AC
:1041F000883009F494C0FF91EF91BF91AF919F91E6
:104200008F917F916F915F914F913F912F910F907F
:104210000FBE0F901F901895883109F488C0803226
:1042200051F780935A0314C0803409F49DC040F4C0
:104230008033B9F38833F9F680935A0385ECB0C024
:10424000803509F485C0883509F496C0883499F61C
:104250000E947C16D0CF883909F48CC038F5883795
:1042600029F050F4883611F0803729F683E08093E6
:104270005C031092B40257C0883809F47BC08039BF
:1042800019F0803809F0B7CF8091B402803208F07D
:1042900071C0E091B40281E08E0F8093B4028091EE
:1042A000BB00F0E0EC56FD4F80833DC0803B39F011
:1042B000E0F4803A09F479C0883A09F09CCF84E0B0
:1042C00080935C031092930210929202E091C002DC
:1042D000F091C10209958091920281110FC081E095
:1042E000809392021092720209C0803C09F4A6CF1A
:1042F000883C09F4A3CF883B09F07DCFE09193027D
:1043000081E08E0F80939302F0E0EE58FD4F8081A4
:104310008093BB00909193028091920229C080917A
:1043200037038093BB0085EC8093BC0064CF9091F1
:10433000590380915803981758F5E091590381E08B
:104340008E0F80935903F0E0E85CFC4F8081E9CF49
:10435000E091590381E08E0F809359038091BB0057
:10436000F0E0E85CFC4F8083909159038091580302
:104370009817C8F285E8D8CFE091590381E08E0FF5
:10438000809359038091BB00F0E0E85CFC4F808390
:1043900080915B0381115CCF81E08093360384EAD6
:1043A0008093BC0010925C0326CF85EC8093BC0008
:1043B00010925C038091B402803230F4E091B40238
:1043C000F0E0EC56FD4F10826091B40270E0E09195
:1043D000BE02F091BF0284E992E009951092B40206
:1043E0000ACF10925A0334CF1F920F920FB60F923A
:1043F00011242F933F934F935F936F937F938F93EA
:104400009F93AF93BF93EF93FF93789480916F0244
:10441000909170028093B20080916B0290916C0237
:10442000A0916D02B0916E020196A11DB11D809305
:104430006B0290936C02A0936D02B0936E02409158
:104440006B0250916C0260916D0270916E028091CE
:10445000670290916802A0916902B0916A024817C0
:1044600059076A077B07B0F080916602811112C07C
:1044700081E08093660210926B0210926C0210929F
:104480006D0210926E02E0916402F091650209954E
:1044900010926602FF91EF91BF91AF919F918F9122
:1044A0007F916F915F914F913F912F910F900FBE30
:1044B0000F901F9018951F920F920FB60F92112414
:1044C0000F900FBE0F901F901895CF92DF92EF9232
:1044D000FF920F931F93CF93DF931F92CDB7DEB759
:1044E0006C01613051F562E00E9418067C0101E028
:1044F00010E020E030E0AE014F5F5F4F64E1C601A5
:104500000E943106E82AF92A89818E7F8983AE01CB
:104510004F5F5F4F64E1C6010E940E018E299F2903
:10452000F601928F818F0F90DF91CF911F910F91A4
:10453000FF90EF90DF90CF90089562E00E94180600
:104540007C0101E010E020E030E0AE014F5F5F4F02
:1045500061E0C6010E943106E82AF92A89818E7F2E
:104560008983AE014F5F5F4F61E0D5CF4F925F927D
:104570006F927F92BF92CF92DF92EF92FF920F9352
:104580001F93CF93DF9300D000D0CDB7DEB77C016F
:104590006C836A01B22E80E0211180E88C608B83ED
:1045A00063E0C7010E941806AE014D5F5F4F63E1F3
:1045B000C7010E940E01009721F563E0C7010E9428
:1045C0001806AE014C5F5F4F64E1C7010E940E0107
:1045D0000097B9F48A818068807A8F7D8A83BB20B6
:1045E00011F163E0C7010E941806AE014E5F5F4FF4
:1045F00065E1C7010E940E01412C512C3201009748
:10460000F1F00F900F900F900F90DF91CF911F91CD
:104610000F91FF90EF90DF90CF90BF907F906F90C1
:104620005F904F90089563E0C7010E941806A601AD
:1046300066E1C7010E940E01009799F2E2CF60E0A7
:10464000C7010E94180601E010E020E030E0AE0152
:104650004F5F5F4F67E1C7010E943106298126FB4A
:10466000332730F941E058EE451653E05506610412
:10467000710408F440E0342B4FEF441A540A640AE2
:10468000740A3323E1F22295217031E058EE451689
:1046900053E055066104710408F430E0232B89F4DB
:1046A000BB2009F4AECF63E0C7010E94180601E009
:1046B00010E020E030E0A60167E1C7010E9431066A
:1046C000A0CF81E090E09DCFEF92FF920F931F93D8
:1046D000CF93DF931F92CDB7DEB77C0101E010E0EE
:1046E00020E030E0AE014F5F5F4F6FE00E94310687
:1046F000009751F489818D7F8983AE014F5F5F4FB1
:104700006FE0C7010E940E010F90DF91CF911F91C2
:104710000F91FF90EF900895E6E8F3E01382128284
:1047200088EE93E0A0E0B0E084839583A683B7830E
:104730002AE331E03183208325EC30E0358724877C
:1047400024EC30E03787268720EC30E0318B208B5B
:1047500021EC30E0338B228B22EC30E0358B248B44
:1047600026EC30E0378B268B118E128E138E148E32
:10477000E3E2F4E01382128284839583A683B783F5
:104780002CE431E0318320832091610020E731E087
:104790003093B0062093AF06109264041092860600
:1047A0001092870624E62093A6061092AB0620E519
:1047B0002093AC0621E02093AD06E3E3F4E01486F9
:1047C00015861382128284839583A683B7838EE530
:1047D00091E09183808384E190E090933204809310
:1047E000310482E390E09093300480932F04089585
:1047F000CF93DF93CDB7DEB7C659D1090FB6F89482
:10480000DEBF0FBECDBF789484B5826084BD84B511
:10481000816084BD85B5826085BD85B5816085BDBB
:1048200080916E00816080936E0010928100809173
:1048300081008260809381008091810081608093FB
:104840008100809180008160809380008091B10020
:1048500084608093B1008091B00081608093B0004B
:1048600080917A00846080937A0080917A008260DF
:1048700080937A0080917A008E7F80937A00809175
:104880007A00806880937A001092C100E0919603CC
:10489000F091970312E01083E0919203F09193035B
:1048A0001082E0919403F091950388E08083109248
:1048B0009E03E0919A03F0919B0386E08083E09150
:1048C0009803F0919903808180618083E09198033F
:1048D000F0919903808188608083E0919803F09142
:1048E0009903808180688083E0919803F091990317
:1048F00080818F7D808361E084E00E94BE0261E060
:1049000081E10E94BE0261E088E00E94BE0262E096
:1049100080E10E94BE0260E085E10E94BE0262E08A
:1049200087E00E94BE0261E08FE00E94BE0261E06B
:1049300089E00E94BE0260E08EE00E94BE0260E05C
:1049400084E10E94BE0261E086E00E94BE0261E056
:1049500085E00E94BE0260E08FE00E94900260E06D
:1049600089E00E94900261E086E00E94900261E08E
:1049700085E00E94900260E081E10E94900261E087
:1049800084E00E94900261E088E00E949002109210
:10499000C4021092C50210926303109285030E9414
:1049A0008A038FE291E09093C1028093C00280E37A
:1049B00091E09093BF028093BE021093B800BCEACE
:1049C0006B2EB6E07B2E0AE010E28FE5482E84E0E5
:1049D000582E93E4392E25E2222E1092A906109229
:1049E000A6061092AB067092A8066092A7060E94D7
:1049F00027097C01C090A706D090A806D601129680
:104A00000C9361E08AE00E94BE0261E0F6018281BF
:104A10000E949002DFB6F8948091C202811127C0F3
:104A2000E4ECF0E08491E0EBF0E09491E82FF0E02A
:104A3000EE0FFF1FE456FF4FA591B4918C91982380
:104A400021F461E08AE00E94900261E08AE00E9425
:104A5000BE028CB580618CBD8CB580648CBD61E07C
:104A60008DE00E94BE0261E08BE00E94BE02809158
:104A7000C2028F5F8093C202DFBEE091A706F09171
:104A8000A80622E5208381E081838091A906811117
:104A900004C086EA96E00E94F208E091A706F09131
:104AA000A80661E082810E9490027AE0D72E8FEF03
:104AB0000E940609DA94D110FACFE091A706F0918E
:104AC000A80660E082810E94900220E030E0A90107
:104AD00060E086EA96E00E944909813031F10E9447
:104AE00027098E199F09813D974078F31093A606F8
:104AF00086EA96E00E94120961E081E10E9490023C
:104B000060E084E00E94900264E670E080E090E063
:104B10000E94310360E081E10E94900268EC70E045
:104B200080E090E00E94310358CF2AEA31E040E073
:104B300050E068E086EA96E00E944909853051F528
:104B400081E08093AB068091AB06812C912CA12C47
:104B500050E4B52E823019F0812C912C540120E0C4
:104B600030E0A90167E386EA96E00E944909A501C1
:104B7000940169E286EA96E00E944909882311F1CE
:104B80000E9427098E199F09813D974040F330927A
:104B9000A606AECF64E0D62E0E940B098093AA062B
:104BA000DA94D110F9CF8A3A11F482E0CACF0E9488
:104BB00027098E199F09813D974008F4B6CF2092AE
:104BC000A60696CF8091AB068230E1F420E030E07B
:104BD000A9016AE386EA96E00E944909882321F048
:104BE00087E38093A60684CF0E940B09807C803CDB
:104BF00019F473E07093AB060E940B090E940B0935
:104C00000E940B0986EA96E00E941209E091A7062D
:104C1000F091A80680E5808381E0818386EA96E0B2
:104C20009093600480935F0486E896E00E94EC0D08
:104C300081E00E94D00A8823D1F0809186068111FC
:104C40005BCFE6E8F6E0DF01212F1D922A95E9F718
:104C500050928D0640928C0680916404803169F0F8
:104C6000803209F049CF40E44093860608C080E0D6
:104C70000E94D00A8111E1CF3FCF1093860681E0D8
:104C80008093880680918606807709F435CF19AE27
:104C90001AAE18AA1FA648EE53E060E070E049ABD8
:104CA0005AAB6BAB7CAB8EE591E09EA78DA71D86C2
:104CB0001E861C821B824D835E836F8378879A8356
:104CC000898341E06DEF71E0CE010D960E94711A6B
:104CD000BE016F5F7F4FCE018D960E94750F89AD2B
:104CE000811117C084E190E09093320480933104E5
:104CF00082E390E09093300480932F040E94C913C4
:104D0000811115C264E670E080E090E00E943103FA
:104D1000F5CFF12CE12C6E0159E5C50ED11C5601E1
:104D200063E0A60EB11C4E0177E7870E911C3E0191
:104D300089E7680E711C2E019BE7490E511C1E016C
:104D4000A1E82A0E311CFE01E158FF4FCD57DF4F7D
:104D5000F983E883C358D040AE0143585F4FCB5727
:104D6000DF4F59834883C558D040D6011C9210E0CC
:104D700000E0CE01C9960E94E71098018D30F9F04D
:104D80002F5F3F4FF601E00FF11F80838435E1F480
:104D90002D968CAD9DADAEADBFAD2D97AC01BD01D7
:104DA0004150510961097109C957DF4F488359833F
:104DB0006A837B83C758D040EE24E394F12C2E31D4
:104DC00031053CF48901D5CF2E31310510F48A30FC
:104DD000C9F721503109F601E20FF31F1082D60105
:104DE0008C918F3209F439C12230310508F435C174
:104DF000F60101900020E9F73197EC19FD0932978F
:104E000008F42BC1F601808191818334F3E49F077C
:104E100009F466C1A4F4833541E3940709F46BC136
:104E2000833552E3950709F46AC18335904309F04D
:104E300014C11092100181E0809313010EC18035DE
:104E400079E4970709F460C18435ADE49A0741F02D
:104E50008335944409F001C181E08093C302FDC011
:104E60009F928F927F926F925F924F923F922F927A
:104E7000CC57DF4FE881C458D040EF93CD57DF4F78
:104E8000F881C358D040FF93CA57DF4F2881C658D6
:104E9000D0402F93CB57DF4F4881C558D0404F9318
:104EA00087E092E09F938F93BF92AF920E94583019
:104EB000EF966EAD7FADEF97C557DF4F798368836F
:104EC000CB58D040C158DF4F88819981CF57D0400F
:104ED000C357DF4F99838883CD58D040D1010D90BF
:104EE000BC91A02DC157DF4FB983A883CF58D040C4
:104EF000F4010190F081E02DCF56DF4FF983E88374
:104F0000C159D040D3010D90BC91A02DCD56DF4F9B
:104F1000B983A883C359D040F2010190F081E02DFC
:104F2000CB56DF4FF983E883C559D04081E08093A9
:104F3000620388E6809384031092630310928503D2
:104F400090E080E00E9410060AE010E0CF56DF4FAC
:104F500088819981C159D040B8010E94C92FE4E0ED
:104F6000660F771FEA95E1F78F709927862B972BAD
:104F70000E941006CD56DF4F88819981C359D040D9
:104F8000B8010E94C92FF4E0660F771FFA95E1F788
:104F90008F709927862B972B0E941006CB56DF4FD8
:104FA00088819981C559D040B8010E94C92FA4E0D9
:104FB000660F771FAA95E1F7607377278F7099279F
:104FC000862B972B0E94100681E090E00E9410062D
:104FD000C157DF4F88819981CF58D040B8010E94D6
:104FE000C92FB4E0660F771FBA95E1F78F70992744
:104FF000862B972B0E941006C357DF4F888199811B
:10500000CD58D040B8010E94C92F24E0660F771F09
:105010002A95E1F78F709927862B972B0E9410060F
:10502000C557DF4F88819981CB58D040B8010E9485
:10503000C92F34E0660F771F3A95E1F78F709927F3
:10504000862B972B0E94100683E294E00E9415069F
:105050000FB6F894DEBF0FBECDBFCE018D960E9475
:105060009C0F892B09F081CECE01C9960E94EC0DD0
:10507000EF2809F437CE1D861E861C821B8288EE1F
:1050800093E0A0E0B0E08D839E83AF83B8878EE588
:1050900091E09A83898343E66DEF71E0CE010D962E
:1050A0000E94711ABE016F5F7F4FCE018D960E94E4
:1050B000750FC957DF4F488159816A817B81C75875
:1050C000D040CE01C9960E942B0D69E172E0CE015D
:1050D0008D960E946016CE01C9960E94EC0D02CEFC
:1050E000109213011092100182E090E0909312014F
:1050F00080931101B2CF81E0809310019DCE85E1B4
:105100008093100187E198CE81E191E09F938F9386
:1051100086E192E09F938F93BF92AF920E945830A6
:105120000F900F900F900F900F900F9096CF60ED13
:1051300077E080E090E00E9431030E942C0F0E94F3
:10514000C9136CE172E086E893E00E94601640911A
:1051500010035091110360911203709113032AE020
:1051600086E893E00E943C1586E893E00E9438159B
:10517000609103014AE050E086E893E00E948815C0
:1051800060E272E086E893E00E946016609102019E
:105190004AE050E086E893E00E94881560E272E001
:1051A00086E893E00E946016609101014AE050E0B9
:1051B00086E893E00E94881562E272E086E893E058
:1051C0000E946016609100014AE050E086E893E09A
:1051D0000E94881568E372E086E893E00E946016FA
:1051E0006091CF024AE050E086E893E00E94881583
:1051F00068E372E086E893E00E9460166091CE0258
:105200004AE050E086E893E00E94881586E893E043
:105210000E94381586E893E00E941E0268E873E158
:1052200080E090E00E94310381E08093620380E49B
:1052300080938403109263031092850390E080E0D2
:105240000E94100683E294E00E94150662E070E07E
:1052500080E090E00E94310341E062E080E40E943F
:10526000B904F82E1092C4028093C50262E070E087
:1052700080E090E00E94310310E000E08091C402E1
:10528000F81639F083E294E00E94A1050F5F1F4FEA
:10529000F5CF012B09F447C00E94AE0E64E170E027
:1052A00080E090E00E9431030E942913C12CD12C90
:1052B000760101E010E00E94AE0E64E170E080E053
:1052C00090E00E9431030E94291364E670E080E0C0
:1052D00090E00E9431032091CA023091CB024091AC
:1052E000CC025091CD02C701B6010E94632D6B0123
:1052F0007C01B801012E000C880B990B0E947E2EB8
:105300009B01AC01C701B6010E94D42D6093C60277
:105310007093C7028093C8029093C9020F5F1F4F1A
:105320000A30110541F661E089E00E94900268EBC5
:105330007BE080E090E00E94310360E089E00E9421
:10534000900268E873E180E090E00E94310360E041
:1053500086E00E94900260E085E00E9490028091C9
:10536000100390911103A0911203B0911303809345
:105370000C0390930D03A0930E03B0930F03809141
:10538000100390911103A0911203B0911303809325
:10539000FE029093FF02A0930003B09301030E94CA
:1053A000C9131D861E861C821B8288EE93E0A0E036
:1053B000B0E08D839E83AF83B8878EE591E09A83BA
:1053C000898346E464E272E0CE010D960E94711A70
:1053D0006CE272E0CE0101960E94601664E071E01A
:1053E000CE0101960E942915CE0101960E94381522
:1053F0006AE372E0CE0101960E9460160EE010E0B2
:1054000051E2F52EF801F0925700649140E150E02E
:10541000CE0101960E9488150F5F1F4F08311105BC
:1054200089F7CE0101960E943815609103014AE088
:1054300050E0CE0101960E94881560E272E0CE0134
:1054400001960E946016609102014AE050E0CE0190
:1054500001960E94881560E272E0CE0101960E94DA
:105460006016609101014AE050E0CE0101960E9471
:10547000881562E272E0CE0101960E94601660918A
:1054800000014AE050E0CE0101960E94881568E3D1
:1054900072E0CE0101960E9460166091CF024AE050
:1054A00050E0CE0101960E94881568E372E0CE01BB
:1054B00001960E9460166091CE024AE050E0CE0153
:1054C00001960E948815CE0101960E943815CE01E2
:1054D0000D960E94EC0D60E088E00E9490028091A1
:1054E000100390911103A0911203B091130305963C
:1054F000A11DB11D8093080390930903A0930A0393
:10550000B0930B03A0911001AA23D9F0C09010030F
:10551000D0901103E0901203F0901303B0E020E864
:1055200031E541E050E00E940E30C60ED71EE81E65
:10553000F91EC0920803D0920903E0920A03F09288
:105540000B030E94C00E8FB7F89490E8909361000F
:1055500092E0909361008FBF3CE3432E512C612C6D
:10556000712C42E0242E33243394809114039091C3
:105570001503892B09F0B9C061E088E00E94900210
:105580000E94C91360E088E00E949002809110039D
:1055900090911103A0911203B091130340910C0359
:1055A00050910D0360910E0370910F03841B950BB6
:1055B000A60BB70B81319E40A105B10520F01092DA
:1055C0001501109214018091140190911501892BFD
:1055D00071F061E084E00E94900261E081E10E944C
:1055E000900263E070E080E090E00E94310360E0B0
:1055F00084E00E94900260E081E10E94900283B703
:10560000817F846083BF83B7816083BF83B78160FC
:1056100083BF889583B78E7F83BF83B78E7F83BF19
:1056200080916400807180936400409110035091D8
:1056300011036091120370911303809108039091FC
:105640000903A0910A03B0910B03481759076A0791
:105650007B0708F48ACF8091080390910903A091F9
:105660000A03B0910B03805E934EAF4FBF4F809300
:10567000040390930503A0930603B093070380915E
:10568000080390910903A0910A03B0910B03805E77
:10569000934EAF4FBF4F8093080390930903A0939D
:1056A0000A03B0930B030E94621F61E088E00E942E
:1056B000900265E070E080E090E00E9431032FEFFF
:1056C00041E063E274E08FEA96E00E948C0641E0DC
:1056D00050E0509315034093140362E080912F042F
:1056E000909130040E94CE0E40CF8091140390918F
:1056F0001503019709F0D9C1809103038111A3C05B
:105700008090100390901103A0901203B0901303A7
:10571000C0900C03D0900D03E0900E03F0900F03A7
:105720006091100370911103809112039091130303
:105730000091FE021091FF022091000330910103BD
:10574000601B710B820B930BA30192010E94DD2F52
:105750006091110170911201CB01770FAA0BBB0B65
:1057600061E0281739074A075B0708F460E091E019
:1057700020910203203508F090E0862F892309F458
:1057800062C0C501B4016C197D098E099F090E9490
:105790007C2E20E030EC48EA57E40E94D42D4B01E7
:1057A0005C016091130170E090E080E00E947E2E29
:1057B0009B01AC01C501B4010E942E2F87FD43C09F
:1057C0000091FD026091D5027091D6028091D702BE
:1057D0009091D8028090D5029090D602A090D702E6
:1057E000B090D80210E0000F111F07521D4F0E9409
:1057F0004D2ED8012D913C91C901861B970B853602
:1058000091050CF1C501B4010E94462E643171402E
:10581000D4F061E086E00E94900261E089E00E949D
:105820009002309203038091100390911103A09194
:105830001203B09113038093D1029093D202A093EC
:10584000D302B093D40211E080910303813009F0B8
:1058500010E08091D002811125C0112319F18091AF
:10586000100390911103A0911203B0911303409182
:10587000D1025091D2026091D3027091D402841B64
:10588000950BA60BB70B4F97A105B10558F061E03A
:1058900085E00E9490023092D002809102038F5FD7
:1058A000809302038091D002813021F58091100312
:1058B00090911103A0911203B09113034091D10272
:1058C0005091D2026091D3027091D402841B950B47
:1058D000A60BB70B8997A105B10560F084E10E9482
:1058E000FA02883C910534F460E085E00E94900261
:1058F0002092D0028091100390911103A091120385
:10590000B09113034091D1025091D2026091D30221
:105910007091D402841B950BA60BB70B88379105A9
:10592000A105B10560F0112351F060E085E00E940F
:10593000900260E089E00E9490022092030380912F
:105940000303823039F58EE00E946702892B11F53E
:1059500060E086E00E949002809110039091110314
:10596000A0911203B09113038093FE029093FF0263
:10597000A0930003B09301031092D002109203038E
:105980006AE472E086E893E00E94291586E893E0D5
:105990000E9438158091100390911103A091120379
:1059A000B091130340910C0350910D0360910E03CD
:1059B00070910F03841B950BA60BB70B81319E4092
:1059C000A105B10520F0109215011092140140912B
:1059D0001003509111036091120370911303809191
:1059E000040390910503A0910603B09107034817A3
:1059F00059076A077B0730F1809170008E7F809392
:105A000070008FE394E00E94EC0D8091040390916C
:105A10000503A0910603B0910703805E934EAF4F3C
:105A2000BF4F8093040390930503A0930603B093A4
:105A300007030E94621F62E080912F04909130045E
:105A40000E94CE0E80E10E946702892B09F04DCEA4
:105A50006AE070E080E090E00E94310380E10E9403
:105A60006702892B09F041CE809170008E7F809370
:105A7000700061E081E10E9490028FE394E00E9457
:105A8000EC0D60E375E780E090E00E94310362E096
:105A900080912F04909130040E94CE0E0E94621FCC
:105AA00060E081E10E94900220CE40E050E0452B72
:105AB00009F45BCD0E949B01882309F456CD0E9416
:105AC000000053CD5058BB27AA270E947A2D0C9472
:105AD000F42E0E94E62E38F00E94ED2E20F039F4CC
